{
	"carbon.sol": {
		"CarbonOffsetMarketplace": {
			"abi": [
				{
					"inputs": [],
					"stateMutability": "nonpayable",
					"type": "constructor"
				},
				{
					"anonymous": false,
					"inputs": [
						{
							"indexed": true,
							"internalType": "address",
							"name": "buyer",
							"type": "address"
						},
						{
							"indexed": false,
							"internalType": "uint256",
							"name": "projectId",
							"type": "uint256"
						},
						{
							"indexed": false,
							"internalType": "uint256",
							"name": "credits",
							"type": "uint256"
						}
					],
					"name": "CreditsPurchased",
					"type": "event"
				},
				{
					"anonymous": false,
					"inputs": [
						{
							"indexed": true,
							"internalType": "address",
							"name": "user",
							"type": "address"
						},
						{
							"indexed": false,
							"internalType": "uint256",
							"name": "projectId",
							"type": "uint256"
						},
						{
							"indexed": false,
							"internalType": "uint256",
							"name": "credits",
							"type": "uint256"
						}
					],
					"name": "CreditsRetired",
					"type": "event"
				},
				{
					"anonymous": false,
					"inputs": [
						{
							"indexed": true,
							"internalType": "address",
							"name": "from",
							"type": "address"
						},
						{
							"indexed": true,
							"internalType": "address",
							"name": "to",
							"type": "address"
						},
						{
							"indexed": false,
							"internalType": "uint256",
							"name": "projectId",
							"type": "uint256"
						},
						{
							"indexed": false,
							"internalType": "uint256",
							"name": "credits",
							"type": "uint256"
						}
					],
					"name": "CreditsTransferred",
					"type": "event"
				},
				{
					"anonymous": false,
					"inputs": [
						{
							"indexed": false,
							"internalType": "uint256",
							"name": "projectId",
							"type": "uint256"
						},
						{
							"indexed": false,
							"internalType": "string",
							"name": "name",
							"type": "string"
						},
						{
							"indexed": false,
							"internalType": "uint256",
							"name": "totalCredits",
							"type": "uint256"
						},
						{
							"indexed": false,
							"internalType": "uint256",
							"name": "pricePerCredit",
							"type": "uint256"
						}
					],
					"name": "ProjectRegistered",
					"type": "event"
				},
				{
					"anonymous": false,
					"inputs": [
						{
							"indexed": false,
							"internalType": "uint256",
							"name": "projectId",
							"type": "uint256"
						},
						{
							"indexed": false,
							"internalType": "string",
							"name": "name",
							"type": "string"
						},
						{
							"indexed": false,
							"internalType": "uint256",
							"name": "totalCredits",
							"type": "uint256"
						},
						{
							"indexed": false,
							"internalType": "uint256",
							"name": "pricePerCredit",
							"type": "uint256"
						}
					],
					"name": "ProjectUpdated",
					"type": "event"
				},
				{
					"anonymous": false,
					"inputs": [
						{
							"indexed": false,
							"internalType": "uint256",
							"name": "proposalId",
							"type": "uint256"
						},
						{
							"indexed": false,
							"internalType": "string",
							"name": "description",
							"type": "string"
						},
						{
							"indexed": false,
							"internalType": "address",
							"name": "proposer",
							"type": "address"
						}
					],
					"name": "ProposalCreated",
					"type": "event"
				},
				{
					"anonymous": false,
					"inputs": [
						{
							"indexed": false,
							"internalType": "uint256",
							"name": "proposalId",
							"type": "uint256"
						}
					],
					"name": "ProposalExecuted",
					"type": "event"
				},
				{
					"anonymous": false,
					"inputs": [
						{
							"indexed": false,
							"internalType": "uint256",
							"name": "proposalId",
							"type": "uint256"
						},
						{
							"indexed": false,
							"internalType": "address",
							"name": "voter",
							"type": "address"
						},
						{
							"indexed": false,
							"internalType": "bool",
							"name": "support",
							"type": "bool"
						}
					],
					"name": "VoteCast",
					"type": "event"
				},
				{
					"inputs": [],
					"name": "allowNonOwnerRegistration",
					"outputs": [
						{
							"internalType": "bool",
							"name": "",
							"type": "bool"
						}
					],
					"stateMutability": "view",
					"type": "function"
				},
				{
					"inputs": [
						{
							"internalType": "string",
							"name": "_description",
							"type": "string"
						}
					],
					"name": "createProposal",
					"outputs": [],
					"stateMutability": "nonpayable",
					"type": "function"
				},
				{
					"inputs": [
						{
							"internalType": "uint256",
							"name": "_proposalId",
							"type": "uint256"
						}
					],
					"name": "executeProposal",
					"outputs": [],
					"stateMutability": "nonpayable",
					"type": "function"
				},
				{
					"inputs": [],
					"name": "feePercentage",
					"outputs": [
						{
							"internalType": "uint256",
							"name": "",
							"type": "uint256"
						}
					],
					"stateMutability": "view",
					"type": "function"
				},
				{
					"inputs": [
						{
							"internalType": "uint256",
							"name": "_projectId",
							"type": "uint256"
						}
					],
					"name": "getProject",
					"outputs": [
						{
							"internalType": "string",
							"name": "",
							"type": "string"
						},
						{
							"internalType": "uint256",
							"name": "",
							"type": "uint256"
						},
						{
							"internalType": "uint256",
							"name": "",
							"type": "uint256"
						},
						{
							"internalType": "uint256",
							"name": "",
							"type": "uint256"
						},
						{
							"internalType": "address",
							"name": "",
							"type": "address"
						}
					],
					"stateMutability": "view",
					"type": "function"
				},
				{
					"inputs": [
						{
							"internalType": "address",
							"name": "_user",
							"type": "address"
						},
						{
							"internalType": "uint256",
							"name": "_projectId",
							"type": "uint256"
						}
					],
					"name": "getUserCredits",
					"outputs": [
						{
							"internalType": "uint256",
							"name": "",
							"type": "uint256"
						}
					],
					"stateMutability": "view",
					"type": "function"
				},
				{
					"inputs": [
						{
							"internalType": "address",
							"name": "_user",
							"type": "address"
						}
					],
					"name": "getUserReputation",
					"outputs": [
						{
							"internalType": "uint256",
							"name": "",
							"type": "uint256"
						}
					],
					"stateMutability": "view",
					"type": "function"
				},
				{
					"inputs": [],
					"name": "minVotesForProposal",
					"outputs": [
						{
							"internalType": "uint256",
							"name": "",
							"type": "uint256"
						}
					],
					"stateMutability": "view",
					"type": "function"
				},
				{
					"inputs": [],
					"name": "owner",
					"outputs": [
						{
							"internalType": "address",
							"name": "",
							"type": "address"
						}
					],
					"stateMutability": "view",
					"type": "function"
				},
				{
					"inputs": [],
					"name": "projectCount",
					"outputs": [
						{
							"internalType": "uint256",
							"name": "",
							"type": "uint256"
						}
					],
					"stateMutability": "view",
					"type": "function"
				},
				{
					"inputs": [
						{
							"internalType": "uint256",
							"name": "",
							"type": "uint256"
						}
					],
					"name": "projects",
					"outputs": [
						{
							"internalType": "address",
							"name": "owner",
							"type": "address"
						},
						{
							"internalType": "string",
							"name": "name",
							"type": "string"
						},
						{
							"internalType": "uint256",
							"name": "totalCredits",
							"type": "uint256"
						},
						{
							"internalType": "uint256",
							"name": "availableCredits",
							"type": "uint256"
						},
						{
							"internalType": "uint256",
							"name": "pricePerCredit",
							"type": "uint256"
						}
					],
					"stateMutability": "view",
					"type": "function"
				},
				{
					"inputs": [
						{
							"internalType": "uint256",
							"name": "",
							"type": "uint256"
						}
					],
					"name": "proposals",
					"outputs": [
						{
							"internalType": "address",
							"name": "proposer",
							"type": "address"
						},
						{
							"internalType": "string",
							"name": "description",
							"type": "string"
						},
						{
							"internalType": "uint256",
							"name": "votesFor",
							"type": "uint256"
						},
						{
							"internalType": "uint256",
							"name": "votesAgainst",
							"type": "uint256"
						},
						{
							"internalType": "bool",
							"name": "executed",
							"type": "bool"
						}
					],
					"stateMutability": "view",
					"type": "function"
				},
				{
					"inputs": [
						{
							"internalType": "uint256",
							"name": "_projectId",
							"type": "uint256"
						},
						{
							"internalType": "uint256",
							"name": "_credits",
							"type": "uint256"
						}
					],
					"name": "purchaseCredits",
					"outputs": [],
					"stateMutability": "payable",
					"type": "function"
				},
				{
					"inputs": [
						{
							"internalType": "string",
							"name": "_name",
							"type": "string"
						},
						{
							"internalType": "uint256",
							"name": "_totalCredits",
							"type": "uint256"
						},
						{
							"internalType": "uint256",
							"name": "_pricePerCredit",
							"type": "uint256"
						}
					],
					"name": "registerProject",
					"outputs": [],
					"stateMutability": "nonpayable",
					"type": "function"
				},
				{
					"inputs": [
						{
							"internalType": "uint256",
							"name": "_projectId",
							"type": "uint256"
						},
						{
							"internalType": "uint256",
							"name": "_credits",
							"type": "uint256"
						}
					],
					"name": "retireCredits",
					"outputs": [],
					"stateMutability": "nonpayable",
					"type": "function"
				},
				{
					"inputs": [
						{
							"internalType": "uint256",
							"name": "_minVotes",
							"type": "uint256"
						}
					],
					"name": "setMinVotesForProposal",
					"outputs": [],
					"stateMutability": "nonpayable",
					"type": "function"
				},
				{
					"inputs": [
						{
							"internalType": "bool",
							"name": "_allow",
							"type": "bool"
						}
					],
					"name": "toggleNonOwnerRegistration",
					"outputs": [],
					"stateMutability": "nonpayable",
					"type": "function"
				},
				{
					"inputs": [
						{
							"internalType": "address",
							"name": "_to",
							"type": "address"
						},
						{
							"internalType": "uint256",
							"name": "_projectId",
							"type": "uint256"
						},
						{
							"internalType": "uint256",
							"name": "_credits",
							"type": "uint256"
						}
					],
					"name": "transferCredits",
					"outputs": [],
					"stateMutability": "payable",
					"type": "function"
				},
				{
					"inputs": [],
					"name": "transferFee",
					"outputs": [
						{
							"internalType": "uint256",
							"name": "",
							"type": "uint256"
						}
					],
					"stateMutability": "view",
					"type": "function"
				},
				{
					"inputs": [
						{
							"internalType": "uint256",
							"name": "_projectId",
							"type": "uint256"
						},
						{
							"internalType": "string",
							"name": "_name",
							"type": "string"
						},
						{
							"internalType": "uint256",
							"name": "_totalCredits",
							"type": "uint256"
						},
						{
							"internalType": "uint256",
							"name": "_pricePerCredit",
							"type": "uint256"
						}
					],
					"name": "updateProject",
					"outputs": [],
					"stateMutability": "nonpayable",
					"type": "function"
				},
				{
					"inputs": [
						{
							"internalType": "address",
							"name": "",
							"type": "address"
						},
						{
							"internalType": "uint256",
							"name": "",
							"type": "uint256"
						}
					],
					"name": "userCredits",
					"outputs": [
						{
							"internalType": "uint256",
							"name": "",
							"type": "uint256"
						}
					],
					"stateMutability": "view",
					"type": "function"
				},
				{
					"inputs": [
						{
							"internalType": "address",
							"name": "",
							"type": "address"
						}
					],
					"name": "userReputation",
					"outputs": [
						{
							"internalType": "uint256",
							"name": "",
							"type": "uint256"
						}
					],
					"stateMutability": "view",
					"type": "function"
				},
				{
					"inputs": [
						{
							"internalType": "uint256",
							"name": "_proposalId",
							"type": "uint256"
						},
						{
							"internalType": "bool",
							"name": "_support",
							"type": "bool"
						}
					],
					"name": "voteOnProposal",
					"outputs": [],
					"stateMutability": "nonpayable",
					"type": "function"
				}
			],
			"devdoc": {
				"kind": "dev",
				"methods": {},
				"version": 1
			},
			"evm": {
				"assembly": "    /* \"carbon.sol\":60:9901  contract CarbonOffsetMarketplace {\r... */\n  mstore(0x40, 0x80)\n    /* \"carbon.sol\":158:161  100 */\n  0x64\n    /* \"carbon.sol\":127:161  uint256 public feePercentage = 100 */\n  0x01\n  sstore\n    /* \"carbon.sol\":272:277  false */\n  0x00\n    /* \"carbon.sol\":232:277  bool public allowNonOwnerRegistration = false */\n  0x02\n  exp(0x0100, 0x00)\n  dup2\n  sload\n  dup2\n  0xff\n  mul\n  not\n  and\n  swap1\n  dup4\n  iszero\n  iszero\n  mul\n  or\n  swap1\n  sstore\n  pop\n    /* \"carbon.sol\":379:380  1 */\n  0x01\n    /* \"carbon.sol\":342:380  uint256 public minVotesForProposal = 1 */\n  0x03\n  sstore\n    /* \"carbon.sol\":472:479  2 ether */\n  0x1bc16d674ec80000\n    /* \"carbon.sol\":443:479  uint256 public transferFee = 2 ether */\n  0x04\n  sstore\n    /* \"carbon.sol\":2229:2280  constructor() {\r... */\n  callvalue\n  dup1\n  iszero\n  tag_1\n  jumpi\n  0x00\n  dup1\n  revert\ntag_1:\n  pop\n    /* \"carbon.sol\":2262:2272  msg.sender */\n  caller\n    /* \"carbon.sol\":2254:2259  owner */\n  0x00\n  dup1\n    /* \"carbon.sol\":2254:2272  owner = msg.sender */\n  0x0100\n  exp\n  dup2\n  sload\n  dup2\n  0xffffffffffffffffffffffffffffffffffffffff\n  mul\n  not\n  and\n  swap1\n  dup4\n  0xffffffffffffffffffffffffffffffffffffffff\n  and\n  mul\n  or\n  swap1\n  sstore\n  pop\n    /* \"carbon.sol\":60:9901  contract CarbonOffsetMarketplace {\r... */\n  dataSize(sub_0)\n  dup1\n  dataOffset(sub_0)\n  0x00\n  codecopy\n  0x00\n  return\nstop\n\nsub_0: assembly {\n        /* \"carbon.sol\":60:9901  contract CarbonOffsetMarketplace {\r... */\n      mstore(0x40, 0x80)\n      jumpi(tag_1, lt(calldatasize, 0x04))\n      shr(0xe0, calldataload(0x00))\n      dup1\n      0x84034469\n      gt\n      tag_25\n      jumpi\n      dup1\n      0xbaccbfdb\n      gt\n      tag_26\n      jumpi\n      dup1\n      0xbaccbfdb\n      eq\n      tag_19\n      jumpi\n      dup1\n      0xc121cff0\n      eq\n      tag_20\n      jumpi\n      dup1\n      0xc9ded404\n      eq\n      tag_21\n      jumpi\n      dup1\n      0xe503bb05\n      eq\n      tag_22\n      jumpi\n      dup1\n      0xe636eb55\n      eq\n      tag_23\n      jumpi\n      dup1\n      0xf0f3f2c8\n      eq\n      tag_24\n      jumpi\n      jump(tag_1)\n    tag_26:\n      dup1\n      0x84034469\n      eq\n      tag_13\n      jumpi\n      dup1\n      0x8da5cb5b\n      eq\n      tag_14\n      jumpi\n      dup1\n      0xa001ecdd\n      eq\n      tag_15\n      jumpi\n      dup1\n      0xa2f6045a\n      eq\n      tag_16\n      jumpi\n      dup1\n      0xab52a745\n      eq\n      tag_17\n      jumpi\n      dup1\n      0xacb2ad6f\n      eq\n      tag_18\n      jumpi\n      jump(tag_1)\n    tag_25:\n      dup1\n      0x17a483a3\n      gt\n      tag_27\n      jumpi\n      dup1\n      0x17a483a3\n      eq\n      tag_7\n      jumpi\n      dup1\n      0x2f51d7ce\n      eq\n      tag_8\n      jumpi\n      dup1\n      0x354f75e1\n      eq\n      tag_9\n      jumpi\n      dup1\n      0x36fbad26\n      eq\n      tag_10\n      jumpi\n      dup1\n      0x3ea0fb13\n      eq\n      tag_11\n      jumpi\n      dup1\n      0x49c2a1a6\n      eq\n      tag_12\n      jumpi\n      jump(tag_1)\n    tag_27:\n      dup1\n      0x013cf08b\n      eq\n      tag_2\n      jumpi\n      dup1\n      0x0994c98f\n      eq\n      tag_3\n      jumpi\n      dup1\n      0x0d61b519\n      eq\n      tag_4\n      jumpi\n      dup1\n      0x107046bd\n      eq\n      tag_5\n      jumpi\n      dup1\n      0x1614665c\n      eq\n      tag_6\n      jumpi\n    tag_1:\n      0x00\n      dup1\n      revert\n        /* \"carbon.sol\":8159:8186  Proposal[] public proposals */\n    tag_2:\n      callvalue\n      dup1\n      iszero\n      tag_28\n      jumpi\n      0x00\n      dup1\n      revert\n    tag_28:\n      pop\n      tag_29\n      0x04\n      dup1\n      calldatasize\n      sub\n      dup2\n      add\n      swap1\n      tag_30\n      swap2\n      swap1\n      tag_31\n      jump\t// in\n    tag_30:\n      tag_32\n      jump\t// in\n    tag_29:\n      mload(0x40)\n      tag_33\n      swap6\n      swap5\n      swap4\n      swap3\n      swap2\n      swap1\n      tag_34\n      jump\t// in\n    tag_33:\n      mload(0x40)\n      dup1\n      swap2\n      sub\n      swap1\n      return\n        /* \"carbon.sol\":2605:2792  function setMinVotesForProposal(uint256 _minVotes) public {\r... */\n    tag_3:\n      callvalue\n      dup1\n      iszero\n      tag_35\n      jumpi\n      0x00\n      dup1\n      revert\n    tag_35:\n      pop\n      tag_36\n      0x04\n      dup1\n      calldatasize\n      sub\n      dup2\n      add\n      swap1\n      tag_37\n      swap2\n      swap1\n      tag_31\n      jump\t// in\n    tag_37:\n      tag_38\n      jump\t// in\n    tag_36:\n      stop\n        /* \"carbon.sol\":9310:9898  function executeProposal(uint256 _proposalId) public {\r... */\n    tag_4:\n      callvalue\n      dup1\n      iszero\n      tag_39\n      jumpi\n      0x00\n      dup1\n      revert\n    tag_39:\n      pop\n      tag_40\n      0x04\n      dup1\n      calldatasize\n      sub\n      dup2\n      add\n      swap1\n      tag_41\n      swap2\n      swap1\n      tag_31\n      jump\t// in\n    tag_41:\n      tag_42\n      jump\t// in\n    tag_40:\n      stop\n        /* \"carbon.sol\":799:842  mapping(uint256 => Project) public projects */\n    tag_5:\n      callvalue\n      dup1\n      iszero\n      tag_43\n      jumpi\n      0x00\n      dup1\n      revert\n    tag_43:\n      pop\n      tag_44\n      0x04\n      dup1\n      calldatasize\n      sub\n      dup2\n      add\n      swap1\n      tag_45\n      swap2\n      swap1\n      tag_31\n      jump\t// in\n    tag_45:\n      tag_46\n      jump\t// in\n    tag_44:\n      mload(0x40)\n      tag_47\n      swap6\n      swap5\n      swap4\n      swap3\n      swap2\n      swap1\n      tag_48\n      jump\t// in\n    tag_47:\n      mload(0x40)\n      dup1\n      swap2\n      sub\n      swap1\n      return\n        /* \"carbon.sol\":8787:9252  function voteOnProposal(uint256 _proposalId, bool _support) public {\r... */\n    tag_6:\n      callvalue\n      dup1\n      iszero\n      tag_49\n      jumpi\n      0x00\n      dup1\n      revert\n    tag_49:\n      pop\n      tag_50\n      0x04\n      dup1\n      calldatasize\n      sub\n      dup2\n      add\n      swap1\n      tag_51\n      swap2\n      swap1\n      tag_52\n      jump\t// in\n    tag_51:\n      tag_53\n      jump\t// in\n    tag_50:\n      stop\n        /* \"carbon.sol\":937:1003  mapping(address => mapping(uint256 => uint256)) public userCredits */\n    tag_7:\n      callvalue\n      dup1\n      iszero\n      tag_54\n      jumpi\n      0x00\n      dup1\n      revert\n    tag_54:\n      pop\n      tag_55\n      0x04\n      dup1\n      calldatasize\n      sub\n      dup2\n      add\n      swap1\n      tag_56\n      swap2\n      swap1\n      tag_57\n      jump\t// in\n    tag_56:\n      tag_58\n      jump\t// in\n    tag_55:\n      mload(0x40)\n      tag_59\n      swap2\n      swap1\n      tag_60\n      jump\t// in\n    tag_59:\n      mload(0x40)\n      dup1\n      swap2\n      sub\n      swap1\n      return\n        /* \"carbon.sol\":232:277  bool public allowNonOwnerRegistration = false */\n    tag_8:\n      callvalue\n      dup1\n      iszero\n      tag_61\n      jumpi\n      0x00\n      dup1\n      revert\n    tag_61:\n      pop\n      tag_62\n      tag_63\n      jump\t// in\n    tag_62:\n      mload(0x40)\n      tag_64\n      swap2\n      swap1\n      tag_65\n      jump\t// in\n    tag_64:\n      mload(0x40)\n      dup1\n      swap2\n      sub\n      swap1\n      return\n        /* \"carbon.sol\":3794:4650  function updateProject(uint256 _projectId, string memory _name, uint256 _totalCredits, uint256 _pricePerCredit) public {\r... */\n    tag_9:\n      callvalue\n      dup1\n      iszero\n      tag_66\n      jumpi\n      0x00\n      dup1\n      revert\n    tag_66:\n      pop\n      tag_67\n      0x04\n      dup1\n      calldatasize\n      sub\n      dup2\n      add\n      swap1\n      tag_68\n      swap2\n      swap1\n      tag_69\n      jump\t// in\n    tag_68:\n      tag_70\n      jump\t// in\n    tag_67:\n      stop\n        /* \"carbon.sol\":849:876  uint256 public projectCount */\n    tag_10:\n      callvalue\n      dup1\n      iszero\n      tag_71\n      jumpi\n      0x00\n      dup1\n      revert\n    tag_71:\n      pop\n      tag_72\n      tag_73\n      jump\t// in\n    tag_72:\n      mload(0x40)\n      tag_74\n      swap2\n      swap1\n      tag_60\n      jump\t// in\n    tag_74:\n      mload(0x40)\n      dup1\n      swap2\n      sub\n      swap1\n      return\n        /* \"carbon.sol\":5847:6215  function retireCredits(uint256 _projectId, uint256 _credits) public {\r... */\n    tag_11:\n      callvalue\n      dup1\n      iszero\n      tag_75\n      jumpi\n      0x00\n      dup1\n      revert\n    tag_75:\n      pop\n      tag_76\n      0x04\n      dup1\n      calldatasize\n      sub\n      dup2\n      add\n      swap1\n      tag_77\n      swap2\n      swap1\n      tag_78\n      jump\t// in\n    tag_77:\n      tag_79\n      jump\t// in\n    tag_76:\n      stop\n        /* \"carbon.sol\":8225:8752  function createProposal(string memory _description) public {\r... */\n    tag_12:\n      callvalue\n      dup1\n      iszero\n      tag_80\n      jumpi\n      0x00\n      dup1\n      revert\n    tag_80:\n      pop\n      tag_81\n      0x04\n      dup1\n      calldatasize\n      sub\n      dup2\n      add\n      swap1\n      tag_82\n      swap2\n      swap1\n      tag_83\n      jump\t// in\n    tag_82:\n      tag_84\n      jump\t// in\n    tag_81:\n      stop\n        /* \"carbon.sol\":4705:5789  function purchaseCredits(uint256 _projectId, uint256 _credits) public payable {\r... */\n    tag_13:\n      tag_85\n      0x04\n      dup1\n      calldatasize\n      sub\n      dup2\n      add\n      swap1\n      tag_86\n      swap2\n      swap1\n      tag_78\n      jump\t// in\n    tag_86:\n      tag_87\n      jump\t// in\n    tag_85:\n      stop\n        /* \"carbon.sol\":100:120  address public owner */\n    tag_14:\n      callvalue\n      dup1\n      iszero\n      tag_88\n      jumpi\n      0x00\n      dup1\n      revert\n    tag_88:\n      pop\n      tag_89\n      tag_90\n      jump\t// in\n    tag_89:\n      mload(0x40)\n      tag_91\n      swap2\n      swap1\n      tag_92\n      jump\t// in\n    tag_91:\n      mload(0x40)\n      dup1\n      swap2\n      sub\n      swap1\n      return\n        /* \"carbon.sol\":127:161  uint256 public feePercentage = 100 */\n    tag_15:\n      callvalue\n      dup1\n      iszero\n      tag_93\n      jumpi\n      0x00\n      dup1\n      revert\n    tag_93:\n      pop\n      tag_94\n      tag_95\n      jump\t// in\n    tag_94:\n      mload(0x40)\n      tag_96\n      swap2\n      swap1\n      tag_60\n      jump\t// in\n    tag_96:\n      mload(0x40)\n      dup1\n      swap2\n      sub\n      swap1\n      return\n        /* \"carbon.sol\":6269:7086  function transferCredits(address _to, uint256 _projectId, uint256 _credits) public payable {\r... */\n    tag_16:\n      tag_97\n      0x04\n      dup1\n      calldatasize\n      sub\n      dup2\n      add\n      swap1\n      tag_98\n      swap2\n      swap1\n      tag_99\n      jump\t// in\n    tag_98:\n      tag_100\n      jump\t// in\n    tag_97:\n      stop\n        /* \"carbon.sol\":2330:2532  function toggleNonOwnerRegistration(bool _allow) public {\r... */\n    tag_17:\n      callvalue\n      dup1\n      iszero\n      tag_101\n      jumpi\n      0x00\n      dup1\n      revert\n    tag_101:\n      pop\n      tag_102\n      0x04\n      dup1\n      calldatasize\n      sub\n      dup2\n      add\n      swap1\n      tag_103\n      swap2\n      swap1\n      tag_104\n      jump\t// in\n    tag_103:\n      tag_105\n      jump\t// in\n    tag_102:\n      stop\n        /* \"carbon.sol\":443:479  uint256 public transferFee = 2 ether */\n    tag_18:\n      callvalue\n      dup1\n      iszero\n      tag_106\n      jumpi\n      0x00\n      dup1\n      revert\n    tag_106:\n      pop\n      tag_107\n      tag_108\n      jump\t// in\n    tag_107:\n      mload(0x40)\n      tag_109\n      swap2\n      swap1\n      tag_60\n      jump\t// in\n    tag_109:\n      mload(0x40)\n      dup1\n      swap2\n      sub\n      swap1\n      return\n        /* \"carbon.sol\":7800:7919  function getUserReputation(address _user) public view returns (uint256) {\r... */\n    tag_19:\n      callvalue\n      dup1\n      iszero\n      tag_110\n      jumpi\n      0x00\n      dup1\n      revert\n    tag_110:\n      pop\n      tag_111\n      0x04\n      dup1\n      calldatasize\n      sub\n      dup2\n      add\n      swap1\n      tag_112\n      swap2\n      swap1\n      tag_113\n      jump\t// in\n    tag_112:\n      tag_114\n      jump\t// in\n    tag_111:\n      mload(0x40)\n      tag_115\n      swap2\n      swap1\n      tag_60\n      jump\t// in\n    tag_115:\n      mload(0x40)\n      dup1\n      swap2\n      sub\n      swap1\n      return\n        /* \"carbon.sol\":7543:7755  function getUserCredits(address _user, uint256 _projectId) public view returns (uint256) {\r... */\n    tag_20:\n      callvalue\n      dup1\n      iszero\n      tag_116\n      jumpi\n      0x00\n      dup1\n      revert\n    tag_116:\n      pop\n      tag_117\n      0x04\n      dup1\n      calldatasize\n      sub\n      dup2\n      add\n      swap1\n      tag_118\n      swap2\n      swap1\n      tag_57\n      jump\t// in\n    tag_118:\n      tag_119\n      jump\t// in\n    tag_117:\n      mload(0x40)\n      tag_120\n      swap2\n      swap1\n      tag_60\n      jump\t// in\n    tag_120:\n      mload(0x40)\n      dup1\n      swap2\n      sub\n      swap1\n      return\n        /* \"carbon.sol\":342:380  uint256 public minVotesForProposal = 1 */\n    tag_21:\n      callvalue\n      dup1\n      iszero\n      tag_121\n      jumpi\n      0x00\n      dup1\n      revert\n    tag_121:\n      pop\n      tag_122\n      tag_123\n      jump\t// in\n    tag_122:\n      mload(0x40)\n      tag_124\n      swap2\n      swap1\n      tag_60\n      jump\t// in\n    tag_124:\n      mload(0x40)\n      dup1\n      swap2\n      sub\n      swap1\n      return\n        /* \"carbon.sol\":1060:1109  mapping(address => uint256) public userReputation */\n    tag_22:\n      callvalue\n      dup1\n      iszero\n      tag_125\n      jumpi\n      0x00\n      dup1\n      revert\n    tag_125:\n      pop\n      tag_126\n      0x04\n      dup1\n      calldatasize\n      sub\n      dup2\n      add\n      swap1\n      tag_127\n      swap2\n      swap1\n      tag_113\n      jump\t// in\n    tag_127:\n      tag_128\n      jump\t// in\n    tag_126:\n      mload(0x40)\n      tag_129\n      swap2\n      swap1\n      tag_60\n      jump\t// in\n    tag_129:\n      mload(0x40)\n      dup1\n      swap2\n      sub\n      swap1\n      return\n        /* \"carbon.sol\":2845:3737  function registerProject(string memory _name, uint256 _totalCredits, uint256 _pricePerCredit) public {\r... */\n    tag_23:\n      callvalue\n      dup1\n      iszero\n      tag_130\n      jumpi\n      0x00\n      dup1\n      revert\n    tag_130:\n      pop\n      tag_131\n      0x04\n      dup1\n      calldatasize\n      sub\n      dup2\n      add\n      swap1\n      tag_132\n      swap2\n      swap1\n      tag_133\n      jump\t// in\n    tag_132:\n      tag_134\n      jump\t// in\n    tag_131:\n      stop\n        /* \"carbon.sol\":7122:7485  function getProject(uint256 _projectId) public view returns (string memory, uint256, uint256, uint256, address) {\r... */\n    tag_24:\n      callvalue\n      dup1\n      iszero\n      tag_135\n      jumpi\n      0x00\n      dup1\n      revert\n    tag_135:\n      pop\n      tag_136\n      0x04\n      dup1\n      calldatasize\n      sub\n      dup2\n      add\n      swap1\n      tag_137\n      swap2\n      swap1\n      tag_31\n      jump\t// in\n    tag_137:\n      tag_138\n      jump\t// in\n    tag_136:\n      mload(0x40)\n      tag_139\n      swap6\n      swap5\n      swap4\n      swap3\n      swap2\n      swap1\n      tag_140\n      jump\t// in\n    tag_139:\n      mload(0x40)\n      dup1\n      swap2\n      sub\n      swap1\n      return\n        /* \"carbon.sol\":8159:8186  Proposal[] public proposals */\n    tag_32:\n      0x09\n      dup2\n      dup2\n      sload\n      dup2\n      lt\n      tag_141\n      jumpi\n      0x00\n      dup1\n      revert\n    tag_141:\n      swap1\n      0x00\n      mstore\n      keccak256(0x00, 0x20)\n      swap1\n      0x05\n      mul\n      add\n      0x00\n      swap2\n      pop\n      swap1\n      pop\n      dup1\n      0x00\n      add\n      0x00\n      swap1\n      sload\n      swap1\n      0x0100\n      exp\n      swap1\n      div\n      0xffffffffffffffffffffffffffffffffffffffff\n      and\n      swap1\n      dup1\n      0x01\n      add\n      dup1\n      sload\n      tag_143\n      swap1\n      tag_144\n      jump\t// in\n    tag_143:\n      dup1\n      0x1f\n      add\n      0x20\n      dup1\n      swap2\n      div\n      mul\n      0x20\n      add\n      mload(0x40)\n      swap1\n      dup2\n      add\n      0x40\n      mstore\n      dup1\n      swap3\n      swap2\n      swap1\n      dup2\n      dup2\n      mstore\n      0x20\n      add\n      dup3\n      dup1\n      sload\n      tag_145\n      swap1\n      tag_144\n      jump\t// in\n    tag_145:\n      dup1\n      iszero\n      tag_146\n      jumpi\n      dup1\n      0x1f\n      lt\n      tag_147\n      jumpi\n      0x0100\n      dup1\n      dup4\n      sload\n      div\n      mul\n      dup4\n      mstore\n      swap2\n      0x20\n      add\n      swap2\n      jump(tag_146)\n    tag_147:\n      dup3\n      add\n      swap2\n      swap1\n      0x00\n      mstore\n      keccak256(0x00, 0x20)\n      swap1\n    tag_148:\n      dup2\n      sload\n      dup2\n      mstore\n      swap1\n      0x01\n      add\n      swap1\n      0x20\n      add\n      dup1\n      dup4\n      gt\n      tag_148\n      jumpi\n      dup3\n      swap1\n      sub\n      0x1f\n      and\n      dup3\n      add\n      swap2\n    tag_146:\n      pop\n      pop\n      pop\n      pop\n      pop\n      swap1\n      dup1\n      0x02\n      add\n      sload\n      swap1\n      dup1\n      0x03\n      add\n      sload\n      swap1\n      dup1\n      0x04\n      add\n      0x00\n      swap1\n      sload\n      swap1\n      0x0100\n      exp\n      swap1\n      div\n      0xff\n      and\n      swap1\n      pop\n      dup6\n      jump\t// out\n        /* \"carbon.sol\":2605:2792  function setMinVotesForProposal(uint256 _minVotes) public {\r... */\n    tag_38:\n        /* \"carbon.sol\":2696:2701  owner */\n      0x00\n      dup1\n      sload\n      swap1\n      0x0100\n      exp\n      swap1\n      div\n      0xffffffffffffffffffffffffffffffffffffffff\n      and\n        /* \"carbon.sol\":2682:2701  msg.sender == owner */\n      0xffffffffffffffffffffffffffffffffffffffff\n      and\n        /* \"carbon.sol\":2682:2692  msg.sender */\n      caller\n        /* \"carbon.sol\":2682:2701  msg.sender == owner */\n      0xffffffffffffffffffffffffffffffffffffffff\n      and\n      eq\n        /* \"carbon.sol\":2674:2742  require(msg.sender == owner, \"Only the owner can set minimum votes\") */\n      tag_150\n      jumpi\n      mload(0x40)\n      0x08c379a000000000000000000000000000000000000000000000000000000000\n      dup2\n      mstore\n      0x04\n      add\n      tag_151\n      swap1\n      tag_152\n      jump\t// in\n    tag_151:\n      mload(0x40)\n      dup1\n      swap2\n      sub\n      swap1\n      revert\n    tag_150:\n        /* \"carbon.sol\":2775:2784  _minVotes */\n      dup1\n        /* \"carbon.sol\":2753:2772  minVotesForProposal */\n      0x03\n        /* \"carbon.sol\":2753:2784  minVotesForProposal = _minVotes */\n      dup2\n      swap1\n      sstore\n      pop\n        /* \"carbon.sol\":2605:2792  function setMinVotesForProposal(uint256 _minVotes) public {\r... */\n      pop\n      jump\t// out\n        /* \"carbon.sol\":9310:9898  function executeProposal(uint256 _proposalId) public {\r... */\n    tag_42:\n        /* \"carbon.sol\":9396:9401  owner */\n      0x00\n      dup1\n      sload\n      swap1\n      0x0100\n      exp\n      swap1\n      div\n      0xffffffffffffffffffffffffffffffffffffffff\n      and\n        /* \"carbon.sol\":9382:9401  msg.sender == owner */\n      0xffffffffffffffffffffffffffffffffffffffff\n      and\n        /* \"carbon.sol\":9382:9392  msg.sender */\n      caller\n        /* \"carbon.sol\":9382:9401  msg.sender == owner */\n      0xffffffffffffffffffffffffffffffffffffffff\n      and\n      eq\n        /* \"carbon.sol\":9374:9442  require(msg.sender == owner, \"Only the owner can execute proposals\") */\n      tag_154\n      jumpi\n      mload(0x40)\n      0x08c379a000000000000000000000000000000000000000000000000000000000\n      dup2\n      mstore\n      0x04\n      add\n      tag_155\n      swap1\n      tag_156\n      jump\t// in\n    tag_155:\n      mload(0x40)\n      dup1\n      swap2\n      sub\n      swap1\n      revert\n    tag_154:\n        /* \"carbon.sol\":9475:9484  proposals */\n      0x09\n        /* \"carbon.sol\":9475:9491  proposals.length */\n      dup1\n      sload\n      swap1\n      pop\n        /* \"carbon.sol\":9461:9472  _proposalId */\n      dup2\n        /* \"carbon.sol\":9461:9491  _proposalId < proposals.length */\n      lt\n        /* \"carbon.sol\":9453:9515  require(_proposalId < proposals.length, \"Invalid proposal ID\") */\n      tag_157\n      jumpi\n      mload(0x40)\n      0x08c379a000000000000000000000000000000000000000000000000000000000\n      dup2\n      mstore\n      0x04\n      add\n      tag_158\n      swap1\n      tag_159\n      jump\t// in\n    tag_158:\n      mload(0x40)\n      dup1\n      swap2\n      sub\n      swap1\n      revert\n    tag_157:\n        /* \"carbon.sol\":9526:9551  Proposal storage proposal */\n      0x00\n        /* \"carbon.sol\":9554:9563  proposals */\n      0x09\n        /* \"carbon.sol\":9564:9575  _proposalId */\n      dup3\n        /* \"carbon.sol\":9554:9576  proposals[_proposalId] */\n      dup2\n      sload\n      dup2\n      lt\n      tag_160\n      jumpi\n      mstore(0x00, 0x4e487b7100000000000000000000000000000000000000000000000000000000)\n      mstore(0x04, 0x32)\n      revert(0x00, 0x24)\n    tag_160:\n      swap1\n      0x00\n      mstore\n      keccak256(0x00, 0x20)\n      swap1\n      0x05\n      mul\n      add\n        /* \"carbon.sol\":9526:9576  Proposal storage proposal = proposals[_proposalId] */\n      swap1\n      pop\n        /* \"carbon.sol\":9596:9604  proposal */\n      dup1\n        /* \"carbon.sol\":9596:9613  proposal.executed */\n      0x04\n      add\n      0x00\n      swap1\n      sload\n      swap1\n      0x0100\n      exp\n      swap1\n      div\n      0xff\n      and\n        /* \"carbon.sol\":9595:9613  !proposal.executed */\n      iszero\n        /* \"carbon.sol\":9587:9643  require(!proposal.executed, \"Proposal already executed\") */\n      tag_162\n      jumpi\n      mload(0x40)\n      0x08c379a000000000000000000000000000000000000000000000000000000000\n      dup2\n      mstore\n      0x04\n      add\n      tag_163\n      swap1\n      tag_164\n      jump\t// in\n    tag_163:\n      mload(0x40)\n      dup1\n      swap2\n      sub\n      swap1\n      revert\n    tag_162:\n        /* \"carbon.sol\":9683:9702  minVotesForProposal */\n      sload(0x03)\n        /* \"carbon.sol\":9662:9670  proposal */\n      dup2\n        /* \"carbon.sol\":9662:9679  proposal.votesFor */\n      0x02\n      add\n      sload\n        /* \"carbon.sol\":9662:9702  proposal.votesFor >= minVotesForProposal */\n      lt\n      iszero\n        /* \"carbon.sol\":9654:9755  require(proposal.votesFor >= minVotesForProposal, \"Proposal did not meet the minimum votes required\") */\n      tag_165\n      jumpi\n      mload(0x40)\n      0x08c379a000000000000000000000000000000000000000000000000000000000\n      dup2\n      mstore\n      0x04\n      add\n      tag_166\n      swap1\n      tag_167\n      jump\t// in\n    tag_166:\n      mload(0x40)\n      dup1\n      swap2\n      sub\n      swap1\n      revert\n    tag_165:\n        /* \"carbon.sol\":9841:9845  true */\n      0x01\n        /* \"carbon.sol\":9821:9829  proposal */\n      dup2\n        /* \"carbon.sol\":9821:9838  proposal.executed */\n      0x04\n      add\n      0x00\n        /* \"carbon.sol\":9821:9845  proposal.executed = true */\n      0x0100\n      exp\n      dup2\n      sload\n      dup2\n      0xff\n      mul\n      not\n      and\n      swap1\n      dup4\n      iszero\n      iszero\n      mul\n      or\n      swap1\n      sstore\n      pop\n        /* \"carbon.sol\":9861:9890  ProposalExecuted(_proposalId) */\n      0x712ae1383f79ac853f8d882153778e0260ef8f03b504e2866e0593e04d2b291f\n        /* \"carbon.sol\":9878:9889  _proposalId */\n      dup3\n        /* \"carbon.sol\":9861:9890  ProposalExecuted(_proposalId) */\n      mload(0x40)\n      tag_168\n      swap2\n      swap1\n      tag_60\n      jump\t// in\n    tag_168:\n      mload(0x40)\n      dup1\n      swap2\n      sub\n      swap1\n      log1\n        /* \"carbon.sol\":9310:9898  function executeProposal(uint256 _proposalId) public {\r... */\n      pop\n      pop\n      jump\t// out\n        /* \"carbon.sol\":799:842  mapping(uint256 => Project) public projects */\n    tag_46:\n      mstore(0x20, 0x05)\n      dup1\n      0x00\n      mstore\n      keccak256(0x00, 0x40)\n      0x00\n      swap2\n      pop\n      swap1\n      pop\n      dup1\n      0x00\n      add\n      0x00\n      swap1\n      sload\n      swap1\n      0x0100\n      exp\n      swap1\n      div\n      0xffffffffffffffffffffffffffffffffffffffff\n      and\n      swap1\n      dup1\n      0x01\n      add\n      dup1\n      sload\n      tag_169\n      swap1\n      tag_144\n      jump\t// in\n    tag_169:\n      dup1\n      0x1f\n      add\n      0x20\n      dup1\n      swap2\n      div\n      mul\n      0x20\n      add\n      mload(0x40)\n      swap1\n      dup2\n      add\n      0x40\n      mstore\n      dup1\n      swap3\n      swap2\n      swap1\n      dup2\n      dup2\n      mstore\n      0x20\n      add\n      dup3\n      dup1\n      sload\n      tag_170\n      swap1\n      tag_144\n      jump\t// in\n    tag_170:\n      dup1\n      iszero\n      tag_171\n      jumpi\n      dup1\n      0x1f\n      lt\n      tag_172\n      jumpi\n      0x0100\n      dup1\n      dup4\n      sload\n      div\n      mul\n      dup4\n      mstore\n      swap2\n      0x20\n      add\n      swap2\n      jump(tag_171)\n    tag_172:\n      dup3\n      add\n      swap2\n      swap1\n      0x00\n      mstore\n      keccak256(0x00, 0x20)\n      swap1\n    tag_173:\n      dup2\n      sload\n      dup2\n      mstore\n      swap1\n      0x01\n      add\n      swap1\n      0x20\n      add\n      dup1\n      dup4\n      gt\n      tag_173\n      jumpi\n      dup3\n      swap1\n      sub\n      0x1f\n      and\n      dup3\n      add\n      swap2\n    tag_171:\n      pop\n      pop\n      pop\n      pop\n      pop\n      swap1\n      dup1\n      0x02\n      add\n      sload\n      swap1\n      dup1\n      0x03\n      add\n      sload\n      swap1\n      dup1\n      0x04\n      add\n      sload\n      swap1\n      pop\n      dup6\n      jump\t// out\n        /* \"carbon.sol\":8787:9252  function voteOnProposal(uint256 _proposalId, bool _support) public {\r... */\n    tag_53:\n        /* \"carbon.sol\":8887:8896  proposals */\n      0x09\n        /* \"carbon.sol\":8887:8903  proposals.length */\n      dup1\n      sload\n      swap1\n      pop\n        /* \"carbon.sol\":8873:8884  _proposalId */\n      dup3\n        /* \"carbon.sol\":8873:8903  _proposalId < proposals.length */\n      lt\n        /* \"carbon.sol\":8865:8927  require(_proposalId < proposals.length, \"Invalid proposal ID\") */\n      tag_175\n      jumpi\n      mload(0x40)\n      0x08c379a000000000000000000000000000000000000000000000000000000000\n      dup2\n      mstore\n      0x04\n      add\n      tag_176\n      swap1\n      tag_159\n      jump\t// in\n    tag_176:\n      mload(0x40)\n      dup1\n      swap2\n      sub\n      swap1\n      revert\n    tag_175:\n        /* \"carbon.sol\":8938:8963  Proposal storage proposal */\n      0x00\n        /* \"carbon.sol\":8966:8975  proposals */\n      0x09\n        /* \"carbon.sol\":8976:8987  _proposalId */\n      dup4\n        /* \"carbon.sol\":8966:8988  proposals[_proposalId] */\n      dup2\n      sload\n      dup2\n      lt\n      tag_177\n      jumpi\n      mstore(0x00, 0x4e487b7100000000000000000000000000000000000000000000000000000000)\n      mstore(0x04, 0x32)\n      revert(0x00, 0x24)\n    tag_177:\n      swap1\n      0x00\n      mstore\n      keccak256(0x00, 0x20)\n      swap1\n      0x05\n      mul\n      add\n        /* \"carbon.sol\":8938:8988  Proposal storage proposal = proposals[_proposalId] */\n      swap1\n      pop\n        /* \"carbon.sol\":9008:9016  proposal */\n      dup1\n        /* \"carbon.sol\":9008:9025  proposal.executed */\n      0x04\n      add\n      0x00\n      swap1\n      sload\n      swap1\n      0x0100\n      exp\n      swap1\n      div\n      0xff\n      and\n        /* \"carbon.sol\":9007:9025  !proposal.executed */\n      iszero\n        /* \"carbon.sol\":8999:9055  require(!proposal.executed, \"Proposal already executed\") */\n      tag_179\n      jumpi\n      mload(0x40)\n      0x08c379a000000000000000000000000000000000000000000000000000000000\n      dup2\n      mstore\n      0x04\n      add\n      tag_180\n      swap1\n      tag_164\n      jump\t// in\n    tag_180:\n      mload(0x40)\n      dup1\n      swap2\n      sub\n      swap1\n      revert\n    tag_179:\n        /* \"carbon.sol\":9072:9080  _support */\n      dup2\n        /* \"carbon.sol\":9068:9184  if (_support) {\r... */\n      iszero\n      tag_181\n      jumpi\n        /* \"carbon.sol\":9097:9105  proposal */\n      dup1\n        /* \"carbon.sol\":9097:9114  proposal.votesFor */\n      0x02\n      add\n      0x00\n        /* \"carbon.sol\":9097:9116  proposal.votesFor++ */\n      dup2\n      sload\n      dup1\n      swap3\n      swap2\n      swap1\n      tag_182\n      swap1\n      tag_183\n      jump\t// in\n    tag_182:\n      swap2\n      swap1\n      pop\n      sstore\n      pop\n        /* \"carbon.sol\":9068:9184  if (_support) {\r... */\n      jump(tag_184)\n    tag_181:\n        /* \"carbon.sol\":9149:9157  proposal */\n      dup1\n        /* \"carbon.sol\":9149:9170  proposal.votesAgainst */\n      0x03\n      add\n      0x00\n        /* \"carbon.sol\":9149:9172  proposal.votesAgainst++ */\n      dup2\n      sload\n      dup1\n      swap3\n      swap2\n      swap1\n      tag_185\n      swap1\n      tag_183\n      jump\t// in\n    tag_185:\n      swap2\n      swap1\n      pop\n      sstore\n      pop\n        /* \"carbon.sol\":9068:9184  if (_support) {\r... */\n    tag_184:\n        /* \"carbon.sol\":9201:9244  VoteCast(_proposalId, msg.sender, _support) */\n      0xe71fcdac32df1877c1700e7bda2a03157e20993363a28fc35ac495cefc76e4d4\n        /* \"carbon.sol\":9210:9221  _proposalId */\n      dup4\n        /* \"carbon.sol\":9223:9233  msg.sender */\n      caller\n        /* \"carbon.sol\":9235:9243  _support */\n      dup5\n        /* \"carbon.sol\":9201:9244  VoteCast(_proposalId, msg.sender, _support) */\n      mload(0x40)\n      tag_186\n      swap4\n      swap3\n      swap2\n      swap1\n      tag_187\n      jump\t// in\n    tag_186:\n      mload(0x40)\n      dup1\n      swap2\n      sub\n      swap1\n      log1\n        /* \"carbon.sol\":8787:9252  function voteOnProposal(uint256 _proposalId, bool _support) public {\r... */\n      pop\n      pop\n      pop\n      jump\t// out\n        /* \"carbon.sol\":937:1003  mapping(address => mapping(uint256 => uint256)) public userCredits */\n    tag_58:\n      mstore(0x20, 0x07)\n      dup2\n      0x00\n      mstore\n      mstore(0x20, keccak256(0x00, 0x40))\n      dup1\n      0x00\n      mstore\n      keccak256(0x00, 0x40)\n      0x00\n      swap2\n      pop\n      swap2\n      pop\n      pop\n      sload\n      dup2\n      jump\t// out\n        /* \"carbon.sol\":232:277  bool public allowNonOwnerRegistration = false */\n    tag_63:\n      0x02\n      0x00\n      swap1\n      sload\n      swap1\n      0x0100\n      exp\n      swap1\n      div\n      0xff\n      and\n      dup2\n      jump\t// out\n        /* \"carbon.sol\":3794:4650  function updateProject(uint256 _projectId, string memory _name, uint256 _totalCredits, uint256 _pricePerCredit) public {\r... */\n    tag_70:\n        /* \"carbon.sol\":3945:3957  projectCount */\n      sload(0x06)\n        /* \"carbon.sol\":3932:3942  _projectId */\n      dup5\n        /* \"carbon.sol\":3932:3957  _projectId < projectCount */\n      lt\n        /* \"carbon.sol\":3924:3980  require(_projectId < projectCount, \"Invalid project ID\") */\n      tag_189\n      jumpi\n      mload(0x40)\n      0x08c379a000000000000000000000000000000000000000000000000000000000\n      dup2\n      mstore\n      0x04\n      add\n      tag_190\n      swap1\n      tag_191\n      jump\t// in\n    tag_190:\n      mload(0x40)\n      dup1\n      swap2\n      sub\n      swap1\n      revert\n    tag_189:\n        /* \"carbon.sol\":3991:4014  Project storage project */\n      0x00\n        /* \"carbon.sol\":4017:4025  projects */\n      0x05\n        /* \"carbon.sol\":4017:4037  projects[_projectId] */\n      0x00\n        /* \"carbon.sol\":4026:4036  _projectId */\n      dup7\n        /* \"carbon.sol\":4017:4037  projects[_projectId] */\n      dup2\n      mstore\n      0x20\n      add\n      swap1\n      dup2\n      mstore\n      0x20\n      add\n      0x00\n      keccak256\n        /* \"carbon.sol\":3991:4037  Project storage project = projects[_projectId] */\n      swap1\n      pop\n        /* \"carbon.sol\":4070:4077  project */\n      dup1\n        /* \"carbon.sol\":4070:4083  project.owner */\n      0x00\n      add\n      0x00\n      swap1\n      sload\n      swap1\n      0x0100\n      exp\n      swap1\n      div\n      0xffffffffffffffffffffffffffffffffffffffff\n      and\n        /* \"carbon.sol\":4056:4083  msg.sender == project.owner */\n      0xffffffffffffffffffffffffffffffffffffffff\n      and\n        /* \"carbon.sol\":4056:4066  msg.sender */\n      caller\n        /* \"carbon.sol\":4056:4083  msg.sender == project.owner */\n      0xffffffffffffffffffffffffffffffffffffffff\n      and\n      eq\n        /* \"carbon.sol\":4048:4133  require(msg.sender == project.owner, \"Only the project owner can update the project\") */\n      tag_192\n      jumpi\n      mload(0x40)\n      0x08c379a000000000000000000000000000000000000000000000000000000000\n      dup2\n      mstore\n      0x04\n      add\n      tag_193\n      swap1\n      tag_194\n      jump\t// in\n    tag_193:\n      mload(0x40)\n      dup1\n      swap2\n      sub\n      swap1\n      revert\n    tag_192:\n        /* \"carbon.sol\":4174:4175  0 */\n      0x00\n        /* \"carbon.sol\":4158:4163  _name */\n      dup5\n        /* \"carbon.sol\":4152:4171  bytes(_name).length */\n      mload\n        /* \"carbon.sol\":4152:4175  bytes(_name).length > 0 */\n      gt\n        /* \"carbon.sol\":4144:4208  require(bytes(_name).length > 0, \"Project name cannot be empty\") */\n      tag_195\n      jumpi\n      mload(0x40)\n      0x08c379a000000000000000000000000000000000000000000000000000000000\n      dup2\n      mstore\n      0x04\n      add\n      tag_196\n      swap1\n      tag_197\n      jump\t// in\n    tag_196:\n      mload(0x40)\n      dup1\n      swap2\n      sub\n      swap1\n      revert\n    tag_195:\n        /* \"carbon.sol\":4243:4244  0 */\n      0x00\n        /* \"carbon.sol\":4227:4240  _totalCredits */\n      dup4\n        /* \"carbon.sol\":4227:4244  _totalCredits > 0 */\n      gt\n        /* \"carbon.sol\":4219:4290  require(_totalCredits > 0, \"Total credits should be greater than zero\") */\n      tag_198\n      jumpi\n      mload(0x40)\n      0x08c379a000000000000000000000000000000000000000000000000000000000\n      dup2\n      mstore\n      0x04\n      add\n      tag_199\n      swap1\n      tag_200\n      jump\t// in\n    tag_199:\n      mload(0x40)\n      dup1\n      swap2\n      sub\n      swap1\n      revert\n    tag_198:\n        /* \"carbon.sol\":4327:4328  0 */\n      0x00\n        /* \"carbon.sol\":4309:4324  _pricePerCredit */\n      dup3\n        /* \"carbon.sol\":4309:4328  _pricePerCredit > 0 */\n      gt\n        /* \"carbon.sol\":4301:4377  require(_pricePerCredit > 0, \"Price per credit should be greater than zero\") */\n      tag_201\n      jumpi\n      mload(0x40)\n      0x08c379a000000000000000000000000000000000000000000000000000000000\n      dup2\n      mstore\n      0x04\n      add\n      tag_202\n      swap1\n      tag_203\n      jump\t// in\n    tag_202:\n      mload(0x40)\n      dup1\n      swap2\n      sub\n      swap1\n      revert\n    tag_201:\n        /* \"carbon.sol\":4405:4410  _name */\n      dup4\n        /* \"carbon.sol\":4390:4397  project */\n      dup2\n        /* \"carbon.sol\":4390:4402  project.name */\n      0x01\n      add\n        /* \"carbon.sol\":4390:4410  project.name = _name */\n      swap1\n      dup1\n      mload\n      swap1\n      0x20\n      add\n      swap1\n      tag_204\n      swap3\n      swap2\n      swap1\n      tag_205\n      jump\t// in\n    tag_204:\n      pop\n        /* \"carbon.sol\":4444:4457  _totalCredits */\n      dup3\n        /* \"carbon.sol\":4421:4428  project */\n      dup2\n        /* \"carbon.sol\":4421:4441  project.totalCredits */\n      0x02\n      add\n        /* \"carbon.sol\":4421:4457  project.totalCredits = _totalCredits */\n      dup2\n      swap1\n      sstore\n      pop\n        /* \"carbon.sol\":4495:4508  _totalCredits */\n      dup3\n        /* \"carbon.sol\":4468:4475  project */\n      dup2\n        /* \"carbon.sol\":4468:4492  project.availableCredits */\n      0x03\n      add\n        /* \"carbon.sol\":4468:4508  project.availableCredits = _totalCredits */\n      dup2\n      swap1\n      sstore\n      pop\n        /* \"carbon.sol\":4544:4559  _pricePerCredit */\n      dup2\n        /* \"carbon.sol\":4519:4526  project */\n      dup2\n        /* \"carbon.sol\":4519:4541  project.pricePerCredit */\n      0x04\n      add\n        /* \"carbon.sol\":4519:4559  project.pricePerCredit = _pricePerCredit */\n      dup2\n      swap1\n      sstore\n      pop\n        /* \"carbon.sol\":4577:4642  ProjectUpdated(_projectId, _name, _totalCredits, _pricePerCredit) */\n      0x700a00c8a0ce792dad3b7132a7a7f4a44a923f3820e64a1ca3594a073973c909\n        /* \"carbon.sol\":4592:4602  _projectId */\n      dup6\n        /* \"carbon.sol\":4604:4609  _name */\n      dup6\n        /* \"carbon.sol\":4611:4624  _totalCredits */\n      dup6\n        /* \"carbon.sol\":4626:4641  _pricePerCredit */\n      dup6\n        /* \"carbon.sol\":4577:4642  ProjectUpdated(_projectId, _name, _totalCredits, _pricePerCredit) */\n      mload(0x40)\n      tag_206\n      swap5\n      swap4\n      swap3\n      swap2\n      swap1\n      tag_207\n      jump\t// in\n    tag_206:\n      mload(0x40)\n      dup1\n      swap2\n      sub\n      swap1\n      log1\n        /* \"carbon.sol\":3794:4650  function updateProject(uint256 _projectId, string memory _name, uint256 _totalCredits, uint256 _pricePerCredit) public {\r... */\n      pop\n      pop\n      pop\n      pop\n      pop\n      jump\t// out\n        /* \"carbon.sol\":849:876  uint256 public projectCount */\n    tag_73:\n      sload(0x06)\n      dup2\n      jump\t// out\n        /* \"carbon.sol\":5847:6215  function retireCredits(uint256 _projectId, uint256 _credits) public {\r... */\n    tag_79:\n        /* \"carbon.sol\":5947:5959  projectCount */\n      sload(0x06)\n        /* \"carbon.sol\":5934:5944  _projectId */\n      dup3\n        /* \"carbon.sol\":5934:5959  _projectId < projectCount */\n      lt\n        /* \"carbon.sol\":5926:5982  require(_projectId < projectCount, \"Invalid project ID\") */\n      tag_209\n      jumpi\n      mload(0x40)\n      0x08c379a000000000000000000000000000000000000000000000000000000000\n      dup2\n      mstore\n      0x04\n      add\n      tag_210\n      swap1\n      tag_191\n      jump\t// in\n    tag_210:\n      mload(0x40)\n      dup1\n      swap2\n      sub\n      swap1\n      revert\n    tag_209:\n        /* \"carbon.sol\":6040:6048  _credits */\n      dup1\n        /* \"carbon.sol\":6001:6012  userCredits */\n      0x07\n        /* \"carbon.sol\":6001:6024  userCredits[msg.sender] */\n      0x00\n        /* \"carbon.sol\":6013:6023  msg.sender */\n      caller\n        /* \"carbon.sol\":6001:6024  userCredits[msg.sender] */\n      0xffffffffffffffffffffffffffffffffffffffff\n      and\n      0xffffffffffffffffffffffffffffffffffffffff\n      and\n      dup2\n      mstore\n      0x20\n      add\n      swap1\n      dup2\n      mstore\n      0x20\n      add\n      0x00\n      keccak256\n        /* \"carbon.sol\":6001:6036  userCredits[msg.sender][_projectId] */\n      0x00\n        /* \"carbon.sol\":6025:6035  _projectId */\n      dup5\n        /* \"carbon.sol\":6001:6036  userCredits[msg.sender][_projectId] */\n      dup2\n      mstore\n      0x20\n      add\n      swap1\n      dup2\n      mstore\n      0x20\n      add\n      0x00\n      keccak256\n      sload\n        /* \"carbon.sol\":6001:6048  userCredits[msg.sender][_projectId] >= _credits */\n      lt\n      iszero\n        /* \"carbon.sol\":5993:6083  require(userCredits[msg.sender][_projectId] >= _credits, \"Insufficient credits to retire\") */\n      tag_211\n      jumpi\n      mload(0x40)\n      0x08c379a000000000000000000000000000000000000000000000000000000000\n      dup2\n      mstore\n      0x04\n      add\n      tag_212\n      swap1\n      tag_213\n      jump\t// in\n    tag_212:\n      mload(0x40)\n      dup1\n      swap2\n      sub\n      swap1\n      revert\n    tag_211:\n        /* \"carbon.sol\":6135:6143  _credits */\n      dup1\n        /* \"carbon.sol\":6096:6107  userCredits */\n      0x07\n        /* \"carbon.sol\":6096:6119  userCredits[msg.sender] */\n      0x00\n        /* \"carbon.sol\":6108:6118  msg.sender */\n      caller\n        /* \"carbon.sol\":6096:6119  userCredits[msg.sender] */\n      0xffffffffffffffffffffffffffffffffffffffff\n      and\n      0xffffffffffffffffffffffffffffffffffffffff\n      and\n      dup2\n      mstore\n      0x20\n      add\n      swap1\n      dup2\n      mstore\n      0x20\n      add\n      0x00\n      keccak256\n        /* \"carbon.sol\":6096:6131  userCredits[msg.sender][_projectId] */\n      0x00\n        /* \"carbon.sol\":6120:6130  _projectId */\n      dup5\n        /* \"carbon.sol\":6096:6131  userCredits[msg.sender][_projectId] */\n      dup2\n      mstore\n      0x20\n      add\n      swap1\n      dup2\n      mstore\n      0x20\n      add\n      0x00\n      keccak256\n      0x00\n        /* \"carbon.sol\":6096:6143  userCredits[msg.sender][_projectId] -= _credits */\n      dup3\n      dup3\n      sload\n      tag_214\n      swap2\n      swap1\n      tag_215\n      jump\t// in\n    tag_214:\n      swap3\n      pop\n      pop\n      dup2\n      swap1\n      sstore\n      pop\n        /* \"carbon.sol\":6174:6184  msg.sender */\n      caller\n        /* \"carbon.sol\":6159:6207  CreditsRetired(msg.sender, _projectId, _credits) */\n      0xffffffffffffffffffffffffffffffffffffffff\n      and\n      0x2ffd4879af328c871cf4d2be1d40d91f5ce4f202fd47e10e4c58d19667627da8\n        /* \"carbon.sol\":6186:6196  _projectId */\n      dup4\n        /* \"carbon.sol\":6198:6206  _credits */\n      dup4\n        /* \"carbon.sol\":6159:6207  CreditsRetired(msg.sender, _projectId, _credits) */\n      mload(0x40)\n      tag_216\n      swap3\n      swap2\n      swap1\n      tag_217\n      jump\t// in\n    tag_216:\n      mload(0x40)\n      dup1\n      swap2\n      sub\n      swap1\n      log2\n        /* \"carbon.sol\":5847:6215  function retireCredits(uint256 _projectId, uint256 _credits) public {\r... */\n      pop\n      pop\n      jump\t// out\n        /* \"carbon.sol\":8225:8752  function createProposal(string memory _description) public {\r... */\n    tag_84:\n        /* \"carbon.sol\":8317:8322  owner */\n      0x00\n      dup1\n      sload\n      swap1\n      0x0100\n      exp\n      swap1\n      div\n      0xffffffffffffffffffffffffffffffffffffffff\n      and\n        /* \"carbon.sol\":8303:8322  msg.sender == owner */\n      0xffffffffffffffffffffffffffffffffffffffff\n      and\n        /* \"carbon.sol\":8303:8313  msg.sender */\n      caller\n        /* \"carbon.sol\":8303:8322  msg.sender == owner */\n      0xffffffffffffffffffffffffffffffffffffffff\n      and\n      eq\n        /* \"carbon.sol\":8295:8362  require(msg.sender == owner, \"Only the owner can create proposals\") */\n      tag_219\n      jumpi\n      mload(0x40)\n      0x08c379a000000000000000000000000000000000000000000000000000000000\n      dup2\n      mstore\n      0x04\n      add\n      tag_220\n      swap1\n      tag_221\n      jump\t// in\n    tag_220:\n      mload(0x40)\n      dup1\n      swap2\n      sub\n      swap1\n      revert\n    tag_219:\n        /* \"carbon.sol\":8410:8411  0 */\n      0x00\n        /* \"carbon.sol\":8387:8399  _description */\n      dup2\n        /* \"carbon.sol\":8381:8407  bytes(_description).length */\n      mload\n        /* \"carbon.sol\":8381:8411  bytes(_description).length > 0 */\n      gt\n        /* \"carbon.sol\":8373:8452  require(bytes(_description).length > 0, \"Proposal description cannot be empty\") */\n      tag_222\n      jumpi\n      mload(0x40)\n      0x08c379a000000000000000000000000000000000000000000000000000000000\n      dup2\n      mstore\n      0x04\n      add\n      tag_223\n      swap1\n      tag_224\n      jump\t// in\n    tag_223:\n      mload(0x40)\n      dup1\n      swap2\n      sub\n      swap1\n      revert\n    tag_222:\n        /* \"carbon.sol\":8465:8474  proposals */\n      0x09\n        /* \"carbon.sol\":8480:8662  Proposal({\r... */\n      mload(0x40)\n      dup1\n      0xa0\n      add\n      0x40\n      mstore\n      dup1\n        /* \"carbon.sol\":8514:8524  msg.sender */\n      caller\n        /* \"carbon.sol\":8480:8662  Proposal({\r... */\n      0xffffffffffffffffffffffffffffffffffffffff\n      and\n      dup2\n      mstore\n      0x20\n      add\n        /* \"carbon.sol\":8552:8564  _description */\n      dup4\n        /* \"carbon.sol\":8480:8662  Proposal({\r... */\n      dup2\n      mstore\n      0x20\n      add\n        /* \"carbon.sol\":8589:8590  0 */\n      0x00\n        /* \"carbon.sol\":8480:8662  Proposal({\r... */\n      dup2\n      mstore\n      0x20\n      add\n        /* \"carbon.sol\":8619:8620  0 */\n      0x00\n        /* \"carbon.sol\":8480:8662  Proposal({\r... */\n      dup2\n      mstore\n      0x20\n      add\n        /* \"carbon.sol\":8645:8650  false */\n      0x00\n        /* \"carbon.sol\":8480:8662  Proposal({\r... */\n      iszero\n      iszero\n      dup2\n      mstore\n      pop\n        /* \"carbon.sol\":8465:8663  proposals.push(Proposal({\r... */\n      swap1\n      dup1\n      0x01\n      dup2\n      sload\n      add\n      dup1\n      dup3\n      sstore\n      dup1\n      swap2\n      pop\n      pop\n      0x01\n      swap1\n      sub\n      swap1\n      0x00\n      mstore\n      keccak256(0x00, 0x20)\n      swap1\n      0x05\n      mul\n      add\n      0x00\n      swap1\n      swap2\n      swap1\n      swap2\n      swap1\n      swap2\n      pop\n      0x00\n      dup3\n      add\n      mload\n      dup2\n      0x00\n      add\n      exp(0x0100, 0x00)\n      dup2\n      sload\n      dup2\n      0xffffffffffffffffffffffffffffffffffffffff\n      mul\n      not\n      and\n      swap1\n      dup4\n      0xffffffffffffffffffffffffffffffffffffffff\n      and\n      mul\n      or\n      swap1\n      sstore\n      pop\n      0x20\n      dup3\n      add\n      mload\n      dup2\n      0x01\n      add\n      swap1\n      dup1\n      mload\n      swap1\n      0x20\n      add\n      swap1\n      tag_226\n      swap3\n      swap2\n      swap1\n      tag_205\n      jump\t// in\n    tag_226:\n      pop\n      0x40\n      dup3\n      add\n      mload\n      dup2\n      0x02\n      add\n      sstore\n      0x60\n      dup3\n      add\n      mload\n      dup2\n      0x03\n      add\n      sstore\n      0x80\n      dup3\n      add\n      mload\n      dup2\n      0x04\n      add\n      exp(0x0100, 0x00)\n      dup2\n      sload\n      dup2\n      0xff\n      mul\n      not\n      and\n      swap1\n      dup4\n      iszero\n      iszero\n      mul\n      or\n      swap1\n      sstore\n      pop\n      pop\n      pop\n        /* \"carbon.sol\":8681:8744  ProposalCreated(proposals.length - 1, _description, msg.sender) */\n      0xc8c078bfee58e5822588f08b4509ed1eb5058e03f666cca84dd2d44bf5c288a8\n        /* \"carbon.sol\":8716:8717  1 */\n      0x01\n        /* \"carbon.sol\":8697:8706  proposals */\n      0x09\n        /* \"carbon.sol\":8697:8713  proposals.length */\n      dup1\n      sload\n      swap1\n      pop\n        /* \"carbon.sol\":8697:8717  proposals.length - 1 */\n      tag_227\n      swap2\n      swap1\n      tag_215\n      jump\t// in\n    tag_227:\n        /* \"carbon.sol\":8719:8731  _description */\n      dup3\n        /* \"carbon.sol\":8733:8743  msg.sender */\n      caller\n        /* \"carbon.sol\":8681:8744  ProposalCreated(proposals.length - 1, _description, msg.sender) */\n      mload(0x40)\n      tag_228\n      swap4\n      swap3\n      swap2\n      swap1\n      tag_229\n      jump\t// in\n    tag_228:\n      mload(0x40)\n      dup1\n      swap2\n      sub\n      swap1\n      log1\n        /* \"carbon.sol\":8225:8752  function createProposal(string memory _description) public {\r... */\n      pop\n      jump\t// out\n        /* \"carbon.sol\":4705:5789  function purchaseCredits(uint256 _projectId, uint256 _credits) public payable {\r... */\n    tag_87:\n        /* \"carbon.sol\":4815:4827  projectCount */\n      sload(0x06)\n        /* \"carbon.sol\":4802:4812  _projectId */\n      dup3\n        /* \"carbon.sol\":4802:4827  _projectId < projectCount */\n      lt\n        /* \"carbon.sol\":4794:4850  require(_projectId < projectCount, \"Invalid project ID\") */\n      tag_231\n      jumpi\n      mload(0x40)\n      0x08c379a000000000000000000000000000000000000000000000000000000000\n      dup2\n      mstore\n      0x04\n      add\n      tag_232\n      swap1\n      tag_191\n      jump\t// in\n    tag_232:\n      mload(0x40)\n      dup1\n      swap2\n      sub\n      swap1\n      revert\n    tag_231:\n        /* \"carbon.sol\":4861:4884  Project storage project */\n      0x00\n        /* \"carbon.sol\":4887:4895  projects */\n      0x05\n        /* \"carbon.sol\":4887:4907  projects[_projectId] */\n      0x00\n        /* \"carbon.sol\":4896:4906  _projectId */\n      dup5\n        /* \"carbon.sol\":4887:4907  projects[_projectId] */\n      dup2\n      mstore\n      0x20\n      add\n      swap1\n      dup2\n      mstore\n      0x20\n      add\n      0x00\n      keccak256\n        /* \"carbon.sol\":4861:4907  Project storage project = projects[_projectId] */\n      swap1\n      pop\n        /* \"carbon.sol\":4937:4938  0 */\n      0x00\n        /* \"carbon.sol\":4926:4934  _credits */\n      dup3\n        /* \"carbon.sol\":4926:4938  _credits > 0 */\n      gt\n        /* \"carbon.sol\":4918:4978  require(_credits > 0, \"Credits should be greater than zero\") */\n      tag_233\n      jumpi\n      mload(0x40)\n      0x08c379a000000000000000000000000000000000000000000000000000000000\n      dup2\n      mstore\n      0x04\n      add\n      tag_234\n      swap1\n      tag_235\n      jump\t// in\n    tag_234:\n      mload(0x40)\n      dup1\n      swap2\n      sub\n      swap1\n      revert\n    tag_233:\n        /* \"carbon.sol\":5009:5016  project */\n      dup1\n        /* \"carbon.sol\":5009:5033  project.availableCredits */\n      0x03\n      add\n      sload\n        /* \"carbon.sol\":4997:5005  _credits */\n      dup3\n        /* \"carbon.sol\":4997:5033  _credits <= project.availableCredits */\n      gt\n      iszero\n        /* \"carbon.sol\":4989:5066  require(_credits <= project.availableCredits, \"Not enough available credits\") */\n      tag_236\n      jumpi\n      mload(0x40)\n      0x08c379a000000000000000000000000000000000000000000000000000000000\n      dup2\n      mstore\n      0x04\n      add\n      tag_237\n      swap1\n      tag_238\n      jump\t// in\n    tag_237:\n      mload(0x40)\n      dup1\n      swap2\n      sub\n      swap1\n      revert\n    tag_236:\n        /* \"carbon.sol\":5077:5095  uint256 totalPrice */\n      0x00\n        /* \"carbon.sol\":5109:5116  project */\n      dup2\n        /* \"carbon.sol\":5109:5131  project.pricePerCredit */\n      0x04\n      add\n      sload\n        /* \"carbon.sol\":5098:5106  _credits */\n      dup4\n        /* \"carbon.sol\":5098:5131  _credits * project.pricePerCredit */\n      tag_239\n      swap2\n      swap1\n      tag_240\n      jump\t// in\n    tag_239:\n        /* \"carbon.sol\":5077:5131  uint256 totalPrice = _credits * project.pricePerCredit */\n      swap1\n      pop\n        /* \"carbon.sol\":5163:5173  totalPrice */\n      dup1\n        /* \"carbon.sol\":5150:5159  msg.value */\n      callvalue\n        /* \"carbon.sol\":5150:5173  msg.value >= totalPrice */\n      lt\n      iszero\n        /* \"carbon.sol\":5142:5198  require(msg.value >= totalPrice, \"Insufficient payment\") */\n      tag_241\n      jumpi\n      mload(0x40)\n      0x08c379a000000000000000000000000000000000000000000000000000000000\n      dup2\n      mstore\n      0x04\n      add\n      tag_242\n      swap1\n      tag_243\n      jump\t// in\n    tag_242:\n      mload(0x40)\n      dup1\n      swap2\n      sub\n      swap1\n      revert\n    tag_241:\n        /* \"carbon.sol\":5211:5222  uint256 fee */\n      0x00\n        /* \"carbon.sol\":5256:5261  10000 */\n      0x2710\n        /* \"carbon.sol\":5239:5252  feePercentage */\n      sload(0x01)\n        /* \"carbon.sol\":5226:5236  totalPrice */\n      dup4\n        /* \"carbon.sol\":5226:5252  totalPrice * feePercentage */\n      tag_244\n      swap2\n      swap1\n      tag_240\n      jump\t// in\n    tag_244:\n        /* \"carbon.sol\":5225:5261  (totalPrice * feePercentage) / 10000 */\n      tag_245\n      swap2\n      swap1\n      tag_246\n      jump\t// in\n    tag_245:\n        /* \"carbon.sol\":5211:5261  uint256 fee = (totalPrice * feePercentage) / 10000 */\n      swap1\n      pop\n        /* \"carbon.sol\":5289:5311  uint256 paymentToOwner */\n      0x00\n        /* \"carbon.sol\":5327:5330  fee */\n      dup2\n        /* \"carbon.sol\":5314:5324  totalPrice */\n      dup4\n        /* \"carbon.sol\":5314:5330  totalPrice - fee */\n      tag_247\n      swap2\n      swap1\n      tag_215\n      jump\t// in\n    tag_247:\n        /* \"carbon.sol\":5289:5330  uint256 paymentToOwner = totalPrice - fee */\n      swap1\n      pop\n        /* \"carbon.sol\":5371:5379  _credits */\n      dup5\n        /* \"carbon.sol\":5343:5350  project */\n      dup5\n        /* \"carbon.sol\":5343:5367  project.availableCredits */\n      0x03\n      add\n      0x00\n        /* \"carbon.sol\":5343:5379  project.availableCredits -= _credits */\n      dup3\n      dup3\n      sload\n      tag_248\n      swap2\n      swap1\n      tag_215\n      jump\t// in\n    tag_248:\n      swap3\n      pop\n      pop\n      dup2\n      swap1\n      sstore\n      pop\n        /* \"carbon.sol\":5429:5437  _credits */\n      dup5\n        /* \"carbon.sol\":5390:5401  userCredits */\n      0x07\n        /* \"carbon.sol\":5390:5413  userCredits[msg.sender] */\n      0x00\n        /* \"carbon.sol\":5402:5412  msg.sender */\n      caller\n        /* \"carbon.sol\":5390:5413  userCredits[msg.sender] */\n      0xffffffffffffffffffffffffffffffffffffffff\n      and\n      0xffffffffffffffffffffffffffffffffffffffff\n      and\n      dup2\n      mstore\n      0x20\n      add\n      swap1\n      dup2\n      mstore\n      0x20\n      add\n      0x00\n      keccak256\n        /* \"carbon.sol\":5390:5425  userCredits[msg.sender][_projectId] */\n      0x00\n        /* \"carbon.sol\":5414:5424  _projectId */\n      dup9\n        /* \"carbon.sol\":5390:5425  userCredits[msg.sender][_projectId] */\n      dup2\n      mstore\n      0x20\n      add\n      swap1\n      dup2\n      mstore\n      0x20\n      add\n      0x00\n      keccak256\n      0x00\n        /* \"carbon.sol\":5390:5437  userCredits[msg.sender][_projectId] += _credits */\n      dup3\n      dup3\n      sload\n      tag_249\n      swap2\n      swap1\n      tag_250\n      jump\t// in\n    tag_249:\n      swap3\n      pop\n      pop\n      dup2\n      swap1\n      sstore\n      pop\n        /* \"carbon.sol\":5478:5486  _credits */\n      dup5\n        /* \"carbon.sol\":5448:5462  userReputation */\n      0x08\n        /* \"carbon.sol\":5448:5474  userReputation[msg.sender] */\n      0x00\n        /* \"carbon.sol\":5463:5473  msg.sender */\n      caller\n        /* \"carbon.sol\":5448:5474  userReputation[msg.sender] */\n      0xffffffffffffffffffffffffffffffffffffffff\n      and\n      0xffffffffffffffffffffffffffffffffffffffff\n      and\n      dup2\n      mstore\n      0x20\n      add\n      swap1\n      dup2\n      mstore\n      0x20\n      add\n      0x00\n      keccak256\n      0x00\n        /* \"carbon.sol\":5448:5486  userReputation[msg.sender] += _credits */\n      dup3\n      dup3\n      sload\n      tag_251\n      swap2\n      swap1\n      tag_250\n      jump\t// in\n    tag_251:\n      swap3\n      pop\n      pop\n      dup2\n      swap1\n      sstore\n      pop\n        /* \"carbon.sol\":5590:5597  project */\n      dup4\n        /* \"carbon.sol\":5590:5603  project.owner */\n      0x00\n      add\n      0x00\n      swap1\n      sload\n      swap1\n      0x0100\n      exp\n      swap1\n      div\n      0xffffffffffffffffffffffffffffffffffffffff\n      and\n        /* \"carbon.sol\":5582:5613  payable(project.owner).transfer */\n      0xffffffffffffffffffffffffffffffffffffffff\n      and\n        /* \"carbon.sol\":5582:5629  payable(project.owner).transfer(paymentToOwner) */\n      0x08fc\n        /* \"carbon.sol\":5614:5628  paymentToOwner */\n      dup3\n        /* \"carbon.sol\":5582:5629  payable(project.owner).transfer(paymentToOwner) */\n      swap1\n      dup2\n      iszero\n      mul\n      swap1\n      mload(0x40)\n      0x00\n      mload(0x40)\n      dup1\n      dup4\n      sub\n      dup2\n      dup6\n      dup9\n      dup9\n      call\n      swap4\n      pop\n      pop\n      pop\n      pop\n      iszero\n      dup1\n      iszero\n      tag_253\n      jumpi\n      returndatasize\n      0x00\n      dup1\n      returndatacopy\n      revert(0x00, returndatasize)\n    tag_253:\n      pop\n        /* \"carbon.sol\":5693:5698  owner */\n      0x00\n      dup1\n      sload\n      swap1\n      0x0100\n      exp\n      swap1\n      div\n      0xffffffffffffffffffffffffffffffffffffffff\n      and\n        /* \"carbon.sol\":5685:5708  payable(owner).transfer */\n      0xffffffffffffffffffffffffffffffffffffffff\n      and\n        /* \"carbon.sol\":5685:5713  payable(owner).transfer(fee) */\n      0x08fc\n        /* \"carbon.sol\":5709:5712  fee */\n      dup4\n        /* \"carbon.sol\":5685:5713  payable(owner).transfer(fee) */\n      swap1\n      dup2\n      iszero\n      mul\n      swap1\n      mload(0x40)\n      0x00\n      mload(0x40)\n      dup1\n      dup4\n      sub\n      dup2\n      dup6\n      dup9\n      dup9\n      call\n      swap4\n      pop\n      pop\n      pop\n      pop\n      iszero\n      dup1\n      iszero\n      tag_255\n      jumpi\n      returndatasize\n      0x00\n      dup1\n      returndatacopy\n      revert(0x00, returndatasize)\n    tag_255:\n      pop\n        /* \"carbon.sol\":5748:5758  msg.sender */\n      caller\n        /* \"carbon.sol\":5731:5781  CreditsPurchased(msg.sender, _projectId, _credits) */\n      0xffffffffffffffffffffffffffffffffffffffff\n      and\n      0xfb82fc1c5adf84899709e87563b69dd5f4ac33320f1c60dbca744bec717eb90f\n        /* \"carbon.sol\":5760:5770  _projectId */\n      dup8\n        /* \"carbon.sol\":5772:5780  _credits */\n      dup8\n        /* \"carbon.sol\":5731:5781  CreditsPurchased(msg.sender, _projectId, _credits) */\n      mload(0x40)\n      tag_256\n      swap3\n      swap2\n      swap1\n      tag_217\n      jump\t// in\n    tag_256:\n      mload(0x40)\n      dup1\n      swap2\n      sub\n      swap1\n      log2\n        /* \"carbon.sol\":4705:5789  function purchaseCredits(uint256 _projectId, uint256 _credits) public payable {\r... */\n      pop\n      pop\n      pop\n      pop\n      pop\n      pop\n      jump\t// out\n        /* \"carbon.sol\":100:120  address public owner */\n    tag_90:\n      0x00\n      dup1\n      sload\n      swap1\n      0x0100\n      exp\n      swap1\n      div\n      0xffffffffffffffffffffffffffffffffffffffff\n      and\n      dup2\n      jump\t// out\n        /* \"carbon.sol\":127:161  uint256 public feePercentage = 100 */\n    tag_95:\n      sload(0x01)\n      dup2\n      jump\t// out\n        /* \"carbon.sol\":6269:7086  function transferCredits(address _to, uint256 _projectId, uint256 _credits) public payable {\r... */\n    tag_100:\n        /* \"carbon.sol\":6392:6404  projectCount */\n      sload(0x06)\n        /* \"carbon.sol\":6379:6389  _projectId */\n      dup3\n        /* \"carbon.sol\":6379:6404  _projectId < projectCount */\n      lt\n        /* \"carbon.sol\":6371:6427  require(_projectId < projectCount, \"Invalid project ID\") */\n      tag_258\n      jumpi\n      mload(0x40)\n      0x08c379a000000000000000000000000000000000000000000000000000000000\n      dup2\n      mstore\n      0x04\n      add\n      tag_259\n      swap1\n      tag_191\n      jump\t// in\n    tag_259:\n      mload(0x40)\n      dup1\n      swap2\n      sub\n      swap1\n      revert\n    tag_258:\n        /* \"carbon.sol\":6485:6493  _credits */\n      dup1\n        /* \"carbon.sol\":6446:6457  userCredits */\n      0x07\n        /* \"carbon.sol\":6446:6469  userCredits[msg.sender] */\n      0x00\n        /* \"carbon.sol\":6458:6468  msg.sender */\n      caller\n        /* \"carbon.sol\":6446:6469  userCredits[msg.sender] */\n      0xffffffffffffffffffffffffffffffffffffffff\n      and\n      0xffffffffffffffffffffffffffffffffffffffff\n      and\n      dup2\n      mstore\n      0x20\n      add\n      swap1\n      dup2\n      mstore\n      0x20\n      add\n      0x00\n      keccak256\n        /* \"carbon.sol\":6446:6481  userCredits[msg.sender][_projectId] */\n      0x00\n        /* \"carbon.sol\":6470:6480  _projectId */\n      dup5\n        /* \"carbon.sol\":6446:6481  userCredits[msg.sender][_projectId] */\n      dup2\n      mstore\n      0x20\n      add\n      swap1\n      dup2\n      mstore\n      0x20\n      add\n      0x00\n      keccak256\n      sload\n        /* \"carbon.sol\":6446:6493  userCredits[msg.sender][_projectId] >= _credits */\n      lt\n      iszero\n        /* \"carbon.sol\":6438:6530  require(userCredits[msg.sender][_projectId] >= _credits, \"Insufficient credits to transfer\") */\n      tag_260\n      jumpi\n      mload(0x40)\n      0x08c379a000000000000000000000000000000000000000000000000000000000\n      dup2\n      mstore\n      0x04\n      add\n      tag_261\n      swap1\n      tag_262\n      jump\t// in\n    tag_261:\n      mload(0x40)\n      dup1\n      swap2\n      sub\n      swap1\n      revert\n    tag_260:\n        /* \"carbon.sol\":6562:6573  transferFee */\n      sload(0x04)\n        /* \"carbon.sol\":6549:6558  msg.value */\n      callvalue\n        /* \"carbon.sol\":6549:6573  msg.value >= transferFee */\n      lt\n      iszero\n        /* \"carbon.sol\":6541:6611  require(msg.value >= transferFee, \"Insufficient fee for the transfer\") */\n      tag_263\n      jumpi\n      mload(0x40)\n      0x08c379a000000000000000000000000000000000000000000000000000000000\n      dup2\n      mstore\n      0x04\n      add\n      tag_264\n      swap1\n      tag_265\n      jump\t// in\n    tag_264:\n      mload(0x40)\n      dup1\n      swap2\n      sub\n      swap1\n      revert\n    tag_263:\n        /* \"carbon.sol\":6624:6644  uint256 totalCredits */\n      0x00\n        /* \"carbon.sol\":6647:6658  userCredits */\n      0x07\n        /* \"carbon.sol\":6647:6670  userCredits[msg.sender] */\n      0x00\n        /* \"carbon.sol\":6659:6669  msg.sender */\n      caller\n        /* \"carbon.sol\":6647:6670  userCredits[msg.sender] */\n      0xffffffffffffffffffffffffffffffffffffffff\n      and\n      0xffffffffffffffffffffffffffffffffffffffff\n      and\n      dup2\n      mstore\n      0x20\n      add\n      swap1\n      dup2\n      mstore\n      0x20\n      add\n      0x00\n      keccak256\n        /* \"carbon.sol\":6647:6682  userCredits[msg.sender][_projectId] */\n      0x00\n        /* \"carbon.sol\":6671:6681  _projectId */\n      dup5\n        /* \"carbon.sol\":6647:6682  userCredits[msg.sender][_projectId] */\n      dup2\n      mstore\n      0x20\n      add\n      swap1\n      dup2\n      mstore\n      0x20\n      add\n      0x00\n      keccak256\n      sload\n        /* \"carbon.sol\":6624:6682  uint256 totalCredits = userCredits[msg.sender][_projectId] */\n      swap1\n      pop\n        /* \"carbon.sol\":6717:6725  _credits */\n      dup2\n        /* \"carbon.sol\":6701:6713  totalCredits */\n      dup2\n        /* \"carbon.sol\":6701:6725  totalCredits >= _credits */\n      lt\n      iszero\n        /* \"carbon.sol\":6693:6763  require(totalCredits >= _credits, \"Insufficient credits for transfer\") */\n      tag_266\n      jumpi\n      mload(0x40)\n      0x08c379a000000000000000000000000000000000000000000000000000000000\n      dup2\n      mstore\n      0x04\n      add\n      tag_267\n      swap1\n      tag_268\n      jump\t// in\n    tag_267:\n      mload(0x40)\n      dup1\n      swap2\n      sub\n      swap1\n      revert\n    tag_266:\n        /* \"carbon.sol\":6828:6833  owner */\n      0x00\n      dup1\n      sload\n      swap1\n      0x0100\n      exp\n      swap1\n      div\n      0xffffffffffffffffffffffffffffffffffffffff\n      and\n        /* \"carbon.sol\":6820:6843  payable(owner).transfer */\n      0xffffffffffffffffffffffffffffffffffffffff\n      and\n        /* \"carbon.sol\":6820:6856  payable(owner).transfer(transferFee) */\n      0x08fc\n        /* \"carbon.sol\":6844:6855  transferFee */\n      sload(0x04)\n        /* \"carbon.sol\":6820:6856  payable(owner).transfer(transferFee) */\n      swap1\n      dup2\n      iszero\n      mul\n      swap1\n      mload(0x40)\n      0x00\n      mload(0x40)\n      dup1\n      dup4\n      sub\n      dup2\n      dup6\n      dup9\n      dup9\n      call\n      swap4\n      pop\n      pop\n      pop\n      pop\n      iszero\n      dup1\n      iszero\n      tag_270\n      jumpi\n      returndatasize\n      0x00\n      dup1\n      returndatacopy\n      revert(0x00, returndatasize)\n    tag_270:\n      pop\n        /* \"carbon.sol\":6944:6952  _credits */\n      dup2\n        /* \"carbon.sol\":6905:6916  userCredits */\n      0x07\n        /* \"carbon.sol\":6905:6928  userCredits[msg.sender] */\n      0x00\n        /* \"carbon.sol\":6917:6927  msg.sender */\n      caller\n        /* \"carbon.sol\":6905:6928  userCredits[msg.sender] */\n      0xffffffffffffffffffffffffffffffffffffffff\n      and\n      0xffffffffffffffffffffffffffffffffffffffff\n      and\n      dup2\n      mstore\n      0x20\n      add\n      swap1\n      dup2\n      mstore\n      0x20\n      add\n      0x00\n      keccak256\n        /* \"carbon.sol\":6905:6940  userCredits[msg.sender][_projectId] */\n      0x00\n        /* \"carbon.sol\":6929:6939  _projectId */\n      dup6\n        /* \"carbon.sol\":6905:6940  userCredits[msg.sender][_projectId] */\n      dup2\n      mstore\n      0x20\n      add\n      swap1\n      dup2\n      mstore\n      0x20\n      add\n      0x00\n      keccak256\n      0x00\n        /* \"carbon.sol\":6905:6952  userCredits[msg.sender][_projectId] -= _credits */\n      dup3\n      dup3\n      sload\n      tag_271\n      swap2\n      swap1\n      tag_215\n      jump\t// in\n    tag_271:\n      swap3\n      pop\n      pop\n      dup2\n      swap1\n      sstore\n      pop\n        /* \"carbon.sol\":6995:7003  _credits */\n      dup2\n        /* \"carbon.sol\":6963:6974  userCredits */\n      0x07\n        /* \"carbon.sol\":6963:6979  userCredits[_to] */\n      0x00\n        /* \"carbon.sol\":6975:6978  _to */\n      dup7\n        /* \"carbon.sol\":6963:6979  userCredits[_to] */\n      0xffffffffffffffffffffffffffffffffffffffff\n      and\n      0xffffffffffffffffffffffffffffffffffffffff\n      and\n      dup2\n      mstore\n      0x20\n      add\n      swap1\n      dup2\n      mstore\n      0x20\n      add\n      0x00\n      keccak256\n        /* \"carbon.sol\":6963:6991  userCredits[_to][_projectId] */\n      0x00\n        /* \"carbon.sol\":6980:6990  _projectId */\n      dup6\n        /* \"carbon.sol\":6963:6991  userCredits[_to][_projectId] */\n      dup2\n      mstore\n      0x20\n      add\n      swap1\n      dup2\n      mstore\n      0x20\n      add\n      0x00\n      keccak256\n      0x00\n        /* \"carbon.sol\":6963:7003  userCredits[_to][_projectId] += _credits */\n      dup3\n      dup3\n      sload\n      tag_272\n      swap2\n      swap1\n      tag_250\n      jump\t// in\n    tag_272:\n      swap3\n      pop\n      pop\n      dup2\n      swap1\n      sstore\n      pop\n        /* \"carbon.sol\":7052:7055  _to */\n      dup4\n        /* \"carbon.sol\":7021:7078  CreditsTransferred(msg.sender, _to, _projectId, _credits) */\n      0xffffffffffffffffffffffffffffffffffffffff\n      and\n        /* \"carbon.sol\":7040:7050  msg.sender */\n      caller\n        /* \"carbon.sol\":7021:7078  CreditsTransferred(msg.sender, _to, _projectId, _credits) */\n      0xffffffffffffffffffffffffffffffffffffffff\n      and\n      0xfc155943a4837f932d2628406ce5e8f3f42dd6ab031108a2fcec0c68d94005ee\n        /* \"carbon.sol\":7057:7067  _projectId */\n      dup6\n        /* \"carbon.sol\":7069:7077  _credits */\n      dup6\n        /* \"carbon.sol\":7021:7078  CreditsTransferred(msg.sender, _to, _projectId, _credits) */\n      mload(0x40)\n      tag_273\n      swap3\n      swap2\n      swap1\n      tag_217\n      jump\t// in\n    tag_273:\n      mload(0x40)\n      dup1\n      swap2\n      sub\n      swap1\n      log3\n        /* \"carbon.sol\":6269:7086  function transferCredits(address _to, uint256 _projectId, uint256 _credits) public payable {\r... */\n      pop\n      pop\n      pop\n      pop\n      jump\t// out\n        /* \"carbon.sol\":2330:2532  function toggleNonOwnerRegistration(bool _allow) public {\r... */\n    tag_105:\n        /* \"carbon.sol\":2419:2424  owner */\n      0x00\n      dup1\n      sload\n      swap1\n      0x0100\n      exp\n      swap1\n      div\n      0xffffffffffffffffffffffffffffffffffffffff\n      and\n        /* \"carbon.sol\":2405:2424  msg.sender == owner */\n      0xffffffffffffffffffffffffffffffffffffffff\n      and\n        /* \"carbon.sol\":2405:2415  msg.sender */\n      caller\n        /* \"carbon.sol\":2405:2424  msg.sender == owner */\n      0xffffffffffffffffffffffffffffffffffffffff\n      and\n      eq\n        /* \"carbon.sol\":2397:2479  require(msg.sender == owner, \"Only the owner can toggle registration permissions\") */\n      tag_275\n      jumpi\n      mload(0x40)\n      0x08c379a000000000000000000000000000000000000000000000000000000000\n      dup2\n      mstore\n      0x04\n      add\n      tag_276\n      swap1\n      tag_277\n      jump\t// in\n    tag_276:\n      mload(0x40)\n      dup1\n      swap2\n      sub\n      swap1\n      revert\n    tag_275:\n        /* \"carbon.sol\":2518:2524  _allow */\n      dup1\n        /* \"carbon.sol\":2490:2515  allowNonOwnerRegistration */\n      0x02\n      0x00\n        /* \"carbon.sol\":2490:2524  allowNonOwnerRegistration = _allow */\n      0x0100\n      exp\n      dup2\n      sload\n      dup2\n      0xff\n      mul\n      not\n      and\n      swap1\n      dup4\n      iszero\n      iszero\n      mul\n      or\n      swap1\n      sstore\n      pop\n        /* \"carbon.sol\":2330:2532  function toggleNonOwnerRegistration(bool _allow) public {\r... */\n      pop\n      jump\t// out\n        /* \"carbon.sol\":443:479  uint256 public transferFee = 2 ether */\n    tag_108:\n      sload(0x04)\n      dup2\n      jump\t// out\n        /* \"carbon.sol\":7800:7919  function getUserReputation(address _user) public view returns (uint256) {\r... */\n    tag_114:\n        /* \"carbon.sol\":7863:7870  uint256 */\n      0x00\n        /* \"carbon.sol\":7890:7904  userReputation */\n      0x08\n        /* \"carbon.sol\":7890:7911  userReputation[_user] */\n      0x00\n        /* \"carbon.sol\":7905:7910  _user */\n      dup4\n        /* \"carbon.sol\":7890:7911  userReputation[_user] */\n      0xffffffffffffffffffffffffffffffffffffffff\n      and\n      0xffffffffffffffffffffffffffffffffffffffff\n      and\n      dup2\n      mstore\n      0x20\n      add\n      swap1\n      dup2\n      mstore\n      0x20\n      add\n      0x00\n      keccak256\n      sload\n        /* \"carbon.sol\":7883:7911  return userReputation[_user] */\n      swap1\n      pop\n        /* \"carbon.sol\":7800:7919  function getUserReputation(address _user) public view returns (uint256) {\r... */\n      swap2\n      swap1\n      pop\n      jump\t// out\n        /* \"carbon.sol\":7543:7755  function getUserCredits(address _user, uint256 _projectId) public view returns (uint256) {\r... */\n    tag_119:\n        /* \"carbon.sol\":7623:7630  uint256 */\n      0x00\n        /* \"carbon.sol\":7664:7676  projectCount */\n      sload(0x06)\n        /* \"carbon.sol\":7651:7661  _projectId */\n      dup3\n        /* \"carbon.sol\":7651:7676  _projectId < projectCount */\n      lt\n        /* \"carbon.sol\":7643:7699  require(_projectId < projectCount, \"Invalid project ID\") */\n      tag_280\n      jumpi\n      mload(0x40)\n      0x08c379a000000000000000000000000000000000000000000000000000000000\n      dup2\n      mstore\n      0x04\n      add\n      tag_281\n      swap1\n      tag_191\n      jump\t// in\n    tag_281:\n      mload(0x40)\n      dup1\n      swap2\n      sub\n      swap1\n      revert\n    tag_280:\n        /* \"carbon.sol\":7717:7728  userCredits */\n      0x07\n        /* \"carbon.sol\":7717:7735  userCredits[_user] */\n      0x00\n        /* \"carbon.sol\":7729:7734  _user */\n      dup5\n        /* \"carbon.sol\":7717:7735  userCredits[_user] */\n      0xffffffffffffffffffffffffffffffffffffffff\n      and\n      0xffffffffffffffffffffffffffffffffffffffff\n      and\n      dup2\n      mstore\n      0x20\n      add\n      swap1\n      dup2\n      mstore\n      0x20\n      add\n      0x00\n      keccak256\n        /* \"carbon.sol\":7717:7747  userCredits[_user][_projectId] */\n      0x00\n        /* \"carbon.sol\":7736:7746  _projectId */\n      dup4\n        /* \"carbon.sol\":7717:7747  userCredits[_user][_projectId] */\n      dup2\n      mstore\n      0x20\n      add\n      swap1\n      dup2\n      mstore\n      0x20\n      add\n      0x00\n      keccak256\n      sload\n        /* \"carbon.sol\":7710:7747  return userCredits[_user][_projectId] */\n      swap1\n      pop\n        /* \"carbon.sol\":7543:7755  function getUserCredits(address _user, uint256 _projectId) public view returns (uint256) {\r... */\n      swap3\n      swap2\n      pop\n      pop\n      jump\t// out\n        /* \"carbon.sol\":342:380  uint256 public minVotesForProposal = 1 */\n    tag_123:\n      sload(0x03)\n      dup2\n      jump\t// out\n        /* \"carbon.sol\":1060:1109  mapping(address => uint256) public userReputation */\n    tag_128:\n      mstore(0x20, 0x08)\n      dup1\n      0x00\n      mstore\n      keccak256(0x00, 0x40)\n      0x00\n      swap2\n      pop\n      swap1\n      pop\n      sload\n      dup2\n      jump\t// out\n        /* \"carbon.sol\":2845:3737  function registerProject(string memory _name, uint256 _totalCredits, uint256 _pricePerCredit) public {\r... */\n    tag_134:\n        /* \"carbon.sol\":2993:2998  owner */\n      0x00\n      dup1\n      sload\n      swap1\n      0x0100\n      exp\n      swap1\n      div\n      0xffffffffffffffffffffffffffffffffffffffff\n      and\n        /* \"carbon.sol\":2979:2998  msg.sender == owner */\n      0xffffffffffffffffffffffffffffffffffffffff\n      and\n        /* \"carbon.sol\":2979:2989  msg.sender */\n      caller\n        /* \"carbon.sol\":2979:2998  msg.sender == owner */\n      0xffffffffffffffffffffffffffffffffffffffff\n      and\n      eq\n        /* \"carbon.sol\":2979:3027  msg.sender == owner || allowNonOwnerRegistration */\n      dup1\n      tag_283\n      jumpi\n      pop\n        /* \"carbon.sol\":3002:3027  allowNonOwnerRegistration */\n      0x02\n      0x00\n      swap1\n      sload\n      swap1\n      0x0100\n      exp\n      swap1\n      div\n      0xff\n      and\n        /* \"carbon.sol\":2979:3027  msg.sender == owner || allowNonOwnerRegistration */\n    tag_283:\n        /* \"carbon.sol\":2957:3122  require(\r... */\n      tag_284\n      jumpi\n      mload(0x40)\n      0x08c379a000000000000000000000000000000000000000000000000000000000\n      dup2\n      mstore\n      0x04\n      add\n      tag_285\n      swap1\n      tag_286\n      jump\t// in\n    tag_285:\n      mload(0x40)\n      dup1\n      swap2\n      sub\n      swap1\n      revert\n    tag_284:\n        /* \"carbon.sol\":3163:3164  0 */\n      0x00\n        /* \"carbon.sol\":3147:3152  _name */\n      dup4\n        /* \"carbon.sol\":3141:3160  bytes(_name).length */\n      mload\n        /* \"carbon.sol\":3141:3164  bytes(_name).length > 0 */\n      gt\n        /* \"carbon.sol\":3133:3197  require(bytes(_name).length > 0, \"Project name cannot be empty\") */\n      tag_287\n      jumpi\n      mload(0x40)\n      0x08c379a000000000000000000000000000000000000000000000000000000000\n      dup2\n      mstore\n      0x04\n      add\n      tag_288\n      swap1\n      tag_197\n      jump\t// in\n    tag_288:\n      mload(0x40)\n      dup1\n      swap2\n      sub\n      swap1\n      revert\n    tag_287:\n        /* \"carbon.sol\":3232:3233  0 */\n      0x00\n        /* \"carbon.sol\":3216:3229  _totalCredits */\n      dup3\n        /* \"carbon.sol\":3216:3233  _totalCredits > 0 */\n      gt\n        /* \"carbon.sol\":3208:3279  require(_totalCredits > 0, \"Total credits should be greater than zero\") */\n      tag_289\n      jumpi\n      mload(0x40)\n      0x08c379a000000000000000000000000000000000000000000000000000000000\n      dup2\n      mstore\n      0x04\n      add\n      tag_290\n      swap1\n      tag_200\n      jump\t// in\n    tag_290:\n      mload(0x40)\n      dup1\n      swap2\n      sub\n      swap1\n      revert\n    tag_289:\n        /* \"carbon.sol\":3316:3317  0 */\n      0x00\n        /* \"carbon.sol\":3298:3313  _pricePerCredit */\n      dup2\n        /* \"carbon.sol\":3298:3317  _pricePerCredit > 0 */\n      gt\n        /* \"carbon.sol\":3290:3366  require(_pricePerCredit > 0, \"Price per credit should be greater than zero\") */\n      tag_291\n      jumpi\n      mload(0x40)\n      0x08c379a000000000000000000000000000000000000000000000000000000000\n      dup2\n      mstore\n      0x04\n      add\n      tag_292\n      swap1\n      tag_203\n      jump\t// in\n    tag_292:\n      mload(0x40)\n      dup1\n      swap2\n      sub\n      swap1\n      revert\n    tag_291:\n        /* \"carbon.sol\":3404:3616  Project({\r... */\n      mload(0x40)\n      dup1\n      0xa0\n      add\n      0x40\n      mstore\n      dup1\n        /* \"carbon.sol\":3434:3444  msg.sender */\n      caller\n        /* \"carbon.sol\":3404:3616  Project({\r... */\n      0xffffffffffffffffffffffffffffffffffffffff\n      and\n      dup2\n      mstore\n      0x20\n      add\n        /* \"carbon.sol\":3465:3470  _name */\n      dup5\n        /* \"carbon.sol\":3404:3616  Project({\r... */\n      dup2\n      mstore\n      0x20\n      add\n        /* \"carbon.sol\":3499:3512  _totalCredits */\n      dup4\n        /* \"carbon.sol\":3404:3616  Project({\r... */\n      dup2\n      mstore\n      0x20\n      add\n        /* \"carbon.sol\":3545:3558  _totalCredits */\n      dup4\n        /* \"carbon.sol\":3404:3616  Project({\r... */\n      dup2\n      mstore\n      0x20\n      add\n        /* \"carbon.sol\":3589:3604  _pricePerCredit */\n      dup3\n        /* \"carbon.sol\":3404:3616  Project({\r... */\n      dup2\n      mstore\n      pop\n        /* \"carbon.sol\":3379:3387  projects */\n      0x05\n        /* \"carbon.sol\":3379:3401  projects[projectCount] */\n      0x00\n        /* \"carbon.sol\":3388:3400  projectCount */\n      sload(0x06)\n        /* \"carbon.sol\":3379:3401  projects[projectCount] */\n      dup2\n      mstore\n      0x20\n      add\n      swap1\n      dup2\n      mstore\n      0x20\n      add\n      0x00\n      keccak256\n        /* \"carbon.sol\":3379:3616  projects[projectCount] = Project({\r... */\n      0x00\n      dup3\n      add\n      mload\n      dup2\n      0x00\n      add\n      exp(0x0100, 0x00)\n      dup2\n      sload\n      dup2\n      0xffffffffffffffffffffffffffffffffffffffff\n      mul\n      not\n      and\n      swap1\n      dup4\n      0xffffffffffffffffffffffffffffffffffffffff\n      and\n      mul\n      or\n      swap1\n      sstore\n      pop\n      0x20\n      dup3\n      add\n      mload\n      dup2\n      0x01\n      add\n      swap1\n      dup1\n      mload\n      swap1\n      0x20\n      add\n      swap1\n      tag_293\n      swap3\n      swap2\n      swap1\n      tag_205\n      jump\t// in\n    tag_293:\n      pop\n      0x40\n      dup3\n      add\n      mload\n      dup2\n      0x02\n      add\n      sstore\n      0x60\n      dup3\n      add\n      mload\n      dup2\n      0x03\n      add\n      sstore\n      0x80\n      dup3\n      add\n      mload\n      dup2\n      0x04\n      add\n      sstore\n      swap1\n      pop\n      pop\n        /* \"carbon.sol\":3634:3704  ProjectRegistered(projectCount, _name, _totalCredits, _pricePerCredit) */\n      0x50c6a8b423458d44f896828d57af33000ead07320bc572c2b3d856e7a954df4b\n        /* \"carbon.sol\":3652:3664  projectCount */\n      sload(0x06)\n        /* \"carbon.sol\":3666:3671  _name */\n      dup5\n        /* \"carbon.sol\":3673:3686  _totalCredits */\n      dup5\n        /* \"carbon.sol\":3688:3703  _pricePerCredit */\n      dup5\n        /* \"carbon.sol\":3634:3704  ProjectRegistered(projectCount, _name, _totalCredits, _pricePerCredit) */\n      mload(0x40)\n      tag_294\n      swap5\n      swap4\n      swap3\n      swap2\n      swap1\n      tag_207\n      jump\t// in\n    tag_294:\n      mload(0x40)\n      dup1\n      swap2\n      sub\n      swap1\n      log1\n        /* \"carbon.sol\":3715:3727  projectCount */\n      0x06\n      0x00\n        /* \"carbon.sol\":3715:3729  projectCount++ */\n      dup2\n      sload\n      dup1\n      swap3\n      swap2\n      swap1\n      tag_295\n      swap1\n      tag_183\n      jump\t// in\n    tag_295:\n      swap2\n      swap1\n      pop\n      sstore\n      pop\n        /* \"carbon.sol\":2845:3737  function registerProject(string memory _name, uint256 _totalCredits, uint256 _pricePerCredit) public {\r... */\n      pop\n      pop\n      pop\n      jump\t// out\n        /* \"carbon.sol\":7122:7485  function getProject(uint256 _projectId) public view returns (string memory, uint256, uint256, uint256, address) {\r... */\n    tag_138:\n        /* \"carbon.sol\":7183:7196  string memory */\n      0x60\n        /* \"carbon.sol\":7198:7205  uint256 */\n      0x00\n        /* \"carbon.sol\":7207:7214  uint256 */\n      dup1\n        /* \"carbon.sol\":7216:7223  uint256 */\n      0x00\n        /* \"carbon.sol\":7225:7232  address */\n      dup1\n        /* \"carbon.sol\":7266:7278  projectCount */\n      sload(0x06)\n        /* \"carbon.sol\":7253:7263  _projectId */\n      dup7\n        /* \"carbon.sol\":7253:7278  _projectId < projectCount */\n      lt\n        /* \"carbon.sol\":7245:7301  require(_projectId < projectCount, \"Invalid project ID\") */\n      tag_297\n      jumpi\n      mload(0x40)\n      0x08c379a000000000000000000000000000000000000000000000000000000000\n      dup2\n      mstore\n      0x04\n      add\n      tag_298\n      swap1\n      tag_191\n      jump\t// in\n    tag_298:\n      mload(0x40)\n      dup1\n      swap2\n      sub\n      swap1\n      revert\n    tag_297:\n        /* \"carbon.sol\":7312:7335  Project storage project */\n      0x00\n        /* \"carbon.sol\":7338:7346  projects */\n      0x05\n        /* \"carbon.sol\":7338:7358  projects[_projectId] */\n      0x00\n        /* \"carbon.sol\":7347:7357  _projectId */\n      dup9\n        /* \"carbon.sol\":7338:7358  projects[_projectId] */\n      dup2\n      mstore\n      0x20\n      add\n      swap1\n      dup2\n      mstore\n      0x20\n      add\n      0x00\n      keccak256\n        /* \"carbon.sol\":7312:7358  Project storage project = projects[_projectId] */\n      swap1\n      pop\n        /* \"carbon.sol\":7377:7384  project */\n      dup1\n        /* \"carbon.sol\":7377:7389  project.name */\n      0x01\n      add\n        /* \"carbon.sol\":7391:7398  project */\n      dup2\n        /* \"carbon.sol\":7391:7411  project.totalCredits */\n      0x02\n      add\n      sload\n        /* \"carbon.sol\":7413:7420  project */\n      dup3\n        /* \"carbon.sol\":7413:7437  project.availableCredits */\n      0x03\n      add\n      sload\n        /* \"carbon.sol\":7439:7446  project */\n      dup4\n        /* \"carbon.sol\":7439:7461  project.pricePerCredit */\n      0x04\n      add\n      sload\n        /* \"carbon.sol\":7463:7470  project */\n      dup5\n        /* \"carbon.sol\":7463:7476  project.owner */\n      0x00\n      add\n      0x00\n      swap1\n      sload\n      swap1\n      0x0100\n      exp\n      swap1\n      div\n      0xffffffffffffffffffffffffffffffffffffffff\n      and\n        /* \"carbon.sol\":7369:7477  return (project.name, project.totalCredits, project.availableCredits, project.pricePerCredit, project.owner) */\n      dup5\n      dup1\n      sload\n      tag_299\n      swap1\n      tag_144\n      jump\t// in\n    tag_299:\n      dup1\n      0x1f\n      add\n      0x20\n      dup1\n      swap2\n      div\n      mul\n      0x20\n      add\n      mload(0x40)\n      swap1\n      dup2\n      add\n      0x40\n      mstore\n      dup1\n      swap3\n      swap2\n      swap1\n      dup2\n      dup2\n      mstore\n      0x20\n      add\n      dup3\n      dup1\n      sload\n      tag_300\n      swap1\n      tag_144\n      jump\t// in\n    tag_300:\n      dup1\n      iszero\n      tag_301\n      jumpi\n      dup1\n      0x1f\n      lt\n      tag_302\n      jumpi\n      0x0100\n      dup1\n      dup4\n      sload\n      div\n      mul\n      dup4\n      mstore\n      swap2\n      0x20\n      add\n      swap2\n      jump(tag_301)\n    tag_302:\n      dup3\n      add\n      swap2\n      swap1\n      0x00\n      mstore\n      keccak256(0x00, 0x20)\n      swap1\n    tag_303:\n      dup2\n      sload\n      dup2\n      mstore\n      swap1\n      0x01\n      add\n      swap1\n      0x20\n      add\n      dup1\n      dup4\n      gt\n      tag_303\n      jumpi\n      dup3\n      swap1\n      sub\n      0x1f\n      and\n      dup3\n      add\n      swap2\n    tag_301:\n      pop\n      pop\n      pop\n      pop\n      pop\n      swap5\n      pop\n      swap6\n      pop\n      swap6\n      pop\n      swap6\n      pop\n      swap6\n      pop\n      swap6\n      pop\n      pop\n        /* \"carbon.sol\":7122:7485  function getProject(uint256 _projectId) public view returns (string memory, uint256, uint256, uint256, address) {\r... */\n      swap2\n      swap4\n      swap6\n      swap1\n      swap3\n      swap5\n      pop\n      jump\t// out\n    tag_205:\n      dup3\n      dup1\n      sload\n      tag_304\n      swap1\n      tag_144\n      jump\t// in\n    tag_304:\n      swap1\n      0x00\n      mstore\n      keccak256(0x00, 0x20)\n      swap1\n      0x1f\n      add\n      0x20\n      swap1\n      div\n      dup2\n      add\n      swap3\n      dup3\n      tag_306\n      jumpi\n      0x00\n      dup6\n      sstore\n      jump(tag_305)\n    tag_306:\n      dup3\n      0x1f\n      lt\n      tag_307\n      jumpi\n      dup1\n      mload\n      not(0xff)\n      and\n      dup4\n      dup1\n      add\n      or\n      dup6\n      sstore\n      jump(tag_305)\n    tag_307:\n      dup3\n      dup1\n      add\n      0x01\n      add\n      dup6\n      sstore\n      dup3\n      iszero\n      tag_305\n      jumpi\n      swap2\n      dup3\n      add\n    tag_308:\n      dup3\n      dup2\n      gt\n      iszero\n      tag_309\n      jumpi\n      dup3\n      mload\n      dup3\n      sstore\n      swap2\n      0x20\n      add\n      swap2\n      swap1\n      0x01\n      add\n      swap1\n      jump(tag_308)\n    tag_309:\n    tag_305:\n      pop\n      swap1\n      pop\n      tag_310\n      swap2\n      swap1\n      tag_311\n      jump\t// in\n    tag_310:\n      pop\n      swap1\n      jump\t// out\n    tag_311:\n    tag_312:\n      dup1\n      dup3\n      gt\n      iszero\n      tag_313\n      jumpi\n      0x00\n      dup2\n      0x00\n      swap1\n      sstore\n      pop\n      0x01\n      add\n      jump(tag_312)\n    tag_313:\n      pop\n      swap1\n      jump\t// out\n        /* \"#utility.yul\":7:351   */\n    tag_315:\n      0x00\n        /* \"#utility.yul\":110:175   */\n      tag_317\n        /* \"#utility.yul\":125:174   */\n      tag_318\n        /* \"#utility.yul\":167:173   */\n      dup5\n        /* \"#utility.yul\":125:174   */\n      tag_319\n      jump\t// in\n    tag_318:\n        /* \"#utility.yul\":110:175   */\n      tag_320\n      jump\t// in\n    tag_317:\n        /* \"#utility.yul\":101:175   */\n      swap1\n      pop\n        /* \"#utility.yul\":198:204   */\n      dup3\n        /* \"#utility.yul\":191:196   */\n      dup2\n        /* \"#utility.yul\":184:205   */\n      mstore\n        /* \"#utility.yul\":236:240   */\n      0x20\n        /* \"#utility.yul\":229:234   */\n      dup2\n        /* \"#utility.yul\":225:241   */\n      add\n        /* \"#utility.yul\":274:277   */\n      dup5\n        /* \"#utility.yul\":265:271   */\n      dup5\n        /* \"#utility.yul\":260:263   */\n      dup5\n        /* \"#utility.yul\":256:272   */\n      add\n        /* \"#utility.yul\":253:278   */\n      gt\n        /* \"#utility.yul\":250:252   */\n      iszero\n      tag_321\n      jumpi\n        /* \"#utility.yul\":291:292   */\n      0x00\n        /* \"#utility.yul\":288:289   */\n      dup1\n        /* \"#utility.yul\":281:293   */\n      revert\n        /* \"#utility.yul\":250:252   */\n    tag_321:\n        /* \"#utility.yul\":304:345   */\n      tag_322\n        /* \"#utility.yul\":338:344   */\n      dup5\n        /* \"#utility.yul\":333:336   */\n      dup3\n        /* \"#utility.yul\":328:331   */\n      dup6\n        /* \"#utility.yul\":304:345   */\n      tag_323\n      jump\t// in\n    tag_322:\n        /* \"#utility.yul\":91:351   */\n      pop\n      swap4\n      swap3\n      pop\n      pop\n      pop\n      jump\t// out\n        /* \"#utility.yul\":357:496   */\n    tag_324:\n      0x00\n        /* \"#utility.yul\":441:447   */\n      dup2\n        /* \"#utility.yul\":428:448   */\n      calldataload\n        /* \"#utility.yul\":419:448   */\n      swap1\n      pop\n        /* \"#utility.yul\":457:490   */\n      tag_326\n        /* \"#utility.yul\":484:489   */\n      dup2\n        /* \"#utility.yul\":457:490   */\n      tag_327\n      jump\t// in\n    tag_326:\n        /* \"#utility.yul\":409:496   */\n      swap3\n      swap2\n      pop\n      pop\n      jump\t// out\n        /* \"#utility.yul\":502:635   */\n    tag_328:\n      0x00\n        /* \"#utility.yul\":583:589   */\n      dup2\n        /* \"#utility.yul\":570:590   */\n      calldataload\n        /* \"#utility.yul\":561:590   */\n      swap1\n      pop\n        /* \"#utility.yul\":599:629   */\n      tag_330\n        /* \"#utility.yul\":623:628   */\n      dup2\n        /* \"#utility.yul\":599:629   */\n      tag_331\n      jump\t// in\n    tag_330:\n        /* \"#utility.yul\":551:635   */\n      swap3\n      swap2\n      pop\n      pop\n      jump\t// out\n        /* \"#utility.yul\":655:928   */\n    tag_332:\n      0x00\n        /* \"#utility.yul\":760:763   */\n      dup3\n        /* \"#utility.yul\":753:757   */\n      0x1f\n        /* \"#utility.yul\":745:751   */\n      dup4\n        /* \"#utility.yul\":741:758   */\n      add\n        /* \"#utility.yul\":737:764   */\n      slt\n        /* \"#utility.yul\":727:729   */\n      tag_334\n      jumpi\n        /* \"#utility.yul\":778:779   */\n      0x00\n        /* \"#utility.yul\":775:776   */\n      dup1\n        /* \"#utility.yul\":768:780   */\n      revert\n        /* \"#utility.yul\":727:729   */\n    tag_334:\n        /* \"#utility.yul\":818:824   */\n      dup2\n        /* \"#utility.yul\":805:825   */\n      calldataload\n        /* \"#utility.yul\":843:922   */\n      tag_335\n        /* \"#utility.yul\":918:921   */\n      dup5\n        /* \"#utility.yul\":910:916   */\n      dup3\n        /* \"#utility.yul\":903:907   */\n      0x20\n        /* \"#utility.yul\":895:901   */\n      dup7\n        /* \"#utility.yul\":891:908   */\n      add\n        /* \"#utility.yul\":843:922   */\n      tag_315\n      jump\t// in\n    tag_335:\n        /* \"#utility.yul\":834:922   */\n      swap2\n      pop\n        /* \"#utility.yul\":717:928   */\n      pop\n      swap3\n      swap2\n      pop\n      pop\n      jump\t// out\n        /* \"#utility.yul\":934:1073   */\n    tag_336:\n      0x00\n        /* \"#utility.yul\":1018:1024   */\n      dup2\n        /* \"#utility.yul\":1005:1025   */\n      calldataload\n        /* \"#utility.yul\":996:1025   */\n      swap1\n      pop\n        /* \"#utility.yul\":1034:1067   */\n      tag_338\n        /* \"#utility.yul\":1061:1066   */\n      dup2\n        /* \"#utility.yul\":1034:1067   */\n      tag_339\n      jump\t// in\n    tag_338:\n        /* \"#utility.yul\":986:1073   */\n      swap3\n      swap2\n      pop\n      pop\n      jump\t// out\n        /* \"#utility.yul\":1079:1341   */\n    tag_113:\n      0x00\n        /* \"#utility.yul\":1187:1189   */\n      0x20\n        /* \"#utility.yul\":1175:1184   */\n      dup3\n        /* \"#utility.yul\":1166:1173   */\n      dup5\n        /* \"#utility.yul\":1162:1185   */\n      sub\n        /* \"#utility.yul\":1158:1190   */\n      slt\n        /* \"#utility.yul\":1155:1157   */\n      iszero\n      tag_341\n      jumpi\n        /* \"#utility.yul\":1203:1204   */\n      0x00\n        /* \"#utility.yul\":1200:1201   */\n      dup1\n        /* \"#utility.yul\":1193:1205   */\n      revert\n        /* \"#utility.yul\":1155:1157   */\n    tag_341:\n        /* \"#utility.yul\":1246:1247   */\n      0x00\n        /* \"#utility.yul\":1271:1324   */\n      tag_342\n        /* \"#utility.yul\":1316:1323   */\n      dup5\n        /* \"#utility.yul\":1307:1313   */\n      dup3\n        /* \"#utility.yul\":1296:1305   */\n      dup6\n        /* \"#utility.yul\":1292:1314   */\n      add\n        /* \"#utility.yul\":1271:1324   */\n      tag_324\n      jump\t// in\n    tag_342:\n        /* \"#utility.yul\":1261:1324   */\n      swap2\n      pop\n        /* \"#utility.yul\":1217:1334   */\n      pop\n        /* \"#utility.yul\":1145:1341   */\n      swap3\n      swap2\n      pop\n      pop\n      jump\t// out\n        /* \"#utility.yul\":1347:1754   */\n    tag_57:\n      0x00\n      dup1\n        /* \"#utility.yul\":1472:1474   */\n      0x40\n        /* \"#utility.yul\":1460:1469   */\n      dup4\n        /* \"#utility.yul\":1451:1458   */\n      dup6\n        /* \"#utility.yul\":1447:1470   */\n      sub\n        /* \"#utility.yul\":1443:1475   */\n      slt\n        /* \"#utility.yul\":1440:1442   */\n      iszero\n      tag_344\n      jumpi\n        /* \"#utility.yul\":1488:1489   */\n      0x00\n        /* \"#utility.yul\":1485:1486   */\n      dup1\n        /* \"#utility.yul\":1478:1490   */\n      revert\n        /* \"#utility.yul\":1440:1442   */\n    tag_344:\n        /* \"#utility.yul\":1531:1532   */\n      0x00\n        /* \"#utility.yul\":1556:1609   */\n      tag_345\n        /* \"#utility.yul\":1601:1608   */\n      dup6\n        /* \"#utility.yul\":1592:1598   */\n      dup3\n        /* \"#utility.yul\":1581:1590   */\n      dup7\n        /* \"#utility.yul\":1577:1599   */\n      add\n        /* \"#utility.yul\":1556:1609   */\n      tag_324\n      jump\t// in\n    tag_345:\n        /* \"#utility.yul\":1546:1609   */\n      swap3\n      pop\n        /* \"#utility.yul\":1502:1619   */\n      pop\n        /* \"#utility.yul\":1658:1660   */\n      0x20\n        /* \"#utility.yul\":1684:1737   */\n      tag_346\n        /* \"#utility.yul\":1729:1736   */\n      dup6\n        /* \"#utility.yul\":1720:1726   */\n      dup3\n        /* \"#utility.yul\":1709:1718   */\n      dup7\n        /* \"#utility.yul\":1705:1727   */\n      add\n        /* \"#utility.yul\":1684:1737   */\n      tag_336\n      jump\t// in\n    tag_346:\n        /* \"#utility.yul\":1674:1737   */\n      swap2\n      pop\n        /* \"#utility.yul\":1629:1747   */\n      pop\n        /* \"#utility.yul\":1430:1754   */\n      swap3\n      pop\n      swap3\n      swap1\n      pop\n      jump\t// out\n        /* \"#utility.yul\":1760:2312   */\n    tag_99:\n      0x00\n      dup1\n      0x00\n        /* \"#utility.yul\":1902:1904   */\n      0x60\n        /* \"#utility.yul\":1890:1899   */\n      dup5\n        /* \"#utility.yul\":1881:1888   */\n      dup7\n        /* \"#utility.yul\":1877:1900   */\n      sub\n        /* \"#utility.yul\":1873:1905   */\n      slt\n        /* \"#utility.yul\":1870:1872   */\n      iszero\n      tag_348\n      jumpi\n        /* \"#utility.yul\":1918:1919   */\n      0x00\n        /* \"#utility.yul\":1915:1916   */\n      dup1\n        /* \"#utility.yul\":1908:1920   */\n      revert\n        /* \"#utility.yul\":1870:1872   */\n    tag_348:\n        /* \"#utility.yul\":1961:1962   */\n      0x00\n        /* \"#utility.yul\":1986:2039   */\n      tag_349\n        /* \"#utility.yul\":2031:2038   */\n      dup7\n        /* \"#utility.yul\":2022:2028   */\n      dup3\n        /* \"#utility.yul\":2011:2020   */\n      dup8\n        /* \"#utility.yul\":2007:2029   */\n      add\n        /* \"#utility.yul\":1986:2039   */\n      tag_324\n      jump\t// in\n    tag_349:\n        /* \"#utility.yul\":1976:2039   */\n      swap4\n      pop\n        /* \"#utility.yul\":1932:2049   */\n      pop\n        /* \"#utility.yul\":2088:2090   */\n      0x20\n        /* \"#utility.yul\":2114:2167   */\n      tag_350\n        /* \"#utility.yul\":2159:2166   */\n      dup7\n        /* \"#utility.yul\":2150:2156   */\n      dup3\n        /* \"#utility.yul\":2139:2148   */\n      dup8\n        /* \"#utility.yul\":2135:2157   */\n      add\n        /* \"#utility.yul\":2114:2167   */\n      tag_336\n      jump\t// in\n    tag_350:\n        /* \"#utility.yul\":2104:2167   */\n      swap3\n      pop\n        /* \"#utility.yul\":2059:2177   */\n      pop\n        /* \"#utility.yul\":2216:2218   */\n      0x40\n        /* \"#utility.yul\":2242:2295   */\n      tag_351\n        /* \"#utility.yul\":2287:2294   */\n      dup7\n        /* \"#utility.yul\":2278:2284   */\n      dup3\n        /* \"#utility.yul\":2267:2276   */\n      dup8\n        /* \"#utility.yul\":2263:2285   */\n      add\n        /* \"#utility.yul\":2242:2295   */\n      tag_336\n      jump\t// in\n    tag_351:\n        /* \"#utility.yul\":2232:2295   */\n      swap2\n      pop\n        /* \"#utility.yul\":2187:2305   */\n      pop\n        /* \"#utility.yul\":1860:2312   */\n      swap3\n      pop\n      swap3\n      pop\n      swap3\n      jump\t// out\n        /* \"#utility.yul\":2318:2574   */\n    tag_104:\n      0x00\n        /* \"#utility.yul\":2423:2425   */\n      0x20\n        /* \"#utility.yul\":2411:2420   */\n      dup3\n        /* \"#utility.yul\":2402:2409   */\n      dup5\n        /* \"#utility.yul\":2398:2421   */\n      sub\n        /* \"#utility.yul\":2394:2426   */\n      slt\n        /* \"#utility.yul\":2391:2393   */\n      iszero\n      tag_353\n      jumpi\n        /* \"#utility.yul\":2439:2440   */\n      0x00\n        /* \"#utility.yul\":2436:2437   */\n      dup1\n        /* \"#utility.yul\":2429:2441   */\n      revert\n        /* \"#utility.yul\":2391:2393   */\n    tag_353:\n        /* \"#utility.yul\":2482:2483   */\n      0x00\n        /* \"#utility.yul\":2507:2557   */\n      tag_354\n        /* \"#utility.yul\":2549:2556   */\n      dup5\n        /* \"#utility.yul\":2540:2546   */\n      dup3\n        /* \"#utility.yul\":2529:2538   */\n      dup6\n        /* \"#utility.yul\":2525:2547   */\n      add\n        /* \"#utility.yul\":2507:2557   */\n      tag_328\n      jump\t// in\n    tag_354:\n        /* \"#utility.yul\":2497:2557   */\n      swap2\n      pop\n        /* \"#utility.yul\":2453:2567   */\n      pop\n        /* \"#utility.yul\":2381:2574   */\n      swap3\n      swap2\n      pop\n      pop\n      jump\t// out\n        /* \"#utility.yul\":2580:2955   */\n    tag_83:\n      0x00\n        /* \"#utility.yul\":2698:2700   */\n      0x20\n        /* \"#utility.yul\":2686:2695   */\n      dup3\n        /* \"#utility.yul\":2677:2684   */\n      dup5\n        /* \"#utility.yul\":2673:2696   */\n      sub\n        /* \"#utility.yul\":2669:2701   */\n      slt\n        /* \"#utility.yul\":2666:2668   */\n      iszero\n      tag_356\n      jumpi\n        /* \"#utility.yul\":2714:2715   */\n      0x00\n        /* \"#utility.yul\":2711:2712   */\n      dup1\n        /* \"#utility.yul\":2704:2716   */\n      revert\n        /* \"#utility.yul\":2666:2668   */\n    tag_356:\n        /* \"#utility.yul\":2785:2786   */\n      0x00\n        /* \"#utility.yul\":2774:2783   */\n      dup3\n        /* \"#utility.yul\":2770:2787   */\n      add\n        /* \"#utility.yul\":2757:2788   */\n      calldataload\n        /* \"#utility.yul\":2815:2833   */\n      0xffffffffffffffff\n        /* \"#utility.yul\":2807:2813   */\n      dup2\n        /* \"#utility.yul\":2804:2834   */\n      gt\n        /* \"#utility.yul\":2801:2803   */\n      iszero\n      tag_357\n      jumpi\n        /* \"#utility.yul\":2847:2848   */\n      0x00\n        /* \"#utility.yul\":2844:2845   */\n      dup1\n        /* \"#utility.yul\":2837:2849   */\n      revert\n        /* \"#utility.yul\":2801:2803   */\n    tag_357:\n        /* \"#utility.yul\":2875:2938   */\n      tag_358\n        /* \"#utility.yul\":2930:2937   */\n      dup5\n        /* \"#utility.yul\":2921:2927   */\n      dup3\n        /* \"#utility.yul\":2910:2919   */\n      dup6\n        /* \"#utility.yul\":2906:2928   */\n      add\n        /* \"#utility.yul\":2875:2938   */\n      tag_332\n      jump\t// in\n    tag_358:\n        /* \"#utility.yul\":2865:2938   */\n      swap2\n      pop\n        /* \"#utility.yul\":2728:2948   */\n      pop\n        /* \"#utility.yul\":2656:2955   */\n      swap3\n      swap2\n      pop\n      pop\n      jump\t// out\n        /* \"#utility.yul\":2961:3626   */\n    tag_133:\n      0x00\n      dup1\n      0x00\n        /* \"#utility.yul\":3113:3115   */\n      0x60\n        /* \"#utility.yul\":3101:3110   */\n      dup5\n        /* \"#utility.yul\":3092:3099   */\n      dup7\n        /* \"#utility.yul\":3088:3111   */\n      sub\n        /* \"#utility.yul\":3084:3116   */\n      slt\n        /* \"#utility.yul\":3081:3083   */\n      iszero\n      tag_360\n      jumpi\n        /* \"#utility.yul\":3129:3130   */\n      0x00\n        /* \"#utility.yul\":3126:3127   */\n      dup1\n        /* \"#utility.yul\":3119:3131   */\n      revert\n        /* \"#utility.yul\":3081:3083   */\n    tag_360:\n        /* \"#utility.yul\":3200:3201   */\n      0x00\n        /* \"#utility.yul\":3189:3198   */\n      dup5\n        /* \"#utility.yul\":3185:3202   */\n      add\n        /* \"#utility.yul\":3172:3203   */\n      calldataload\n        /* \"#utility.yul\":3230:3248   */\n      0xffffffffffffffff\n        /* \"#utility.yul\":3222:3228   */\n      dup2\n        /* \"#utility.yul\":3219:3249   */\n      gt\n        /* \"#utility.yul\":3216:3218   */\n      iszero\n      tag_361\n      jumpi\n        /* \"#utility.yul\":3262:3263   */\n      0x00\n        /* \"#utility.yul\":3259:3260   */\n      dup1\n        /* \"#utility.yul\":3252:3264   */\n      revert\n        /* \"#utility.yul\":3216:3218   */\n    tag_361:\n        /* \"#utility.yul\":3290:3353   */\n      tag_362\n        /* \"#utility.yul\":3345:3352   */\n      dup7\n        /* \"#utility.yul\":3336:3342   */\n      dup3\n        /* \"#utility.yul\":3325:3334   */\n      dup8\n        /* \"#utility.yul\":3321:3343   */\n      add\n        /* \"#utility.yul\":3290:3353   */\n      tag_332\n      jump\t// in\n    tag_362:\n        /* \"#utility.yul\":3280:3353   */\n      swap4\n      pop\n        /* \"#utility.yul\":3143:3363   */\n      pop\n        /* \"#utility.yul\":3402:3404   */\n      0x20\n        /* \"#utility.yul\":3428:3481   */\n      tag_363\n        /* \"#utility.yul\":3473:3480   */\n      dup7\n        /* \"#utility.yul\":3464:3470   */\n      dup3\n        /* \"#utility.yul\":3453:3462   */\n      dup8\n        /* \"#utility.yul\":3449:3471   */\n      add\n        /* \"#utility.yul\":3428:3481   */\n      tag_336\n      jump\t// in\n    tag_363:\n        /* \"#utility.yul\":3418:3481   */\n      swap3\n      pop\n        /* \"#utility.yul\":3373:3491   */\n      pop\n        /* \"#utility.yul\":3530:3532   */\n      0x40\n        /* \"#utility.yul\":3556:3609   */\n      tag_364\n        /* \"#utility.yul\":3601:3608   */\n      dup7\n        /* \"#utility.yul\":3592:3598   */\n      dup3\n        /* \"#utility.yul\":3581:3590   */\n      dup8\n        /* \"#utility.yul\":3577:3599   */\n      add\n        /* \"#utility.yul\":3556:3609   */\n      tag_336\n      jump\t// in\n    tag_364:\n        /* \"#utility.yul\":3546:3609   */\n      swap2\n      pop\n        /* \"#utility.yul\":3501:3619   */\n      pop\n        /* \"#utility.yul\":3071:3626   */\n      swap3\n      pop\n      swap3\n      pop\n      swap3\n      jump\t// out\n        /* \"#utility.yul\":3632:3894   */\n    tag_31:\n      0x00\n        /* \"#utility.yul\":3740:3742   */\n      0x20\n        /* \"#utility.yul\":3728:3737   */\n      dup3\n        /* \"#utility.yul\":3719:3726   */\n      dup5\n        /* \"#utility.yul\":3715:3738   */\n      sub\n        /* \"#utility.yul\":3711:3743   */\n      slt\n        /* \"#utility.yul\":3708:3710   */\n      iszero\n      tag_366\n      jumpi\n        /* \"#utility.yul\":3756:3757   */\n      0x00\n        /* \"#utility.yul\":3753:3754   */\n      dup1\n        /* \"#utility.yul\":3746:3758   */\n      revert\n        /* \"#utility.yul\":3708:3710   */\n    tag_366:\n        /* \"#utility.yul\":3799:3800   */\n      0x00\n        /* \"#utility.yul\":3824:3877   */\n      tag_367\n        /* \"#utility.yul\":3869:3876   */\n      dup5\n        /* \"#utility.yul\":3860:3866   */\n      dup3\n        /* \"#utility.yul\":3849:3858   */\n      dup6\n        /* \"#utility.yul\":3845:3867   */\n      add\n        /* \"#utility.yul\":3824:3877   */\n      tag_336\n      jump\t// in\n    tag_367:\n        /* \"#utility.yul\":3814:3877   */\n      swap2\n      pop\n        /* \"#utility.yul\":3770:3887   */\n      pop\n        /* \"#utility.yul\":3698:3894   */\n      swap3\n      swap2\n      pop\n      pop\n      jump\t// out\n        /* \"#utility.yul\":3900:4301   */\n    tag_52:\n      0x00\n      dup1\n        /* \"#utility.yul\":4022:4024   */\n      0x40\n        /* \"#utility.yul\":4010:4019   */\n      dup4\n        /* \"#utility.yul\":4001:4008   */\n      dup6\n        /* \"#utility.yul\":3997:4020   */\n      sub\n        /* \"#utility.yul\":3993:4025   */\n      slt\n        /* \"#utility.yul\":3990:3992   */\n      iszero\n      tag_369\n      jumpi\n        /* \"#utility.yul\":4038:4039   */\n      0x00\n        /* \"#utility.yul\":4035:4036   */\n      dup1\n        /* \"#utility.yul\":4028:4040   */\n      revert\n        /* \"#utility.yul\":3990:3992   */\n    tag_369:\n        /* \"#utility.yul\":4081:4082   */\n      0x00\n        /* \"#utility.yul\":4106:4159   */\n      tag_370\n        /* \"#utility.yul\":4151:4158   */\n      dup6\n        /* \"#utility.yul\":4142:4148   */\n      dup3\n        /* \"#utility.yul\":4131:4140   */\n      dup7\n        /* \"#utility.yul\":4127:4149   */\n      add\n        /* \"#utility.yul\":4106:4159   */\n      tag_336\n      jump\t// in\n    tag_370:\n        /* \"#utility.yul\":4096:4159   */\n      swap3\n      pop\n        /* \"#utility.yul\":4052:4169   */\n      pop\n        /* \"#utility.yul\":4208:4210   */\n      0x20\n        /* \"#utility.yul\":4234:4284   */\n      tag_371\n        /* \"#utility.yul\":4276:4283   */\n      dup6\n        /* \"#utility.yul\":4267:4273   */\n      dup3\n        /* \"#utility.yul\":4256:4265   */\n      dup7\n        /* \"#utility.yul\":4252:4274   */\n      add\n        /* \"#utility.yul\":4234:4284   */\n      tag_328\n      jump\t// in\n    tag_371:\n        /* \"#utility.yul\":4224:4284   */\n      swap2\n      pop\n        /* \"#utility.yul\":4179:4294   */\n      pop\n        /* \"#utility.yul\":3980:4301   */\n      swap3\n      pop\n      swap3\n      swap1\n      pop\n      jump\t// out\n        /* \"#utility.yul\":4307:5118   */\n    tag_69:\n      0x00\n      dup1\n      0x00\n      dup1\n        /* \"#utility.yul\":4476:4479   */\n      0x80\n        /* \"#utility.yul\":4464:4473   */\n      dup6\n        /* \"#utility.yul\":4455:4462   */\n      dup8\n        /* \"#utility.yul\":4451:4474   */\n      sub\n        /* \"#utility.yul\":4447:4480   */\n      slt\n        /* \"#utility.yul\":4444:4446   */\n      iszero\n      tag_373\n      jumpi\n        /* \"#utility.yul\":4493:4494   */\n      0x00\n        /* \"#utility.yul\":4490:4491   */\n      dup1\n        /* \"#utility.yul\":4483:4495   */\n      revert\n        /* \"#utility.yul\":4444:4446   */\n    tag_373:\n        /* \"#utility.yul\":4536:4537   */\n      0x00\n        /* \"#utility.yul\":4561:4614   */\n      tag_374\n        /* \"#utility.yul\":4606:4613   */\n      dup8\n        /* \"#utility.yul\":4597:4603   */\n      dup3\n        /* \"#utility.yul\":4586:4595   */\n      dup9\n        /* \"#utility.yul\":4582:4604   */\n      add\n        /* \"#utility.yul\":4561:4614   */\n      tag_336\n      jump\t// in\n    tag_374:\n        /* \"#utility.yul\":4551:4614   */\n      swap5\n      pop\n        /* \"#utility.yul\":4507:4624   */\n      pop\n        /* \"#utility.yul\":4691:4693   */\n      0x20\n        /* \"#utility.yul\":4680:4689   */\n      dup6\n        /* \"#utility.yul\":4676:4694   */\n      add\n        /* \"#utility.yul\":4663:4695   */\n      calldataload\n        /* \"#utility.yul\":4722:4740   */\n      0xffffffffffffffff\n        /* \"#utility.yul\":4714:4720   */\n      dup2\n        /* \"#utility.yul\":4711:4741   */\n      gt\n        /* \"#utility.yul\":4708:4710   */\n      iszero\n      tag_375\n      jumpi\n        /* \"#utility.yul\":4754:4755   */\n      0x00\n        /* \"#utility.yul\":4751:4752   */\n      dup1\n        /* \"#utility.yul\":4744:4756   */\n      revert\n        /* \"#utility.yul\":4708:4710   */\n    tag_375:\n        /* \"#utility.yul\":4782:4845   */\n      tag_376\n        /* \"#utility.yul\":4837:4844   */\n      dup8\n        /* \"#utility.yul\":4828:4834   */\n      dup3\n        /* \"#utility.yul\":4817:4826   */\n      dup9\n        /* \"#utility.yul\":4813:4835   */\n      add\n        /* \"#utility.yul\":4782:4845   */\n      tag_332\n      jump\t// in\n    tag_376:\n        /* \"#utility.yul\":4772:4845   */\n      swap4\n      pop\n        /* \"#utility.yul\":4634:4855   */\n      pop\n        /* \"#utility.yul\":4894:4896   */\n      0x40\n        /* \"#utility.yul\":4920:4973   */\n      tag_377\n        /* \"#utility.yul\":4965:4972   */\n      dup8\n        /* \"#utility.yul\":4956:4962   */\n      dup3\n        /* \"#utility.yul\":4945:4954   */\n      dup9\n        /* \"#utility.yul\":4941:4963   */\n      add\n        /* \"#utility.yul\":4920:4973   */\n      tag_336\n      jump\t// in\n    tag_377:\n        /* \"#utility.yul\":4910:4973   */\n      swap3\n      pop\n        /* \"#utility.yul\":4865:4983   */\n      pop\n        /* \"#utility.yul\":5022:5024   */\n      0x60\n        /* \"#utility.yul\":5048:5101   */\n      tag_378\n        /* \"#utility.yul\":5093:5100   */\n      dup8\n        /* \"#utility.yul\":5084:5090   */\n      dup3\n        /* \"#utility.yul\":5073:5082   */\n      dup9\n        /* \"#utility.yul\":5069:5091   */\n      add\n        /* \"#utility.yul\":5048:5101   */\n      tag_336\n      jump\t// in\n    tag_378:\n        /* \"#utility.yul\":5038:5101   */\n      swap2\n      pop\n        /* \"#utility.yul\":4993:5111   */\n      pop\n        /* \"#utility.yul\":4434:5118   */\n      swap3\n      swap6\n      swap2\n      swap5\n      pop\n      swap3\n      pop\n      jump\t// out\n        /* \"#utility.yul\":5124:5531   */\n    tag_78:\n      0x00\n      dup1\n        /* \"#utility.yul\":5249:5251   */\n      0x40\n        /* \"#utility.yul\":5237:5246   */\n      dup4\n        /* \"#utility.yul\":5228:5235   */\n      dup6\n        /* \"#utility.yul\":5224:5247   */\n      sub\n        /* \"#utility.yul\":5220:5252   */\n      slt\n        /* \"#utility.yul\":5217:5219   */\n      iszero\n      tag_380\n      jumpi\n        /* \"#utility.yul\":5265:5266   */\n      0x00\n        /* \"#utility.yul\":5262:5263   */\n      dup1\n        /* \"#utility.yul\":5255:5267   */\n      revert\n        /* \"#utility.yul\":5217:5219   */\n    tag_380:\n        /* \"#utility.yul\":5308:5309   */\n      0x00\n        /* \"#utility.yul\":5333:5386   */\n      tag_381\n        /* \"#utility.yul\":5378:5385   */\n      dup6\n        /* \"#utility.yul\":5369:5375   */\n      dup3\n        /* \"#utility.yul\":5358:5367   */\n      dup7\n        /* \"#utility.yul\":5354:5376   */\n      add\n        /* \"#utility.yul\":5333:5386   */\n      tag_336\n      jump\t// in\n    tag_381:\n        /* \"#utility.yul\":5323:5386   */\n      swap3\n      pop\n        /* \"#utility.yul\":5279:5396   */\n      pop\n        /* \"#utility.yul\":5435:5437   */\n      0x20\n        /* \"#utility.yul\":5461:5514   */\n      tag_382\n        /* \"#utility.yul\":5506:5513   */\n      dup6\n        /* \"#utility.yul\":5497:5503   */\n      dup3\n        /* \"#utility.yul\":5486:5495   */\n      dup7\n        /* \"#utility.yul\":5482:5504   */\n      add\n        /* \"#utility.yul\":5461:5514   */\n      tag_336\n      jump\t// in\n    tag_382:\n        /* \"#utility.yul\":5451:5514   */\n      swap2\n      pop\n        /* \"#utility.yul\":5406:5524   */\n      pop\n        /* \"#utility.yul\":5207:5531   */\n      swap3\n      pop\n      swap3\n      swap1\n      pop\n      jump\t// out\n        /* \"#utility.yul\":5537:5655   */\n    tag_383:\n        /* \"#utility.yul\":5624:5648   */\n      tag_385\n        /* \"#utility.yul\":5642:5647   */\n      dup2\n        /* \"#utility.yul\":5624:5648   */\n      tag_386\n      jump\t// in\n    tag_385:\n        /* \"#utility.yul\":5619:5622   */\n      dup3\n        /* \"#utility.yul\":5612:5649   */\n      mstore\n        /* \"#utility.yul\":5602:5655   */\n      pop\n      pop\n      jump\t// out\n        /* \"#utility.yul\":5661:5770   */\n    tag_387:\n        /* \"#utility.yul\":5742:5763   */\n      tag_389\n        /* \"#utility.yul\":5757:5762   */\n      dup2\n        /* \"#utility.yul\":5742:5763   */\n      tag_390\n      jump\t// in\n    tag_389:\n        /* \"#utility.yul\":5737:5740   */\n      dup3\n        /* \"#utility.yul\":5730:5764   */\n      mstore\n        /* \"#utility.yul\":5720:5770   */\n      pop\n      pop\n      jump\t// out\n        /* \"#utility.yul\":5776:6140   */\n    tag_391:\n      0x00\n        /* \"#utility.yul\":5892:5931   */\n      tag_393\n        /* \"#utility.yul\":5925:5930   */\n      dup3\n        /* \"#utility.yul\":5892:5931   */\n      tag_394\n      jump\t// in\n    tag_393:\n        /* \"#utility.yul\":5947:6018   */\n      tag_395\n        /* \"#utility.yul\":6011:6017   */\n      dup2\n        /* \"#utility.yul\":6006:6009   */\n      dup6\n        /* \"#utility.yul\":5947:6018   */\n      tag_396\n      jump\t// in\n    tag_395:\n        /* \"#utility.yul\":5940:6018   */\n      swap4\n      pop\n        /* \"#utility.yul\":6027:6079   */\n      tag_397\n        /* \"#utility.yul\":6072:6078   */\n      dup2\n        /* \"#utility.yul\":6067:6070   */\n      dup6\n        /* \"#utility.yul\":6060:6064   */\n      0x20\n        /* \"#utility.yul\":6053:6058   */\n      dup7\n        /* \"#utility.yul\":6049:6065   */\n      add\n        /* \"#utility.yul\":6027:6079   */\n      tag_398\n      jump\t// in\n    tag_397:\n        /* \"#utility.yul\":6104:6133   */\n      tag_399\n        /* \"#utility.yul\":6126:6132   */\n      dup2\n        /* \"#utility.yul\":6104:6133   */\n      tag_400\n      jump\t// in\n    tag_399:\n        /* \"#utility.yul\":6099:6102   */\n      dup5\n        /* \"#utility.yul\":6095:6134   */\n      add\n        /* \"#utility.yul\":6088:6134   */\n      swap2\n      pop\n        /* \"#utility.yul\":5868:6140   */\n      pop\n      swap3\n      swap2\n      pop\n      pop\n      jump\t// out\n        /* \"#utility.yul\":6146:6463   */\n    tag_401:\n      0x00\n        /* \"#utility.yul\":6309:6376   */\n      tag_403\n        /* \"#utility.yul\":6373:6375   */\n      0x13\n        /* \"#utility.yul\":6368:6371   */\n      dup4\n        /* \"#utility.yul\":6309:6376   */\n      tag_396\n      jump\t// in\n    tag_403:\n        /* \"#utility.yul\":6302:6376   */\n      swap2\n      pop\n        /* \"#utility.yul\":6406:6427   */\n      0x496e76616c69642070726f706f73616c20494400000000000000000000000000\n        /* \"#utility.yul\":6402:6403   */\n      0x00\n        /* \"#utility.yul\":6397:6400   */\n      dup4\n        /* \"#utility.yul\":6393:6404   */\n      add\n        /* \"#utility.yul\":6386:6428   */\n      mstore\n        /* \"#utility.yul\":6454:6456   */\n      0x20\n        /* \"#utility.yul\":6449:6452   */\n      dup3\n        /* \"#utility.yul\":6445:6457   */\n      add\n        /* \"#utility.yul\":6438:6457   */\n      swap1\n      pop\n        /* \"#utility.yul\":6292:6463   */\n      swap2\n      swap1\n      pop\n      jump\t// out\n        /* \"#utility.yul\":6469:6837   */\n    tag_404:\n      0x00\n        /* \"#utility.yul\":6632:6699   */\n      tag_406\n        /* \"#utility.yul\":6696:6698   */\n      0x24\n        /* \"#utility.yul\":6691:6694   */\n      dup4\n        /* \"#utility.yul\":6632:6699   */\n      tag_396\n      jump\t// in\n    tag_406:\n        /* \"#utility.yul\":6625:6699   */\n      swap2\n      pop\n        /* \"#utility.yul\":6729:6763   */\n      0x4f6e6c7920746865206f776e65722063616e20736574206d696e696d756d2076\n        /* \"#utility.yul\":6725:6726   */\n      0x00\n        /* \"#utility.yul\":6720:6723   */\n      dup4\n        /* \"#utility.yul\":6716:6727   */\n      add\n        /* \"#utility.yul\":6709:6764   */\n      mstore\n        /* \"#utility.yul\":6795:6801   */\n      0x6f74657300000000000000000000000000000000000000000000000000000000\n        /* \"#utility.yul\":6790:6792   */\n      0x20\n        /* \"#utility.yul\":6785:6788   */\n      dup4\n        /* \"#utility.yul\":6781:6793   */\n      add\n        /* \"#utility.yul\":6774:6802   */\n      mstore\n        /* \"#utility.yul\":6828:6830   */\n      0x40\n        /* \"#utility.yul\":6823:6826   */\n      dup3\n        /* \"#utility.yul\":6819:6831   */\n      add\n        /* \"#utility.yul\":6812:6831   */\n      swap1\n      pop\n        /* \"#utility.yul\":6615:6837   */\n      swap2\n      swap1\n      pop\n      jump\t// out\n        /* \"#utility.yul\":6843:7210   */\n    tag_407:\n      0x00\n        /* \"#utility.yul\":7006:7073   */\n      tag_409\n        /* \"#utility.yul\":7070:7072   */\n      0x23\n        /* \"#utility.yul\":7065:7068   */\n      dup4\n        /* \"#utility.yul\":7006:7073   */\n      tag_396\n      jump\t// in\n    tag_409:\n        /* \"#utility.yul\":6999:7073   */\n      swap2\n      pop\n        /* \"#utility.yul\":7103:7137   */\n      0x437265646974732073686f756c642062652067726561746572207468616e207a\n        /* \"#utility.yul\":7099:7100   */\n      0x00\n        /* \"#utility.yul\":7094:7097   */\n      dup4\n        /* \"#utility.yul\":7090:7101   */\n      add\n        /* \"#utility.yul\":7083:7138   */\n      mstore\n        /* \"#utility.yul\":7169:7174   */\n      0x65726f0000000000000000000000000000000000000000000000000000000000\n        /* \"#utility.yul\":7164:7166   */\n      0x20\n        /* \"#utility.yul\":7159:7162   */\n      dup4\n        /* \"#utility.yul\":7155:7167   */\n      add\n        /* \"#utility.yul\":7148:7175   */\n      mstore\n        /* \"#utility.yul\":7201:7203   */\n      0x40\n        /* \"#utility.yul\":7196:7199   */\n      dup3\n        /* \"#utility.yul\":7192:7204   */\n      add\n        /* \"#utility.yul\":7185:7204   */\n      swap1\n      pop\n        /* \"#utility.yul\":6989:7210   */\n      swap2\n      swap1\n      pop\n      jump\t// out\n        /* \"#utility.yul\":7216:7592   */\n    tag_410:\n      0x00\n        /* \"#utility.yul\":7379:7446   */\n      tag_412\n        /* \"#utility.yul\":7443:7445   */\n      0x2c\n        /* \"#utility.yul\":7438:7441   */\n      dup4\n        /* \"#utility.yul\":7379:7446   */\n      tag_396\n      jump\t// in\n    tag_412:\n        /* \"#utility.yul\":7372:7446   */\n      swap2\n      pop\n        /* \"#utility.yul\":7476:7510   */\n      0x507269636520706572206372656469742073686f756c64206265206772656174\n        /* \"#utility.yul\":7472:7473   */\n      0x00\n        /* \"#utility.yul\":7467:7470   */\n      dup4\n        /* \"#utility.yul\":7463:7474   */\n      add\n        /* \"#utility.yul\":7456:7511   */\n      mstore\n        /* \"#utility.yul\":7542:7556   */\n      0x6572207468616e207a65726f0000000000000000000000000000000000000000\n        /* \"#utility.yul\":7537:7539   */\n      0x20\n        /* \"#utility.yul\":7532:7535   */\n      dup4\n        /* \"#utility.yul\":7528:7540   */\n      add\n        /* \"#utility.yul\":7521:7557   */\n      mstore\n        /* \"#utility.yul\":7583:7585   */\n      0x40\n        /* \"#utility.yul\":7578:7581   */\n      dup3\n        /* \"#utility.yul\":7574:7586   */\n      add\n        /* \"#utility.yul\":7567:7586   */\n      swap1\n      pop\n        /* \"#utility.yul\":7362:7592   */\n      swap2\n      swap1\n      pop\n      jump\t// out\n        /* \"#utility.yul\":7598:7921   */\n    tag_413:\n      0x00\n        /* \"#utility.yul\":7761:7828   */\n      tag_415\n        /* \"#utility.yul\":7825:7827   */\n      0x19\n        /* \"#utility.yul\":7820:7823   */\n      dup4\n        /* \"#utility.yul\":7761:7828   */\n      tag_396\n      jump\t// in\n    tag_415:\n        /* \"#utility.yul\":7754:7828   */\n      swap2\n      pop\n        /* \"#utility.yul\":7858:7885   */\n      0x50726f706f73616c20616c726561647920657865637574656400000000000000\n        /* \"#utility.yul\":7854:7855   */\n      0x00\n        /* \"#utility.yul\":7849:7852   */\n      dup4\n        /* \"#utility.yul\":7845:7856   */\n      add\n        /* \"#utility.yul\":7838:7886   */\n      mstore\n        /* \"#utility.yul\":7912:7914   */\n      0x20\n        /* \"#utility.yul\":7907:7910   */\n      dup3\n        /* \"#utility.yul\":7903:7915   */\n      add\n        /* \"#utility.yul\":7896:7915   */\n      swap1\n      pop\n        /* \"#utility.yul\":7744:7921   */\n      swap2\n      swap1\n      pop\n      jump\t// out\n        /* \"#utility.yul\":7927:8294   */\n    tag_416:\n      0x00\n        /* \"#utility.yul\":8090:8157   */\n      tag_418\n        /* \"#utility.yul\":8154:8156   */\n      0x23\n        /* \"#utility.yul\":8149:8152   */\n      dup4\n        /* \"#utility.yul\":8090:8157   */\n      tag_396\n      jump\t// in\n    tag_418:\n        /* \"#utility.yul\":8083:8157   */\n      swap2\n      pop\n        /* \"#utility.yul\":8187:8221   */\n      0x4f6e6c7920746865206f776e65722063616e206372656174652070726f706f73\n        /* \"#utility.yul\":8183:8184   */\n      0x00\n        /* \"#utility.yul\":8178:8181   */\n      dup4\n        /* \"#utility.yul\":8174:8185   */\n      add\n        /* \"#utility.yul\":8167:8222   */\n      mstore\n        /* \"#utility.yul\":8253:8258   */\n      0x616c730000000000000000000000000000000000000000000000000000000000\n        /* \"#utility.yul\":8248:8250   */\n      0x20\n        /* \"#utility.yul\":8243:8246   */\n      dup4\n        /* \"#utility.yul\":8239:8251   */\n      add\n        /* \"#utility.yul\":8232:8259   */\n      mstore\n        /* \"#utility.yul\":8285:8287   */\n      0x40\n        /* \"#utility.yul\":8280:8283   */\n      dup3\n        /* \"#utility.yul\":8276:8288   */\n      add\n        /* \"#utility.yul\":8269:8288   */\n      swap1\n      pop\n        /* \"#utility.yul\":8073:8294   */\n      swap2\n      swap1\n      pop\n      jump\t// out\n        /* \"#utility.yul\":8300:8628   */\n    tag_419:\n      0x00\n        /* \"#utility.yul\":8463:8530   */\n      tag_421\n        /* \"#utility.yul\":8527:8529   */\n      0x1e\n        /* \"#utility.yul\":8522:8525   */\n      dup4\n        /* \"#utility.yul\":8463:8530   */\n      tag_396\n      jump\t// in\n    tag_421:\n        /* \"#utility.yul\":8456:8530   */\n      swap2\n      pop\n        /* \"#utility.yul\":8560:8592   */\n      0x496e73756666696369656e74206372656469747320746f207265746972650000\n        /* \"#utility.yul\":8556:8557   */\n      0x00\n        /* \"#utility.yul\":8551:8554   */\n      dup4\n        /* \"#utility.yul\":8547:8558   */\n      add\n        /* \"#utility.yul\":8540:8593   */\n      mstore\n        /* \"#utility.yul\":8619:8621   */\n      0x20\n        /* \"#utility.yul\":8614:8617   */\n      dup3\n        /* \"#utility.yul\":8610:8622   */\n      add\n        /* \"#utility.yul\":8603:8622   */\n      swap1\n      pop\n        /* \"#utility.yul\":8446:8628   */\n      swap2\n      swap1\n      pop\n      jump\t// out\n        /* \"#utility.yul\":8634:8960   */\n    tag_422:\n      0x00\n        /* \"#utility.yul\":8797:8864   */\n      tag_424\n        /* \"#utility.yul\":8861:8863   */\n      0x1c\n        /* \"#utility.yul\":8856:8859   */\n      dup4\n        /* \"#utility.yul\":8797:8864   */\n      tag_396\n      jump\t// in\n    tag_424:\n        /* \"#utility.yul\":8790:8864   */\n      swap2\n      pop\n        /* \"#utility.yul\":8894:8924   */\n      0x50726f6a656374206e616d652063616e6e6f7420626520656d70747900000000\n        /* \"#utility.yul\":8890:8891   */\n      0x00\n        /* \"#utility.yul\":8885:8888   */\n      dup4\n        /* \"#utility.yul\":8881:8892   */\n      add\n        /* \"#utility.yul\":8874:8925   */\n      mstore\n        /* \"#utility.yul\":8951:8953   */\n      0x20\n        /* \"#utility.yul\":8946:8949   */\n      dup3\n        /* \"#utility.yul\":8942:8954   */\n      add\n        /* \"#utility.yul\":8935:8954   */\n      swap1\n      pop\n        /* \"#utility.yul\":8780:8960   */\n      swap2\n      swap1\n      pop\n      jump\t// out\n        /* \"#utility.yul\":8966:9331   */\n    tag_425:\n      0x00\n        /* \"#utility.yul\":9129:9196   */\n      tag_427\n        /* \"#utility.yul\":9193:9195   */\n      0x21\n        /* \"#utility.yul\":9188:9191   */\n      dup4\n        /* \"#utility.yul\":9129:9196   */\n      tag_396\n      jump\t// in\n    tag_427:\n        /* \"#utility.yul\":9122:9196   */\n      swap2\n      pop\n        /* \"#utility.yul\":9226:9260   */\n      0x496e73756666696369656e74206372656469747320666f72207472616e736665\n        /* \"#utility.yul\":9222:9223   */\n      0x00\n        /* \"#utility.yul\":9217:9220   */\n      dup4\n        /* \"#utility.yul\":9213:9224   */\n      add\n        /* \"#utility.yul\":9206:9261   */\n      mstore\n        /* \"#utility.yul\":9292:9295   */\n      0x7200000000000000000000000000000000000000000000000000000000000000\n        /* \"#utility.yul\":9287:9289   */\n      0x20\n        /* \"#utility.yul\":9282:9285   */\n      dup4\n        /* \"#utility.yul\":9278:9290   */\n      add\n        /* \"#utility.yul\":9271:9296   */\n      mstore\n        /* \"#utility.yul\":9322:9324   */\n      0x40\n        /* \"#utility.yul\":9317:9320   */\n      dup3\n        /* \"#utility.yul\":9313:9325   */\n      add\n        /* \"#utility.yul\":9306:9325   */\n      swap1\n      pop\n        /* \"#utility.yul\":9112:9331   */\n      swap2\n      swap1\n      pop\n      jump\t// out\n        /* \"#utility.yul\":9337:9667   */\n    tag_428:\n      0x00\n        /* \"#utility.yul\":9500:9567   */\n      tag_430\n        /* \"#utility.yul\":9564:9566   */\n      0x20\n        /* \"#utility.yul\":9559:9562   */\n      dup4\n        /* \"#utility.yul\":9500:9567   */\n      tag_396\n      jump\t// in\n    tag_430:\n        /* \"#utility.yul\":9493:9567   */\n      swap2\n      pop\n        /* \"#utility.yul\":9597:9631   */\n      0x496e73756666696369656e74206372656469747320746f207472616e73666572\n        /* \"#utility.yul\":9593:9594   */\n      0x00\n        /* \"#utility.yul\":9588:9591   */\n      dup4\n        /* \"#utility.yul\":9584:9595   */\n      add\n        /* \"#utility.yul\":9577:9632   */\n      mstore\n        /* \"#utility.yul\":9658:9660   */\n      0x20\n        /* \"#utility.yul\":9653:9656   */\n      dup3\n        /* \"#utility.yul\":9649:9661   */\n      add\n        /* \"#utility.yul\":9642:9661   */\n      swap1\n      pop\n        /* \"#utility.yul\":9483:9667   */\n      swap2\n      swap1\n      pop\n      jump\t// out\n        /* \"#utility.yul\":9673:10041   */\n    tag_431:\n      0x00\n        /* \"#utility.yul\":9836:9903   */\n      tag_433\n        /* \"#utility.yul\":9900:9902   */\n      0x24\n        /* \"#utility.yul\":9895:9898   */\n      dup4\n        /* \"#utility.yul\":9836:9903   */\n      tag_396\n      jump\t// in\n    tag_433:\n        /* \"#utility.yul\":9829:9903   */\n      swap2\n      pop\n        /* \"#utility.yul\":9933:9967   */\n      0x4f6e6c7920746865206f776e65722063616e20657865637574652070726f706f\n        /* \"#utility.yul\":9929:9930   */\n      0x00\n        /* \"#utility.yul\":9924:9927   */\n      dup4\n        /* \"#utility.yul\":9920:9931   */\n      add\n        /* \"#utility.yul\":9913:9968   */\n      mstore\n        /* \"#utility.yul\":9999:10005   */\n      0x73616c7300000000000000000000000000000000000000000000000000000000\n        /* \"#utility.yul\":9994:9996   */\n      0x20\n        /* \"#utility.yul\":9989:9992   */\n      dup4\n        /* \"#utility.yul\":9985:9997   */\n      add\n        /* \"#utility.yul\":9978:10006   */\n      mstore\n        /* \"#utility.yul\":10032:10034   */\n      0x40\n        /* \"#utility.yul\":10027:10030   */\n      dup3\n        /* \"#utility.yul\":10023:10035   */\n      add\n        /* \"#utility.yul\":10016:10035   */\n      swap1\n      pop\n        /* \"#utility.yul\":9819:10041   */\n      swap2\n      swap1\n      pop\n      jump\t// out\n        /* \"#utility.yul\":10047:10420   */\n    tag_434:\n      0x00\n        /* \"#utility.yul\":10210:10277   */\n      tag_436\n        /* \"#utility.yul\":10274:10276   */\n      0x29\n        /* \"#utility.yul\":10269:10272   */\n      dup4\n        /* \"#utility.yul\":10210:10277   */\n      tag_396\n      jump\t// in\n    tag_436:\n        /* \"#utility.yul\":10203:10277   */\n      swap2\n      pop\n        /* \"#utility.yul\":10307:10341   */\n      0x546f74616c20637265646974732073686f756c64206265206772656174657220\n        /* \"#utility.yul\":10303:10304   */\n      0x00\n        /* \"#utility.yul\":10298:10301   */\n      dup4\n        /* \"#utility.yul\":10294:10305   */\n      add\n        /* \"#utility.yul\":10287:10342   */\n      mstore\n        /* \"#utility.yul\":10373:10384   */\n      0x7468616e207a65726f0000000000000000000000000000000000000000000000\n        /* \"#utility.yul\":10368:10370   */\n      0x20\n        /* \"#utility.yul\":10363:10366   */\n      dup4\n        /* \"#utility.yul\":10359:10371   */\n      add\n        /* \"#utility.yul\":10352:10385   */\n      mstore\n        /* \"#utility.yul\":10411:10413   */\n      0x40\n        /* \"#utility.yul\":10406:10409   */\n      dup3\n        /* \"#utility.yul\":10402:10414   */\n      add\n        /* \"#utility.yul\":10395:10414   */\n      swap1\n      pop\n        /* \"#utility.yul\":10193:10420   */\n      swap2\n      swap1\n      pop\n      jump\t// out\n        /* \"#utility.yul\":10426:10803   */\n    tag_437:\n      0x00\n        /* \"#utility.yul\":10589:10656   */\n      tag_439\n        /* \"#utility.yul\":10653:10655   */\n      0x2d\n        /* \"#utility.yul\":10648:10651   */\n      dup4\n        /* \"#utility.yul\":10589:10656   */\n      tag_396\n      jump\t// in\n    tag_439:\n        /* \"#utility.yul\":10582:10656   */\n      swap2\n      pop\n        /* \"#utility.yul\":10686:10720   */\n      0x4f6e6c79207468652070726f6a656374206f776e65722063616e207570646174\n        /* \"#utility.yul\":10682:10683   */\n      0x00\n        /* \"#utility.yul\":10677:10680   */\n      dup4\n        /* \"#utility.yul\":10673:10684   */\n      add\n        /* \"#utility.yul\":10666:10721   */\n      mstore\n        /* \"#utility.yul\":10752:10767   */\n      0x65207468652070726f6a65637400000000000000000000000000000000000000\n        /* \"#utility.yul\":10747:10749   */\n      0x20\n        /* \"#utility.yul\":10742:10745   */\n      dup4\n        /* \"#utility.yul\":10738:10750   */\n      add\n        /* \"#utility.yul\":10731:10768   */\n      mstore\n        /* \"#utility.yul\":10794:10796   */\n      0x40\n        /* \"#utility.yul\":10789:10792   */\n      dup3\n        /* \"#utility.yul\":10785:10797   */\n      add\n        /* \"#utility.yul\":10778:10797   */\n      swap1\n      pop\n        /* \"#utility.yul\":10572:10803   */\n      swap2\n      swap1\n      pop\n      jump\t// out\n        /* \"#utility.yul\":10809:11127   */\n    tag_440:\n      0x00\n        /* \"#utility.yul\":10972:11039   */\n      tag_442\n        /* \"#utility.yul\":11036:11038   */\n      0x14\n        /* \"#utility.yul\":11031:11034   */\n      dup4\n        /* \"#utility.yul\":10972:11039   */\n      tag_396\n      jump\t// in\n    tag_442:\n        /* \"#utility.yul\":10965:11039   */\n      swap2\n      pop\n        /* \"#utility.yul\":11069:11091   */\n      0x496e73756666696369656e74207061796d656e74000000000000000000000000\n        /* \"#utility.yul\":11065:11066   */\n      0x00\n        /* \"#utility.yul\":11060:11063   */\n      dup4\n        /* \"#utility.yul\":11056:11067   */\n      add\n        /* \"#utility.yul\":11049:11092   */\n      mstore\n        /* \"#utility.yul\":11118:11120   */\n      0x20\n        /* \"#utility.yul\":11113:11116   */\n      dup3\n        /* \"#utility.yul\":11109:11121   */\n      add\n        /* \"#utility.yul\":11102:11121   */\n      swap1\n      pop\n        /* \"#utility.yul\":10955:11127   */\n      swap2\n      swap1\n      pop\n      jump\t// out\n        /* \"#utility.yul\":11133:11498   */\n    tag_443:\n      0x00\n        /* \"#utility.yul\":11296:11363   */\n      tag_445\n        /* \"#utility.yul\":11360:11362   */\n      0x21\n        /* \"#utility.yul\":11355:11358   */\n      dup4\n        /* \"#utility.yul\":11296:11363   */\n      tag_396\n      jump\t// in\n    tag_445:\n        /* \"#utility.yul\":11289:11363   */\n      swap2\n      pop\n        /* \"#utility.yul\":11393:11427   */\n      0x496e73756666696369656e742066656520666f7220746865207472616e736665\n        /* \"#utility.yul\":11389:11390   */\n      0x00\n        /* \"#utility.yul\":11384:11387   */\n      dup4\n        /* \"#utility.yul\":11380:11391   */\n      add\n        /* \"#utility.yul\":11373:11428   */\n      mstore\n        /* \"#utility.yul\":11459:11462   */\n      0x7200000000000000000000000000000000000000000000000000000000000000\n        /* \"#utility.yul\":11454:11456   */\n      0x20\n        /* \"#utility.yul\":11449:11452   */\n      dup4\n        /* \"#utility.yul\":11445:11457   */\n      add\n        /* \"#utility.yul\":11438:11463   */\n      mstore\n        /* \"#utility.yul\":11489:11491   */\n      0x40\n        /* \"#utility.yul\":11484:11487   */\n      dup3\n        /* \"#utility.yul\":11480:11492   */\n      add\n        /* \"#utility.yul\":11473:11492   */\n      swap1\n      pop\n        /* \"#utility.yul\":11279:11498   */\n      swap2\n      swap1\n      pop\n      jump\t// out\n        /* \"#utility.yul\":11504:11884   */\n    tag_446:\n      0x00\n        /* \"#utility.yul\":11667:11734   */\n      tag_448\n        /* \"#utility.yul\":11731:11733   */\n      0x30\n        /* \"#utility.yul\":11726:11729   */\n      dup4\n        /* \"#utility.yul\":11667:11734   */\n      tag_396\n      jump\t// in\n    tag_448:\n        /* \"#utility.yul\":11660:11734   */\n      swap2\n      pop\n        /* \"#utility.yul\":11764:11798   */\n      0x50726f706f73616c20646964206e6f74206d65657420746865206d696e696d75\n        /* \"#utility.yul\":11760:11761   */\n      0x00\n        /* \"#utility.yul\":11755:11758   */\n      dup4\n        /* \"#utility.yul\":11751:11762   */\n      add\n        /* \"#utility.yul\":11744:11799   */\n      mstore\n        /* \"#utility.yul\":11830:11848   */\n      0x6d20766f74657320726571756972656400000000000000000000000000000000\n        /* \"#utility.yul\":11825:11827   */\n      0x20\n        /* \"#utility.yul\":11820:11823   */\n      dup4\n        /* \"#utility.yul\":11816:11828   */\n      add\n        /* \"#utility.yul\":11809:11849   */\n      mstore\n        /* \"#utility.yul\":11875:11877   */\n      0x40\n        /* \"#utility.yul\":11870:11873   */\n      dup3\n        /* \"#utility.yul\":11866:11878   */\n      add\n        /* \"#utility.yul\":11859:11878   */\n      swap1\n      pop\n        /* \"#utility.yul\":11650:11884   */\n      swap2\n      swap1\n      pop\n      jump\t// out\n        /* \"#utility.yul\":11890:12323   */\n    tag_449:\n      0x00\n        /* \"#utility.yul\":12053:12120   */\n      tag_451\n        /* \"#utility.yul\":12117:12119   */\n      0x43\n        /* \"#utility.yul\":12112:12115   */\n      dup4\n        /* \"#utility.yul\":12053:12120   */\n      tag_396\n      jump\t// in\n    tag_451:\n        /* \"#utility.yul\":12046:12120   */\n      swap2\n      pop\n        /* \"#utility.yul\":12150:12184   */\n      0x4f6e6c7920746865206f776e65722063616e2072656769737465722070726f6a\n        /* \"#utility.yul\":12146:12147   */\n      0x00\n        /* \"#utility.yul\":12141:12144   */\n      dup4\n        /* \"#utility.yul\":12137:12148   */\n      add\n        /* \"#utility.yul\":12130:12185   */\n      mstore\n        /* \"#utility.yul\":12216:12250   */\n      0x6563747320616e64206e6f6e2d6f776e65727320617265206e6f7420616c6c6f\n        /* \"#utility.yul\":12211:12213   */\n      0x20\n        /* \"#utility.yul\":12206:12209   */\n      dup4\n        /* \"#utility.yul\":12202:12214   */\n      add\n        /* \"#utility.yul\":12195:12251   */\n      mstore\n        /* \"#utility.yul\":12282:12287   */\n      0x7765640000000000000000000000000000000000000000000000000000000000\n        /* \"#utility.yul\":12277:12279   */\n      0x40\n        /* \"#utility.yul\":12272:12275   */\n      dup4\n        /* \"#utility.yul\":12268:12280   */\n      add\n        /* \"#utility.yul\":12261:12288   */\n      mstore\n        /* \"#utility.yul\":12314:12316   */\n      0x60\n        /* \"#utility.yul\":12309:12312   */\n      dup3\n        /* \"#utility.yul\":12305:12317   */\n      add\n        /* \"#utility.yul\":12298:12317   */\n      swap1\n      pop\n        /* \"#utility.yul\":12036:12323   */\n      swap2\n      swap1\n      pop\n      jump\t// out\n        /* \"#utility.yul\":12329:12645   */\n    tag_452:\n      0x00\n        /* \"#utility.yul\":12492:12559   */\n      tag_454\n        /* \"#utility.yul\":12556:12558   */\n      0x12\n        /* \"#utility.yul\":12551:12554   */\n      dup4\n        /* \"#utility.yul\":12492:12559   */\n      tag_396\n      jump\t// in\n    tag_454:\n        /* \"#utility.yul\":12485:12559   */\n      swap2\n      pop\n        /* \"#utility.yul\":12589:12609   */\n      0x496e76616c69642070726f6a6563742049440000000000000000000000000000\n        /* \"#utility.yul\":12585:12586   */\n      0x00\n        /* \"#utility.yul\":12580:12583   */\n      dup4\n        /* \"#utility.yul\":12576:12587   */\n      add\n        /* \"#utility.yul\":12569:12610   */\n      mstore\n        /* \"#utility.yul\":12636:12638   */\n      0x20\n        /* \"#utility.yul\":12631:12634   */\n      dup3\n        /* \"#utility.yul\":12627:12639   */\n      add\n        /* \"#utility.yul\":12620:12639   */\n      swap1\n      pop\n        /* \"#utility.yul\":12475:12645   */\n      swap2\n      swap1\n      pop\n      jump\t// out\n        /* \"#utility.yul\":12651:12977   */\n    tag_455:\n      0x00\n        /* \"#utility.yul\":12814:12881   */\n      tag_457\n        /* \"#utility.yul\":12878:12880   */\n      0x1c\n        /* \"#utility.yul\":12873:12876   */\n      dup4\n        /* \"#utility.yul\":12814:12881   */\n      tag_396\n      jump\t// in\n    tag_457:\n        /* \"#utility.yul\":12807:12881   */\n      swap2\n      pop\n        /* \"#utility.yul\":12911:12941   */\n      0x4e6f7420656e6f75676820617661696c61626c65206372656469747300000000\n        /* \"#utility.yul\":12907:12908   */\n      0x00\n        /* \"#utility.yul\":12902:12905   */\n      dup4\n        /* \"#utility.yul\":12898:12909   */\n      add\n        /* \"#utility.yul\":12891:12942   */\n      mstore\n        /* \"#utility.yul\":12968:12970   */\n      0x20\n        /* \"#utility.yul\":12963:12966   */\n      dup3\n        /* \"#utility.yul\":12959:12971   */\n      add\n        /* \"#utility.yul\":12952:12971   */\n      swap1\n      pop\n        /* \"#utility.yul\":12797:12977   */\n      swap2\n      swap1\n      pop\n      jump\t// out\n        /* \"#utility.yul\":12983:13351   */\n    tag_458:\n      0x00\n        /* \"#utility.yul\":13146:13213   */\n      tag_460\n        /* \"#utility.yul\":13210:13212   */\n      0x24\n        /* \"#utility.yul\":13205:13208   */\n      dup4\n        /* \"#utility.yul\":13146:13213   */\n      tag_396\n      jump\t// in\n    tag_460:\n        /* \"#utility.yul\":13139:13213   */\n      swap2\n      pop\n        /* \"#utility.yul\":13243:13277   */\n      0x50726f706f73616c206465736372697074696f6e2063616e6e6f742062652065\n        /* \"#utility.yul\":13239:13240   */\n      0x00\n        /* \"#utility.yul\":13234:13237   */\n      dup4\n        /* \"#utility.yul\":13230:13241   */\n      add\n        /* \"#utility.yul\":13223:13278   */\n      mstore\n        /* \"#utility.yul\":13309:13315   */\n      0x6d70747900000000000000000000000000000000000000000000000000000000\n        /* \"#utility.yul\":13304:13306   */\n      0x20\n        /* \"#utility.yul\":13299:13302   */\n      dup4\n        /* \"#utility.yul\":13295:13307   */\n      add\n        /* \"#utility.yul\":13288:13316   */\n      mstore\n        /* \"#utility.yul\":13342:13344   */\n      0x40\n        /* \"#utility.yul\":13337:13340   */\n      dup3\n        /* \"#utility.yul\":13333:13345   */\n      add\n        /* \"#utility.yul\":13326:13345   */\n      swap1\n      pop\n        /* \"#utility.yul\":13129:13351   */\n      swap2\n      swap1\n      pop\n      jump\t// out\n        /* \"#utility.yul\":13357:13739   */\n    tag_461:\n      0x00\n        /* \"#utility.yul\":13520:13587   */\n      tag_463\n        /* \"#utility.yul\":13584:13586   */\n      0x32\n        /* \"#utility.yul\":13579:13582   */\n      dup4\n        /* \"#utility.yul\":13520:13587   */\n      tag_396\n      jump\t// in\n    tag_463:\n        /* \"#utility.yul\":13513:13587   */\n      swap2\n      pop\n        /* \"#utility.yul\":13617:13651   */\n      0x4f6e6c7920746865206f776e65722063616e20746f67676c6520726567697374\n        /* \"#utility.yul\":13613:13614   */\n      0x00\n        /* \"#utility.yul\":13608:13611   */\n      dup4\n        /* \"#utility.yul\":13604:13615   */\n      add\n        /* \"#utility.yul\":13597:13652   */\n      mstore\n        /* \"#utility.yul\":13683:13703   */\n      0x726174696f6e207065726d697373696f6e730000000000000000000000000000\n        /* \"#utility.yul\":13678:13680   */\n      0x20\n        /* \"#utility.yul\":13673:13676   */\n      dup4\n        /* \"#utility.yul\":13669:13681   */\n      add\n        /* \"#utility.yul\":13662:13704   */\n      mstore\n        /* \"#utility.yul\":13730:13732   */\n      0x40\n        /* \"#utility.yul\":13725:13728   */\n      dup3\n        /* \"#utility.yul\":13721:13733   */\n      add\n        /* \"#utility.yul\":13714:13733   */\n      swap1\n      pop\n        /* \"#utility.yul\":13503:13739   */\n      swap2\n      swap1\n      pop\n      jump\t// out\n        /* \"#utility.yul\":13745:13863   */\n    tag_464:\n        /* \"#utility.yul\":13832:13856   */\n      tag_466\n        /* \"#utility.yul\":13850:13855   */\n      dup2\n        /* \"#utility.yul\":13832:13856   */\n      tag_467\n      jump\t// in\n    tag_466:\n        /* \"#utility.yul\":13827:13830   */\n      dup3\n        /* \"#utility.yul\":13820:13857   */\n      mstore\n        /* \"#utility.yul\":13810:13863   */\n      pop\n      pop\n      jump\t// out\n        /* \"#utility.yul\":13869:14091   */\n    tag_92:\n      0x00\n        /* \"#utility.yul\":14000:14002   */\n      0x20\n        /* \"#utility.yul\":13989:13998   */\n      dup3\n        /* \"#utility.yul\":13985:14003   */\n      add\n        /* \"#utility.yul\":13977:14003   */\n      swap1\n      pop\n        /* \"#utility.yul\":14013:14084   */\n      tag_469\n        /* \"#utility.yul\":14081:14082   */\n      0x00\n        /* \"#utility.yul\":14070:14079   */\n      dup4\n        /* \"#utility.yul\":14066:14083   */\n      add\n        /* \"#utility.yul\":14057:14063   */\n      dup5\n        /* \"#utility.yul\":14013:14084   */\n      tag_383\n      jump\t// in\n    tag_469:\n        /* \"#utility.yul\":13967:14091   */\n      swap3\n      swap2\n      pop\n      pop\n      jump\t// out\n        /* \"#utility.yul\":14097:14840   */\n    tag_34:\n      0x00\n        /* \"#utility.yul\":14354:14357   */\n      0xa0\n        /* \"#utility.yul\":14343:14352   */\n      dup3\n        /* \"#utility.yul\":14339:14358   */\n      add\n        /* \"#utility.yul\":14331:14358   */\n      swap1\n      pop\n        /* \"#utility.yul\":14368:14439   */\n      tag_471\n        /* \"#utility.yul\":14436:14437   */\n      0x00\n        /* \"#utility.yul\":14425:14434   */\n      dup4\n        /* \"#utility.yul\":14421:14438   */\n      add\n        /* \"#utility.yul\":14412:14418   */\n      dup9\n        /* \"#utility.yul\":14368:14439   */\n      tag_383\n      jump\t// in\n    tag_471:\n        /* \"#utility.yul\":14486:14495   */\n      dup2\n        /* \"#utility.yul\":14480:14484   */\n      dup2\n        /* \"#utility.yul\":14476:14496   */\n      sub\n        /* \"#utility.yul\":14471:14473   */\n      0x20\n        /* \"#utility.yul\":14460:14469   */\n      dup4\n        /* \"#utility.yul\":14456:14474   */\n      add\n        /* \"#utility.yul\":14449:14497   */\n      mstore\n        /* \"#utility.yul\":14514:14592   */\n      tag_472\n        /* \"#utility.yul\":14587:14591   */\n      dup2\n        /* \"#utility.yul\":14578:14584   */\n      dup8\n        /* \"#utility.yul\":14514:14592   */\n      tag_391\n      jump\t// in\n    tag_472:\n        /* \"#utility.yul\":14506:14592   */\n      swap1\n      pop\n        /* \"#utility.yul\":14602:14674   */\n      tag_473\n        /* \"#utility.yul\":14670:14672   */\n      0x40\n        /* \"#utility.yul\":14659:14668   */\n      dup4\n        /* \"#utility.yul\":14655:14673   */\n      add\n        /* \"#utility.yul\":14646:14652   */\n      dup7\n        /* \"#utility.yul\":14602:14674   */\n      tag_464\n      jump\t// in\n    tag_473:\n        /* \"#utility.yul\":14684:14756   */\n      tag_474\n        /* \"#utility.yul\":14752:14754   */\n      0x60\n        /* \"#utility.yul\":14741:14750   */\n      dup4\n        /* \"#utility.yul\":14737:14755   */\n      add\n        /* \"#utility.yul\":14728:14734   */\n      dup6\n        /* \"#utility.yul\":14684:14756   */\n      tag_464\n      jump\t// in\n    tag_474:\n        /* \"#utility.yul\":14766:14833   */\n      tag_475\n        /* \"#utility.yul\":14828:14831   */\n      0x80\n        /* \"#utility.yul\":14817:14826   */\n      dup4\n        /* \"#utility.yul\":14813:14832   */\n      add\n        /* \"#utility.yul\":14804:14810   */\n      dup5\n        /* \"#utility.yul\":14766:14833   */\n      tag_387\n      jump\t// in\n    tag_475:\n        /* \"#utility.yul\":14321:14840   */\n      swap7\n      swap6\n      pop\n      pop\n      pop\n      pop\n      pop\n      pop\n      jump\t// out\n        /* \"#utility.yul\":14846:15601   */\n    tag_48:\n      0x00\n        /* \"#utility.yul\":15109:15112   */\n      0xa0\n        /* \"#utility.yul\":15098:15107   */\n      dup3\n        /* \"#utility.yul\":15094:15113   */\n      add\n        /* \"#utility.yul\":15086:15113   */\n      swap1\n      pop\n        /* \"#utility.yul\":15123:15194   */\n      tag_477\n        /* \"#utility.yul\":15191:15192   */\n      0x00\n        /* \"#utility.yul\":15180:15189   */\n      dup4\n        /* \"#utility.yul\":15176:15193   */\n      add\n        /* \"#utility.yul\":15167:15173   */\n      dup9\n        /* \"#utility.yul\":15123:15194   */\n      tag_383\n      jump\t// in\n    tag_477:\n        /* \"#utility.yul\":15241:15250   */\n      dup2\n        /* \"#utility.yul\":15235:15239   */\n      dup2\n        /* \"#utility.yul\":15231:15251   */\n      sub\n        /* \"#utility.yul\":15226:15228   */\n      0x20\n        /* \"#utility.yul\":15215:15224   */\n      dup4\n        /* \"#utility.yul\":15211:15229   */\n      add\n        /* \"#utility.yul\":15204:15252   */\n      mstore\n        /* \"#utility.yul\":15269:15347   */\n      tag_478\n        /* \"#utility.yul\":15342:15346   */\n      dup2\n        /* \"#utility.yul\":15333:15339   */\n      dup8\n        /* \"#utility.yul\":15269:15347   */\n      tag_391\n      jump\t// in\n    tag_478:\n        /* \"#utility.yul\":15261:15347   */\n      swap1\n      pop\n        /* \"#utility.yul\":15357:15429   */\n      tag_479\n        /* \"#utility.yul\":15425:15427   */\n      0x40\n        /* \"#utility.yul\":15414:15423   */\n      dup4\n        /* \"#utility.yul\":15410:15428   */\n      add\n        /* \"#utility.yul\":15401:15407   */\n      dup7\n        /* \"#utility.yul\":15357:15429   */\n      tag_464\n      jump\t// in\n    tag_479:\n        /* \"#utility.yul\":15439:15511   */\n      tag_480\n        /* \"#utility.yul\":15507:15509   */\n      0x60\n        /* \"#utility.yul\":15496:15505   */\n      dup4\n        /* \"#utility.yul\":15492:15510   */\n      add\n        /* \"#utility.yul\":15483:15489   */\n      dup6\n        /* \"#utility.yul\":15439:15511   */\n      tag_464\n      jump\t// in\n    tag_480:\n        /* \"#utility.yul\":15521:15594   */\n      tag_481\n        /* \"#utility.yul\":15589:15592   */\n      0x80\n        /* \"#utility.yul\":15578:15587   */\n      dup4\n        /* \"#utility.yul\":15574:15593   */\n      add\n        /* \"#utility.yul\":15565:15571   */\n      dup5\n        /* \"#utility.yul\":15521:15594   */\n      tag_464\n      jump\t// in\n    tag_481:\n        /* \"#utility.yul\":15076:15601   */\n      swap7\n      swap6\n      pop\n      pop\n      pop\n      pop\n      pop\n      pop\n      jump\t// out\n        /* \"#utility.yul\":15607:15817   */\n    tag_65:\n      0x00\n        /* \"#utility.yul\":15732:15734   */\n      0x20\n        /* \"#utility.yul\":15721:15730   */\n      dup3\n        /* \"#utility.yul\":15717:15735   */\n      add\n        /* \"#utility.yul\":15709:15735   */\n      swap1\n      pop\n        /* \"#utility.yul\":15745:15810   */\n      tag_483\n        /* \"#utility.yul\":15807:15808   */\n      0x00\n        /* \"#utility.yul\":15796:15805   */\n      dup4\n        /* \"#utility.yul\":15792:15809   */\n      add\n        /* \"#utility.yul\":15783:15789   */\n      dup5\n        /* \"#utility.yul\":15745:15810   */\n      tag_387\n      jump\t// in\n    tag_483:\n        /* \"#utility.yul\":15699:15817   */\n      swap3\n      swap2\n      pop\n      pop\n      jump\t// out\n        /* \"#utility.yul\":15823:16578   */\n    tag_140:\n      0x00\n        /* \"#utility.yul\":16086:16089   */\n      0xa0\n        /* \"#utility.yul\":16075:16084   */\n      dup3\n        /* \"#utility.yul\":16071:16090   */\n      add\n        /* \"#utility.yul\":16063:16090   */\n      swap1\n      pop\n        /* \"#utility.yul\":16136:16145   */\n      dup2\n        /* \"#utility.yul\":16130:16134   */\n      dup2\n        /* \"#utility.yul\":16126:16146   */\n      sub\n        /* \"#utility.yul\":16122:16123   */\n      0x00\n        /* \"#utility.yul\":16111:16120   */\n      dup4\n        /* \"#utility.yul\":16107:16124   */\n      add\n        /* \"#utility.yul\":16100:16147   */\n      mstore\n        /* \"#utility.yul\":16164:16242   */\n      tag_485\n        /* \"#utility.yul\":16237:16241   */\n      dup2\n        /* \"#utility.yul\":16228:16234   */\n      dup9\n        /* \"#utility.yul\":16164:16242   */\n      tag_391\n      jump\t// in\n    tag_485:\n        /* \"#utility.yul\":16156:16242   */\n      swap1\n      pop\n        /* \"#utility.yul\":16252:16324   */\n      tag_486\n        /* \"#utility.yul\":16320:16322   */\n      0x20\n        /* \"#utility.yul\":16309:16318   */\n      dup4\n        /* \"#utility.yul\":16305:16323   */\n      add\n        /* \"#utility.yul\":16296:16302   */\n      dup8\n        /* \"#utility.yul\":16252:16324   */\n      tag_464\n      jump\t// in\n    tag_486:\n        /* \"#utility.yul\":16334:16406   */\n      tag_487\n        /* \"#utility.yul\":16402:16404   */\n      0x40\n        /* \"#utility.yul\":16391:16400   */\n      dup4\n        /* \"#utility.yul\":16387:16405   */\n      add\n        /* \"#utility.yul\":16378:16384   */\n      dup7\n        /* \"#utility.yul\":16334:16406   */\n      tag_464\n      jump\t// in\n    tag_487:\n        /* \"#utility.yul\":16416:16488   */\n      tag_488\n        /* \"#utility.yul\":16484:16486   */\n      0x60\n        /* \"#utility.yul\":16473:16482   */\n      dup4\n        /* \"#utility.yul\":16469:16487   */\n      add\n        /* \"#utility.yul\":16460:16466   */\n      dup6\n        /* \"#utility.yul\":16416:16488   */\n      tag_464\n      jump\t// in\n    tag_488:\n        /* \"#utility.yul\":16498:16571   */\n      tag_489\n        /* \"#utility.yul\":16566:16569   */\n      0x80\n        /* \"#utility.yul\":16555:16564   */\n      dup4\n        /* \"#utility.yul\":16551:16570   */\n      add\n        /* \"#utility.yul\":16542:16548   */\n      dup5\n        /* \"#utility.yul\":16498:16571   */\n      tag_383\n      jump\t// in\n    tag_489:\n        /* \"#utility.yul\":16053:16578   */\n      swap7\n      swap6\n      pop\n      pop\n      pop\n      pop\n      pop\n      pop\n      jump\t// out\n        /* \"#utility.yul\":16584:17003   */\n    tag_159:\n      0x00\n        /* \"#utility.yul\":16788:16790   */\n      0x20\n        /* \"#utility.yul\":16777:16786   */\n      dup3\n        /* \"#utility.yul\":16773:16791   */\n      add\n        /* \"#utility.yul\":16765:16791   */\n      swap1\n      pop\n        /* \"#utility.yul\":16837:16846   */\n      dup2\n        /* \"#utility.yul\":16831:16835   */\n      dup2\n        /* \"#utility.yul\":16827:16847   */\n      sub\n        /* \"#utility.yul\":16823:16824   */\n      0x00\n        /* \"#utility.yul\":16812:16821   */\n      dup4\n        /* \"#utility.yul\":16808:16825   */\n      add\n        /* \"#utility.yul\":16801:16848   */\n      mstore\n        /* \"#utility.yul\":16865:16996   */\n      tag_491\n        /* \"#utility.yul\":16991:16995   */\n      dup2\n        /* \"#utility.yul\":16865:16996   */\n      tag_401\n      jump\t// in\n    tag_491:\n        /* \"#utility.yul\":16857:16996   */\n      swap1\n      pop\n        /* \"#utility.yul\":16755:17003   */\n      swap2\n      swap1\n      pop\n      jump\t// out\n        /* \"#utility.yul\":17009:17428   */\n    tag_152:\n      0x00\n        /* \"#utility.yul\":17213:17215   */\n      0x20\n        /* \"#utility.yul\":17202:17211   */\n      dup3\n        /* \"#utility.yul\":17198:17216   */\n      add\n        /* \"#utility.yul\":17190:17216   */\n      swap1\n      pop\n        /* \"#utility.yul\":17262:17271   */\n      dup2\n        /* \"#utility.yul\":17256:17260   */\n      dup2\n        /* \"#utility.yul\":17252:17272   */\n      sub\n        /* \"#utility.yul\":17248:17249   */\n      0x00\n        /* \"#utility.yul\":17237:17246   */\n      dup4\n        /* \"#utility.yul\":17233:17250   */\n      add\n        /* \"#utility.yul\":17226:17273   */\n      mstore\n        /* \"#utility.yul\":17290:17421   */\n      tag_493\n        /* \"#utility.yul\":17416:17420   */\n      dup2\n        /* \"#utility.yul\":17290:17421   */\n      tag_404\n      jump\t// in\n    tag_493:\n        /* \"#utility.yul\":17282:17421   */\n      swap1\n      pop\n        /* \"#utility.yul\":17180:17428   */\n      swap2\n      swap1\n      pop\n      jump\t// out\n        /* \"#utility.yul\":17434:17853   */\n    tag_235:\n      0x00\n        /* \"#utility.yul\":17638:17640   */\n      0x20\n        /* \"#utility.yul\":17627:17636   */\n      dup3\n        /* \"#utility.yul\":17623:17641   */\n      add\n        /* \"#utility.yul\":17615:17641   */\n      swap1\n      pop\n        /* \"#utility.yul\":17687:17696   */\n      dup2\n        /* \"#utility.yul\":17681:17685   */\n      dup2\n        /* \"#utility.yul\":17677:17697   */\n      sub\n        /* \"#utility.yul\":17673:17674   */\n      0x00\n        /* \"#utility.yul\":17662:17671   */\n      dup4\n        /* \"#utility.yul\":17658:17675   */\n      add\n        /* \"#utility.yul\":17651:17698   */\n      mstore\n        /* \"#utility.yul\":17715:17846   */\n      tag_495\n        /* \"#utility.yul\":17841:17845   */\n      dup2\n        /* \"#utility.yul\":17715:17846   */\n      tag_407\n      jump\t// in\n    tag_495:\n        /* \"#utility.yul\":17707:17846   */\n      swap1\n      pop\n        /* \"#utility.yul\":17605:17853   */\n      swap2\n      swap1\n      pop\n      jump\t// out\n        /* \"#utility.yul\":17859:18278   */\n    tag_203:\n      0x00\n        /* \"#utility.yul\":18063:18065   */\n      0x20\n        /* \"#utility.yul\":18052:18061   */\n      dup3\n        /* \"#utility.yul\":18048:18066   */\n      add\n        /* \"#utility.yul\":18040:18066   */\n      swap1\n      pop\n        /* \"#utility.yul\":18112:18121   */\n      dup2\n        /* \"#utility.yul\":18106:18110   */\n      dup2\n        /* \"#utility.yul\":18102:18122   */\n      sub\n        /* \"#utility.yul\":18098:18099   */\n      0x00\n        /* \"#utility.yul\":18087:18096   */\n      dup4\n        /* \"#utility.yul\":18083:18100   */\n      add\n        /* \"#utility.yul\":18076:18123   */\n      mstore\n        /* \"#utility.yul\":18140:18271   */\n      tag_497\n        /* \"#utility.yul\":18266:18270   */\n      dup2\n        /* \"#utility.yul\":18140:18271   */\n      tag_410\n      jump\t// in\n    tag_497:\n        /* \"#utility.yul\":18132:18271   */\n      swap1\n      pop\n        /* \"#utility.yul\":18030:18278   */\n      swap2\n      swap1\n      pop\n      jump\t// out\n        /* \"#utility.yul\":18284:18703   */\n    tag_164:\n      0x00\n        /* \"#utility.yul\":18488:18490   */\n      0x20\n        /* \"#utility.yul\":18477:18486   */\n      dup3\n        /* \"#utility.yul\":18473:18491   */\n      add\n        /* \"#utility.yul\":18465:18491   */\n      swap1\n      pop\n        /* \"#utility.yul\":18537:18546   */\n      dup2\n        /* \"#utility.yul\":18531:18535   */\n      dup2\n        /* \"#utility.yul\":18527:18547   */\n      sub\n        /* \"#utility.yul\":18523:18524   */\n      0x00\n        /* \"#utility.yul\":18512:18521   */\n      dup4\n        /* \"#utility.yul\":18508:18525   */\n      add\n        /* \"#utility.yul\":18501:18548   */\n      mstore\n        /* \"#utility.yul\":18565:18696   */\n      tag_499\n        /* \"#utility.yul\":18691:18695   */\n      dup2\n        /* \"#utility.yul\":18565:18696   */\n      tag_413\n      jump\t// in\n    tag_499:\n        /* \"#utility.yul\":18557:18696   */\n      swap1\n      pop\n        /* \"#utility.yul\":18455:18703   */\n      swap2\n      swap1\n      pop\n      jump\t// out\n        /* \"#utility.yul\":18709:19128   */\n    tag_221:\n      0x00\n        /* \"#utility.yul\":18913:18915   */\n      0x20\n        /* \"#utility.yul\":18902:18911   */\n      dup3\n        /* \"#utility.yul\":18898:18916   */\n      add\n        /* \"#utility.yul\":18890:18916   */\n      swap1\n      pop\n        /* \"#utility.yul\":18962:18971   */\n      dup2\n        /* \"#utility.yul\":18956:18960   */\n      dup2\n        /* \"#utility.yul\":18952:18972   */\n      sub\n        /* \"#utility.yul\":18948:18949   */\n      0x00\n        /* \"#utility.yul\":18937:18946   */\n      dup4\n        /* \"#utility.yul\":18933:18950   */\n      add\n        /* \"#utility.yul\":18926:18973   */\n      mstore\n        /* \"#utility.yul\":18990:19121   */\n      tag_501\n        /* \"#utility.yul\":19116:19120   */\n      dup2\n        /* \"#utility.yul\":18990:19121   */\n      tag_416\n      jump\t// in\n    tag_501:\n        /* \"#utility.yul\":18982:19121   */\n      swap1\n      pop\n        /* \"#utility.yul\":18880:19128   */\n      swap2\n      swap1\n      pop\n      jump\t// out\n        /* \"#utility.yul\":19134:19553   */\n    tag_213:\n      0x00\n        /* \"#utility.yul\":19338:19340   */\n      0x20\n        /* \"#utility.yul\":19327:19336   */\n      dup3\n        /* \"#utility.yul\":19323:19341   */\n      add\n        /* \"#utility.yul\":19315:19341   */\n      swap1\n      pop\n        /* \"#utility.yul\":19387:19396   */\n      dup2\n        /* \"#utility.yul\":19381:19385   */\n      dup2\n        /* \"#utility.yul\":19377:19397   */\n      sub\n        /* \"#utility.yul\":19373:19374   */\n      0x00\n        /* \"#utility.yul\":19362:19371   */\n      dup4\n        /* \"#utility.yul\":19358:19375   */\n      add\n        /* \"#utility.yul\":19351:19398   */\n      mstore\n        /* \"#utility.yul\":19415:19546   */\n      tag_503\n        /* \"#utility.yul\":19541:19545   */\n      dup2\n        /* \"#utility.yul\":19415:19546   */\n      tag_419\n      jump\t// in\n    tag_503:\n        /* \"#utility.yul\":19407:19546   */\n      swap1\n      pop\n        /* \"#utility.yul\":19305:19553   */\n      swap2\n      swap1\n      pop\n      jump\t// out\n        /* \"#utility.yul\":19559:19978   */\n    tag_197:\n      0x00\n        /* \"#utility.yul\":19763:19765   */\n      0x20\n        /* \"#utility.yul\":19752:19761   */\n      dup3\n        /* \"#utility.yul\":19748:19766   */\n      add\n        /* \"#utility.yul\":19740:19766   */\n      swap1\n      pop\n        /* \"#utility.yul\":19812:19821   */\n      dup2\n        /* \"#utility.yul\":19806:19810   */\n      dup2\n        /* \"#utility.yul\":19802:19822   */\n      sub\n        /* \"#utility.yul\":19798:19799   */\n      0x00\n        /* \"#utility.yul\":19787:19796   */\n      dup4\n        /* \"#utility.yul\":19783:19800   */\n      add\n        /* \"#utility.yul\":19776:19823   */\n      mstore\n        /* \"#utility.yul\":19840:19971   */\n      tag_505\n        /* \"#utility.yul\":19966:19970   */\n      dup2\n        /* \"#utility.yul\":19840:19971   */\n      tag_422\n      jump\t// in\n    tag_505:\n        /* \"#utility.yul\":19832:19971   */\n      swap1\n      pop\n        /* \"#utility.yul\":19730:19978   */\n      swap2\n      swap1\n      pop\n      jump\t// out\n        /* \"#utility.yul\":19984:20403   */\n    tag_268:\n      0x00\n        /* \"#utility.yul\":20188:20190   */\n      0x20\n        /* \"#utility.yul\":20177:20186   */\n      dup3\n        /* \"#utility.yul\":20173:20191   */\n      add\n        /* \"#utility.yul\":20165:20191   */\n      swap1\n      pop\n        /* \"#utility.yul\":20237:20246   */\n      dup2\n        /* \"#utility.yul\":20231:20235   */\n      dup2\n        /* \"#utility.yul\":20227:20247   */\n      sub\n        /* \"#utility.yul\":20223:20224   */\n      0x00\n        /* \"#utility.yul\":20212:20221   */\n      dup4\n        /* \"#utility.yul\":20208:20225   */\n      add\n        /* \"#utility.yul\":20201:20248   */\n      mstore\n        /* \"#utility.yul\":20265:20396   */\n      tag_507\n        /* \"#utility.yul\":20391:20395   */\n      dup2\n        /* \"#utility.yul\":20265:20396   */\n      tag_425\n      jump\t// in\n    tag_507:\n        /* \"#utility.yul\":20257:20396   */\n      swap1\n      pop\n        /* \"#utility.yul\":20155:20403   */\n      swap2\n      swap1\n      pop\n      jump\t// out\n        /* \"#utility.yul\":20409:20828   */\n    tag_262:\n      0x00\n        /* \"#utility.yul\":20613:20615   */\n      0x20\n        /* \"#utility.yul\":20602:20611   */\n      dup3\n        /* \"#utility.yul\":20598:20616   */\n      add\n        /* \"#utility.yul\":20590:20616   */\n      swap1\n      pop\n        /* \"#utility.yul\":20662:20671   */\n      dup2\n        /* \"#utility.yul\":20656:20660   */\n      dup2\n        /* \"#utility.yul\":20652:20672   */\n      sub\n        /* \"#utility.yul\":20648:20649   */\n      0x00\n        /* \"#utility.yul\":20637:20646   */\n      dup4\n        /* \"#utility.yul\":20633:20650   */\n      add\n        /* \"#utility.yul\":20626:20673   */\n      mstore\n        /* \"#utility.yul\":20690:20821   */\n      tag_509\n        /* \"#utility.yul\":20816:20820   */\n      dup2\n        /* \"#utility.yul\":20690:20821   */\n      tag_428\n      jump\t// in\n    tag_509:\n        /* \"#utility.yul\":20682:20821   */\n      swap1\n      pop\n        /* \"#utility.yul\":20580:20828   */\n      swap2\n      swap1\n      pop\n      jump\t// out\n        /* \"#utility.yul\":20834:21253   */\n    tag_156:\n      0x00\n        /* \"#utility.yul\":21038:21040   */\n      0x20\n        /* \"#utility.yul\":21027:21036   */\n      dup3\n        /* \"#utility.yul\":21023:21041   */\n      add\n        /* \"#utility.yul\":21015:21041   */\n      swap1\n      pop\n        /* \"#utility.yul\":21087:21096   */\n      dup2\n        /* \"#utility.yul\":21081:21085   */\n      dup2\n        /* \"#utility.yul\":21077:21097   */\n      sub\n        /* \"#utility.yul\":21073:21074   */\n      0x00\n        /* \"#utility.yul\":21062:21071   */\n      dup4\n        /* \"#utility.yul\":21058:21075   */\n      add\n        /* \"#utility.yul\":21051:21098   */\n      mstore\n        /* \"#utility.yul\":21115:21246   */\n      tag_511\n        /* \"#utility.yul\":21241:21245   */\n      dup2\n        /* \"#utility.yul\":21115:21246   */\n      tag_431\n      jump\t// in\n    tag_511:\n        /* \"#utility.yul\":21107:21246   */\n      swap1\n      pop\n        /* \"#utility.yul\":21005:21253   */\n      swap2\n      swap1\n      pop\n      jump\t// out\n        /* \"#utility.yul\":21259:21678   */\n    tag_200:\n      0x00\n        /* \"#utility.yul\":21463:21465   */\n      0x20\n        /* \"#utility.yul\":21452:21461   */\n      dup3\n        /* \"#utility.yul\":21448:21466   */\n      add\n        /* \"#utility.yul\":21440:21466   */\n      swap1\n      pop\n        /* \"#utility.yul\":21512:21521   */\n      dup2\n        /* \"#utility.yul\":21506:21510   */\n      dup2\n        /* \"#utility.yul\":21502:21522   */\n      sub\n        /* \"#utility.yul\":21498:21499   */\n      0x00\n        /* \"#utility.yul\":21487:21496   */\n      dup4\n        /* \"#utility.yul\":21483:21500   */\n      add\n        /* \"#utility.yul\":21476:21523   */\n      mstore\n        /* \"#utility.yul\":21540:21671   */\n      tag_513\n        /* \"#utility.yul\":21666:21670   */\n      dup2\n        /* \"#utility.yul\":21540:21671   */\n      tag_434\n      jump\t// in\n    tag_513:\n        /* \"#utility.yul\":21532:21671   */\n      swap1\n      pop\n        /* \"#utility.yul\":21430:21678   */\n      swap2\n      swap1\n      pop\n      jump\t// out\n        /* \"#utility.yul\":21684:22103   */\n    tag_194:\n      0x00\n        /* \"#utility.yul\":21888:21890   */\n      0x20\n        /* \"#utility.yul\":21877:21886   */\n      dup3\n        /* \"#utility.yul\":21873:21891   */\n      add\n        /* \"#utility.yul\":21865:21891   */\n      swap1\n      pop\n        /* \"#utility.yul\":21937:21946   */\n      dup2\n        /* \"#utility.yul\":21931:21935   */\n      dup2\n        /* \"#utility.yul\":21927:21947   */\n      sub\n        /* \"#utility.yul\":21923:21924   */\n      0x00\n        /* \"#utility.yul\":21912:21921   */\n      dup4\n        /* \"#utility.yul\":21908:21925   */\n      add\n        /* \"#utility.yul\":21901:21948   */\n      mstore\n        /* \"#utility.yul\":21965:22096   */\n      tag_515\n        /* \"#utility.yul\":22091:22095   */\n      dup2\n        /* \"#utility.yul\":21965:22096   */\n      tag_437\n      jump\t// in\n    tag_515:\n        /* \"#utility.yul\":21957:22096   */\n      swap1\n      pop\n        /* \"#utility.yul\":21855:22103   */\n      swap2\n      swap1\n      pop\n      jump\t// out\n        /* \"#utility.yul\":22109:22528   */\n    tag_243:\n      0x00\n        /* \"#utility.yul\":22313:22315   */\n      0x20\n        /* \"#utility.yul\":22302:22311   */\n      dup3\n        /* \"#utility.yul\":22298:22316   */\n      add\n        /* \"#utility.yul\":22290:22316   */\n      swap1\n      pop\n        /* \"#utility.yul\":22362:22371   */\n      dup2\n        /* \"#utility.yul\":22356:22360   */\n      dup2\n        /* \"#utility.yul\":22352:22372   */\n      sub\n        /* \"#utility.yul\":22348:22349   */\n      0x00\n        /* \"#utility.yul\":22337:22346   */\n      dup4\n        /* \"#utility.yul\":22333:22350   */\n      add\n        /* \"#utility.yul\":22326:22373   */\n      mstore\n        /* \"#utility.yul\":22390:22521   */\n      tag_517\n        /* \"#utility.yul\":22516:22520   */\n      dup2\n        /* \"#utility.yul\":22390:22521   */\n      tag_440\n      jump\t// in\n    tag_517:\n        /* \"#utility.yul\":22382:22521   */\n      swap1\n      pop\n        /* \"#utility.yul\":22280:22528   */\n      swap2\n      swap1\n      pop\n      jump\t// out\n        /* \"#utility.yul\":22534:22953   */\n    tag_265:\n      0x00\n        /* \"#utility.yul\":22738:22740   */\n      0x20\n        /* \"#utility.yul\":22727:22736   */\n      dup3\n        /* \"#utility.yul\":22723:22741   */\n      add\n        /* \"#utility.yul\":22715:22741   */\n      swap1\n      pop\n        /* \"#utility.yul\":22787:22796   */\n      dup2\n        /* \"#utility.yul\":22781:22785   */\n      dup2\n        /* \"#utility.yul\":22777:22797   */\n      sub\n        /* \"#utility.yul\":22773:22774   */\n      0x00\n        /* \"#utility.yul\":22762:22771   */\n      dup4\n        /* \"#utility.yul\":22758:22775   */\n      add\n        /* \"#utility.yul\":22751:22798   */\n      mstore\n        /* \"#utility.yul\":22815:22946   */\n      tag_519\n        /* \"#utility.yul\":22941:22945   */\n      dup2\n        /* \"#utility.yul\":22815:22946   */\n      tag_443\n      jump\t// in\n    tag_519:\n        /* \"#utility.yul\":22807:22946   */\n      swap1\n      pop\n        /* \"#utility.yul\":22705:22953   */\n      swap2\n      swap1\n      pop\n      jump\t// out\n        /* \"#utility.yul\":22959:23378   */\n    tag_167:\n      0x00\n        /* \"#utility.yul\":23163:23165   */\n      0x20\n        /* \"#utility.yul\":23152:23161   */\n      dup3\n        /* \"#utility.yul\":23148:23166   */\n      add\n        /* \"#utility.yul\":23140:23166   */\n      swap1\n      pop\n        /* \"#utility.yul\":23212:23221   */\n      dup2\n        /* \"#utility.yul\":23206:23210   */\n      dup2\n        /* \"#utility.yul\":23202:23222   */\n      sub\n        /* \"#utility.yul\":23198:23199   */\n      0x00\n        /* \"#utility.yul\":23187:23196   */\n      dup4\n        /* \"#utility.yul\":23183:23200   */\n      add\n        /* \"#utility.yul\":23176:23223   */\n      mstore\n        /* \"#utility.yul\":23240:23371   */\n      tag_521\n        /* \"#utility.yul\":23366:23370   */\n      dup2\n        /* \"#utility.yul\":23240:23371   */\n      tag_446\n      jump\t// in\n    tag_521:\n        /* \"#utility.yul\":23232:23371   */\n      swap1\n      pop\n        /* \"#utility.yul\":23130:23378   */\n      swap2\n      swap1\n      pop\n      jump\t// out\n        /* \"#utility.yul\":23384:23803   */\n    tag_286:\n      0x00\n        /* \"#utility.yul\":23588:23590   */\n      0x20\n        /* \"#utility.yul\":23577:23586   */\n      dup3\n        /* \"#utility.yul\":23573:23591   */\n      add\n        /* \"#utility.yul\":23565:23591   */\n      swap1\n      pop\n        /* \"#utility.yul\":23637:23646   */\n      dup2\n        /* \"#utility.yul\":23631:23635   */\n      dup2\n        /* \"#utility.yul\":23627:23647   */\n      sub\n        /* \"#utility.yul\":23623:23624   */\n      0x00\n        /* \"#utility.yul\":23612:23621   */\n      dup4\n        /* \"#utility.yul\":23608:23625   */\n      add\n        /* \"#utility.yul\":23601:23648   */\n      mstore\n        /* \"#utility.yul\":23665:23796   */\n      tag_523\n        /* \"#utility.yul\":23791:23795   */\n      dup2\n        /* \"#utility.yul\":23665:23796   */\n      tag_449\n      jump\t// in\n    tag_523:\n        /* \"#utility.yul\":23657:23796   */\n      swap1\n      pop\n        /* \"#utility.yul\":23555:23803   */\n      swap2\n      swap1\n      pop\n      jump\t// out\n        /* \"#utility.yul\":23809:24228   */\n    tag_191:\n      0x00\n        /* \"#utility.yul\":24013:24015   */\n      0x20\n        /* \"#utility.yul\":24002:24011   */\n      dup3\n        /* \"#utility.yul\":23998:24016   */\n      add\n        /* \"#utility.yul\":23990:24016   */\n      swap1\n      pop\n        /* \"#utility.yul\":24062:24071   */\n      dup2\n        /* \"#utility.yul\":24056:24060   */\n      dup2\n        /* \"#utility.yul\":24052:24072   */\n      sub\n        /* \"#utility.yul\":24048:24049   */\n      0x00\n        /* \"#utility.yul\":24037:24046   */\n      dup4\n        /* \"#utility.yul\":24033:24050   */\n      add\n        /* \"#utility.yul\":24026:24073   */\n      mstore\n        /* \"#utility.yul\":24090:24221   */\n      tag_525\n        /* \"#utility.yul\":24216:24220   */\n      dup2\n        /* \"#utility.yul\":24090:24221   */\n      tag_452\n      jump\t// in\n    tag_525:\n        /* \"#utility.yul\":24082:24221   */\n      swap1\n      pop\n        /* \"#utility.yul\":23980:24228   */\n      swap2\n      swap1\n      pop\n      jump\t// out\n        /* \"#utility.yul\":24234:24653   */\n    tag_238:\n      0x00\n        /* \"#utility.yul\":24438:24440   */\n      0x20\n        /* \"#utility.yul\":24427:24436   */\n      dup3\n        /* \"#utility.yul\":24423:24441   */\n      add\n        /* \"#utility.yul\":24415:24441   */\n      swap1\n      pop\n        /* \"#utility.yul\":24487:24496   */\n      dup2\n        /* \"#utility.yul\":24481:24485   */\n      dup2\n        /* \"#utility.yul\":24477:24497   */\n      sub\n        /* \"#utility.yul\":24473:24474   */\n      0x00\n        /* \"#utility.yul\":24462:24471   */\n      dup4\n        /* \"#utility.yul\":24458:24475   */\n      add\n        /* \"#utility.yul\":24451:24498   */\n      mstore\n        /* \"#utility.yul\":24515:24646   */\n      tag_527\n        /* \"#utility.yul\":24641:24645   */\n      dup2\n        /* \"#utility.yul\":24515:24646   */\n      tag_455\n      jump\t// in\n    tag_527:\n        /* \"#utility.yul\":24507:24646   */\n      swap1\n      pop\n        /* \"#utility.yul\":24405:24653   */\n      swap2\n      swap1\n      pop\n      jump\t// out\n        /* \"#utility.yul\":24659:25078   */\n    tag_224:\n      0x00\n        /* \"#utility.yul\":24863:24865   */\n      0x20\n        /* \"#utility.yul\":24852:24861   */\n      dup3\n        /* \"#utility.yul\":24848:24866   */\n      add\n        /* \"#utility.yul\":24840:24866   */\n      swap1\n      pop\n        /* \"#utility.yul\":24912:24921   */\n      dup2\n        /* \"#utility.yul\":24906:24910   */\n      dup2\n        /* \"#utility.yul\":24902:24922   */\n      sub\n        /* \"#utility.yul\":24898:24899   */\n      0x00\n        /* \"#utility.yul\":24887:24896   */\n      dup4\n        /* \"#utility.yul\":24883:24900   */\n      add\n        /* \"#utility.yul\":24876:24923   */\n      mstore\n        /* \"#utility.yul\":24940:25071   */\n      tag_529\n        /* \"#utility.yul\":25066:25070   */\n      dup2\n        /* \"#utility.yul\":24940:25071   */\n      tag_458\n      jump\t// in\n    tag_529:\n        /* \"#utility.yul\":24932:25071   */\n      swap1\n      pop\n        /* \"#utility.yul\":24830:25078   */\n      swap2\n      swap1\n      pop\n      jump\t// out\n        /* \"#utility.yul\":25084:25503   */\n    tag_277:\n      0x00\n        /* \"#utility.yul\":25288:25290   */\n      0x20\n        /* \"#utility.yul\":25277:25286   */\n      dup3\n        /* \"#utility.yul\":25273:25291   */\n      add\n        /* \"#utility.yul\":25265:25291   */\n      swap1\n      pop\n        /* \"#utility.yul\":25337:25346   */\n      dup2\n        /* \"#utility.yul\":25331:25335   */\n      dup2\n        /* \"#utility.yul\":25327:25347   */\n      sub\n        /* \"#utility.yul\":25323:25324   */\n      0x00\n        /* \"#utility.yul\":25312:25321   */\n      dup4\n        /* \"#utility.yul\":25308:25325   */\n      add\n        /* \"#utility.yul\":25301:25348   */\n      mstore\n        /* \"#utility.yul\":25365:25496   */\n      tag_531\n        /* \"#utility.yul\":25491:25495   */\n      dup2\n        /* \"#utility.yul\":25365:25496   */\n      tag_461\n      jump\t// in\n    tag_531:\n        /* \"#utility.yul\":25357:25496   */\n      swap1\n      pop\n        /* \"#utility.yul\":25255:25503   */\n      swap2\n      swap1\n      pop\n      jump\t// out\n        /* \"#utility.yul\":25509:25731   */\n    tag_60:\n      0x00\n        /* \"#utility.yul\":25640:25642   */\n      0x20\n        /* \"#utility.yul\":25629:25638   */\n      dup3\n        /* \"#utility.yul\":25625:25643   */\n      add\n        /* \"#utility.yul\":25617:25643   */\n      swap1\n      pop\n        /* \"#utility.yul\":25653:25724   */\n      tag_533\n        /* \"#utility.yul\":25721:25722   */\n      0x00\n        /* \"#utility.yul\":25710:25719   */\n      dup4\n        /* \"#utility.yul\":25706:25723   */\n      add\n        /* \"#utility.yul\":25697:25703   */\n      dup5\n        /* \"#utility.yul\":25653:25724   */\n      tag_464\n      jump\t// in\n    tag_533:\n        /* \"#utility.yul\":25607:25731   */\n      swap3\n      swap2\n      pop\n      pop\n      jump\t// out\n        /* \"#utility.yul\":25737:26167   */\n    tag_187:\n      0x00\n        /* \"#utility.yul\":25918:25920   */\n      0x60\n        /* \"#utility.yul\":25907:25916   */\n      dup3\n        /* \"#utility.yul\":25903:25921   */\n      add\n        /* \"#utility.yul\":25895:25921   */\n      swap1\n      pop\n        /* \"#utility.yul\":25931:26002   */\n      tag_535\n        /* \"#utility.yul\":25999:26000   */\n      0x00\n        /* \"#utility.yul\":25988:25997   */\n      dup4\n        /* \"#utility.yul\":25984:26001   */\n      add\n        /* \"#utility.yul\":25975:25981   */\n      dup7\n        /* \"#utility.yul\":25931:26002   */\n      tag_464\n      jump\t// in\n    tag_535:\n        /* \"#utility.yul\":26012:26084   */\n      tag_536\n        /* \"#utility.yul\":26080:26082   */\n      0x20\n        /* \"#utility.yul\":26069:26078   */\n      dup4\n        /* \"#utility.yul\":26065:26083   */\n      add\n        /* \"#utility.yul\":26056:26062   */\n      dup6\n        /* \"#utility.yul\":26012:26084   */\n      tag_383\n      jump\t// in\n    tag_536:\n        /* \"#utility.yul\":26094:26160   */\n      tag_537\n        /* \"#utility.yul\":26156:26158   */\n      0x40\n        /* \"#utility.yul\":26145:26154   */\n      dup4\n        /* \"#utility.yul\":26141:26159   */\n      add\n        /* \"#utility.yul\":26132:26138   */\n      dup5\n        /* \"#utility.yul\":26094:26160   */\n      tag_387\n      jump\t// in\n    tag_537:\n        /* \"#utility.yul\":25885:26167   */\n      swap5\n      swap4\n      pop\n      pop\n      pop\n      pop\n      jump\t// out\n        /* \"#utility.yul\":26173:26706   */\n    tag_229:\n      0x00\n        /* \"#utility.yul\":26380:26382   */\n      0x60\n        /* \"#utility.yul\":26369:26378   */\n      dup3\n        /* \"#utility.yul\":26365:26383   */\n      add\n        /* \"#utility.yul\":26357:26383   */\n      swap1\n      pop\n        /* \"#utility.yul\":26393:26464   */\n      tag_539\n        /* \"#utility.yul\":26461:26462   */\n      0x00\n        /* \"#utility.yul\":26450:26459   */\n      dup4\n        /* \"#utility.yul\":26446:26463   */\n      add\n        /* \"#utility.yul\":26437:26443   */\n      dup7\n        /* \"#utility.yul\":26393:26464   */\n      tag_464\n      jump\t// in\n    tag_539:\n        /* \"#utility.yul\":26511:26520   */\n      dup2\n        /* \"#utility.yul\":26505:26509   */\n      dup2\n        /* \"#utility.yul\":26501:26521   */\n      sub\n        /* \"#utility.yul\":26496:26498   */\n      0x20\n        /* \"#utility.yul\":26485:26494   */\n      dup4\n        /* \"#utility.yul\":26481:26499   */\n      add\n        /* \"#utility.yul\":26474:26522   */\n      mstore\n        /* \"#utility.yul\":26539:26617   */\n      tag_540\n        /* \"#utility.yul\":26612:26616   */\n      dup2\n        /* \"#utility.yul\":26603:26609   */\n      dup6\n        /* \"#utility.yul\":26539:26617   */\n      tag_391\n      jump\t// in\n    tag_540:\n        /* \"#utility.yul\":26531:26617   */\n      swap1\n      pop\n        /* \"#utility.yul\":26627:26699   */\n      tag_541\n        /* \"#utility.yul\":26695:26697   */\n      0x40\n        /* \"#utility.yul\":26684:26693   */\n      dup4\n        /* \"#utility.yul\":26680:26698   */\n      add\n        /* \"#utility.yul\":26671:26677   */\n      dup5\n        /* \"#utility.yul\":26627:26699   */\n      tag_383\n      jump\t// in\n    tag_541:\n        /* \"#utility.yul\":26347:26706   */\n      swap5\n      swap4\n      pop\n      pop\n      pop\n      pop\n      jump\t// out\n        /* \"#utility.yul\":26712:27356   */\n    tag_207:\n      0x00\n        /* \"#utility.yul\":26947:26950   */\n      0x80\n        /* \"#utility.yul\":26936:26945   */\n      dup3\n        /* \"#utility.yul\":26932:26951   */\n      add\n        /* \"#utility.yul\":26924:26951   */\n      swap1\n      pop\n        /* \"#utility.yul\":26961:27032   */\n      tag_543\n        /* \"#utility.yul\":27029:27030   */\n      0x00\n        /* \"#utility.yul\":27018:27027   */\n      dup4\n        /* \"#utility.yul\":27014:27031   */\n      add\n        /* \"#utility.yul\":27005:27011   */\n      dup8\n        /* \"#utility.yul\":26961:27032   */\n      tag_464\n      jump\t// in\n    tag_543:\n        /* \"#utility.yul\":27079:27088   */\n      dup2\n        /* \"#utility.yul\":27073:27077   */\n      dup2\n        /* \"#utility.yul\":27069:27089   */\n      sub\n        /* \"#utility.yul\":27064:27066   */\n      0x20\n        /* \"#utility.yul\":27053:27062   */\n      dup4\n        /* \"#utility.yul\":27049:27067   */\n      add\n        /* \"#utility.yul\":27042:27090   */\n      mstore\n        /* \"#utility.yul\":27107:27185   */\n      tag_544\n        /* \"#utility.yul\":27180:27184   */\n      dup2\n        /* \"#utility.yul\":27171:27177   */\n      dup7\n        /* \"#utility.yul\":27107:27185   */\n      tag_391\n      jump\t// in\n    tag_544:\n        /* \"#utility.yul\":27099:27185   */\n      swap1\n      pop\n        /* \"#utility.yul\":27195:27267   */\n      tag_545\n        /* \"#utility.yul\":27263:27265   */\n      0x40\n        /* \"#utility.yul\":27252:27261   */\n      dup4\n        /* \"#utility.yul\":27248:27266   */\n      add\n        /* \"#utility.yul\":27239:27245   */\n      dup6\n        /* \"#utility.yul\":27195:27267   */\n      tag_464\n      jump\t// in\n    tag_545:\n        /* \"#utility.yul\":27277:27349   */\n      tag_546\n        /* \"#utility.yul\":27345:27347   */\n      0x60\n        /* \"#utility.yul\":27334:27343   */\n      dup4\n        /* \"#utility.yul\":27330:27348   */\n      add\n        /* \"#utility.yul\":27321:27327   */\n      dup5\n        /* \"#utility.yul\":27277:27349   */\n      tag_464\n      jump\t// in\n    tag_546:\n        /* \"#utility.yul\":26914:27356   */\n      swap6\n      swap5\n      pop\n      pop\n      pop\n      pop\n      pop\n      jump\t// out\n        /* \"#utility.yul\":27362:27694   */\n    tag_217:\n      0x00\n        /* \"#utility.yul\":27521:27523   */\n      0x40\n        /* \"#utility.yul\":27510:27519   */\n      dup3\n        /* \"#utility.yul\":27506:27524   */\n      add\n        /* \"#utility.yul\":27498:27524   */\n      swap1\n      pop\n        /* \"#utility.yul\":27534:27605   */\n      tag_548\n        /* \"#utility.yul\":27602:27603   */\n      0x00\n        /* \"#utility.yul\":27591:27600   */\n      dup4\n        /* \"#utility.yul\":27587:27604   */\n      add\n        /* \"#utility.yul\":27578:27584   */\n      dup6\n        /* \"#utility.yul\":27534:27605   */\n      tag_464\n      jump\t// in\n    tag_548:\n        /* \"#utility.yul\":27615:27687   */\n      tag_549\n        /* \"#utility.yul\":27683:27685   */\n      0x20\n        /* \"#utility.yul\":27672:27681   */\n      dup4\n        /* \"#utility.yul\":27668:27686   */\n      add\n        /* \"#utility.yul\":27659:27665   */\n      dup5\n        /* \"#utility.yul\":27615:27687   */\n      tag_464\n      jump\t// in\n    tag_549:\n        /* \"#utility.yul\":27488:27694   */\n      swap4\n      swap3\n      pop\n      pop\n      pop\n      jump\t// out\n        /* \"#utility.yul\":27700:27983   */\n    tag_320:\n      0x00\n        /* \"#utility.yul\":27766:27768   */\n      0x40\n        /* \"#utility.yul\":27760:27769   */\n      mload\n        /* \"#utility.yul\":27750:27769   */\n      swap1\n      pop\n        /* \"#utility.yul\":27808:27812   */\n      dup2\n        /* \"#utility.yul\":27800:27806   */\n      dup2\n        /* \"#utility.yul\":27796:27813   */\n      add\n        /* \"#utility.yul\":27915:27921   */\n      dup2\n        /* \"#utility.yul\":27903:27913   */\n      dup2\n        /* \"#utility.yul\":27900:27922   */\n      lt\n        /* \"#utility.yul\":27879:27897   */\n      0xffffffffffffffff\n        /* \"#utility.yul\":27867:27877   */\n      dup3\n        /* \"#utility.yul\":27864:27898   */\n      gt\n        /* \"#utility.yul\":27861:27923   */\n      or\n        /* \"#utility.yul\":27858:27860   */\n      iszero\n      tag_551\n      jumpi\n        /* \"#utility.yul\":27926:27944   */\n      tag_552\n      tag_553\n      jump\t// in\n    tag_552:\n        /* \"#utility.yul\":27858:27860   */\n    tag_551:\n        /* \"#utility.yul\":27966:27976   */\n      dup1\n        /* \"#utility.yul\":27962:27964   */\n      0x40\n        /* \"#utility.yul\":27955:27977   */\n      mstore\n        /* \"#utility.yul\":27740:27983   */\n      pop\n      swap2\n      swap1\n      pop\n      jump\t// out\n        /* \"#utility.yul\":27989:28321   */\n    tag_319:\n      0x00\n        /* \"#utility.yul\":28141:28159   */\n      0xffffffffffffffff\n        /* \"#utility.yul\":28133:28139   */\n      dup3\n        /* \"#utility.yul\":28130:28160   */\n      gt\n        /* \"#utility.yul\":28127:28129   */\n      iszero\n      tag_555\n      jumpi\n        /* \"#utility.yul\":28163:28181   */\n      tag_556\n      tag_553\n      jump\t// in\n    tag_556:\n        /* \"#utility.yul\":28127:28129   */\n    tag_555:\n        /* \"#utility.yul\":28248:28252   */\n      0x1f\n        /* \"#utility.yul\":28244:28253   */\n      not\n        /* \"#utility.yul\":28237:28241   */\n      0x1f\n        /* \"#utility.yul\":28229:28235   */\n      dup4\n        /* \"#utility.yul\":28225:28242   */\n      add\n        /* \"#utility.yul\":28221:28254   */\n      and\n        /* \"#utility.yul\":28213:28254   */\n      swap1\n      pop\n        /* \"#utility.yul\":28309:28313   */\n      0x20\n        /* \"#utility.yul\":28303:28307   */\n      dup2\n        /* \"#utility.yul\":28299:28314   */\n      add\n        /* \"#utility.yul\":28291:28314   */\n      swap1\n      pop\n        /* \"#utility.yul\":28056:28321   */\n      swap2\n      swap1\n      pop\n      jump\t// out\n        /* \"#utility.yul\":28327:28426   */\n    tag_394:\n      0x00\n        /* \"#utility.yul\":28413:28418   */\n      dup2\n        /* \"#utility.yul\":28407:28419   */\n      mload\n        /* \"#utility.yul\":28397:28419   */\n      swap1\n      pop\n        /* \"#utility.yul\":28386:28426   */\n      swap2\n      swap1\n      pop\n      jump\t// out\n        /* \"#utility.yul\":28432:28601   */\n    tag_396:\n      0x00\n        /* \"#utility.yul\":28550:28556   */\n      dup3\n        /* \"#utility.yul\":28545:28548   */\n      dup3\n        /* \"#utility.yul\":28538:28557   */\n      mstore\n        /* \"#utility.yul\":28590:28594   */\n      0x20\n        /* \"#utility.yul\":28585:28588   */\n      dup3\n        /* \"#utility.yul\":28581:28595   */\n      add\n        /* \"#utility.yul\":28566:28595   */\n      swap1\n      pop\n        /* \"#utility.yul\":28528:28601   */\n      swap3\n      swap2\n      pop\n      pop\n      jump\t// out\n        /* \"#utility.yul\":28607:28912   */\n    tag_250:\n      0x00\n        /* \"#utility.yul\":28666:28686   */\n      tag_560\n        /* \"#utility.yul\":28684:28685   */\n      dup3\n        /* \"#utility.yul\":28666:28686   */\n      tag_467\n      jump\t// in\n    tag_560:\n        /* \"#utility.yul\":28661:28686   */\n      swap2\n      pop\n        /* \"#utility.yul\":28700:28720   */\n      tag_561\n        /* \"#utility.yul\":28718:28719   */\n      dup4\n        /* \"#utility.yul\":28700:28720   */\n      tag_467\n      jump\t// in\n    tag_561:\n        /* \"#utility.yul\":28695:28720   */\n      swap3\n      pop\n        /* \"#utility.yul\":28854:28855   */\n      dup3\n        /* \"#utility.yul\":28786:28852   */\n      0xffffffffffffffffffffffffffffffffffffffffffffffffffffffffffffffff\n        /* \"#utility.yul\":28782:28856   */\n      sub\n        /* \"#utility.yul\":28779:28780   */\n      dup3\n        /* \"#utility.yul\":28776:28857   */\n      gt\n        /* \"#utility.yul\":28773:28775   */\n      iszero\n      tag_562\n      jumpi\n        /* \"#utility.yul\":28860:28878   */\n      tag_563\n      tag_564\n      jump\t// in\n    tag_563:\n        /* \"#utility.yul\":28773:28775   */\n    tag_562:\n        /* \"#utility.yul\":28904:28905   */\n      dup3\n        /* \"#utility.yul\":28901:28902   */\n      dup3\n        /* \"#utility.yul\":28897:28906   */\n      add\n        /* \"#utility.yul\":28890:28906   */\n      swap1\n      pop\n        /* \"#utility.yul\":28651:28912   */\n      swap3\n      swap2\n      pop\n      pop\n      jump\t// out\n        /* \"#utility.yul\":28918:29103   */\n    tag_246:\n      0x00\n        /* \"#utility.yul\":28975:28995   */\n      tag_566\n        /* \"#utility.yul\":28993:28994   */\n      dup3\n        /* \"#utility.yul\":28975:28995   */\n      tag_467\n      jump\t// in\n    tag_566:\n        /* \"#utility.yul\":28970:28995   */\n      swap2\n      pop\n        /* \"#utility.yul\":29009:29029   */\n      tag_567\n        /* \"#utility.yul\":29027:29028   */\n      dup4\n        /* \"#utility.yul\":29009:29029   */\n      tag_467\n      jump\t// in\n    tag_567:\n        /* \"#utility.yul\":29004:29029   */\n      swap3\n      pop\n        /* \"#utility.yul\":29048:29049   */\n      dup3\n        /* \"#utility.yul\":29038:29040   */\n      tag_568\n      jumpi\n        /* \"#utility.yul\":29053:29071   */\n      tag_569\n      tag_570\n      jump\t// in\n    tag_569:\n        /* \"#utility.yul\":29038:29040   */\n    tag_568:\n        /* \"#utility.yul\":29095:29096   */\n      dup3\n        /* \"#utility.yul\":29092:29093   */\n      dup3\n        /* \"#utility.yul\":29088:29097   */\n      div\n        /* \"#utility.yul\":29083:29097   */\n      swap1\n      pop\n        /* \"#utility.yul\":28960:29103   */\n      swap3\n      swap2\n      pop\n      pop\n      jump\t// out\n        /* \"#utility.yul\":29109:29457   */\n    tag_240:\n      0x00\n        /* \"#utility.yul\":29172:29192   */\n      tag_572\n        /* \"#utility.yul\":29190:29191   */\n      dup3\n        /* \"#utility.yul\":29172:29192   */\n      tag_467\n      jump\t// in\n    tag_572:\n        /* \"#utility.yul\":29167:29192   */\n      swap2\n      pop\n        /* \"#utility.yul\":29206:29226   */\n      tag_573\n        /* \"#utility.yul\":29224:29225   */\n      dup4\n        /* \"#utility.yul\":29206:29226   */\n      tag_467\n      jump\t// in\n    tag_573:\n        /* \"#utility.yul\":29201:29226   */\n      swap3\n      pop\n        /* \"#utility.yul\":29394:29395   */\n      dup2\n        /* \"#utility.yul\":29326:29392   */\n      0xffffffffffffffffffffffffffffffffffffffffffffffffffffffffffffffff\n        /* \"#utility.yul\":29322:29396   */\n      div\n        /* \"#utility.yul\":29319:29320   */\n      dup4\n        /* \"#utility.yul\":29316:29397   */\n      gt\n        /* \"#utility.yul\":29311:29312   */\n      dup3\n        /* \"#utility.yul\":29304:29313   */\n      iszero\n        /* \"#utility.yul\":29297:29314   */\n      iszero\n        /* \"#utility.yul\":29293:29398   */\n      and\n        /* \"#utility.yul\":29290:29292   */\n      iszero\n      tag_574\n      jumpi\n        /* \"#utility.yul\":29401:29419   */\n      tag_575\n      tag_564\n      jump\t// in\n    tag_575:\n        /* \"#utility.yul\":29290:29292   */\n    tag_574:\n        /* \"#utility.yul\":29449:29450   */\n      dup3\n        /* \"#utility.yul\":29446:29447   */\n      dup3\n        /* \"#utility.yul\":29442:29451   */\n      mul\n        /* \"#utility.yul\":29431:29451   */\n      swap1\n      pop\n        /* \"#utility.yul\":29157:29457   */\n      swap3\n      swap2\n      pop\n      pop\n      jump\t// out\n        /* \"#utility.yul\":29463:29654   */\n    tag_215:\n      0x00\n        /* \"#utility.yul\":29523:29543   */\n      tag_577\n        /* \"#utility.yul\":29541:29542   */\n      dup3\n        /* \"#utility.yul\":29523:29543   */\n      tag_467\n      jump\t// in\n    tag_577:\n        /* \"#utility.yul\":29518:29543   */\n      swap2\n      pop\n        /* \"#utility.yul\":29557:29577   */\n      tag_578\n        /* \"#utility.yul\":29575:29576   */\n      dup4\n        /* \"#utility.yul\":29557:29577   */\n      tag_467\n      jump\t// in\n    tag_578:\n        /* \"#utility.yul\":29552:29577   */\n      swap3\n      pop\n        /* \"#utility.yul\":29596:29597   */\n      dup3\n        /* \"#utility.yul\":29593:29594   */\n      dup3\n        /* \"#utility.yul\":29590:29598   */\n      lt\n        /* \"#utility.yul\":29587:29589   */\n      iszero\n      tag_579\n      jumpi\n        /* \"#utility.yul\":29601:29619   */\n      tag_580\n      tag_564\n      jump\t// in\n    tag_580:\n        /* \"#utility.yul\":29587:29589   */\n    tag_579:\n        /* \"#utility.yul\":29646:29647   */\n      dup3\n        /* \"#utility.yul\":29643:29644   */\n      dup3\n        /* \"#utility.yul\":29639:29648   */\n      sub\n        /* \"#utility.yul\":29631:29648   */\n      swap1\n      pop\n        /* \"#utility.yul\":29508:29654   */\n      swap3\n      swap2\n      pop\n      pop\n      jump\t// out\n        /* \"#utility.yul\":29660:29756   */\n    tag_386:\n      0x00\n        /* \"#utility.yul\":29726:29750   */\n      tag_582\n        /* \"#utility.yul\":29744:29749   */\n      dup3\n        /* \"#utility.yul\":29726:29750   */\n      tag_583\n      jump\t// in\n    tag_582:\n        /* \"#utility.yul\":29715:29750   */\n      swap1\n      pop\n        /* \"#utility.yul\":29705:29756   */\n      swap2\n      swap1\n      pop\n      jump\t// out\n        /* \"#utility.yul\":29762:29852   */\n    tag_390:\n      0x00\n        /* \"#utility.yul\":29839:29844   */\n      dup2\n        /* \"#utility.yul\":29832:29845   */\n      iszero\n        /* \"#utility.yul\":29825:29846   */\n      iszero\n        /* \"#utility.yul\":29814:29846   */\n      swap1\n      pop\n        /* \"#utility.yul\":29804:29852   */\n      swap2\n      swap1\n      pop\n      jump\t// out\n        /* \"#utility.yul\":29858:29984   */\n    tag_583:\n      0x00\n        /* \"#utility.yul\":29935:29977   */\n      0xffffffffffffffffffffffffffffffffffffffff\n        /* \"#utility.yul\":29928:29933   */\n      dup3\n        /* \"#utility.yul\":29924:29978   */\n      and\n        /* \"#utility.yul\":29913:29978   */\n      swap1\n      pop\n        /* \"#utility.yul\":29903:29984   */\n      swap2\n      swap1\n      pop\n      jump\t// out\n        /* \"#utility.yul\":29990:30067   */\n    tag_467:\n      0x00\n        /* \"#utility.yul\":30056:30061   */\n      dup2\n        /* \"#utility.yul\":30045:30061   */\n      swap1\n      pop\n        /* \"#utility.yul\":30035:30067   */\n      swap2\n      swap1\n      pop\n      jump\t// out\n        /* \"#utility.yul\":30073:30227   */\n    tag_323:\n        /* \"#utility.yul\":30157:30163   */\n      dup3\n        /* \"#utility.yul\":30152:30155   */\n      dup2\n        /* \"#utility.yul\":30147:30150   */\n      dup4\n        /* \"#utility.yul\":30134:30164   */\n      calldatacopy\n        /* \"#utility.yul\":30219:30220   */\n      0x00\n        /* \"#utility.yul\":30210:30216   */\n      dup4\n        /* \"#utility.yul\":30205:30208   */\n      dup4\n        /* \"#utility.yul\":30201:30217   */\n      add\n        /* \"#utility.yul\":30194:30221   */\n      mstore\n        /* \"#utility.yul\":30124:30227   */\n      pop\n      pop\n      pop\n      jump\t// out\n        /* \"#utility.yul\":30233:30540   */\n    tag_398:\n        /* \"#utility.yul\":30301:30302   */\n      0x00\n        /* \"#utility.yul\":30311:30424   */\n    tag_589:\n        /* \"#utility.yul\":30325:30331   */\n      dup4\n        /* \"#utility.yul\":30322:30323   */\n      dup2\n        /* \"#utility.yul\":30319:30332   */\n      lt\n        /* \"#utility.yul\":30311:30424   */\n      iszero\n      tag_591\n      jumpi\n        /* \"#utility.yul\":30410:30411   */\n      dup1\n        /* \"#utility.yul\":30405:30408   */\n      dup3\n        /* \"#utility.yul\":30401:30412   */\n      add\n        /* \"#utility.yul\":30395:30413   */\n      mload\n        /* \"#utility.yul\":30391:30392   */\n      dup2\n        /* \"#utility.yul\":30386:30389   */\n      dup5\n        /* \"#utility.yul\":30382:30393   */\n      add\n        /* \"#utility.yul\":30375:30414   */\n      mstore\n        /* \"#utility.yul\":30347:30349   */\n      0x20\n        /* \"#utility.yul\":30344:30345   */\n      dup2\n        /* \"#utility.yul\":30340:30350   */\n      add\n        /* \"#utility.yul\":30335:30350   */\n      swap1\n      pop\n        /* \"#utility.yul\":30311:30424   */\n      jump(tag_589)\n    tag_591:\n        /* \"#utility.yul\":30442:30448   */\n      dup4\n        /* \"#utility.yul\":30439:30440   */\n      dup2\n        /* \"#utility.yul\":30436:30449   */\n      gt\n        /* \"#utility.yul\":30433:30435   */\n      iszero\n      tag_592\n      jumpi\n        /* \"#utility.yul\":30522:30523   */\n      0x00\n        /* \"#utility.yul\":30513:30519   */\n      dup5\n        /* \"#utility.yul\":30508:30511   */\n      dup5\n        /* \"#utility.yul\":30504:30520   */\n      add\n        /* \"#utility.yul\":30497:30524   */\n      mstore\n        /* \"#utility.yul\":30433:30435   */\n    tag_592:\n        /* \"#utility.yul\":30282:30540   */\n      pop\n      pop\n      pop\n      pop\n      jump\t// out\n        /* \"#utility.yul\":30546:30866   */\n    tag_144:\n      0x00\n        /* \"#utility.yul\":30627:30628   */\n      0x02\n        /* \"#utility.yul\":30621:30625   */\n      dup3\n        /* \"#utility.yul\":30617:30629   */\n      div\n        /* \"#utility.yul\":30607:30629   */\n      swap1\n      pop\n        /* \"#utility.yul\":30674:30675   */\n      0x01\n        /* \"#utility.yul\":30668:30672   */\n      dup3\n        /* \"#utility.yul\":30664:30676   */\n      and\n        /* \"#utility.yul\":30695:30713   */\n      dup1\n        /* \"#utility.yul\":30685:30687   */\n      tag_594\n      jumpi\n        /* \"#utility.yul\":30751:30755   */\n      0x7f\n        /* \"#utility.yul\":30743:30749   */\n      dup3\n        /* \"#utility.yul\":30739:30756   */\n      and\n        /* \"#utility.yul\":30729:30756   */\n      swap2\n      pop\n        /* \"#utility.yul\":30685:30687   */\n    tag_594:\n        /* \"#utility.yul\":30813:30815   */\n      0x20\n        /* \"#utility.yul\":30805:30811   */\n      dup3\n        /* \"#utility.yul\":30802:30816   */\n      lt\n        /* \"#utility.yul\":30782:30800   */\n      dup2\n        /* \"#utility.yul\":30779:30817   */\n      eq\n        /* \"#utility.yul\":30776:30778   */\n      iszero\n      tag_595\n      jumpi\n        /* \"#utility.yul\":30832:30850   */\n      tag_596\n      tag_597\n      jump\t// in\n    tag_596:\n        /* \"#utility.yul\":30776:30778   */\n    tag_595:\n        /* \"#utility.yul\":30597:30866   */\n      pop\n      swap2\n      swap1\n      pop\n      jump\t// out\n        /* \"#utility.yul\":30872:31105   */\n    tag_183:\n      0x00\n        /* \"#utility.yul\":30934:30958   */\n      tag_599\n        /* \"#utility.yul\":30952:30957   */\n      dup3\n        /* \"#utility.yul\":30934:30958   */\n      tag_467\n      jump\t// in\n    tag_599:\n        /* \"#utility.yul\":30925:30958   */\n      swap2\n      pop\n        /* \"#utility.yul\":30980:31046   */\n      0xffffffffffffffffffffffffffffffffffffffffffffffffffffffffffffffff\n        /* \"#utility.yul\":30973:30978   */\n      dup3\n        /* \"#utility.yul\":30970:31047   */\n      eq\n        /* \"#utility.yul\":30967:30969   */\n      iszero\n      tag_600\n      jumpi\n        /* \"#utility.yul\":31050:31068   */\n      tag_601\n      tag_564\n      jump\t// in\n    tag_601:\n        /* \"#utility.yul\":30967:30969   */\n    tag_600:\n        /* \"#utility.yul\":31097:31098   */\n      0x01\n        /* \"#utility.yul\":31090:31095   */\n      dup3\n        /* \"#utility.yul\":31086:31099   */\n      add\n        /* \"#utility.yul\":31079:31099   */\n      swap1\n      pop\n        /* \"#utility.yul\":30915:31105   */\n      swap2\n      swap1\n      pop\n      jump\t// out\n        /* \"#utility.yul\":31111:31291   */\n    tag_564:\n        /* \"#utility.yul\":31159:31236   */\n      0x4e487b7100000000000000000000000000000000000000000000000000000000\n        /* \"#utility.yul\":31156:31157   */\n      0x00\n        /* \"#utility.yul\":31149:31237   */\n      mstore\n        /* \"#utility.yul\":31256:31260   */\n      0x11\n        /* \"#utility.yul\":31253:31254   */\n      0x04\n        /* \"#utility.yul\":31246:31261   */\n      mstore\n        /* \"#utility.yul\":31280:31284   */\n      0x24\n        /* \"#utility.yul\":31277:31278   */\n      0x00\n        /* \"#utility.yul\":31270:31285   */\n      revert\n        /* \"#utility.yul\":31297:31477   */\n    tag_570:\n        /* \"#utility.yul\":31345:31422   */\n      0x4e487b7100000000000000000000000000000000000000000000000000000000\n        /* \"#utility.yul\":31342:31343   */\n      0x00\n        /* \"#utility.yul\":31335:31423   */\n      mstore\n        /* \"#utility.yul\":31442:31446   */\n      0x12\n        /* \"#utility.yul\":31439:31440   */\n      0x04\n        /* \"#utility.yul\":31432:31447   */\n      mstore\n        /* \"#utility.yul\":31466:31470   */\n      0x24\n        /* \"#utility.yul\":31463:31464   */\n      0x00\n        /* \"#utility.yul\":31456:31471   */\n      revert\n        /* \"#utility.yul\":31483:31663   */\n    tag_597:\n        /* \"#utility.yul\":31531:31608   */\n      0x4e487b7100000000000000000000000000000000000000000000000000000000\n        /* \"#utility.yul\":31528:31529   */\n      0x00\n        /* \"#utility.yul\":31521:31609   */\n      mstore\n        /* \"#utility.yul\":31628:31632   */\n      0x22\n        /* \"#utility.yul\":31625:31626   */\n      0x04\n        /* \"#utility.yul\":31618:31633   */\n      mstore\n        /* \"#utility.yul\":31652:31656   */\n      0x24\n        /* \"#utility.yul\":31649:31650   */\n      0x00\n        /* \"#utility.yul\":31642:31657   */\n      revert\n        /* \"#utility.yul\":31669:31849   */\n    tag_553:\n        /* \"#utility.yul\":31717:31794   */\n      0x4e487b7100000000000000000000000000000000000000000000000000000000\n        /* \"#utility.yul\":31714:31715   */\n      0x00\n        /* \"#utility.yul\":31707:31795   */\n      mstore\n        /* \"#utility.yul\":31814:31818   */\n      0x41\n        /* \"#utility.yul\":31811:31812   */\n      0x04\n        /* \"#utility.yul\":31804:31819   */\n      mstore\n        /* \"#utility.yul\":31838:31842   */\n      0x24\n        /* \"#utility.yul\":31835:31836   */\n      0x00\n        /* \"#utility.yul\":31828:31843   */\n      revert\n        /* \"#utility.yul\":31855:31957   */\n    tag_400:\n      0x00\n        /* \"#utility.yul\":31947:31949   */\n      0x1f\n        /* \"#utility.yul\":31943:31950   */\n      not\n        /* \"#utility.yul\":31938:31940   */\n      0x1f\n        /* \"#utility.yul\":31931:31936   */\n      dup4\n        /* \"#utility.yul\":31927:31941   */\n      add\n        /* \"#utility.yul\":31923:31951   */\n      and\n        /* \"#utility.yul\":31913:31951   */\n      swap1\n      pop\n        /* \"#utility.yul\":31903:31957   */\n      swap2\n      swap1\n      pop\n      jump\t// out\n        /* \"#utility.yul\":31963:32085   */\n    tag_327:\n        /* \"#utility.yul\":32036:32060   */\n      tag_608\n        /* \"#utility.yul\":32054:32059   */\n      dup2\n        /* \"#utility.yul\":32036:32060   */\n      tag_386\n      jump\t// in\n    tag_608:\n        /* \"#utility.yul\":32029:32034   */\n      dup2\n        /* \"#utility.yul\":32026:32061   */\n      eq\n        /* \"#utility.yul\":32016:32018   */\n      tag_609\n      jumpi\n        /* \"#utility.yul\":32075:32076   */\n      0x00\n        /* \"#utility.yul\":32072:32073   */\n      dup1\n        /* \"#utility.yul\":32065:32077   */\n      revert\n        /* \"#utility.yul\":32016:32018   */\n    tag_609:\n        /* \"#utility.yul\":32006:32085   */\n      pop\n      jump\t// out\n        /* \"#utility.yul\":32091:32207   */\n    tag_331:\n        /* \"#utility.yul\":32161:32182   */\n      tag_611\n        /* \"#utility.yul\":32176:32181   */\n      dup2\n        /* \"#utility.yul\":32161:32182   */\n      tag_390\n      jump\t// in\n    tag_611:\n        /* \"#utility.yul\":32154:32159   */\n      dup2\n        /* \"#utility.yul\":32151:32183   */\n      eq\n        /* \"#utility.yul\":32141:32143   */\n      tag_612\n      jumpi\n        /* \"#utility.yul\":32197:32198   */\n      0x00\n        /* \"#utility.yul\":32194:32195   */\n      dup1\n        /* \"#utility.yul\":32187:32199   */\n      revert\n        /* \"#utility.yul\":32141:32143   */\n    tag_612:\n        /* \"#utility.yul\":32131:32207   */\n      pop\n      jump\t// out\n        /* \"#utility.yul\":32213:32335   */\n    tag_339:\n        /* \"#utility.yul\":32286:32310   */\n      tag_614\n        /* \"#utility.yul\":32304:32309   */\n      dup2\n        /* \"#utility.yul\":32286:32310   */\n      tag_467\n      jump\t// in\n    tag_614:\n        /* \"#utility.yul\":32279:32284   */\n      dup2\n        /* \"#utility.yul\":32276:32311   */\n      eq\n        /* \"#utility.yul\":32266:32268   */\n      tag_615\n      jumpi\n        /* \"#utility.yul\":32325:32326   */\n      0x00\n        /* \"#utility.yul\":32322:32323   */\n      dup1\n        /* \"#utility.yul\":32315:32327   */\n      revert\n        /* \"#utility.yul\":32266:32268   */\n    tag_615:\n        /* \"#utility.yul\":32256:32335   */\n      pop\n      jump\t// out\n\n    auxdata: 0xa26469706673582212204ea0ab77550ead2ef205e00b2d4c70844f8933c6f97e1fab93abc011a4839b6864736f6c63430008000033\n}\n",
				"bytecode": {
					"linkReferences": {},
					"object": "608060405260646001556000600260006101000a81548160ff0219169083151502179055506001600355671bc16d674ec8000060045534801561004157600080fd5b50336000806101000a81548173ffffffffffffffffffffffffffffffffffffffff021916908373ffffffffffffffffffffffffffffffffffffffff16021790555061327f806100916000396000f3fe6080604052600436106101405760003560e01c806384034469116100b6578063baccbfdb1161006f578063baccbfdb14610432578063c121cff01461046f578063c9ded404146104ac578063e503bb05146104d7578063e636eb5514610514578063f0f3f2c81461053d57610140565b806384034469146103505780638da5cb5b1461036c578063a001ecdd14610397578063a2f6045a146103c2578063ab52a745146103de578063acb2ad6f1461040757610140565b806317a483a31161010857806317a483a3146102425780632f51d7ce1461027f578063354f75e1146102aa57806336fbad26146102d35780633ea0fb13146102fe57806349c2a1a61461032757610140565b8063013cf08b146101455780630994c98f146101865780630d61b519146101af578063107046bd146101d85780631614665c14610219575b600080fd5b34801561015157600080fd5b5061016c600480360381019061016791906120e1565b61057e565b60405161017d9594939291906129d2565b60405180910390f35b34801561019257600080fd5b506101ad60048036038101906101a891906120e1565b610679565b005b3480156101bb57600080fd5b506101d660048036038101906101d191906120e1565b610711565b005b3480156101e457600080fd5b506101ff60048036038101906101fa91906120e1565b610925565b604051610210959493929190612a2c565b60405180910390f35b34801561022557600080fd5b50610240600480360381019061023b919061210a565b610a03565b005b34801561024e57600080fd5b5061026960048036038101906102649190611f85565b610b68565b6040516102769190612d9b565b60405180910390f35b34801561028b57600080fd5b50610294610b8d565b6040516102a19190612a86565b60405180910390f35b3480156102b657600080fd5b506102d160048036038101906102cc9190612146565b610ba0565b005b3480156102df57600080fd5b506102e8610dcf565b6040516102f59190612d9b565b60405180910390f35b34801561030a57600080fd5b50610325600480360381019061032091906121c1565b610dd5565b005b34801561033357600080fd5b5061034e60048036038101906103499190612039565b610f67565b005b61036a600480360381019061036591906121c1565b61118f565b005b34801561037857600080fd5b506103816114fc565b60405161038e91906129b7565b60405180910390f35b3480156103a357600080fd5b506103ac611520565b6040516103b99190612d9b565b60405180910390f35b6103dc60048036038101906103d79190611fc1565b611526565b005b3480156103ea57600080fd5b5061040560048036038101906104009190612010565b61187e565b005b34801561041357600080fd5b5061041c611929565b6040516104299190612d9b565b60405180910390f35b34801561043e57600080fd5b5061045960048036038101906104549190611f5c565b61192f565b6040516104669190612d9b565b60405180910390f35b34801561047b57600080fd5b5061049660048036038101906104919190611f85565b611978565b6040516104a39190612d9b565b60405180910390f35b3480156104b857600080fd5b506104c1611a17565b6040516104ce9190612d9b565b60405180910390f35b3480156104e357600080fd5b506104fe60048036038101906104f99190611f5c565b611a1d565b60405161050b9190612d9b565b60405180910390f35b34801561052057600080fd5b5061053b6004803603810190610536919061207a565b611a35565b005b34801561054957600080fd5b50610564600480360381019061055f91906120e1565b611cd7565b604051610575959493929190612aa1565b60405180910390f35b6009818154811061058e57600080fd5b90600052602060002090600502016000915090508060000160009054906101000a900473ffffffffffffffffffffffffffffffffffffffff16908060010180546105d7906130bc565b80601f0160208091040260200160405190810160405280929190818152602001828054610603906130bc565b80156106505780601f1061062557610100808354040283529160200191610650565b820191906000526020600020905b81548152906001019060200180831161063357829003601f168201915b5050505050908060020154908060030154908060040160009054906101000a900460ff16905085565b60008054906101000a900473ffffffffffffffffffffffffffffffffffffffff1673ffffffffffffffffffffffffffffffffffffffff163373ffffffffffffffffffffffffffffffffffffffff1614610707576040517f08c379a00000000000000000000000000000000000000000000000000000000081526004016106fe90612b1b565b60405180910390fd5b8060038190555050565b60008054906101000a900473ffffffffffffffffffffffffffffffffffffffff1673ffffffffffffffffffffffffffffffffffffffff163373ffffffffffffffffffffffffffffffffffffffff161461079f576040517f08c379a000000000000000000000000000000000000000000000000000000000815260040161079690612c3b565b60405180910390fd5b60098054905081106107e6576040517f08c379a00000000000000000000000000000000000000000000000000000000081526004016107dd90612afb565b60405180910390fd5b600060098281548110610822577f4e487b7100000000000000000000000000000000000000000000000000000000600052603260045260246000fd5b906000526020600020906005020190508060040160009054906101000a900460ff1615610884576040517f08c379a000000000000000000000000000000000000000000000000000000000815260040161087b90612b7b565b60405180910390fd5b600354816002015410156108cd576040517f08c379a00000000000000000000000000000000000000000000000000000000081526004016108c490612cdb565b60405180910390fd5b60018160040160006101000a81548160ff0219169083151502179055507f712ae1383f79ac853f8d882153778e0260ef8f03b504e2866e0593e04d2b291f826040516109199190612d9b565b60405180910390a15050565b60056020528060005260406000206000915090508060000160009054906101000a900473ffffffffffffffffffffffffffffffffffffffff169080600101805461096e906130bc565b80601f016020809104026020016040519081016040528092919081815260200182805461099a906130bc565b80156109e75780601f106109bc576101008083540402835291602001916109e7565b820191906000526020600020905b8154815290600101906020018083116109ca57829003601f168201915b5050505050908060020154908060030154908060040154905085565b6009805490508210610a4a576040517f08c379a0000000000000000000000000000000000000000000000000000000008152600401610a4190612afb565b60405180910390fd5b600060098381548110610a86577f4e487b7100000000000000000000000000000000000000000000000000000000600052603260045260246000fd5b906000526020600020906005020190508060040160009054906101000a900460ff1615610ae8576040517f08c379a0000000000000000000000000000000000000000000000000000000008152600401610adf90612b7b565b60405180910390fd5b8115610b0d57806002016000815480929190610b03906130ee565b9190505550610b28565b806003016000815480929190610b22906130ee565b91905055505b7fe71fcdac32df1877c1700e7bda2a03157e20993363a28fc35ac495cefc76e4d4833384604051610b5b93929190612db6565b60405180910390a1505050565b6007602052816000526040600020602052806000526040600020600091509150505481565b600260009054906101000a900460ff1681565b6006548410610be4576040517f08c379a0000000000000000000000000000000000000000000000000000000008152600401610bdb90612d1b565b60405180910390fd5b60006005600086815260200190815260200160002090508060000160009054906101000a900473ffffffffffffffffffffffffffffffffffffffff1673ffffffffffffffffffffffffffffffffffffffff163373ffffffffffffffffffffffffffffffffffffffff1614610c8d576040517f08c379a0000000000000000000000000000000000000000000000000000000008152600401610c8490612c7b565b60405180910390fd5b6000845111610cd1576040517f08c379a0000000000000000000000000000000000000000000000000000000008152600401610cc890612bdb565b60405180910390fd5b60008311610d14576040517f08c379a0000000000000000000000000000000000000000000000000000000008152600401610d0b90612c5b565b60405180910390fd5b60008211610d57576040517f08c379a0000000000000000000000000000000000000000000000000000000008152600401610d4e90612b5b565b60405180910390fd5b83816001019080519060200190610d6f929190611e12565b508281600201819055508281600301819055508181600401819055507f700a00c8a0ce792dad3b7132a7a7f4a44a923f3820e64a1ca3594a073973c90985858585604051610dc09493929190612e2b565b60405180910390a15050505050565b60065481565b6006548210610e19576040517f08c379a0000000000000000000000000000000000000000000000000000000008152600401610e1090612d1b565b60405180910390fd5b80600760003373ffffffffffffffffffffffffffffffffffffffff1673ffffffffffffffffffffffffffffffffffffffff1681526020019081526020016000206000848152602001908152602001600020541015610eac576040517f08c379a0000000000000000000000000000000000000000000000000000000008152600401610ea390612bbb565b60405180910390fd5b80600760003373ffffffffffffffffffffffffffffffffffffffff1673ffffffffffffffffffffffffffffffffffffffff16815260200190815260200160002060008481526020019081526020016000206000828254610f0c9190612ffe565b925050819055503373ffffffffffffffffffffffffffffffffffffffff167f2ffd4879af328c871cf4d2be1d40d91f5ce4f202fd47e10e4c58d19667627da88383604051610f5b929190612e77565b60405180910390a25050565b60008054906101000a900473ffffffffffffffffffffffffffffffffffffffff1673ffffffffffffffffffffffffffffffffffffffff163373ffffffffffffffffffffffffffffffffffffffff1614610ff5576040517f08c379a0000000000000000000000000000000000000000000000000000000008152600401610fec90612b9b565b60405180910390fd5b6000815111611039576040517f08c379a000000000000000000000000000000000000000000000000000000000815260040161103090612d5b565b60405180910390fd5b60096040518060a001604052803373ffffffffffffffffffffffffffffffffffffffff168152602001838152602001600081526020016000815260200160001515815250908060018154018082558091505060019003906000526020600020906005020160009091909190915060008201518160000160006101000a81548173ffffffffffffffffffffffffffffffffffffffff021916908373ffffffffffffffffffffffffffffffffffffffff1602179055506020820151816001019080519060200190611109929190611e12565b50604082015181600201556060820151816003015560808201518160040160006101000a81548160ff02191690831515021790555050507fc8c078bfee58e5822588f08b4509ed1eb5058e03f666cca84dd2d44bf5c288a860016009805490506111739190612ffe565b823360405161118493929190612ded565b60405180910390a150565b60065482106111d3576040517f08c379a00000000000000000000000000000000000000000000000000000000081526004016111ca90612d1b565b60405180910390fd5b60006005600084815260200190815260200160002090506000821161122d576040517f08c379a000000000000000000000000000000000000000000000000000000000815260040161122490612b3b565b60405180910390fd5b8060030154821115611274576040517f08c379a000000000000000000000000000000000000000000000000000000000815260040161126b90612d3b565b60405180910390fd5b60008160040154836112869190612fa4565b9050803410156112cb576040517f08c379a00000000000000000000000000000000000000000000000000000000081526004016112c290612c9b565b60405180910390fd5b6000612710600154836112de9190612fa4565b6112e89190612f73565b9050600081836112f89190612ffe565b90508484600301600082825461130e9190612ffe565b9250508190555084600760003373ffffffffffffffffffffffffffffffffffffffff1673ffffffffffffffffffffffffffffffffffffffff168152602001908152602001600020600088815260200190815260200160002060008282546113759190612f1d565b9250508190555084600860003373ffffffffffffffffffffffffffffffffffffffff1673ffffffffffffffffffffffffffffffffffffffff16815260200190815260200160002060008282546113cb9190612f1d565b925050819055508360000160009054906101000a900473ffffffffffffffffffffffffffffffffffffffff1673ffffffffffffffffffffffffffffffffffffffff166108fc829081150290604051600060405180830381858888f1935050505015801561143c573d6000803e3d6000fd5b5060008054906101000a900473ffffffffffffffffffffffffffffffffffffffff1673ffffffffffffffffffffffffffffffffffffffff166108fc839081150290604051600060405180830381858888f193505050501580156114a3573d6000803e3d6000fd5b503373ffffffffffffffffffffffffffffffffffffffff167ffb82fc1c5adf84899709e87563b69dd5f4ac33320f1c60dbca744bec717eb90f87876040516114ec929190612e77565b60405180910390a2505050505050565b60008054906101000a900473ffffffffffffffffffffffffffffffffffffffff1681565b60015481565b600654821061156a576040517f08c379a000000000000000000000000000000000000000000000000000000000815260040161156190612d1b565b60405180910390fd5b80600760003373ffffffffffffffffffffffffffffffffffffffff1673ffffffffffffffffffffffffffffffffffffffff16815260200190815260200160002060008481526020019081526020016000205410156115fd576040517f08c379a00000000000000000000000000000000000000000000000000000000081526004016115f490612c1b565b60405180910390fd5b600454341015611642576040517f08c379a000000000000000000000000000000000000000000000000000000000815260040161163990612cbb565b60405180910390fd5b6000600760003373ffffffffffffffffffffffffffffffffffffffff1673ffffffffffffffffffffffffffffffffffffffff1681526020019081526020016000206000848152602001908152602001600020549050818110156116da576040517f08c379a00000000000000000000000000000000000000000000000000000000081526004016116d190612bfb565b60405180910390fd5b60008054906101000a900473ffffffffffffffffffffffffffffffffffffffff1673ffffffffffffffffffffffffffffffffffffffff166108fc6004549081150290604051600060405180830381858888f19350505050158015611742573d6000803e3d6000fd5b5081600760003373ffffffffffffffffffffffffffffffffffffffff1673ffffffffffffffffffffffffffffffffffffffff168152602001908152602001600020600085815260200190815260200160002060008282546117a39190612ffe565b9250508190555081600760008673ffffffffffffffffffffffffffffffffffffffff1673ffffffffffffffffffffffffffffffffffffffff1681526020019081526020016000206000858152602001908152602001600020600082825461180a9190612f1d565b925050819055508373ffffffffffffffffffffffffffffffffffffffff163373ffffffffffffffffffffffffffffffffffffffff167ffc155943a4837f932d2628406ce5e8f3f42dd6ab031108a2fcec0c68d94005ee8585604051611870929190612e77565b60405180910390a350505050565b60008054906101000a900473ffffffffffffffffffffffffffffffffffffffff1673ffffffffffffffffffffffffffffffffffffffff163373ffffffffffffffffffffffffffffffffffffffff161461190c576040517f08c379a000000000000000000000000000000000000000000000000000000000815260040161190390612d7b565b60405180910390fd5b80600260006101000a81548160ff02191690831515021790555050565b60045481565b6000600860008373ffffffffffffffffffffffffffffffffffffffff1673ffffffffffffffffffffffffffffffffffffffff168152602001908152602001600020549050919050565b600060065482106119be576040517f08c379a00000000000000000000000000000000000000000000000000000000081526004016119b590612d1b565b60405180910390fd5b600760008473ffffffffffffffffffffffffffffffffffffffff1673ffffffffffffffffffffffffffffffffffffffff168152602001908152602001600020600083815260200190815260200160002054905092915050565b60035481565b60086020528060005260406000206000915090505481565b60008054906101000a900473ffffffffffffffffffffffffffffffffffffffff1673ffffffffffffffffffffffffffffffffffffffff163373ffffffffffffffffffffffffffffffffffffffff161480611a9b5750600260009054906101000a900460ff165b611ada576040517f08c379a0000000000000000000000000000000000000000000000000000000008152600401611ad190612cfb565b60405180910390fd5b6000835111611b1e576040517f08c379a0000000000000000000000000000000000000000000000000000000008152600401611b1590612bdb565b60405180910390fd5b60008211611b61576040517f08c379a0000000000000000000000000000000000000000000000000000000008152600401611b5890612c5b565b60405180910390fd5b60008111611ba4576040517f08c379a0000000000000000000000000000000000000000000000000000000008152600401611b9b90612b5b565b60405180910390fd5b6040518060a001604052803373ffffffffffffffffffffffffffffffffffffffff1681526020018481526020018381526020018381526020018281525060056000600654815260200190815260200160002060008201518160000160006101000a81548173ffffffffffffffffffffffffffffffffffffffff021916908373ffffffffffffffffffffffffffffffffffffffff1602179055506020820151816001019080519060200190611c59929190611e12565b506040820151816002015560608201518160030155608082015181600401559050507f50c6a8b423458d44f896828d57af33000ead07320bc572c2b3d856e7a954df4b600654848484604051611cb29493929190612e2b565b60405180910390a160066000815480929190611ccd906130ee565b9190505550505050565b60606000806000806006548610611d23576040517f08c379a0000000000000000000000000000000000000000000000000000000008152600401611d1a90612d1b565b60405180910390fd5b6000600560008881526020019081526020016000209050806001018160020154826003015483600401548460000160009054906101000a900473ffffffffffffffffffffffffffffffffffffffff16848054611d7e906130bc565b80601f0160208091040260200160405190810160405280929190818152602001828054611daa906130bc565b8015611df75780601f10611dcc57610100808354040283529160200191611df7565b820191906000526020600020905b815481529060010190602001808311611dda57829003601f168201915b50505050509450955095509550955095505091939590929450565b828054611e1e906130bc565b90600052602060002090601f016020900481019282611e405760008555611e87565b82601f10611e5957805160ff1916838001178555611e87565b82800160010185558215611e87579182015b82811115611e86578251825591602001919060010190611e6b565b5b509050611e949190611e98565b5090565b5b80821115611eb1576000816000905550600101611e99565b5090565b6000611ec8611ec384612ed1565b612ea0565b905082815260208101848484011115611ee057600080fd5b611eeb84828561307a565b509392505050565b600081359050611f0281613204565b92915050565b600081359050611f178161321b565b92915050565b600082601f830112611f2e57600080fd5b8135611f3e848260208601611eb5565b91505092915050565b600081359050611f5681613232565b92915050565b600060208284031215611f6e57600080fd5b6000611f7c84828501611ef3565b91505092915050565b60008060408385031215611f9857600080fd5b6000611fa685828601611ef3565b9250506020611fb785828601611f47565b9150509250929050565b600080600060608486031215611fd657600080fd5b6000611fe486828701611ef3565b9350506020611ff586828701611f47565b925050604061200686828701611f47565b9150509250925092565b60006020828403121561202257600080fd5b600061203084828501611f08565b91505092915050565b60006020828403121561204b57600080fd5b600082013567ffffffffffffffff81111561206557600080fd5b61207184828501611f1d565b91505092915050565b60008060006060848603121561208f57600080fd5b600084013567ffffffffffffffff8111156120a957600080fd5b6120b586828701611f1d565b93505060206120c686828701611f47565b92505060406120d786828701611f47565b9150509250925092565b6000602082840312156120f357600080fd5b600061210184828501611f47565b91505092915050565b6000806040838503121561211d57600080fd5b600061212b85828601611f47565b925050602061213c85828601611f08565b9150509250929050565b6000806000806080858703121561215c57600080fd5b600061216a87828801611f47565b945050602085013567ffffffffffffffff81111561218757600080fd5b61219387828801611f1d565b93505060406121a487828801611f47565b92505060606121b587828801611f47565b91505092959194509250565b600080604083850312156121d457600080fd5b60006121e285828601611f47565b92505060206121f385828601611f47565b9150509250929050565b61220681613032565b82525050565b61221581613044565b82525050565b600061222682612f01565b6122308185612f0c565b9350612240818560208601613089565b612249816131f3565b840191505092915050565b6000612261601383612f0c565b91507f496e76616c69642070726f706f73616c204944000000000000000000000000006000830152602082019050919050565b60006122a1602483612f0c565b91507f4f6e6c7920746865206f776e65722063616e20736574206d696e696d756d207660008301527f6f746573000000000000000000000000000000000000000000000000000000006020830152604082019050919050565b6000612307602383612f0c565b91507f437265646974732073686f756c642062652067726561746572207468616e207a60008301527f65726f00000000000000000000000000000000000000000000000000000000006020830152604082019050919050565b600061236d602c83612f0c565b91507f507269636520706572206372656469742073686f756c6420626520677265617460008301527f6572207468616e207a65726f00000000000000000000000000000000000000006020830152604082019050919050565b60006123d3601983612f0c565b91507f50726f706f73616c20616c7265616479206578656375746564000000000000006000830152602082019050919050565b6000612413602383612f0c565b91507f4f6e6c7920746865206f776e65722063616e206372656174652070726f706f7360008301527f616c7300000000000000000000000000000000000000000000000000000000006020830152604082019050919050565b6000612479601e83612f0c565b91507f496e73756666696369656e74206372656469747320746f2072657469726500006000830152602082019050919050565b60006124b9601c83612f0c565b91507f50726f6a656374206e616d652063616e6e6f7420626520656d707479000000006000830152602082019050919050565b60006124f9602183612f0c565b91507f496e73756666696369656e74206372656469747320666f72207472616e73666560008301527f72000000000000000000000000000000000000000000000000000000000000006020830152604082019050919050565b600061255f602083612f0c565b91507f496e73756666696369656e74206372656469747320746f207472616e736665726000830152602082019050919050565b600061259f602483612f0c565b91507f4f6e6c7920746865206f776e65722063616e20657865637574652070726f706f60008301527f73616c73000000000000000000000000000000000000000000000000000000006020830152604082019050919050565b6000612605602983612f0c565b91507f546f74616c20637265646974732073686f756c6420626520677265617465722060008301527f7468616e207a65726f00000000000000000000000000000000000000000000006020830152604082019050919050565b600061266b602d83612f0c565b91507f4f6e6c79207468652070726f6a656374206f776e65722063616e20757064617460008301527f65207468652070726f6a656374000000000000000000000000000000000000006020830152604082019050919050565b60006126d1601483612f0c565b91507f496e73756666696369656e74207061796d656e740000000000000000000000006000830152602082019050919050565b6000612711602183612f0c565b91507f496e73756666696369656e742066656520666f7220746865207472616e73666560008301527f72000000000000000000000000000000000000000000000000000000000000006020830152604082019050919050565b6000612777603083612f0c565b91507f50726f706f73616c20646964206e6f74206d65657420746865206d696e696d7560008301527f6d20766f746573207265717569726564000000000000000000000000000000006020830152604082019050919050565b60006127dd604383612f0c565b91507f4f6e6c7920746865206f776e65722063616e2072656769737465722070726f6a60008301527f6563747320616e64206e6f6e2d6f776e65727320617265206e6f7420616c6c6f60208301527f77656400000000000000000000000000000000000000000000000000000000006040830152606082019050919050565b6000612869601283612f0c565b91507f496e76616c69642070726f6a65637420494400000000000000000000000000006000830152602082019050919050565b60006128a9601c83612f0c565b91507f4e6f7420656e6f75676820617661696c61626c652063726564697473000000006000830152602082019050919050565b60006128e9602483612f0c565b91507f50726f706f73616c206465736372697074696f6e2063616e6e6f74206265206560008301527f6d707479000000000000000000000000000000000000000000000000000000006020830152604082019050919050565b600061294f603283612f0c565b91507f4f6e6c7920746865206f776e65722063616e20746f67676c652072656769737460008301527f726174696f6e207065726d697373696f6e7300000000000000000000000000006020830152604082019050919050565b6129b181613070565b82525050565b60006020820190506129cc60008301846121fd565b92915050565b600060a0820190506129e760008301886121fd565b81810360208301526129f9818761221b565b9050612a0860408301866129a8565b612a1560608301856129a8565b612a22608083018461220c565b9695505050505050565b600060a082019050612a4160008301886121fd565b8181036020830152612a53818761221b565b9050612a6260408301866129a8565b612a6f60608301856129a8565b612a7c60808301846129a8565b9695505050505050565b6000602082019050612a9b600083018461220c565b92915050565b600060a0820190508181036000830152612abb818861221b565b9050612aca60208301876129a8565b612ad760408301866129a8565b612ae460608301856129a8565b612af160808301846121fd565b9695505050505050565b60006020820190508181036000830152612b1481612254565b9050919050565b60006020820190508181036000830152612b3481612294565b9050919050565b60006020820190508181036000830152612b54816122fa565b9050919050565b60006020820190508181036000830152612b7481612360565b9050919050565b60006020820190508181036000830152612b94816123c6565b9050919050565b60006020820190508181036000830152612bb481612406565b9050919050565b60006020820190508181036000830152612bd48161246c565b9050919050565b60006020820190508181036000830152612bf4816124ac565b9050919050565b60006020820190508181036000830152612c14816124ec565b9050919050565b60006020820190508181036000830152612c3481612552565b9050919050565b60006020820190508181036000830152612c5481612592565b9050919050565b60006020820190508181036000830152612c74816125f8565b9050919050565b60006020820190508181036000830152612c948161265e565b9050919050565b60006020820190508181036000830152612cb4816126c4565b9050919050565b60006020820190508181036000830152612cd481612704565b9050919050565b60006020820190508181036000830152612cf48161276a565b9050919050565b60006020820190508181036000830152612d14816127d0565b9050919050565b60006020820190508181036000830152612d348161285c565b9050919050565b60006020820190508181036000830152612d548161289c565b9050919050565b60006020820190508181036000830152612d74816128dc565b9050919050565b60006020820190508181036000830152612d9481612942565b9050919050565b6000602082019050612db060008301846129a8565b92915050565b6000606082019050612dcb60008301866129a8565b612dd860208301856121fd565b612de5604083018461220c565b949350505050565b6000606082019050612e0260008301866129a8565b8181036020830152612e14818561221b565b9050612e2360408301846121fd565b949350505050565b6000608082019050612e4060008301876129a8565b8181036020830152612e52818661221b565b9050612e6160408301856129a8565b612e6e60608301846129a8565b95945050505050565b6000604082019050612e8c60008301856129a8565b612e9960208301846129a8565b9392505050565b6000604051905081810181811067ffffffffffffffff82111715612ec757612ec66131c4565b5b8060405250919050565b600067ffffffffffffffff821115612eec57612eeb6131c4565b5b601f19601f8301169050602081019050919050565b600081519050919050565b600082825260208201905092915050565b6000612f2882613070565b9150612f3383613070565b9250827fffffffffffffffffffffffffffffffffffffffffffffffffffffffffffffffff03821115612f6857612f67613137565b5b828201905092915050565b6000612f7e82613070565b9150612f8983613070565b925082612f9957612f98613166565b5b828204905092915050565b6000612faf82613070565b9150612fba83613070565b9250817fffffffffffffffffffffffffffffffffffffffffffffffffffffffffffffffff0483118215151615612ff357612ff2613137565b5b828202905092915050565b600061300982613070565b915061301483613070565b92508282101561302757613026613137565b5b828203905092915050565b600061303d82613050565b9050919050565b60008115159050919050565b600073ffffffffffffffffffffffffffffffffffffffff82169050919050565b6000819050919050565b82818337600083830152505050565b60005b838110156130a757808201518184015260208101905061308c565b838111156130b6576000848401525b50505050565b600060028204905060018216806130d457607f821691505b602082108114156130e8576130e7613195565b5b50919050565b60006130f982613070565b91507fffffffffffffffffffffffffffffffffffffffffffffffffffffffffffffffff82141561312c5761312b613137565b5b600182019050919050565b7f4e487b7100000000000000000000000000000000000000000000000000000000600052601160045260246000fd5b7f4e487b7100000000000000000000000000000000000000000000000000000000600052601260045260246000fd5b7f4e487b7100000000000000000000000000000000000000000000000000000000600052602260045260246000fd5b7f4e487b7100000000000000000000000000000000000000000000000000000000600052604160045260246000fd5b6000601f19601f8301169050919050565b61320d81613032565b811461321857600080fd5b50565b61322481613044565b811461322f57600080fd5b50565b61323b81613070565b811461324657600080fd5b5056fea26469706673582212204ea0ab77550ead2ef205e00b2d4c70844f8933c6f97e1fab93abc011a4839b6864736f6c63430008000033",
					"opcodes": "PUSH1 0x80 PUSH1 0x40 MSTORE PUSH1 0x64 PUSH1 0x1 SSTORE PUSH1 0x0 PUSH1 0x2 PUSH1 0x0 PUSH2 0x100 EXP DUP2 SLOAD DUP2 PUSH1 0xFF MUL NOT AND SWAP1 DUP4 ISZERO ISZERO MUL OR SWAP1 SSTORE POP PUSH1 0x1 PUSH1 0x3 SSTORE PUSH8 0x1BC16D674EC80000 PUSH1 0x4 SSTORE CALLVALUE DUP1 ISZERO PUSH2 0x41 JUMPI PUSH1 0x0 DUP1 REVERT JUMPDEST POP CALLER PUSH1 0x0 DUP1 PUSH2 0x100 EXP DUP2 SLOAD DUP2 PUSH20 0xFFFFFFFFFFFFFFFFFFFFFFFFFFFFFFFFFFFFFFFF MUL NOT AND SWAP1 DUP4 PUSH20 0xFFFFFFFFFFFFFFFFFFFFFFFFFFFFFFFFFFFFFFFF AND MUL OR SWAP1 SSTORE POP PUSH2 0x327F DUP1 PUSH2 0x91 PUSH1 0x0 CODECOPY PUSH1 0x0 RETURN INVALID PUSH1 0x80 PUSH1 0x40 MSTORE PUSH1 0x4 CALLDATASIZE LT PUSH2 0x140 JUMPI PUSH1 0x0 CALLDATALOAD PUSH1 0xE0 SHR DUP1 PUSH4 0x84034469 GT PUSH2 0xB6 JUMPI DUP1 PUSH4 0xBACCBFDB GT PUSH2 0x6F JUMPI DUP1 PUSH4 0xBACCBFDB EQ PUSH2 0x432 JUMPI DUP1 PUSH4 0xC121CFF0 EQ PUSH2 0x46F JUMPI DUP1 PUSH4 0xC9DED404 EQ PUSH2 0x4AC JUMPI DUP1 PUSH4 0xE503BB05 EQ PUSH2 0x4D7 JUMPI DUP1 PUSH4 0xE636EB55 EQ PUSH2 0x514 JUMPI DUP1 PUSH4 0xF0F3F2C8 EQ PUSH2 0x53D JUMPI PUSH2 0x140 JUMP JUMPDEST DUP1 PUSH4 0x84034469 EQ PUSH2 0x350 JUMPI DUP1 PUSH4 0x8DA5CB5B EQ PUSH2 0x36C JUMPI DUP1 PUSH4 0xA001ECDD EQ PUSH2 0x397 JUMPI DUP1 PUSH4 0xA2F6045A EQ PUSH2 0x3C2 JUMPI DUP1 PUSH4 0xAB52A745 EQ PUSH2 0x3DE JUMPI DUP1 PUSH4 0xACB2AD6F EQ PUSH2 0x407 JUMPI PUSH2 0x140 JUMP JUMPDEST DUP1 PUSH4 0x17A483A3 GT PUSH2 0x108 JUMPI DUP1 PUSH4 0x17A483A3 EQ PUSH2 0x242 JUMPI DUP1 PUSH4 0x2F51D7CE EQ PUSH2 0x27F JUMPI DUP1 PUSH4 0x354F75E1 EQ PUSH2 0x2AA JUMPI DUP1 PUSH4 0x36FBAD26 EQ PUSH2 0x2D3 JUMPI DUP1 PUSH4 0x3EA0FB13 EQ PUSH2 0x2FE JUMPI DUP1 PUSH4 0x49C2A1A6 EQ PUSH2 0x327 JUMPI PUSH2 0x140 JUMP JUMPDEST DUP1 PUSH4 0x13CF08B EQ PUSH2 0x145 JUMPI DUP1 PUSH4 0x994C98F EQ PUSH2 0x186 JUMPI DUP1 PUSH4 0xD61B519 EQ PUSH2 0x1AF JUMPI DUP1 PUSH4 0x107046BD EQ PUSH2 0x1D8 JUMPI DUP1 PUSH4 0x1614665C EQ PUSH2 0x219 JUMPI JUMPDEST PUSH1 0x0 DUP1 REVERT JUMPDEST CALLVALUE DUP1 ISZERO PUSH2 0x151 JUMPI PUSH1 0x0 DUP1 REVERT JUMPDEST POP PUSH2 0x16C PUSH1 0x4 DUP1 CALLDATASIZE SUB DUP2 ADD SWAP1 PUSH2 0x167 SWAP2 SWAP1 PUSH2 0x20E1 JUMP JUMPDEST PUSH2 0x57E JUMP JUMPDEST PUSH1 0x40 MLOAD PUSH2 0x17D SWAP6 SWAP5 SWAP4 SWAP3 SWAP2 SWAP1 PUSH2 0x29D2 JUMP JUMPDEST PUSH1 0x40 MLOAD DUP1 SWAP2 SUB SWAP1 RETURN JUMPDEST CALLVALUE DUP1 ISZERO PUSH2 0x192 JUMPI PUSH1 0x0 DUP1 REVERT JUMPDEST POP PUSH2 0x1AD PUSH1 0x4 DUP1 CALLDATASIZE SUB DUP2 ADD SWAP1 PUSH2 0x1A8 SWAP2 SWAP1 PUSH2 0x20E1 JUMP JUMPDEST PUSH2 0x679 JUMP JUMPDEST STOP JUMPDEST CALLVALUE DUP1 ISZERO PUSH2 0x1BB JUMPI PUSH1 0x0 DUP1 REVERT JUMPDEST POP PUSH2 0x1D6 PUSH1 0x4 DUP1 CALLDATASIZE SUB DUP2 ADD SWAP1 PUSH2 0x1D1 SWAP2 SWAP1 PUSH2 0x20E1 JUMP JUMPDEST PUSH2 0x711 JUMP JUMPDEST STOP JUMPDEST CALLVALUE DUP1 ISZERO PUSH2 0x1E4 JUMPI PUSH1 0x0 DUP1 REVERT JUMPDEST POP PUSH2 0x1FF PUSH1 0x4 DUP1 CALLDATASIZE SUB DUP2 ADD SWAP1 PUSH2 0x1FA SWAP2 SWAP1 PUSH2 0x20E1 JUMP JUMPDEST PUSH2 0x925 JUMP JUMPDEST PUSH1 0x40 MLOAD PUSH2 0x210 SWAP6 SWAP5 SWAP4 SWAP3 SWAP2 SWAP1 PUSH2 0x2A2C JUMP JUMPDEST PUSH1 0x40 MLOAD DUP1 SWAP2 SUB SWAP1 RETURN JUMPDEST CALLVALUE DUP1 ISZERO PUSH2 0x225 JUMPI PUSH1 0x0 DUP1 REVERT JUMPDEST POP PUSH2 0x240 PUSH1 0x4 DUP1 CALLDATASIZE SUB DUP2 ADD SWAP1 PUSH2 0x23B SWAP2 SWAP1 PUSH2 0x210A JUMP JUMPDEST PUSH2 0xA03 JUMP JUMPDEST STOP JUMPDEST CALLVALUE DUP1 ISZERO PUSH2 0x24E JUMPI PUSH1 0x0 DUP1 REVERT JUMPDEST POP PUSH2 0x269 PUSH1 0x4 DUP1 CALLDATASIZE SUB DUP2 ADD SWAP1 PUSH2 0x264 SWAP2 SWAP1 PUSH2 0x1F85 JUMP JUMPDEST PUSH2 0xB68 JUMP JUMPDEST PUSH1 0x40 MLOAD PUSH2 0x276 SWAP2 SWAP1 PUSH2 0x2D9B JUMP JUMPDEST PUSH1 0x40 MLOAD DUP1 SWAP2 SUB SWAP1 RETURN JUMPDEST CALLVALUE DUP1 ISZERO PUSH2 0x28B JUMPI PUSH1 0x0 DUP1 REVERT JUMPDEST POP PUSH2 0x294 PUSH2 0xB8D JUMP JUMPDEST PUSH1 0x40 MLOAD PUSH2 0x2A1 SWAP2 SWAP1 PUSH2 0x2A86 JUMP JUMPDEST PUSH1 0x40 MLOAD DUP1 SWAP2 SUB SWAP1 RETURN JUMPDEST CALLVALUE DUP1 ISZERO PUSH2 0x2B6 JUMPI PUSH1 0x0 DUP1 REVERT JUMPDEST POP PUSH2 0x2D1 PUSH1 0x4 DUP1 CALLDATASIZE SUB DUP2 ADD SWAP1 PUSH2 0x2CC SWAP2 SWAP1 PUSH2 0x2146 JUMP JUMPDEST PUSH2 0xBA0 JUMP JUMPDEST STOP JUMPDEST CALLVALUE DUP1 ISZERO PUSH2 0x2DF JUMPI PUSH1 0x0 DUP1 REVERT JUMPDEST POP PUSH2 0x2E8 PUSH2 0xDCF JUMP JUMPDEST PUSH1 0x40 MLOAD PUSH2 0x2F5 SWAP2 SWAP1 PUSH2 0x2D9B JUMP JUMPDEST PUSH1 0x40 MLOAD DUP1 SWAP2 SUB SWAP1 RETURN JUMPDEST CALLVALUE DUP1 ISZERO PUSH2 0x30A JUMPI PUSH1 0x0 DUP1 REVERT JUMPDEST POP PUSH2 0x325 PUSH1 0x4 DUP1 CALLDATASIZE SUB DUP2 ADD SWAP1 PUSH2 0x320 SWAP2 SWAP1 PUSH2 0x21C1 JUMP JUMPDEST PUSH2 0xDD5 JUMP JUMPDEST STOP JUMPDEST CALLVALUE DUP1 ISZERO PUSH2 0x333 JUMPI PUSH1 0x0 DUP1 REVERT JUMPDEST POP PUSH2 0x34E PUSH1 0x4 DUP1 CALLDATASIZE SUB DUP2 ADD SWAP1 PUSH2 0x349 SWAP2 SWAP1 PUSH2 0x2039 JUMP JUMPDEST PUSH2 0xF67 JUMP JUMPDEST STOP JUMPDEST PUSH2 0x36A PUSH1 0x4 DUP1 CALLDATASIZE SUB DUP2 ADD SWAP1 PUSH2 0x365 SWAP2 SWAP1 PUSH2 0x21C1 JUMP JUMPDEST PUSH2 0x118F JUMP JUMPDEST STOP JUMPDEST CALLVALUE DUP1 ISZERO PUSH2 0x378 JUMPI PUSH1 0x0 DUP1 REVERT JUMPDEST POP PUSH2 0x381 PUSH2 0x14FC JUMP JUMPDEST PUSH1 0x40 MLOAD PUSH2 0x38E SWAP2 SWAP1 PUSH2 0x29B7 JUMP JUMPDEST PUSH1 0x40 MLOAD DUP1 SWAP2 SUB SWAP1 RETURN JUMPDEST CALLVALUE DUP1 ISZERO PUSH2 0x3A3 JUMPI PUSH1 0x0 DUP1 REVERT JUMPDEST POP PUSH2 0x3AC PUSH2 0x1520 JUMP JUMPDEST PUSH1 0x40 MLOAD PUSH2 0x3B9 SWAP2 SWAP1 PUSH2 0x2D9B JUMP JUMPDEST PUSH1 0x40 MLOAD DUP1 SWAP2 SUB SWAP1 RETURN JUMPDEST PUSH2 0x3DC PUSH1 0x4 DUP1 CALLDATASIZE SUB DUP2 ADD SWAP1 PUSH2 0x3D7 SWAP2 SWAP1 PUSH2 0x1FC1 JUMP JUMPDEST PUSH2 0x1526 JUMP JUMPDEST STOP JUMPDEST CALLVALUE DUP1 ISZERO PUSH2 0x3EA JUMPI PUSH1 0x0 DUP1 REVERT JUMPDEST POP PUSH2 0x405 PUSH1 0x4 DUP1 CALLDATASIZE SUB DUP2 ADD SWAP1 PUSH2 0x400 SWAP2 SWAP1 PUSH2 0x2010 JUMP JUMPDEST PUSH2 0x187E JUMP JUMPDEST STOP JUMPDEST CALLVALUE DUP1 ISZERO PUSH2 0x413 JUMPI PUSH1 0x0 DUP1 REVERT JUMPDEST POP PUSH2 0x41C PUSH2 0x1929 JUMP JUMPDEST PUSH1 0x40 MLOAD PUSH2 0x429 SWAP2 SWAP1 PUSH2 0x2D9B JUMP JUMPDEST PUSH1 0x40 MLOAD DUP1 SWAP2 SUB SWAP1 RETURN JUMPDEST CALLVALUE DUP1 ISZERO PUSH2 0x43E JUMPI PUSH1 0x0 DUP1 REVERT JUMPDEST POP PUSH2 0x459 PUSH1 0x4 DUP1 CALLDATASIZE SUB DUP2 ADD SWAP1 PUSH2 0x454 SWAP2 SWAP1 PUSH2 0x1F5C JUMP JUMPDEST PUSH2 0x192F JUMP JUMPDEST PUSH1 0x40 MLOAD PUSH2 0x466 SWAP2 SWAP1 PUSH2 0x2D9B JUMP JUMPDEST PUSH1 0x40 MLOAD DUP1 SWAP2 SUB SWAP1 RETURN JUMPDEST CALLVALUE DUP1 ISZERO PUSH2 0x47B JUMPI PUSH1 0x0 DUP1 REVERT JUMPDEST POP PUSH2 0x496 PUSH1 0x4 DUP1 CALLDATASIZE SUB DUP2 ADD SWAP1 PUSH2 0x491 SWAP2 SWAP1 PUSH2 0x1F85 JUMP JUMPDEST PUSH2 0x1978 JUMP JUMPDEST PUSH1 0x40 MLOAD PUSH2 0x4A3 SWAP2 SWAP1 PUSH2 0x2D9B JUMP JUMPDEST PUSH1 0x40 MLOAD DUP1 SWAP2 SUB SWAP1 RETURN JUMPDEST CALLVALUE DUP1 ISZERO PUSH2 0x4B8 JUMPI PUSH1 0x0 DUP1 REVERT JUMPDEST POP PUSH2 0x4C1 PUSH2 0x1A17 JUMP JUMPDEST PUSH1 0x40 MLOAD PUSH2 0x4CE SWAP2 SWAP1 PUSH2 0x2D9B JUMP JUMPDEST PUSH1 0x40 MLOAD DUP1 SWAP2 SUB SWAP1 RETURN JUMPDEST CALLVALUE DUP1 ISZERO PUSH2 0x4E3 JUMPI PUSH1 0x0 DUP1 REVERT JUMPDEST POP PUSH2 0x4FE PUSH1 0x4 DUP1 CALLDATASIZE SUB DUP2 ADD SWAP1 PUSH2 0x4F9 SWAP2 SWAP1 PUSH2 0x1F5C JUMP JUMPDEST PUSH2 0x1A1D JUMP JUMPDEST PUSH1 0x40 MLOAD PUSH2 0x50B SWAP2 SWAP1 PUSH2 0x2D9B JUMP JUMPDEST PUSH1 0x40 MLOAD DUP1 SWAP2 SUB SWAP1 RETURN JUMPDEST CALLVALUE DUP1 ISZERO PUSH2 0x520 JUMPI PUSH1 0x0 DUP1 REVERT JUMPDEST POP PUSH2 0x53B PUSH1 0x4 DUP1 CALLDATASIZE SUB DUP2 ADD SWAP1 PUSH2 0x536 SWAP2 SWAP1 PUSH2 0x207A JUMP JUMPDEST PUSH2 0x1A35 JUMP JUMPDEST STOP JUMPDEST CALLVALUE DUP1 ISZERO PUSH2 0x549 JUMPI PUSH1 0x0 DUP1 REVERT JUMPDEST POP PUSH2 0x564 PUSH1 0x4 DUP1 CALLDATASIZE SUB DUP2 ADD SWAP1 PUSH2 0x55F SWAP2 SWAP1 PUSH2 0x20E1 JUMP JUMPDEST PUSH2 0x1CD7 JUMP JUMPDEST PUSH1 0x40 MLOAD PUSH2 0x575 SWAP6 SWAP5 SWAP4 SWAP3 SWAP2 SWAP1 PUSH2 0x2AA1 JUMP JUMPDEST PUSH1 0x40 MLOAD DUP1 SWAP2 SUB SWAP1 RETURN JUMPDEST PUSH1 0x9 DUP2 DUP2 SLOAD DUP2 LT PUSH2 0x58E JUMPI PUSH1 0x0 DUP1 REVERT JUMPDEST SWAP1 PUSH1 0x0 MSTORE PUSH1 0x20 PUSH1 0x0 KECCAK256 SWAP1 PUSH1 0x5 MUL ADD PUSH1 0x0 SWAP2 POP SWAP1 POP DUP1 PUSH1 0x0 ADD PUSH1 0x0 SWAP1 SLOAD SWAP1 PUSH2 0x100 EXP SWAP1 DIV PUSH20 0xFFFFFFFFFFFFFFFFFFFFFFFFFFFFFFFFFFFFFFFF AND SWAP1 DUP1 PUSH1 0x1 ADD DUP1 SLOAD PUSH2 0x5D7 SWAP1 PUSH2 0x30BC JUMP JUMPDEST DUP1 PUSH1 0x1F ADD PUSH1 0x20 DUP1 SWAP2 DIV MUL PUSH1 0x20 ADD PUSH1 0x40 MLOAD SWAP1 DUP2 ADD PUSH1 0x40 MSTORE DUP1 SWAP3 SWAP2 SWAP1 DUP2 DUP2 MSTORE PUSH1 0x20 ADD DUP3 DUP1 SLOAD PUSH2 0x603 SWAP1 PUSH2 0x30BC JUMP JUMPDEST DUP1 ISZERO PUSH2 0x650 JUMPI DUP1 PUSH1 0x1F LT PUSH2 0x625 JUMPI PUSH2 0x100 DUP1 DUP4 SLOAD DIV MUL DUP4 MSTORE SWAP2 PUSH1 0x20 ADD SWAP2 PUSH2 0x650 JUMP JUMPDEST DUP3 ADD SWAP2 SWAP1 PUSH1 0x0 MSTORE PUSH1 0x20 PUSH1 0x0 KECCAK256 SWAP1 JUMPDEST DUP2 SLOAD DUP2 MSTORE SWAP1 PUSH1 0x1 ADD SWAP1 PUSH1 0x20 ADD DUP1 DUP4 GT PUSH2 0x633 JUMPI DUP3 SWAP1 SUB PUSH1 0x1F AND DUP3 ADD SWAP2 JUMPDEST POP POP POP POP POP SWAP1 DUP1 PUSH1 0x2 ADD SLOAD SWAP1 DUP1 PUSH1 0x3 ADD SLOAD SWAP1 DUP1 PUSH1 0x4 ADD PUSH1 0x0 SWAP1 SLOAD SWAP1 PUSH2 0x100 EXP SWAP1 DIV PUSH1 0xFF AND SWAP1 POP DUP6 JUMP JUMPDEST PUSH1 0x0 DUP1 SLOAD SWAP1 PUSH2 0x100 EXP SWAP1 DIV PUSH20 0xFFFFFFFFFFFFFFFFFFFFFFFFFFFFFFFFFFFFFFFF AND PUSH20 0xFFFFFFFFFFFFFFFFFFFFFFFFFFFFFFFFFFFFFFFF AND CALLER PUSH20 0xFFFFFFFFFFFFFFFFFFFFFFFFFFFFFFFFFFFFFFFF AND EQ PUSH2 0x707 JUMPI PUSH1 0x40 MLOAD PUSH32 0x8C379A000000000000000000000000000000000000000000000000000000000 DUP2 MSTORE PUSH1 0x4 ADD PUSH2 0x6FE SWAP1 PUSH2 0x2B1B JUMP JUMPDEST PUSH1 0x40 MLOAD DUP1 SWAP2 SUB SWAP1 REVERT JUMPDEST DUP1 PUSH1 0x3 DUP2 SWAP1 SSTORE POP POP JUMP JUMPDEST PUSH1 0x0 DUP1 SLOAD SWAP1 PUSH2 0x100 EXP SWAP1 DIV PUSH20 0xFFFFFFFFFFFFFFFFFFFFFFFFFFFFFFFFFFFFFFFF AND PUSH20 0xFFFFFFFFFFFFFFFFFFFFFFFFFFFFFFFFFFFFFFFF AND CALLER PUSH20 0xFFFFFFFFFFFFFFFFFFFFFFFFFFFFFFFFFFFFFFFF AND EQ PUSH2 0x79F JUMPI PUSH1 0x40 MLOAD PUSH32 0x8C379A000000000000000000000000000000000000000000000000000000000 DUP2 MSTORE PUSH1 0x4 ADD PUSH2 0x796 SWAP1 PUSH2 0x2C3B JUMP JUMPDEST PUSH1 0x40 MLOAD DUP1 SWAP2 SUB SWAP1 REVERT JUMPDEST PUSH1 0x9 DUP1 SLOAD SWAP1 POP DUP2 LT PUSH2 0x7E6 JUMPI PUSH1 0x40 MLOAD PUSH32 0x8C379A000000000000000000000000000000000000000000000000000000000 DUP2 MSTORE PUSH1 0x4 ADD PUSH2 0x7DD SWAP1 PUSH2 0x2AFB JUMP JUMPDEST PUSH1 0x40 MLOAD DUP1 SWAP2 SUB SWAP1 REVERT JUMPDEST PUSH1 0x0 PUSH1 0x9 DUP3 DUP2 SLOAD DUP2 LT PUSH2 0x822 JUMPI PUSH32 0x4E487B7100000000000000000000000000000000000000000000000000000000 PUSH1 0x0 MSTORE PUSH1 0x32 PUSH1 0x4 MSTORE PUSH1 0x24 PUSH1 0x0 REVERT JUMPDEST SWAP1 PUSH1 0x0 MSTORE PUSH1 0x20 PUSH1 0x0 KECCAK256 SWAP1 PUSH1 0x5 MUL ADD SWAP1 POP DUP1 PUSH1 0x4 ADD PUSH1 0x0 SWAP1 SLOAD SWAP1 PUSH2 0x100 EXP SWAP1 DIV PUSH1 0xFF AND ISZERO PUSH2 0x884 JUMPI PUSH1 0x40 MLOAD PUSH32 0x8C379A000000000000000000000000000000000000000000000000000000000 DUP2 MSTORE PUSH1 0x4 ADD PUSH2 0x87B SWAP1 PUSH2 0x2B7B JUMP JUMPDEST PUSH1 0x40 MLOAD DUP1 SWAP2 SUB SWAP1 REVERT JUMPDEST PUSH1 0x3 SLOAD DUP2 PUSH1 0x2 ADD SLOAD LT ISZERO PUSH2 0x8CD JUMPI PUSH1 0x40 MLOAD PUSH32 0x8C379A000000000000000000000000000000000000000000000000000000000 DUP2 MSTORE PUSH1 0x4 ADD PUSH2 0x8C4 SWAP1 PUSH2 0x2CDB JUMP JUMPDEST PUSH1 0x40 MLOAD DUP1 SWAP2 SUB SWAP1 REVERT JUMPDEST PUSH1 0x1 DUP2 PUSH1 0x4 ADD PUSH1 0x0 PUSH2 0x100 EXP DUP2 SLOAD DUP2 PUSH1 0xFF MUL NOT AND SWAP1 DUP4 ISZERO ISZERO MUL OR SWAP1 SSTORE POP PUSH32 0x712AE1383F79AC853F8D882153778E0260EF8F03B504E2866E0593E04D2B291F DUP3 PUSH1 0x40 MLOAD PUSH2 0x919 SWAP2 SWAP1 PUSH2 0x2D9B JUMP JUMPDEST PUSH1 0x40 MLOAD DUP1 SWAP2 SUB SWAP1 LOG1 POP POP JUMP JUMPDEST PUSH1 0x5 PUSH1 0x20 MSTORE DUP1 PUSH1 0x0 MSTORE PUSH1 0x40 PUSH1 0x0 KECCAK256 PUSH1 0x0 SWAP2 POP SWAP1 POP DUP1 PUSH1 0x0 ADD PUSH1 0x0 SWAP1 SLOAD SWAP1 PUSH2 0x100 EXP SWAP1 DIV PUSH20 0xFFFFFFFFFFFFFFFFFFFFFFFFFFFFFFFFFFFFFFFF AND SWAP1 DUP1 PUSH1 0x1 ADD DUP1 SLOAD PUSH2 0x96E SWAP1 PUSH2 0x30BC JUMP JUMPDEST DUP1 PUSH1 0x1F ADD PUSH1 0x20 DUP1 SWAP2 DIV MUL PUSH1 0x20 ADD PUSH1 0x40 MLOAD SWAP1 DUP2 ADD PUSH1 0x40 MSTORE DUP1 SWAP3 SWAP2 SWAP1 DUP2 DUP2 MSTORE PUSH1 0x20 ADD DUP3 DUP1 SLOAD PUSH2 0x99A SWAP1 PUSH2 0x30BC JUMP JUMPDEST DUP1 ISZERO PUSH2 0x9E7 JUMPI DUP1 PUSH1 0x1F LT PUSH2 0x9BC JUMPI PUSH2 0x100 DUP1 DUP4 SLOAD DIV MUL DUP4 MSTORE SWAP2 PUSH1 0x20 ADD SWAP2 PUSH2 0x9E7 JUMP JUMPDEST DUP3 ADD SWAP2 SWAP1 PUSH1 0x0 MSTORE PUSH1 0x20 PUSH1 0x0 KECCAK256 SWAP1 JUMPDEST DUP2 SLOAD DUP2 MSTORE SWAP1 PUSH1 0x1 ADD SWAP1 PUSH1 0x20 ADD DUP1 DUP4 GT PUSH2 0x9CA JUMPI DUP3 SWAP1 SUB PUSH1 0x1F AND DUP3 ADD SWAP2 JUMPDEST POP POP POP POP POP SWAP1 DUP1 PUSH1 0x2 ADD SLOAD SWAP1 DUP1 PUSH1 0x3 ADD SLOAD SWAP1 DUP1 PUSH1 0x4 ADD SLOAD SWAP1 POP DUP6 JUMP JUMPDEST PUSH1 0x9 DUP1 SLOAD SWAP1 POP DUP3 LT PUSH2 0xA4A JUMPI PUSH1 0x40 MLOAD PUSH32 0x8C379A000000000000000000000000000000000000000000000000000000000 DUP2 MSTORE PUSH1 0x4 ADD PUSH2 0xA41 SWAP1 PUSH2 0x2AFB JUMP JUMPDEST PUSH1 0x40 MLOAD DUP1 SWAP2 SUB SWAP1 REVERT JUMPDEST PUSH1 0x0 PUSH1 0x9 DUP4 DUP2 SLOAD DUP2 LT PUSH2 0xA86 JUMPI PUSH32 0x4E487B7100000000000000000000000000000000000000000000000000000000 PUSH1 0x0 MSTORE PUSH1 0x32 PUSH1 0x4 MSTORE PUSH1 0x24 PUSH1 0x0 REVERT JUMPDEST SWAP1 PUSH1 0x0 MSTORE PUSH1 0x20 PUSH1 0x0 KECCAK256 SWAP1 PUSH1 0x5 MUL ADD SWAP1 POP DUP1 PUSH1 0x4 ADD PUSH1 0x0 SWAP1 SLOAD SWAP1 PUSH2 0x100 EXP SWAP1 DIV PUSH1 0xFF AND ISZERO PUSH2 0xAE8 JUMPI PUSH1 0x40 MLOAD PUSH32 0x8C379A000000000000000000000000000000000000000000000000000000000 DUP2 MSTORE PUSH1 0x4 ADD PUSH2 0xADF SWAP1 PUSH2 0x2B7B JUMP JUMPDEST PUSH1 0x40 MLOAD DUP1 SWAP2 SUB SWAP1 REVERT JUMPDEST DUP2 ISZERO PUSH2 0xB0D JUMPI DUP1 PUSH1 0x2 ADD PUSH1 0x0 DUP2 SLOAD DUP1 SWAP3 SWAP2 SWAP1 PUSH2 0xB03 SWAP1 PUSH2 0x30EE JUMP JUMPDEST SWAP2 SWAP1 POP SSTORE POP PUSH2 0xB28 JUMP JUMPDEST DUP1 PUSH1 0x3 ADD PUSH1 0x0 DUP2 SLOAD DUP1 SWAP3 SWAP2 SWAP1 PUSH2 0xB22 SWAP1 PUSH2 0x30EE JUMP JUMPDEST SWAP2 SWAP1 POP SSTORE POP JUMPDEST PUSH32 0xE71FCDAC32DF1877C1700E7BDA2A03157E20993363A28FC35AC495CEFC76E4D4 DUP4 CALLER DUP5 PUSH1 0x40 MLOAD PUSH2 0xB5B SWAP4 SWAP3 SWAP2 SWAP1 PUSH2 0x2DB6 JUMP JUMPDEST PUSH1 0x40 MLOAD DUP1 SWAP2 SUB SWAP1 LOG1 POP POP POP JUMP JUMPDEST PUSH1 0x7 PUSH1 0x20 MSTORE DUP2 PUSH1 0x0 MSTORE PUSH1 0x40 PUSH1 0x0 KECCAK256 PUSH1 0x20 MSTORE DUP1 PUSH1 0x0 MSTORE PUSH1 0x40 PUSH1 0x0 KECCAK256 PUSH1 0x0 SWAP2 POP SWAP2 POP POP SLOAD DUP2 JUMP JUMPDEST PUSH1 0x2 PUSH1 0x0 SWAP1 SLOAD SWAP1 PUSH2 0x100 EXP SWAP1 DIV PUSH1 0xFF AND DUP2 JUMP JUMPDEST PUSH1 0x6 SLOAD DUP5 LT PUSH2 0xBE4 JUMPI PUSH1 0x40 MLOAD PUSH32 0x8C379A000000000000000000000000000000000000000000000000000000000 DUP2 MSTORE PUSH1 0x4 ADD PUSH2 0xBDB SWAP1 PUSH2 0x2D1B JUMP JUMPDEST PUSH1 0x40 MLOAD DUP1 SWAP2 SUB SWAP1 REVERT JUMPDEST PUSH1 0x0 PUSH1 0x5 PUSH1 0x0 DUP7 DUP2 MSTORE PUSH1 0x20 ADD SWAP1 DUP2 MSTORE PUSH1 0x20 ADD PUSH1 0x0 KECCAK256 SWAP1 POP DUP1 PUSH1 0x0 ADD PUSH1 0x0 SWAP1 SLOAD SWAP1 PUSH2 0x100 EXP SWAP1 DIV PUSH20 0xFFFFFFFFFFFFFFFFFFFFFFFFFFFFFFFFFFFFFFFF AND PUSH20 0xFFFFFFFFFFFFFFFFFFFFFFFFFFFFFFFFFFFFFFFF AND CALLER PUSH20 0xFFFFFFFFFFFFFFFFFFFFFFFFFFFFFFFFFFFFFFFF AND EQ PUSH2 0xC8D JUMPI PUSH1 0x40 MLOAD PUSH32 0x8C379A000000000000000000000000000000000000000000000000000000000 DUP2 MSTORE PUSH1 0x4 ADD PUSH2 0xC84 SWAP1 PUSH2 0x2C7B JUMP JUMPDEST PUSH1 0x40 MLOAD DUP1 SWAP2 SUB SWAP1 REVERT JUMPDEST PUSH1 0x0 DUP5 MLOAD GT PUSH2 0xCD1 JUMPI PUSH1 0x40 MLOAD PUSH32 0x8C379A000000000000000000000000000000000000000000000000000000000 DUP2 MSTORE PUSH1 0x4 ADD PUSH2 0xCC8 SWAP1 PUSH2 0x2BDB JUMP JUMPDEST PUSH1 0x40 MLOAD DUP1 SWAP2 SUB SWAP1 REVERT JUMPDEST PUSH1 0x0 DUP4 GT PUSH2 0xD14 JUMPI PUSH1 0x40 MLOAD PUSH32 0x8C379A000000000000000000000000000000000000000000000000000000000 DUP2 MSTORE PUSH1 0x4 ADD PUSH2 0xD0B SWAP1 PUSH2 0x2C5B JUMP JUMPDEST PUSH1 0x40 MLOAD DUP1 SWAP2 SUB SWAP1 REVERT JUMPDEST PUSH1 0x0 DUP3 GT PUSH2 0xD57 JUMPI PUSH1 0x40 MLOAD PUSH32 0x8C379A000000000000000000000000000000000000000000000000000000000 DUP2 MSTORE PUSH1 0x4 ADD PUSH2 0xD4E SWAP1 PUSH2 0x2B5B JUMP JUMPDEST PUSH1 0x40 MLOAD DUP1 SWAP2 SUB SWAP1 REVERT JUMPDEST DUP4 DUP2 PUSH1 0x1 ADD SWAP1 DUP1 MLOAD SWAP1 PUSH1 0x20 ADD SWAP1 PUSH2 0xD6F SWAP3 SWAP2 SWAP1 PUSH2 0x1E12 JUMP JUMPDEST POP DUP3 DUP2 PUSH1 0x2 ADD DUP2 SWAP1 SSTORE POP DUP3 DUP2 PUSH1 0x3 ADD DUP2 SWAP1 SSTORE POP DUP2 DUP2 PUSH1 0x4 ADD DUP2 SWAP1 SSTORE POP PUSH32 0x700A00C8A0CE792DAD3B7132A7A7F4A44A923F3820E64A1CA3594A073973C909 DUP6 DUP6 DUP6 DUP6 PUSH1 0x40 MLOAD PUSH2 0xDC0 SWAP5 SWAP4 SWAP3 SWAP2 SWAP1 PUSH2 0x2E2B JUMP JUMPDEST PUSH1 0x40 MLOAD DUP1 SWAP2 SUB SWAP1 LOG1 POP POP POP POP POP JUMP JUMPDEST PUSH1 0x6 SLOAD DUP2 JUMP JUMPDEST PUSH1 0x6 SLOAD DUP3 LT PUSH2 0xE19 JUMPI PUSH1 0x40 MLOAD PUSH32 0x8C379A000000000000000000000000000000000000000000000000000000000 DUP2 MSTORE PUSH1 0x4 ADD PUSH2 0xE10 SWAP1 PUSH2 0x2D1B JUMP JUMPDEST PUSH1 0x40 MLOAD DUP1 SWAP2 SUB SWAP1 REVERT JUMPDEST DUP1 PUSH1 0x7 PUSH1 0x0 CALLER PUSH20 0xFFFFFFFFFFFFFFFFFFFFFFFFFFFFFFFFFFFFFFFF AND PUSH20 0xFFFFFFFFFFFFFFFFFFFFFFFFFFFFFFFFFFFFFFFF AND DUP2 MSTORE PUSH1 0x20 ADD SWAP1 DUP2 MSTORE PUSH1 0x20 ADD PUSH1 0x0 KECCAK256 PUSH1 0x0 DUP5 DUP2 MSTORE PUSH1 0x20 ADD SWAP1 DUP2 MSTORE PUSH1 0x20 ADD PUSH1 0x0 KECCAK256 SLOAD LT ISZERO PUSH2 0xEAC JUMPI PUSH1 0x40 MLOAD PUSH32 0x8C379A000000000000000000000000000000000000000000000000000000000 DUP2 MSTORE PUSH1 0x4 ADD PUSH2 0xEA3 SWAP1 PUSH2 0x2BBB JUMP JUMPDEST PUSH1 0x40 MLOAD DUP1 SWAP2 SUB SWAP1 REVERT JUMPDEST DUP1 PUSH1 0x7 PUSH1 0x0 CALLER PUSH20 0xFFFFFFFFFFFFFFFFFFFFFFFFFFFFFFFFFFFFFFFF AND PUSH20 0xFFFFFFFFFFFFFFFFFFFFFFFFFFFFFFFFFFFFFFFF AND DUP2 MSTORE PUSH1 0x20 ADD SWAP1 DUP2 MSTORE PUSH1 0x20 ADD PUSH1 0x0 KECCAK256 PUSH1 0x0 DUP5 DUP2 MSTORE PUSH1 0x20 ADD SWAP1 DUP2 MSTORE PUSH1 0x20 ADD PUSH1 0x0 KECCAK256 PUSH1 0x0 DUP3 DUP3 SLOAD PUSH2 0xF0C SWAP2 SWAP1 PUSH2 0x2FFE JUMP JUMPDEST SWAP3 POP POP DUP2 SWAP1 SSTORE POP CALLER PUSH20 0xFFFFFFFFFFFFFFFFFFFFFFFFFFFFFFFFFFFFFFFF AND PUSH32 0x2FFD4879AF328C871CF4D2BE1D40D91F5CE4F202FD47E10E4C58D19667627DA8 DUP4 DUP4 PUSH1 0x40 MLOAD PUSH2 0xF5B SWAP3 SWAP2 SWAP1 PUSH2 0x2E77 JUMP JUMPDEST PUSH1 0x40 MLOAD DUP1 SWAP2 SUB SWAP1 LOG2 POP POP JUMP JUMPDEST PUSH1 0x0 DUP1 SLOAD SWAP1 PUSH2 0x100 EXP SWAP1 DIV PUSH20 0xFFFFFFFFFFFFFFFFFFFFFFFFFFFFFFFFFFFFFFFF AND PUSH20 0xFFFFFFFFFFFFFFFFFFFFFFFFFFFFFFFFFFFFFFFF AND CALLER PUSH20 0xFFFFFFFFFFFFFFFFFFFFFFFFFFFFFFFFFFFFFFFF AND EQ PUSH2 0xFF5 JUMPI PUSH1 0x40 MLOAD PUSH32 0x8C379A000000000000000000000000000000000000000000000000000000000 DUP2 MSTORE PUSH1 0x4 ADD PUSH2 0xFEC SWAP1 PUSH2 0x2B9B JUMP JUMPDEST PUSH1 0x40 MLOAD DUP1 SWAP2 SUB SWAP1 REVERT JUMPDEST PUSH1 0x0 DUP2 MLOAD GT PUSH2 0x1039 JUMPI PUSH1 0x40 MLOAD PUSH32 0x8C379A000000000000000000000000000000000000000000000000000000000 DUP2 MSTORE PUSH1 0x4 ADD PUSH2 0x1030 SWAP1 PUSH2 0x2D5B JUMP JUMPDEST PUSH1 0x40 MLOAD DUP1 SWAP2 SUB SWAP1 REVERT JUMPDEST PUSH1 0x9 PUSH1 0x40 MLOAD DUP1 PUSH1 0xA0 ADD PUSH1 0x40 MSTORE DUP1 CALLER PUSH20 0xFFFFFFFFFFFFFFFFFFFFFFFFFFFFFFFFFFFFFFFF AND DUP2 MSTORE PUSH1 0x20 ADD DUP4 DUP2 MSTORE PUSH1 0x20 ADD PUSH1 0x0 DUP2 MSTORE PUSH1 0x20 ADD PUSH1 0x0 DUP2 MSTORE PUSH1 0x20 ADD PUSH1 0x0 ISZERO ISZERO DUP2 MSTORE POP SWAP1 DUP1 PUSH1 0x1 DUP2 SLOAD ADD DUP1 DUP3 SSTORE DUP1 SWAP2 POP POP PUSH1 0x1 SWAP1 SUB SWAP1 PUSH1 0x0 MSTORE PUSH1 0x20 PUSH1 0x0 KECCAK256 SWAP1 PUSH1 0x5 MUL ADD PUSH1 0x0 SWAP1 SWAP2 SWAP1 SWAP2 SWAP1 SWAP2 POP PUSH1 0x0 DUP3 ADD MLOAD DUP2 PUSH1 0x0 ADD PUSH1 0x0 PUSH2 0x100 EXP DUP2 SLOAD DUP2 PUSH20 0xFFFFFFFFFFFFFFFFFFFFFFFFFFFFFFFFFFFFFFFF MUL NOT AND SWAP1 DUP4 PUSH20 0xFFFFFFFFFFFFFFFFFFFFFFFFFFFFFFFFFFFFFFFF AND MUL OR SWAP1 SSTORE POP PUSH1 0x20 DUP3 ADD MLOAD DUP2 PUSH1 0x1 ADD SWAP1 DUP1 MLOAD SWAP1 PUSH1 0x20 ADD SWAP1 PUSH2 0x1109 SWAP3 SWAP2 SWAP1 PUSH2 0x1E12 JUMP JUMPDEST POP PUSH1 0x40 DUP3 ADD MLOAD DUP2 PUSH1 0x2 ADD SSTORE PUSH1 0x60 DUP3 ADD MLOAD DUP2 PUSH1 0x3 ADD SSTORE PUSH1 0x80 DUP3 ADD MLOAD DUP2 PUSH1 0x4 ADD PUSH1 0x0 PUSH2 0x100 EXP DUP2 SLOAD DUP2 PUSH1 0xFF MUL NOT AND SWAP1 DUP4 ISZERO ISZERO MUL OR SWAP1 SSTORE POP POP POP PUSH32 0xC8C078BFEE58E5822588F08B4509ED1EB5058E03F666CCA84DD2D44BF5C288A8 PUSH1 0x1 PUSH1 0x9 DUP1 SLOAD SWAP1 POP PUSH2 0x1173 SWAP2 SWAP1 PUSH2 0x2FFE JUMP JUMPDEST DUP3 CALLER PUSH1 0x40 MLOAD PUSH2 0x1184 SWAP4 SWAP3 SWAP2 SWAP1 PUSH2 0x2DED JUMP JUMPDEST PUSH1 0x40 MLOAD DUP1 SWAP2 SUB SWAP1 LOG1 POP JUMP JUMPDEST PUSH1 0x6 SLOAD DUP3 LT PUSH2 0x11D3 JUMPI PUSH1 0x40 MLOAD PUSH32 0x8C379A000000000000000000000000000000000000000000000000000000000 DUP2 MSTORE PUSH1 0x4 ADD PUSH2 0x11CA SWAP1 PUSH2 0x2D1B JUMP JUMPDEST PUSH1 0x40 MLOAD DUP1 SWAP2 SUB SWAP1 REVERT JUMPDEST PUSH1 0x0 PUSH1 0x5 PUSH1 0x0 DUP5 DUP2 MSTORE PUSH1 0x20 ADD SWAP1 DUP2 MSTORE PUSH1 0x20 ADD PUSH1 0x0 KECCAK256 SWAP1 POP PUSH1 0x0 DUP3 GT PUSH2 0x122D JUMPI PUSH1 0x40 MLOAD PUSH32 0x8C379A000000000000000000000000000000000000000000000000000000000 DUP2 MSTORE PUSH1 0x4 ADD PUSH2 0x1224 SWAP1 PUSH2 0x2B3B JUMP JUMPDEST PUSH1 0x40 MLOAD DUP1 SWAP2 SUB SWAP1 REVERT JUMPDEST DUP1 PUSH1 0x3 ADD SLOAD DUP3 GT ISZERO PUSH2 0x1274 JUMPI PUSH1 0x40 MLOAD PUSH32 0x8C379A000000000000000000000000000000000000000000000000000000000 DUP2 MSTORE PUSH1 0x4 ADD PUSH2 0x126B SWAP1 PUSH2 0x2D3B JUMP JUMPDEST PUSH1 0x40 MLOAD DUP1 SWAP2 SUB SWAP1 REVERT JUMPDEST PUSH1 0x0 DUP2 PUSH1 0x4 ADD SLOAD DUP4 PUSH2 0x1286 SWAP2 SWAP1 PUSH2 0x2FA4 JUMP JUMPDEST SWAP1 POP DUP1 CALLVALUE LT ISZERO PUSH2 0x12CB JUMPI PUSH1 0x40 MLOAD PUSH32 0x8C379A000000000000000000000000000000000000000000000000000000000 DUP2 MSTORE PUSH1 0x4 ADD PUSH2 0x12C2 SWAP1 PUSH2 0x2C9B JUMP JUMPDEST PUSH1 0x40 MLOAD DUP1 SWAP2 SUB SWAP1 REVERT JUMPDEST PUSH1 0x0 PUSH2 0x2710 PUSH1 0x1 SLOAD DUP4 PUSH2 0x12DE SWAP2 SWAP1 PUSH2 0x2FA4 JUMP JUMPDEST PUSH2 0x12E8 SWAP2 SWAP1 PUSH2 0x2F73 JUMP JUMPDEST SWAP1 POP PUSH1 0x0 DUP2 DUP4 PUSH2 0x12F8 SWAP2 SWAP1 PUSH2 0x2FFE JUMP JUMPDEST SWAP1 POP DUP5 DUP5 PUSH1 0x3 ADD PUSH1 0x0 DUP3 DUP3 SLOAD PUSH2 0x130E SWAP2 SWAP1 PUSH2 0x2FFE JUMP JUMPDEST SWAP3 POP POP DUP2 SWAP1 SSTORE POP DUP5 PUSH1 0x7 PUSH1 0x0 CALLER PUSH20 0xFFFFFFFFFFFFFFFFFFFFFFFFFFFFFFFFFFFFFFFF AND PUSH20 0xFFFFFFFFFFFFFFFFFFFFFFFFFFFFFFFFFFFFFFFF AND DUP2 MSTORE PUSH1 0x20 ADD SWAP1 DUP2 MSTORE PUSH1 0x20 ADD PUSH1 0x0 KECCAK256 PUSH1 0x0 DUP9 DUP2 MSTORE PUSH1 0x20 ADD SWAP1 DUP2 MSTORE PUSH1 0x20 ADD PUSH1 0x0 KECCAK256 PUSH1 0x0 DUP3 DUP3 SLOAD PUSH2 0x1375 SWAP2 SWAP1 PUSH2 0x2F1D JUMP JUMPDEST SWAP3 POP POP DUP2 SWAP1 SSTORE POP DUP5 PUSH1 0x8 PUSH1 0x0 CALLER PUSH20 0xFFFFFFFFFFFFFFFFFFFFFFFFFFFFFFFFFFFFFFFF AND PUSH20 0xFFFFFFFFFFFFFFFFFFFFFFFFFFFFFFFFFFFFFFFF AND DUP2 MSTORE PUSH1 0x20 ADD SWAP1 DUP2 MSTORE PUSH1 0x20 ADD PUSH1 0x0 KECCAK256 PUSH1 0x0 DUP3 DUP3 SLOAD PUSH2 0x13CB SWAP2 SWAP1 PUSH2 0x2F1D JUMP JUMPDEST SWAP3 POP POP DUP2 SWAP1 SSTORE POP DUP4 PUSH1 0x0 ADD PUSH1 0x0 SWAP1 SLOAD SWAP1 PUSH2 0x100 EXP SWAP1 DIV PUSH20 0xFFFFFFFFFFFFFFFFFFFFFFFFFFFFFFFFFFFFFFFF AND PUSH20 0xFFFFFFFFFFFFFFFFFFFFFFFFFFFFFFFFFFFFFFFF AND PUSH2 0x8FC DUP3 SWAP1 DUP2 ISZERO MUL SWAP1 PUSH1 0x40 MLOAD PUSH1 0x0 PUSH1 0x40 MLOAD DUP1 DUP4 SUB DUP2 DUP6 DUP9 DUP9 CALL SWAP4 POP POP POP POP ISZERO DUP1 ISZERO PUSH2 0x143C JUMPI RETURNDATASIZE PUSH1 0x0 DUP1 RETURNDATACOPY RETURNDATASIZE PUSH1 0x0 REVERT JUMPDEST POP PUSH1 0x0 DUP1 SLOAD SWAP1 PUSH2 0x100 EXP SWAP1 DIV PUSH20 0xFFFFFFFFFFFFFFFFFFFFFFFFFFFFFFFFFFFFFFFF AND PUSH20 0xFFFFFFFFFFFFFFFFFFFFFFFFFFFFFFFFFFFFFFFF AND PUSH2 0x8FC DUP4 SWAP1 DUP2 ISZERO MUL SWAP1 PUSH1 0x40 MLOAD PUSH1 0x0 PUSH1 0x40 MLOAD DUP1 DUP4 SUB DUP2 DUP6 DUP9 DUP9 CALL SWAP4 POP POP POP POP ISZERO DUP1 ISZERO PUSH2 0x14A3 JUMPI RETURNDATASIZE PUSH1 0x0 DUP1 RETURNDATACOPY RETURNDATASIZE PUSH1 0x0 REVERT JUMPDEST POP CALLER PUSH20 0xFFFFFFFFFFFFFFFFFFFFFFFFFFFFFFFFFFFFFFFF AND PUSH32 0xFB82FC1C5ADF84899709E87563B69DD5F4AC33320F1C60DBCA744BEC717EB90F DUP8 DUP8 PUSH1 0x40 MLOAD PUSH2 0x14EC SWAP3 SWAP2 SWAP1 PUSH2 0x2E77 JUMP JUMPDEST PUSH1 0x40 MLOAD DUP1 SWAP2 SUB SWAP1 LOG2 POP POP POP POP POP POP JUMP JUMPDEST PUSH1 0x0 DUP1 SLOAD SWAP1 PUSH2 0x100 EXP SWAP1 DIV PUSH20 0xFFFFFFFFFFFFFFFFFFFFFFFFFFFFFFFFFFFFFFFF AND DUP2 JUMP JUMPDEST PUSH1 0x1 SLOAD DUP2 JUMP JUMPDEST PUSH1 0x6 SLOAD DUP3 LT PUSH2 0x156A JUMPI PUSH1 0x40 MLOAD PUSH32 0x8C379A000000000000000000000000000000000000000000000000000000000 DUP2 MSTORE PUSH1 0x4 ADD PUSH2 0x1561 SWAP1 PUSH2 0x2D1B JUMP JUMPDEST PUSH1 0x40 MLOAD DUP1 SWAP2 SUB SWAP1 REVERT JUMPDEST DUP1 PUSH1 0x7 PUSH1 0x0 CALLER PUSH20 0xFFFFFFFFFFFFFFFFFFFFFFFFFFFFFFFFFFFFFFFF AND PUSH20 0xFFFFFFFFFFFFFFFFFFFFFFFFFFFFFFFFFFFFFFFF AND DUP2 MSTORE PUSH1 0x20 ADD SWAP1 DUP2 MSTORE PUSH1 0x20 ADD PUSH1 0x0 KECCAK256 PUSH1 0x0 DUP5 DUP2 MSTORE PUSH1 0x20 ADD SWAP1 DUP2 MSTORE PUSH1 0x20 ADD PUSH1 0x0 KECCAK256 SLOAD LT ISZERO PUSH2 0x15FD JUMPI PUSH1 0x40 MLOAD PUSH32 0x8C379A000000000000000000000000000000000000000000000000000000000 DUP2 MSTORE PUSH1 0x4 ADD PUSH2 0x15F4 SWAP1 PUSH2 0x2C1B JUMP JUMPDEST PUSH1 0x40 MLOAD DUP1 SWAP2 SUB SWAP1 REVERT JUMPDEST PUSH1 0x4 SLOAD CALLVALUE LT ISZERO PUSH2 0x1642 JUMPI PUSH1 0x40 MLOAD PUSH32 0x8C379A000000000000000000000000000000000000000000000000000000000 DUP2 MSTORE PUSH1 0x4 ADD PUSH2 0x1639 SWAP1 PUSH2 0x2CBB JUMP JUMPDEST PUSH1 0x40 MLOAD DUP1 SWAP2 SUB SWAP1 REVERT JUMPDEST PUSH1 0x0 PUSH1 0x7 PUSH1 0x0 CALLER PUSH20 0xFFFFFFFFFFFFFFFFFFFFFFFFFFFFFFFFFFFFFFFF AND PUSH20 0xFFFFFFFFFFFFFFFFFFFFFFFFFFFFFFFFFFFFFFFF AND DUP2 MSTORE PUSH1 0x20 ADD SWAP1 DUP2 MSTORE PUSH1 0x20 ADD PUSH1 0x0 KECCAK256 PUSH1 0x0 DUP5 DUP2 MSTORE PUSH1 0x20 ADD SWAP1 DUP2 MSTORE PUSH1 0x20 ADD PUSH1 0x0 KECCAK256 SLOAD SWAP1 POP DUP2 DUP2 LT ISZERO PUSH2 0x16DA JUMPI PUSH1 0x40 MLOAD PUSH32 0x8C379A000000000000000000000000000000000000000000000000000000000 DUP2 MSTORE PUSH1 0x4 ADD PUSH2 0x16D1 SWAP1 PUSH2 0x2BFB JUMP JUMPDEST PUSH1 0x40 MLOAD DUP1 SWAP2 SUB SWAP1 REVERT JUMPDEST PUSH1 0x0 DUP1 SLOAD SWAP1 PUSH2 0x100 EXP SWAP1 DIV PUSH20 0xFFFFFFFFFFFFFFFFFFFFFFFFFFFFFFFFFFFFFFFF AND PUSH20 0xFFFFFFFFFFFFFFFFFFFFFFFFFFFFFFFFFFFFFFFF AND PUSH2 0x8FC PUSH1 0x4 SLOAD SWAP1 DUP2 ISZERO MUL SWAP1 PUSH1 0x40 MLOAD PUSH1 0x0 PUSH1 0x40 MLOAD DUP1 DUP4 SUB DUP2 DUP6 DUP9 DUP9 CALL SWAP4 POP POP POP POP ISZERO DUP1 ISZERO PUSH2 0x1742 JUMPI RETURNDATASIZE PUSH1 0x0 DUP1 RETURNDATACOPY RETURNDATASIZE PUSH1 0x0 REVERT JUMPDEST POP DUP2 PUSH1 0x7 PUSH1 0x0 CALLER PUSH20 0xFFFFFFFFFFFFFFFFFFFFFFFFFFFFFFFFFFFFFFFF AND PUSH20 0xFFFFFFFFFFFFFFFFFFFFFFFFFFFFFFFFFFFFFFFF AND DUP2 MSTORE PUSH1 0x20 ADD SWAP1 DUP2 MSTORE PUSH1 0x20 ADD PUSH1 0x0 KECCAK256 PUSH1 0x0 DUP6 DUP2 MSTORE PUSH1 0x20 ADD SWAP1 DUP2 MSTORE PUSH1 0x20 ADD PUSH1 0x0 KECCAK256 PUSH1 0x0 DUP3 DUP3 SLOAD PUSH2 0x17A3 SWAP2 SWAP1 PUSH2 0x2FFE JUMP JUMPDEST SWAP3 POP POP DUP2 SWAP1 SSTORE POP DUP2 PUSH1 0x7 PUSH1 0x0 DUP7 PUSH20 0xFFFFFFFFFFFFFFFFFFFFFFFFFFFFFFFFFFFFFFFF AND PUSH20 0xFFFFFFFFFFFFFFFFFFFFFFFFFFFFFFFFFFFFFFFF AND DUP2 MSTORE PUSH1 0x20 ADD SWAP1 DUP2 MSTORE PUSH1 0x20 ADD PUSH1 0x0 KECCAK256 PUSH1 0x0 DUP6 DUP2 MSTORE PUSH1 0x20 ADD SWAP1 DUP2 MSTORE PUSH1 0x20 ADD PUSH1 0x0 KECCAK256 PUSH1 0x0 DUP3 DUP3 SLOAD PUSH2 0x180A SWAP2 SWAP1 PUSH2 0x2F1D JUMP JUMPDEST SWAP3 POP POP DUP2 SWAP1 SSTORE POP DUP4 PUSH20 0xFFFFFFFFFFFFFFFFFFFFFFFFFFFFFFFFFFFFFFFF AND CALLER PUSH20 0xFFFFFFFFFFFFFFFFFFFFFFFFFFFFFFFFFFFFFFFF AND PUSH32 0xFC155943A4837F932D2628406CE5E8F3F42DD6AB031108A2FCEC0C68D94005EE DUP6 DUP6 PUSH1 0x40 MLOAD PUSH2 0x1870 SWAP3 SWAP2 SWAP1 PUSH2 0x2E77 JUMP JUMPDEST PUSH1 0x40 MLOAD DUP1 SWAP2 SUB SWAP1 LOG3 POP POP POP POP JUMP JUMPDEST PUSH1 0x0 DUP1 SLOAD SWAP1 PUSH2 0x100 EXP SWAP1 DIV PUSH20 0xFFFFFFFFFFFFFFFFFFFFFFFFFFFFFFFFFFFFFFFF AND PUSH20 0xFFFFFFFFFFFFFFFFFFFFFFFFFFFFFFFFFFFFFFFF AND CALLER PUSH20 0xFFFFFFFFFFFFFFFFFFFFFFFFFFFFFFFFFFFFFFFF AND EQ PUSH2 0x190C JUMPI PUSH1 0x40 MLOAD PUSH32 0x8C379A000000000000000000000000000000000000000000000000000000000 DUP2 MSTORE PUSH1 0x4 ADD PUSH2 0x1903 SWAP1 PUSH2 0x2D7B JUMP JUMPDEST PUSH1 0x40 MLOAD DUP1 SWAP2 SUB SWAP1 REVERT JUMPDEST DUP1 PUSH1 0x2 PUSH1 0x0 PUSH2 0x100 EXP DUP2 SLOAD DUP2 PUSH1 0xFF MUL NOT AND SWAP1 DUP4 ISZERO ISZERO MUL OR SWAP1 SSTORE POP POP JUMP JUMPDEST PUSH1 0x4 SLOAD DUP2 JUMP JUMPDEST PUSH1 0x0 PUSH1 0x8 PUSH1 0x0 DUP4 PUSH20 0xFFFFFFFFFFFFFFFFFFFFFFFFFFFFFFFFFFFFFFFF AND PUSH20 0xFFFFFFFFFFFFFFFFFFFFFFFFFFFFFFFFFFFFFFFF AND DUP2 MSTORE PUSH1 0x20 ADD SWAP1 DUP2 MSTORE PUSH1 0x20 ADD PUSH1 0x0 KECCAK256 SLOAD SWAP1 POP SWAP2 SWAP1 POP JUMP JUMPDEST PUSH1 0x0 PUSH1 0x6 SLOAD DUP3 LT PUSH2 0x19BE JUMPI PUSH1 0x40 MLOAD PUSH32 0x8C379A000000000000000000000000000000000000000000000000000000000 DUP2 MSTORE PUSH1 0x4 ADD PUSH2 0x19B5 SWAP1 PUSH2 0x2D1B JUMP JUMPDEST PUSH1 0x40 MLOAD DUP1 SWAP2 SUB SWAP1 REVERT JUMPDEST PUSH1 0x7 PUSH1 0x0 DUP5 PUSH20 0xFFFFFFFFFFFFFFFFFFFFFFFFFFFFFFFFFFFFFFFF AND PUSH20 0xFFFFFFFFFFFFFFFFFFFFFFFFFFFFFFFFFFFFFFFF AND DUP2 MSTORE PUSH1 0x20 ADD SWAP1 DUP2 MSTORE PUSH1 0x20 ADD PUSH1 0x0 KECCAK256 PUSH1 0x0 DUP4 DUP2 MSTORE PUSH1 0x20 ADD SWAP1 DUP2 MSTORE PUSH1 0x20 ADD PUSH1 0x0 KECCAK256 SLOAD SWAP1 POP SWAP3 SWAP2 POP POP JUMP JUMPDEST PUSH1 0x3 SLOAD DUP2 JUMP JUMPDEST PUSH1 0x8 PUSH1 0x20 MSTORE DUP1 PUSH1 0x0 MSTORE PUSH1 0x40 PUSH1 0x0 KECCAK256 PUSH1 0x0 SWAP2 POP SWAP1 POP SLOAD DUP2 JUMP JUMPDEST PUSH1 0x0 DUP1 SLOAD SWAP1 PUSH2 0x100 EXP SWAP1 DIV PUSH20 0xFFFFFFFFFFFFFFFFFFFFFFFFFFFFFFFFFFFFFFFF AND PUSH20 0xFFFFFFFFFFFFFFFFFFFFFFFFFFFFFFFFFFFFFFFF AND CALLER PUSH20 0xFFFFFFFFFFFFFFFFFFFFFFFFFFFFFFFFFFFFFFFF AND EQ DUP1 PUSH2 0x1A9B JUMPI POP PUSH1 0x2 PUSH1 0x0 SWAP1 SLOAD SWAP1 PUSH2 0x100 EXP SWAP1 DIV PUSH1 0xFF AND JUMPDEST PUSH2 0x1ADA JUMPI PUSH1 0x40 MLOAD PUSH32 0x8C379A000000000000000000000000000000000000000000000000000000000 DUP2 MSTORE PUSH1 0x4 ADD PUSH2 0x1AD1 SWAP1 PUSH2 0x2CFB JUMP JUMPDEST PUSH1 0x40 MLOAD DUP1 SWAP2 SUB SWAP1 REVERT JUMPDEST PUSH1 0x0 DUP4 MLOAD GT PUSH2 0x1B1E JUMPI PUSH1 0x40 MLOAD PUSH32 0x8C379A000000000000000000000000000000000000000000000000000000000 DUP2 MSTORE PUSH1 0x4 ADD PUSH2 0x1B15 SWAP1 PUSH2 0x2BDB JUMP JUMPDEST PUSH1 0x40 MLOAD DUP1 SWAP2 SUB SWAP1 REVERT JUMPDEST PUSH1 0x0 DUP3 GT PUSH2 0x1B61 JUMPI PUSH1 0x40 MLOAD PUSH32 0x8C379A000000000000000000000000000000000000000000000000000000000 DUP2 MSTORE PUSH1 0x4 ADD PUSH2 0x1B58 SWAP1 PUSH2 0x2C5B JUMP JUMPDEST PUSH1 0x40 MLOAD DUP1 SWAP2 SUB SWAP1 REVERT JUMPDEST PUSH1 0x0 DUP2 GT PUSH2 0x1BA4 JUMPI PUSH1 0x40 MLOAD PUSH32 0x8C379A000000000000000000000000000000000000000000000000000000000 DUP2 MSTORE PUSH1 0x4 ADD PUSH2 0x1B9B SWAP1 PUSH2 0x2B5B JUMP JUMPDEST PUSH1 0x40 MLOAD DUP1 SWAP2 SUB SWAP1 REVERT JUMPDEST PUSH1 0x40 MLOAD DUP1 PUSH1 0xA0 ADD PUSH1 0x40 MSTORE DUP1 CALLER PUSH20 0xFFFFFFFFFFFFFFFFFFFFFFFFFFFFFFFFFFFFFFFF AND DUP2 MSTORE PUSH1 0x20 ADD DUP5 DUP2 MSTORE PUSH1 0x20 ADD DUP4 DUP2 MSTORE PUSH1 0x20 ADD DUP4 DUP2 MSTORE PUSH1 0x20 ADD DUP3 DUP2 MSTORE POP PUSH1 0x5 PUSH1 0x0 PUSH1 0x6 SLOAD DUP2 MSTORE PUSH1 0x20 ADD SWAP1 DUP2 MSTORE PUSH1 0x20 ADD PUSH1 0x0 KECCAK256 PUSH1 0x0 DUP3 ADD MLOAD DUP2 PUSH1 0x0 ADD PUSH1 0x0 PUSH2 0x100 EXP DUP2 SLOAD DUP2 PUSH20 0xFFFFFFFFFFFFFFFFFFFFFFFFFFFFFFFFFFFFFFFF MUL NOT AND SWAP1 DUP4 PUSH20 0xFFFFFFFFFFFFFFFFFFFFFFFFFFFFFFFFFFFFFFFF AND MUL OR SWAP1 SSTORE POP PUSH1 0x20 DUP3 ADD MLOAD DUP2 PUSH1 0x1 ADD SWAP1 DUP1 MLOAD SWAP1 PUSH1 0x20 ADD SWAP1 PUSH2 0x1C59 SWAP3 SWAP2 SWAP1 PUSH2 0x1E12 JUMP JUMPDEST POP PUSH1 0x40 DUP3 ADD MLOAD DUP2 PUSH1 0x2 ADD SSTORE PUSH1 0x60 DUP3 ADD MLOAD DUP2 PUSH1 0x3 ADD SSTORE PUSH1 0x80 DUP3 ADD MLOAD DUP2 PUSH1 0x4 ADD SSTORE SWAP1 POP POP PUSH32 0x50C6A8B423458D44F896828D57AF33000EAD07320BC572C2B3D856E7A954DF4B PUSH1 0x6 SLOAD DUP5 DUP5 DUP5 PUSH1 0x40 MLOAD PUSH2 0x1CB2 SWAP5 SWAP4 SWAP3 SWAP2 SWAP1 PUSH2 0x2E2B JUMP JUMPDEST PUSH1 0x40 MLOAD DUP1 SWAP2 SUB SWAP1 LOG1 PUSH1 0x6 PUSH1 0x0 DUP2 SLOAD DUP1 SWAP3 SWAP2 SWAP1 PUSH2 0x1CCD SWAP1 PUSH2 0x30EE JUMP JUMPDEST SWAP2 SWAP1 POP SSTORE POP POP POP POP JUMP JUMPDEST PUSH1 0x60 PUSH1 0x0 DUP1 PUSH1 0x0 DUP1 PUSH1 0x6 SLOAD DUP7 LT PUSH2 0x1D23 JUMPI PUSH1 0x40 MLOAD PUSH32 0x8C379A000000000000000000000000000000000000000000000000000000000 DUP2 MSTORE PUSH1 0x4 ADD PUSH2 0x1D1A SWAP1 PUSH2 0x2D1B JUMP JUMPDEST PUSH1 0x40 MLOAD DUP1 SWAP2 SUB SWAP1 REVERT JUMPDEST PUSH1 0x0 PUSH1 0x5 PUSH1 0x0 DUP9 DUP2 MSTORE PUSH1 0x20 ADD SWAP1 DUP2 MSTORE PUSH1 0x20 ADD PUSH1 0x0 KECCAK256 SWAP1 POP DUP1 PUSH1 0x1 ADD DUP2 PUSH1 0x2 ADD SLOAD DUP3 PUSH1 0x3 ADD SLOAD DUP4 PUSH1 0x4 ADD SLOAD DUP5 PUSH1 0x0 ADD PUSH1 0x0 SWAP1 SLOAD SWAP1 PUSH2 0x100 EXP SWAP1 DIV PUSH20 0xFFFFFFFFFFFFFFFFFFFFFFFFFFFFFFFFFFFFFFFF AND DUP5 DUP1 SLOAD PUSH2 0x1D7E SWAP1 PUSH2 0x30BC JUMP JUMPDEST DUP1 PUSH1 0x1F ADD PUSH1 0x20 DUP1 SWAP2 DIV MUL PUSH1 0x20 ADD PUSH1 0x40 MLOAD SWAP1 DUP2 ADD PUSH1 0x40 MSTORE DUP1 SWAP3 SWAP2 SWAP1 DUP2 DUP2 MSTORE PUSH1 0x20 ADD DUP3 DUP1 SLOAD PUSH2 0x1DAA SWAP1 PUSH2 0x30BC JUMP JUMPDEST DUP1 ISZERO PUSH2 0x1DF7 JUMPI DUP1 PUSH1 0x1F LT PUSH2 0x1DCC JUMPI PUSH2 0x100 DUP1 DUP4 SLOAD DIV MUL DUP4 MSTORE SWAP2 PUSH1 0x20 ADD SWAP2 PUSH2 0x1DF7 JUMP JUMPDEST DUP3 ADD SWAP2 SWAP1 PUSH1 0x0 MSTORE PUSH1 0x20 PUSH1 0x0 KECCAK256 SWAP1 JUMPDEST DUP2 SLOAD DUP2 MSTORE SWAP1 PUSH1 0x1 ADD SWAP1 PUSH1 0x20 ADD DUP1 DUP4 GT PUSH2 0x1DDA JUMPI DUP3 SWAP1 SUB PUSH1 0x1F AND DUP3 ADD SWAP2 JUMPDEST POP POP POP POP POP SWAP5 POP SWAP6 POP SWAP6 POP SWAP6 POP SWAP6 POP SWAP6 POP POP SWAP2 SWAP4 SWAP6 SWAP1 SWAP3 SWAP5 POP JUMP JUMPDEST DUP3 DUP1 SLOAD PUSH2 0x1E1E SWAP1 PUSH2 0x30BC JUMP JUMPDEST SWAP1 PUSH1 0x0 MSTORE PUSH1 0x20 PUSH1 0x0 KECCAK256 SWAP1 PUSH1 0x1F ADD PUSH1 0x20 SWAP1 DIV DUP2 ADD SWAP3 DUP3 PUSH2 0x1E40 JUMPI PUSH1 0x0 DUP6 SSTORE PUSH2 0x1E87 JUMP JUMPDEST DUP3 PUSH1 0x1F LT PUSH2 0x1E59 JUMPI DUP1 MLOAD PUSH1 0xFF NOT AND DUP4 DUP1 ADD OR DUP6 SSTORE PUSH2 0x1E87 JUMP JUMPDEST DUP3 DUP1 ADD PUSH1 0x1 ADD DUP6 SSTORE DUP3 ISZERO PUSH2 0x1E87 JUMPI SWAP2 DUP3 ADD JUMPDEST DUP3 DUP2 GT ISZERO PUSH2 0x1E86 JUMPI DUP3 MLOAD DUP3 SSTORE SWAP2 PUSH1 0x20 ADD SWAP2 SWAP1 PUSH1 0x1 ADD SWAP1 PUSH2 0x1E6B JUMP JUMPDEST JUMPDEST POP SWAP1 POP PUSH2 0x1E94 SWAP2 SWAP1 PUSH2 0x1E98 JUMP JUMPDEST POP SWAP1 JUMP JUMPDEST JUMPDEST DUP1 DUP3 GT ISZERO PUSH2 0x1EB1 JUMPI PUSH1 0x0 DUP2 PUSH1 0x0 SWAP1 SSTORE POP PUSH1 0x1 ADD PUSH2 0x1E99 JUMP JUMPDEST POP SWAP1 JUMP JUMPDEST PUSH1 0x0 PUSH2 0x1EC8 PUSH2 0x1EC3 DUP5 PUSH2 0x2ED1 JUMP JUMPDEST PUSH2 0x2EA0 JUMP JUMPDEST SWAP1 POP DUP3 DUP2 MSTORE PUSH1 0x20 DUP2 ADD DUP5 DUP5 DUP5 ADD GT ISZERO PUSH2 0x1EE0 JUMPI PUSH1 0x0 DUP1 REVERT JUMPDEST PUSH2 0x1EEB DUP5 DUP3 DUP6 PUSH2 0x307A JUMP JUMPDEST POP SWAP4 SWAP3 POP POP POP JUMP JUMPDEST PUSH1 0x0 DUP2 CALLDATALOAD SWAP1 POP PUSH2 0x1F02 DUP2 PUSH2 0x3204 JUMP JUMPDEST SWAP3 SWAP2 POP POP JUMP JUMPDEST PUSH1 0x0 DUP2 CALLDATALOAD SWAP1 POP PUSH2 0x1F17 DUP2 PUSH2 0x321B JUMP JUMPDEST SWAP3 SWAP2 POP POP JUMP JUMPDEST PUSH1 0x0 DUP3 PUSH1 0x1F DUP4 ADD SLT PUSH2 0x1F2E JUMPI PUSH1 0x0 DUP1 REVERT JUMPDEST DUP2 CALLDATALOAD PUSH2 0x1F3E DUP5 DUP3 PUSH1 0x20 DUP7 ADD PUSH2 0x1EB5 JUMP JUMPDEST SWAP2 POP POP SWAP3 SWAP2 POP POP JUMP JUMPDEST PUSH1 0x0 DUP2 CALLDATALOAD SWAP1 POP PUSH2 0x1F56 DUP2 PUSH2 0x3232 JUMP JUMPDEST SWAP3 SWAP2 POP POP JUMP JUMPDEST PUSH1 0x0 PUSH1 0x20 DUP3 DUP5 SUB SLT ISZERO PUSH2 0x1F6E JUMPI PUSH1 0x0 DUP1 REVERT JUMPDEST PUSH1 0x0 PUSH2 0x1F7C DUP5 DUP3 DUP6 ADD PUSH2 0x1EF3 JUMP JUMPDEST SWAP2 POP POP SWAP3 SWAP2 POP POP JUMP JUMPDEST PUSH1 0x0 DUP1 PUSH1 0x40 DUP4 DUP6 SUB SLT ISZERO PUSH2 0x1F98 JUMPI PUSH1 0x0 DUP1 REVERT JUMPDEST PUSH1 0x0 PUSH2 0x1FA6 DUP6 DUP3 DUP7 ADD PUSH2 0x1EF3 JUMP JUMPDEST SWAP3 POP POP PUSH1 0x20 PUSH2 0x1FB7 DUP6 DUP3 DUP7 ADD PUSH2 0x1F47 JUMP JUMPDEST SWAP2 POP POP SWAP3 POP SWAP3 SWAP1 POP JUMP JUMPDEST PUSH1 0x0 DUP1 PUSH1 0x0 PUSH1 0x60 DUP5 DUP7 SUB SLT ISZERO PUSH2 0x1FD6 JUMPI PUSH1 0x0 DUP1 REVERT JUMPDEST PUSH1 0x0 PUSH2 0x1FE4 DUP7 DUP3 DUP8 ADD PUSH2 0x1EF3 JUMP JUMPDEST SWAP4 POP POP PUSH1 0x20 PUSH2 0x1FF5 DUP7 DUP3 DUP8 ADD PUSH2 0x1F47 JUMP JUMPDEST SWAP3 POP POP PUSH1 0x40 PUSH2 0x2006 DUP7 DUP3 DUP8 ADD PUSH2 0x1F47 JUMP JUMPDEST SWAP2 POP POP SWAP3 POP SWAP3 POP SWAP3 JUMP JUMPDEST PUSH1 0x0 PUSH1 0x20 DUP3 DUP5 SUB SLT ISZERO PUSH2 0x2022 JUMPI PUSH1 0x0 DUP1 REVERT JUMPDEST PUSH1 0x0 PUSH2 0x2030 DUP5 DUP3 DUP6 ADD PUSH2 0x1F08 JUMP JUMPDEST SWAP2 POP POP SWAP3 SWAP2 POP POP JUMP JUMPDEST PUSH1 0x0 PUSH1 0x20 DUP3 DUP5 SUB SLT ISZERO PUSH2 0x204B JUMPI PUSH1 0x0 DUP1 REVERT JUMPDEST PUSH1 0x0 DUP3 ADD CALLDATALOAD PUSH8 0xFFFFFFFFFFFFFFFF DUP2 GT ISZERO PUSH2 0x2065 JUMPI PUSH1 0x0 DUP1 REVERT JUMPDEST PUSH2 0x2071 DUP5 DUP3 DUP6 ADD PUSH2 0x1F1D JUMP JUMPDEST SWAP2 POP POP SWAP3 SWAP2 POP POP JUMP JUMPDEST PUSH1 0x0 DUP1 PUSH1 0x0 PUSH1 0x60 DUP5 DUP7 SUB SLT ISZERO PUSH2 0x208F JUMPI PUSH1 0x0 DUP1 REVERT JUMPDEST PUSH1 0x0 DUP5 ADD CALLDATALOAD PUSH8 0xFFFFFFFFFFFFFFFF DUP2 GT ISZERO PUSH2 0x20A9 JUMPI PUSH1 0x0 DUP1 REVERT JUMPDEST PUSH2 0x20B5 DUP7 DUP3 DUP8 ADD PUSH2 0x1F1D JUMP JUMPDEST SWAP4 POP POP PUSH1 0x20 PUSH2 0x20C6 DUP7 DUP3 DUP8 ADD PUSH2 0x1F47 JUMP JUMPDEST SWAP3 POP POP PUSH1 0x40 PUSH2 0x20D7 DUP7 DUP3 DUP8 ADD PUSH2 0x1F47 JUMP JUMPDEST SWAP2 POP POP SWAP3 POP SWAP3 POP SWAP3 JUMP JUMPDEST PUSH1 0x0 PUSH1 0x20 DUP3 DUP5 SUB SLT ISZERO PUSH2 0x20F3 JUMPI PUSH1 0x0 DUP1 REVERT JUMPDEST PUSH1 0x0 PUSH2 0x2101 DUP5 DUP3 DUP6 ADD PUSH2 0x1F47 JUMP JUMPDEST SWAP2 POP POP SWAP3 SWAP2 POP POP JUMP JUMPDEST PUSH1 0x0 DUP1 PUSH1 0x40 DUP4 DUP6 SUB SLT ISZERO PUSH2 0x211D JUMPI PUSH1 0x0 DUP1 REVERT JUMPDEST PUSH1 0x0 PUSH2 0x212B DUP6 DUP3 DUP7 ADD PUSH2 0x1F47 JUMP JUMPDEST SWAP3 POP POP PUSH1 0x20 PUSH2 0x213C DUP6 DUP3 DUP7 ADD PUSH2 0x1F08 JUMP JUMPDEST SWAP2 POP POP SWAP3 POP SWAP3 SWAP1 POP JUMP JUMPDEST PUSH1 0x0 DUP1 PUSH1 0x0 DUP1 PUSH1 0x80 DUP6 DUP8 SUB SLT ISZERO PUSH2 0x215C JUMPI PUSH1 0x0 DUP1 REVERT JUMPDEST PUSH1 0x0 PUSH2 0x216A DUP8 DUP3 DUP9 ADD PUSH2 0x1F47 JUMP JUMPDEST SWAP5 POP POP PUSH1 0x20 DUP6 ADD CALLDATALOAD PUSH8 0xFFFFFFFFFFFFFFFF DUP2 GT ISZERO PUSH2 0x2187 JUMPI PUSH1 0x0 DUP1 REVERT JUMPDEST PUSH2 0x2193 DUP8 DUP3 DUP9 ADD PUSH2 0x1F1D JUMP JUMPDEST SWAP4 POP POP PUSH1 0x40 PUSH2 0x21A4 DUP8 DUP3 DUP9 ADD PUSH2 0x1F47 JUMP JUMPDEST SWAP3 POP POP PUSH1 0x60 PUSH2 0x21B5 DUP8 DUP3 DUP9 ADD PUSH2 0x1F47 JUMP JUMPDEST SWAP2 POP POP SWAP3 SWAP6 SWAP2 SWAP5 POP SWAP3 POP JUMP JUMPDEST PUSH1 0x0 DUP1 PUSH1 0x40 DUP4 DUP6 SUB SLT ISZERO PUSH2 0x21D4 JUMPI PUSH1 0x0 DUP1 REVERT JUMPDEST PUSH1 0x0 PUSH2 0x21E2 DUP6 DUP3 DUP7 ADD PUSH2 0x1F47 JUMP JUMPDEST SWAP3 POP POP PUSH1 0x20 PUSH2 0x21F3 DUP6 DUP3 DUP7 ADD PUSH2 0x1F47 JUMP JUMPDEST SWAP2 POP POP SWAP3 POP SWAP3 SWAP1 POP JUMP JUMPDEST PUSH2 0x2206 DUP2 PUSH2 0x3032 JUMP JUMPDEST DUP3 MSTORE POP POP JUMP JUMPDEST PUSH2 0x2215 DUP2 PUSH2 0x3044 JUMP JUMPDEST DUP3 MSTORE POP POP JUMP JUMPDEST PUSH1 0x0 PUSH2 0x2226 DUP3 PUSH2 0x2F01 JUMP JUMPDEST PUSH2 0x2230 DUP2 DUP6 PUSH2 0x2F0C JUMP JUMPDEST SWAP4 POP PUSH2 0x2240 DUP2 DUP6 PUSH1 0x20 DUP7 ADD PUSH2 0x3089 JUMP JUMPDEST PUSH2 0x2249 DUP2 PUSH2 0x31F3 JUMP JUMPDEST DUP5 ADD SWAP2 POP POP SWAP3 SWAP2 POP POP JUMP JUMPDEST PUSH1 0x0 PUSH2 0x2261 PUSH1 0x13 DUP4 PUSH2 0x2F0C JUMP JUMPDEST SWAP2 POP PUSH32 0x496E76616C69642070726F706F73616C20494400000000000000000000000000 PUSH1 0x0 DUP4 ADD MSTORE PUSH1 0x20 DUP3 ADD SWAP1 POP SWAP2 SWAP1 POP JUMP JUMPDEST PUSH1 0x0 PUSH2 0x22A1 PUSH1 0x24 DUP4 PUSH2 0x2F0C JUMP JUMPDEST SWAP2 POP PUSH32 0x4F6E6C7920746865206F776E65722063616E20736574206D696E696D756D2076 PUSH1 0x0 DUP4 ADD MSTORE PUSH32 0x6F74657300000000000000000000000000000000000000000000000000000000 PUSH1 0x20 DUP4 ADD MSTORE PUSH1 0x40 DUP3 ADD SWAP1 POP SWAP2 SWAP1 POP JUMP JUMPDEST PUSH1 0x0 PUSH2 0x2307 PUSH1 0x23 DUP4 PUSH2 0x2F0C JUMP JUMPDEST SWAP2 POP PUSH32 0x437265646974732073686F756C642062652067726561746572207468616E207A PUSH1 0x0 DUP4 ADD MSTORE PUSH32 0x65726F0000000000000000000000000000000000000000000000000000000000 PUSH1 0x20 DUP4 ADD MSTORE PUSH1 0x40 DUP3 ADD SWAP1 POP SWAP2 SWAP1 POP JUMP JUMPDEST PUSH1 0x0 PUSH2 0x236D PUSH1 0x2C DUP4 PUSH2 0x2F0C JUMP JUMPDEST SWAP2 POP PUSH32 0x507269636520706572206372656469742073686F756C64206265206772656174 PUSH1 0x0 DUP4 ADD MSTORE PUSH32 0x6572207468616E207A65726F0000000000000000000000000000000000000000 PUSH1 0x20 DUP4 ADD MSTORE PUSH1 0x40 DUP3 ADD SWAP1 POP SWAP2 SWAP1 POP JUMP JUMPDEST PUSH1 0x0 PUSH2 0x23D3 PUSH1 0x19 DUP4 PUSH2 0x2F0C JUMP JUMPDEST SWAP2 POP PUSH32 0x50726F706F73616C20616C726561647920657865637574656400000000000000 PUSH1 0x0 DUP4 ADD MSTORE PUSH1 0x20 DUP3 ADD SWAP1 POP SWAP2 SWAP1 POP JUMP JUMPDEST PUSH1 0x0 PUSH2 0x2413 PUSH1 0x23 DUP4 PUSH2 0x2F0C JUMP JUMPDEST SWAP2 POP PUSH32 0x4F6E6C7920746865206F776E65722063616E206372656174652070726F706F73 PUSH1 0x0 DUP4 ADD MSTORE PUSH32 0x616C730000000000000000000000000000000000000000000000000000000000 PUSH1 0x20 DUP4 ADD MSTORE PUSH1 0x40 DUP3 ADD SWAP1 POP SWAP2 SWAP1 POP JUMP JUMPDEST PUSH1 0x0 PUSH2 0x2479 PUSH1 0x1E DUP4 PUSH2 0x2F0C JUMP JUMPDEST SWAP2 POP PUSH32 0x496E73756666696369656E74206372656469747320746F207265746972650000 PUSH1 0x0 DUP4 ADD MSTORE PUSH1 0x20 DUP3 ADD SWAP1 POP SWAP2 SWAP1 POP JUMP JUMPDEST PUSH1 0x0 PUSH2 0x24B9 PUSH1 0x1C DUP4 PUSH2 0x2F0C JUMP JUMPDEST SWAP2 POP PUSH32 0x50726F6A656374206E616D652063616E6E6F7420626520656D70747900000000 PUSH1 0x0 DUP4 ADD MSTORE PUSH1 0x20 DUP3 ADD SWAP1 POP SWAP2 SWAP1 POP JUMP JUMPDEST PUSH1 0x0 PUSH2 0x24F9 PUSH1 0x21 DUP4 PUSH2 0x2F0C JUMP JUMPDEST SWAP2 POP PUSH32 0x496E73756666696369656E74206372656469747320666F72207472616E736665 PUSH1 0x0 DUP4 ADD MSTORE PUSH32 0x7200000000000000000000000000000000000000000000000000000000000000 PUSH1 0x20 DUP4 ADD MSTORE PUSH1 0x40 DUP3 ADD SWAP1 POP SWAP2 SWAP1 POP JUMP JUMPDEST PUSH1 0x0 PUSH2 0x255F PUSH1 0x20 DUP4 PUSH2 0x2F0C JUMP JUMPDEST SWAP2 POP PUSH32 0x496E73756666696369656E74206372656469747320746F207472616E73666572 PUSH1 0x0 DUP4 ADD MSTORE PUSH1 0x20 DUP3 ADD SWAP1 POP SWAP2 SWAP1 POP JUMP JUMPDEST PUSH1 0x0 PUSH2 0x259F PUSH1 0x24 DUP4 PUSH2 0x2F0C JUMP JUMPDEST SWAP2 POP PUSH32 0x4F6E6C7920746865206F776E65722063616E20657865637574652070726F706F PUSH1 0x0 DUP4 ADD MSTORE PUSH32 0x73616C7300000000000000000000000000000000000000000000000000000000 PUSH1 0x20 DUP4 ADD MSTORE PUSH1 0x40 DUP3 ADD SWAP1 POP SWAP2 SWAP1 POP JUMP JUMPDEST PUSH1 0x0 PUSH2 0x2605 PUSH1 0x29 DUP4 PUSH2 0x2F0C JUMP JUMPDEST SWAP2 POP PUSH32 0x546F74616C20637265646974732073686F756C64206265206772656174657220 PUSH1 0x0 DUP4 ADD MSTORE PUSH32 0x7468616E207A65726F0000000000000000000000000000000000000000000000 PUSH1 0x20 DUP4 ADD MSTORE PUSH1 0x40 DUP3 ADD SWAP1 POP SWAP2 SWAP1 POP JUMP JUMPDEST PUSH1 0x0 PUSH2 0x266B PUSH1 0x2D DUP4 PUSH2 0x2F0C JUMP JUMPDEST SWAP2 POP PUSH32 0x4F6E6C79207468652070726F6A656374206F776E65722063616E207570646174 PUSH1 0x0 DUP4 ADD MSTORE PUSH32 0x65207468652070726F6A65637400000000000000000000000000000000000000 PUSH1 0x20 DUP4 ADD MSTORE PUSH1 0x40 DUP3 ADD SWAP1 POP SWAP2 SWAP1 POP JUMP JUMPDEST PUSH1 0x0 PUSH2 0x26D1 PUSH1 0x14 DUP4 PUSH2 0x2F0C JUMP JUMPDEST SWAP2 POP PUSH32 0x496E73756666696369656E74207061796D656E74000000000000000000000000 PUSH1 0x0 DUP4 ADD MSTORE PUSH1 0x20 DUP3 ADD SWAP1 POP SWAP2 SWAP1 POP JUMP JUMPDEST PUSH1 0x0 PUSH2 0x2711 PUSH1 0x21 DUP4 PUSH2 0x2F0C JUMP JUMPDEST SWAP2 POP PUSH32 0x496E73756666696369656E742066656520666F7220746865207472616E736665 PUSH1 0x0 DUP4 ADD MSTORE PUSH32 0x7200000000000000000000000000000000000000000000000000000000000000 PUSH1 0x20 DUP4 ADD MSTORE PUSH1 0x40 DUP3 ADD SWAP1 POP SWAP2 SWAP1 POP JUMP JUMPDEST PUSH1 0x0 PUSH2 0x2777 PUSH1 0x30 DUP4 PUSH2 0x2F0C JUMP JUMPDEST SWAP2 POP PUSH32 0x50726F706F73616C20646964206E6F74206D65657420746865206D696E696D75 PUSH1 0x0 DUP4 ADD MSTORE PUSH32 0x6D20766F74657320726571756972656400000000000000000000000000000000 PUSH1 0x20 DUP4 ADD MSTORE PUSH1 0x40 DUP3 ADD SWAP1 POP SWAP2 SWAP1 POP JUMP JUMPDEST PUSH1 0x0 PUSH2 0x27DD PUSH1 0x43 DUP4 PUSH2 0x2F0C JUMP JUMPDEST SWAP2 POP PUSH32 0x4F6E6C7920746865206F776E65722063616E2072656769737465722070726F6A PUSH1 0x0 DUP4 ADD MSTORE PUSH32 0x6563747320616E64206E6F6E2D6F776E65727320617265206E6F7420616C6C6F PUSH1 0x20 DUP4 ADD MSTORE PUSH32 0x7765640000000000000000000000000000000000000000000000000000000000 PUSH1 0x40 DUP4 ADD MSTORE PUSH1 0x60 DUP3 ADD SWAP1 POP SWAP2 SWAP1 POP JUMP JUMPDEST PUSH1 0x0 PUSH2 0x2869 PUSH1 0x12 DUP4 PUSH2 0x2F0C JUMP JUMPDEST SWAP2 POP PUSH32 0x496E76616C69642070726F6A6563742049440000000000000000000000000000 PUSH1 0x0 DUP4 ADD MSTORE PUSH1 0x20 DUP3 ADD SWAP1 POP SWAP2 SWAP1 POP JUMP JUMPDEST PUSH1 0x0 PUSH2 0x28A9 PUSH1 0x1C DUP4 PUSH2 0x2F0C JUMP JUMPDEST SWAP2 POP PUSH32 0x4E6F7420656E6F75676820617661696C61626C65206372656469747300000000 PUSH1 0x0 DUP4 ADD MSTORE PUSH1 0x20 DUP3 ADD SWAP1 POP SWAP2 SWAP1 POP JUMP JUMPDEST PUSH1 0x0 PUSH2 0x28E9 PUSH1 0x24 DUP4 PUSH2 0x2F0C JUMP JUMPDEST SWAP2 POP PUSH32 0x50726F706F73616C206465736372697074696F6E2063616E6E6F742062652065 PUSH1 0x0 DUP4 ADD MSTORE PUSH32 0x6D70747900000000000000000000000000000000000000000000000000000000 PUSH1 0x20 DUP4 ADD MSTORE PUSH1 0x40 DUP3 ADD SWAP1 POP SWAP2 SWAP1 POP JUMP JUMPDEST PUSH1 0x0 PUSH2 0x294F PUSH1 0x32 DUP4 PUSH2 0x2F0C JUMP JUMPDEST SWAP2 POP PUSH32 0x4F6E6C7920746865206F776E65722063616E20746F67676C6520726567697374 PUSH1 0x0 DUP4 ADD MSTORE PUSH32 0x726174696F6E207065726D697373696F6E730000000000000000000000000000 PUSH1 0x20 DUP4 ADD MSTORE PUSH1 0x40 DUP3 ADD SWAP1 POP SWAP2 SWAP1 POP JUMP JUMPDEST PUSH2 0x29B1 DUP2 PUSH2 0x3070 JUMP JUMPDEST DUP3 MSTORE POP POP JUMP JUMPDEST PUSH1 0x0 PUSH1 0x20 DUP3 ADD SWAP1 POP PUSH2 0x29CC PUSH1 0x0 DUP4 ADD DUP5 PUSH2 0x21FD JUMP JUMPDEST SWAP3 SWAP2 POP POP JUMP JUMPDEST PUSH1 0x0 PUSH1 0xA0 DUP3 ADD SWAP1 POP PUSH2 0x29E7 PUSH1 0x0 DUP4 ADD DUP9 PUSH2 0x21FD JUMP JUMPDEST DUP2 DUP2 SUB PUSH1 0x20 DUP4 ADD MSTORE PUSH2 0x29F9 DUP2 DUP8 PUSH2 0x221B JUMP JUMPDEST SWAP1 POP PUSH2 0x2A08 PUSH1 0x40 DUP4 ADD DUP7 PUSH2 0x29A8 JUMP JUMPDEST PUSH2 0x2A15 PUSH1 0x60 DUP4 ADD DUP6 PUSH2 0x29A8 JUMP JUMPDEST PUSH2 0x2A22 PUSH1 0x80 DUP4 ADD DUP5 PUSH2 0x220C JUMP JUMPDEST SWAP7 SWAP6 POP POP POP POP POP POP JUMP JUMPDEST PUSH1 0x0 PUSH1 0xA0 DUP3 ADD SWAP1 POP PUSH2 0x2A41 PUSH1 0x0 DUP4 ADD DUP9 PUSH2 0x21FD JUMP JUMPDEST DUP2 DUP2 SUB PUSH1 0x20 DUP4 ADD MSTORE PUSH2 0x2A53 DUP2 DUP8 PUSH2 0x221B JUMP JUMPDEST SWAP1 POP PUSH2 0x2A62 PUSH1 0x40 DUP4 ADD DUP7 PUSH2 0x29A8 JUMP JUMPDEST PUSH2 0x2A6F PUSH1 0x60 DUP4 ADD DUP6 PUSH2 0x29A8 JUMP JUMPDEST PUSH2 0x2A7C PUSH1 0x80 DUP4 ADD DUP5 PUSH2 0x29A8 JUMP JUMPDEST SWAP7 SWAP6 POP POP POP POP POP POP JUMP JUMPDEST PUSH1 0x0 PUSH1 0x20 DUP3 ADD SWAP1 POP PUSH2 0x2A9B PUSH1 0x0 DUP4 ADD DUP5 PUSH2 0x220C JUMP JUMPDEST SWAP3 SWAP2 POP POP JUMP JUMPDEST PUSH1 0x0 PUSH1 0xA0 DUP3 ADD SWAP1 POP DUP2 DUP2 SUB PUSH1 0x0 DUP4 ADD MSTORE PUSH2 0x2ABB DUP2 DUP9 PUSH2 0x221B JUMP JUMPDEST SWAP1 POP PUSH2 0x2ACA PUSH1 0x20 DUP4 ADD DUP8 PUSH2 0x29A8 JUMP JUMPDEST PUSH2 0x2AD7 PUSH1 0x40 DUP4 ADD DUP7 PUSH2 0x29A8 JUMP JUMPDEST PUSH2 0x2AE4 PUSH1 0x60 DUP4 ADD DUP6 PUSH2 0x29A8 JUMP JUMPDEST PUSH2 0x2AF1 PUSH1 0x80 DUP4 ADD DUP5 PUSH2 0x21FD JUMP JUMPDEST SWAP7 SWAP6 POP POP POP POP POP POP JUMP JUMPDEST PUSH1 0x0 PUSH1 0x20 DUP3 ADD SWAP1 POP DUP2 DUP2 SUB PUSH1 0x0 DUP4 ADD MSTORE PUSH2 0x2B14 DUP2 PUSH2 0x2254 JUMP JUMPDEST SWAP1 POP SWAP2 SWAP1 POP JUMP JUMPDEST PUSH1 0x0 PUSH1 0x20 DUP3 ADD SWAP1 POP DUP2 DUP2 SUB PUSH1 0x0 DUP4 ADD MSTORE PUSH2 0x2B34 DUP2 PUSH2 0x2294 JUMP JUMPDEST SWAP1 POP SWAP2 SWAP1 POP JUMP JUMPDEST PUSH1 0x0 PUSH1 0x20 DUP3 ADD SWAP1 POP DUP2 DUP2 SUB PUSH1 0x0 DUP4 ADD MSTORE PUSH2 0x2B54 DUP2 PUSH2 0x22FA JUMP JUMPDEST SWAP1 POP SWAP2 SWAP1 POP JUMP JUMPDEST PUSH1 0x0 PUSH1 0x20 DUP3 ADD SWAP1 POP DUP2 DUP2 SUB PUSH1 0x0 DUP4 ADD MSTORE PUSH2 0x2B74 DUP2 PUSH2 0x2360 JUMP JUMPDEST SWAP1 POP SWAP2 SWAP1 POP JUMP JUMPDEST PUSH1 0x0 PUSH1 0x20 DUP3 ADD SWAP1 POP DUP2 DUP2 SUB PUSH1 0x0 DUP4 ADD MSTORE PUSH2 0x2B94 DUP2 PUSH2 0x23C6 JUMP JUMPDEST SWAP1 POP SWAP2 SWAP1 POP JUMP JUMPDEST PUSH1 0x0 PUSH1 0x20 DUP3 ADD SWAP1 POP DUP2 DUP2 SUB PUSH1 0x0 DUP4 ADD MSTORE PUSH2 0x2BB4 DUP2 PUSH2 0x2406 JUMP JUMPDEST SWAP1 POP SWAP2 SWAP1 POP JUMP JUMPDEST PUSH1 0x0 PUSH1 0x20 DUP3 ADD SWAP1 POP DUP2 DUP2 SUB PUSH1 0x0 DUP4 ADD MSTORE PUSH2 0x2BD4 DUP2 PUSH2 0x246C JUMP JUMPDEST SWAP1 POP SWAP2 SWAP1 POP JUMP JUMPDEST PUSH1 0x0 PUSH1 0x20 DUP3 ADD SWAP1 POP DUP2 DUP2 SUB PUSH1 0x0 DUP4 ADD MSTORE PUSH2 0x2BF4 DUP2 PUSH2 0x24AC JUMP JUMPDEST SWAP1 POP SWAP2 SWAP1 POP JUMP JUMPDEST PUSH1 0x0 PUSH1 0x20 DUP3 ADD SWAP1 POP DUP2 DUP2 SUB PUSH1 0x0 DUP4 ADD MSTORE PUSH2 0x2C14 DUP2 PUSH2 0x24EC JUMP JUMPDEST SWAP1 POP SWAP2 SWAP1 POP JUMP JUMPDEST PUSH1 0x0 PUSH1 0x20 DUP3 ADD SWAP1 POP DUP2 DUP2 SUB PUSH1 0x0 DUP4 ADD MSTORE PUSH2 0x2C34 DUP2 PUSH2 0x2552 JUMP JUMPDEST SWAP1 POP SWAP2 SWAP1 POP JUMP JUMPDEST PUSH1 0x0 PUSH1 0x20 DUP3 ADD SWAP1 POP DUP2 DUP2 SUB PUSH1 0x0 DUP4 ADD MSTORE PUSH2 0x2C54 DUP2 PUSH2 0x2592 JUMP JUMPDEST SWAP1 POP SWAP2 SWAP1 POP JUMP JUMPDEST PUSH1 0x0 PUSH1 0x20 DUP3 ADD SWAP1 POP DUP2 DUP2 SUB PUSH1 0x0 DUP4 ADD MSTORE PUSH2 0x2C74 DUP2 PUSH2 0x25F8 JUMP JUMPDEST SWAP1 POP SWAP2 SWAP1 POP JUMP JUMPDEST PUSH1 0x0 PUSH1 0x20 DUP3 ADD SWAP1 POP DUP2 DUP2 SUB PUSH1 0x0 DUP4 ADD MSTORE PUSH2 0x2C94 DUP2 PUSH2 0x265E JUMP JUMPDEST SWAP1 POP SWAP2 SWAP1 POP JUMP JUMPDEST PUSH1 0x0 PUSH1 0x20 DUP3 ADD SWAP1 POP DUP2 DUP2 SUB PUSH1 0x0 DUP4 ADD MSTORE PUSH2 0x2CB4 DUP2 PUSH2 0x26C4 JUMP JUMPDEST SWAP1 POP SWAP2 SWAP1 POP JUMP JUMPDEST PUSH1 0x0 PUSH1 0x20 DUP3 ADD SWAP1 POP DUP2 DUP2 SUB PUSH1 0x0 DUP4 ADD MSTORE PUSH2 0x2CD4 DUP2 PUSH2 0x2704 JUMP JUMPDEST SWAP1 POP SWAP2 SWAP1 POP JUMP JUMPDEST PUSH1 0x0 PUSH1 0x20 DUP3 ADD SWAP1 POP DUP2 DUP2 SUB PUSH1 0x0 DUP4 ADD MSTORE PUSH2 0x2CF4 DUP2 PUSH2 0x276A JUMP JUMPDEST SWAP1 POP SWAP2 SWAP1 POP JUMP JUMPDEST PUSH1 0x0 PUSH1 0x20 DUP3 ADD SWAP1 POP DUP2 DUP2 SUB PUSH1 0x0 DUP4 ADD MSTORE PUSH2 0x2D14 DUP2 PUSH2 0x27D0 JUMP JUMPDEST SWAP1 POP SWAP2 SWAP1 POP JUMP JUMPDEST PUSH1 0x0 PUSH1 0x20 DUP3 ADD SWAP1 POP DUP2 DUP2 SUB PUSH1 0x0 DUP4 ADD MSTORE PUSH2 0x2D34 DUP2 PUSH2 0x285C JUMP JUMPDEST SWAP1 POP SWAP2 SWAP1 POP JUMP JUMPDEST PUSH1 0x0 PUSH1 0x20 DUP3 ADD SWAP1 POP DUP2 DUP2 SUB PUSH1 0x0 DUP4 ADD MSTORE PUSH2 0x2D54 DUP2 PUSH2 0x289C JUMP JUMPDEST SWAP1 POP SWAP2 SWAP1 POP JUMP JUMPDEST PUSH1 0x0 PUSH1 0x20 DUP3 ADD SWAP1 POP DUP2 DUP2 SUB PUSH1 0x0 DUP4 ADD MSTORE PUSH2 0x2D74 DUP2 PUSH2 0x28DC JUMP JUMPDEST SWAP1 POP SWAP2 SWAP1 POP JUMP JUMPDEST PUSH1 0x0 PUSH1 0x20 DUP3 ADD SWAP1 POP DUP2 DUP2 SUB PUSH1 0x0 DUP4 ADD MSTORE PUSH2 0x2D94 DUP2 PUSH2 0x2942 JUMP JUMPDEST SWAP1 POP SWAP2 SWAP1 POP JUMP JUMPDEST PUSH1 0x0 PUSH1 0x20 DUP3 ADD SWAP1 POP PUSH2 0x2DB0 PUSH1 0x0 DUP4 ADD DUP5 PUSH2 0x29A8 JUMP JUMPDEST SWAP3 SWAP2 POP POP JUMP JUMPDEST PUSH1 0x0 PUSH1 0x60 DUP3 ADD SWAP1 POP PUSH2 0x2DCB PUSH1 0x0 DUP4 ADD DUP7 PUSH2 0x29A8 JUMP JUMPDEST PUSH2 0x2DD8 PUSH1 0x20 DUP4 ADD DUP6 PUSH2 0x21FD JUMP JUMPDEST PUSH2 0x2DE5 PUSH1 0x40 DUP4 ADD DUP5 PUSH2 0x220C JUMP JUMPDEST SWAP5 SWAP4 POP POP POP POP JUMP JUMPDEST PUSH1 0x0 PUSH1 0x60 DUP3 ADD SWAP1 POP PUSH2 0x2E02 PUSH1 0x0 DUP4 ADD DUP7 PUSH2 0x29A8 JUMP JUMPDEST DUP2 DUP2 SUB PUSH1 0x20 DUP4 ADD MSTORE PUSH2 0x2E14 DUP2 DUP6 PUSH2 0x221B JUMP JUMPDEST SWAP1 POP PUSH2 0x2E23 PUSH1 0x40 DUP4 ADD DUP5 PUSH2 0x21FD JUMP JUMPDEST SWAP5 SWAP4 POP POP POP POP JUMP JUMPDEST PUSH1 0x0 PUSH1 0x80 DUP3 ADD SWAP1 POP PUSH2 0x2E40 PUSH1 0x0 DUP4 ADD DUP8 PUSH2 0x29A8 JUMP JUMPDEST DUP2 DUP2 SUB PUSH1 0x20 DUP4 ADD MSTORE PUSH2 0x2E52 DUP2 DUP7 PUSH2 0x221B JUMP JUMPDEST SWAP1 POP PUSH2 0x2E61 PUSH1 0x40 DUP4 ADD DUP6 PUSH2 0x29A8 JUMP JUMPDEST PUSH2 0x2E6E PUSH1 0x60 DUP4 ADD DUP5 PUSH2 0x29A8 JUMP JUMPDEST SWAP6 SWAP5 POP POP POP POP POP JUMP JUMPDEST PUSH1 0x0 PUSH1 0x40 DUP3 ADD SWAP1 POP PUSH2 0x2E8C PUSH1 0x0 DUP4 ADD DUP6 PUSH2 0x29A8 JUMP JUMPDEST PUSH2 0x2E99 PUSH1 0x20 DUP4 ADD DUP5 PUSH2 0x29A8 JUMP JUMPDEST SWAP4 SWAP3 POP POP POP JUMP JUMPDEST PUSH1 0x0 PUSH1 0x40 MLOAD SWAP1 POP DUP2 DUP2 ADD DUP2 DUP2 LT PUSH8 0xFFFFFFFFFFFFFFFF DUP3 GT OR ISZERO PUSH2 0x2EC7 JUMPI PUSH2 0x2EC6 PUSH2 0x31C4 JUMP JUMPDEST JUMPDEST DUP1 PUSH1 0x40 MSTORE POP SWAP2 SWAP1 POP JUMP JUMPDEST PUSH1 0x0 PUSH8 0xFFFFFFFFFFFFFFFF DUP3 GT ISZERO PUSH2 0x2EEC JUMPI PUSH2 0x2EEB PUSH2 0x31C4 JUMP JUMPDEST JUMPDEST PUSH1 0x1F NOT PUSH1 0x1F DUP4 ADD AND SWAP1 POP PUSH1 0x20 DUP2 ADD SWAP1 POP SWAP2 SWAP1 POP JUMP JUMPDEST PUSH1 0x0 DUP2 MLOAD SWAP1 POP SWAP2 SWAP1 POP JUMP JUMPDEST PUSH1 0x0 DUP3 DUP3 MSTORE PUSH1 0x20 DUP3 ADD SWAP1 POP SWAP3 SWAP2 POP POP JUMP JUMPDEST PUSH1 0x0 PUSH2 0x2F28 DUP3 PUSH2 0x3070 JUMP JUMPDEST SWAP2 POP PUSH2 0x2F33 DUP4 PUSH2 0x3070 JUMP JUMPDEST SWAP3 POP DUP3 PUSH32 0xFFFFFFFFFFFFFFFFFFFFFFFFFFFFFFFFFFFFFFFFFFFFFFFFFFFFFFFFFFFFFFFF SUB DUP3 GT ISZERO PUSH2 0x2F68 JUMPI PUSH2 0x2F67 PUSH2 0x3137 JUMP JUMPDEST JUMPDEST DUP3 DUP3 ADD SWAP1 POP SWAP3 SWAP2 POP POP JUMP JUMPDEST PUSH1 0x0 PUSH2 0x2F7E DUP3 PUSH2 0x3070 JUMP JUMPDEST SWAP2 POP PUSH2 0x2F89 DUP4 PUSH2 0x3070 JUMP JUMPDEST SWAP3 POP DUP3 PUSH2 0x2F99 JUMPI PUSH2 0x2F98 PUSH2 0x3166 JUMP JUMPDEST JUMPDEST DUP3 DUP3 DIV SWAP1 POP SWAP3 SWAP2 POP POP JUMP JUMPDEST PUSH1 0x0 PUSH2 0x2FAF DUP3 PUSH2 0x3070 JUMP JUMPDEST SWAP2 POP PUSH2 0x2FBA DUP4 PUSH2 0x3070 JUMP JUMPDEST SWAP3 POP DUP2 PUSH32 0xFFFFFFFFFFFFFFFFFFFFFFFFFFFFFFFFFFFFFFFFFFFFFFFFFFFFFFFFFFFFFFFF DIV DUP4 GT DUP3 ISZERO ISZERO AND ISZERO PUSH2 0x2FF3 JUMPI PUSH2 0x2FF2 PUSH2 0x3137 JUMP JUMPDEST JUMPDEST DUP3 DUP3 MUL SWAP1 POP SWAP3 SWAP2 POP POP JUMP JUMPDEST PUSH1 0x0 PUSH2 0x3009 DUP3 PUSH2 0x3070 JUMP JUMPDEST SWAP2 POP PUSH2 0x3014 DUP4 PUSH2 0x3070 JUMP JUMPDEST SWAP3 POP DUP3 DUP3 LT ISZERO PUSH2 0x3027 JUMPI PUSH2 0x3026 PUSH2 0x3137 JUMP JUMPDEST JUMPDEST DUP3 DUP3 SUB SWAP1 POP SWAP3 SWAP2 POP POP JUMP JUMPDEST PUSH1 0x0 PUSH2 0x303D DUP3 PUSH2 0x3050 JUMP JUMPDEST SWAP1 POP SWAP2 SWAP1 POP JUMP JUMPDEST PUSH1 0x0 DUP2 ISZERO ISZERO SWAP1 POP SWAP2 SWAP1 POP JUMP JUMPDEST PUSH1 0x0 PUSH20 0xFFFFFFFFFFFFFFFFFFFFFFFFFFFFFFFFFFFFFFFF DUP3 AND SWAP1 POP SWAP2 SWAP1 POP JUMP JUMPDEST PUSH1 0x0 DUP2 SWAP1 POP SWAP2 SWAP1 POP JUMP JUMPDEST DUP3 DUP2 DUP4 CALLDATACOPY PUSH1 0x0 DUP4 DUP4 ADD MSTORE POP POP POP JUMP JUMPDEST PUSH1 0x0 JUMPDEST DUP4 DUP2 LT ISZERO PUSH2 0x30A7 JUMPI DUP1 DUP3 ADD MLOAD DUP2 DUP5 ADD MSTORE PUSH1 0x20 DUP2 ADD SWAP1 POP PUSH2 0x308C JUMP JUMPDEST DUP4 DUP2 GT ISZERO PUSH2 0x30B6 JUMPI PUSH1 0x0 DUP5 DUP5 ADD MSTORE JUMPDEST POP POP POP POP JUMP JUMPDEST PUSH1 0x0 PUSH1 0x2 DUP3 DIV SWAP1 POP PUSH1 0x1 DUP3 AND DUP1 PUSH2 0x30D4 JUMPI PUSH1 0x7F DUP3 AND SWAP2 POP JUMPDEST PUSH1 0x20 DUP3 LT DUP2 EQ ISZERO PUSH2 0x30E8 JUMPI PUSH2 0x30E7 PUSH2 0x3195 JUMP JUMPDEST JUMPDEST POP SWAP2 SWAP1 POP JUMP JUMPDEST PUSH1 0x0 PUSH2 0x30F9 DUP3 PUSH2 0x3070 JUMP JUMPDEST SWAP2 POP PUSH32 0xFFFFFFFFFFFFFFFFFFFFFFFFFFFFFFFFFFFFFFFFFFFFFFFFFFFFFFFFFFFFFFFF DUP3 EQ ISZERO PUSH2 0x312C JUMPI PUSH2 0x312B PUSH2 0x3137 JUMP JUMPDEST JUMPDEST PUSH1 0x1 DUP3 ADD SWAP1 POP SWAP2 SWAP1 POP JUMP JUMPDEST PUSH32 0x4E487B7100000000000000000000000000000000000000000000000000000000 PUSH1 0x0 MSTORE PUSH1 0x11 PUSH1 0x4 MSTORE PUSH1 0x24 PUSH1 0x0 REVERT JUMPDEST PUSH32 0x4E487B7100000000000000000000000000000000000000000000000000000000 PUSH1 0x0 MSTORE PUSH1 0x12 PUSH1 0x4 MSTORE PUSH1 0x24 PUSH1 0x0 REVERT JUMPDEST PUSH32 0x4E487B7100000000000000000000000000000000000000000000000000000000 PUSH1 0x0 MSTORE PUSH1 0x22 PUSH1 0x4 MSTORE PUSH1 0x24 PUSH1 0x0 REVERT JUMPDEST PUSH32 0x4E487B7100000000000000000000000000000000000000000000000000000000 PUSH1 0x0 MSTORE PUSH1 0x41 PUSH1 0x4 MSTORE PUSH1 0x24 PUSH1 0x0 REVERT JUMPDEST PUSH1 0x0 PUSH1 0x1F NOT PUSH1 0x1F DUP4 ADD AND SWAP1 POP SWAP2 SWAP1 POP JUMP JUMPDEST PUSH2 0x320D DUP2 PUSH2 0x3032 JUMP JUMPDEST DUP2 EQ PUSH2 0x3218 JUMPI PUSH1 0x0 DUP1 REVERT JUMPDEST POP JUMP JUMPDEST PUSH2 0x3224 DUP2 PUSH2 0x3044 JUMP JUMPDEST DUP2 EQ PUSH2 0x322F JUMPI PUSH1 0x0 DUP1 REVERT JUMPDEST POP JUMP JUMPDEST PUSH2 0x323B DUP2 PUSH2 0x3070 JUMP JUMPDEST DUP2 EQ PUSH2 0x3246 JUMPI PUSH1 0x0 DUP1 REVERT JUMPDEST POP JUMP INVALID LOG2 PUSH5 0x6970667358 0x22 SLT KECCAK256 0x4E LOG0 0xAB PUSH24 0x550EAD2EF205E00B2D4C70844F8933C6F97E1FAB93ABC011 LOG4 DUP4 SWAP12 PUSH9 0x64736F6C6343000800 STOP CALLER "
				},
				"gasEstimates": {
					"creation": {
						"codeDepositCost": "2585400",
						"executionCost": "104544",
						"totalCost": "2689944"
					},
					"external": {
						"allowNonOwnerRegistration()": "1216",
						"createProposal(string)": "infinite",
						"executeProposal(uint256)": "infinite",
						"feePercentage()": "1196",
						"getProject(uint256)": "infinite",
						"getUserCredits(address,uint256)": "infinite",
						"getUserReputation(address)": "1563",
						"minVotesForProposal()": "1195",
						"owner()": "1256",
						"projectCount()": "1218",
						"projects(uint256)": "infinite",
						"proposals(uint256)": "infinite",
						"purchaseCredits(uint256,uint256)": "infinite",
						"registerProject(string,uint256,uint256)": "infinite",
						"retireCredits(uint256,uint256)": "infinite",
						"setMinVotesForProposal(uint256)": "21333",
						"toggleNonOwnerRegistration(bool)": "22257",
						"transferCredits(address,uint256,uint256)": "infinite",
						"transferFee()": "1262",
						"updateProject(uint256,string,uint256,uint256)": "infinite",
						"userCredits(address,uint256)": "infinite",
						"userReputation(address)": "1602",
						"voteOnProposal(uint256,bool)": "infinite"
					}
				},
				"methodIdentifiers": {
					"allowNonOwnerRegistration()": "2f51d7ce",
					"createProposal(string)": "49c2a1a6",
					"executeProposal(uint256)": "0d61b519",
					"feePercentage()": "a001ecdd",
					"getProject(uint256)": "f0f3f2c8",
					"getUserCredits(address,uint256)": "c121cff0",
					"getUserReputation(address)": "baccbfdb",
					"minVotesForProposal()": "c9ded404",
					"owner()": "8da5cb5b",
					"projectCount()": "36fbad26",
					"projects(uint256)": "107046bd",
					"proposals(uint256)": "013cf08b",
					"purchaseCredits(uint256,uint256)": "84034469",
					"registerProject(string,uint256,uint256)": "e636eb55",
					"retireCredits(uint256,uint256)": "3ea0fb13",
					"setMinVotesForProposal(uint256)": "0994c98f",
					"toggleNonOwnerRegistration(bool)": "ab52a745",
					"transferCredits(address,uint256,uint256)": "a2f6045a",
					"transferFee()": "acb2ad6f",
					"updateProject(uint256,string,uint256,uint256)": "354f75e1",
					"userCredits(address,uint256)": "17a483a3",
					"userReputation(address)": "e503bb05",
					"voteOnProposal(uint256,bool)": "1614665c"
				}
			},
			"storageLayout": {
				"storage": [
					{
						"astId": 3,
						"contract": "carbon.sol:CarbonOffsetMarketplace",
						"label": "owner",
						"offset": 0,
						"slot": "0",
						"type": "t_address"
					},
					{
						"astId": 6,
						"contract": "carbon.sol:CarbonOffsetMarketplace",
						"label": "feePercentage",
						"offset": 0,
						"slot": "1",
						"type": "t_uint256"
					},
					{
						"astId": 9,
						"contract": "carbon.sol:CarbonOffsetMarketplace",
						"label": "allowNonOwnerRegistration",
						"offset": 0,
						"slot": "2",
						"type": "t_bool"
					},
					{
						"astId": 12,
						"contract": "carbon.sol:CarbonOffsetMarketplace",
						"label": "minVotesForProposal",
						"offset": 0,
						"slot": "3",
						"type": "t_uint256"
					},
					{
						"astId": 15,
						"contract": "carbon.sol:CarbonOffsetMarketplace",
						"label": "transferFee",
						"offset": 0,
						"slot": "4",
						"type": "t_uint256"
					},
					{
						"astId": 31,
						"contract": "carbon.sol:CarbonOffsetMarketplace",
						"label": "projects",
						"offset": 0,
						"slot": "5",
						"type": "t_mapping(t_uint256,t_struct(Project)26_storage)"
					},
					{
						"astId": 33,
						"contract": "carbon.sol:CarbonOffsetMarketplace",
						"label": "projectCount",
						"offset": 0,
						"slot": "6",
						"type": "t_uint256"
					},
					{
						"astId": 39,
						"contract": "carbon.sol:CarbonOffsetMarketplace",
						"label": "userCredits",
						"offset": 0,
						"slot": "7",
						"type": "t_mapping(t_address,t_mapping(t_uint256,t_uint256))"
					},
					{
						"astId": 43,
						"contract": "carbon.sol:CarbonOffsetMarketplace",
						"label": "userReputation",
						"offset": 0,
						"slot": "8",
						"type": "t_mapping(t_address,t_uint256)"
					},
					{
						"astId": 647,
						"contract": "carbon.sol:CarbonOffsetMarketplace",
						"label": "proposals",
						"offset": 0,
						"slot": "9",
						"type": "t_array(t_struct(Proposal)643_storage)dyn_storage"
					}
				],
				"types": {
					"t_address": {
						"encoding": "inplace",
						"label": "address",
						"numberOfBytes": "20"
					},
					"t_array(t_struct(Proposal)643_storage)dyn_storage": {
						"base": "t_struct(Proposal)643_storage",
						"encoding": "dynamic_array",
						"label": "struct CarbonOffsetMarketplace.Proposal[]",
						"numberOfBytes": "32"
					},
					"t_bool": {
						"encoding": "inplace",
						"label": "bool",
						"numberOfBytes": "1"
					},
					"t_mapping(t_address,t_mapping(t_uint256,t_uint256))": {
						"encoding": "mapping",
						"key": "t_address",
						"label": "mapping(address => mapping(uint256 => uint256))",
						"numberOfBytes": "32",
						"value": "t_mapping(t_uint256,t_uint256)"
					},
					"t_mapping(t_address,t_uint256)": {
						"encoding": "mapping",
						"key": "t_address",
						"label": "mapping(address => uint256)",
						"numberOfBytes": "32",
						"value": "t_uint256"
					},
					"t_mapping(t_uint256,t_struct(Project)26_storage)": {
						"encoding": "mapping",
						"key": "t_uint256",
						"label": "mapping(uint256 => struct CarbonOffsetMarketplace.Project)",
						"numberOfBytes": "32",
						"value": "t_struct(Project)26_storage"
					},
					"t_mapping(t_uint256,t_uint256)": {
						"encoding": "mapping",
						"key": "t_uint256",
						"label": "mapping(uint256 => uint256)",
						"numberOfBytes": "32",
						"value": "t_uint256"
					},
					"t_string_storage": {
						"encoding": "bytes",
						"label": "string",
						"numberOfBytes": "32"
					},
					"t_struct(Project)26_storage": {
						"encoding": "inplace",
						"label": "struct CarbonOffsetMarketplace.Project",
						"members": [
							{
								"astId": 17,
								"contract": "carbon.sol:CarbonOffsetMarketplace",
								"label": "owner",
								"offset": 0,
								"slot": "0",
								"type": "t_address"
							},
							{
								"astId": 19,
								"contract": "carbon.sol:CarbonOffsetMarketplace",
								"label": "name",
								"offset": 0,
								"slot": "1",
								"type": "t_string_storage"
							},
							{
								"astId": 21,
								"contract": "carbon.sol:CarbonOffsetMarketplace",
								"label": "totalCredits",
								"offset": 0,
								"slot": "2",
								"type": "t_uint256"
							},
							{
								"astId": 23,
								"contract": "carbon.sol:CarbonOffsetMarketplace",
								"label": "availableCredits",
								"offset": 0,
								"slot": "3",
								"type": "t_uint256"
							},
							{
								"astId": 25,
								"contract": "carbon.sol:CarbonOffsetMarketplace",
								"label": "pricePerCredit",
								"offset": 0,
								"slot": "4",
								"type": "t_uint256"
							}
						],
						"numberOfBytes": "160"
					},
					"t_struct(Proposal)643_storage": {
						"encoding": "inplace",
						"label": "struct CarbonOffsetMarketplace.Proposal",
						"members": [
							{
								"astId": 634,
								"contract": "carbon.sol:CarbonOffsetMarketplace",
								"label": "proposer",
								"offset": 0,
								"slot": "0",
								"type": "t_address"
							},
							{
								"astId": 636,
								"contract": "carbon.sol:CarbonOffsetMarketplace",
								"label": "description",
								"offset": 0,
								"slot": "1",
								"type": "t_string_storage"
							},
							{
								"astId": 638,
								"contract": "carbon.sol:CarbonOffsetMarketplace",
								"label": "votesFor",
								"offset": 0,
								"slot": "2",
								"type": "t_uint256"
							},
							{
								"astId": 640,
								"contract": "carbon.sol:CarbonOffsetMarketplace",
								"label": "votesAgainst",
								"offset": 0,
								"slot": "3",
								"type": "t_uint256"
							},
							{
								"astId": 642,
								"contract": "carbon.sol:CarbonOffsetMarketplace",
								"label": "executed",
								"offset": 0,
								"slot": "4",
								"type": "t_bool"
							}
						],
						"numberOfBytes": "160"
					},
					"t_uint256": {
						"encoding": "inplace",
						"label": "uint256",
						"numberOfBytes": "32"
					}
				}
			},
			"userdoc": {
				"kind": "user",
				"methods": {},
				"version": 1
			}
		}
	}
}