{
	"carbon.sol": {
		"CarbonOffsetMarketplace": {
			"abi": [
				{
					"inputs": [],
					"stateMutability": "nonpayable",
					"type": "constructor"
				},
				{
					"anonymous": false,
					"inputs": [
						{
							"indexed": true,
							"internalType": "address",
							"name": "buyer",
							"type": "address"
						},
						{
							"indexed": false,
							"internalType": "uint256",
							"name": "projectId",
							"type": "uint256"
						},
						{
							"indexed": false,
							"internalType": "uint256",
							"name": "credits",
							"type": "uint256"
						}
					],
					"name": "CreditsPurchased",
					"type": "event"
				},
				{
					"anonymous": false,
					"inputs": [
						{
							"indexed": true,
							"internalType": "address",
							"name": "user",
							"type": "address"
						},
						{
							"indexed": false,
							"internalType": "uint256",
							"name": "projectId",
							"type": "uint256"
						},
						{
							"indexed": false,
							"internalType": "uint256",
							"name": "credits",
							"type": "uint256"
						}
					],
					"name": "CreditsRetired",
					"type": "event"
				},
				{
					"anonymous": false,
					"inputs": [
						{
							"indexed": false,
							"internalType": "uint256",
							"name": "projectId",
							"type": "uint256"
						},
						{
							"indexed": false,
							"internalType": "string",
							"name": "name",
							"type": "string"
						},
						{
							"indexed": false,
							"internalType": "uint256",
							"name": "totalCredits",
							"type": "uint256"
						},
						{
							"indexed": false,
							"internalType": "uint256",
							"name": "pricePerCredit",
							"type": "uint256"
						}
					],
					"name": "ProjectRegistered",
					"type": "event"
				},
				{
					"anonymous": false,
					"inputs": [
						{
							"indexed": false,
							"internalType": "uint256",
							"name": "proposalId",
							"type": "uint256"
						},
						{
							"indexed": false,
							"internalType": "string",
							"name": "description",
							"type": "string"
						},
						{
							"indexed": false,
							"internalType": "address",
							"name": "proposer",
							"type": "address"
						}
					],
					"name": "ProposalCreated",
					"type": "event"
				},
				{
					"anonymous": false,
					"inputs": [
						{
							"indexed": false,
							"internalType": "uint256",
							"name": "proposalId",
							"type": "uint256"
						},
						{
							"indexed": false,
							"internalType": "address",
							"name": "voter",
							"type": "address"
						},
						{
							"indexed": false,
							"internalType": "bool",
							"name": "support",
							"type": "bool"
						}
					],
					"name": "VoteCast",
					"type": "event"
				},
				{
					"inputs": [
						{
							"internalType": "string",
							"name": "_description",
							"type": "string"
						}
					],
					"name": "createProposal",
					"outputs": [],
					"stateMutability": "nonpayable",
					"type": "function"
				},
				{
					"inputs": [
						{
							"internalType": "uint256",
							"name": "_proposalId",
							"type": "uint256"
						}
					],
					"name": "executeProposal",
					"outputs": [],
					"stateMutability": "nonpayable",
					"type": "function"
				},
				{
					"inputs": [
						{
							"internalType": "uint256",
							"name": "_projectId",
							"type": "uint256"
						}
					],
					"name": "getProject",
					"outputs": [
						{
							"internalType": "string",
							"name": "",
							"type": "string"
						},
						{
							"internalType": "uint256",
							"name": "",
							"type": "uint256"
						},
						{
							"internalType": "uint256",
							"name": "",
							"type": "uint256"
						},
						{
							"internalType": "uint256",
							"name": "",
							"type": "uint256"
						},
						{
							"internalType": "address",
							"name": "",
							"type": "address"
						}
					],
					"stateMutability": "view",
					"type": "function"
				},
				{
					"inputs": [
						{
							"internalType": "address",
							"name": "_user",
							"type": "address"
						},
						{
							"internalType": "uint256",
							"name": "_projectId",
							"type": "uint256"
						}
					],
					"name": "getUserCredits",
					"outputs": [
						{
							"internalType": "uint256",
							"name": "",
							"type": "uint256"
						}
					],
					"stateMutability": "view",
					"type": "function"
				},
				{
					"inputs": [
						{
							"internalType": "address",
							"name": "_user",
							"type": "address"
						}
					],
					"name": "getUserReputation",
					"outputs": [
						{
							"internalType": "uint256",
							"name": "",
							"type": "uint256"
						}
					],
					"stateMutability": "view",
					"type": "function"
				},
				{
					"inputs": [],
					"name": "owner",
					"outputs": [
						{
							"internalType": "address",
							"name": "",
							"type": "address"
						}
					],
					"stateMutability": "view",
					"type": "function"
				},
				{
					"inputs": [],
					"name": "projectCount",
					"outputs": [
						{
							"internalType": "uint256",
							"name": "",
							"type": "uint256"
						}
					],
					"stateMutability": "view",
					"type": "function"
				},
				{
					"inputs": [
						{
							"internalType": "uint256",
							"name": "",
							"type": "uint256"
						}
					],
					"name": "projects",
					"outputs": [
						{
							"internalType": "address",
							"name": "owner",
							"type": "address"
						},
						{
							"internalType": "string",
							"name": "name",
							"type": "string"
						},
						{
							"internalType": "uint256",
							"name": "totalCredits",
							"type": "uint256"
						},
						{
							"internalType": "uint256",
							"name": "availableCredits",
							"type": "uint256"
						},
						{
							"internalType": "uint256",
							"name": "pricePerCredit",
							"type": "uint256"
						}
					],
					"stateMutability": "view",
					"type": "function"
				},
				{
					"inputs": [
						{
							"internalType": "uint256",
							"name": "",
							"type": "uint256"
						}
					],
					"name": "proposals",
					"outputs": [
						{
							"internalType": "address",
							"name": "proposer",
							"type": "address"
						},
						{
							"internalType": "string",
							"name": "description",
							"type": "string"
						},
						{
							"internalType": "uint256",
							"name": "votesFor",
							"type": "uint256"
						},
						{
							"internalType": "uint256",
							"name": "votesAgainst",
							"type": "uint256"
						},
						{
							"internalType": "bool",
							"name": "executed",
							"type": "bool"
						}
					],
					"stateMutability": "view",
					"type": "function"
				},
				{
					"inputs": [
						{
							"internalType": "uint256",
							"name": "_projectId",
							"type": "uint256"
						},
						{
							"internalType": "uint256",
							"name": "_credits",
							"type": "uint256"
						}
					],
					"name": "purchaseCredits",
					"outputs": [],
					"stateMutability": "payable",
					"type": "function"
				},
				{
					"inputs": [
						{
							"internalType": "string",
							"name": "_name",
							"type": "string"
						},
						{
							"internalType": "uint256",
							"name": "_totalCredits",
							"type": "uint256"
						},
						{
							"internalType": "uint256",
							"name": "_pricePerCredit",
							"type": "uint256"
						}
					],
					"name": "registerProject",
					"outputs": [],
					"stateMutability": "nonpayable",
					"type": "function"
				},
				{
					"inputs": [
						{
							"internalType": "uint256",
							"name": "_projectId",
							"type": "uint256"
						},
						{
							"internalType": "uint256",
							"name": "_credits",
							"type": "uint256"
						}
					],
					"name": "retireCredits",
					"outputs": [],
					"stateMutability": "nonpayable",
					"type": "function"
				},
				{
					"inputs": [
						{
							"internalType": "address",
							"name": "",
							"type": "address"
						},
						{
							"internalType": "uint256",
							"name": "",
							"type": "uint256"
						}
					],
					"name": "userCredits",
					"outputs": [
						{
							"internalType": "uint256",
							"name": "",
							"type": "uint256"
						}
					],
					"stateMutability": "view",
					"type": "function"
				},
				{
					"inputs": [
						{
							"internalType": "address",
							"name": "",
							"type": "address"
						}
					],
					"name": "userReputation",
					"outputs": [
						{
							"internalType": "uint256",
							"name": "",
							"type": "uint256"
						}
					],
					"stateMutability": "view",
					"type": "function"
				},
				{
					"inputs": [
						{
							"internalType": "uint256",
							"name": "_proposalId",
							"type": "uint256"
						},
						{
							"internalType": "bool",
							"name": "_support",
							"type": "bool"
						}
					],
					"name": "voteOnProposal",
					"outputs": [],
					"stateMutability": "nonpayable",
					"type": "function"
				}
			],
			"devdoc": {
				"kind": "dev",
				"methods": {},
				"version": 1
			},
			"evm": {
				"assembly": "    /* \"carbon.sol\":60:6363  contract CarbonOffsetMarketplace {\r... */\n  mstore(0x40, 0x80)\n    /* \"carbon.sol\":1418:1469  constructor() {\r... */\n  callvalue\n  dup1\n  iszero\n  tag_1\n  jumpi\n  0x00\n  dup1\n  revert\ntag_1:\n  pop\n    /* \"carbon.sol\":1451:1461  msg.sender */\n  caller\n    /* \"carbon.sol\":1443:1448  owner */\n  0x00\n  dup1\n    /* \"carbon.sol\":1443:1461  owner = msg.sender */\n  0x0100\n  exp\n  dup2\n  sload\n  dup2\n  0xffffffffffffffffffffffffffffffffffffffff\n  mul\n  not\n  and\n  swap1\n  dup4\n  0xffffffffffffffffffffffffffffffffffffffff\n  and\n  mul\n  or\n  swap1\n  sstore\n  pop\n    /* \"carbon.sol\":60:6363  contract CarbonOffsetMarketplace {\r... */\n  dataSize(sub_0)\n  dup1\n  dataOffset(sub_0)\n  0x00\n  codecopy\n  0x00\n  return\nstop\n\nsub_0: assembly {\n        /* \"carbon.sol\":60:6363  contract CarbonOffsetMarketplace {\r... */\n      mstore(0x40, 0x80)\n      jumpi(tag_1, lt(calldatasize, 0x04))\n      shr(0xe0, calldataload(0x00))\n      dup1\n      0x49c2a1a6\n      gt\n      tag_17\n      jumpi\n      dup1\n      0xc121cff0\n      gt\n      tag_18\n      jumpi\n      dup1\n      0xc121cff0\n      eq\n      tag_13\n      jumpi\n      dup1\n      0xe503bb05\n      eq\n      tag_14\n      jumpi\n      dup1\n      0xe636eb55\n      eq\n      tag_15\n      jumpi\n      dup1\n      0xf0f3f2c8\n      eq\n      tag_16\n      jumpi\n      jump(tag_1)\n    tag_18:\n      dup1\n      0x49c2a1a6\n      eq\n      tag_9\n      jumpi\n      dup1\n      0x84034469\n      eq\n      tag_10\n      jumpi\n      dup1\n      0x8da5cb5b\n      eq\n      tag_11\n      jumpi\n      dup1\n      0xbaccbfdb\n      eq\n      tag_12\n      jumpi\n      jump(tag_1)\n    tag_17:\n      dup1\n      0x1614665c\n      gt\n      tag_19\n      jumpi\n      dup1\n      0x1614665c\n      eq\n      tag_5\n      jumpi\n      dup1\n      0x17a483a3\n      eq\n      tag_6\n      jumpi\n      dup1\n      0x36fbad26\n      eq\n      tag_7\n      jumpi\n      dup1\n      0x3ea0fb13\n      eq\n      tag_8\n      jumpi\n      jump(tag_1)\n    tag_19:\n      dup1\n      0x013cf08b\n      eq\n      tag_2\n      jumpi\n      dup1\n      0x0d61b519\n      eq\n      tag_3\n      jumpi\n      dup1\n      0x107046bd\n      eq\n      tag_4\n      jumpi\n    tag_1:\n      0x00\n      dup1\n      revert\n        /* \"carbon.sol\":4692:4719  Proposal[] public proposals */\n    tag_2:\n      callvalue\n      dup1\n      iszero\n      tag_20\n      jumpi\n      0x00\n      dup1\n      revert\n    tag_20:\n      pop\n      tag_21\n      0x04\n      dup1\n      calldatasize\n      sub\n      dup2\n      add\n      swap1\n      tag_22\n      swap2\n      swap1\n      tag_23\n      jump\t// in\n    tag_22:\n      tag_24\n      jump\t// in\n    tag_21:\n      mload(0x40)\n      tag_25\n      swap6\n      swap5\n      swap4\n      swap3\n      swap2\n      swap1\n      tag_26\n      jump\t// in\n    tag_25:\n      mload(0x40)\n      dup1\n      swap2\n      sub\n      swap1\n      return\n        /* \"carbon.sol\":5843:6360  function executeProposal(uint256 _proposalId) public {\r... */\n    tag_3:\n      callvalue\n      dup1\n      iszero\n      tag_27\n      jumpi\n      0x00\n      dup1\n      revert\n    tag_27:\n      pop\n      tag_28\n      0x04\n      dup1\n      calldatasize\n      sub\n      dup2\n      add\n      swap1\n      tag_29\n      swap2\n      swap1\n      tag_23\n      jump\t// in\n    tag_29:\n      tag_30\n      jump\t// in\n    tag_28:\n      stop\n        /* \"carbon.sol\":406:449  mapping(uint256 => Project) public projects */\n    tag_4:\n      callvalue\n      dup1\n      iszero\n      tag_31\n      jumpi\n      0x00\n      dup1\n      revert\n    tag_31:\n      pop\n      tag_32\n      0x04\n      dup1\n      calldatasize\n      sub\n      dup2\n      add\n      swap1\n      tag_33\n      swap2\n      swap1\n      tag_23\n      jump\t// in\n    tag_33:\n      tag_34\n      jump\t// in\n    tag_32:\n      mload(0x40)\n      tag_35\n      swap6\n      swap5\n      swap4\n      swap3\n      swap2\n      swap1\n      tag_36\n      jump\t// in\n    tag_35:\n      mload(0x40)\n      dup1\n      swap2\n      sub\n      swap1\n      return\n        /* \"carbon.sol\":5320:5785  function voteOnProposal(uint256 _proposalId, bool _support) public {\r... */\n    tag_5:\n      callvalue\n      dup1\n      iszero\n      tag_37\n      jumpi\n      0x00\n      dup1\n      revert\n    tag_37:\n      pop\n      tag_38\n      0x04\n      dup1\n      calldatasize\n      sub\n      dup2\n      add\n      swap1\n      tag_39\n      swap2\n      swap1\n      tag_40\n      jump\t// in\n    tag_39:\n      tag_41\n      jump\t// in\n    tag_38:\n      stop\n        /* \"carbon.sol\":544:610  mapping(address => mapping(uint256 => uint256)) public userCredits */\n    tag_6:\n      callvalue\n      dup1\n      iszero\n      tag_42\n      jumpi\n      0x00\n      dup1\n      revert\n    tag_42:\n      pop\n      tag_43\n      0x04\n      dup1\n      calldatasize\n      sub\n      dup2\n      add\n      swap1\n      tag_44\n      swap2\n      swap1\n      tag_45\n      jump\t// in\n    tag_44:\n      tag_46\n      jump\t// in\n    tag_43:\n      mload(0x40)\n      tag_47\n      swap2\n      swap1\n      tag_48\n      jump\t// in\n    tag_47:\n      mload(0x40)\n      dup1\n      swap2\n      sub\n      swap1\n      return\n        /* \"carbon.sol\":456:483  uint256 public projectCount */\n    tag_7:\n      callvalue\n      dup1\n      iszero\n      tag_49\n      jumpi\n      0x00\n      dup1\n      revert\n    tag_49:\n      pop\n      tag_50\n      tag_51\n      jump\t// in\n    tag_50:\n      mload(0x40)\n      tag_52\n      swap2\n      swap1\n      tag_48\n      jump\t// in\n    tag_52:\n      mload(0x40)\n      dup1\n      swap2\n      sub\n      swap1\n      return\n        /* \"carbon.sol\":3251:3619  function retireCredits(uint256 _projectId, uint256 _credits) public {\r... */\n    tag_8:\n      callvalue\n      dup1\n      iszero\n      tag_53\n      jumpi\n      0x00\n      dup1\n      revert\n    tag_53:\n      pop\n      tag_54\n      0x04\n      dup1\n      calldatasize\n      sub\n      dup2\n      add\n      swap1\n      tag_55\n      swap2\n      swap1\n      tag_56\n      jump\t// in\n    tag_55:\n      tag_57\n      jump\t// in\n    tag_54:\n      stop\n        /* \"carbon.sol\":4758:5285  function createProposal(string memory _description) public {\r... */\n    tag_9:\n      callvalue\n      dup1\n      iszero\n      tag_58\n      jumpi\n      0x00\n      dup1\n      revert\n    tag_58:\n      pop\n      tag_59\n      0x04\n      dup1\n      calldatasize\n      sub\n      dup2\n      add\n      swap1\n      tag_60\n      swap2\n      swap1\n      tag_61\n      jump\t// in\n    tag_60:\n      tag_62\n      jump\t// in\n    tag_59:\n      stop\n        /* \"carbon.sol\":2372:3193  function purchaseCredits(uint256 _projectId, uint256 _credits) public payable {\r... */\n    tag_10:\n      tag_63\n      0x04\n      dup1\n      calldatasize\n      sub\n      dup2\n      add\n      swap1\n      tag_64\n      swap2\n      swap1\n      tag_56\n      jump\t// in\n    tag_64:\n      tag_65\n      jump\t// in\n    tag_63:\n      stop\n        /* \"carbon.sol\":100:120  address public owner */\n    tag_11:\n      callvalue\n      dup1\n      iszero\n      tag_66\n      jumpi\n      0x00\n      dup1\n      revert\n    tag_66:\n      pop\n      tag_67\n      tag_68\n      jump\t// in\n    tag_67:\n      mload(0x40)\n      tag_69\n      swap2\n      swap1\n      tag_70\n      jump\t// in\n    tag_69:\n      mload(0x40)\n      dup1\n      swap2\n      sub\n      swap1\n      return\n        /* \"carbon.sol\":4333:4452  function getUserReputation(address _user) public view returns (uint256) {\r... */\n    tag_12:\n      callvalue\n      dup1\n      iszero\n      tag_71\n      jumpi\n      0x00\n      dup1\n      revert\n    tag_71:\n      pop\n      tag_72\n      0x04\n      dup1\n      calldatasize\n      sub\n      dup2\n      add\n      swap1\n      tag_73\n      swap2\n      swap1\n      tag_74\n      jump\t// in\n    tag_73:\n      tag_75\n      jump\t// in\n    tag_72:\n      mload(0x40)\n      tag_76\n      swap2\n      swap1\n      tag_48\n      jump\t// in\n    tag_76:\n      mload(0x40)\n      dup1\n      swap2\n      sub\n      swap1\n      return\n        /* \"carbon.sol\":4076:4288  function getUserCredits(address _user, uint256 _projectId) public view returns (uint256) {\r... */\n    tag_13:\n      callvalue\n      dup1\n      iszero\n      tag_77\n      jumpi\n      0x00\n      dup1\n      revert\n    tag_77:\n      pop\n      tag_78\n      0x04\n      dup1\n      calldatasize\n      sub\n      dup2\n      add\n      swap1\n      tag_79\n      swap2\n      swap1\n      tag_45\n      jump\t// in\n    tag_79:\n      tag_80\n      jump\t// in\n    tag_78:\n      mload(0x40)\n      tag_81\n      swap2\n      swap1\n      tag_48\n      jump\t// in\n    tag_81:\n      mload(0x40)\n      dup1\n      swap2\n      sub\n      swap1\n      return\n        /* \"carbon.sol\":667:716  mapping(address => uint256) public userReputation */\n    tag_14:\n      callvalue\n      dup1\n      iszero\n      tag_82\n      jumpi\n      0x00\n      dup1\n      revert\n    tag_82:\n      pop\n      tag_83\n      0x04\n      dup1\n      calldatasize\n      sub\n      dup2\n      add\n      swap1\n      tag_84\n      swap2\n      swap1\n      tag_74\n      jump\t// in\n    tag_84:\n      tag_85\n      jump\t// in\n    tag_83:\n      mload(0x40)\n      tag_86\n      swap2\n      swap1\n      tag_48\n      jump\t// in\n    tag_86:\n      mload(0x40)\n      dup1\n      swap2\n      sub\n      swap1\n      return\n        /* \"carbon.sol\":1522:2317  function registerProject(string memory _name, uint256 _totalCredits, uint256 _pricePerCredit) public {\r... */\n    tag_15:\n      callvalue\n      dup1\n      iszero\n      tag_87\n      jumpi\n      0x00\n      dup1\n      revert\n    tag_87:\n      pop\n      tag_88\n      0x04\n      dup1\n      calldatasize\n      sub\n      dup2\n      add\n      swap1\n      tag_89\n      swap2\n      swap1\n      tag_90\n      jump\t// in\n    tag_89:\n      tag_91\n      jump\t// in\n    tag_88:\n      stop\n        /* \"carbon.sol\":3655:4018  function getProject(uint256 _projectId) public view returns (string memory, uint256, uint256, uint256, address) {\r... */\n    tag_16:\n      callvalue\n      dup1\n      iszero\n      tag_92\n      jumpi\n      0x00\n      dup1\n      revert\n    tag_92:\n      pop\n      tag_93\n      0x04\n      dup1\n      calldatasize\n      sub\n      dup2\n      add\n      swap1\n      tag_94\n      swap2\n      swap1\n      tag_23\n      jump\t// in\n    tag_94:\n      tag_95\n      jump\t// in\n    tag_93:\n      mload(0x40)\n      tag_96\n      swap6\n      swap5\n      swap4\n      swap3\n      swap2\n      swap1\n      tag_97\n      jump\t// in\n    tag_96:\n      mload(0x40)\n      dup1\n      swap2\n      sub\n      swap1\n      return\n        /* \"carbon.sol\":4692:4719  Proposal[] public proposals */\n    tag_24:\n      0x05\n      dup2\n      dup2\n      sload\n      dup2\n      lt\n      tag_98\n      jumpi\n      0x00\n      dup1\n      revert\n    tag_98:\n      swap1\n      0x00\n      mstore\n      keccak256(0x00, 0x20)\n      swap1\n      0x05\n      mul\n      add\n      0x00\n      swap2\n      pop\n      swap1\n      pop\n      dup1\n      0x00\n      add\n      0x00\n      swap1\n      sload\n      swap1\n      0x0100\n      exp\n      swap1\n      div\n      0xffffffffffffffffffffffffffffffffffffffff\n      and\n      swap1\n      dup1\n      0x01\n      add\n      dup1\n      sload\n      tag_100\n      swap1\n      tag_101\n      jump\t// in\n    tag_100:\n      dup1\n      0x1f\n      add\n      0x20\n      dup1\n      swap2\n      div\n      mul\n      0x20\n      add\n      mload(0x40)\n      swap1\n      dup2\n      add\n      0x40\n      mstore\n      dup1\n      swap3\n      swap2\n      swap1\n      dup2\n      dup2\n      mstore\n      0x20\n      add\n      dup3\n      dup1\n      sload\n      tag_102\n      swap1\n      tag_101\n      jump\t// in\n    tag_102:\n      dup1\n      iszero\n      tag_103\n      jumpi\n      dup1\n      0x1f\n      lt\n      tag_104\n      jumpi\n      0x0100\n      dup1\n      dup4\n      sload\n      div\n      mul\n      dup4\n      mstore\n      swap2\n      0x20\n      add\n      swap2\n      jump(tag_103)\n    tag_104:\n      dup3\n      add\n      swap2\n      swap1\n      0x00\n      mstore\n      keccak256(0x00, 0x20)\n      swap1\n    tag_105:\n      dup2\n      sload\n      dup2\n      mstore\n      swap1\n      0x01\n      add\n      swap1\n      0x20\n      add\n      dup1\n      dup4\n      gt\n      tag_105\n      jumpi\n      dup3\n      swap1\n      sub\n      0x1f\n      and\n      dup3\n      add\n      swap2\n    tag_103:\n      pop\n      pop\n      pop\n      pop\n      pop\n      swap1\n      dup1\n      0x02\n      add\n      sload\n      swap1\n      dup1\n      0x03\n      add\n      sload\n      swap1\n      dup1\n      0x04\n      add\n      0x00\n      swap1\n      sload\n      swap1\n      0x0100\n      exp\n      swap1\n      div\n      0xff\n      and\n      swap1\n      pop\n      dup6\n      jump\t// out\n        /* \"carbon.sol\":5843:6360  function executeProposal(uint256 _proposalId) public {\r... */\n    tag_30:\n        /* \"carbon.sol\":5929:5934  owner */\n      0x00\n      dup1\n      sload\n      swap1\n      0x0100\n      exp\n      swap1\n      div\n      0xffffffffffffffffffffffffffffffffffffffff\n      and\n        /* \"carbon.sol\":5915:5934  msg.sender == owner */\n      0xffffffffffffffffffffffffffffffffffffffff\n      and\n        /* \"carbon.sol\":5915:5925  msg.sender */\n      caller\n        /* \"carbon.sol\":5915:5934  msg.sender == owner */\n      0xffffffffffffffffffffffffffffffffffffffff\n      and\n      eq\n        /* \"carbon.sol\":5907:5975  require(msg.sender == owner, \"Only the owner can execute proposals\") */\n      tag_107\n      jumpi\n      mload(0x40)\n      0x08c379a000000000000000000000000000000000000000000000000000000000\n      dup2\n      mstore\n      0x04\n      add\n      tag_108\n      swap1\n      tag_109\n      jump\t// in\n    tag_108:\n      mload(0x40)\n      dup1\n      swap2\n      sub\n      swap1\n      revert\n    tag_107:\n        /* \"carbon.sol\":6008:6017  proposals */\n      0x05\n        /* \"carbon.sol\":6008:6024  proposals.length */\n      dup1\n      sload\n      swap1\n      pop\n        /* \"carbon.sol\":5994:6005  _proposalId */\n      dup2\n        /* \"carbon.sol\":5994:6024  _proposalId < proposals.length */\n      lt\n        /* \"carbon.sol\":5986:6048  require(_proposalId < proposals.length, \"Invalid proposal ID\") */\n      tag_110\n      jumpi\n      mload(0x40)\n      0x08c379a000000000000000000000000000000000000000000000000000000000\n      dup2\n      mstore\n      0x04\n      add\n      tag_111\n      swap1\n      tag_112\n      jump\t// in\n    tag_111:\n      mload(0x40)\n      dup1\n      swap2\n      sub\n      swap1\n      revert\n    tag_110:\n        /* \"carbon.sol\":6059:6084  Proposal storage proposal */\n      0x00\n        /* \"carbon.sol\":6087:6096  proposals */\n      0x05\n        /* \"carbon.sol\":6097:6108  _proposalId */\n      dup3\n        /* \"carbon.sol\":6087:6109  proposals[_proposalId] */\n      dup2\n      sload\n      dup2\n      lt\n      tag_113\n      jumpi\n      mstore(0x00, 0x4e487b7100000000000000000000000000000000000000000000000000000000)\n      mstore(0x04, 0x32)\n      revert(0x00, 0x24)\n    tag_113:\n      swap1\n      0x00\n      mstore\n      keccak256(0x00, 0x20)\n      swap1\n      0x05\n      mul\n      add\n        /* \"carbon.sol\":6059:6109  Proposal storage proposal = proposals[_proposalId] */\n      swap1\n      pop\n        /* \"carbon.sol\":6129:6137  proposal */\n      dup1\n        /* \"carbon.sol\":6129:6146  proposal.executed */\n      0x04\n      add\n      0x00\n      swap1\n      sload\n      swap1\n      0x0100\n      exp\n      swap1\n      div\n      0xff\n      and\n        /* \"carbon.sol\":6128:6146  !proposal.executed */\n      iszero\n        /* \"carbon.sol\":6120:6176  require(!proposal.executed, \"Proposal already executed\") */\n      tag_115\n      jumpi\n      mload(0x40)\n      0x08c379a000000000000000000000000000000000000000000000000000000000\n      dup2\n      mstore\n      0x04\n      add\n      tag_116\n      swap1\n      tag_117\n      jump\t// in\n    tag_116:\n      mload(0x40)\n      dup1\n      swap2\n      sub\n      swap1\n      revert\n    tag_115:\n        /* \"carbon.sol\":6215:6223  proposal */\n      dup1\n        /* \"carbon.sol\":6215:6236  proposal.votesAgainst */\n      0x03\n      add\n      sload\n        /* \"carbon.sol\":6195:6203  proposal */\n      dup2\n        /* \"carbon.sol\":6195:6212  proposal.votesFor */\n      0x02\n      add\n      sload\n        /* \"carbon.sol\":6195:6236  proposal.votesFor > proposal.votesAgainst */\n      gt\n        /* \"carbon.sol\":6187:6262  require(proposal.votesFor > proposal.votesAgainst, \"Proposal did not pass\") */\n      tag_118\n      jumpi\n      mload(0x40)\n      0x08c379a000000000000000000000000000000000000000000000000000000000\n      dup2\n      mstore\n      0x04\n      add\n      tag_119\n      swap1\n      tag_120\n      jump\t// in\n    tag_119:\n      mload(0x40)\n      dup1\n      swap2\n      sub\n      swap1\n      revert\n    tag_118:\n        /* \"carbon.sol\":6348:6352  true */\n      0x01\n        /* \"carbon.sol\":6328:6336  proposal */\n      dup2\n        /* \"carbon.sol\":6328:6345  proposal.executed */\n      0x04\n      add\n      0x00\n        /* \"carbon.sol\":6328:6352  proposal.executed = true */\n      0x0100\n      exp\n      dup2\n      sload\n      dup2\n      0xff\n      mul\n      not\n      and\n      swap1\n      dup4\n      iszero\n      iszero\n      mul\n      or\n      swap1\n      sstore\n      pop\n        /* \"carbon.sol\":5843:6360  function executeProposal(uint256 _proposalId) public {\r... */\n      pop\n      pop\n      jump\t// out\n        /* \"carbon.sol\":406:449  mapping(uint256 => Project) public projects */\n    tag_34:\n      mstore(0x20, 0x01)\n      dup1\n      0x00\n      mstore\n      keccak256(0x00, 0x40)\n      0x00\n      swap2\n      pop\n      swap1\n      pop\n      dup1\n      0x00\n      add\n      0x00\n      swap1\n      sload\n      swap1\n      0x0100\n      exp\n      swap1\n      div\n      0xffffffffffffffffffffffffffffffffffffffff\n      and\n      swap1\n      dup1\n      0x01\n      add\n      dup1\n      sload\n      tag_121\n      swap1\n      tag_101\n      jump\t// in\n    tag_121:\n      dup1\n      0x1f\n      add\n      0x20\n      dup1\n      swap2\n      div\n      mul\n      0x20\n      add\n      mload(0x40)\n      swap1\n      dup2\n      add\n      0x40\n      mstore\n      dup1\n      swap3\n      swap2\n      swap1\n      dup2\n      dup2\n      mstore\n      0x20\n      add\n      dup3\n      dup1\n      sload\n      tag_122\n      swap1\n      tag_101\n      jump\t// in\n    tag_122:\n      dup1\n      iszero\n      tag_123\n      jumpi\n      dup1\n      0x1f\n      lt\n      tag_124\n      jumpi\n      0x0100\n      dup1\n      dup4\n      sload\n      div\n      mul\n      dup4\n      mstore\n      swap2\n      0x20\n      add\n      swap2\n      jump(tag_123)\n    tag_124:\n      dup3\n      add\n      swap2\n      swap1\n      0x00\n      mstore\n      keccak256(0x00, 0x20)\n      swap1\n    tag_125:\n      dup2\n      sload\n      dup2\n      mstore\n      swap1\n      0x01\n      add\n      swap1\n      0x20\n      add\n      dup1\n      dup4\n      gt\n      tag_125\n      jumpi\n      dup3\n      swap1\n      sub\n      0x1f\n      and\n      dup3\n      add\n      swap2\n    tag_123:\n      pop\n      pop\n      pop\n      pop\n      pop\n      swap1\n      dup1\n      0x02\n      add\n      sload\n      swap1\n      dup1\n      0x03\n      add\n      sload\n      swap1\n      dup1\n      0x04\n      add\n      sload\n      swap1\n      pop\n      dup6\n      jump\t// out\n        /* \"carbon.sol\":5320:5785  function voteOnProposal(uint256 _proposalId, bool _support) public {\r... */\n    tag_41:\n        /* \"carbon.sol\":5420:5429  proposals */\n      0x05\n        /* \"carbon.sol\":5420:5436  proposals.length */\n      dup1\n      sload\n      swap1\n      pop\n        /* \"carbon.sol\":5406:5417  _proposalId */\n      dup3\n        /* \"carbon.sol\":5406:5436  _proposalId < proposals.length */\n      lt\n        /* \"carbon.sol\":5398:5460  require(_proposalId < proposals.length, \"Invalid proposal ID\") */\n      tag_127\n      jumpi\n      mload(0x40)\n      0x08c379a000000000000000000000000000000000000000000000000000000000\n      dup2\n      mstore\n      0x04\n      add\n      tag_128\n      swap1\n      tag_112\n      jump\t// in\n    tag_128:\n      mload(0x40)\n      dup1\n      swap2\n      sub\n      swap1\n      revert\n    tag_127:\n        /* \"carbon.sol\":5471:5496  Proposal storage proposal */\n      0x00\n        /* \"carbon.sol\":5499:5508  proposals */\n      0x05\n        /* \"carbon.sol\":5509:5520  _proposalId */\n      dup4\n        /* \"carbon.sol\":5499:5521  proposals[_proposalId] */\n      dup2\n      sload\n      dup2\n      lt\n      tag_129\n      jumpi\n      mstore(0x00, 0x4e487b7100000000000000000000000000000000000000000000000000000000)\n      mstore(0x04, 0x32)\n      revert(0x00, 0x24)\n    tag_129:\n      swap1\n      0x00\n      mstore\n      keccak256(0x00, 0x20)\n      swap1\n      0x05\n      mul\n      add\n        /* \"carbon.sol\":5471:5521  Proposal storage proposal = proposals[_proposalId] */\n      swap1\n      pop\n        /* \"carbon.sol\":5541:5549  proposal */\n      dup1\n        /* \"carbon.sol\":5541:5558  proposal.executed */\n      0x04\n      add\n      0x00\n      swap1\n      sload\n      swap1\n      0x0100\n      exp\n      swap1\n      div\n      0xff\n      and\n        /* \"carbon.sol\":5540:5558  !proposal.executed */\n      iszero\n        /* \"carbon.sol\":5532:5588  require(!proposal.executed, \"Proposal already executed\") */\n      tag_131\n      jumpi\n      mload(0x40)\n      0x08c379a000000000000000000000000000000000000000000000000000000000\n      dup2\n      mstore\n      0x04\n      add\n      tag_132\n      swap1\n      tag_117\n      jump\t// in\n    tag_132:\n      mload(0x40)\n      dup1\n      swap2\n      sub\n      swap1\n      revert\n    tag_131:\n        /* \"carbon.sol\":5605:5613  _support */\n      dup2\n        /* \"carbon.sol\":5601:5717  if (_support) {\r... */\n      iszero\n      tag_133\n      jumpi\n        /* \"carbon.sol\":5630:5638  proposal */\n      dup1\n        /* \"carbon.sol\":5630:5647  proposal.votesFor */\n      0x02\n      add\n      0x00\n        /* \"carbon.sol\":5630:5649  proposal.votesFor++ */\n      dup2\n      sload\n      dup1\n      swap3\n      swap2\n      swap1\n      tag_134\n      swap1\n      tag_135\n      jump\t// in\n    tag_134:\n      swap2\n      swap1\n      pop\n      sstore\n      pop\n        /* \"carbon.sol\":5601:5717  if (_support) {\r... */\n      jump(tag_136)\n    tag_133:\n        /* \"carbon.sol\":5682:5690  proposal */\n      dup1\n        /* \"carbon.sol\":5682:5703  proposal.votesAgainst */\n      0x03\n      add\n      0x00\n        /* \"carbon.sol\":5682:5705  proposal.votesAgainst++ */\n      dup2\n      sload\n      dup1\n      swap3\n      swap2\n      swap1\n      tag_137\n      swap1\n      tag_135\n      jump\t// in\n    tag_137:\n      swap2\n      swap1\n      pop\n      sstore\n      pop\n        /* \"carbon.sol\":5601:5717  if (_support) {\r... */\n    tag_136:\n        /* \"carbon.sol\":5734:5777  VoteCast(_proposalId, msg.sender, _support) */\n      0xe71fcdac32df1877c1700e7bda2a03157e20993363a28fc35ac495cefc76e4d4\n        /* \"carbon.sol\":5743:5754  _proposalId */\n      dup4\n        /* \"carbon.sol\":5756:5766  msg.sender */\n      caller\n        /* \"carbon.sol\":5768:5776  _support */\n      dup5\n        /* \"carbon.sol\":5734:5777  VoteCast(_proposalId, msg.sender, _support) */\n      mload(0x40)\n      tag_138\n      swap4\n      swap3\n      swap2\n      swap1\n      tag_139\n      jump\t// in\n    tag_138:\n      mload(0x40)\n      dup1\n      swap2\n      sub\n      swap1\n      log1\n        /* \"carbon.sol\":5320:5785  function voteOnProposal(uint256 _proposalId, bool _support) public {\r... */\n      pop\n      pop\n      pop\n      jump\t// out\n        /* \"carbon.sol\":544:610  mapping(address => mapping(uint256 => uint256)) public userCredits */\n    tag_46:\n      mstore(0x20, 0x03)\n      dup2\n      0x00\n      mstore\n      mstore(0x20, keccak256(0x00, 0x40))\n      dup1\n      0x00\n      mstore\n      keccak256(0x00, 0x40)\n      0x00\n      swap2\n      pop\n      swap2\n      pop\n      pop\n      sload\n      dup2\n      jump\t// out\n        /* \"carbon.sol\":456:483  uint256 public projectCount */\n    tag_51:\n      sload(0x02)\n      dup2\n      jump\t// out\n        /* \"carbon.sol\":3251:3619  function retireCredits(uint256 _projectId, uint256 _credits) public {\r... */\n    tag_57:\n        /* \"carbon.sol\":3351:3363  projectCount */\n      sload(0x02)\n        /* \"carbon.sol\":3338:3348  _projectId */\n      dup3\n        /* \"carbon.sol\":3338:3363  _projectId < projectCount */\n      lt\n        /* \"carbon.sol\":3330:3386  require(_projectId < projectCount, \"Invalid project ID\") */\n      tag_141\n      jumpi\n      mload(0x40)\n      0x08c379a000000000000000000000000000000000000000000000000000000000\n      dup2\n      mstore\n      0x04\n      add\n      tag_142\n      swap1\n      tag_143\n      jump\t// in\n    tag_142:\n      mload(0x40)\n      dup1\n      swap2\n      sub\n      swap1\n      revert\n    tag_141:\n        /* \"carbon.sol\":3444:3452  _credits */\n      dup1\n        /* \"carbon.sol\":3405:3416  userCredits */\n      0x03\n        /* \"carbon.sol\":3405:3428  userCredits[msg.sender] */\n      0x00\n        /* \"carbon.sol\":3417:3427  msg.sender */\n      caller\n        /* \"carbon.sol\":3405:3428  userCredits[msg.sender] */\n      0xffffffffffffffffffffffffffffffffffffffff\n      and\n      0xffffffffffffffffffffffffffffffffffffffff\n      and\n      dup2\n      mstore\n      0x20\n      add\n      swap1\n      dup2\n      mstore\n      0x20\n      add\n      0x00\n      keccak256\n        /* \"carbon.sol\":3405:3440  userCredits[msg.sender][_projectId] */\n      0x00\n        /* \"carbon.sol\":3429:3439  _projectId */\n      dup5\n        /* \"carbon.sol\":3405:3440  userCredits[msg.sender][_projectId] */\n      dup2\n      mstore\n      0x20\n      add\n      swap1\n      dup2\n      mstore\n      0x20\n      add\n      0x00\n      keccak256\n      sload\n        /* \"carbon.sol\":3405:3452  userCredits[msg.sender][_projectId] >= _credits */\n      lt\n      iszero\n        /* \"carbon.sol\":3397:3487  require(userCredits[msg.sender][_projectId] >= _credits, \"Insufficient credits to retire\") */\n      tag_144\n      jumpi\n      mload(0x40)\n      0x08c379a000000000000000000000000000000000000000000000000000000000\n      dup2\n      mstore\n      0x04\n      add\n      tag_145\n      swap1\n      tag_146\n      jump\t// in\n    tag_145:\n      mload(0x40)\n      dup1\n      swap2\n      sub\n      swap1\n      revert\n    tag_144:\n        /* \"carbon.sol\":3539:3547  _credits */\n      dup1\n        /* \"carbon.sol\":3500:3511  userCredits */\n      0x03\n        /* \"carbon.sol\":3500:3523  userCredits[msg.sender] */\n      0x00\n        /* \"carbon.sol\":3512:3522  msg.sender */\n      caller\n        /* \"carbon.sol\":3500:3523  userCredits[msg.sender] */\n      0xffffffffffffffffffffffffffffffffffffffff\n      and\n      0xffffffffffffffffffffffffffffffffffffffff\n      and\n      dup2\n      mstore\n      0x20\n      add\n      swap1\n      dup2\n      mstore\n      0x20\n      add\n      0x00\n      keccak256\n        /* \"carbon.sol\":3500:3535  userCredits[msg.sender][_projectId] */\n      0x00\n        /* \"carbon.sol\":3524:3534  _projectId */\n      dup5\n        /* \"carbon.sol\":3500:3535  userCredits[msg.sender][_projectId] */\n      dup2\n      mstore\n      0x20\n      add\n      swap1\n      dup2\n      mstore\n      0x20\n      add\n      0x00\n      keccak256\n      0x00\n        /* \"carbon.sol\":3500:3547  userCredits[msg.sender][_projectId] -= _credits */\n      dup3\n      dup3\n      sload\n      tag_147\n      swap2\n      swap1\n      tag_148\n      jump\t// in\n    tag_147:\n      swap3\n      pop\n      pop\n      dup2\n      swap1\n      sstore\n      pop\n        /* \"carbon.sol\":3578:3588  msg.sender */\n      caller\n        /* \"carbon.sol\":3563:3611  CreditsRetired(msg.sender, _projectId, _credits) */\n      0xffffffffffffffffffffffffffffffffffffffff\n      and\n      0x2ffd4879af328c871cf4d2be1d40d91f5ce4f202fd47e10e4c58d19667627da8\n        /* \"carbon.sol\":3590:3600  _projectId */\n      dup4\n        /* \"carbon.sol\":3602:3610  _credits */\n      dup4\n        /* \"carbon.sol\":3563:3611  CreditsRetired(msg.sender, _projectId, _credits) */\n      mload(0x40)\n      tag_149\n      swap3\n      swap2\n      swap1\n      tag_150\n      jump\t// in\n    tag_149:\n      mload(0x40)\n      dup1\n      swap2\n      sub\n      swap1\n      log2\n        /* \"carbon.sol\":3251:3619  function retireCredits(uint256 _projectId, uint256 _credits) public {\r... */\n      pop\n      pop\n      jump\t// out\n        /* \"carbon.sol\":4758:5285  function createProposal(string memory _description) public {\r... */\n    tag_62:\n        /* \"carbon.sol\":4850:4855  owner */\n      0x00\n      dup1\n      sload\n      swap1\n      0x0100\n      exp\n      swap1\n      div\n      0xffffffffffffffffffffffffffffffffffffffff\n      and\n        /* \"carbon.sol\":4836:4855  msg.sender == owner */\n      0xffffffffffffffffffffffffffffffffffffffff\n      and\n        /* \"carbon.sol\":4836:4846  msg.sender */\n      caller\n        /* \"carbon.sol\":4836:4855  msg.sender == owner */\n      0xffffffffffffffffffffffffffffffffffffffff\n      and\n      eq\n        /* \"carbon.sol\":4828:4895  require(msg.sender == owner, \"Only the owner can create proposals\") */\n      tag_152\n      jumpi\n      mload(0x40)\n      0x08c379a000000000000000000000000000000000000000000000000000000000\n      dup2\n      mstore\n      0x04\n      add\n      tag_153\n      swap1\n      tag_154\n      jump\t// in\n    tag_153:\n      mload(0x40)\n      dup1\n      swap2\n      sub\n      swap1\n      revert\n    tag_152:\n        /* \"carbon.sol\":4943:4944  0 */\n      0x00\n        /* \"carbon.sol\":4920:4932  _description */\n      dup2\n        /* \"carbon.sol\":4914:4940  bytes(_description).length */\n      mload\n        /* \"carbon.sol\":4914:4944  bytes(_description).length > 0 */\n      gt\n        /* \"carbon.sol\":4906:4985  require(bytes(_description).length > 0, \"Proposal description cannot be empty\") */\n      tag_155\n      jumpi\n      mload(0x40)\n      0x08c379a000000000000000000000000000000000000000000000000000000000\n      dup2\n      mstore\n      0x04\n      add\n      tag_156\n      swap1\n      tag_157\n      jump\t// in\n    tag_156:\n      mload(0x40)\n      dup1\n      swap2\n      sub\n      swap1\n      revert\n    tag_155:\n        /* \"carbon.sol\":4998:5007  proposals */\n      0x05\n        /* \"carbon.sol\":5013:5195  Proposal({\r... */\n      mload(0x40)\n      dup1\n      0xa0\n      add\n      0x40\n      mstore\n      dup1\n        /* \"carbon.sol\":5047:5057  msg.sender */\n      caller\n        /* \"carbon.sol\":5013:5195  Proposal({\r... */\n      0xffffffffffffffffffffffffffffffffffffffff\n      and\n      dup2\n      mstore\n      0x20\n      add\n        /* \"carbon.sol\":5085:5097  _description */\n      dup4\n        /* \"carbon.sol\":5013:5195  Proposal({\r... */\n      dup2\n      mstore\n      0x20\n      add\n        /* \"carbon.sol\":5122:5123  0 */\n      0x00\n        /* \"carbon.sol\":5013:5195  Proposal({\r... */\n      dup2\n      mstore\n      0x20\n      add\n        /* \"carbon.sol\":5152:5153  0 */\n      0x00\n        /* \"carbon.sol\":5013:5195  Proposal({\r... */\n      dup2\n      mstore\n      0x20\n      add\n        /* \"carbon.sol\":5178:5183  false */\n      0x00\n        /* \"carbon.sol\":5013:5195  Proposal({\r... */\n      iszero\n      iszero\n      dup2\n      mstore\n      pop\n        /* \"carbon.sol\":4998:5196  proposals.push(Proposal({\r... */\n      swap1\n      dup1\n      0x01\n      dup2\n      sload\n      add\n      dup1\n      dup3\n      sstore\n      dup1\n      swap2\n      pop\n      pop\n      0x01\n      swap1\n      sub\n      swap1\n      0x00\n      mstore\n      keccak256(0x00, 0x20)\n      swap1\n      0x05\n      mul\n      add\n      0x00\n      swap1\n      swap2\n      swap1\n      swap2\n      swap1\n      swap2\n      pop\n      0x00\n      dup3\n      add\n      mload\n      dup2\n      0x00\n      add\n      exp(0x0100, 0x00)\n      dup2\n      sload\n      dup2\n      0xffffffffffffffffffffffffffffffffffffffff\n      mul\n      not\n      and\n      swap1\n      dup4\n      0xffffffffffffffffffffffffffffffffffffffff\n      and\n      mul\n      or\n      swap1\n      sstore\n      pop\n      0x20\n      dup3\n      add\n      mload\n      dup2\n      0x01\n      add\n      swap1\n      dup1\n      mload\n      swap1\n      0x20\n      add\n      swap1\n      tag_159\n      swap3\n      swap2\n      swap1\n      tag_160\n      jump\t// in\n    tag_159:\n      pop\n      0x40\n      dup3\n      add\n      mload\n      dup2\n      0x02\n      add\n      sstore\n      0x60\n      dup3\n      add\n      mload\n      dup2\n      0x03\n      add\n      sstore\n      0x80\n      dup3\n      add\n      mload\n      dup2\n      0x04\n      add\n      exp(0x0100, 0x00)\n      dup2\n      sload\n      dup2\n      0xff\n      mul\n      not\n      and\n      swap1\n      dup4\n      iszero\n      iszero\n      mul\n      or\n      swap1\n      sstore\n      pop\n      pop\n      pop\n        /* \"carbon.sol\":5214:5277  ProposalCreated(proposals.length - 1, _description, msg.sender) */\n      0xc8c078bfee58e5822588f08b4509ed1eb5058e03f666cca84dd2d44bf5c288a8\n        /* \"carbon.sol\":5249:5250  1 */\n      0x01\n        /* \"carbon.sol\":5230:5239  proposals */\n      0x05\n        /* \"carbon.sol\":5230:5246  proposals.length */\n      dup1\n      sload\n      swap1\n      pop\n        /* \"carbon.sol\":5230:5250  proposals.length - 1 */\n      tag_161\n      swap2\n      swap1\n      tag_148\n      jump\t// in\n    tag_161:\n        /* \"carbon.sol\":5252:5264  _description */\n      dup3\n        /* \"carbon.sol\":5266:5276  msg.sender */\n      caller\n        /* \"carbon.sol\":5214:5277  ProposalCreated(proposals.length - 1, _description, msg.sender) */\n      mload(0x40)\n      tag_162\n      swap4\n      swap3\n      swap2\n      swap1\n      tag_163\n      jump\t// in\n    tag_162:\n      mload(0x40)\n      dup1\n      swap2\n      sub\n      swap1\n      log1\n        /* \"carbon.sol\":4758:5285  function createProposal(string memory _description) public {\r... */\n      pop\n      jump\t// out\n        /* \"carbon.sol\":2372:3193  function purchaseCredits(uint256 _projectId, uint256 _credits) public payable {\r... */\n    tag_65:\n        /* \"carbon.sol\":2482:2494  projectCount */\n      sload(0x02)\n        /* \"carbon.sol\":2469:2479  _projectId */\n      dup3\n        /* \"carbon.sol\":2469:2494  _projectId < projectCount */\n      lt\n        /* \"carbon.sol\":2461:2517  require(_projectId < projectCount, \"Invalid project ID\") */\n      tag_165\n      jumpi\n      mload(0x40)\n      0x08c379a000000000000000000000000000000000000000000000000000000000\n      dup2\n      mstore\n      0x04\n      add\n      tag_166\n      swap1\n      tag_143\n      jump\t// in\n    tag_166:\n      mload(0x40)\n      dup1\n      swap2\n      sub\n      swap1\n      revert\n    tag_165:\n        /* \"carbon.sol\":2528:2551  Project storage project */\n      0x00\n        /* \"carbon.sol\":2554:2562  projects */\n      0x01\n        /* \"carbon.sol\":2554:2574  projects[_projectId] */\n      0x00\n        /* \"carbon.sol\":2563:2573  _projectId */\n      dup5\n        /* \"carbon.sol\":2554:2574  projects[_projectId] */\n      dup2\n      mstore\n      0x20\n      add\n      swap1\n      dup2\n      mstore\n      0x20\n      add\n      0x00\n      keccak256\n        /* \"carbon.sol\":2528:2574  Project storage project = projects[_projectId] */\n      swap1\n      pop\n        /* \"carbon.sol\":2604:2605  0 */\n      0x00\n        /* \"carbon.sol\":2593:2601  _credits */\n      dup3\n        /* \"carbon.sol\":2593:2605  _credits > 0 */\n      gt\n        /* \"carbon.sol\":2585:2645  require(_credits > 0, \"Credits should be greater than zero\") */\n      tag_167\n      jumpi\n      mload(0x40)\n      0x08c379a000000000000000000000000000000000000000000000000000000000\n      dup2\n      mstore\n      0x04\n      add\n      tag_168\n      swap1\n      tag_169\n      jump\t// in\n    tag_168:\n      mload(0x40)\n      dup1\n      swap2\n      sub\n      swap1\n      revert\n    tag_167:\n        /* \"carbon.sol\":2676:2683  project */\n      dup1\n        /* \"carbon.sol\":2676:2700  project.availableCredits */\n      0x03\n      add\n      sload\n        /* \"carbon.sol\":2664:2672  _credits */\n      dup3\n        /* \"carbon.sol\":2664:2700  _credits <= project.availableCredits */\n      gt\n      iszero\n        /* \"carbon.sol\":2656:2733  require(_credits <= project.availableCredits, \"Not enough available credits\") */\n      tag_170\n      jumpi\n      mload(0x40)\n      0x08c379a000000000000000000000000000000000000000000000000000000000\n      dup2\n      mstore\n      0x04\n      add\n      tag_171\n      swap1\n      tag_172\n      jump\t// in\n    tag_171:\n      mload(0x40)\n      dup1\n      swap2\n      sub\n      swap1\n      revert\n    tag_170:\n        /* \"carbon.sol\":2776:2783  project */\n      dup1\n        /* \"carbon.sol\":2776:2798  project.pricePerCredit */\n      0x04\n      add\n      sload\n        /* \"carbon.sol\":2765:2773  _credits */\n      dup3\n        /* \"carbon.sol\":2765:2798  _credits * project.pricePerCredit */\n      tag_173\n      swap2\n      swap1\n      tag_174\n      jump\t// in\n    tag_173:\n        /* \"carbon.sol\":2752:2761  msg.value */\n      callvalue\n        /* \"carbon.sol\":2752:2798  msg.value >= _credits * project.pricePerCredit */\n      lt\n      iszero\n        /* \"carbon.sol\":2744:2823  require(msg.value >= _credits * project.pricePerCredit, \"Insufficient payment\") */\n      tag_175\n      jumpi\n      mload(0x40)\n      0x08c379a000000000000000000000000000000000000000000000000000000000\n      dup2\n      mstore\n      0x04\n      add\n      tag_176\n      swap1\n      tag_177\n      jump\t// in\n    tag_176:\n      mload(0x40)\n      dup1\n      swap2\n      sub\n      swap1\n      revert\n    tag_175:\n        /* \"carbon.sol\":2864:2872  _credits */\n      dup2\n        /* \"carbon.sol\":2836:2843  project */\n      dup2\n        /* \"carbon.sol\":2836:2860  project.availableCredits */\n      0x03\n      add\n      0x00\n        /* \"carbon.sol\":2836:2872  project.availableCredits -= _credits */\n      dup3\n      dup3\n      sload\n      tag_178\n      swap2\n      swap1\n      tag_148\n      jump\t// in\n    tag_178:\n      swap3\n      pop\n      pop\n      dup2\n      swap1\n      sstore\n      pop\n        /* \"carbon.sol\":2922:2930  _credits */\n      dup2\n        /* \"carbon.sol\":2883:2894  userCredits */\n      0x03\n        /* \"carbon.sol\":2883:2906  userCredits[msg.sender] */\n      0x00\n        /* \"carbon.sol\":2895:2905  msg.sender */\n      caller\n        /* \"carbon.sol\":2883:2906  userCredits[msg.sender] */\n      0xffffffffffffffffffffffffffffffffffffffff\n      and\n      0xffffffffffffffffffffffffffffffffffffffff\n      and\n      dup2\n      mstore\n      0x20\n      add\n      swap1\n      dup2\n      mstore\n      0x20\n      add\n      0x00\n      keccak256\n        /* \"carbon.sol\":2883:2918  userCredits[msg.sender][_projectId] */\n      0x00\n        /* \"carbon.sol\":2907:2917  _projectId */\n      dup6\n        /* \"carbon.sol\":2883:2918  userCredits[msg.sender][_projectId] */\n      dup2\n      mstore\n      0x20\n      add\n      swap1\n      dup2\n      mstore\n      0x20\n      add\n      0x00\n      keccak256\n      0x00\n        /* \"carbon.sol\":2883:2930  userCredits[msg.sender][_projectId] += _credits */\n      dup3\n      dup3\n      sload\n      tag_179\n      swap2\n      swap1\n      tag_180\n      jump\t// in\n    tag_179:\n      swap3\n      pop\n      pop\n      dup2\n      swap1\n      sstore\n      pop\n        /* \"carbon.sol\":2971:2979  _credits */\n      dup2\n        /* \"carbon.sol\":2941:2955  userReputation */\n      0x04\n        /* \"carbon.sol\":2941:2967  userReputation[msg.sender] */\n      0x00\n        /* \"carbon.sol\":2956:2966  msg.sender */\n      caller\n        /* \"carbon.sol\":2941:2967  userReputation[msg.sender] */\n      0xffffffffffffffffffffffffffffffffffffffff\n      and\n      0xffffffffffffffffffffffffffffffffffffffff\n      and\n      dup2\n      mstore\n      0x20\n      add\n      swap1\n      dup2\n      mstore\n      0x20\n      add\n      0x00\n      keccak256\n      0x00\n        /* \"carbon.sol\":2941:2979  userReputation[msg.sender] += _credits */\n      dup3\n      dup3\n      sload\n      tag_181\n      swap2\n      swap1\n      tag_180\n      jump\t// in\n    tag_181:\n      swap3\n      pop\n      pop\n      dup2\n      swap1\n      sstore\n      pop\n        /* \"carbon.sol\":3083:3090  project */\n      dup1\n        /* \"carbon.sol\":3083:3096  project.owner */\n      0x00\n      add\n      0x00\n      swap1\n      sload\n      swap1\n      0x0100\n      exp\n      swap1\n      div\n      0xffffffffffffffffffffffffffffffffffffffff\n      and\n        /* \"carbon.sol\":3075:3106  payable(project.owner).transfer */\n      0xffffffffffffffffffffffffffffffffffffffff\n      and\n        /* \"carbon.sol\":3075:3117  payable(project.owner).transfer(msg.value) */\n      0x08fc\n        /* \"carbon.sol\":3107:3116  msg.value */\n      callvalue\n        /* \"carbon.sol\":3075:3117  payable(project.owner).transfer(msg.value) */\n      swap1\n      dup2\n      iszero\n      mul\n      swap1\n      mload(0x40)\n      0x00\n      mload(0x40)\n      dup1\n      dup4\n      sub\n      dup2\n      dup6\n      dup9\n      dup9\n      call\n      swap4\n      pop\n      pop\n      pop\n      pop\n      iszero\n      dup1\n      iszero\n      tag_183\n      jumpi\n      returndatasize\n      0x00\n      dup1\n      returndatacopy\n      revert(0x00, returndatasize)\n    tag_183:\n      pop\n        /* \"carbon.sol\":3152:3162  msg.sender */\n      caller\n        /* \"carbon.sol\":3135:3185  CreditsPurchased(msg.sender, _projectId, _credits) */\n      0xffffffffffffffffffffffffffffffffffffffff\n      and\n      0xfb82fc1c5adf84899709e87563b69dd5f4ac33320f1c60dbca744bec717eb90f\n        /* \"carbon.sol\":3164:3174  _projectId */\n      dup5\n        /* \"carbon.sol\":3176:3184  _credits */\n      dup5\n        /* \"carbon.sol\":3135:3185  CreditsPurchased(msg.sender, _projectId, _credits) */\n      mload(0x40)\n      tag_184\n      swap3\n      swap2\n      swap1\n      tag_150\n      jump\t// in\n    tag_184:\n      mload(0x40)\n      dup1\n      swap2\n      sub\n      swap1\n      log2\n        /* \"carbon.sol\":2372:3193  function purchaseCredits(uint256 _projectId, uint256 _credits) public payable {\r... */\n      pop\n      pop\n      pop\n      jump\t// out\n        /* \"carbon.sol\":100:120  address public owner */\n    tag_68:\n      0x00\n      dup1\n      sload\n      swap1\n      0x0100\n      exp\n      swap1\n      div\n      0xffffffffffffffffffffffffffffffffffffffff\n      and\n      dup2\n      jump\t// out\n        /* \"carbon.sol\":4333:4452  function getUserReputation(address _user) public view returns (uint256) {\r... */\n    tag_75:\n        /* \"carbon.sol\":4396:4403  uint256 */\n      0x00\n        /* \"carbon.sol\":4423:4437  userReputation */\n      0x04\n        /* \"carbon.sol\":4423:4444  userReputation[_user] */\n      0x00\n        /* \"carbon.sol\":4438:4443  _user */\n      dup4\n        /* \"carbon.sol\":4423:4444  userReputation[_user] */\n      0xffffffffffffffffffffffffffffffffffffffff\n      and\n      0xffffffffffffffffffffffffffffffffffffffff\n      and\n      dup2\n      mstore\n      0x20\n      add\n      swap1\n      dup2\n      mstore\n      0x20\n      add\n      0x00\n      keccak256\n      sload\n        /* \"carbon.sol\":4416:4444  return userReputation[_user] */\n      swap1\n      pop\n        /* \"carbon.sol\":4333:4452  function getUserReputation(address _user) public view returns (uint256) {\r... */\n      swap2\n      swap1\n      pop\n      jump\t// out\n        /* \"carbon.sol\":4076:4288  function getUserCredits(address _user, uint256 _projectId) public view returns (uint256) {\r... */\n    tag_80:\n        /* \"carbon.sol\":4156:4163  uint256 */\n      0x00\n        /* \"carbon.sol\":4197:4209  projectCount */\n      sload(0x02)\n        /* \"carbon.sol\":4184:4194  _projectId */\n      dup3\n        /* \"carbon.sol\":4184:4209  _projectId < projectCount */\n      lt\n        /* \"carbon.sol\":4176:4232  require(_projectId < projectCount, \"Invalid project ID\") */\n      tag_187\n      jumpi\n      mload(0x40)\n      0x08c379a000000000000000000000000000000000000000000000000000000000\n      dup2\n      mstore\n      0x04\n      add\n      tag_188\n      swap1\n      tag_143\n      jump\t// in\n    tag_188:\n      mload(0x40)\n      dup1\n      swap2\n      sub\n      swap1\n      revert\n    tag_187:\n        /* \"carbon.sol\":4250:4261  userCredits */\n      0x03\n        /* \"carbon.sol\":4250:4268  userCredits[_user] */\n      0x00\n        /* \"carbon.sol\":4262:4267  _user */\n      dup5\n        /* \"carbon.sol\":4250:4268  userCredits[_user] */\n      0xffffffffffffffffffffffffffffffffffffffff\n      and\n      0xffffffffffffffffffffffffffffffffffffffff\n      and\n      dup2\n      mstore\n      0x20\n      add\n      swap1\n      dup2\n      mstore\n      0x20\n      add\n      0x00\n      keccak256\n        /* \"carbon.sol\":4250:4280  userCredits[_user][_projectId] */\n      0x00\n        /* \"carbon.sol\":4269:4279  _projectId */\n      dup4\n        /* \"carbon.sol\":4250:4280  userCredits[_user][_projectId] */\n      dup2\n      mstore\n      0x20\n      add\n      swap1\n      dup2\n      mstore\n      0x20\n      add\n      0x00\n      keccak256\n      sload\n        /* \"carbon.sol\":4243:4280  return userCredits[_user][_projectId] */\n      swap1\n      pop\n        /* \"carbon.sol\":4076:4288  function getUserCredits(address _user, uint256 _projectId) public view returns (uint256) {\r... */\n      swap3\n      swap2\n      pop\n      pop\n      jump\t// out\n        /* \"carbon.sol\":667:716  mapping(address => uint256) public userReputation */\n    tag_85:\n      mstore(0x20, 0x04)\n      dup1\n      0x00\n      mstore\n      keccak256(0x00, 0x40)\n      0x00\n      swap2\n      pop\n      swap1\n      pop\n      sload\n      dup2\n      jump\t// out\n        /* \"carbon.sol\":1522:2317  function registerProject(string memory _name, uint256 _totalCredits, uint256 _pricePerCredit) public {\r... */\n    tag_91:\n        /* \"carbon.sol\":1656:1661  owner */\n      0x00\n      dup1\n      sload\n      swap1\n      0x0100\n      exp\n      swap1\n      div\n      0xffffffffffffffffffffffffffffffffffffffff\n      and\n        /* \"carbon.sol\":1642:1661  msg.sender == owner */\n      0xffffffffffffffffffffffffffffffffffffffff\n      and\n        /* \"carbon.sol\":1642:1652  msg.sender */\n      caller\n        /* \"carbon.sol\":1642:1661  msg.sender == owner */\n      0xffffffffffffffffffffffffffffffffffffffff\n      and\n      eq\n        /* \"carbon.sol\":1634:1702  require(msg.sender == owner, \"Only the owner can register projects\") */\n      tag_190\n      jumpi\n      mload(0x40)\n      0x08c379a000000000000000000000000000000000000000000000000000000000\n      dup2\n      mstore\n      0x04\n      add\n      tag_191\n      swap1\n      tag_192\n      jump\t// in\n    tag_191:\n      mload(0x40)\n      dup1\n      swap2\n      sub\n      swap1\n      revert\n    tag_190:\n        /* \"carbon.sol\":1743:1744  0 */\n      0x00\n        /* \"carbon.sol\":1727:1732  _name */\n      dup4\n        /* \"carbon.sol\":1721:1740  bytes(_name).length */\n      mload\n        /* \"carbon.sol\":1721:1744  bytes(_name).length > 0 */\n      gt\n        /* \"carbon.sol\":1713:1777  require(bytes(_name).length > 0, \"Project name cannot be empty\") */\n      tag_193\n      jumpi\n      mload(0x40)\n      0x08c379a000000000000000000000000000000000000000000000000000000000\n      dup2\n      mstore\n      0x04\n      add\n      tag_194\n      swap1\n      tag_195\n      jump\t// in\n    tag_194:\n      mload(0x40)\n      dup1\n      swap2\n      sub\n      swap1\n      revert\n    tag_193:\n        /* \"carbon.sol\":1812:1813  0 */\n      0x00\n        /* \"carbon.sol\":1796:1809  _totalCredits */\n      dup3\n        /* \"carbon.sol\":1796:1813  _totalCredits > 0 */\n      gt\n        /* \"carbon.sol\":1788:1859  require(_totalCredits > 0, \"Total credits should be greater than zero\") */\n      tag_196\n      jumpi\n      mload(0x40)\n      0x08c379a000000000000000000000000000000000000000000000000000000000\n      dup2\n      mstore\n      0x04\n      add\n      tag_197\n      swap1\n      tag_198\n      jump\t// in\n    tag_197:\n      mload(0x40)\n      dup1\n      swap2\n      sub\n      swap1\n      revert\n    tag_196:\n        /* \"carbon.sol\":1896:1897  0 */\n      0x00\n        /* \"carbon.sol\":1878:1893  _pricePerCredit */\n      dup2\n        /* \"carbon.sol\":1878:1897  _pricePerCredit > 0 */\n      gt\n        /* \"carbon.sol\":1870:1946  require(_pricePerCredit > 0, \"Price per credit should be greater than zero\") */\n      tag_199\n      jumpi\n      mload(0x40)\n      0x08c379a000000000000000000000000000000000000000000000000000000000\n      dup2\n      mstore\n      0x04\n      add\n      tag_200\n      swap1\n      tag_201\n      jump\t// in\n    tag_200:\n      mload(0x40)\n      dup1\n      swap2\n      sub\n      swap1\n      revert\n    tag_199:\n        /* \"carbon.sol\":1984:2196  Project({\r... */\n      mload(0x40)\n      dup1\n      0xa0\n      add\n      0x40\n      mstore\n      dup1\n        /* \"carbon.sol\":2014:2024  msg.sender */\n      caller\n        /* \"carbon.sol\":1984:2196  Project({\r... */\n      0xffffffffffffffffffffffffffffffffffffffff\n      and\n      dup2\n      mstore\n      0x20\n      add\n        /* \"carbon.sol\":2045:2050  _name */\n      dup5\n        /* \"carbon.sol\":1984:2196  Project({\r... */\n      dup2\n      mstore\n      0x20\n      add\n        /* \"carbon.sol\":2079:2092  _totalCredits */\n      dup4\n        /* \"carbon.sol\":1984:2196  Project({\r... */\n      dup2\n      mstore\n      0x20\n      add\n        /* \"carbon.sol\":2125:2138  _totalCredits */\n      dup4\n        /* \"carbon.sol\":1984:2196  Project({\r... */\n      dup2\n      mstore\n      0x20\n      add\n        /* \"carbon.sol\":2169:2184  _pricePerCredit */\n      dup3\n        /* \"carbon.sol\":1984:2196  Project({\r... */\n      dup2\n      mstore\n      pop\n        /* \"carbon.sol\":1959:1967  projects */\n      0x01\n        /* \"carbon.sol\":1959:1981  projects[projectCount] */\n      0x00\n        /* \"carbon.sol\":1968:1980  projectCount */\n      sload(0x02)\n        /* \"carbon.sol\":1959:1981  projects[projectCount] */\n      dup2\n      mstore\n      0x20\n      add\n      swap1\n      dup2\n      mstore\n      0x20\n      add\n      0x00\n      keccak256\n        /* \"carbon.sol\":1959:2196  projects[projectCount] = Project({\r... */\n      0x00\n      dup3\n      add\n      mload\n      dup2\n      0x00\n      add\n      exp(0x0100, 0x00)\n      dup2\n      sload\n      dup2\n      0xffffffffffffffffffffffffffffffffffffffff\n      mul\n      not\n      and\n      swap1\n      dup4\n      0xffffffffffffffffffffffffffffffffffffffff\n      and\n      mul\n      or\n      swap1\n      sstore\n      pop\n      0x20\n      dup3\n      add\n      mload\n      dup2\n      0x01\n      add\n      swap1\n      dup1\n      mload\n      swap1\n      0x20\n      add\n      swap1\n      tag_202\n      swap3\n      swap2\n      swap1\n      tag_160\n      jump\t// in\n    tag_202:\n      pop\n      0x40\n      dup3\n      add\n      mload\n      dup2\n      0x02\n      add\n      sstore\n      0x60\n      dup3\n      add\n      mload\n      dup2\n      0x03\n      add\n      sstore\n      0x80\n      dup3\n      add\n      mload\n      dup2\n      0x04\n      add\n      sstore\n      swap1\n      pop\n      pop\n        /* \"carbon.sol\":2214:2284  ProjectRegistered(projectCount, _name, _totalCredits, _pricePerCredit) */\n      0x50c6a8b423458d44f896828d57af33000ead07320bc572c2b3d856e7a954df4b\n        /* \"carbon.sol\":2232:2244  projectCount */\n      sload(0x02)\n        /* \"carbon.sol\":2246:2251  _name */\n      dup5\n        /* \"carbon.sol\":2253:2266  _totalCredits */\n      dup5\n        /* \"carbon.sol\":2268:2283  _pricePerCredit */\n      dup5\n        /* \"carbon.sol\":2214:2284  ProjectRegistered(projectCount, _name, _totalCredits, _pricePerCredit) */\n      mload(0x40)\n      tag_203\n      swap5\n      swap4\n      swap3\n      swap2\n      swap1\n      tag_204\n      jump\t// in\n    tag_203:\n      mload(0x40)\n      dup1\n      swap2\n      sub\n      swap1\n      log1\n        /* \"carbon.sol\":2295:2307  projectCount */\n      0x02\n      0x00\n        /* \"carbon.sol\":2295:2309  projectCount++ */\n      dup2\n      sload\n      dup1\n      swap3\n      swap2\n      swap1\n      tag_205\n      swap1\n      tag_135\n      jump\t// in\n    tag_205:\n      swap2\n      swap1\n      pop\n      sstore\n      pop\n        /* \"carbon.sol\":1522:2317  function registerProject(string memory _name, uint256 _totalCredits, uint256 _pricePerCredit) public {\r... */\n      pop\n      pop\n      pop\n      jump\t// out\n        /* \"carbon.sol\":3655:4018  function getProject(uint256 _projectId) public view returns (string memory, uint256, uint256, uint256, address) {\r... */\n    tag_95:\n        /* \"carbon.sol\":3716:3729  string memory */\n      0x60\n        /* \"carbon.sol\":3731:3738  uint256 */\n      0x00\n        /* \"carbon.sol\":3740:3747  uint256 */\n      dup1\n        /* \"carbon.sol\":3749:3756  uint256 */\n      0x00\n        /* \"carbon.sol\":3758:3765  address */\n      dup1\n        /* \"carbon.sol\":3799:3811  projectCount */\n      sload(0x02)\n        /* \"carbon.sol\":3786:3796  _projectId */\n      dup7\n        /* \"carbon.sol\":3786:3811  _projectId < projectCount */\n      lt\n        /* \"carbon.sol\":3778:3834  require(_projectId < projectCount, \"Invalid project ID\") */\n      tag_207\n      jumpi\n      mload(0x40)\n      0x08c379a000000000000000000000000000000000000000000000000000000000\n      dup2\n      mstore\n      0x04\n      add\n      tag_208\n      swap1\n      tag_143\n      jump\t// in\n    tag_208:\n      mload(0x40)\n      dup1\n      swap2\n      sub\n      swap1\n      revert\n    tag_207:\n        /* \"carbon.sol\":3845:3868  Project storage project */\n      0x00\n        /* \"carbon.sol\":3871:3879  projects */\n      0x01\n        /* \"carbon.sol\":3871:3891  projects[_projectId] */\n      0x00\n        /* \"carbon.sol\":3880:3890  _projectId */\n      dup9\n        /* \"carbon.sol\":3871:3891  projects[_projectId] */\n      dup2\n      mstore\n      0x20\n      add\n      swap1\n      dup2\n      mstore\n      0x20\n      add\n      0x00\n      keccak256\n        /* \"carbon.sol\":3845:3891  Project storage project = projects[_projectId] */\n      swap1\n      pop\n        /* \"carbon.sol\":3910:3917  project */\n      dup1\n        /* \"carbon.sol\":3910:3922  project.name */\n      0x01\n      add\n        /* \"carbon.sol\":3924:3931  project */\n      dup2\n        /* \"carbon.sol\":3924:3944  project.totalCredits */\n      0x02\n      add\n      sload\n        /* \"carbon.sol\":3946:3953  project */\n      dup3\n        /* \"carbon.sol\":3946:3970  project.availableCredits */\n      0x03\n      add\n      sload\n        /* \"carbon.sol\":3972:3979  project */\n      dup4\n        /* \"carbon.sol\":3972:3994  project.pricePerCredit */\n      0x04\n      add\n      sload\n        /* \"carbon.sol\":3996:4003  project */\n      dup5\n        /* \"carbon.sol\":3996:4009  project.owner */\n      0x00\n      add\n      0x00\n      swap1\n      sload\n      swap1\n      0x0100\n      exp\n      swap1\n      div\n      0xffffffffffffffffffffffffffffffffffffffff\n      and\n        /* \"carbon.sol\":3902:4010  return (project.name, project.totalCredits, project.availableCredits, project.pricePerCredit, project.owner) */\n      dup5\n      dup1\n      sload\n      tag_209\n      swap1\n      tag_101\n      jump\t// in\n    tag_209:\n      dup1\n      0x1f\n      add\n      0x20\n      dup1\n      swap2\n      div\n      mul\n      0x20\n      add\n      mload(0x40)\n      swap1\n      dup2\n      add\n      0x40\n      mstore\n      dup1\n      swap3\n      swap2\n      swap1\n      dup2\n      dup2\n      mstore\n      0x20\n      add\n      dup3\n      dup1\n      sload\n      tag_210\n      swap1\n      tag_101\n      jump\t// in\n    tag_210:\n      dup1\n      iszero\n      tag_211\n      jumpi\n      dup1\n      0x1f\n      lt\n      tag_212\n      jumpi\n      0x0100\n      dup1\n      dup4\n      sload\n      div\n      mul\n      dup4\n      mstore\n      swap2\n      0x20\n      add\n      swap2\n      jump(tag_211)\n    tag_212:\n      dup3\n      add\n      swap2\n      swap1\n      0x00\n      mstore\n      keccak256(0x00, 0x20)\n      swap1\n    tag_213:\n      dup2\n      sload\n      dup2\n      mstore\n      swap1\n      0x01\n      add\n      swap1\n      0x20\n      add\n      dup1\n      dup4\n      gt\n      tag_213\n      jumpi\n      dup3\n      swap1\n      sub\n      0x1f\n      and\n      dup3\n      add\n      swap2\n    tag_211:\n      pop\n      pop\n      pop\n      pop\n      pop\n      swap5\n      pop\n      swap6\n      pop\n      swap6\n      pop\n      swap6\n      pop\n      swap6\n      pop\n      swap6\n      pop\n      pop\n        /* \"carbon.sol\":3655:4018  function getProject(uint256 _projectId) public view returns (string memory, uint256, uint256, uint256, address) {\r... */\n      swap2\n      swap4\n      swap6\n      swap1\n      swap3\n      swap5\n      pop\n      jump\t// out\n    tag_160:\n      dup3\n      dup1\n      sload\n      tag_214\n      swap1\n      tag_101\n      jump\t// in\n    tag_214:\n      swap1\n      0x00\n      mstore\n      keccak256(0x00, 0x20)\n      swap1\n      0x1f\n      add\n      0x20\n      swap1\n      div\n      dup2\n      add\n      swap3\n      dup3\n      tag_216\n      jumpi\n      0x00\n      dup6\n      sstore\n      jump(tag_215)\n    tag_216:\n      dup3\n      0x1f\n      lt\n      tag_217\n      jumpi\n      dup1\n      mload\n      not(0xff)\n      and\n      dup4\n      dup1\n      add\n      or\n      dup6\n      sstore\n      jump(tag_215)\n    tag_217:\n      dup3\n      dup1\n      add\n      0x01\n      add\n      dup6\n      sstore\n      dup3\n      iszero\n      tag_215\n      jumpi\n      swap2\n      dup3\n      add\n    tag_218:\n      dup3\n      dup2\n      gt\n      iszero\n      tag_219\n      jumpi\n      dup3\n      mload\n      dup3\n      sstore\n      swap2\n      0x20\n      add\n      swap2\n      swap1\n      0x01\n      add\n      swap1\n      jump(tag_218)\n    tag_219:\n    tag_215:\n      pop\n      swap1\n      pop\n      tag_220\n      swap2\n      swap1\n      tag_221\n      jump\t// in\n    tag_220:\n      pop\n      swap1\n      jump\t// out\n    tag_221:\n    tag_222:\n      dup1\n      dup3\n      gt\n      iszero\n      tag_223\n      jumpi\n      0x00\n      dup2\n      0x00\n      swap1\n      sstore\n      pop\n      0x01\n      add\n      jump(tag_222)\n    tag_223:\n      pop\n      swap1\n      jump\t// out\n        /* \"#utility.yul\":7:351   */\n    tag_225:\n      0x00\n        /* \"#utility.yul\":110:175   */\n      tag_227\n        /* \"#utility.yul\":125:174   */\n      tag_228\n        /* \"#utility.yul\":167:173   */\n      dup5\n        /* \"#utility.yul\":125:174   */\n      tag_229\n      jump\t// in\n    tag_228:\n        /* \"#utility.yul\":110:175   */\n      tag_230\n      jump\t// in\n    tag_227:\n        /* \"#utility.yul\":101:175   */\n      swap1\n      pop\n        /* \"#utility.yul\":198:204   */\n      dup3\n        /* \"#utility.yul\":191:196   */\n      dup2\n        /* \"#utility.yul\":184:205   */\n      mstore\n        /* \"#utility.yul\":236:240   */\n      0x20\n        /* \"#utility.yul\":229:234   */\n      dup2\n        /* \"#utility.yul\":225:241   */\n      add\n        /* \"#utility.yul\":274:277   */\n      dup5\n        /* \"#utility.yul\":265:271   */\n      dup5\n        /* \"#utility.yul\":260:263   */\n      dup5\n        /* \"#utility.yul\":256:272   */\n      add\n        /* \"#utility.yul\":253:278   */\n      gt\n        /* \"#utility.yul\":250:252   */\n      iszero\n      tag_231\n      jumpi\n        /* \"#utility.yul\":291:292   */\n      0x00\n        /* \"#utility.yul\":288:289   */\n      dup1\n        /* \"#utility.yul\":281:293   */\n      revert\n        /* \"#utility.yul\":250:252   */\n    tag_231:\n        /* \"#utility.yul\":304:345   */\n      tag_232\n        /* \"#utility.yul\":338:344   */\n      dup5\n        /* \"#utility.yul\":333:336   */\n      dup3\n        /* \"#utility.yul\":328:331   */\n      dup6\n        /* \"#utility.yul\":304:345   */\n      tag_233\n      jump\t// in\n    tag_232:\n        /* \"#utility.yul\":91:351   */\n      pop\n      swap4\n      swap3\n      pop\n      pop\n      pop\n      jump\t// out\n        /* \"#utility.yul\":357:496   */\n    tag_234:\n      0x00\n        /* \"#utility.yul\":441:447   */\n      dup2\n        /* \"#utility.yul\":428:448   */\n      calldataload\n        /* \"#utility.yul\":419:448   */\n      swap1\n      pop\n        /* \"#utility.yul\":457:490   */\n      tag_236\n        /* \"#utility.yul\":484:489   */\n      dup2\n        /* \"#utility.yul\":457:490   */\n      tag_237\n      jump\t// in\n    tag_236:\n        /* \"#utility.yul\":409:496   */\n      swap3\n      swap2\n      pop\n      pop\n      jump\t// out\n        /* \"#utility.yul\":502:635   */\n    tag_238:\n      0x00\n        /* \"#utility.yul\":583:589   */\n      dup2\n        /* \"#utility.yul\":570:590   */\n      calldataload\n        /* \"#utility.yul\":561:590   */\n      swap1\n      pop\n        /* \"#utility.yul\":599:629   */\n      tag_240\n        /* \"#utility.yul\":623:628   */\n      dup2\n        /* \"#utility.yul\":599:629   */\n      tag_241\n      jump\t// in\n    tag_240:\n        /* \"#utility.yul\":551:635   */\n      swap3\n      swap2\n      pop\n      pop\n      jump\t// out\n        /* \"#utility.yul\":655:928   */\n    tag_242:\n      0x00\n        /* \"#utility.yul\":760:763   */\n      dup3\n        /* \"#utility.yul\":753:757   */\n      0x1f\n        /* \"#utility.yul\":745:751   */\n      dup4\n        /* \"#utility.yul\":741:758   */\n      add\n        /* \"#utility.yul\":737:764   */\n      slt\n        /* \"#utility.yul\":727:729   */\n      tag_244\n      jumpi\n        /* \"#utility.yul\":778:779   */\n      0x00\n        /* \"#utility.yul\":775:776   */\n      dup1\n        /* \"#utility.yul\":768:780   */\n      revert\n        /* \"#utility.yul\":727:729   */\n    tag_244:\n        /* \"#utility.yul\":818:824   */\n      dup2\n        /* \"#utility.yul\":805:825   */\n      calldataload\n        /* \"#utility.yul\":843:922   */\n      tag_245\n        /* \"#utility.yul\":918:921   */\n      dup5\n        /* \"#utility.yul\":910:916   */\n      dup3\n        /* \"#utility.yul\":903:907   */\n      0x20\n        /* \"#utility.yul\":895:901   */\n      dup7\n        /* \"#utility.yul\":891:908   */\n      add\n        /* \"#utility.yul\":843:922   */\n      tag_225\n      jump\t// in\n    tag_245:\n        /* \"#utility.yul\":834:922   */\n      swap2\n      pop\n        /* \"#utility.yul\":717:928   */\n      pop\n      swap3\n      swap2\n      pop\n      pop\n      jump\t// out\n        /* \"#utility.yul\":934:1073   */\n    tag_246:\n      0x00\n        /* \"#utility.yul\":1018:1024   */\n      dup2\n        /* \"#utility.yul\":1005:1025   */\n      calldataload\n        /* \"#utility.yul\":996:1025   */\n      swap1\n      pop\n        /* \"#utility.yul\":1034:1067   */\n      tag_248\n        /* \"#utility.yul\":1061:1066   */\n      dup2\n        /* \"#utility.yul\":1034:1067   */\n      tag_249\n      jump\t// in\n    tag_248:\n        /* \"#utility.yul\":986:1073   */\n      swap3\n      swap2\n      pop\n      pop\n      jump\t// out\n        /* \"#utility.yul\":1079:1341   */\n    tag_74:\n      0x00\n        /* \"#utility.yul\":1187:1189   */\n      0x20\n        /* \"#utility.yul\":1175:1184   */\n      dup3\n        /* \"#utility.yul\":1166:1173   */\n      dup5\n        /* \"#utility.yul\":1162:1185   */\n      sub\n        /* \"#utility.yul\":1158:1190   */\n      slt\n        /* \"#utility.yul\":1155:1157   */\n      iszero\n      tag_251\n      jumpi\n        /* \"#utility.yul\":1203:1204   */\n      0x00\n        /* \"#utility.yul\":1200:1201   */\n      dup1\n        /* \"#utility.yul\":1193:1205   */\n      revert\n        /* \"#utility.yul\":1155:1157   */\n    tag_251:\n        /* \"#utility.yul\":1246:1247   */\n      0x00\n        /* \"#utility.yul\":1271:1324   */\n      tag_252\n        /* \"#utility.yul\":1316:1323   */\n      dup5\n        /* \"#utility.yul\":1307:1313   */\n      dup3\n        /* \"#utility.yul\":1296:1305   */\n      dup6\n        /* \"#utility.yul\":1292:1314   */\n      add\n        /* \"#utility.yul\":1271:1324   */\n      tag_234\n      jump\t// in\n    tag_252:\n        /* \"#utility.yul\":1261:1324   */\n      swap2\n      pop\n        /* \"#utility.yul\":1217:1334   */\n      pop\n        /* \"#utility.yul\":1145:1341   */\n      swap3\n      swap2\n      pop\n      pop\n      jump\t// out\n        /* \"#utility.yul\":1347:1754   */\n    tag_45:\n      0x00\n      dup1\n        /* \"#utility.yul\":1472:1474   */\n      0x40\n        /* \"#utility.yul\":1460:1469   */\n      dup4\n        /* \"#utility.yul\":1451:1458   */\n      dup6\n        /* \"#utility.yul\":1447:1470   */\n      sub\n        /* \"#utility.yul\":1443:1475   */\n      slt\n        /* \"#utility.yul\":1440:1442   */\n      iszero\n      tag_254\n      jumpi\n        /* \"#utility.yul\":1488:1489   */\n      0x00\n        /* \"#utility.yul\":1485:1486   */\n      dup1\n        /* \"#utility.yul\":1478:1490   */\n      revert\n        /* \"#utility.yul\":1440:1442   */\n    tag_254:\n        /* \"#utility.yul\":1531:1532   */\n      0x00\n        /* \"#utility.yul\":1556:1609   */\n      tag_255\n        /* \"#utility.yul\":1601:1608   */\n      dup6\n        /* \"#utility.yul\":1592:1598   */\n      dup3\n        /* \"#utility.yul\":1581:1590   */\n      dup7\n        /* \"#utility.yul\":1577:1599   */\n      add\n        /* \"#utility.yul\":1556:1609   */\n      tag_234\n      jump\t// in\n    tag_255:\n        /* \"#utility.yul\":1546:1609   */\n      swap3\n      pop\n        /* \"#utility.yul\":1502:1619   */\n      pop\n        /* \"#utility.yul\":1658:1660   */\n      0x20\n        /* \"#utility.yul\":1684:1737   */\n      tag_256\n        /* \"#utility.yul\":1729:1736   */\n      dup6\n        /* \"#utility.yul\":1720:1726   */\n      dup3\n        /* \"#utility.yul\":1709:1718   */\n      dup7\n        /* \"#utility.yul\":1705:1727   */\n      add\n        /* \"#utility.yul\":1684:1737   */\n      tag_246\n      jump\t// in\n    tag_256:\n        /* \"#utility.yul\":1674:1737   */\n      swap2\n      pop\n        /* \"#utility.yul\":1629:1747   */\n      pop\n        /* \"#utility.yul\":1430:1754   */\n      swap3\n      pop\n      swap3\n      swap1\n      pop\n      jump\t// out\n        /* \"#utility.yul\":1760:2135   */\n    tag_61:\n      0x00\n        /* \"#utility.yul\":1878:1880   */\n      0x20\n        /* \"#utility.yul\":1866:1875   */\n      dup3\n        /* \"#utility.yul\":1857:1864   */\n      dup5\n        /* \"#utility.yul\":1853:1876   */\n      sub\n        /* \"#utility.yul\":1849:1881   */\n      slt\n        /* \"#utility.yul\":1846:1848   */\n      iszero\n      tag_258\n      jumpi\n        /* \"#utility.yul\":1894:1895   */\n      0x00\n        /* \"#utility.yul\":1891:1892   */\n      dup1\n        /* \"#utility.yul\":1884:1896   */\n      revert\n        /* \"#utility.yul\":1846:1848   */\n    tag_258:\n        /* \"#utility.yul\":1965:1966   */\n      0x00\n        /* \"#utility.yul\":1954:1963   */\n      dup3\n        /* \"#utility.yul\":1950:1967   */\n      add\n        /* \"#utility.yul\":1937:1968   */\n      calldataload\n        /* \"#utility.yul\":1995:2013   */\n      0xffffffffffffffff\n        /* \"#utility.yul\":1987:1993   */\n      dup2\n        /* \"#utility.yul\":1984:2014   */\n      gt\n        /* \"#utility.yul\":1981:1983   */\n      iszero\n      tag_259\n      jumpi\n        /* \"#utility.yul\":2027:2028   */\n      0x00\n        /* \"#utility.yul\":2024:2025   */\n      dup1\n        /* \"#utility.yul\":2017:2029   */\n      revert\n        /* \"#utility.yul\":1981:1983   */\n    tag_259:\n        /* \"#utility.yul\":2055:2118   */\n      tag_260\n        /* \"#utility.yul\":2110:2117   */\n      dup5\n        /* \"#utility.yul\":2101:2107   */\n      dup3\n        /* \"#utility.yul\":2090:2099   */\n      dup6\n        /* \"#utility.yul\":2086:2108   */\n      add\n        /* \"#utility.yul\":2055:2118   */\n      tag_242\n      jump\t// in\n    tag_260:\n        /* \"#utility.yul\":2045:2118   */\n      swap2\n      pop\n        /* \"#utility.yul\":1908:2128   */\n      pop\n        /* \"#utility.yul\":1836:2135   */\n      swap3\n      swap2\n      pop\n      pop\n      jump\t// out\n        /* \"#utility.yul\":2141:2806   */\n    tag_90:\n      0x00\n      dup1\n      0x00\n        /* \"#utility.yul\":2293:2295   */\n      0x60\n        /* \"#utility.yul\":2281:2290   */\n      dup5\n        /* \"#utility.yul\":2272:2279   */\n      dup7\n        /* \"#utility.yul\":2268:2291   */\n      sub\n        /* \"#utility.yul\":2264:2296   */\n      slt\n        /* \"#utility.yul\":2261:2263   */\n      iszero\n      tag_262\n      jumpi\n        /* \"#utility.yul\":2309:2310   */\n      0x00\n        /* \"#utility.yul\":2306:2307   */\n      dup1\n        /* \"#utility.yul\":2299:2311   */\n      revert\n        /* \"#utility.yul\":2261:2263   */\n    tag_262:\n        /* \"#utility.yul\":2380:2381   */\n      0x00\n        /* \"#utility.yul\":2369:2378   */\n      dup5\n        /* \"#utility.yul\":2365:2382   */\n      add\n        /* \"#utility.yul\":2352:2383   */\n      calldataload\n        /* \"#utility.yul\":2410:2428   */\n      0xffffffffffffffff\n        /* \"#utility.yul\":2402:2408   */\n      dup2\n        /* \"#utility.yul\":2399:2429   */\n      gt\n        /* \"#utility.yul\":2396:2398   */\n      iszero\n      tag_263\n      jumpi\n        /* \"#utility.yul\":2442:2443   */\n      0x00\n        /* \"#utility.yul\":2439:2440   */\n      dup1\n        /* \"#utility.yul\":2432:2444   */\n      revert\n        /* \"#utility.yul\":2396:2398   */\n    tag_263:\n        /* \"#utility.yul\":2470:2533   */\n      tag_264\n        /* \"#utility.yul\":2525:2532   */\n      dup7\n        /* \"#utility.yul\":2516:2522   */\n      dup3\n        /* \"#utility.yul\":2505:2514   */\n      dup8\n        /* \"#utility.yul\":2501:2523   */\n      add\n        /* \"#utility.yul\":2470:2533   */\n      tag_242\n      jump\t// in\n    tag_264:\n        /* \"#utility.yul\":2460:2533   */\n      swap4\n      pop\n        /* \"#utility.yul\":2323:2543   */\n      pop\n        /* \"#utility.yul\":2582:2584   */\n      0x20\n        /* \"#utility.yul\":2608:2661   */\n      tag_265\n        /* \"#utility.yul\":2653:2660   */\n      dup7\n        /* \"#utility.yul\":2644:2650   */\n      dup3\n        /* \"#utility.yul\":2633:2642   */\n      dup8\n        /* \"#utility.yul\":2629:2651   */\n      add\n        /* \"#utility.yul\":2608:2661   */\n      tag_246\n      jump\t// in\n    tag_265:\n        /* \"#utility.yul\":2598:2661   */\n      swap3\n      pop\n        /* \"#utility.yul\":2553:2671   */\n      pop\n        /* \"#utility.yul\":2710:2712   */\n      0x40\n        /* \"#utility.yul\":2736:2789   */\n      tag_266\n        /* \"#utility.yul\":2781:2788   */\n      dup7\n        /* \"#utility.yul\":2772:2778   */\n      dup3\n        /* \"#utility.yul\":2761:2770   */\n      dup8\n        /* \"#utility.yul\":2757:2779   */\n      add\n        /* \"#utility.yul\":2736:2789   */\n      tag_246\n      jump\t// in\n    tag_266:\n        /* \"#utility.yul\":2726:2789   */\n      swap2\n      pop\n        /* \"#utility.yul\":2681:2799   */\n      pop\n        /* \"#utility.yul\":2251:2806   */\n      swap3\n      pop\n      swap3\n      pop\n      swap3\n      jump\t// out\n        /* \"#utility.yul\":2812:3074   */\n    tag_23:\n      0x00\n        /* \"#utility.yul\":2920:2922   */\n      0x20\n        /* \"#utility.yul\":2908:2917   */\n      dup3\n        /* \"#utility.yul\":2899:2906   */\n      dup5\n        /* \"#utility.yul\":2895:2918   */\n      sub\n        /* \"#utility.yul\":2891:2923   */\n      slt\n        /* \"#utility.yul\":2888:2890   */\n      iszero\n      tag_268\n      jumpi\n        /* \"#utility.yul\":2936:2937   */\n      0x00\n        /* \"#utility.yul\":2933:2934   */\n      dup1\n        /* \"#utility.yul\":2926:2938   */\n      revert\n        /* \"#utility.yul\":2888:2890   */\n    tag_268:\n        /* \"#utility.yul\":2979:2980   */\n      0x00\n        /* \"#utility.yul\":3004:3057   */\n      tag_269\n        /* \"#utility.yul\":3049:3056   */\n      dup5\n        /* \"#utility.yul\":3040:3046   */\n      dup3\n        /* \"#utility.yul\":3029:3038   */\n      dup6\n        /* \"#utility.yul\":3025:3047   */\n      add\n        /* \"#utility.yul\":3004:3057   */\n      tag_246\n      jump\t// in\n    tag_269:\n        /* \"#utility.yul\":2994:3057   */\n      swap2\n      pop\n        /* \"#utility.yul\":2950:3067   */\n      pop\n        /* \"#utility.yul\":2878:3074   */\n      swap3\n      swap2\n      pop\n      pop\n      jump\t// out\n        /* \"#utility.yul\":3080:3481   */\n    tag_40:\n      0x00\n      dup1\n        /* \"#utility.yul\":3202:3204   */\n      0x40\n        /* \"#utility.yul\":3190:3199   */\n      dup4\n        /* \"#utility.yul\":3181:3188   */\n      dup6\n        /* \"#utility.yul\":3177:3200   */\n      sub\n        /* \"#utility.yul\":3173:3205   */\n      slt\n        /* \"#utility.yul\":3170:3172   */\n      iszero\n      tag_271\n      jumpi\n        /* \"#utility.yul\":3218:3219   */\n      0x00\n        /* \"#utility.yul\":3215:3216   */\n      dup1\n        /* \"#utility.yul\":3208:3220   */\n      revert\n        /* \"#utility.yul\":3170:3172   */\n    tag_271:\n        /* \"#utility.yul\":3261:3262   */\n      0x00\n        /* \"#utility.yul\":3286:3339   */\n      tag_272\n        /* \"#utility.yul\":3331:3338   */\n      dup6\n        /* \"#utility.yul\":3322:3328   */\n      dup3\n        /* \"#utility.yul\":3311:3320   */\n      dup7\n        /* \"#utility.yul\":3307:3329   */\n      add\n        /* \"#utility.yul\":3286:3339   */\n      tag_246\n      jump\t// in\n    tag_272:\n        /* \"#utility.yul\":3276:3339   */\n      swap3\n      pop\n        /* \"#utility.yul\":3232:3349   */\n      pop\n        /* \"#utility.yul\":3388:3390   */\n      0x20\n        /* \"#utility.yul\":3414:3464   */\n      tag_273\n        /* \"#utility.yul\":3456:3463   */\n      dup6\n        /* \"#utility.yul\":3447:3453   */\n      dup3\n        /* \"#utility.yul\":3436:3445   */\n      dup7\n        /* \"#utility.yul\":3432:3454   */\n      add\n        /* \"#utility.yul\":3414:3464   */\n      tag_238\n      jump\t// in\n    tag_273:\n        /* \"#utility.yul\":3404:3464   */\n      swap2\n      pop\n        /* \"#utility.yul\":3359:3474   */\n      pop\n        /* \"#utility.yul\":3160:3481   */\n      swap3\n      pop\n      swap3\n      swap1\n      pop\n      jump\t// out\n        /* \"#utility.yul\":3487:3894   */\n    tag_56:\n      0x00\n      dup1\n        /* \"#utility.yul\":3612:3614   */\n      0x40\n        /* \"#utility.yul\":3600:3609   */\n      dup4\n        /* \"#utility.yul\":3591:3598   */\n      dup6\n        /* \"#utility.yul\":3587:3610   */\n      sub\n        /* \"#utility.yul\":3583:3615   */\n      slt\n        /* \"#utility.yul\":3580:3582   */\n      iszero\n      tag_275\n      jumpi\n        /* \"#utility.yul\":3628:3629   */\n      0x00\n        /* \"#utility.yul\":3625:3626   */\n      dup1\n        /* \"#utility.yul\":3618:3630   */\n      revert\n        /* \"#utility.yul\":3580:3582   */\n    tag_275:\n        /* \"#utility.yul\":3671:3672   */\n      0x00\n        /* \"#utility.yul\":3696:3749   */\n      tag_276\n        /* \"#utility.yul\":3741:3748   */\n      dup6\n        /* \"#utility.yul\":3732:3738   */\n      dup3\n        /* \"#utility.yul\":3721:3730   */\n      dup7\n        /* \"#utility.yul\":3717:3739   */\n      add\n        /* \"#utility.yul\":3696:3749   */\n      tag_246\n      jump\t// in\n    tag_276:\n        /* \"#utility.yul\":3686:3749   */\n      swap3\n      pop\n        /* \"#utility.yul\":3642:3759   */\n      pop\n        /* \"#utility.yul\":3798:3800   */\n      0x20\n        /* \"#utility.yul\":3824:3877   */\n      tag_277\n        /* \"#utility.yul\":3869:3876   */\n      dup6\n        /* \"#utility.yul\":3860:3866   */\n      dup3\n        /* \"#utility.yul\":3849:3858   */\n      dup7\n        /* \"#utility.yul\":3845:3867   */\n      add\n        /* \"#utility.yul\":3824:3877   */\n      tag_246\n      jump\t// in\n    tag_277:\n        /* \"#utility.yul\":3814:3877   */\n      swap2\n      pop\n        /* \"#utility.yul\":3769:3887   */\n      pop\n        /* \"#utility.yul\":3570:3894   */\n      swap3\n      pop\n      swap3\n      swap1\n      pop\n      jump\t// out\n        /* \"#utility.yul\":3900:4018   */\n    tag_278:\n        /* \"#utility.yul\":3987:4011   */\n      tag_280\n        /* \"#utility.yul\":4005:4010   */\n      dup2\n        /* \"#utility.yul\":3987:4011   */\n      tag_281\n      jump\t// in\n    tag_280:\n        /* \"#utility.yul\":3982:3985   */\n      dup3\n        /* \"#utility.yul\":3975:4012   */\n      mstore\n        /* \"#utility.yul\":3965:4018   */\n      pop\n      pop\n      jump\t// out\n        /* \"#utility.yul\":4024:4133   */\n    tag_282:\n        /* \"#utility.yul\":4105:4126   */\n      tag_284\n        /* \"#utility.yul\":4120:4125   */\n      dup2\n        /* \"#utility.yul\":4105:4126   */\n      tag_285\n      jump\t// in\n    tag_284:\n        /* \"#utility.yul\":4100:4103   */\n      dup3\n        /* \"#utility.yul\":4093:4127   */\n      mstore\n        /* \"#utility.yul\":4083:4133   */\n      pop\n      pop\n      jump\t// out\n        /* \"#utility.yul\":4139:4503   */\n    tag_286:\n      0x00\n        /* \"#utility.yul\":4255:4294   */\n      tag_288\n        /* \"#utility.yul\":4288:4293   */\n      dup3\n        /* \"#utility.yul\":4255:4294   */\n      tag_289\n      jump\t// in\n    tag_288:\n        /* \"#utility.yul\":4310:4381   */\n      tag_290\n        /* \"#utility.yul\":4374:4380   */\n      dup2\n        /* \"#utility.yul\":4369:4372   */\n      dup6\n        /* \"#utility.yul\":4310:4381   */\n      tag_291\n      jump\t// in\n    tag_290:\n        /* \"#utility.yul\":4303:4381   */\n      swap4\n      pop\n        /* \"#utility.yul\":4390:4442   */\n      tag_292\n        /* \"#utility.yul\":4435:4441   */\n      dup2\n        /* \"#utility.yul\":4430:4433   */\n      dup6\n        /* \"#utility.yul\":4423:4427   */\n      0x20\n        /* \"#utility.yul\":4416:4421   */\n      dup7\n        /* \"#utility.yul\":4412:4428   */\n      add\n        /* \"#utility.yul\":4390:4442   */\n      tag_293\n      jump\t// in\n    tag_292:\n        /* \"#utility.yul\":4467:4496   */\n      tag_294\n        /* \"#utility.yul\":4489:4495   */\n      dup2\n        /* \"#utility.yul\":4467:4496   */\n      tag_295\n      jump\t// in\n    tag_294:\n        /* \"#utility.yul\":4462:4465   */\n      dup5\n        /* \"#utility.yul\":4458:4497   */\n      add\n        /* \"#utility.yul\":4451:4497   */\n      swap2\n      pop\n        /* \"#utility.yul\":4231:4503   */\n      pop\n      swap3\n      swap2\n      pop\n      pop\n      jump\t// out\n        /* \"#utility.yul\":4509:4826   */\n    tag_296:\n      0x00\n        /* \"#utility.yul\":4672:4739   */\n      tag_298\n        /* \"#utility.yul\":4736:4738   */\n      0x13\n        /* \"#utility.yul\":4731:4734   */\n      dup4\n        /* \"#utility.yul\":4672:4739   */\n      tag_291\n      jump\t// in\n    tag_298:\n        /* \"#utility.yul\":4665:4739   */\n      swap2\n      pop\n        /* \"#utility.yul\":4769:4790   */\n      0x496e76616c69642070726f706f73616c20494400000000000000000000000000\n        /* \"#utility.yul\":4765:4766   */\n      0x00\n        /* \"#utility.yul\":4760:4763   */\n      dup4\n        /* \"#utility.yul\":4756:4767   */\n      add\n        /* \"#utility.yul\":4749:4791   */\n      mstore\n        /* \"#utility.yul\":4817:4819   */\n      0x20\n        /* \"#utility.yul\":4812:4815   */\n      dup3\n        /* \"#utility.yul\":4808:4820   */\n      add\n        /* \"#utility.yul\":4801:4820   */\n      swap1\n      pop\n        /* \"#utility.yul\":4655:4826   */\n      swap2\n      swap1\n      pop\n      jump\t// out\n        /* \"#utility.yul\":4832:5199   */\n    tag_299:\n      0x00\n        /* \"#utility.yul\":4995:5062   */\n      tag_301\n        /* \"#utility.yul\":5059:5061   */\n      0x23\n        /* \"#utility.yul\":5054:5057   */\n      dup4\n        /* \"#utility.yul\":4995:5062   */\n      tag_291\n      jump\t// in\n    tag_301:\n        /* \"#utility.yul\":4988:5062   */\n      swap2\n      pop\n        /* \"#utility.yul\":5092:5126   */\n      0x437265646974732073686f756c642062652067726561746572207468616e207a\n        /* \"#utility.yul\":5088:5089   */\n      0x00\n        /* \"#utility.yul\":5083:5086   */\n      dup4\n        /* \"#utility.yul\":5079:5090   */\n      add\n        /* \"#utility.yul\":5072:5127   */\n      mstore\n        /* \"#utility.yul\":5158:5163   */\n      0x65726f0000000000000000000000000000000000000000000000000000000000\n        /* \"#utility.yul\":5153:5155   */\n      0x20\n        /* \"#utility.yul\":5148:5151   */\n      dup4\n        /* \"#utility.yul\":5144:5156   */\n      add\n        /* \"#utility.yul\":5137:5164   */\n      mstore\n        /* \"#utility.yul\":5190:5192   */\n      0x40\n        /* \"#utility.yul\":5185:5188   */\n      dup3\n        /* \"#utility.yul\":5181:5193   */\n      add\n        /* \"#utility.yul\":5174:5193   */\n      swap1\n      pop\n        /* \"#utility.yul\":4978:5199   */\n      swap2\n      swap1\n      pop\n      jump\t// out\n        /* \"#utility.yul\":5205:5581   */\n    tag_302:\n      0x00\n        /* \"#utility.yul\":5368:5435   */\n      tag_304\n        /* \"#utility.yul\":5432:5434   */\n      0x2c\n        /* \"#utility.yul\":5427:5430   */\n      dup4\n        /* \"#utility.yul\":5368:5435   */\n      tag_291\n      jump\t// in\n    tag_304:\n        /* \"#utility.yul\":5361:5435   */\n      swap2\n      pop\n        /* \"#utility.yul\":5465:5499   */\n      0x507269636520706572206372656469742073686f756c64206265206772656174\n        /* \"#utility.yul\":5461:5462   */\n      0x00\n        /* \"#utility.yul\":5456:5459   */\n      dup4\n        /* \"#utility.yul\":5452:5463   */\n      add\n        /* \"#utility.yul\":5445:5500   */\n      mstore\n        /* \"#utility.yul\":5531:5545   */\n      0x6572207468616e207a65726f0000000000000000000000000000000000000000\n        /* \"#utility.yul\":5526:5528   */\n      0x20\n        /* \"#utility.yul\":5521:5524   */\n      dup4\n        /* \"#utility.yul\":5517:5529   */\n      add\n        /* \"#utility.yul\":5510:5546   */\n      mstore\n        /* \"#utility.yul\":5572:5574   */\n      0x40\n        /* \"#utility.yul\":5567:5570   */\n      dup3\n        /* \"#utility.yul\":5563:5575   */\n      add\n        /* \"#utility.yul\":5556:5575   */\n      swap1\n      pop\n        /* \"#utility.yul\":5351:5581   */\n      swap2\n      swap1\n      pop\n      jump\t// out\n        /* \"#utility.yul\":5587:5910   */\n    tag_305:\n      0x00\n        /* \"#utility.yul\":5750:5817   */\n      tag_307\n        /* \"#utility.yul\":5814:5816   */\n      0x19\n        /* \"#utility.yul\":5809:5812   */\n      dup4\n        /* \"#utility.yul\":5750:5817   */\n      tag_291\n      jump\t// in\n    tag_307:\n        /* \"#utility.yul\":5743:5817   */\n      swap2\n      pop\n        /* \"#utility.yul\":5847:5874   */\n      0x50726f706f73616c20616c726561647920657865637574656400000000000000\n        /* \"#utility.yul\":5843:5844   */\n      0x00\n        /* \"#utility.yul\":5838:5841   */\n      dup4\n        /* \"#utility.yul\":5834:5845   */\n      add\n        /* \"#utility.yul\":5827:5875   */\n      mstore\n        /* \"#utility.yul\":5901:5903   */\n      0x20\n        /* \"#utility.yul\":5896:5899   */\n      dup3\n        /* \"#utility.yul\":5892:5904   */\n      add\n        /* \"#utility.yul\":5885:5904   */\n      swap1\n      pop\n        /* \"#utility.yul\":5733:5910   */\n      swap2\n      swap1\n      pop\n      jump\t// out\n        /* \"#utility.yul\":5916:6283   */\n    tag_308:\n      0x00\n        /* \"#utility.yul\":6079:6146   */\n      tag_310\n        /* \"#utility.yul\":6143:6145   */\n      0x23\n        /* \"#utility.yul\":6138:6141   */\n      dup4\n        /* \"#utility.yul\":6079:6146   */\n      tag_291\n      jump\t// in\n    tag_310:\n        /* \"#utility.yul\":6072:6146   */\n      swap2\n      pop\n        /* \"#utility.yul\":6176:6210   */\n      0x4f6e6c7920746865206f776e65722063616e206372656174652070726f706f73\n        /* \"#utility.yul\":6172:6173   */\n      0x00\n        /* \"#utility.yul\":6167:6170   */\n      dup4\n        /* \"#utility.yul\":6163:6174   */\n      add\n        /* \"#utility.yul\":6156:6211   */\n      mstore\n        /* \"#utility.yul\":6242:6247   */\n      0x616c730000000000000000000000000000000000000000000000000000000000\n        /* \"#utility.yul\":6237:6239   */\n      0x20\n        /* \"#utility.yul\":6232:6235   */\n      dup4\n        /* \"#utility.yul\":6228:6240   */\n      add\n        /* \"#utility.yul\":6221:6248   */\n      mstore\n        /* \"#utility.yul\":6274:6276   */\n      0x40\n        /* \"#utility.yul\":6269:6272   */\n      dup3\n        /* \"#utility.yul\":6265:6277   */\n      add\n        /* \"#utility.yul\":6258:6277   */\n      swap1\n      pop\n        /* \"#utility.yul\":6062:6283   */\n      swap2\n      swap1\n      pop\n      jump\t// out\n        /* \"#utility.yul\":6289:6657   */\n    tag_311:\n      0x00\n        /* \"#utility.yul\":6452:6519   */\n      tag_313\n        /* \"#utility.yul\":6516:6518   */\n      0x24\n        /* \"#utility.yul\":6511:6514   */\n      dup4\n        /* \"#utility.yul\":6452:6519   */\n      tag_291\n      jump\t// in\n    tag_313:\n        /* \"#utility.yul\":6445:6519   */\n      swap2\n      pop\n        /* \"#utility.yul\":6549:6583   */\n      0x4f6e6c7920746865206f776e65722063616e2072656769737465722070726f6a\n        /* \"#utility.yul\":6545:6546   */\n      0x00\n        /* \"#utility.yul\":6540:6543   */\n      dup4\n        /* \"#utility.yul\":6536:6547   */\n      add\n        /* \"#utility.yul\":6529:6584   */\n      mstore\n        /* \"#utility.yul\":6615:6621   */\n      0x6563747300000000000000000000000000000000000000000000000000000000\n        /* \"#utility.yul\":6610:6612   */\n      0x20\n        /* \"#utility.yul\":6605:6608   */\n      dup4\n        /* \"#utility.yul\":6601:6613   */\n      add\n        /* \"#utility.yul\":6594:6622   */\n      mstore\n        /* \"#utility.yul\":6648:6650   */\n      0x40\n        /* \"#utility.yul\":6643:6646   */\n      dup3\n        /* \"#utility.yul\":6639:6651   */\n      add\n        /* \"#utility.yul\":6632:6651   */\n      swap1\n      pop\n        /* \"#utility.yul\":6435:6657   */\n      swap2\n      swap1\n      pop\n      jump\t// out\n        /* \"#utility.yul\":6663:6982   */\n    tag_314:\n      0x00\n        /* \"#utility.yul\":6826:6893   */\n      tag_316\n        /* \"#utility.yul\":6890:6892   */\n      0x15\n        /* \"#utility.yul\":6885:6888   */\n      dup4\n        /* \"#utility.yul\":6826:6893   */\n      tag_291\n      jump\t// in\n    tag_316:\n        /* \"#utility.yul\":6819:6893   */\n      swap2\n      pop\n        /* \"#utility.yul\":6923:6946   */\n      0x50726f706f73616c20646964206e6f7420706173730000000000000000000000\n        /* \"#utility.yul\":6919:6920   */\n      0x00\n        /* \"#utility.yul\":6914:6917   */\n      dup4\n        /* \"#utility.yul\":6910:6921   */\n      add\n        /* \"#utility.yul\":6903:6947   */\n      mstore\n        /* \"#utility.yul\":6973:6975   */\n      0x20\n        /* \"#utility.yul\":6968:6971   */\n      dup3\n        /* \"#utility.yul\":6964:6976   */\n      add\n        /* \"#utility.yul\":6957:6976   */\n      swap1\n      pop\n        /* \"#utility.yul\":6809:6982   */\n      swap2\n      swap1\n      pop\n      jump\t// out\n        /* \"#utility.yul\":6988:7316   */\n    tag_317:\n      0x00\n        /* \"#utility.yul\":7151:7218   */\n      tag_319\n        /* \"#utility.yul\":7215:7217   */\n      0x1e\n        /* \"#utility.yul\":7210:7213   */\n      dup4\n        /* \"#utility.yul\":7151:7218   */\n      tag_291\n      jump\t// in\n    tag_319:\n        /* \"#utility.yul\":7144:7218   */\n      swap2\n      pop\n        /* \"#utility.yul\":7248:7280   */\n      0x496e73756666696369656e74206372656469747320746f207265746972650000\n        /* \"#utility.yul\":7244:7245   */\n      0x00\n        /* \"#utility.yul\":7239:7242   */\n      dup4\n        /* \"#utility.yul\":7235:7246   */\n      add\n        /* \"#utility.yul\":7228:7281   */\n      mstore\n        /* \"#utility.yul\":7307:7309   */\n      0x20\n        /* \"#utility.yul\":7302:7305   */\n      dup3\n        /* \"#utility.yul\":7298:7310   */\n      add\n        /* \"#utility.yul\":7291:7310   */\n      swap1\n      pop\n        /* \"#utility.yul\":7134:7316   */\n      swap2\n      swap1\n      pop\n      jump\t// out\n        /* \"#utility.yul\":7322:7648   */\n    tag_320:\n      0x00\n        /* \"#utility.yul\":7485:7552   */\n      tag_322\n        /* \"#utility.yul\":7549:7551   */\n      0x1c\n        /* \"#utility.yul\":7544:7547   */\n      dup4\n        /* \"#utility.yul\":7485:7552   */\n      tag_291\n      jump\t// in\n    tag_322:\n        /* \"#utility.yul\":7478:7552   */\n      swap2\n      pop\n        /* \"#utility.yul\":7582:7612   */\n      0x50726f6a656374206e616d652063616e6e6f7420626520656d70747900000000\n        /* \"#utility.yul\":7578:7579   */\n      0x00\n        /* \"#utility.yul\":7573:7576   */\n      dup4\n        /* \"#utility.yul\":7569:7580   */\n      add\n        /* \"#utility.yul\":7562:7613   */\n      mstore\n        /* \"#utility.yul\":7639:7641   */\n      0x20\n        /* \"#utility.yul\":7634:7637   */\n      dup3\n        /* \"#utility.yul\":7630:7642   */\n      add\n        /* \"#utility.yul\":7623:7642   */\n      swap1\n      pop\n        /* \"#utility.yul\":7468:7648   */\n      swap2\n      swap1\n      pop\n      jump\t// out\n        /* \"#utility.yul\":7654:8022   */\n    tag_323:\n      0x00\n        /* \"#utility.yul\":7817:7884   */\n      tag_325\n        /* \"#utility.yul\":7881:7883   */\n      0x24\n        /* \"#utility.yul\":7876:7879   */\n      dup4\n        /* \"#utility.yul\":7817:7884   */\n      tag_291\n      jump\t// in\n    tag_325:\n        /* \"#utility.yul\":7810:7884   */\n      swap2\n      pop\n        /* \"#utility.yul\":7914:7948   */\n      0x4f6e6c7920746865206f776e65722063616e20657865637574652070726f706f\n        /* \"#utility.yul\":7910:7911   */\n      0x00\n        /* \"#utility.yul\":7905:7908   */\n      dup4\n        /* \"#utility.yul\":7901:7912   */\n      add\n        /* \"#utility.yul\":7894:7949   */\n      mstore\n        /* \"#utility.yul\":7980:7986   */\n      0x73616c7300000000000000000000000000000000000000000000000000000000\n        /* \"#utility.yul\":7975:7977   */\n      0x20\n        /* \"#utility.yul\":7970:7973   */\n      dup4\n        /* \"#utility.yul\":7966:7978   */\n      add\n        /* \"#utility.yul\":7959:7987   */\n      mstore\n        /* \"#utility.yul\":8013:8015   */\n      0x40\n        /* \"#utility.yul\":8008:8011   */\n      dup3\n        /* \"#utility.yul\":8004:8016   */\n      add\n        /* \"#utility.yul\":7997:8016   */\n      swap1\n      pop\n        /* \"#utility.yul\":7800:8022   */\n      swap2\n      swap1\n      pop\n      jump\t// out\n        /* \"#utility.yul\":8028:8401   */\n    tag_326:\n      0x00\n        /* \"#utility.yul\":8191:8258   */\n      tag_328\n        /* \"#utility.yul\":8255:8257   */\n      0x29\n        /* \"#utility.yul\":8250:8253   */\n      dup4\n        /* \"#utility.yul\":8191:8258   */\n      tag_291\n      jump\t// in\n    tag_328:\n        /* \"#utility.yul\":8184:8258   */\n      swap2\n      pop\n        /* \"#utility.yul\":8288:8322   */\n      0x546f74616c20637265646974732073686f756c64206265206772656174657220\n        /* \"#utility.yul\":8284:8285   */\n      0x00\n        /* \"#utility.yul\":8279:8282   */\n      dup4\n        /* \"#utility.yul\":8275:8286   */\n      add\n        /* \"#utility.yul\":8268:8323   */\n      mstore\n        /* \"#utility.yul\":8354:8365   */\n      0x7468616e207a65726f0000000000000000000000000000000000000000000000\n        /* \"#utility.yul\":8349:8351   */\n      0x20\n        /* \"#utility.yul\":8344:8347   */\n      dup4\n        /* \"#utility.yul\":8340:8352   */\n      add\n        /* \"#utility.yul\":8333:8366   */\n      mstore\n        /* \"#utility.yul\":8392:8394   */\n      0x40\n        /* \"#utility.yul\":8387:8390   */\n      dup3\n        /* \"#utility.yul\":8383:8395   */\n      add\n        /* \"#utility.yul\":8376:8395   */\n      swap1\n      pop\n        /* \"#utility.yul\":8174:8401   */\n      swap2\n      swap1\n      pop\n      jump\t// out\n        /* \"#utility.yul\":8407:8725   */\n    tag_329:\n      0x00\n        /* \"#utility.yul\":8570:8637   */\n      tag_331\n        /* \"#utility.yul\":8634:8636   */\n      0x14\n        /* \"#utility.yul\":8629:8632   */\n      dup4\n        /* \"#utility.yul\":8570:8637   */\n      tag_291\n      jump\t// in\n    tag_331:\n        /* \"#utility.yul\":8563:8637   */\n      swap2\n      pop\n        /* \"#utility.yul\":8667:8689   */\n      0x496e73756666696369656e74207061796d656e74000000000000000000000000\n        /* \"#utility.yul\":8663:8664   */\n      0x00\n        /* \"#utility.yul\":8658:8661   */\n      dup4\n        /* \"#utility.yul\":8654:8665   */\n      add\n        /* \"#utility.yul\":8647:8690   */\n      mstore\n        /* \"#utility.yul\":8716:8718   */\n      0x20\n        /* \"#utility.yul\":8711:8714   */\n      dup3\n        /* \"#utility.yul\":8707:8719   */\n      add\n        /* \"#utility.yul\":8700:8719   */\n      swap1\n      pop\n        /* \"#utility.yul\":8553:8725   */\n      swap2\n      swap1\n      pop\n      jump\t// out\n        /* \"#utility.yul\":8731:9047   */\n    tag_332:\n      0x00\n        /* \"#utility.yul\":8894:8961   */\n      tag_334\n        /* \"#utility.yul\":8958:8960   */\n      0x12\n        /* \"#utility.yul\":8953:8956   */\n      dup4\n        /* \"#utility.yul\":8894:8961   */\n      tag_291\n      jump\t// in\n    tag_334:\n        /* \"#utility.yul\":8887:8961   */\n      swap2\n      pop\n        /* \"#utility.yul\":8991:9011   */\n      0x496e76616c69642070726f6a6563742049440000000000000000000000000000\n        /* \"#utility.yul\":8987:8988   */\n      0x00\n        /* \"#utility.yul\":8982:8985   */\n      dup4\n        /* \"#utility.yul\":8978:8989   */\n      add\n        /* \"#utility.yul\":8971:9012   */\n      mstore\n        /* \"#utility.yul\":9038:9040   */\n      0x20\n        /* \"#utility.yul\":9033:9036   */\n      dup3\n        /* \"#utility.yul\":9029:9041   */\n      add\n        /* \"#utility.yul\":9022:9041   */\n      swap1\n      pop\n        /* \"#utility.yul\":8877:9047   */\n      swap2\n      swap1\n      pop\n      jump\t// out\n        /* \"#utility.yul\":9053:9379   */\n    tag_335:\n      0x00\n        /* \"#utility.yul\":9216:9283   */\n      tag_337\n        /* \"#utility.yul\":9280:9282   */\n      0x1c\n        /* \"#utility.yul\":9275:9278   */\n      dup4\n        /* \"#utility.yul\":9216:9283   */\n      tag_291\n      jump\t// in\n    tag_337:\n        /* \"#utility.yul\":9209:9283   */\n      swap2\n      pop\n        /* \"#utility.yul\":9313:9343   */\n      0x4e6f7420656e6f75676820617661696c61626c65206372656469747300000000\n        /* \"#utility.yul\":9309:9310   */\n      0x00\n        /* \"#utility.yul\":9304:9307   */\n      dup4\n        /* \"#utility.yul\":9300:9311   */\n      add\n        /* \"#utility.yul\":9293:9344   */\n      mstore\n        /* \"#utility.yul\":9370:9372   */\n      0x20\n        /* \"#utility.yul\":9365:9368   */\n      dup3\n        /* \"#utility.yul\":9361:9373   */\n      add\n        /* \"#utility.yul\":9354:9373   */\n      swap1\n      pop\n        /* \"#utility.yul\":9199:9379   */\n      swap2\n      swap1\n      pop\n      jump\t// out\n        /* \"#utility.yul\":9385:9753   */\n    tag_338:\n      0x00\n        /* \"#utility.yul\":9548:9615   */\n      tag_340\n        /* \"#utility.yul\":9612:9614   */\n      0x24\n        /* \"#utility.yul\":9607:9610   */\n      dup4\n        /* \"#utility.yul\":9548:9615   */\n      tag_291\n      jump\t// in\n    tag_340:\n        /* \"#utility.yul\":9541:9615   */\n      swap2\n      pop\n        /* \"#utility.yul\":9645:9679   */\n      0x50726f706f73616c206465736372697074696f6e2063616e6e6f742062652065\n        /* \"#utility.yul\":9641:9642   */\n      0x00\n        /* \"#utility.yul\":9636:9639   */\n      dup4\n        /* \"#utility.yul\":9632:9643   */\n      add\n        /* \"#utility.yul\":9625:9680   */\n      mstore\n        /* \"#utility.yul\":9711:9717   */\n      0x6d70747900000000000000000000000000000000000000000000000000000000\n        /* \"#utility.yul\":9706:9708   */\n      0x20\n        /* \"#utility.yul\":9701:9704   */\n      dup4\n        /* \"#utility.yul\":9697:9709   */\n      add\n        /* \"#utility.yul\":9690:9718   */\n      mstore\n        /* \"#utility.yul\":9744:9746   */\n      0x40\n        /* \"#utility.yul\":9739:9742   */\n      dup3\n        /* \"#utility.yul\":9735:9747   */\n      add\n        /* \"#utility.yul\":9728:9747   */\n      swap1\n      pop\n        /* \"#utility.yul\":9531:9753   */\n      swap2\n      swap1\n      pop\n      jump\t// out\n        /* \"#utility.yul\":9759:9877   */\n    tag_341:\n        /* \"#utility.yul\":9846:9870   */\n      tag_343\n        /* \"#utility.yul\":9864:9869   */\n      dup2\n        /* \"#utility.yul\":9846:9870   */\n      tag_344\n      jump\t// in\n    tag_343:\n        /* \"#utility.yul\":9841:9844   */\n      dup3\n        /* \"#utility.yul\":9834:9871   */\n      mstore\n        /* \"#utility.yul\":9824:9877   */\n      pop\n      pop\n      jump\t// out\n        /* \"#utility.yul\":9883:10105   */\n    tag_70:\n      0x00\n        /* \"#utility.yul\":10014:10016   */\n      0x20\n        /* \"#utility.yul\":10003:10012   */\n      dup3\n        /* \"#utility.yul\":9999:10017   */\n      add\n        /* \"#utility.yul\":9991:10017   */\n      swap1\n      pop\n        /* \"#utility.yul\":10027:10098   */\n      tag_346\n        /* \"#utility.yul\":10095:10096   */\n      0x00\n        /* \"#utility.yul\":10084:10093   */\n      dup4\n        /* \"#utility.yul\":10080:10097   */\n      add\n        /* \"#utility.yul\":10071:10077   */\n      dup5\n        /* \"#utility.yul\":10027:10098   */\n      tag_278\n      jump\t// in\n    tag_346:\n        /* \"#utility.yul\":9981:10105   */\n      swap3\n      swap2\n      pop\n      pop\n      jump\t// out\n        /* \"#utility.yul\":10111:10854   */\n    tag_26:\n      0x00\n        /* \"#utility.yul\":10368:10371   */\n      0xa0\n        /* \"#utility.yul\":10357:10366   */\n      dup3\n        /* \"#utility.yul\":10353:10372   */\n      add\n        /* \"#utility.yul\":10345:10372   */\n      swap1\n      pop\n        /* \"#utility.yul\":10382:10453   */\n      tag_348\n        /* \"#utility.yul\":10450:10451   */\n      0x00\n        /* \"#utility.yul\":10439:10448   */\n      dup4\n        /* \"#utility.yul\":10435:10452   */\n      add\n        /* \"#utility.yul\":10426:10432   */\n      dup9\n        /* \"#utility.yul\":10382:10453   */\n      tag_278\n      jump\t// in\n    tag_348:\n        /* \"#utility.yul\":10500:10509   */\n      dup2\n        /* \"#utility.yul\":10494:10498   */\n      dup2\n        /* \"#utility.yul\":10490:10510   */\n      sub\n        /* \"#utility.yul\":10485:10487   */\n      0x20\n        /* \"#utility.yul\":10474:10483   */\n      dup4\n        /* \"#utility.yul\":10470:10488   */\n      add\n        /* \"#utility.yul\":10463:10511   */\n      mstore\n        /* \"#utility.yul\":10528:10606   */\n      tag_349\n        /* \"#utility.yul\":10601:10605   */\n      dup2\n        /* \"#utility.yul\":10592:10598   */\n      dup8\n        /* \"#utility.yul\":10528:10606   */\n      tag_286\n      jump\t// in\n    tag_349:\n        /* \"#utility.yul\":10520:10606   */\n      swap1\n      pop\n        /* \"#utility.yul\":10616:10688   */\n      tag_350\n        /* \"#utility.yul\":10684:10686   */\n      0x40\n        /* \"#utility.yul\":10673:10682   */\n      dup4\n        /* \"#utility.yul\":10669:10687   */\n      add\n        /* \"#utility.yul\":10660:10666   */\n      dup7\n        /* \"#utility.yul\":10616:10688   */\n      tag_341\n      jump\t// in\n    tag_350:\n        /* \"#utility.yul\":10698:10770   */\n      tag_351\n        /* \"#utility.yul\":10766:10768   */\n      0x60\n        /* \"#utility.yul\":10755:10764   */\n      dup4\n        /* \"#utility.yul\":10751:10769   */\n      add\n        /* \"#utility.yul\":10742:10748   */\n      dup6\n        /* \"#utility.yul\":10698:10770   */\n      tag_341\n      jump\t// in\n    tag_351:\n        /* \"#utility.yul\":10780:10847   */\n      tag_352\n        /* \"#utility.yul\":10842:10845   */\n      0x80\n        /* \"#utility.yul\":10831:10840   */\n      dup4\n        /* \"#utility.yul\":10827:10846   */\n      add\n        /* \"#utility.yul\":10818:10824   */\n      dup5\n        /* \"#utility.yul\":10780:10847   */\n      tag_282\n      jump\t// in\n    tag_352:\n        /* \"#utility.yul\":10335:10854   */\n      swap7\n      swap6\n      pop\n      pop\n      pop\n      pop\n      pop\n      pop\n      jump\t// out\n        /* \"#utility.yul\":10860:11615   */\n    tag_36:\n      0x00\n        /* \"#utility.yul\":11123:11126   */\n      0xa0\n        /* \"#utility.yul\":11112:11121   */\n      dup3\n        /* \"#utility.yul\":11108:11127   */\n      add\n        /* \"#utility.yul\":11100:11127   */\n      swap1\n      pop\n        /* \"#utility.yul\":11137:11208   */\n      tag_354\n        /* \"#utility.yul\":11205:11206   */\n      0x00\n        /* \"#utility.yul\":11194:11203   */\n      dup4\n        /* \"#utility.yul\":11190:11207   */\n      add\n        /* \"#utility.yul\":11181:11187   */\n      dup9\n        /* \"#utility.yul\":11137:11208   */\n      tag_278\n      jump\t// in\n    tag_354:\n        /* \"#utility.yul\":11255:11264   */\n      dup2\n        /* \"#utility.yul\":11249:11253   */\n      dup2\n        /* \"#utility.yul\":11245:11265   */\n      sub\n        /* \"#utility.yul\":11240:11242   */\n      0x20\n        /* \"#utility.yul\":11229:11238   */\n      dup4\n        /* \"#utility.yul\":11225:11243   */\n      add\n        /* \"#utility.yul\":11218:11266   */\n      mstore\n        /* \"#utility.yul\":11283:11361   */\n      tag_355\n        /* \"#utility.yul\":11356:11360   */\n      dup2\n        /* \"#utility.yul\":11347:11353   */\n      dup8\n        /* \"#utility.yul\":11283:11361   */\n      tag_286\n      jump\t// in\n    tag_355:\n        /* \"#utility.yul\":11275:11361   */\n      swap1\n      pop\n        /* \"#utility.yul\":11371:11443   */\n      tag_356\n        /* \"#utility.yul\":11439:11441   */\n      0x40\n        /* \"#utility.yul\":11428:11437   */\n      dup4\n        /* \"#utility.yul\":11424:11442   */\n      add\n        /* \"#utility.yul\":11415:11421   */\n      dup7\n        /* \"#utility.yul\":11371:11443   */\n      tag_341\n      jump\t// in\n    tag_356:\n        /* \"#utility.yul\":11453:11525   */\n      tag_357\n        /* \"#utility.yul\":11521:11523   */\n      0x60\n        /* \"#utility.yul\":11510:11519   */\n      dup4\n        /* \"#utility.yul\":11506:11524   */\n      add\n        /* \"#utility.yul\":11497:11503   */\n      dup6\n        /* \"#utility.yul\":11453:11525   */\n      tag_341\n      jump\t// in\n    tag_357:\n        /* \"#utility.yul\":11535:11608   */\n      tag_358\n        /* \"#utility.yul\":11603:11606   */\n      0x80\n        /* \"#utility.yul\":11592:11601   */\n      dup4\n        /* \"#utility.yul\":11588:11607   */\n      add\n        /* \"#utility.yul\":11579:11585   */\n      dup5\n        /* \"#utility.yul\":11535:11608   */\n      tag_341\n      jump\t// in\n    tag_358:\n        /* \"#utility.yul\":11090:11615   */\n      swap7\n      swap6\n      pop\n      pop\n      pop\n      pop\n      pop\n      pop\n      jump\t// out\n        /* \"#utility.yul\":11621:12376   */\n    tag_97:\n      0x00\n        /* \"#utility.yul\":11884:11887   */\n      0xa0\n        /* \"#utility.yul\":11873:11882   */\n      dup3\n        /* \"#utility.yul\":11869:11888   */\n      add\n        /* \"#utility.yul\":11861:11888   */\n      swap1\n      pop\n        /* \"#utility.yul\":11934:11943   */\n      dup2\n        /* \"#utility.yul\":11928:11932   */\n      dup2\n        /* \"#utility.yul\":11924:11944   */\n      sub\n        /* \"#utility.yul\":11920:11921   */\n      0x00\n        /* \"#utility.yul\":11909:11918   */\n      dup4\n        /* \"#utility.yul\":11905:11922   */\n      add\n        /* \"#utility.yul\":11898:11945   */\n      mstore\n        /* \"#utility.yul\":11962:12040   */\n      tag_360\n        /* \"#utility.yul\":12035:12039   */\n      dup2\n        /* \"#utility.yul\":12026:12032   */\n      dup9\n        /* \"#utility.yul\":11962:12040   */\n      tag_286\n      jump\t// in\n    tag_360:\n        /* \"#utility.yul\":11954:12040   */\n      swap1\n      pop\n        /* \"#utility.yul\":12050:12122   */\n      tag_361\n        /* \"#utility.yul\":12118:12120   */\n      0x20\n        /* \"#utility.yul\":12107:12116   */\n      dup4\n        /* \"#utility.yul\":12103:12121   */\n      add\n        /* \"#utility.yul\":12094:12100   */\n      dup8\n        /* \"#utility.yul\":12050:12122   */\n      tag_341\n      jump\t// in\n    tag_361:\n        /* \"#utility.yul\":12132:12204   */\n      tag_362\n        /* \"#utility.yul\":12200:12202   */\n      0x40\n        /* \"#utility.yul\":12189:12198   */\n      dup4\n        /* \"#utility.yul\":12185:12203   */\n      add\n        /* \"#utility.yul\":12176:12182   */\n      dup7\n        /* \"#utility.yul\":12132:12204   */\n      tag_341\n      jump\t// in\n    tag_362:\n        /* \"#utility.yul\":12214:12286   */\n      tag_363\n        /* \"#utility.yul\":12282:12284   */\n      0x60\n        /* \"#utility.yul\":12271:12280   */\n      dup4\n        /* \"#utility.yul\":12267:12285   */\n      add\n        /* \"#utility.yul\":12258:12264   */\n      dup6\n        /* \"#utility.yul\":12214:12286   */\n      tag_341\n      jump\t// in\n    tag_363:\n        /* \"#utility.yul\":12296:12369   */\n      tag_364\n        /* \"#utility.yul\":12364:12367   */\n      0x80\n        /* \"#utility.yul\":12353:12362   */\n      dup4\n        /* \"#utility.yul\":12349:12368   */\n      add\n        /* \"#utility.yul\":12340:12346   */\n      dup5\n        /* \"#utility.yul\":12296:12369   */\n      tag_278\n      jump\t// in\n    tag_364:\n        /* \"#utility.yul\":11851:12376   */\n      swap7\n      swap6\n      pop\n      pop\n      pop\n      pop\n      pop\n      pop\n      jump\t// out\n        /* \"#utility.yul\":12382:12801   */\n    tag_112:\n      0x00\n        /* \"#utility.yul\":12586:12588   */\n      0x20\n        /* \"#utility.yul\":12575:12584   */\n      dup3\n        /* \"#utility.yul\":12571:12589   */\n      add\n        /* \"#utility.yul\":12563:12589   */\n      swap1\n      pop\n        /* \"#utility.yul\":12635:12644   */\n      dup2\n        /* \"#utility.yul\":12629:12633   */\n      dup2\n        /* \"#utility.yul\":12625:12645   */\n      sub\n        /* \"#utility.yul\":12621:12622   */\n      0x00\n        /* \"#utility.yul\":12610:12619   */\n      dup4\n        /* \"#utility.yul\":12606:12623   */\n      add\n        /* \"#utility.yul\":12599:12646   */\n      mstore\n        /* \"#utility.yul\":12663:12794   */\n      tag_366\n        /* \"#utility.yul\":12789:12793   */\n      dup2\n        /* \"#utility.yul\":12663:12794   */\n      tag_296\n      jump\t// in\n    tag_366:\n        /* \"#utility.yul\":12655:12794   */\n      swap1\n      pop\n        /* \"#utility.yul\":12553:12801   */\n      swap2\n      swap1\n      pop\n      jump\t// out\n        /* \"#utility.yul\":12807:13226   */\n    tag_169:\n      0x00\n        /* \"#utility.yul\":13011:13013   */\n      0x20\n        /* \"#utility.yul\":13000:13009   */\n      dup3\n        /* \"#utility.yul\":12996:13014   */\n      add\n        /* \"#utility.yul\":12988:13014   */\n      swap1\n      pop\n        /* \"#utility.yul\":13060:13069   */\n      dup2\n        /* \"#utility.yul\":13054:13058   */\n      dup2\n        /* \"#utility.yul\":13050:13070   */\n      sub\n        /* \"#utility.yul\":13046:13047   */\n      0x00\n        /* \"#utility.yul\":13035:13044   */\n      dup4\n        /* \"#utility.yul\":13031:13048   */\n      add\n        /* \"#utility.yul\":13024:13071   */\n      mstore\n        /* \"#utility.yul\":13088:13219   */\n      tag_368\n        /* \"#utility.yul\":13214:13218   */\n      dup2\n        /* \"#utility.yul\":13088:13219   */\n      tag_299\n      jump\t// in\n    tag_368:\n        /* \"#utility.yul\":13080:13219   */\n      swap1\n      pop\n        /* \"#utility.yul\":12978:13226   */\n      swap2\n      swap1\n      pop\n      jump\t// out\n        /* \"#utility.yul\":13232:13651   */\n    tag_201:\n      0x00\n        /* \"#utility.yul\":13436:13438   */\n      0x20\n        /* \"#utility.yul\":13425:13434   */\n      dup3\n        /* \"#utility.yul\":13421:13439   */\n      add\n        /* \"#utility.yul\":13413:13439   */\n      swap1\n      pop\n        /* \"#utility.yul\":13485:13494   */\n      dup2\n        /* \"#utility.yul\":13479:13483   */\n      dup2\n        /* \"#utility.yul\":13475:13495   */\n      sub\n        /* \"#utility.yul\":13471:13472   */\n      0x00\n        /* \"#utility.yul\":13460:13469   */\n      dup4\n        /* \"#utility.yul\":13456:13473   */\n      add\n        /* \"#utility.yul\":13449:13496   */\n      mstore\n        /* \"#utility.yul\":13513:13644   */\n      tag_370\n        /* \"#utility.yul\":13639:13643   */\n      dup2\n        /* \"#utility.yul\":13513:13644   */\n      tag_302\n      jump\t// in\n    tag_370:\n        /* \"#utility.yul\":13505:13644   */\n      swap1\n      pop\n        /* \"#utility.yul\":13403:13651   */\n      swap2\n      swap1\n      pop\n      jump\t// out\n        /* \"#utility.yul\":13657:14076   */\n    tag_117:\n      0x00\n        /* \"#utility.yul\":13861:13863   */\n      0x20\n        /* \"#utility.yul\":13850:13859   */\n      dup3\n        /* \"#utility.yul\":13846:13864   */\n      add\n        /* \"#utility.yul\":13838:13864   */\n      swap1\n      pop\n        /* \"#utility.yul\":13910:13919   */\n      dup2\n        /* \"#utility.yul\":13904:13908   */\n      dup2\n        /* \"#utility.yul\":13900:13920   */\n      sub\n        /* \"#utility.yul\":13896:13897   */\n      0x00\n        /* \"#utility.yul\":13885:13894   */\n      dup4\n        /* \"#utility.yul\":13881:13898   */\n      add\n        /* \"#utility.yul\":13874:13921   */\n      mstore\n        /* \"#utility.yul\":13938:14069   */\n      tag_372\n        /* \"#utility.yul\":14064:14068   */\n      dup2\n        /* \"#utility.yul\":13938:14069   */\n      tag_305\n      jump\t// in\n    tag_372:\n        /* \"#utility.yul\":13930:14069   */\n      swap1\n      pop\n        /* \"#utility.yul\":13828:14076   */\n      swap2\n      swap1\n      pop\n      jump\t// out\n        /* \"#utility.yul\":14082:14501   */\n    tag_154:\n      0x00\n        /* \"#utility.yul\":14286:14288   */\n      0x20\n        /* \"#utility.yul\":14275:14284   */\n      dup3\n        /* \"#utility.yul\":14271:14289   */\n      add\n        /* \"#utility.yul\":14263:14289   */\n      swap1\n      pop\n        /* \"#utility.yul\":14335:14344   */\n      dup2\n        /* \"#utility.yul\":14329:14333   */\n      dup2\n        /* \"#utility.yul\":14325:14345   */\n      sub\n        /* \"#utility.yul\":14321:14322   */\n      0x00\n        /* \"#utility.yul\":14310:14319   */\n      dup4\n        /* \"#utility.yul\":14306:14323   */\n      add\n        /* \"#utility.yul\":14299:14346   */\n      mstore\n        /* \"#utility.yul\":14363:14494   */\n      tag_374\n        /* \"#utility.yul\":14489:14493   */\n      dup2\n        /* \"#utility.yul\":14363:14494   */\n      tag_308\n      jump\t// in\n    tag_374:\n        /* \"#utility.yul\":14355:14494   */\n      swap1\n      pop\n        /* \"#utility.yul\":14253:14501   */\n      swap2\n      swap1\n      pop\n      jump\t// out\n        /* \"#utility.yul\":14507:14926   */\n    tag_192:\n      0x00\n        /* \"#utility.yul\":14711:14713   */\n      0x20\n        /* \"#utility.yul\":14700:14709   */\n      dup3\n        /* \"#utility.yul\":14696:14714   */\n      add\n        /* \"#utility.yul\":14688:14714   */\n      swap1\n      pop\n        /* \"#utility.yul\":14760:14769   */\n      dup2\n        /* \"#utility.yul\":14754:14758   */\n      dup2\n        /* \"#utility.yul\":14750:14770   */\n      sub\n        /* \"#utility.yul\":14746:14747   */\n      0x00\n        /* \"#utility.yul\":14735:14744   */\n      dup4\n        /* \"#utility.yul\":14731:14748   */\n      add\n        /* \"#utility.yul\":14724:14771   */\n      mstore\n        /* \"#utility.yul\":14788:14919   */\n      tag_376\n        /* \"#utility.yul\":14914:14918   */\n      dup2\n        /* \"#utility.yul\":14788:14919   */\n      tag_311\n      jump\t// in\n    tag_376:\n        /* \"#utility.yul\":14780:14919   */\n      swap1\n      pop\n        /* \"#utility.yul\":14678:14926   */\n      swap2\n      swap1\n      pop\n      jump\t// out\n        /* \"#utility.yul\":14932:15351   */\n    tag_120:\n      0x00\n        /* \"#utility.yul\":15136:15138   */\n      0x20\n        /* \"#utility.yul\":15125:15134   */\n      dup3\n        /* \"#utility.yul\":15121:15139   */\n      add\n        /* \"#utility.yul\":15113:15139   */\n      swap1\n      pop\n        /* \"#utility.yul\":15185:15194   */\n      dup2\n        /* \"#utility.yul\":15179:15183   */\n      dup2\n        /* \"#utility.yul\":15175:15195   */\n      sub\n        /* \"#utility.yul\":15171:15172   */\n      0x00\n        /* \"#utility.yul\":15160:15169   */\n      dup4\n        /* \"#utility.yul\":15156:15173   */\n      add\n        /* \"#utility.yul\":15149:15196   */\n      mstore\n        /* \"#utility.yul\":15213:15344   */\n      tag_378\n        /* \"#utility.yul\":15339:15343   */\n      dup2\n        /* \"#utility.yul\":15213:15344   */\n      tag_314\n      jump\t// in\n    tag_378:\n        /* \"#utility.yul\":15205:15344   */\n      swap1\n      pop\n        /* \"#utility.yul\":15103:15351   */\n      swap2\n      swap1\n      pop\n      jump\t// out\n        /* \"#utility.yul\":15357:15776   */\n    tag_146:\n      0x00\n        /* \"#utility.yul\":15561:15563   */\n      0x20\n        /* \"#utility.yul\":15550:15559   */\n      dup3\n        /* \"#utility.yul\":15546:15564   */\n      add\n        /* \"#utility.yul\":15538:15564   */\n      swap1\n      pop\n        /* \"#utility.yul\":15610:15619   */\n      dup2\n        /* \"#utility.yul\":15604:15608   */\n      dup2\n        /* \"#utility.yul\":15600:15620   */\n      sub\n        /* \"#utility.yul\":15596:15597   */\n      0x00\n        /* \"#utility.yul\":15585:15594   */\n      dup4\n        /* \"#utility.yul\":15581:15598   */\n      add\n        /* \"#utility.yul\":15574:15621   */\n      mstore\n        /* \"#utility.yul\":15638:15769   */\n      tag_380\n        /* \"#utility.yul\":15764:15768   */\n      dup2\n        /* \"#utility.yul\":15638:15769   */\n      tag_317\n      jump\t// in\n    tag_380:\n        /* \"#utility.yul\":15630:15769   */\n      swap1\n      pop\n        /* \"#utility.yul\":15528:15776   */\n      swap2\n      swap1\n      pop\n      jump\t// out\n        /* \"#utility.yul\":15782:16201   */\n    tag_195:\n      0x00\n        /* \"#utility.yul\":15986:15988   */\n      0x20\n        /* \"#utility.yul\":15975:15984   */\n      dup3\n        /* \"#utility.yul\":15971:15989   */\n      add\n        /* \"#utility.yul\":15963:15989   */\n      swap1\n      pop\n        /* \"#utility.yul\":16035:16044   */\n      dup2\n        /* \"#utility.yul\":16029:16033   */\n      dup2\n        /* \"#utility.yul\":16025:16045   */\n      sub\n        /* \"#utility.yul\":16021:16022   */\n      0x00\n        /* \"#utility.yul\":16010:16019   */\n      dup4\n        /* \"#utility.yul\":16006:16023   */\n      add\n        /* \"#utility.yul\":15999:16046   */\n      mstore\n        /* \"#utility.yul\":16063:16194   */\n      tag_382\n        /* \"#utility.yul\":16189:16193   */\n      dup2\n        /* \"#utility.yul\":16063:16194   */\n      tag_320\n      jump\t// in\n    tag_382:\n        /* \"#utility.yul\":16055:16194   */\n      swap1\n      pop\n        /* \"#utility.yul\":15953:16201   */\n      swap2\n      swap1\n      pop\n      jump\t// out\n        /* \"#utility.yul\":16207:16626   */\n    tag_109:\n      0x00\n        /* \"#utility.yul\":16411:16413   */\n      0x20\n        /* \"#utility.yul\":16400:16409   */\n      dup3\n        /* \"#utility.yul\":16396:16414   */\n      add\n        /* \"#utility.yul\":16388:16414   */\n      swap1\n      pop\n        /* \"#utility.yul\":16460:16469   */\n      dup2\n        /* \"#utility.yul\":16454:16458   */\n      dup2\n        /* \"#utility.yul\":16450:16470   */\n      sub\n        /* \"#utility.yul\":16446:16447   */\n      0x00\n        /* \"#utility.yul\":16435:16444   */\n      dup4\n        /* \"#utility.yul\":16431:16448   */\n      add\n        /* \"#utility.yul\":16424:16471   */\n      mstore\n        /* \"#utility.yul\":16488:16619   */\n      tag_384\n        /* \"#utility.yul\":16614:16618   */\n      dup2\n        /* \"#utility.yul\":16488:16619   */\n      tag_323\n      jump\t// in\n    tag_384:\n        /* \"#utility.yul\":16480:16619   */\n      swap1\n      pop\n        /* \"#utility.yul\":16378:16626   */\n      swap2\n      swap1\n      pop\n      jump\t// out\n        /* \"#utility.yul\":16632:17051   */\n    tag_198:\n      0x00\n        /* \"#utility.yul\":16836:16838   */\n      0x20\n        /* \"#utility.yul\":16825:16834   */\n      dup3\n        /* \"#utility.yul\":16821:16839   */\n      add\n        /* \"#utility.yul\":16813:16839   */\n      swap1\n      pop\n        /* \"#utility.yul\":16885:16894   */\n      dup2\n        /* \"#utility.yul\":16879:16883   */\n      dup2\n        /* \"#utility.yul\":16875:16895   */\n      sub\n        /* \"#utility.yul\":16871:16872   */\n      0x00\n        /* \"#utility.yul\":16860:16869   */\n      dup4\n        /* \"#utility.yul\":16856:16873   */\n      add\n        /* \"#utility.yul\":16849:16896   */\n      mstore\n        /* \"#utility.yul\":16913:17044   */\n      tag_386\n        /* \"#utility.yul\":17039:17043   */\n      dup2\n        /* \"#utility.yul\":16913:17044   */\n      tag_326\n      jump\t// in\n    tag_386:\n        /* \"#utility.yul\":16905:17044   */\n      swap1\n      pop\n        /* \"#utility.yul\":16803:17051   */\n      swap2\n      swap1\n      pop\n      jump\t// out\n        /* \"#utility.yul\":17057:17476   */\n    tag_177:\n      0x00\n        /* \"#utility.yul\":17261:17263   */\n      0x20\n        /* \"#utility.yul\":17250:17259   */\n      dup3\n        /* \"#utility.yul\":17246:17264   */\n      add\n        /* \"#utility.yul\":17238:17264   */\n      swap1\n      pop\n        /* \"#utility.yul\":17310:17319   */\n      dup2\n        /* \"#utility.yul\":17304:17308   */\n      dup2\n        /* \"#utility.yul\":17300:17320   */\n      sub\n        /* \"#utility.yul\":17296:17297   */\n      0x00\n        /* \"#utility.yul\":17285:17294   */\n      dup4\n        /* \"#utility.yul\":17281:17298   */\n      add\n        /* \"#utility.yul\":17274:17321   */\n      mstore\n        /* \"#utility.yul\":17338:17469   */\n      tag_388\n        /* \"#utility.yul\":17464:17468   */\n      dup2\n        /* \"#utility.yul\":17338:17469   */\n      tag_329\n      jump\t// in\n    tag_388:\n        /* \"#utility.yul\":17330:17469   */\n      swap1\n      pop\n        /* \"#utility.yul\":17228:17476   */\n      swap2\n      swap1\n      pop\n      jump\t// out\n        /* \"#utility.yul\":17482:17901   */\n    tag_143:\n      0x00\n        /* \"#utility.yul\":17686:17688   */\n      0x20\n        /* \"#utility.yul\":17675:17684   */\n      dup3\n        /* \"#utility.yul\":17671:17689   */\n      add\n        /* \"#utility.yul\":17663:17689   */\n      swap1\n      pop\n        /* \"#utility.yul\":17735:17744   */\n      dup2\n        /* \"#utility.yul\":17729:17733   */\n      dup2\n        /* \"#utility.yul\":17725:17745   */\n      sub\n        /* \"#utility.yul\":17721:17722   */\n      0x00\n        /* \"#utility.yul\":17710:17719   */\n      dup4\n        /* \"#utility.yul\":17706:17723   */\n      add\n        /* \"#utility.yul\":17699:17746   */\n      mstore\n        /* \"#utility.yul\":17763:17894   */\n      tag_390\n        /* \"#utility.yul\":17889:17893   */\n      dup2\n        /* \"#utility.yul\":17763:17894   */\n      tag_332\n      jump\t// in\n    tag_390:\n        /* \"#utility.yul\":17755:17894   */\n      swap1\n      pop\n        /* \"#utility.yul\":17653:17901   */\n      swap2\n      swap1\n      pop\n      jump\t// out\n        /* \"#utility.yul\":17907:18326   */\n    tag_172:\n      0x00\n        /* \"#utility.yul\":18111:18113   */\n      0x20\n        /* \"#utility.yul\":18100:18109   */\n      dup3\n        /* \"#utility.yul\":18096:18114   */\n      add\n        /* \"#utility.yul\":18088:18114   */\n      swap1\n      pop\n        /* \"#utility.yul\":18160:18169   */\n      dup2\n        /* \"#utility.yul\":18154:18158   */\n      dup2\n        /* \"#utility.yul\":18150:18170   */\n      sub\n        /* \"#utility.yul\":18146:18147   */\n      0x00\n        /* \"#utility.yul\":18135:18144   */\n      dup4\n        /* \"#utility.yul\":18131:18148   */\n      add\n        /* \"#utility.yul\":18124:18171   */\n      mstore\n        /* \"#utility.yul\":18188:18319   */\n      tag_392\n        /* \"#utility.yul\":18314:18318   */\n      dup2\n        /* \"#utility.yul\":18188:18319   */\n      tag_335\n      jump\t// in\n    tag_392:\n        /* \"#utility.yul\":18180:18319   */\n      swap1\n      pop\n        /* \"#utility.yul\":18078:18326   */\n      swap2\n      swap1\n      pop\n      jump\t// out\n        /* \"#utility.yul\":18332:18751   */\n    tag_157:\n      0x00\n        /* \"#utility.yul\":18536:18538   */\n      0x20\n        /* \"#utility.yul\":18525:18534   */\n      dup3\n        /* \"#utility.yul\":18521:18539   */\n      add\n        /* \"#utility.yul\":18513:18539   */\n      swap1\n      pop\n        /* \"#utility.yul\":18585:18594   */\n      dup2\n        /* \"#utility.yul\":18579:18583   */\n      dup2\n        /* \"#utility.yul\":18575:18595   */\n      sub\n        /* \"#utility.yul\":18571:18572   */\n      0x00\n        /* \"#utility.yul\":18560:18569   */\n      dup4\n        /* \"#utility.yul\":18556:18573   */\n      add\n        /* \"#utility.yul\":18549:18596   */\n      mstore\n        /* \"#utility.yul\":18613:18744   */\n      tag_394\n        /* \"#utility.yul\":18739:18743   */\n      dup2\n        /* \"#utility.yul\":18613:18744   */\n      tag_338\n      jump\t// in\n    tag_394:\n        /* \"#utility.yul\":18605:18744   */\n      swap1\n      pop\n        /* \"#utility.yul\":18503:18751   */\n      swap2\n      swap1\n      pop\n      jump\t// out\n        /* \"#utility.yul\":18757:18979   */\n    tag_48:\n      0x00\n        /* \"#utility.yul\":18888:18890   */\n      0x20\n        /* \"#utility.yul\":18877:18886   */\n      dup3\n        /* \"#utility.yul\":18873:18891   */\n      add\n        /* \"#utility.yul\":18865:18891   */\n      swap1\n      pop\n        /* \"#utility.yul\":18901:18972   */\n      tag_396\n        /* \"#utility.yul\":18969:18970   */\n      0x00\n        /* \"#utility.yul\":18958:18967   */\n      dup4\n        /* \"#utility.yul\":18954:18971   */\n      add\n        /* \"#utility.yul\":18945:18951   */\n      dup5\n        /* \"#utility.yul\":18901:18972   */\n      tag_341\n      jump\t// in\n    tag_396:\n        /* \"#utility.yul\":18855:18979   */\n      swap3\n      swap2\n      pop\n      pop\n      jump\t// out\n        /* \"#utility.yul\":18985:19415   */\n    tag_139:\n      0x00\n        /* \"#utility.yul\":19166:19168   */\n      0x60\n        /* \"#utility.yul\":19155:19164   */\n      dup3\n        /* \"#utility.yul\":19151:19169   */\n      add\n        /* \"#utility.yul\":19143:19169   */\n      swap1\n      pop\n        /* \"#utility.yul\":19179:19250   */\n      tag_398\n        /* \"#utility.yul\":19247:19248   */\n      0x00\n        /* \"#utility.yul\":19236:19245   */\n      dup4\n        /* \"#utility.yul\":19232:19249   */\n      add\n        /* \"#utility.yul\":19223:19229   */\n      dup7\n        /* \"#utility.yul\":19179:19250   */\n      tag_341\n      jump\t// in\n    tag_398:\n        /* \"#utility.yul\":19260:19332   */\n      tag_399\n        /* \"#utility.yul\":19328:19330   */\n      0x20\n        /* \"#utility.yul\":19317:19326   */\n      dup4\n        /* \"#utility.yul\":19313:19331   */\n      add\n        /* \"#utility.yul\":19304:19310   */\n      dup6\n        /* \"#utility.yul\":19260:19332   */\n      tag_278\n      jump\t// in\n    tag_399:\n        /* \"#utility.yul\":19342:19408   */\n      tag_400\n        /* \"#utility.yul\":19404:19406   */\n      0x40\n        /* \"#utility.yul\":19393:19402   */\n      dup4\n        /* \"#utility.yul\":19389:19407   */\n      add\n        /* \"#utility.yul\":19380:19386   */\n      dup5\n        /* \"#utility.yul\":19342:19408   */\n      tag_282\n      jump\t// in\n    tag_400:\n        /* \"#utility.yul\":19133:19415   */\n      swap5\n      swap4\n      pop\n      pop\n      pop\n      pop\n      jump\t// out\n        /* \"#utility.yul\":19421:19954   */\n    tag_163:\n      0x00\n        /* \"#utility.yul\":19628:19630   */\n      0x60\n        /* \"#utility.yul\":19617:19626   */\n      dup3\n        /* \"#utility.yul\":19613:19631   */\n      add\n        /* \"#utility.yul\":19605:19631   */\n      swap1\n      pop\n        /* \"#utility.yul\":19641:19712   */\n      tag_402\n        /* \"#utility.yul\":19709:19710   */\n      0x00\n        /* \"#utility.yul\":19698:19707   */\n      dup4\n        /* \"#utility.yul\":19694:19711   */\n      add\n        /* \"#utility.yul\":19685:19691   */\n      dup7\n        /* \"#utility.yul\":19641:19712   */\n      tag_341\n      jump\t// in\n    tag_402:\n        /* \"#utility.yul\":19759:19768   */\n      dup2\n        /* \"#utility.yul\":19753:19757   */\n      dup2\n        /* \"#utility.yul\":19749:19769   */\n      sub\n        /* \"#utility.yul\":19744:19746   */\n      0x20\n        /* \"#utility.yul\":19733:19742   */\n      dup4\n        /* \"#utility.yul\":19729:19747   */\n      add\n        /* \"#utility.yul\":19722:19770   */\n      mstore\n        /* \"#utility.yul\":19787:19865   */\n      tag_403\n        /* \"#utility.yul\":19860:19864   */\n      dup2\n        /* \"#utility.yul\":19851:19857   */\n      dup6\n        /* \"#utility.yul\":19787:19865   */\n      tag_286\n      jump\t// in\n    tag_403:\n        /* \"#utility.yul\":19779:19865   */\n      swap1\n      pop\n        /* \"#utility.yul\":19875:19947   */\n      tag_404\n        /* \"#utility.yul\":19943:19945   */\n      0x40\n        /* \"#utility.yul\":19932:19941   */\n      dup4\n        /* \"#utility.yul\":19928:19946   */\n      add\n        /* \"#utility.yul\":19919:19925   */\n      dup5\n        /* \"#utility.yul\":19875:19947   */\n      tag_278\n      jump\t// in\n    tag_404:\n        /* \"#utility.yul\":19595:19954   */\n      swap5\n      swap4\n      pop\n      pop\n      pop\n      pop\n      jump\t// out\n        /* \"#utility.yul\":19960:20604   */\n    tag_204:\n      0x00\n        /* \"#utility.yul\":20195:20198   */\n      0x80\n        /* \"#utility.yul\":20184:20193   */\n      dup3\n        /* \"#utility.yul\":20180:20199   */\n      add\n        /* \"#utility.yul\":20172:20199   */\n      swap1\n      pop\n        /* \"#utility.yul\":20209:20280   */\n      tag_406\n        /* \"#utility.yul\":20277:20278   */\n      0x00\n        /* \"#utility.yul\":20266:20275   */\n      dup4\n        /* \"#utility.yul\":20262:20279   */\n      add\n        /* \"#utility.yul\":20253:20259   */\n      dup8\n        /* \"#utility.yul\":20209:20280   */\n      tag_341\n      jump\t// in\n    tag_406:\n        /* \"#utility.yul\":20327:20336   */\n      dup2\n        /* \"#utility.yul\":20321:20325   */\n      dup2\n        /* \"#utility.yul\":20317:20337   */\n      sub\n        /* \"#utility.yul\":20312:20314   */\n      0x20\n        /* \"#utility.yul\":20301:20310   */\n      dup4\n        /* \"#utility.yul\":20297:20315   */\n      add\n        /* \"#utility.yul\":20290:20338   */\n      mstore\n        /* \"#utility.yul\":20355:20433   */\n      tag_407\n        /* \"#utility.yul\":20428:20432   */\n      dup2\n        /* \"#utility.yul\":20419:20425   */\n      dup7\n        /* \"#utility.yul\":20355:20433   */\n      tag_286\n      jump\t// in\n    tag_407:\n        /* \"#utility.yul\":20347:20433   */\n      swap1\n      pop\n        /* \"#utility.yul\":20443:20515   */\n      tag_408\n        /* \"#utility.yul\":20511:20513   */\n      0x40\n        /* \"#utility.yul\":20500:20509   */\n      dup4\n        /* \"#utility.yul\":20496:20514   */\n      add\n        /* \"#utility.yul\":20487:20493   */\n      dup6\n        /* \"#utility.yul\":20443:20515   */\n      tag_341\n      jump\t// in\n    tag_408:\n        /* \"#utility.yul\":20525:20597   */\n      tag_409\n        /* \"#utility.yul\":20593:20595   */\n      0x60\n        /* \"#utility.yul\":20582:20591   */\n      dup4\n        /* \"#utility.yul\":20578:20596   */\n      add\n        /* \"#utility.yul\":20569:20575   */\n      dup5\n        /* \"#utility.yul\":20525:20597   */\n      tag_341\n      jump\t// in\n    tag_409:\n        /* \"#utility.yul\":20162:20604   */\n      swap6\n      swap5\n      pop\n      pop\n      pop\n      pop\n      pop\n      jump\t// out\n        /* \"#utility.yul\":20610:20942   */\n    tag_150:\n      0x00\n        /* \"#utility.yul\":20769:20771   */\n      0x40\n        /* \"#utility.yul\":20758:20767   */\n      dup3\n        /* \"#utility.yul\":20754:20772   */\n      add\n        /* \"#utility.yul\":20746:20772   */\n      swap1\n      pop\n        /* \"#utility.yul\":20782:20853   */\n      tag_411\n        /* \"#utility.yul\":20850:20851   */\n      0x00\n        /* \"#utility.yul\":20839:20848   */\n      dup4\n        /* \"#utility.yul\":20835:20852   */\n      add\n        /* \"#utility.yul\":20826:20832   */\n      dup6\n        /* \"#utility.yul\":20782:20853   */\n      tag_341\n      jump\t// in\n    tag_411:\n        /* \"#utility.yul\":20863:20935   */\n      tag_412\n        /* \"#utility.yul\":20931:20933   */\n      0x20\n        /* \"#utility.yul\":20920:20929   */\n      dup4\n        /* \"#utility.yul\":20916:20934   */\n      add\n        /* \"#utility.yul\":20907:20913   */\n      dup5\n        /* \"#utility.yul\":20863:20935   */\n      tag_341\n      jump\t// in\n    tag_412:\n        /* \"#utility.yul\":20736:20942   */\n      swap4\n      swap3\n      pop\n      pop\n      pop\n      jump\t// out\n        /* \"#utility.yul\":20948:21231   */\n    tag_230:\n      0x00\n        /* \"#utility.yul\":21014:21016   */\n      0x40\n        /* \"#utility.yul\":21008:21017   */\n      mload\n        /* \"#utility.yul\":20998:21017   */\n      swap1\n      pop\n        /* \"#utility.yul\":21056:21060   */\n      dup2\n        /* \"#utility.yul\":21048:21054   */\n      dup2\n        /* \"#utility.yul\":21044:21061   */\n      add\n        /* \"#utility.yul\":21163:21169   */\n      dup2\n        /* \"#utility.yul\":21151:21161   */\n      dup2\n        /* \"#utility.yul\":21148:21170   */\n      lt\n        /* \"#utility.yul\":21127:21145   */\n      0xffffffffffffffff\n        /* \"#utility.yul\":21115:21125   */\n      dup3\n        /* \"#utility.yul\":21112:21146   */\n      gt\n        /* \"#utility.yul\":21109:21171   */\n      or\n        /* \"#utility.yul\":21106:21108   */\n      iszero\n      tag_414\n      jumpi\n        /* \"#utility.yul\":21174:21192   */\n      tag_415\n      tag_416\n      jump\t// in\n    tag_415:\n        /* \"#utility.yul\":21106:21108   */\n    tag_414:\n        /* \"#utility.yul\":21214:21224   */\n      dup1\n        /* \"#utility.yul\":21210:21212   */\n      0x40\n        /* \"#utility.yul\":21203:21225   */\n      mstore\n        /* \"#utility.yul\":20988:21231   */\n      pop\n      swap2\n      swap1\n      pop\n      jump\t// out\n        /* \"#utility.yul\":21237:21569   */\n    tag_229:\n      0x00\n        /* \"#utility.yul\":21389:21407   */\n      0xffffffffffffffff\n        /* \"#utility.yul\":21381:21387   */\n      dup3\n        /* \"#utility.yul\":21378:21408   */\n      gt\n        /* \"#utility.yul\":21375:21377   */\n      iszero\n      tag_418\n      jumpi\n        /* \"#utility.yul\":21411:21429   */\n      tag_419\n      tag_416\n      jump\t// in\n    tag_419:\n        /* \"#utility.yul\":21375:21377   */\n    tag_418:\n        /* \"#utility.yul\":21496:21500   */\n      0x1f\n        /* \"#utility.yul\":21492:21501   */\n      not\n        /* \"#utility.yul\":21485:21489   */\n      0x1f\n        /* \"#utility.yul\":21477:21483   */\n      dup4\n        /* \"#utility.yul\":21473:21490   */\n      add\n        /* \"#utility.yul\":21469:21502   */\n      and\n        /* \"#utility.yul\":21461:21502   */\n      swap1\n      pop\n        /* \"#utility.yul\":21557:21561   */\n      0x20\n        /* \"#utility.yul\":21551:21555   */\n      dup2\n        /* \"#utility.yul\":21547:21562   */\n      add\n        /* \"#utility.yul\":21539:21562   */\n      swap1\n      pop\n        /* \"#utility.yul\":21304:21569   */\n      swap2\n      swap1\n      pop\n      jump\t// out\n        /* \"#utility.yul\":21575:21674   */\n    tag_289:\n      0x00\n        /* \"#utility.yul\":21661:21666   */\n      dup2\n        /* \"#utility.yul\":21655:21667   */\n      mload\n        /* \"#utility.yul\":21645:21667   */\n      swap1\n      pop\n        /* \"#utility.yul\":21634:21674   */\n      swap2\n      swap1\n      pop\n      jump\t// out\n        /* \"#utility.yul\":21680:21849   */\n    tag_291:\n      0x00\n        /* \"#utility.yul\":21798:21804   */\n      dup3\n        /* \"#utility.yul\":21793:21796   */\n      dup3\n        /* \"#utility.yul\":21786:21805   */\n      mstore\n        /* \"#utility.yul\":21838:21842   */\n      0x20\n        /* \"#utility.yul\":21833:21836   */\n      dup3\n        /* \"#utility.yul\":21829:21843   */\n      add\n        /* \"#utility.yul\":21814:21843   */\n      swap1\n      pop\n        /* \"#utility.yul\":21776:21849   */\n      swap3\n      swap2\n      pop\n      pop\n      jump\t// out\n        /* \"#utility.yul\":21855:22160   */\n    tag_180:\n      0x00\n        /* \"#utility.yul\":21914:21934   */\n      tag_423\n        /* \"#utility.yul\":21932:21933   */\n      dup3\n        /* \"#utility.yul\":21914:21934   */\n      tag_344\n      jump\t// in\n    tag_423:\n        /* \"#utility.yul\":21909:21934   */\n      swap2\n      pop\n        /* \"#utility.yul\":21948:21968   */\n      tag_424\n        /* \"#utility.yul\":21966:21967   */\n      dup4\n        /* \"#utility.yul\":21948:21968   */\n      tag_344\n      jump\t// in\n    tag_424:\n        /* \"#utility.yul\":21943:21968   */\n      swap3\n      pop\n        /* \"#utility.yul\":22102:22103   */\n      dup3\n        /* \"#utility.yul\":22034:22100   */\n      0xffffffffffffffffffffffffffffffffffffffffffffffffffffffffffffffff\n        /* \"#utility.yul\":22030:22104   */\n      sub\n        /* \"#utility.yul\":22027:22028   */\n      dup3\n        /* \"#utility.yul\":22024:22105   */\n      gt\n        /* \"#utility.yul\":22021:22023   */\n      iszero\n      tag_425\n      jumpi\n        /* \"#utility.yul\":22108:22126   */\n      tag_426\n      tag_427\n      jump\t// in\n    tag_426:\n        /* \"#utility.yul\":22021:22023   */\n    tag_425:\n        /* \"#utility.yul\":22152:22153   */\n      dup3\n        /* \"#utility.yul\":22149:22150   */\n      dup3\n        /* \"#utility.yul\":22145:22154   */\n      add\n        /* \"#utility.yul\":22138:22154   */\n      swap1\n      pop\n        /* \"#utility.yul\":21899:22160   */\n      swap3\n      swap2\n      pop\n      pop\n      jump\t// out\n        /* \"#utility.yul\":22166:22514   */\n    tag_174:\n      0x00\n        /* \"#utility.yul\":22229:22249   */\n      tag_429\n        /* \"#utility.yul\":22247:22248   */\n      dup3\n        /* \"#utility.yul\":22229:22249   */\n      tag_344\n      jump\t// in\n    tag_429:\n        /* \"#utility.yul\":22224:22249   */\n      swap2\n      pop\n        /* \"#utility.yul\":22263:22283   */\n      tag_430\n        /* \"#utility.yul\":22281:22282   */\n      dup4\n        /* \"#utility.yul\":22263:22283   */\n      tag_344\n      jump\t// in\n    tag_430:\n        /* \"#utility.yul\":22258:22283   */\n      swap3\n      pop\n        /* \"#utility.yul\":22451:22452   */\n      dup2\n        /* \"#utility.yul\":22383:22449   */\n      0xffffffffffffffffffffffffffffffffffffffffffffffffffffffffffffffff\n        /* \"#utility.yul\":22379:22453   */\n      div\n        /* \"#utility.yul\":22376:22377   */\n      dup4\n        /* \"#utility.yul\":22373:22454   */\n      gt\n        /* \"#utility.yul\":22368:22369   */\n      dup3\n        /* \"#utility.yul\":22361:22370   */\n      iszero\n        /* \"#utility.yul\":22354:22371   */\n      iszero\n        /* \"#utility.yul\":22350:22455   */\n      and\n        /* \"#utility.yul\":22347:22349   */\n      iszero\n      tag_431\n      jumpi\n        /* \"#utility.yul\":22458:22476   */\n      tag_432\n      tag_427\n      jump\t// in\n    tag_432:\n        /* \"#utility.yul\":22347:22349   */\n    tag_431:\n        /* \"#utility.yul\":22506:22507   */\n      dup3\n        /* \"#utility.yul\":22503:22504   */\n      dup3\n        /* \"#utility.yul\":22499:22508   */\n      mul\n        /* \"#utility.yul\":22488:22508   */\n      swap1\n      pop\n        /* \"#utility.yul\":22214:22514   */\n      swap3\n      swap2\n      pop\n      pop\n      jump\t// out\n        /* \"#utility.yul\":22520:22711   */\n    tag_148:\n      0x00\n        /* \"#utility.yul\":22580:22600   */\n      tag_434\n        /* \"#utility.yul\":22598:22599   */\n      dup3\n        /* \"#utility.yul\":22580:22600   */\n      tag_344\n      jump\t// in\n    tag_434:\n        /* \"#utility.yul\":22575:22600   */\n      swap2\n      pop\n        /* \"#utility.yul\":22614:22634   */\n      tag_435\n        /* \"#utility.yul\":22632:22633   */\n      dup4\n        /* \"#utility.yul\":22614:22634   */\n      tag_344\n      jump\t// in\n    tag_435:\n        /* \"#utility.yul\":22609:22634   */\n      swap3\n      pop\n        /* \"#utility.yul\":22653:22654   */\n      dup3\n        /* \"#utility.yul\":22650:22651   */\n      dup3\n        /* \"#utility.yul\":22647:22655   */\n      lt\n        /* \"#utility.yul\":22644:22646   */\n      iszero\n      tag_436\n      jumpi\n        /* \"#utility.yul\":22658:22676   */\n      tag_437\n      tag_427\n      jump\t// in\n    tag_437:\n        /* \"#utility.yul\":22644:22646   */\n    tag_436:\n        /* \"#utility.yul\":22703:22704   */\n      dup3\n        /* \"#utility.yul\":22700:22701   */\n      dup3\n        /* \"#utility.yul\":22696:22705   */\n      sub\n        /* \"#utility.yul\":22688:22705   */\n      swap1\n      pop\n        /* \"#utility.yul\":22565:22711   */\n      swap3\n      swap2\n      pop\n      pop\n      jump\t// out\n        /* \"#utility.yul\":22717:22813   */\n    tag_281:\n      0x00\n        /* \"#utility.yul\":22783:22807   */\n      tag_439\n        /* \"#utility.yul\":22801:22806   */\n      dup3\n        /* \"#utility.yul\":22783:22807   */\n      tag_440\n      jump\t// in\n    tag_439:\n        /* \"#utility.yul\":22772:22807   */\n      swap1\n      pop\n        /* \"#utility.yul\":22762:22813   */\n      swap2\n      swap1\n      pop\n      jump\t// out\n        /* \"#utility.yul\":22819:22909   */\n    tag_285:\n      0x00\n        /* \"#utility.yul\":22896:22901   */\n      dup2\n        /* \"#utility.yul\":22889:22902   */\n      iszero\n        /* \"#utility.yul\":22882:22903   */\n      iszero\n        /* \"#utility.yul\":22871:22903   */\n      swap1\n      pop\n        /* \"#utility.yul\":22861:22909   */\n      swap2\n      swap1\n      pop\n      jump\t// out\n        /* \"#utility.yul\":22915:23041   */\n    tag_440:\n      0x00\n        /* \"#utility.yul\":22992:23034   */\n      0xffffffffffffffffffffffffffffffffffffffff\n        /* \"#utility.yul\":22985:22990   */\n      dup3\n        /* \"#utility.yul\":22981:23035   */\n      and\n        /* \"#utility.yul\":22970:23035   */\n      swap1\n      pop\n        /* \"#utility.yul\":22960:23041   */\n      swap2\n      swap1\n      pop\n      jump\t// out\n        /* \"#utility.yul\":23047:23124   */\n    tag_344:\n      0x00\n        /* \"#utility.yul\":23113:23118   */\n      dup2\n        /* \"#utility.yul\":23102:23118   */\n      swap1\n      pop\n        /* \"#utility.yul\":23092:23124   */\n      swap2\n      swap1\n      pop\n      jump\t// out\n        /* \"#utility.yul\":23130:23284   */\n    tag_233:\n        /* \"#utility.yul\":23214:23220   */\n      dup3\n        /* \"#utility.yul\":23209:23212   */\n      dup2\n        /* \"#utility.yul\":23204:23207   */\n      dup4\n        /* \"#utility.yul\":23191:23221   */\n      calldatacopy\n        /* \"#utility.yul\":23276:23277   */\n      0x00\n        /* \"#utility.yul\":23267:23273   */\n      dup4\n        /* \"#utility.yul\":23262:23265   */\n      dup4\n        /* \"#utility.yul\":23258:23274   */\n      add\n        /* \"#utility.yul\":23251:23278   */\n      mstore\n        /* \"#utility.yul\":23181:23284   */\n      pop\n      pop\n      pop\n      jump\t// out\n        /* \"#utility.yul\":23290:23597   */\n    tag_293:\n        /* \"#utility.yul\":23358:23359   */\n      0x00\n        /* \"#utility.yul\":23368:23481   */\n    tag_446:\n        /* \"#utility.yul\":23382:23388   */\n      dup4\n        /* \"#utility.yul\":23379:23380   */\n      dup2\n        /* \"#utility.yul\":23376:23389   */\n      lt\n        /* \"#utility.yul\":23368:23481   */\n      iszero\n      tag_448\n      jumpi\n        /* \"#utility.yul\":23467:23468   */\n      dup1\n        /* \"#utility.yul\":23462:23465   */\n      dup3\n        /* \"#utility.yul\":23458:23469   */\n      add\n        /* \"#utility.yul\":23452:23470   */\n      mload\n        /* \"#utility.yul\":23448:23449   */\n      dup2\n        /* \"#utility.yul\":23443:23446   */\n      dup5\n        /* \"#utility.yul\":23439:23450   */\n      add\n        /* \"#utility.yul\":23432:23471   */\n      mstore\n        /* \"#utility.yul\":23404:23406   */\n      0x20\n        /* \"#utility.yul\":23401:23402   */\n      dup2\n        /* \"#utility.yul\":23397:23407   */\n      add\n        /* \"#utility.yul\":23392:23407   */\n      swap1\n      pop\n        /* \"#utility.yul\":23368:23481   */\n      jump(tag_446)\n    tag_448:\n        /* \"#utility.yul\":23499:23505   */\n      dup4\n        /* \"#utility.yul\":23496:23497   */\n      dup2\n        /* \"#utility.yul\":23493:23506   */\n      gt\n        /* \"#utility.yul\":23490:23492   */\n      iszero\n      tag_449\n      jumpi\n        /* \"#utility.yul\":23579:23580   */\n      0x00\n        /* \"#utility.yul\":23570:23576   */\n      dup5\n        /* \"#utility.yul\":23565:23568   */\n      dup5\n        /* \"#utility.yul\":23561:23577   */\n      add\n        /* \"#utility.yul\":23554:23581   */\n      mstore\n        /* \"#utility.yul\":23490:23492   */\n    tag_449:\n        /* \"#utility.yul\":23339:23597   */\n      pop\n      pop\n      pop\n      pop\n      jump\t// out\n        /* \"#utility.yul\":23603:23923   */\n    tag_101:\n      0x00\n        /* \"#utility.yul\":23684:23685   */\n      0x02\n        /* \"#utility.yul\":23678:23682   */\n      dup3\n        /* \"#utility.yul\":23674:23686   */\n      div\n        /* \"#utility.yul\":23664:23686   */\n      swap1\n      pop\n        /* \"#utility.yul\":23731:23732   */\n      0x01\n        /* \"#utility.yul\":23725:23729   */\n      dup3\n        /* \"#utility.yul\":23721:23733   */\n      and\n        /* \"#utility.yul\":23752:23770   */\n      dup1\n        /* \"#utility.yul\":23742:23744   */\n      tag_451\n      jumpi\n        /* \"#utility.yul\":23808:23812   */\n      0x7f\n        /* \"#utility.yul\":23800:23806   */\n      dup3\n        /* \"#utility.yul\":23796:23813   */\n      and\n        /* \"#utility.yul\":23786:23813   */\n      swap2\n      pop\n        /* \"#utility.yul\":23742:23744   */\n    tag_451:\n        /* \"#utility.yul\":23870:23872   */\n      0x20\n        /* \"#utility.yul\":23862:23868   */\n      dup3\n        /* \"#utility.yul\":23859:23873   */\n      lt\n        /* \"#utility.yul\":23839:23857   */\n      dup2\n        /* \"#utility.yul\":23836:23874   */\n      eq\n        /* \"#utility.yul\":23833:23835   */\n      iszero\n      tag_452\n      jumpi\n        /* \"#utility.yul\":23889:23907   */\n      tag_453\n      tag_454\n      jump\t// in\n    tag_453:\n        /* \"#utility.yul\":23833:23835   */\n    tag_452:\n        /* \"#utility.yul\":23654:23923   */\n      pop\n      swap2\n      swap1\n      pop\n      jump\t// out\n        /* \"#utility.yul\":23929:24162   */\n    tag_135:\n      0x00\n        /* \"#utility.yul\":23991:24015   */\n      tag_456\n        /* \"#utility.yul\":24009:24014   */\n      dup3\n        /* \"#utility.yul\":23991:24015   */\n      tag_344\n      jump\t// in\n    tag_456:\n        /* \"#utility.yul\":23982:24015   */\n      swap2\n      pop\n        /* \"#utility.yul\":24037:24103   */\n      0xffffffffffffffffffffffffffffffffffffffffffffffffffffffffffffffff\n        /* \"#utility.yul\":24030:24035   */\n      dup3\n        /* \"#utility.yul\":24027:24104   */\n      eq\n        /* \"#utility.yul\":24024:24026   */\n      iszero\n      tag_457\n      jumpi\n        /* \"#utility.yul\":24107:24125   */\n      tag_458\n      tag_427\n      jump\t// in\n    tag_458:\n        /* \"#utility.yul\":24024:24026   */\n    tag_457:\n        /* \"#utility.yul\":24154:24155   */\n      0x01\n        /* \"#utility.yul\":24147:24152   */\n      dup3\n        /* \"#utility.yul\":24143:24156   */\n      add\n        /* \"#utility.yul\":24136:24156   */\n      swap1\n      pop\n        /* \"#utility.yul\":23972:24162   */\n      swap2\n      swap1\n      pop\n      jump\t// out\n        /* \"#utility.yul\":24168:24348   */\n    tag_427:\n        /* \"#utility.yul\":24216:24293   */\n      0x4e487b7100000000000000000000000000000000000000000000000000000000\n        /* \"#utility.yul\":24213:24214   */\n      0x00\n        /* \"#utility.yul\":24206:24294   */\n      mstore\n        /* \"#utility.yul\":24313:24317   */\n      0x11\n        /* \"#utility.yul\":24310:24311   */\n      0x04\n        /* \"#utility.yul\":24303:24318   */\n      mstore\n        /* \"#utility.yul\":24337:24341   */\n      0x24\n        /* \"#utility.yul\":24334:24335   */\n      0x00\n        /* \"#utility.yul\":24327:24342   */\n      revert\n        /* \"#utility.yul\":24354:24534   */\n    tag_454:\n        /* \"#utility.yul\":24402:24479   */\n      0x4e487b7100000000000000000000000000000000000000000000000000000000\n        /* \"#utility.yul\":24399:24400   */\n      0x00\n        /* \"#utility.yul\":24392:24480   */\n      mstore\n        /* \"#utility.yul\":24499:24503   */\n      0x22\n        /* \"#utility.yul\":24496:24497   */\n      0x04\n        /* \"#utility.yul\":24489:24504   */\n      mstore\n        /* \"#utility.yul\":24523:24527   */\n      0x24\n        /* \"#utility.yul\":24520:24521   */\n      0x00\n        /* \"#utility.yul\":24513:24528   */\n      revert\n        /* \"#utility.yul\":24540:24720   */\n    tag_416:\n        /* \"#utility.yul\":24588:24665   */\n      0x4e487b7100000000000000000000000000000000000000000000000000000000\n        /* \"#utility.yul\":24585:24586   */\n      0x00\n        /* \"#utility.yul\":24578:24666   */\n      mstore\n        /* \"#utility.yul\":24685:24689   */\n      0x41\n        /* \"#utility.yul\":24682:24683   */\n      0x04\n        /* \"#utility.yul\":24675:24690   */\n      mstore\n        /* \"#utility.yul\":24709:24713   */\n      0x24\n        /* \"#utility.yul\":24706:24707   */\n      0x00\n        /* \"#utility.yul\":24699:24714   */\n      revert\n        /* \"#utility.yul\":24726:24828   */\n    tag_295:\n      0x00\n        /* \"#utility.yul\":24818:24820   */\n      0x1f\n        /* \"#utility.yul\":24814:24821   */\n      not\n        /* \"#utility.yul\":24809:24811   */\n      0x1f\n        /* \"#utility.yul\":24802:24807   */\n      dup4\n        /* \"#utility.yul\":24798:24812   */\n      add\n        /* \"#utility.yul\":24794:24822   */\n      and\n        /* \"#utility.yul\":24784:24822   */\n      swap1\n      pop\n        /* \"#utility.yul\":24774:24828   */\n      swap2\n      swap1\n      pop\n      jump\t// out\n        /* \"#utility.yul\":24834:24956   */\n    tag_237:\n        /* \"#utility.yul\":24907:24931   */\n      tag_464\n        /* \"#utility.yul\":24925:24930   */\n      dup2\n        /* \"#utility.yul\":24907:24931   */\n      tag_281\n      jump\t// in\n    tag_464:\n        /* \"#utility.yul\":24900:24905   */\n      dup2\n        /* \"#utility.yul\":24897:24932   */\n      eq\n        /* \"#utility.yul\":24887:24889   */\n      tag_465\n      jumpi\n        /* \"#utility.yul\":24946:24947   */\n      0x00\n        /* \"#utility.yul\":24943:24944   */\n      dup1\n        /* \"#utility.yul\":24936:24948   */\n      revert\n        /* \"#utility.yul\":24887:24889   */\n    tag_465:\n        /* \"#utility.yul\":24877:24956   */\n      pop\n      jump\t// out\n        /* \"#utility.yul\":24962:25078   */\n    tag_241:\n        /* \"#utility.yul\":25032:25053   */\n      tag_467\n        /* \"#utility.yul\":25047:25052   */\n      dup2\n        /* \"#utility.yul\":25032:25053   */\n      tag_285\n      jump\t// in\n    tag_467:\n        /* \"#utility.yul\":25025:25030   */\n      dup2\n        /* \"#utility.yul\":25022:25054   */\n      eq\n        /* \"#utility.yul\":25012:25014   */\n      tag_468\n      jumpi\n        /* \"#utility.yul\":25068:25069   */\n      0x00\n        /* \"#utility.yul\":25065:25066   */\n      dup1\n        /* \"#utility.yul\":25058:25070   */\n      revert\n        /* \"#utility.yul\":25012:25014   */\n    tag_468:\n        /* \"#utility.yul\":25002:25078   */\n      pop\n      jump\t// out\n        /* \"#utility.yul\":25084:25206   */\n    tag_249:\n        /* \"#utility.yul\":25157:25181   */\n      tag_470\n        /* \"#utility.yul\":25175:25180   */\n      dup2\n        /* \"#utility.yul\":25157:25181   */\n      tag_344\n      jump\t// in\n    tag_470:\n        /* \"#utility.yul\":25150:25155   */\n      dup2\n        /* \"#utility.yul\":25147:25182   */\n      eq\n        /* \"#utility.yul\":25137:25139   */\n      tag_471\n      jumpi\n        /* \"#utility.yul\":25196:25197   */\n      0x00\n        /* \"#utility.yul\":25193:25194   */\n      dup1\n        /* \"#utility.yul\":25186:25198   */\n      revert\n        /* \"#utility.yul\":25137:25139   */\n    tag_471:\n        /* \"#utility.yul\":25127:25206   */\n      pop\n      jump\t// out\n\n    auxdata: 0xa2646970667358221220ed839de5eaba91774f61f857c58666da84f8e254236f530ad992fec089a16d3e64736f6c63430008000033\n}\n",
				"bytecode": {
					"linkReferences": {},
					"object": "608060405234801561001057600080fd5b50336000806101000a81548173ffffffffffffffffffffffffffffffffffffffff021916908373ffffffffffffffffffffffffffffffffffffffff160217905550612452806100606000396000f3fe6080604052600436106100e85760003560e01c806349c2a1a61161008a578063c121cff011610059578063c121cff0146102ff578063e503bb051461033c578063e636eb5514610379578063f0f3f2c8146103a2576100e8565b806349c2a1a614610252578063840344691461027b5780638da5cb5b14610297578063baccbfdb146102c2576100e8565b80631614665c116100c65780631614665c1461019857806317a483a3146101c157806336fbad26146101fe5780633ea0fb1314610229576100e8565b8063013cf08b146100ed5780630d61b5191461012e578063107046bd14610157575b600080fd5b3480156100f957600080fd5b50610114600480360381019061010f91906116f4565b6103e3565b604051610125959493929190611ce0565b60405180910390f35b34801561013a57600080fd5b50610155600480360381019061015091906116f4565b6104de565b005b34801561016357600080fd5b5061017e600480360381019061017991906116f4565b6106bc565b60405161018f959493929190611d3a565b60405180910390f35b3480156101a457600080fd5b506101bf60048036038101906101ba919061171d565b61079a565b005b3480156101cd57600080fd5b506101e860048036038101906101e39190611610565b6108ff565b6040516101f59190611fce565b60405180910390f35b34801561020a57600080fd5b50610213610924565b6040516102209190611fce565b60405180910390f35b34801561023557600080fd5b50610250600480360381019061024b9190611759565b61092a565b005b34801561025e57600080fd5b506102796004803603810190610274919061164c565b610abc565b005b61029560048036038101906102909190611759565b610ce4565b005b3480156102a357600080fd5b506102ac610fb3565b6040516102b99190611cc5565b60405180910390f35b3480156102ce57600080fd5b506102e960048036038101906102e491906115e7565b610fd7565b6040516102f69190611fce565b60405180910390f35b34801561030b57600080fd5b5061032660048036038101906103219190611610565b611020565b6040516103339190611fce565b60405180910390f35b34801561034857600080fd5b50610363600480360381019061035e91906115e7565b6110bf565b6040516103709190611fce565b60405180910390f35b34801561038557600080fd5b506103a0600480360381019061039b919061168d565b6110d7565b005b3480156103ae57600080fd5b506103c960048036038101906103c491906116f4565b611362565b6040516103da959493929190611d94565b60405180910390f35b600581815481106103f357600080fd5b90600052602060002090600502016000915090508060000160009054906101000a900473ffffffffffffffffffffffffffffffffffffffff169080600101805461043c906122be565b80601f0160208091040260200160405190810160405280929190818152602001828054610468906122be565b80156104b55780601f1061048a576101008083540402835291602001916104b5565b820191906000526020600020905b81548152906001019060200180831161049857829003601f168201915b5050505050908060020154908060030154908060040160009054906101000a900460ff16905085565b60008054906101000a900473ffffffffffffffffffffffffffffffffffffffff1673ffffffffffffffffffffffffffffffffffffffff163373ffffffffffffffffffffffffffffffffffffffff161461056c576040517f08c379a000000000000000000000000000000000000000000000000000000000815260040161056390611f0e565b60405180910390fd5b60058054905081106105b3576040517f08c379a00000000000000000000000000000000000000000000000000000000081526004016105aa90611dee565b60405180910390fd5b6000600582815481106105ef577f4e487b7100000000000000000000000000000000000000000000000000000000600052603260045260246000fd5b906000526020600020906005020190508060040160009054906101000a900460ff1615610651576040517f08c379a000000000000000000000000000000000000000000000000000000000815260040161064890611e4e565b60405180910390fd5b806003015481600201541161069b576040517f08c379a000000000000000000000000000000000000000000000000000000000815260040161069290611eae565b60405180910390fd5b60018160040160006101000a81548160ff0219169083151502179055505050565b60016020528060005260406000206000915090508060000160009054906101000a900473ffffffffffffffffffffffffffffffffffffffff1690806001018054610705906122be565b80601f0160208091040260200160405190810160405280929190818152602001828054610731906122be565b801561077e5780601f106107535761010080835404028352916020019161077e565b820191906000526020600020905b81548152906001019060200180831161076157829003601f168201915b5050505050908060020154908060030154908060040154905085565b60058054905082106107e1576040517f08c379a00000000000000000000000000000000000000000000000000000000081526004016107d890611dee565b60405180910390fd5b60006005838154811061081d577f4e487b7100000000000000000000000000000000000000000000000000000000600052603260045260246000fd5b906000526020600020906005020190508060040160009054906101000a900460ff161561087f576040517f08c379a000000000000000000000000000000000000000000000000000000000815260040161087690611e4e565b60405180910390fd5b81156108a45780600201600081548092919061089a906122f0565b91905055506108bf565b8060030160008154809291906108b9906122f0565b91905055505b7fe71fcdac32df1877c1700e7bda2a03157e20993363a28fc35ac495cefc76e4d48333846040516108f293929190611fe9565b60405180910390a1505050565b6003602052816000526040600020602052806000526040600020600091509150505481565b60025481565b600254821061096e576040517f08c379a000000000000000000000000000000000000000000000000000000000815260040161096590611f6e565b60405180910390fd5b80600360003373ffffffffffffffffffffffffffffffffffffffff1673ffffffffffffffffffffffffffffffffffffffff1681526020019081526020016000206000848152602001908152602001600020541015610a01576040517f08c379a00000000000000000000000000000000000000000000000000000000081526004016109f890611ece565b60405180910390fd5b80600360003373ffffffffffffffffffffffffffffffffffffffff1673ffffffffffffffffffffffffffffffffffffffff16815260200190815260200160002060008481526020019081526020016000206000828254610a619190612200565b925050819055503373ffffffffffffffffffffffffffffffffffffffff167f2ffd4879af328c871cf4d2be1d40d91f5ce4f202fd47e10e4c58d19667627da88383604051610ab09291906120aa565b60405180910390a25050565b60008054906101000a900473ffffffffffffffffffffffffffffffffffffffff1673ffffffffffffffffffffffffffffffffffffffff163373ffffffffffffffffffffffffffffffffffffffff1614610b4a576040517f08c379a0000000000000000000000000000000000000000000000000000000008152600401610b4190611e6e565b60405180910390fd5b6000815111610b8e576040517f08c379a0000000000000000000000000000000000000000000000000000000008152600401610b8590611fae565b60405180910390fd5b60056040518060a001604052803373ffffffffffffffffffffffffffffffffffffffff168152602001838152602001600081526020016000815260200160001515815250908060018154018082558091505060019003906000526020600020906005020160009091909190915060008201518160000160006101000a81548173ffffffffffffffffffffffffffffffffffffffff021916908373ffffffffffffffffffffffffffffffffffffffff1602179055506020820151816001019080519060200190610c5e92919061149d565b50604082015181600201556060820151816003015560808201518160040160006101000a81548160ff02191690831515021790555050507fc8c078bfee58e5822588f08b4509ed1eb5058e03f666cca84dd2d44bf5c288a86001600580549050610cc89190612200565b8233604051610cd993929190612020565b60405180910390a150565b6002548210610d28576040517f08c379a0000000000000000000000000000000000000000000000000000000008152600401610d1f90611f6e565b60405180910390fd5b600060016000848152602001908152602001600020905060008211610d82576040517f08c379a0000000000000000000000000000000000000000000000000000000008152600401610d7990611e0e565b60405180910390fd5b8060030154821115610dc9576040517f08c379a0000000000000000000000000000000000000000000000000000000008152600401610dc090611f8e565b60405180910390fd5b806004015482610dd991906121a6565b341015610e1b576040517f08c379a0000000000000000000000000000000000000000000000000000000008152600401610e1290611f4e565b60405180910390fd5b81816003016000828254610e2f9190612200565b9250508190555081600360003373ffffffffffffffffffffffffffffffffffffffff1673ffffffffffffffffffffffffffffffffffffffff16815260200190815260200160002060008581526020019081526020016000206000828254610e969190612150565b9250508190555081600460003373ffffffffffffffffffffffffffffffffffffffff1673ffffffffffffffffffffffffffffffffffffffff1681526020019081526020016000206000828254610eec9190612150565b925050819055508060000160009054906101000a900473ffffffffffffffffffffffffffffffffffffffff1673ffffffffffffffffffffffffffffffffffffffff166108fc349081150290604051600060405180830381858888f19350505050158015610f5d573d6000803e3d6000fd5b503373ffffffffffffffffffffffffffffffffffffffff167ffb82fc1c5adf84899709e87563b69dd5f4ac33320f1c60dbca744bec717eb90f8484604051610fa69291906120aa565b60405180910390a2505050565b60008054906101000a900473ffffffffffffffffffffffffffffffffffffffff1681565b6000600460008373ffffffffffffffffffffffffffffffffffffffff1673ffffffffffffffffffffffffffffffffffffffff168152602001908152602001600020549050919050565b60006002548210611066576040517f08c379a000000000000000000000000000000000000000000000000000000000815260040161105d90611f6e565b60405180910390fd5b600360008473ffffffffffffffffffffffffffffffffffffffff1673ffffffffffffffffffffffffffffffffffffffff168152602001908152602001600020600083815260200190815260200160002054905092915050565b60046020528060005260406000206000915090505481565b60008054906101000a900473ffffffffffffffffffffffffffffffffffffffff1673ffffffffffffffffffffffffffffffffffffffff163373ffffffffffffffffffffffffffffffffffffffff1614611165576040517f08c379a000000000000000000000000000000000000000000000000000000000815260040161115c90611e8e565b60405180910390fd5b60008351116111a9576040517f08c379a00000000000000000000000000000000000000000000000000000000081526004016111a090611eee565b60405180910390fd5b600082116111ec576040517f08c379a00000000000000000000000000000000000000000000000000000000081526004016111e390611f2e565b60405180910390fd5b6000811161122f576040517f08c379a000000000000000000000000000000000000000000000000000000000815260040161122690611e2e565b60405180910390fd5b6040518060a001604052803373ffffffffffffffffffffffffffffffffffffffff1681526020018481526020018381526020018381526020018281525060016000600254815260200190815260200160002060008201518160000160006101000a81548173ffffffffffffffffffffffffffffffffffffffff021916908373ffffffffffffffffffffffffffffffffffffffff16021790555060208201518160010190805190602001906112e492919061149d565b506040820151816002015560608201518160030155608082015181600401559050507f50c6a8b423458d44f896828d57af33000ead07320bc572c2b3d856e7a954df4b60025484848460405161133d949392919061205e565b60405180910390a160026000815480929190611358906122f0565b9190505550505050565b606060008060008060025486106113ae576040517f08c379a00000000000000000000000000000000000000000000000000000000081526004016113a590611f6e565b60405180910390fd5b6000600160008881526020019081526020016000209050806001018160020154826003015483600401548460000160009054906101000a900473ffffffffffffffffffffffffffffffffffffffff16848054611409906122be565b80601f0160208091040260200160405190810160405280929190818152602001828054611435906122be565b80156114825780601f1061145757610100808354040283529160200191611482565b820191906000526020600020905b81548152906001019060200180831161146557829003601f168201915b50505050509450955095509550955095505091939590929450565b8280546114a9906122be565b90600052602060002090601f0160209004810192826114cb5760008555611512565b82601f106114e457805160ff1916838001178555611512565b82800160010185558215611512579182015b828111156115115782518255916020019190600101906114f6565b5b50905061151f9190611523565b5090565b5b8082111561153c576000816000905550600101611524565b5090565b600061155361154e84612104565b6120d3565b90508281526020810184848401111561156b57600080fd5b61157684828561227c565b509392505050565b60008135905061158d816123d7565b92915050565b6000813590506115a2816123ee565b92915050565b600082601f8301126115b957600080fd5b81356115c9848260208601611540565b91505092915050565b6000813590506115e181612405565b92915050565b6000602082840312156115f957600080fd5b60006116078482850161157e565b91505092915050565b6000806040838503121561162357600080fd5b60006116318582860161157e565b9250506020611642858286016115d2565b9150509250929050565b60006020828403121561165e57600080fd5b600082013567ffffffffffffffff81111561167857600080fd5b611684848285016115a8565b91505092915050565b6000806000606084860312156116a257600080fd5b600084013567ffffffffffffffff8111156116bc57600080fd5b6116c8868287016115a8565b93505060206116d9868287016115d2565b92505060406116ea868287016115d2565b9150509250925092565b60006020828403121561170657600080fd5b6000611714848285016115d2565b91505092915050565b6000806040838503121561173057600080fd5b600061173e858286016115d2565b925050602061174f85828601611593565b9150509250929050565b6000806040838503121561176c57600080fd5b600061177a858286016115d2565b925050602061178b858286016115d2565b9150509250929050565b61179e81612234565b82525050565b6117ad81612246565b82525050565b60006117be82612134565b6117c8818561213f565b93506117d881856020860161228b565b6117e1816123c6565b840191505092915050565b60006117f960138361213f565b91507f496e76616c69642070726f706f73616c204944000000000000000000000000006000830152602082019050919050565b600061183960238361213f565b91507f437265646974732073686f756c642062652067726561746572207468616e207a60008301527f65726f00000000000000000000000000000000000000000000000000000000006020830152604082019050919050565b600061189f602c8361213f565b91507f507269636520706572206372656469742073686f756c6420626520677265617460008301527f6572207468616e207a65726f00000000000000000000000000000000000000006020830152604082019050919050565b600061190560198361213f565b91507f50726f706f73616c20616c7265616479206578656375746564000000000000006000830152602082019050919050565b600061194560238361213f565b91507f4f6e6c7920746865206f776e65722063616e206372656174652070726f706f7360008301527f616c7300000000000000000000000000000000000000000000000000000000006020830152604082019050919050565b60006119ab60248361213f565b91507f4f6e6c7920746865206f776e65722063616e2072656769737465722070726f6a60008301527f65637473000000000000000000000000000000000000000000000000000000006020830152604082019050919050565b6000611a1160158361213f565b91507f50726f706f73616c20646964206e6f74207061737300000000000000000000006000830152602082019050919050565b6000611a51601e8361213f565b91507f496e73756666696369656e74206372656469747320746f2072657469726500006000830152602082019050919050565b6000611a91601c8361213f565b91507f50726f6a656374206e616d652063616e6e6f7420626520656d707479000000006000830152602082019050919050565b6000611ad160248361213f565b91507f4f6e6c7920746865206f776e65722063616e20657865637574652070726f706f60008301527f73616c73000000000000000000000000000000000000000000000000000000006020830152604082019050919050565b6000611b3760298361213f565b91507f546f74616c20637265646974732073686f756c6420626520677265617465722060008301527f7468616e207a65726f00000000000000000000000000000000000000000000006020830152604082019050919050565b6000611b9d60148361213f565b91507f496e73756666696369656e74207061796d656e740000000000000000000000006000830152602082019050919050565b6000611bdd60128361213f565b91507f496e76616c69642070726f6a65637420494400000000000000000000000000006000830152602082019050919050565b6000611c1d601c8361213f565b91507f4e6f7420656e6f75676820617661696c61626c652063726564697473000000006000830152602082019050919050565b6000611c5d60248361213f565b91507f50726f706f73616c206465736372697074696f6e2063616e6e6f74206265206560008301527f6d707479000000000000000000000000000000000000000000000000000000006020830152604082019050919050565b611cbf81612272565b82525050565b6000602082019050611cda6000830184611795565b92915050565b600060a082019050611cf56000830188611795565b8181036020830152611d0781876117b3565b9050611d166040830186611cb6565b611d236060830185611cb6565b611d3060808301846117a4565b9695505050505050565b600060a082019050611d4f6000830188611795565b8181036020830152611d6181876117b3565b9050611d706040830186611cb6565b611d7d6060830185611cb6565b611d8a6080830184611cb6565b9695505050505050565b600060a0820190508181036000830152611dae81886117b3565b9050611dbd6020830187611cb6565b611dca6040830186611cb6565b611dd76060830185611cb6565b611de46080830184611795565b9695505050505050565b60006020820190508181036000830152611e07816117ec565b9050919050565b60006020820190508181036000830152611e278161182c565b9050919050565b60006020820190508181036000830152611e4781611892565b9050919050565b60006020820190508181036000830152611e67816118f8565b9050919050565b60006020820190508181036000830152611e8781611938565b9050919050565b60006020820190508181036000830152611ea78161199e565b9050919050565b60006020820190508181036000830152611ec781611a04565b9050919050565b60006020820190508181036000830152611ee781611a44565b9050919050565b60006020820190508181036000830152611f0781611a84565b9050919050565b60006020820190508181036000830152611f2781611ac4565b9050919050565b60006020820190508181036000830152611f4781611b2a565b9050919050565b60006020820190508181036000830152611f6781611b90565b9050919050565b60006020820190508181036000830152611f8781611bd0565b9050919050565b60006020820190508181036000830152611fa781611c10565b9050919050565b60006020820190508181036000830152611fc781611c50565b9050919050565b6000602082019050611fe36000830184611cb6565b92915050565b6000606082019050611ffe6000830186611cb6565b61200b6020830185611795565b61201860408301846117a4565b949350505050565b60006060820190506120356000830186611cb6565b818103602083015261204781856117b3565b90506120566040830184611795565b949350505050565b60006080820190506120736000830187611cb6565b818103602083015261208581866117b3565b90506120946040830185611cb6565b6120a16060830184611cb6565b95945050505050565b60006040820190506120bf6000830185611cb6565b6120cc6020830184611cb6565b9392505050565b6000604051905081810181811067ffffffffffffffff821117156120fa576120f9612397565b5b8060405250919050565b600067ffffffffffffffff82111561211f5761211e612397565b5b601f19601f8301169050602081019050919050565b600081519050919050565b600082825260208201905092915050565b600061215b82612272565b915061216683612272565b9250827fffffffffffffffffffffffffffffffffffffffffffffffffffffffffffffffff0382111561219b5761219a612339565b5b828201905092915050565b60006121b182612272565b91506121bc83612272565b9250817fffffffffffffffffffffffffffffffffffffffffffffffffffffffffffffffff04831182151516156121f5576121f4612339565b5b828202905092915050565b600061220b82612272565b915061221683612272565b92508282101561222957612228612339565b5b828203905092915050565b600061223f82612252565b9050919050565b60008115159050919050565b600073ffffffffffffffffffffffffffffffffffffffff82169050919050565b6000819050919050565b82818337600083830152505050565b60005b838110156122a957808201518184015260208101905061228e565b838111156122b8576000848401525b50505050565b600060028204905060018216806122d657607f821691505b602082108114156122ea576122e9612368565b5b50919050565b60006122fb82612272565b91507fffffffffffffffffffffffffffffffffffffffffffffffffffffffffffffffff82141561232e5761232d612339565b5b600182019050919050565b7f4e487b7100000000000000000000000000000000000000000000000000000000600052601160045260246000fd5b7f4e487b7100000000000000000000000000000000000000000000000000000000600052602260045260246000fd5b7f4e487b7100000000000000000000000000000000000000000000000000000000600052604160045260246000fd5b6000601f19601f8301169050919050565b6123e081612234565b81146123eb57600080fd5b50565b6123f781612246565b811461240257600080fd5b50565b61240e81612272565b811461241957600080fd5b5056fea2646970667358221220ed839de5eaba91774f61f857c58666da84f8e254236f530ad992fec089a16d3e64736f6c63430008000033",
					"opcodes": "PUSH1 0x80 PUSH1 0x40 MSTORE CALLVALUE DUP1 ISZERO PUSH2 0x10 JUMPI PUSH1 0x0 DUP1 REVERT JUMPDEST POP CALLER PUSH1 0x0 DUP1 PUSH2 0x100 EXP DUP2 SLOAD DUP2 PUSH20 0xFFFFFFFFFFFFFFFFFFFFFFFFFFFFFFFFFFFFFFFF MUL NOT AND SWAP1 DUP4 PUSH20 0xFFFFFFFFFFFFFFFFFFFFFFFFFFFFFFFFFFFFFFFF AND MUL OR SWAP1 SSTORE POP PUSH2 0x2452 DUP1 PUSH2 0x60 PUSH1 0x0 CODECOPY PUSH1 0x0 RETURN INVALID PUSH1 0x80 PUSH1 0x40 MSTORE PUSH1 0x4 CALLDATASIZE LT PUSH2 0xE8 JUMPI PUSH1 0x0 CALLDATALOAD PUSH1 0xE0 SHR DUP1 PUSH4 0x49C2A1A6 GT PUSH2 0x8A JUMPI DUP1 PUSH4 0xC121CFF0 GT PUSH2 0x59 JUMPI DUP1 PUSH4 0xC121CFF0 EQ PUSH2 0x2FF JUMPI DUP1 PUSH4 0xE503BB05 EQ PUSH2 0x33C JUMPI DUP1 PUSH4 0xE636EB55 EQ PUSH2 0x379 JUMPI DUP1 PUSH4 0xF0F3F2C8 EQ PUSH2 0x3A2 JUMPI PUSH2 0xE8 JUMP JUMPDEST DUP1 PUSH4 0x49C2A1A6 EQ PUSH2 0x252 JUMPI DUP1 PUSH4 0x84034469 EQ PUSH2 0x27B JUMPI DUP1 PUSH4 0x8DA5CB5B EQ PUSH2 0x297 JUMPI DUP1 PUSH4 0xBACCBFDB EQ PUSH2 0x2C2 JUMPI PUSH2 0xE8 JUMP JUMPDEST DUP1 PUSH4 0x1614665C GT PUSH2 0xC6 JUMPI DUP1 PUSH4 0x1614665C EQ PUSH2 0x198 JUMPI DUP1 PUSH4 0x17A483A3 EQ PUSH2 0x1C1 JUMPI DUP1 PUSH4 0x36FBAD26 EQ PUSH2 0x1FE JUMPI DUP1 PUSH4 0x3EA0FB13 EQ PUSH2 0x229 JUMPI PUSH2 0xE8 JUMP JUMPDEST DUP1 PUSH4 0x13CF08B EQ PUSH2 0xED JUMPI DUP1 PUSH4 0xD61B519 EQ PUSH2 0x12E JUMPI DUP1 PUSH4 0x107046BD EQ PUSH2 0x157 JUMPI JUMPDEST PUSH1 0x0 DUP1 REVERT JUMPDEST CALLVALUE DUP1 ISZERO PUSH2 0xF9 JUMPI PUSH1 0x0 DUP1 REVERT JUMPDEST POP PUSH2 0x114 PUSH1 0x4 DUP1 CALLDATASIZE SUB DUP2 ADD SWAP1 PUSH2 0x10F SWAP2 SWAP1 PUSH2 0x16F4 JUMP JUMPDEST PUSH2 0x3E3 JUMP JUMPDEST PUSH1 0x40 MLOAD PUSH2 0x125 SWAP6 SWAP5 SWAP4 SWAP3 SWAP2 SWAP1 PUSH2 0x1CE0 JUMP JUMPDEST PUSH1 0x40 MLOAD DUP1 SWAP2 SUB SWAP1 RETURN JUMPDEST CALLVALUE DUP1 ISZERO PUSH2 0x13A JUMPI PUSH1 0x0 DUP1 REVERT JUMPDEST POP PUSH2 0x155 PUSH1 0x4 DUP1 CALLDATASIZE SUB DUP2 ADD SWAP1 PUSH2 0x150 SWAP2 SWAP1 PUSH2 0x16F4 JUMP JUMPDEST PUSH2 0x4DE JUMP JUMPDEST STOP JUMPDEST CALLVALUE DUP1 ISZERO PUSH2 0x163 JUMPI PUSH1 0x0 DUP1 REVERT JUMPDEST POP PUSH2 0x17E PUSH1 0x4 DUP1 CALLDATASIZE SUB DUP2 ADD SWAP1 PUSH2 0x179 SWAP2 SWAP1 PUSH2 0x16F4 JUMP JUMPDEST PUSH2 0x6BC JUMP JUMPDEST PUSH1 0x40 MLOAD PUSH2 0x18F SWAP6 SWAP5 SWAP4 SWAP3 SWAP2 SWAP1 PUSH2 0x1D3A JUMP JUMPDEST PUSH1 0x40 MLOAD DUP1 SWAP2 SUB SWAP1 RETURN JUMPDEST CALLVALUE DUP1 ISZERO PUSH2 0x1A4 JUMPI PUSH1 0x0 DUP1 REVERT JUMPDEST POP PUSH2 0x1BF PUSH1 0x4 DUP1 CALLDATASIZE SUB DUP2 ADD SWAP1 PUSH2 0x1BA SWAP2 SWAP1 PUSH2 0x171D JUMP JUMPDEST PUSH2 0x79A JUMP JUMPDEST STOP JUMPDEST CALLVALUE DUP1 ISZERO PUSH2 0x1CD JUMPI PUSH1 0x0 DUP1 REVERT JUMPDEST POP PUSH2 0x1E8 PUSH1 0x4 DUP1 CALLDATASIZE SUB DUP2 ADD SWAP1 PUSH2 0x1E3 SWAP2 SWAP1 PUSH2 0x1610 JUMP JUMPDEST PUSH2 0x8FF JUMP JUMPDEST PUSH1 0x40 MLOAD PUSH2 0x1F5 SWAP2 SWAP1 PUSH2 0x1FCE JUMP JUMPDEST PUSH1 0x40 MLOAD DUP1 SWAP2 SUB SWAP1 RETURN JUMPDEST CALLVALUE DUP1 ISZERO PUSH2 0x20A JUMPI PUSH1 0x0 DUP1 REVERT JUMPDEST POP PUSH2 0x213 PUSH2 0x924 JUMP JUMPDEST PUSH1 0x40 MLOAD PUSH2 0x220 SWAP2 SWAP1 PUSH2 0x1FCE JUMP JUMPDEST PUSH1 0x40 MLOAD DUP1 SWAP2 SUB SWAP1 RETURN JUMPDEST CALLVALUE DUP1 ISZERO PUSH2 0x235 JUMPI PUSH1 0x0 DUP1 REVERT JUMPDEST POP PUSH2 0x250 PUSH1 0x4 DUP1 CALLDATASIZE SUB DUP2 ADD SWAP1 PUSH2 0x24B SWAP2 SWAP1 PUSH2 0x1759 JUMP JUMPDEST PUSH2 0x92A JUMP JUMPDEST STOP JUMPDEST CALLVALUE DUP1 ISZERO PUSH2 0x25E JUMPI PUSH1 0x0 DUP1 REVERT JUMPDEST POP PUSH2 0x279 PUSH1 0x4 DUP1 CALLDATASIZE SUB DUP2 ADD SWAP1 PUSH2 0x274 SWAP2 SWAP1 PUSH2 0x164C JUMP JUMPDEST PUSH2 0xABC JUMP JUMPDEST STOP JUMPDEST PUSH2 0x295 PUSH1 0x4 DUP1 CALLDATASIZE SUB DUP2 ADD SWAP1 PUSH2 0x290 SWAP2 SWAP1 PUSH2 0x1759 JUMP JUMPDEST PUSH2 0xCE4 JUMP JUMPDEST STOP JUMPDEST CALLVALUE DUP1 ISZERO PUSH2 0x2A3 JUMPI PUSH1 0x0 DUP1 REVERT JUMPDEST POP PUSH2 0x2AC PUSH2 0xFB3 JUMP JUMPDEST PUSH1 0x40 MLOAD PUSH2 0x2B9 SWAP2 SWAP1 PUSH2 0x1CC5 JUMP JUMPDEST PUSH1 0x40 MLOAD DUP1 SWAP2 SUB SWAP1 RETURN JUMPDEST CALLVALUE DUP1 ISZERO PUSH2 0x2CE JUMPI PUSH1 0x0 DUP1 REVERT JUMPDEST POP PUSH2 0x2E9 PUSH1 0x4 DUP1 CALLDATASIZE SUB DUP2 ADD SWAP1 PUSH2 0x2E4 SWAP2 SWAP1 PUSH2 0x15E7 JUMP JUMPDEST PUSH2 0xFD7 JUMP JUMPDEST PUSH1 0x40 MLOAD PUSH2 0x2F6 SWAP2 SWAP1 PUSH2 0x1FCE JUMP JUMPDEST PUSH1 0x40 MLOAD DUP1 SWAP2 SUB SWAP1 RETURN JUMPDEST CALLVALUE DUP1 ISZERO PUSH2 0x30B JUMPI PUSH1 0x0 DUP1 REVERT JUMPDEST POP PUSH2 0x326 PUSH1 0x4 DUP1 CALLDATASIZE SUB DUP2 ADD SWAP1 PUSH2 0x321 SWAP2 SWAP1 PUSH2 0x1610 JUMP JUMPDEST PUSH2 0x1020 JUMP JUMPDEST PUSH1 0x40 MLOAD PUSH2 0x333 SWAP2 SWAP1 PUSH2 0x1FCE JUMP JUMPDEST PUSH1 0x40 MLOAD DUP1 SWAP2 SUB SWAP1 RETURN JUMPDEST CALLVALUE DUP1 ISZERO PUSH2 0x348 JUMPI PUSH1 0x0 DUP1 REVERT JUMPDEST POP PUSH2 0x363 PUSH1 0x4 DUP1 CALLDATASIZE SUB DUP2 ADD SWAP1 PUSH2 0x35E SWAP2 SWAP1 PUSH2 0x15E7 JUMP JUMPDEST PUSH2 0x10BF JUMP JUMPDEST PUSH1 0x40 MLOAD PUSH2 0x370 SWAP2 SWAP1 PUSH2 0x1FCE JUMP JUMPDEST PUSH1 0x40 MLOAD DUP1 SWAP2 SUB SWAP1 RETURN JUMPDEST CALLVALUE DUP1 ISZERO PUSH2 0x385 JUMPI PUSH1 0x0 DUP1 REVERT JUMPDEST POP PUSH2 0x3A0 PUSH1 0x4 DUP1 CALLDATASIZE SUB DUP2 ADD SWAP1 PUSH2 0x39B SWAP2 SWAP1 PUSH2 0x168D JUMP JUMPDEST PUSH2 0x10D7 JUMP JUMPDEST STOP JUMPDEST CALLVALUE DUP1 ISZERO PUSH2 0x3AE JUMPI PUSH1 0x0 DUP1 REVERT JUMPDEST POP PUSH2 0x3C9 PUSH1 0x4 DUP1 CALLDATASIZE SUB DUP2 ADD SWAP1 PUSH2 0x3C4 SWAP2 SWAP1 PUSH2 0x16F4 JUMP JUMPDEST PUSH2 0x1362 JUMP JUMPDEST PUSH1 0x40 MLOAD PUSH2 0x3DA SWAP6 SWAP5 SWAP4 SWAP3 SWAP2 SWAP1 PUSH2 0x1D94 JUMP JUMPDEST PUSH1 0x40 MLOAD DUP1 SWAP2 SUB SWAP1 RETURN JUMPDEST PUSH1 0x5 DUP2 DUP2 SLOAD DUP2 LT PUSH2 0x3F3 JUMPI PUSH1 0x0 DUP1 REVERT JUMPDEST SWAP1 PUSH1 0x0 MSTORE PUSH1 0x20 PUSH1 0x0 KECCAK256 SWAP1 PUSH1 0x5 MUL ADD PUSH1 0x0 SWAP2 POP SWAP1 POP DUP1 PUSH1 0x0 ADD PUSH1 0x0 SWAP1 SLOAD SWAP1 PUSH2 0x100 EXP SWAP1 DIV PUSH20 0xFFFFFFFFFFFFFFFFFFFFFFFFFFFFFFFFFFFFFFFF AND SWAP1 DUP1 PUSH1 0x1 ADD DUP1 SLOAD PUSH2 0x43C SWAP1 PUSH2 0x22BE JUMP JUMPDEST DUP1 PUSH1 0x1F ADD PUSH1 0x20 DUP1 SWAP2 DIV MUL PUSH1 0x20 ADD PUSH1 0x40 MLOAD SWAP1 DUP2 ADD PUSH1 0x40 MSTORE DUP1 SWAP3 SWAP2 SWAP1 DUP2 DUP2 MSTORE PUSH1 0x20 ADD DUP3 DUP1 SLOAD PUSH2 0x468 SWAP1 PUSH2 0x22BE JUMP JUMPDEST DUP1 ISZERO PUSH2 0x4B5 JUMPI DUP1 PUSH1 0x1F LT PUSH2 0x48A JUMPI PUSH2 0x100 DUP1 DUP4 SLOAD DIV MUL DUP4 MSTORE SWAP2 PUSH1 0x20 ADD SWAP2 PUSH2 0x4B5 JUMP JUMPDEST DUP3 ADD SWAP2 SWAP1 PUSH1 0x0 MSTORE PUSH1 0x20 PUSH1 0x0 KECCAK256 SWAP1 JUMPDEST DUP2 SLOAD DUP2 MSTORE SWAP1 PUSH1 0x1 ADD SWAP1 PUSH1 0x20 ADD DUP1 DUP4 GT PUSH2 0x498 JUMPI DUP3 SWAP1 SUB PUSH1 0x1F AND DUP3 ADD SWAP2 JUMPDEST POP POP POP POP POP SWAP1 DUP1 PUSH1 0x2 ADD SLOAD SWAP1 DUP1 PUSH1 0x3 ADD SLOAD SWAP1 DUP1 PUSH1 0x4 ADD PUSH1 0x0 SWAP1 SLOAD SWAP1 PUSH2 0x100 EXP SWAP1 DIV PUSH1 0xFF AND SWAP1 POP DUP6 JUMP JUMPDEST PUSH1 0x0 DUP1 SLOAD SWAP1 PUSH2 0x100 EXP SWAP1 DIV PUSH20 0xFFFFFFFFFFFFFFFFFFFFFFFFFFFFFFFFFFFFFFFF AND PUSH20 0xFFFFFFFFFFFFFFFFFFFFFFFFFFFFFFFFFFFFFFFF AND CALLER PUSH20 0xFFFFFFFFFFFFFFFFFFFFFFFFFFFFFFFFFFFFFFFF AND EQ PUSH2 0x56C JUMPI PUSH1 0x40 MLOAD PUSH32 0x8C379A000000000000000000000000000000000000000000000000000000000 DUP2 MSTORE PUSH1 0x4 ADD PUSH2 0x563 SWAP1 PUSH2 0x1F0E JUMP JUMPDEST PUSH1 0x40 MLOAD DUP1 SWAP2 SUB SWAP1 REVERT JUMPDEST PUSH1 0x5 DUP1 SLOAD SWAP1 POP DUP2 LT PUSH2 0x5B3 JUMPI PUSH1 0x40 MLOAD PUSH32 0x8C379A000000000000000000000000000000000000000000000000000000000 DUP2 MSTORE PUSH1 0x4 ADD PUSH2 0x5AA SWAP1 PUSH2 0x1DEE JUMP JUMPDEST PUSH1 0x40 MLOAD DUP1 SWAP2 SUB SWAP1 REVERT JUMPDEST PUSH1 0x0 PUSH1 0x5 DUP3 DUP2 SLOAD DUP2 LT PUSH2 0x5EF JUMPI PUSH32 0x4E487B7100000000000000000000000000000000000000000000000000000000 PUSH1 0x0 MSTORE PUSH1 0x32 PUSH1 0x4 MSTORE PUSH1 0x24 PUSH1 0x0 REVERT JUMPDEST SWAP1 PUSH1 0x0 MSTORE PUSH1 0x20 PUSH1 0x0 KECCAK256 SWAP1 PUSH1 0x5 MUL ADD SWAP1 POP DUP1 PUSH1 0x4 ADD PUSH1 0x0 SWAP1 SLOAD SWAP1 PUSH2 0x100 EXP SWAP1 DIV PUSH1 0xFF AND ISZERO PUSH2 0x651 JUMPI PUSH1 0x40 MLOAD PUSH32 0x8C379A000000000000000000000000000000000000000000000000000000000 DUP2 MSTORE PUSH1 0x4 ADD PUSH2 0x648 SWAP1 PUSH2 0x1E4E JUMP JUMPDEST PUSH1 0x40 MLOAD DUP1 SWAP2 SUB SWAP1 REVERT JUMPDEST DUP1 PUSH1 0x3 ADD SLOAD DUP2 PUSH1 0x2 ADD SLOAD GT PUSH2 0x69B JUMPI PUSH1 0x40 MLOAD PUSH32 0x8C379A000000000000000000000000000000000000000000000000000000000 DUP2 MSTORE PUSH1 0x4 ADD PUSH2 0x692 SWAP1 PUSH2 0x1EAE JUMP JUMPDEST PUSH1 0x40 MLOAD DUP1 SWAP2 SUB SWAP1 REVERT JUMPDEST PUSH1 0x1 DUP2 PUSH1 0x4 ADD PUSH1 0x0 PUSH2 0x100 EXP DUP2 SLOAD DUP2 PUSH1 0xFF MUL NOT AND SWAP1 DUP4 ISZERO ISZERO MUL OR SWAP1 SSTORE POP POP POP JUMP JUMPDEST PUSH1 0x1 PUSH1 0x20 MSTORE DUP1 PUSH1 0x0 MSTORE PUSH1 0x40 PUSH1 0x0 KECCAK256 PUSH1 0x0 SWAP2 POP SWAP1 POP DUP1 PUSH1 0x0 ADD PUSH1 0x0 SWAP1 SLOAD SWAP1 PUSH2 0x100 EXP SWAP1 DIV PUSH20 0xFFFFFFFFFFFFFFFFFFFFFFFFFFFFFFFFFFFFFFFF AND SWAP1 DUP1 PUSH1 0x1 ADD DUP1 SLOAD PUSH2 0x705 SWAP1 PUSH2 0x22BE JUMP JUMPDEST DUP1 PUSH1 0x1F ADD PUSH1 0x20 DUP1 SWAP2 DIV MUL PUSH1 0x20 ADD PUSH1 0x40 MLOAD SWAP1 DUP2 ADD PUSH1 0x40 MSTORE DUP1 SWAP3 SWAP2 SWAP1 DUP2 DUP2 MSTORE PUSH1 0x20 ADD DUP3 DUP1 SLOAD PUSH2 0x731 SWAP1 PUSH2 0x22BE JUMP JUMPDEST DUP1 ISZERO PUSH2 0x77E JUMPI DUP1 PUSH1 0x1F LT PUSH2 0x753 JUMPI PUSH2 0x100 DUP1 DUP4 SLOAD DIV MUL DUP4 MSTORE SWAP2 PUSH1 0x20 ADD SWAP2 PUSH2 0x77E JUMP JUMPDEST DUP3 ADD SWAP2 SWAP1 PUSH1 0x0 MSTORE PUSH1 0x20 PUSH1 0x0 KECCAK256 SWAP1 JUMPDEST DUP2 SLOAD DUP2 MSTORE SWAP1 PUSH1 0x1 ADD SWAP1 PUSH1 0x20 ADD DUP1 DUP4 GT PUSH2 0x761 JUMPI DUP3 SWAP1 SUB PUSH1 0x1F AND DUP3 ADD SWAP2 JUMPDEST POP POP POP POP POP SWAP1 DUP1 PUSH1 0x2 ADD SLOAD SWAP1 DUP1 PUSH1 0x3 ADD SLOAD SWAP1 DUP1 PUSH1 0x4 ADD SLOAD SWAP1 POP DUP6 JUMP JUMPDEST PUSH1 0x5 DUP1 SLOAD SWAP1 POP DUP3 LT PUSH2 0x7E1 JUMPI PUSH1 0x40 MLOAD PUSH32 0x8C379A000000000000000000000000000000000000000000000000000000000 DUP2 MSTORE PUSH1 0x4 ADD PUSH2 0x7D8 SWAP1 PUSH2 0x1DEE JUMP JUMPDEST PUSH1 0x40 MLOAD DUP1 SWAP2 SUB SWAP1 REVERT JUMPDEST PUSH1 0x0 PUSH1 0x5 DUP4 DUP2 SLOAD DUP2 LT PUSH2 0x81D JUMPI PUSH32 0x4E487B7100000000000000000000000000000000000000000000000000000000 PUSH1 0x0 MSTORE PUSH1 0x32 PUSH1 0x4 MSTORE PUSH1 0x24 PUSH1 0x0 REVERT JUMPDEST SWAP1 PUSH1 0x0 MSTORE PUSH1 0x20 PUSH1 0x0 KECCAK256 SWAP1 PUSH1 0x5 MUL ADD SWAP1 POP DUP1 PUSH1 0x4 ADD PUSH1 0x0 SWAP1 SLOAD SWAP1 PUSH2 0x100 EXP SWAP1 DIV PUSH1 0xFF AND ISZERO PUSH2 0x87F JUMPI PUSH1 0x40 MLOAD PUSH32 0x8C379A000000000000000000000000000000000000000000000000000000000 DUP2 MSTORE PUSH1 0x4 ADD PUSH2 0x876 SWAP1 PUSH2 0x1E4E JUMP JUMPDEST PUSH1 0x40 MLOAD DUP1 SWAP2 SUB SWAP1 REVERT JUMPDEST DUP2 ISZERO PUSH2 0x8A4 JUMPI DUP1 PUSH1 0x2 ADD PUSH1 0x0 DUP2 SLOAD DUP1 SWAP3 SWAP2 SWAP1 PUSH2 0x89A SWAP1 PUSH2 0x22F0 JUMP JUMPDEST SWAP2 SWAP1 POP SSTORE POP PUSH2 0x8BF JUMP JUMPDEST DUP1 PUSH1 0x3 ADD PUSH1 0x0 DUP2 SLOAD DUP1 SWAP3 SWAP2 SWAP1 PUSH2 0x8B9 SWAP1 PUSH2 0x22F0 JUMP JUMPDEST SWAP2 SWAP1 POP SSTORE POP JUMPDEST PUSH32 0xE71FCDAC32DF1877C1700E7BDA2A03157E20993363A28FC35AC495CEFC76E4D4 DUP4 CALLER DUP5 PUSH1 0x40 MLOAD PUSH2 0x8F2 SWAP4 SWAP3 SWAP2 SWAP1 PUSH2 0x1FE9 JUMP JUMPDEST PUSH1 0x40 MLOAD DUP1 SWAP2 SUB SWAP1 LOG1 POP POP POP JUMP JUMPDEST PUSH1 0x3 PUSH1 0x20 MSTORE DUP2 PUSH1 0x0 MSTORE PUSH1 0x40 PUSH1 0x0 KECCAK256 PUSH1 0x20 MSTORE DUP1 PUSH1 0x0 MSTORE PUSH1 0x40 PUSH1 0x0 KECCAK256 PUSH1 0x0 SWAP2 POP SWAP2 POP POP SLOAD DUP2 JUMP JUMPDEST PUSH1 0x2 SLOAD DUP2 JUMP JUMPDEST PUSH1 0x2 SLOAD DUP3 LT PUSH2 0x96E JUMPI PUSH1 0x40 MLOAD PUSH32 0x8C379A000000000000000000000000000000000000000000000000000000000 DUP2 MSTORE PUSH1 0x4 ADD PUSH2 0x965 SWAP1 PUSH2 0x1F6E JUMP JUMPDEST PUSH1 0x40 MLOAD DUP1 SWAP2 SUB SWAP1 REVERT JUMPDEST DUP1 PUSH1 0x3 PUSH1 0x0 CALLER PUSH20 0xFFFFFFFFFFFFFFFFFFFFFFFFFFFFFFFFFFFFFFFF AND PUSH20 0xFFFFFFFFFFFFFFFFFFFFFFFFFFFFFFFFFFFFFFFF AND DUP2 MSTORE PUSH1 0x20 ADD SWAP1 DUP2 MSTORE PUSH1 0x20 ADD PUSH1 0x0 KECCAK256 PUSH1 0x0 DUP5 DUP2 MSTORE PUSH1 0x20 ADD SWAP1 DUP2 MSTORE PUSH1 0x20 ADD PUSH1 0x0 KECCAK256 SLOAD LT ISZERO PUSH2 0xA01 JUMPI PUSH1 0x40 MLOAD PUSH32 0x8C379A000000000000000000000000000000000000000000000000000000000 DUP2 MSTORE PUSH1 0x4 ADD PUSH2 0x9F8 SWAP1 PUSH2 0x1ECE JUMP JUMPDEST PUSH1 0x40 MLOAD DUP1 SWAP2 SUB SWAP1 REVERT JUMPDEST DUP1 PUSH1 0x3 PUSH1 0x0 CALLER PUSH20 0xFFFFFFFFFFFFFFFFFFFFFFFFFFFFFFFFFFFFFFFF AND PUSH20 0xFFFFFFFFFFFFFFFFFFFFFFFFFFFFFFFFFFFFFFFF AND DUP2 MSTORE PUSH1 0x20 ADD SWAP1 DUP2 MSTORE PUSH1 0x20 ADD PUSH1 0x0 KECCAK256 PUSH1 0x0 DUP5 DUP2 MSTORE PUSH1 0x20 ADD SWAP1 DUP2 MSTORE PUSH1 0x20 ADD PUSH1 0x0 KECCAK256 PUSH1 0x0 DUP3 DUP3 SLOAD PUSH2 0xA61 SWAP2 SWAP1 PUSH2 0x2200 JUMP JUMPDEST SWAP3 POP POP DUP2 SWAP1 SSTORE POP CALLER PUSH20 0xFFFFFFFFFFFFFFFFFFFFFFFFFFFFFFFFFFFFFFFF AND PUSH32 0x2FFD4879AF328C871CF4D2BE1D40D91F5CE4F202FD47E10E4C58D19667627DA8 DUP4 DUP4 PUSH1 0x40 MLOAD PUSH2 0xAB0 SWAP3 SWAP2 SWAP1 PUSH2 0x20AA JUMP JUMPDEST PUSH1 0x40 MLOAD DUP1 SWAP2 SUB SWAP1 LOG2 POP POP JUMP JUMPDEST PUSH1 0x0 DUP1 SLOAD SWAP1 PUSH2 0x100 EXP SWAP1 DIV PUSH20 0xFFFFFFFFFFFFFFFFFFFFFFFFFFFFFFFFFFFFFFFF AND PUSH20 0xFFFFFFFFFFFFFFFFFFFFFFFFFFFFFFFFFFFFFFFF AND CALLER PUSH20 0xFFFFFFFFFFFFFFFFFFFFFFFFFFFFFFFFFFFFFFFF AND EQ PUSH2 0xB4A JUMPI PUSH1 0x40 MLOAD PUSH32 0x8C379A000000000000000000000000000000000000000000000000000000000 DUP2 MSTORE PUSH1 0x4 ADD PUSH2 0xB41 SWAP1 PUSH2 0x1E6E JUMP JUMPDEST PUSH1 0x40 MLOAD DUP1 SWAP2 SUB SWAP1 REVERT JUMPDEST PUSH1 0x0 DUP2 MLOAD GT PUSH2 0xB8E JUMPI PUSH1 0x40 MLOAD PUSH32 0x8C379A000000000000000000000000000000000000000000000000000000000 DUP2 MSTORE PUSH1 0x4 ADD PUSH2 0xB85 SWAP1 PUSH2 0x1FAE JUMP JUMPDEST PUSH1 0x40 MLOAD DUP1 SWAP2 SUB SWAP1 REVERT JUMPDEST PUSH1 0x5 PUSH1 0x40 MLOAD DUP1 PUSH1 0xA0 ADD PUSH1 0x40 MSTORE DUP1 CALLER PUSH20 0xFFFFFFFFFFFFFFFFFFFFFFFFFFFFFFFFFFFFFFFF AND DUP2 MSTORE PUSH1 0x20 ADD DUP4 DUP2 MSTORE PUSH1 0x20 ADD PUSH1 0x0 DUP2 MSTORE PUSH1 0x20 ADD PUSH1 0x0 DUP2 MSTORE PUSH1 0x20 ADD PUSH1 0x0 ISZERO ISZERO DUP2 MSTORE POP SWAP1 DUP1 PUSH1 0x1 DUP2 SLOAD ADD DUP1 DUP3 SSTORE DUP1 SWAP2 POP POP PUSH1 0x1 SWAP1 SUB SWAP1 PUSH1 0x0 MSTORE PUSH1 0x20 PUSH1 0x0 KECCAK256 SWAP1 PUSH1 0x5 MUL ADD PUSH1 0x0 SWAP1 SWAP2 SWAP1 SWAP2 SWAP1 SWAP2 POP PUSH1 0x0 DUP3 ADD MLOAD DUP2 PUSH1 0x0 ADD PUSH1 0x0 PUSH2 0x100 EXP DUP2 SLOAD DUP2 PUSH20 0xFFFFFFFFFFFFFFFFFFFFFFFFFFFFFFFFFFFFFFFF MUL NOT AND SWAP1 DUP4 PUSH20 0xFFFFFFFFFFFFFFFFFFFFFFFFFFFFFFFFFFFFFFFF AND MUL OR SWAP1 SSTORE POP PUSH1 0x20 DUP3 ADD MLOAD DUP2 PUSH1 0x1 ADD SWAP1 DUP1 MLOAD SWAP1 PUSH1 0x20 ADD SWAP1 PUSH2 0xC5E SWAP3 SWAP2 SWAP1 PUSH2 0x149D JUMP JUMPDEST POP PUSH1 0x40 DUP3 ADD MLOAD DUP2 PUSH1 0x2 ADD SSTORE PUSH1 0x60 DUP3 ADD MLOAD DUP2 PUSH1 0x3 ADD SSTORE PUSH1 0x80 DUP3 ADD MLOAD DUP2 PUSH1 0x4 ADD PUSH1 0x0 PUSH2 0x100 EXP DUP2 SLOAD DUP2 PUSH1 0xFF MUL NOT AND SWAP1 DUP4 ISZERO ISZERO MUL OR SWAP1 SSTORE POP POP POP PUSH32 0xC8C078BFEE58E5822588F08B4509ED1EB5058E03F666CCA84DD2D44BF5C288A8 PUSH1 0x1 PUSH1 0x5 DUP1 SLOAD SWAP1 POP PUSH2 0xCC8 SWAP2 SWAP1 PUSH2 0x2200 JUMP JUMPDEST DUP3 CALLER PUSH1 0x40 MLOAD PUSH2 0xCD9 SWAP4 SWAP3 SWAP2 SWAP1 PUSH2 0x2020 JUMP JUMPDEST PUSH1 0x40 MLOAD DUP1 SWAP2 SUB SWAP1 LOG1 POP JUMP JUMPDEST PUSH1 0x2 SLOAD DUP3 LT PUSH2 0xD28 JUMPI PUSH1 0x40 MLOAD PUSH32 0x8C379A000000000000000000000000000000000000000000000000000000000 DUP2 MSTORE PUSH1 0x4 ADD PUSH2 0xD1F SWAP1 PUSH2 0x1F6E JUMP JUMPDEST PUSH1 0x40 MLOAD DUP1 SWAP2 SUB SWAP1 REVERT JUMPDEST PUSH1 0x0 PUSH1 0x1 PUSH1 0x0 DUP5 DUP2 MSTORE PUSH1 0x20 ADD SWAP1 DUP2 MSTORE PUSH1 0x20 ADD PUSH1 0x0 KECCAK256 SWAP1 POP PUSH1 0x0 DUP3 GT PUSH2 0xD82 JUMPI PUSH1 0x40 MLOAD PUSH32 0x8C379A000000000000000000000000000000000000000000000000000000000 DUP2 MSTORE PUSH1 0x4 ADD PUSH2 0xD79 SWAP1 PUSH2 0x1E0E JUMP JUMPDEST PUSH1 0x40 MLOAD DUP1 SWAP2 SUB SWAP1 REVERT JUMPDEST DUP1 PUSH1 0x3 ADD SLOAD DUP3 GT ISZERO PUSH2 0xDC9 JUMPI PUSH1 0x40 MLOAD PUSH32 0x8C379A000000000000000000000000000000000000000000000000000000000 DUP2 MSTORE PUSH1 0x4 ADD PUSH2 0xDC0 SWAP1 PUSH2 0x1F8E JUMP JUMPDEST PUSH1 0x40 MLOAD DUP1 SWAP2 SUB SWAP1 REVERT JUMPDEST DUP1 PUSH1 0x4 ADD SLOAD DUP3 PUSH2 0xDD9 SWAP2 SWAP1 PUSH2 0x21A6 JUMP JUMPDEST CALLVALUE LT ISZERO PUSH2 0xE1B JUMPI PUSH1 0x40 MLOAD PUSH32 0x8C379A000000000000000000000000000000000000000000000000000000000 DUP2 MSTORE PUSH1 0x4 ADD PUSH2 0xE12 SWAP1 PUSH2 0x1F4E JUMP JUMPDEST PUSH1 0x40 MLOAD DUP1 SWAP2 SUB SWAP1 REVERT JUMPDEST DUP2 DUP2 PUSH1 0x3 ADD PUSH1 0x0 DUP3 DUP3 SLOAD PUSH2 0xE2F SWAP2 SWAP1 PUSH2 0x2200 JUMP JUMPDEST SWAP3 POP POP DUP2 SWAP1 SSTORE POP DUP2 PUSH1 0x3 PUSH1 0x0 CALLER PUSH20 0xFFFFFFFFFFFFFFFFFFFFFFFFFFFFFFFFFFFFFFFF AND PUSH20 0xFFFFFFFFFFFFFFFFFFFFFFFFFFFFFFFFFFFFFFFF AND DUP2 MSTORE PUSH1 0x20 ADD SWAP1 DUP2 MSTORE PUSH1 0x20 ADD PUSH1 0x0 KECCAK256 PUSH1 0x0 DUP6 DUP2 MSTORE PUSH1 0x20 ADD SWAP1 DUP2 MSTORE PUSH1 0x20 ADD PUSH1 0x0 KECCAK256 PUSH1 0x0 DUP3 DUP3 SLOAD PUSH2 0xE96 SWAP2 SWAP1 PUSH2 0x2150 JUMP JUMPDEST SWAP3 POP POP DUP2 SWAP1 SSTORE POP DUP2 PUSH1 0x4 PUSH1 0x0 CALLER PUSH20 0xFFFFFFFFFFFFFFFFFFFFFFFFFFFFFFFFFFFFFFFF AND PUSH20 0xFFFFFFFFFFFFFFFFFFFFFFFFFFFFFFFFFFFFFFFF AND DUP2 MSTORE PUSH1 0x20 ADD SWAP1 DUP2 MSTORE PUSH1 0x20 ADD PUSH1 0x0 KECCAK256 PUSH1 0x0 DUP3 DUP3 SLOAD PUSH2 0xEEC SWAP2 SWAP1 PUSH2 0x2150 JUMP JUMPDEST SWAP3 POP POP DUP2 SWAP1 SSTORE POP DUP1 PUSH1 0x0 ADD PUSH1 0x0 SWAP1 SLOAD SWAP1 PUSH2 0x100 EXP SWAP1 DIV PUSH20 0xFFFFFFFFFFFFFFFFFFFFFFFFFFFFFFFFFFFFFFFF AND PUSH20 0xFFFFFFFFFFFFFFFFFFFFFFFFFFFFFFFFFFFFFFFF AND PUSH2 0x8FC CALLVALUE SWAP1 DUP2 ISZERO MUL SWAP1 PUSH1 0x40 MLOAD PUSH1 0x0 PUSH1 0x40 MLOAD DUP1 DUP4 SUB DUP2 DUP6 DUP9 DUP9 CALL SWAP4 POP POP POP POP ISZERO DUP1 ISZERO PUSH2 0xF5D JUMPI RETURNDATASIZE PUSH1 0x0 DUP1 RETURNDATACOPY RETURNDATASIZE PUSH1 0x0 REVERT JUMPDEST POP CALLER PUSH20 0xFFFFFFFFFFFFFFFFFFFFFFFFFFFFFFFFFFFFFFFF AND PUSH32 0xFB82FC1C5ADF84899709E87563B69DD5F4AC33320F1C60DBCA744BEC717EB90F DUP5 DUP5 PUSH1 0x40 MLOAD PUSH2 0xFA6 SWAP3 SWAP2 SWAP1 PUSH2 0x20AA JUMP JUMPDEST PUSH1 0x40 MLOAD DUP1 SWAP2 SUB SWAP1 LOG2 POP POP POP JUMP JUMPDEST PUSH1 0x0 DUP1 SLOAD SWAP1 PUSH2 0x100 EXP SWAP1 DIV PUSH20 0xFFFFFFFFFFFFFFFFFFFFFFFFFFFFFFFFFFFFFFFF AND DUP2 JUMP JUMPDEST PUSH1 0x0 PUSH1 0x4 PUSH1 0x0 DUP4 PUSH20 0xFFFFFFFFFFFFFFFFFFFFFFFFFFFFFFFFFFFFFFFF AND PUSH20 0xFFFFFFFFFFFFFFFFFFFFFFFFFFFFFFFFFFFFFFFF AND DUP2 MSTORE PUSH1 0x20 ADD SWAP1 DUP2 MSTORE PUSH1 0x20 ADD PUSH1 0x0 KECCAK256 SLOAD SWAP1 POP SWAP2 SWAP1 POP JUMP JUMPDEST PUSH1 0x0 PUSH1 0x2 SLOAD DUP3 LT PUSH2 0x1066 JUMPI PUSH1 0x40 MLOAD PUSH32 0x8C379A000000000000000000000000000000000000000000000000000000000 DUP2 MSTORE PUSH1 0x4 ADD PUSH2 0x105D SWAP1 PUSH2 0x1F6E JUMP JUMPDEST PUSH1 0x40 MLOAD DUP1 SWAP2 SUB SWAP1 REVERT JUMPDEST PUSH1 0x3 PUSH1 0x0 DUP5 PUSH20 0xFFFFFFFFFFFFFFFFFFFFFFFFFFFFFFFFFFFFFFFF AND PUSH20 0xFFFFFFFFFFFFFFFFFFFFFFFFFFFFFFFFFFFFFFFF AND DUP2 MSTORE PUSH1 0x20 ADD SWAP1 DUP2 MSTORE PUSH1 0x20 ADD PUSH1 0x0 KECCAK256 PUSH1 0x0 DUP4 DUP2 MSTORE PUSH1 0x20 ADD SWAP1 DUP2 MSTORE PUSH1 0x20 ADD PUSH1 0x0 KECCAK256 SLOAD SWAP1 POP SWAP3 SWAP2 POP POP JUMP JUMPDEST PUSH1 0x4 PUSH1 0x20 MSTORE DUP1 PUSH1 0x0 MSTORE PUSH1 0x40 PUSH1 0x0 KECCAK256 PUSH1 0x0 SWAP2 POP SWAP1 POP SLOAD DUP2 JUMP JUMPDEST PUSH1 0x0 DUP1 SLOAD SWAP1 PUSH2 0x100 EXP SWAP1 DIV PUSH20 0xFFFFFFFFFFFFFFFFFFFFFFFFFFFFFFFFFFFFFFFF AND PUSH20 0xFFFFFFFFFFFFFFFFFFFFFFFFFFFFFFFFFFFFFFFF AND CALLER PUSH20 0xFFFFFFFFFFFFFFFFFFFFFFFFFFFFFFFFFFFFFFFF AND EQ PUSH2 0x1165 JUMPI PUSH1 0x40 MLOAD PUSH32 0x8C379A000000000000000000000000000000000000000000000000000000000 DUP2 MSTORE PUSH1 0x4 ADD PUSH2 0x115C SWAP1 PUSH2 0x1E8E JUMP JUMPDEST PUSH1 0x40 MLOAD DUP1 SWAP2 SUB SWAP1 REVERT JUMPDEST PUSH1 0x0 DUP4 MLOAD GT PUSH2 0x11A9 JUMPI PUSH1 0x40 MLOAD PUSH32 0x8C379A000000000000000000000000000000000000000000000000000000000 DUP2 MSTORE PUSH1 0x4 ADD PUSH2 0x11A0 SWAP1 PUSH2 0x1EEE JUMP JUMPDEST PUSH1 0x40 MLOAD DUP1 SWAP2 SUB SWAP1 REVERT JUMPDEST PUSH1 0x0 DUP3 GT PUSH2 0x11EC JUMPI PUSH1 0x40 MLOAD PUSH32 0x8C379A000000000000000000000000000000000000000000000000000000000 DUP2 MSTORE PUSH1 0x4 ADD PUSH2 0x11E3 SWAP1 PUSH2 0x1F2E JUMP JUMPDEST PUSH1 0x40 MLOAD DUP1 SWAP2 SUB SWAP1 REVERT JUMPDEST PUSH1 0x0 DUP2 GT PUSH2 0x122F JUMPI PUSH1 0x40 MLOAD PUSH32 0x8C379A000000000000000000000000000000000000000000000000000000000 DUP2 MSTORE PUSH1 0x4 ADD PUSH2 0x1226 SWAP1 PUSH2 0x1E2E JUMP JUMPDEST PUSH1 0x40 MLOAD DUP1 SWAP2 SUB SWAP1 REVERT JUMPDEST PUSH1 0x40 MLOAD DUP1 PUSH1 0xA0 ADD PUSH1 0x40 MSTORE DUP1 CALLER PUSH20 0xFFFFFFFFFFFFFFFFFFFFFFFFFFFFFFFFFFFFFFFF AND DUP2 MSTORE PUSH1 0x20 ADD DUP5 DUP2 MSTORE PUSH1 0x20 ADD DUP4 DUP2 MSTORE PUSH1 0x20 ADD DUP4 DUP2 MSTORE PUSH1 0x20 ADD DUP3 DUP2 MSTORE POP PUSH1 0x1 PUSH1 0x0 PUSH1 0x2 SLOAD DUP2 MSTORE PUSH1 0x20 ADD SWAP1 DUP2 MSTORE PUSH1 0x20 ADD PUSH1 0x0 KECCAK256 PUSH1 0x0 DUP3 ADD MLOAD DUP2 PUSH1 0x0 ADD PUSH1 0x0 PUSH2 0x100 EXP DUP2 SLOAD DUP2 PUSH20 0xFFFFFFFFFFFFFFFFFFFFFFFFFFFFFFFFFFFFFFFF MUL NOT AND SWAP1 DUP4 PUSH20 0xFFFFFFFFFFFFFFFFFFFFFFFFFFFFFFFFFFFFFFFF AND MUL OR SWAP1 SSTORE POP PUSH1 0x20 DUP3 ADD MLOAD DUP2 PUSH1 0x1 ADD SWAP1 DUP1 MLOAD SWAP1 PUSH1 0x20 ADD SWAP1 PUSH2 0x12E4 SWAP3 SWAP2 SWAP1 PUSH2 0x149D JUMP JUMPDEST POP PUSH1 0x40 DUP3 ADD MLOAD DUP2 PUSH1 0x2 ADD SSTORE PUSH1 0x60 DUP3 ADD MLOAD DUP2 PUSH1 0x3 ADD SSTORE PUSH1 0x80 DUP3 ADD MLOAD DUP2 PUSH1 0x4 ADD SSTORE SWAP1 POP POP PUSH32 0x50C6A8B423458D44F896828D57AF33000EAD07320BC572C2B3D856E7A954DF4B PUSH1 0x2 SLOAD DUP5 DUP5 DUP5 PUSH1 0x40 MLOAD PUSH2 0x133D SWAP5 SWAP4 SWAP3 SWAP2 SWAP1 PUSH2 0x205E JUMP JUMPDEST PUSH1 0x40 MLOAD DUP1 SWAP2 SUB SWAP1 LOG1 PUSH1 0x2 PUSH1 0x0 DUP2 SLOAD DUP1 SWAP3 SWAP2 SWAP1 PUSH2 0x1358 SWAP1 PUSH2 0x22F0 JUMP JUMPDEST SWAP2 SWAP1 POP SSTORE POP POP POP POP JUMP JUMPDEST PUSH1 0x60 PUSH1 0x0 DUP1 PUSH1 0x0 DUP1 PUSH1 0x2 SLOAD DUP7 LT PUSH2 0x13AE JUMPI PUSH1 0x40 MLOAD PUSH32 0x8C379A000000000000000000000000000000000000000000000000000000000 DUP2 MSTORE PUSH1 0x4 ADD PUSH2 0x13A5 SWAP1 PUSH2 0x1F6E JUMP JUMPDEST PUSH1 0x40 MLOAD DUP1 SWAP2 SUB SWAP1 REVERT JUMPDEST PUSH1 0x0 PUSH1 0x1 PUSH1 0x0 DUP9 DUP2 MSTORE PUSH1 0x20 ADD SWAP1 DUP2 MSTORE PUSH1 0x20 ADD PUSH1 0x0 KECCAK256 SWAP1 POP DUP1 PUSH1 0x1 ADD DUP2 PUSH1 0x2 ADD SLOAD DUP3 PUSH1 0x3 ADD SLOAD DUP4 PUSH1 0x4 ADD SLOAD DUP5 PUSH1 0x0 ADD PUSH1 0x0 SWAP1 SLOAD SWAP1 PUSH2 0x100 EXP SWAP1 DIV PUSH20 0xFFFFFFFFFFFFFFFFFFFFFFFFFFFFFFFFFFFFFFFF AND DUP5 DUP1 SLOAD PUSH2 0x1409 SWAP1 PUSH2 0x22BE JUMP JUMPDEST DUP1 PUSH1 0x1F ADD PUSH1 0x20 DUP1 SWAP2 DIV MUL PUSH1 0x20 ADD PUSH1 0x40 MLOAD SWAP1 DUP2 ADD PUSH1 0x40 MSTORE DUP1 SWAP3 SWAP2 SWAP1 DUP2 DUP2 MSTORE PUSH1 0x20 ADD DUP3 DUP1 SLOAD PUSH2 0x1435 SWAP1 PUSH2 0x22BE JUMP JUMPDEST DUP1 ISZERO PUSH2 0x1482 JUMPI DUP1 PUSH1 0x1F LT PUSH2 0x1457 JUMPI PUSH2 0x100 DUP1 DUP4 SLOAD DIV MUL DUP4 MSTORE SWAP2 PUSH1 0x20 ADD SWAP2 PUSH2 0x1482 JUMP JUMPDEST DUP3 ADD SWAP2 SWAP1 PUSH1 0x0 MSTORE PUSH1 0x20 PUSH1 0x0 KECCAK256 SWAP1 JUMPDEST DUP2 SLOAD DUP2 MSTORE SWAP1 PUSH1 0x1 ADD SWAP1 PUSH1 0x20 ADD DUP1 DUP4 GT PUSH2 0x1465 JUMPI DUP3 SWAP1 SUB PUSH1 0x1F AND DUP3 ADD SWAP2 JUMPDEST POP POP POP POP POP SWAP5 POP SWAP6 POP SWAP6 POP SWAP6 POP SWAP6 POP SWAP6 POP POP SWAP2 SWAP4 SWAP6 SWAP1 SWAP3 SWAP5 POP JUMP JUMPDEST DUP3 DUP1 SLOAD PUSH2 0x14A9 SWAP1 PUSH2 0x22BE JUMP JUMPDEST SWAP1 PUSH1 0x0 MSTORE PUSH1 0x20 PUSH1 0x0 KECCAK256 SWAP1 PUSH1 0x1F ADD PUSH1 0x20 SWAP1 DIV DUP2 ADD SWAP3 DUP3 PUSH2 0x14CB JUMPI PUSH1 0x0 DUP6 SSTORE PUSH2 0x1512 JUMP JUMPDEST DUP3 PUSH1 0x1F LT PUSH2 0x14E4 JUMPI DUP1 MLOAD PUSH1 0xFF NOT AND DUP4 DUP1 ADD OR DUP6 SSTORE PUSH2 0x1512 JUMP JUMPDEST DUP3 DUP1 ADD PUSH1 0x1 ADD DUP6 SSTORE DUP3 ISZERO PUSH2 0x1512 JUMPI SWAP2 DUP3 ADD JUMPDEST DUP3 DUP2 GT ISZERO PUSH2 0x1511 JUMPI DUP3 MLOAD DUP3 SSTORE SWAP2 PUSH1 0x20 ADD SWAP2 SWAP1 PUSH1 0x1 ADD SWAP1 PUSH2 0x14F6 JUMP JUMPDEST JUMPDEST POP SWAP1 POP PUSH2 0x151F SWAP2 SWAP1 PUSH2 0x1523 JUMP JUMPDEST POP SWAP1 JUMP JUMPDEST JUMPDEST DUP1 DUP3 GT ISZERO PUSH2 0x153C JUMPI PUSH1 0x0 DUP2 PUSH1 0x0 SWAP1 SSTORE POP PUSH1 0x1 ADD PUSH2 0x1524 JUMP JUMPDEST POP SWAP1 JUMP JUMPDEST PUSH1 0x0 PUSH2 0x1553 PUSH2 0x154E DUP5 PUSH2 0x2104 JUMP JUMPDEST PUSH2 0x20D3 JUMP JUMPDEST SWAP1 POP DUP3 DUP2 MSTORE PUSH1 0x20 DUP2 ADD DUP5 DUP5 DUP5 ADD GT ISZERO PUSH2 0x156B JUMPI PUSH1 0x0 DUP1 REVERT JUMPDEST PUSH2 0x1576 DUP5 DUP3 DUP6 PUSH2 0x227C JUMP JUMPDEST POP SWAP4 SWAP3 POP POP POP JUMP JUMPDEST PUSH1 0x0 DUP2 CALLDATALOAD SWAP1 POP PUSH2 0x158D DUP2 PUSH2 0x23D7 JUMP JUMPDEST SWAP3 SWAP2 POP POP JUMP JUMPDEST PUSH1 0x0 DUP2 CALLDATALOAD SWAP1 POP PUSH2 0x15A2 DUP2 PUSH2 0x23EE JUMP JUMPDEST SWAP3 SWAP2 POP POP JUMP JUMPDEST PUSH1 0x0 DUP3 PUSH1 0x1F DUP4 ADD SLT PUSH2 0x15B9 JUMPI PUSH1 0x0 DUP1 REVERT JUMPDEST DUP2 CALLDATALOAD PUSH2 0x15C9 DUP5 DUP3 PUSH1 0x20 DUP7 ADD PUSH2 0x1540 JUMP JUMPDEST SWAP2 POP POP SWAP3 SWAP2 POP POP JUMP JUMPDEST PUSH1 0x0 DUP2 CALLDATALOAD SWAP1 POP PUSH2 0x15E1 DUP2 PUSH2 0x2405 JUMP JUMPDEST SWAP3 SWAP2 POP POP JUMP JUMPDEST PUSH1 0x0 PUSH1 0x20 DUP3 DUP5 SUB SLT ISZERO PUSH2 0x15F9 JUMPI PUSH1 0x0 DUP1 REVERT JUMPDEST PUSH1 0x0 PUSH2 0x1607 DUP5 DUP3 DUP6 ADD PUSH2 0x157E JUMP JUMPDEST SWAP2 POP POP SWAP3 SWAP2 POP POP JUMP JUMPDEST PUSH1 0x0 DUP1 PUSH1 0x40 DUP4 DUP6 SUB SLT ISZERO PUSH2 0x1623 JUMPI PUSH1 0x0 DUP1 REVERT JUMPDEST PUSH1 0x0 PUSH2 0x1631 DUP6 DUP3 DUP7 ADD PUSH2 0x157E JUMP JUMPDEST SWAP3 POP POP PUSH1 0x20 PUSH2 0x1642 DUP6 DUP3 DUP7 ADD PUSH2 0x15D2 JUMP JUMPDEST SWAP2 POP POP SWAP3 POP SWAP3 SWAP1 POP JUMP JUMPDEST PUSH1 0x0 PUSH1 0x20 DUP3 DUP5 SUB SLT ISZERO PUSH2 0x165E JUMPI PUSH1 0x0 DUP1 REVERT JUMPDEST PUSH1 0x0 DUP3 ADD CALLDATALOAD PUSH8 0xFFFFFFFFFFFFFFFF DUP2 GT ISZERO PUSH2 0x1678 JUMPI PUSH1 0x0 DUP1 REVERT JUMPDEST PUSH2 0x1684 DUP5 DUP3 DUP6 ADD PUSH2 0x15A8 JUMP JUMPDEST SWAP2 POP POP SWAP3 SWAP2 POP POP JUMP JUMPDEST PUSH1 0x0 DUP1 PUSH1 0x0 PUSH1 0x60 DUP5 DUP7 SUB SLT ISZERO PUSH2 0x16A2 JUMPI PUSH1 0x0 DUP1 REVERT JUMPDEST PUSH1 0x0 DUP5 ADD CALLDATALOAD PUSH8 0xFFFFFFFFFFFFFFFF DUP2 GT ISZERO PUSH2 0x16BC JUMPI PUSH1 0x0 DUP1 REVERT JUMPDEST PUSH2 0x16C8 DUP7 DUP3 DUP8 ADD PUSH2 0x15A8 JUMP JUMPDEST SWAP4 POP POP PUSH1 0x20 PUSH2 0x16D9 DUP7 DUP3 DUP8 ADD PUSH2 0x15D2 JUMP JUMPDEST SWAP3 POP POP PUSH1 0x40 PUSH2 0x16EA DUP7 DUP3 DUP8 ADD PUSH2 0x15D2 JUMP JUMPDEST SWAP2 POP POP SWAP3 POP SWAP3 POP SWAP3 JUMP JUMPDEST PUSH1 0x0 PUSH1 0x20 DUP3 DUP5 SUB SLT ISZERO PUSH2 0x1706 JUMPI PUSH1 0x0 DUP1 REVERT JUMPDEST PUSH1 0x0 PUSH2 0x1714 DUP5 DUP3 DUP6 ADD PUSH2 0x15D2 JUMP JUMPDEST SWAP2 POP POP SWAP3 SWAP2 POP POP JUMP JUMPDEST PUSH1 0x0 DUP1 PUSH1 0x40 DUP4 DUP6 SUB SLT ISZERO PUSH2 0x1730 JUMPI PUSH1 0x0 DUP1 REVERT JUMPDEST PUSH1 0x0 PUSH2 0x173E DUP6 DUP3 DUP7 ADD PUSH2 0x15D2 JUMP JUMPDEST SWAP3 POP POP PUSH1 0x20 PUSH2 0x174F DUP6 DUP3 DUP7 ADD PUSH2 0x1593 JUMP JUMPDEST SWAP2 POP POP SWAP3 POP SWAP3 SWAP1 POP JUMP JUMPDEST PUSH1 0x0 DUP1 PUSH1 0x40 DUP4 DUP6 SUB SLT ISZERO PUSH2 0x176C JUMPI PUSH1 0x0 DUP1 REVERT JUMPDEST PUSH1 0x0 PUSH2 0x177A DUP6 DUP3 DUP7 ADD PUSH2 0x15D2 JUMP JUMPDEST SWAP3 POP POP PUSH1 0x20 PUSH2 0x178B DUP6 DUP3 DUP7 ADD PUSH2 0x15D2 JUMP JUMPDEST SWAP2 POP POP SWAP3 POP SWAP3 SWAP1 POP JUMP JUMPDEST PUSH2 0x179E DUP2 PUSH2 0x2234 JUMP JUMPDEST DUP3 MSTORE POP POP JUMP JUMPDEST PUSH2 0x17AD DUP2 PUSH2 0x2246 JUMP JUMPDEST DUP3 MSTORE POP POP JUMP JUMPDEST PUSH1 0x0 PUSH2 0x17BE DUP3 PUSH2 0x2134 JUMP JUMPDEST PUSH2 0x17C8 DUP2 DUP6 PUSH2 0x213F JUMP JUMPDEST SWAP4 POP PUSH2 0x17D8 DUP2 DUP6 PUSH1 0x20 DUP7 ADD PUSH2 0x228B JUMP JUMPDEST PUSH2 0x17E1 DUP2 PUSH2 0x23C6 JUMP JUMPDEST DUP5 ADD SWAP2 POP POP SWAP3 SWAP2 POP POP JUMP JUMPDEST PUSH1 0x0 PUSH2 0x17F9 PUSH1 0x13 DUP4 PUSH2 0x213F JUMP JUMPDEST SWAP2 POP PUSH32 0x496E76616C69642070726F706F73616C20494400000000000000000000000000 PUSH1 0x0 DUP4 ADD MSTORE PUSH1 0x20 DUP3 ADD SWAP1 POP SWAP2 SWAP1 POP JUMP JUMPDEST PUSH1 0x0 PUSH2 0x1839 PUSH1 0x23 DUP4 PUSH2 0x213F JUMP JUMPDEST SWAP2 POP PUSH32 0x437265646974732073686F756C642062652067726561746572207468616E207A PUSH1 0x0 DUP4 ADD MSTORE PUSH32 0x65726F0000000000000000000000000000000000000000000000000000000000 PUSH1 0x20 DUP4 ADD MSTORE PUSH1 0x40 DUP3 ADD SWAP1 POP SWAP2 SWAP1 POP JUMP JUMPDEST PUSH1 0x0 PUSH2 0x189F PUSH1 0x2C DUP4 PUSH2 0x213F JUMP JUMPDEST SWAP2 POP PUSH32 0x507269636520706572206372656469742073686F756C64206265206772656174 PUSH1 0x0 DUP4 ADD MSTORE PUSH32 0x6572207468616E207A65726F0000000000000000000000000000000000000000 PUSH1 0x20 DUP4 ADD MSTORE PUSH1 0x40 DUP3 ADD SWAP1 POP SWAP2 SWAP1 POP JUMP JUMPDEST PUSH1 0x0 PUSH2 0x1905 PUSH1 0x19 DUP4 PUSH2 0x213F JUMP JUMPDEST SWAP2 POP PUSH32 0x50726F706F73616C20616C726561647920657865637574656400000000000000 PUSH1 0x0 DUP4 ADD MSTORE PUSH1 0x20 DUP3 ADD SWAP1 POP SWAP2 SWAP1 POP JUMP JUMPDEST PUSH1 0x0 PUSH2 0x1945 PUSH1 0x23 DUP4 PUSH2 0x213F JUMP JUMPDEST SWAP2 POP PUSH32 0x4F6E6C7920746865206F776E65722063616E206372656174652070726F706F73 PUSH1 0x0 DUP4 ADD MSTORE PUSH32 0x616C730000000000000000000000000000000000000000000000000000000000 PUSH1 0x20 DUP4 ADD MSTORE PUSH1 0x40 DUP3 ADD SWAP1 POP SWAP2 SWAP1 POP JUMP JUMPDEST PUSH1 0x0 PUSH2 0x19AB PUSH1 0x24 DUP4 PUSH2 0x213F JUMP JUMPDEST SWAP2 POP PUSH32 0x4F6E6C7920746865206F776E65722063616E2072656769737465722070726F6A PUSH1 0x0 DUP4 ADD MSTORE PUSH32 0x6563747300000000000000000000000000000000000000000000000000000000 PUSH1 0x20 DUP4 ADD MSTORE PUSH1 0x40 DUP3 ADD SWAP1 POP SWAP2 SWAP1 POP JUMP JUMPDEST PUSH1 0x0 PUSH2 0x1A11 PUSH1 0x15 DUP4 PUSH2 0x213F JUMP JUMPDEST SWAP2 POP PUSH32 0x50726F706F73616C20646964206E6F7420706173730000000000000000000000 PUSH1 0x0 DUP4 ADD MSTORE PUSH1 0x20 DUP3 ADD SWAP1 POP SWAP2 SWAP1 POP JUMP JUMPDEST PUSH1 0x0 PUSH2 0x1A51 PUSH1 0x1E DUP4 PUSH2 0x213F JUMP JUMPDEST SWAP2 POP PUSH32 0x496E73756666696369656E74206372656469747320746F207265746972650000 PUSH1 0x0 DUP4 ADD MSTORE PUSH1 0x20 DUP3 ADD SWAP1 POP SWAP2 SWAP1 POP JUMP JUMPDEST PUSH1 0x0 PUSH2 0x1A91 PUSH1 0x1C DUP4 PUSH2 0x213F JUMP JUMPDEST SWAP2 POP PUSH32 0x50726F6A656374206E616D652063616E6E6F7420626520656D70747900000000 PUSH1 0x0 DUP4 ADD MSTORE PUSH1 0x20 DUP3 ADD SWAP1 POP SWAP2 SWAP1 POP JUMP JUMPDEST PUSH1 0x0 PUSH2 0x1AD1 PUSH1 0x24 DUP4 PUSH2 0x213F JUMP JUMPDEST SWAP2 POP PUSH32 0x4F6E6C7920746865206F776E65722063616E20657865637574652070726F706F PUSH1 0x0 DUP4 ADD MSTORE PUSH32 0x73616C7300000000000000000000000000000000000000000000000000000000 PUSH1 0x20 DUP4 ADD MSTORE PUSH1 0x40 DUP3 ADD SWAP1 POP SWAP2 SWAP1 POP JUMP JUMPDEST PUSH1 0x0 PUSH2 0x1B37 PUSH1 0x29 DUP4 PUSH2 0x213F JUMP JUMPDEST SWAP2 POP PUSH32 0x546F74616C20637265646974732073686F756C64206265206772656174657220 PUSH1 0x0 DUP4 ADD MSTORE PUSH32 0x7468616E207A65726F0000000000000000000000000000000000000000000000 PUSH1 0x20 DUP4 ADD MSTORE PUSH1 0x40 DUP3 ADD SWAP1 POP SWAP2 SWAP1 POP JUMP JUMPDEST PUSH1 0x0 PUSH2 0x1B9D PUSH1 0x14 DUP4 PUSH2 0x213F JUMP JUMPDEST SWAP2 POP PUSH32 0x496E73756666696369656E74207061796D656E74000000000000000000000000 PUSH1 0x0 DUP4 ADD MSTORE PUSH1 0x20 DUP3 ADD SWAP1 POP SWAP2 SWAP1 POP JUMP JUMPDEST PUSH1 0x0 PUSH2 0x1BDD PUSH1 0x12 DUP4 PUSH2 0x213F JUMP JUMPDEST SWAP2 POP PUSH32 0x496E76616C69642070726F6A6563742049440000000000000000000000000000 PUSH1 0x0 DUP4 ADD MSTORE PUSH1 0x20 DUP3 ADD SWAP1 POP SWAP2 SWAP1 POP JUMP JUMPDEST PUSH1 0x0 PUSH2 0x1C1D PUSH1 0x1C DUP4 PUSH2 0x213F JUMP JUMPDEST SWAP2 POP PUSH32 0x4E6F7420656E6F75676820617661696C61626C65206372656469747300000000 PUSH1 0x0 DUP4 ADD MSTORE PUSH1 0x20 DUP3 ADD SWAP1 POP SWAP2 SWAP1 POP JUMP JUMPDEST PUSH1 0x0 PUSH2 0x1C5D PUSH1 0x24 DUP4 PUSH2 0x213F JUMP JUMPDEST SWAP2 POP PUSH32 0x50726F706F73616C206465736372697074696F6E2063616E6E6F742062652065 PUSH1 0x0 DUP4 ADD MSTORE PUSH32 0x6D70747900000000000000000000000000000000000000000000000000000000 PUSH1 0x20 DUP4 ADD MSTORE PUSH1 0x40 DUP3 ADD SWAP1 POP SWAP2 SWAP1 POP JUMP JUMPDEST PUSH2 0x1CBF DUP2 PUSH2 0x2272 JUMP JUMPDEST DUP3 MSTORE POP POP JUMP JUMPDEST PUSH1 0x0 PUSH1 0x20 DUP3 ADD SWAP1 POP PUSH2 0x1CDA PUSH1 0x0 DUP4 ADD DUP5 PUSH2 0x1795 JUMP JUMPDEST SWAP3 SWAP2 POP POP JUMP JUMPDEST PUSH1 0x0 PUSH1 0xA0 DUP3 ADD SWAP1 POP PUSH2 0x1CF5 PUSH1 0x0 DUP4 ADD DUP9 PUSH2 0x1795 JUMP JUMPDEST DUP2 DUP2 SUB PUSH1 0x20 DUP4 ADD MSTORE PUSH2 0x1D07 DUP2 DUP8 PUSH2 0x17B3 JUMP JUMPDEST SWAP1 POP PUSH2 0x1D16 PUSH1 0x40 DUP4 ADD DUP7 PUSH2 0x1CB6 JUMP JUMPDEST PUSH2 0x1D23 PUSH1 0x60 DUP4 ADD DUP6 PUSH2 0x1CB6 JUMP JUMPDEST PUSH2 0x1D30 PUSH1 0x80 DUP4 ADD DUP5 PUSH2 0x17A4 JUMP JUMPDEST SWAP7 SWAP6 POP POP POP POP POP POP JUMP JUMPDEST PUSH1 0x0 PUSH1 0xA0 DUP3 ADD SWAP1 POP PUSH2 0x1D4F PUSH1 0x0 DUP4 ADD DUP9 PUSH2 0x1795 JUMP JUMPDEST DUP2 DUP2 SUB PUSH1 0x20 DUP4 ADD MSTORE PUSH2 0x1D61 DUP2 DUP8 PUSH2 0x17B3 JUMP JUMPDEST SWAP1 POP PUSH2 0x1D70 PUSH1 0x40 DUP4 ADD DUP7 PUSH2 0x1CB6 JUMP JUMPDEST PUSH2 0x1D7D PUSH1 0x60 DUP4 ADD DUP6 PUSH2 0x1CB6 JUMP JUMPDEST PUSH2 0x1D8A PUSH1 0x80 DUP4 ADD DUP5 PUSH2 0x1CB6 JUMP JUMPDEST SWAP7 SWAP6 POP POP POP POP POP POP JUMP JUMPDEST PUSH1 0x0 PUSH1 0xA0 DUP3 ADD SWAP1 POP DUP2 DUP2 SUB PUSH1 0x0 DUP4 ADD MSTORE PUSH2 0x1DAE DUP2 DUP9 PUSH2 0x17B3 JUMP JUMPDEST SWAP1 POP PUSH2 0x1DBD PUSH1 0x20 DUP4 ADD DUP8 PUSH2 0x1CB6 JUMP JUMPDEST PUSH2 0x1DCA PUSH1 0x40 DUP4 ADD DUP7 PUSH2 0x1CB6 JUMP JUMPDEST PUSH2 0x1DD7 PUSH1 0x60 DUP4 ADD DUP6 PUSH2 0x1CB6 JUMP JUMPDEST PUSH2 0x1DE4 PUSH1 0x80 DUP4 ADD DUP5 PUSH2 0x1795 JUMP JUMPDEST SWAP7 SWAP6 POP POP POP POP POP POP JUMP JUMPDEST PUSH1 0x0 PUSH1 0x20 DUP3 ADD SWAP1 POP DUP2 DUP2 SUB PUSH1 0x0 DUP4 ADD MSTORE PUSH2 0x1E07 DUP2 PUSH2 0x17EC JUMP JUMPDEST SWAP1 POP SWAP2 SWAP1 POP JUMP JUMPDEST PUSH1 0x0 PUSH1 0x20 DUP3 ADD SWAP1 POP DUP2 DUP2 SUB PUSH1 0x0 DUP4 ADD MSTORE PUSH2 0x1E27 DUP2 PUSH2 0x182C JUMP JUMPDEST SWAP1 POP SWAP2 SWAP1 POP JUMP JUMPDEST PUSH1 0x0 PUSH1 0x20 DUP3 ADD SWAP1 POP DUP2 DUP2 SUB PUSH1 0x0 DUP4 ADD MSTORE PUSH2 0x1E47 DUP2 PUSH2 0x1892 JUMP JUMPDEST SWAP1 POP SWAP2 SWAP1 POP JUMP JUMPDEST PUSH1 0x0 PUSH1 0x20 DUP3 ADD SWAP1 POP DUP2 DUP2 SUB PUSH1 0x0 DUP4 ADD MSTORE PUSH2 0x1E67 DUP2 PUSH2 0x18F8 JUMP JUMPDEST SWAP1 POP SWAP2 SWAP1 POP JUMP JUMPDEST PUSH1 0x0 PUSH1 0x20 DUP3 ADD SWAP1 POP DUP2 DUP2 SUB PUSH1 0x0 DUP4 ADD MSTORE PUSH2 0x1E87 DUP2 PUSH2 0x1938 JUMP JUMPDEST SWAP1 POP SWAP2 SWAP1 POP JUMP JUMPDEST PUSH1 0x0 PUSH1 0x20 DUP3 ADD SWAP1 POP DUP2 DUP2 SUB PUSH1 0x0 DUP4 ADD MSTORE PUSH2 0x1EA7 DUP2 PUSH2 0x199E JUMP JUMPDEST SWAP1 POP SWAP2 SWAP1 POP JUMP JUMPDEST PUSH1 0x0 PUSH1 0x20 DUP3 ADD SWAP1 POP DUP2 DUP2 SUB PUSH1 0x0 DUP4 ADD MSTORE PUSH2 0x1EC7 DUP2 PUSH2 0x1A04 JUMP JUMPDEST SWAP1 POP SWAP2 SWAP1 POP JUMP JUMPDEST PUSH1 0x0 PUSH1 0x20 DUP3 ADD SWAP1 POP DUP2 DUP2 SUB PUSH1 0x0 DUP4 ADD MSTORE PUSH2 0x1EE7 DUP2 PUSH2 0x1A44 JUMP JUMPDEST SWAP1 POP SWAP2 SWAP1 POP JUMP JUMPDEST PUSH1 0x0 PUSH1 0x20 DUP3 ADD SWAP1 POP DUP2 DUP2 SUB PUSH1 0x0 DUP4 ADD MSTORE PUSH2 0x1F07 DUP2 PUSH2 0x1A84 JUMP JUMPDEST SWAP1 POP SWAP2 SWAP1 POP JUMP JUMPDEST PUSH1 0x0 PUSH1 0x20 DUP3 ADD SWAP1 POP DUP2 DUP2 SUB PUSH1 0x0 DUP4 ADD MSTORE PUSH2 0x1F27 DUP2 PUSH2 0x1AC4 JUMP JUMPDEST SWAP1 POP SWAP2 SWAP1 POP JUMP JUMPDEST PUSH1 0x0 PUSH1 0x20 DUP3 ADD SWAP1 POP DUP2 DUP2 SUB PUSH1 0x0 DUP4 ADD MSTORE PUSH2 0x1F47 DUP2 PUSH2 0x1B2A JUMP JUMPDEST SWAP1 POP SWAP2 SWAP1 POP JUMP JUMPDEST PUSH1 0x0 PUSH1 0x20 DUP3 ADD SWAP1 POP DUP2 DUP2 SUB PUSH1 0x0 DUP4 ADD MSTORE PUSH2 0x1F67 DUP2 PUSH2 0x1B90 JUMP JUMPDEST SWAP1 POP SWAP2 SWAP1 POP JUMP JUMPDEST PUSH1 0x0 PUSH1 0x20 DUP3 ADD SWAP1 POP DUP2 DUP2 SUB PUSH1 0x0 DUP4 ADD MSTORE PUSH2 0x1F87 DUP2 PUSH2 0x1BD0 JUMP JUMPDEST SWAP1 POP SWAP2 SWAP1 POP JUMP JUMPDEST PUSH1 0x0 PUSH1 0x20 DUP3 ADD SWAP1 POP DUP2 DUP2 SUB PUSH1 0x0 DUP4 ADD MSTORE PUSH2 0x1FA7 DUP2 PUSH2 0x1C10 JUMP JUMPDEST SWAP1 POP SWAP2 SWAP1 POP JUMP JUMPDEST PUSH1 0x0 PUSH1 0x20 DUP3 ADD SWAP1 POP DUP2 DUP2 SUB PUSH1 0x0 DUP4 ADD MSTORE PUSH2 0x1FC7 DUP2 PUSH2 0x1C50 JUMP JUMPDEST SWAP1 POP SWAP2 SWAP1 POP JUMP JUMPDEST PUSH1 0x0 PUSH1 0x20 DUP3 ADD SWAP1 POP PUSH2 0x1FE3 PUSH1 0x0 DUP4 ADD DUP5 PUSH2 0x1CB6 JUMP JUMPDEST SWAP3 SWAP2 POP POP JUMP JUMPDEST PUSH1 0x0 PUSH1 0x60 DUP3 ADD SWAP1 POP PUSH2 0x1FFE PUSH1 0x0 DUP4 ADD DUP7 PUSH2 0x1CB6 JUMP JUMPDEST PUSH2 0x200B PUSH1 0x20 DUP4 ADD DUP6 PUSH2 0x1795 JUMP JUMPDEST PUSH2 0x2018 PUSH1 0x40 DUP4 ADD DUP5 PUSH2 0x17A4 JUMP JUMPDEST SWAP5 SWAP4 POP POP POP POP JUMP JUMPDEST PUSH1 0x0 PUSH1 0x60 DUP3 ADD SWAP1 POP PUSH2 0x2035 PUSH1 0x0 DUP4 ADD DUP7 PUSH2 0x1CB6 JUMP JUMPDEST DUP2 DUP2 SUB PUSH1 0x20 DUP4 ADD MSTORE PUSH2 0x2047 DUP2 DUP6 PUSH2 0x17B3 JUMP JUMPDEST SWAP1 POP PUSH2 0x2056 PUSH1 0x40 DUP4 ADD DUP5 PUSH2 0x1795 JUMP JUMPDEST SWAP5 SWAP4 POP POP POP POP JUMP JUMPDEST PUSH1 0x0 PUSH1 0x80 DUP3 ADD SWAP1 POP PUSH2 0x2073 PUSH1 0x0 DUP4 ADD DUP8 PUSH2 0x1CB6 JUMP JUMPDEST DUP2 DUP2 SUB PUSH1 0x20 DUP4 ADD MSTORE PUSH2 0x2085 DUP2 DUP7 PUSH2 0x17B3 JUMP JUMPDEST SWAP1 POP PUSH2 0x2094 PUSH1 0x40 DUP4 ADD DUP6 PUSH2 0x1CB6 JUMP JUMPDEST PUSH2 0x20A1 PUSH1 0x60 DUP4 ADD DUP5 PUSH2 0x1CB6 JUMP JUMPDEST SWAP6 SWAP5 POP POP POP POP POP JUMP JUMPDEST PUSH1 0x0 PUSH1 0x40 DUP3 ADD SWAP1 POP PUSH2 0x20BF PUSH1 0x0 DUP4 ADD DUP6 PUSH2 0x1CB6 JUMP JUMPDEST PUSH2 0x20CC PUSH1 0x20 DUP4 ADD DUP5 PUSH2 0x1CB6 JUMP JUMPDEST SWAP4 SWAP3 POP POP POP JUMP JUMPDEST PUSH1 0x0 PUSH1 0x40 MLOAD SWAP1 POP DUP2 DUP2 ADD DUP2 DUP2 LT PUSH8 0xFFFFFFFFFFFFFFFF DUP3 GT OR ISZERO PUSH2 0x20FA JUMPI PUSH2 0x20F9 PUSH2 0x2397 JUMP JUMPDEST JUMPDEST DUP1 PUSH1 0x40 MSTORE POP SWAP2 SWAP1 POP JUMP JUMPDEST PUSH1 0x0 PUSH8 0xFFFFFFFFFFFFFFFF DUP3 GT ISZERO PUSH2 0x211F JUMPI PUSH2 0x211E PUSH2 0x2397 JUMP JUMPDEST JUMPDEST PUSH1 0x1F NOT PUSH1 0x1F DUP4 ADD AND SWAP1 POP PUSH1 0x20 DUP2 ADD SWAP1 POP SWAP2 SWAP1 POP JUMP JUMPDEST PUSH1 0x0 DUP2 MLOAD SWAP1 POP SWAP2 SWAP1 POP JUMP JUMPDEST PUSH1 0x0 DUP3 DUP3 MSTORE PUSH1 0x20 DUP3 ADD SWAP1 POP SWAP3 SWAP2 POP POP JUMP JUMPDEST PUSH1 0x0 PUSH2 0x215B DUP3 PUSH2 0x2272 JUMP JUMPDEST SWAP2 POP PUSH2 0x2166 DUP4 PUSH2 0x2272 JUMP JUMPDEST SWAP3 POP DUP3 PUSH32 0xFFFFFFFFFFFFFFFFFFFFFFFFFFFFFFFFFFFFFFFFFFFFFFFFFFFFFFFFFFFFFFFF SUB DUP3 GT ISZERO PUSH2 0x219B JUMPI PUSH2 0x219A PUSH2 0x2339 JUMP JUMPDEST JUMPDEST DUP3 DUP3 ADD SWAP1 POP SWAP3 SWAP2 POP POP JUMP JUMPDEST PUSH1 0x0 PUSH2 0x21B1 DUP3 PUSH2 0x2272 JUMP JUMPDEST SWAP2 POP PUSH2 0x21BC DUP4 PUSH2 0x2272 JUMP JUMPDEST SWAP3 POP DUP2 PUSH32 0xFFFFFFFFFFFFFFFFFFFFFFFFFFFFFFFFFFFFFFFFFFFFFFFFFFFFFFFFFFFFFFFF DIV DUP4 GT DUP3 ISZERO ISZERO AND ISZERO PUSH2 0x21F5 JUMPI PUSH2 0x21F4 PUSH2 0x2339 JUMP JUMPDEST JUMPDEST DUP3 DUP3 MUL SWAP1 POP SWAP3 SWAP2 POP POP JUMP JUMPDEST PUSH1 0x0 PUSH2 0x220B DUP3 PUSH2 0x2272 JUMP JUMPDEST SWAP2 POP PUSH2 0x2216 DUP4 PUSH2 0x2272 JUMP JUMPDEST SWAP3 POP DUP3 DUP3 LT ISZERO PUSH2 0x2229 JUMPI PUSH2 0x2228 PUSH2 0x2339 JUMP JUMPDEST JUMPDEST DUP3 DUP3 SUB SWAP1 POP SWAP3 SWAP2 POP POP JUMP JUMPDEST PUSH1 0x0 PUSH2 0x223F DUP3 PUSH2 0x2252 JUMP JUMPDEST SWAP1 POP SWAP2 SWAP1 POP JUMP JUMPDEST PUSH1 0x0 DUP2 ISZERO ISZERO SWAP1 POP SWAP2 SWAP1 POP JUMP JUMPDEST PUSH1 0x0 PUSH20 0xFFFFFFFFFFFFFFFFFFFFFFFFFFFFFFFFFFFFFFFF DUP3 AND SWAP1 POP SWAP2 SWAP1 POP JUMP JUMPDEST PUSH1 0x0 DUP2 SWAP1 POP SWAP2 SWAP1 POP JUMP JUMPDEST DUP3 DUP2 DUP4 CALLDATACOPY PUSH1 0x0 DUP4 DUP4 ADD MSTORE POP POP POP JUMP JUMPDEST PUSH1 0x0 JUMPDEST DUP4 DUP2 LT ISZERO PUSH2 0x22A9 JUMPI DUP1 DUP3 ADD MLOAD DUP2 DUP5 ADD MSTORE PUSH1 0x20 DUP2 ADD SWAP1 POP PUSH2 0x228E JUMP JUMPDEST DUP4 DUP2 GT ISZERO PUSH2 0x22B8 JUMPI PUSH1 0x0 DUP5 DUP5 ADD MSTORE JUMPDEST POP POP POP POP JUMP JUMPDEST PUSH1 0x0 PUSH1 0x2 DUP3 DIV SWAP1 POP PUSH1 0x1 DUP3 AND DUP1 PUSH2 0x22D6 JUMPI PUSH1 0x7F DUP3 AND SWAP2 POP JUMPDEST PUSH1 0x20 DUP3 LT DUP2 EQ ISZERO PUSH2 0x22EA JUMPI PUSH2 0x22E9 PUSH2 0x2368 JUMP JUMPDEST JUMPDEST POP SWAP2 SWAP1 POP JUMP JUMPDEST PUSH1 0x0 PUSH2 0x22FB DUP3 PUSH2 0x2272 JUMP JUMPDEST SWAP2 POP PUSH32 0xFFFFFFFFFFFFFFFFFFFFFFFFFFFFFFFFFFFFFFFFFFFFFFFFFFFFFFFFFFFFFFFF DUP3 EQ ISZERO PUSH2 0x232E JUMPI PUSH2 0x232D PUSH2 0x2339 JUMP JUMPDEST JUMPDEST PUSH1 0x1 DUP3 ADD SWAP1 POP SWAP2 SWAP1 POP JUMP JUMPDEST PUSH32 0x4E487B7100000000000000000000000000000000000000000000000000000000 PUSH1 0x0 MSTORE PUSH1 0x11 PUSH1 0x4 MSTORE PUSH1 0x24 PUSH1 0x0 REVERT JUMPDEST PUSH32 0x4E487B7100000000000000000000000000000000000000000000000000000000 PUSH1 0x0 MSTORE PUSH1 0x22 PUSH1 0x4 MSTORE PUSH1 0x24 PUSH1 0x0 REVERT JUMPDEST PUSH32 0x4E487B7100000000000000000000000000000000000000000000000000000000 PUSH1 0x0 MSTORE PUSH1 0x41 PUSH1 0x4 MSTORE PUSH1 0x24 PUSH1 0x0 REVERT JUMPDEST PUSH1 0x0 PUSH1 0x1F NOT PUSH1 0x1F DUP4 ADD AND SWAP1 POP SWAP2 SWAP1 POP JUMP JUMPDEST PUSH2 0x23E0 DUP2 PUSH2 0x2234 JUMP JUMPDEST DUP2 EQ PUSH2 0x23EB JUMPI PUSH1 0x0 DUP1 REVERT JUMPDEST POP JUMP JUMPDEST PUSH2 0x23F7 DUP2 PUSH2 0x2246 JUMP JUMPDEST DUP2 EQ PUSH2 0x2402 JUMPI PUSH1 0x0 DUP1 REVERT JUMPDEST POP JUMP JUMPDEST PUSH2 0x240E DUP2 PUSH2 0x2272 JUMP JUMPDEST DUP2 EQ PUSH2 0x2419 JUMPI PUSH1 0x0 DUP1 REVERT JUMPDEST POP JUMP INVALID LOG2 PUSH5 0x6970667358 0x22 SLT KECCAK256 0xED DUP4 SWAP14 0xE5 0xEA 0xBA SWAP2 PUSH24 0x4F61F857C58666DA84F8E254236F530AD992FEC089A16D3E PUSH5 0x736F6C6343 STOP ADDMOD STOP STOP CALLER "
				},
				"gasEstimates": {
					"creation": {
						"codeDepositCost": "1859600",
						"executionCost": "22828",
						"totalCost": "1882428"
					},
					"external": {
						"createProposal(string)": "infinite",
						"executeProposal(uint256)": "26424",
						"getProject(uint256)": "infinite",
						"getUserCredits(address,uint256)": "infinite",
						"getUserReputation(address)": "1630",
						"owner()": "1278",
						"projectCount()": "1196",
						"projects(uint256)": "infinite",
						"proposals(uint256)": "infinite",
						"purchaseCredits(uint256,uint256)": "infinite",
						"registerProject(string,uint256,uint256)": "infinite",
						"retireCredits(uint256,uint256)": "infinite",
						"userCredits(address,uint256)": "infinite",
						"userReputation(address)": "1558",
						"voteOnProposal(uint256,bool)": "infinite"
					}
				},
				"methodIdentifiers": {
					"createProposal(string)": "49c2a1a6",
					"executeProposal(uint256)": "0d61b519",
					"getProject(uint256)": "f0f3f2c8",
					"getUserCredits(address,uint256)": "c121cff0",
					"getUserReputation(address)": "baccbfdb",
					"owner()": "8da5cb5b",
					"projectCount()": "36fbad26",
					"projects(uint256)": "107046bd",
					"proposals(uint256)": "013cf08b",
					"purchaseCredits(uint256,uint256)": "84034469",
					"registerProject(string,uint256,uint256)": "e636eb55",
					"retireCredits(uint256,uint256)": "3ea0fb13",
					"userCredits(address,uint256)": "17a483a3",
					"userReputation(address)": "e503bb05",
					"voteOnProposal(uint256,bool)": "1614665c"
				}
			},
			"storageLayout": {
				"storage": [
					{
						"astId": 3,
						"contract": "carbon.sol:CarbonOffsetMarketplace",
						"label": "owner",
						"offset": 0,
						"slot": "0",
						"type": "t_address"
					},
					{
						"astId": 19,
						"contract": "carbon.sol:CarbonOffsetMarketplace",
						"label": "projects",
						"offset": 0,
						"slot": "1",
						"type": "t_mapping(t_uint256,t_struct(Project)14_storage)"
					},
					{
						"astId": 21,
						"contract": "carbon.sol:CarbonOffsetMarketplace",
						"label": "projectCount",
						"offset": 0,
						"slot": "2",
						"type": "t_uint256"
					},
					{
						"astId": 27,
						"contract": "carbon.sol:CarbonOffsetMarketplace",
						"label": "userCredits",
						"offset": 0,
						"slot": "3",
						"type": "t_mapping(t_address,t_mapping(t_uint256,t_uint256))"
					},
					{
						"astId": 31,
						"contract": "carbon.sol:CarbonOffsetMarketplace",
						"label": "userReputation",
						"offset": 0,
						"slot": "4",
						"type": "t_mapping(t_address,t_uint256)"
					},
					{
						"astId": 370,
						"contract": "carbon.sol:CarbonOffsetMarketplace",
						"label": "proposals",
						"offset": 0,
						"slot": "5",
						"type": "t_array(t_struct(Proposal)366_storage)dyn_storage"
					}
				],
				"types": {
					"t_address": {
						"encoding": "inplace",
						"label": "address",
						"numberOfBytes": "20"
					},
					"t_array(t_struct(Proposal)366_storage)dyn_storage": {
						"base": "t_struct(Proposal)366_storage",
						"encoding": "dynamic_array",
						"label": "struct CarbonOffsetMarketplace.Proposal[]",
						"numberOfBytes": "32"
					},
					"t_bool": {
						"encoding": "inplace",
						"label": "bool",
						"numberOfBytes": "1"
					},
					"t_mapping(t_address,t_mapping(t_uint256,t_uint256))": {
						"encoding": "mapping",
						"key": "t_address",
						"label": "mapping(address => mapping(uint256 => uint256))",
						"numberOfBytes": "32",
						"value": "t_mapping(t_uint256,t_uint256)"
					},
					"t_mapping(t_address,t_uint256)": {
						"encoding": "mapping",
						"key": "t_address",
						"label": "mapping(address => uint256)",
						"numberOfBytes": "32",
						"value": "t_uint256"
					},
					"t_mapping(t_uint256,t_struct(Project)14_storage)": {
						"encoding": "mapping",
						"key": "t_uint256",
						"label": "mapping(uint256 => struct CarbonOffsetMarketplace.Project)",
						"numberOfBytes": "32",
						"value": "t_struct(Project)14_storage"
					},
					"t_mapping(t_uint256,t_uint256)": {
						"encoding": "mapping",
						"key": "t_uint256",
						"label": "mapping(uint256 => uint256)",
						"numberOfBytes": "32",
						"value": "t_uint256"
					},
					"t_string_storage": {
						"encoding": "bytes",
						"label": "string",
						"numberOfBytes": "32"
					},
					"t_struct(Project)14_storage": {
						"encoding": "inplace",
						"label": "struct CarbonOffsetMarketplace.Project",
						"members": [
							{
								"astId": 5,
								"contract": "carbon.sol:CarbonOffsetMarketplace",
								"label": "owner",
								"offset": 0,
								"slot": "0",
								"type": "t_address"
							},
							{
								"astId": 7,
								"contract": "carbon.sol:CarbonOffsetMarketplace",
								"label": "name",
								"offset": 0,
								"slot": "1",
								"type": "t_string_storage"
							},
							{
								"astId": 9,
								"contract": "carbon.sol:CarbonOffsetMarketplace",
								"label": "totalCredits",
								"offset": 0,
								"slot": "2",
								"type": "t_uint256"
							},
							{
								"astId": 11,
								"contract": "carbon.sol:CarbonOffsetMarketplace",
								"label": "availableCredits",
								"offset": 0,
								"slot": "3",
								"type": "t_uint256"
							},
							{
								"astId": 13,
								"contract": "carbon.sol:CarbonOffsetMarketplace",
								"label": "pricePerCredit",
								"offset": 0,
								"slot": "4",
								"type": "t_uint256"
							}
						],
						"numberOfBytes": "160"
					},
					"t_struct(Proposal)366_storage": {
						"encoding": "inplace",
						"label": "struct CarbonOffsetMarketplace.Proposal",
						"members": [
							{
								"astId": 357,
								"contract": "carbon.sol:CarbonOffsetMarketplace",
								"label": "proposer",
								"offset": 0,
								"slot": "0",
								"type": "t_address"
							},
							{
								"astId": 359,
								"contract": "carbon.sol:CarbonOffsetMarketplace",
								"label": "description",
								"offset": 0,
								"slot": "1",
								"type": "t_string_storage"
							},
							{
								"astId": 361,
								"contract": "carbon.sol:CarbonOffsetMarketplace",
								"label": "votesFor",
								"offset": 0,
								"slot": "2",
								"type": "t_uint256"
							},
							{
								"astId": 363,
								"contract": "carbon.sol:CarbonOffsetMarketplace",
								"label": "votesAgainst",
								"offset": 0,
								"slot": "3",
								"type": "t_uint256"
							},
							{
								"astId": 365,
								"contract": "carbon.sol:CarbonOffsetMarketplace",
								"label": "executed",
								"offset": 0,
								"slot": "4",
								"type": "t_bool"
							}
						],
						"numberOfBytes": "160"
					},
					"t_uint256": {
						"encoding": "inplace",
						"label": "uint256",
						"numberOfBytes": "32"
					}
				}
			},
			"userdoc": {
				"kind": "user",
				"methods": {},
				"version": 1
			}
		}
	}
}