{
	"carbon.sol": {
		"CarbonOffsetMarketplace": {
			"abi": [
				{
					"inputs": [],
					"stateMutability": "nonpayable",
					"type": "constructor"
				},
				{
					"anonymous": false,
					"inputs": [
						{
							"indexed": false,
							"internalType": "string",
							"name": "badge",
							"type": "string"
						},
						{
							"indexed": false,
							"internalType": "uint256",
							"name": "newThreshold",
							"type": "uint256"
						}
					],
					"name": "BadgeThresholdUpdated",
					"type": "event"
				},
				{
					"anonymous": false,
					"inputs": [
						{
							"indexed": true,
							"internalType": "address",
							"name": "buyer",
							"type": "address"
						},
						{
							"indexed": false,
							"internalType": "uint256",
							"name": "projectId",
							"type": "uint256"
						},
						{
							"indexed": false,
							"internalType": "uint256",
							"name": "credits",
							"type": "uint256"
						}
					],
					"name": "CreditsPurchased",
					"type": "event"
				},
				{
					"anonymous": false,
					"inputs": [
						{
							"indexed": true,
							"internalType": "address",
							"name": "user",
							"type": "address"
						},
						{
							"indexed": false,
							"internalType": "uint256",
							"name": "projectId",
							"type": "uint256"
						},
						{
							"indexed": false,
							"internalType": "uint256",
							"name": "credits",
							"type": "uint256"
						}
					],
					"name": "CreditsRetired",
					"type": "event"
				},
				{
					"anonymous": false,
					"inputs": [
						{
							"indexed": true,
							"internalType": "address",
							"name": "from",
							"type": "address"
						},
						{
							"indexed": true,
							"internalType": "address",
							"name": "to",
							"type": "address"
						},
						{
							"indexed": false,
							"internalType": "uint256",
							"name": "projectId",
							"type": "uint256"
						},
						{
							"indexed": false,
							"internalType": "uint256",
							"name": "credits",
							"type": "uint256"
						}
					],
					"name": "CreditsTransferred",
					"type": "event"
				},
				{
					"anonymous": false,
					"inputs": [
						{
							"indexed": false,
							"internalType": "uint256",
							"name": "projectId",
							"type": "uint256"
						},
						{
							"indexed": false,
							"internalType": "string",
							"name": "name",
							"type": "string"
						},
						{
							"indexed": false,
							"internalType": "uint256",
							"name": "totalCredits",
							"type": "uint256"
						},
						{
							"indexed": false,
							"internalType": "uint256",
							"name": "pricePerCredit",
							"type": "uint256"
						}
					],
					"name": "ProjectRegistered",
					"type": "event"
				},
				{
					"anonymous": false,
					"inputs": [
						{
							"indexed": false,
							"internalType": "uint256",
							"name": "projectId",
							"type": "uint256"
						},
						{
							"indexed": false,
							"internalType": "string",
							"name": "name",
							"type": "string"
						},
						{
							"indexed": false,
							"internalType": "uint256",
							"name": "totalCredits",
							"type": "uint256"
						},
						{
							"indexed": false,
							"internalType": "uint256",
							"name": "pricePerCredit",
							"type": "uint256"
						}
					],
					"name": "ProjectUpdated",
					"type": "event"
				},
				{
					"anonymous": false,
					"inputs": [
						{
							"indexed": false,
							"internalType": "uint256",
							"name": "proposalId",
							"type": "uint256"
						},
						{
							"indexed": false,
							"internalType": "string",
							"name": "description",
							"type": "string"
						},
						{
							"indexed": false,
							"internalType": "address",
							"name": "proposer",
							"type": "address"
						}
					],
					"name": "ProposalCreated",
					"type": "event"
				},
				{
					"anonymous": false,
					"inputs": [
						{
							"indexed": false,
							"internalType": "uint256",
							"name": "proposalId",
							"type": "uint256"
						}
					],
					"name": "ProposalExecuted",
					"type": "event"
				},
				{
					"anonymous": false,
					"inputs": [
						{
							"indexed": true,
							"internalType": "address",
							"name": "user",
							"type": "address"
						},
						{
							"indexed": false,
							"internalType": "uint256",
							"name": "rewardPoints",
							"type": "uint256"
						},
						{
							"indexed": false,
							"internalType": "string",
							"name": "badge",
							"type": "string"
						}
					],
					"name": "RewardEarned",
					"type": "event"
				},
				{
					"anonymous": false,
					"inputs": [
						{
							"indexed": false,
							"internalType": "uint256",
							"name": "proposalId",
							"type": "uint256"
						},
						{
							"indexed": false,
							"internalType": "address",
							"name": "voter",
							"type": "address"
						},
						{
							"indexed": false,
							"internalType": "bool",
							"name": "support",
							"type": "bool"
						}
					],
					"name": "VoteCast",
					"type": "event"
				},
				{
					"inputs": [
						{
							"internalType": "uint256",
							"name": "",
							"type": "uint256"
						}
					],
					"name": "allTransactions",
					"outputs": [
						{
							"internalType": "address",
							"name": "user",
							"type": "address"
						},
						{
							"internalType": "uint256",
							"name": "projectId",
							"type": "uint256"
						},
						{
							"internalType": "uint256",
							"name": "credits",
							"type": "uint256"
						},
						{
							"internalType": "string",
							"name": "action",
							"type": "string"
						},
						{
							"internalType": "uint256",
							"name": "timestamp",
							"type": "uint256"
						}
					],
					"stateMutability": "view",
					"type": "function"
				},
				{
					"inputs": [],
					"name": "allowNonOwnerRegistration",
					"outputs": [
						{
							"internalType": "bool",
							"name": "",
							"type": "bool"
						}
					],
					"stateMutability": "view",
					"type": "function"
				},
				{
					"inputs": [],
					"name": "carbonChampionThreshold",
					"outputs": [
						{
							"internalType": "uint256",
							"name": "",
							"type": "uint256"
						}
					],
					"stateMutability": "view",
					"type": "function"
				},
				{
					"inputs": [],
					"name": "carbonContributorThreshold",
					"outputs": [
						{
							"internalType": "uint256",
							"name": "",
							"type": "uint256"
						}
					],
					"stateMutability": "view",
					"type": "function"
				},
				{
					"inputs": [],
					"name": "feePercentage",
					"outputs": [
						{
							"internalType": "uint256",
							"name": "",
							"type": "uint256"
						}
					],
					"stateMutability": "view",
					"type": "function"
				},
				{
					"inputs": [],
					"name": "getAllTransactions",
					"outputs": [
						{
							"components": [
								{
									"internalType": "address",
									"name": "user",
									"type": "address"
								},
								{
									"internalType": "uint256",
									"name": "projectId",
									"type": "uint256"
								},
								{
									"internalType": "uint256",
									"name": "credits",
									"type": "uint256"
								},
								{
									"internalType": "string",
									"name": "action",
									"type": "string"
								},
								{
									"internalType": "uint256",
									"name": "timestamp",
									"type": "uint256"
								}
							],
							"internalType": "struct CarbonOffsetMarketplace.Transaction[]",
							"name": "",
							"type": "tuple[]"
						}
					],
					"stateMutability": "view",
					"type": "function"
				},
				{
					"inputs": [],
					"name": "getLeaderboard",
					"outputs": [
						{
							"internalType": "address[]",
							"name": "",
							"type": "address[]"
						},
						{
							"internalType": "uint256[]",
							"name": "",
							"type": "uint256[]"
						}
					],
					"stateMutability": "view",
					"type": "function"
				},
				{
					"inputs": [
						{
							"internalType": "address",
							"name": "_user",
							"type": "address"
						}
					],
					"name": "getUserRewards",
					"outputs": [
						{
							"components": [
								{
									"internalType": "uint256",
									"name": "rewardPoints",
									"type": "uint256"
								},
								{
									"internalType": "string",
									"name": "badge",
									"type": "string"
								}
							],
							"internalType": "struct CarbonOffsetMarketplace.Reward",
							"name": "",
							"type": "tuple"
						}
					],
					"stateMutability": "view",
					"type": "function"
				},
				{
					"inputs": [
						{
							"internalType": "address",
							"name": "_user",
							"type": "address"
						}
					],
					"name": "getUserTransactions",
					"outputs": [
						{
							"components": [
								{
									"internalType": "address",
									"name": "user",
									"type": "address"
								},
								{
									"internalType": "uint256",
									"name": "projectId",
									"type": "uint256"
								},
								{
									"internalType": "uint256",
									"name": "credits",
									"type": "uint256"
								},
								{
									"internalType": "string",
									"name": "action",
									"type": "string"
								},
								{
									"internalType": "uint256",
									"name": "timestamp",
									"type": "uint256"
								}
							],
							"internalType": "struct CarbonOffsetMarketplace.Transaction[]",
							"name": "",
							"type": "tuple[]"
						}
					],
					"stateMutability": "view",
					"type": "function"
				},
				{
					"inputs": [],
					"name": "minVotesForProposal",
					"outputs": [
						{
							"internalType": "uint256",
							"name": "",
							"type": "uint256"
						}
					],
					"stateMutability": "view",
					"type": "function"
				},
				{
					"inputs": [],
					"name": "owner",
					"outputs": [
						{
							"internalType": "address",
							"name": "",
							"type": "address"
						}
					],
					"stateMutability": "view",
					"type": "function"
				},
				{
					"inputs": [],
					"name": "projectCount",
					"outputs": [
						{
							"internalType": "uint256",
							"name": "",
							"type": "uint256"
						}
					],
					"stateMutability": "view",
					"type": "function"
				},
				{
					"inputs": [
						{
							"internalType": "uint256",
							"name": "",
							"type": "uint256"
						}
					],
					"name": "projects",
					"outputs": [
						{
							"internalType": "address",
							"name": "owner",
							"type": "address"
						},
						{
							"internalType": "string",
							"name": "name",
							"type": "string"
						},
						{
							"internalType": "uint256",
							"name": "totalCredits",
							"type": "uint256"
						},
						{
							"internalType": "uint256",
							"name": "availableCredits",
							"type": "uint256"
						},
						{
							"internalType": "uint256",
							"name": "pricePerCredit",
							"type": "uint256"
						}
					],
					"stateMutability": "view",
					"type": "function"
				},
				{
					"inputs": [
						{
							"internalType": "uint256",
							"name": "_projectId",
							"type": "uint256"
						},
						{
							"internalType": "uint256",
							"name": "_credits",
							"type": "uint256"
						}
					],
					"name": "purchaseCredits",
					"outputs": [],
					"stateMutability": "payable",
					"type": "function"
				},
				{
					"inputs": [
						{
							"internalType": "string",
							"name": "_name",
							"type": "string"
						},
						{
							"internalType": "uint256",
							"name": "_totalCredits",
							"type": "uint256"
						},
						{
							"internalType": "uint256",
							"name": "_pricePerCredit",
							"type": "uint256"
						}
					],
					"name": "registerProject",
					"outputs": [],
					"stateMutability": "nonpayable",
					"type": "function"
				},
				{
					"inputs": [
						{
							"internalType": "uint256",
							"name": "_projectId",
							"type": "uint256"
						},
						{
							"internalType": "uint256",
							"name": "_credits",
							"type": "uint256"
						}
					],
					"name": "retireCredits",
					"outputs": [],
					"stateMutability": "nonpayable",
					"type": "function"
				},
				{
					"inputs": [
						{
							"internalType": "uint256",
							"name": "_minVotes",
							"type": "uint256"
						}
					],
					"name": "setMinVotesForProposal",
					"outputs": [],
					"stateMutability": "nonpayable",
					"type": "function"
				},
				{
					"inputs": [
						{
							"internalType": "bool",
							"name": "_allow",
							"type": "bool"
						}
					],
					"name": "toggleNonOwnerRegistration",
					"outputs": [],
					"stateMutability": "nonpayable",
					"type": "function"
				},
				{
					"inputs": [
						{
							"internalType": "address",
							"name": "_to",
							"type": "address"
						},
						{
							"internalType": "uint256",
							"name": "_projectId",
							"type": "uint256"
						},
						{
							"internalType": "uint256",
							"name": "_credits",
							"type": "uint256"
						}
					],
					"name": "transferCredits",
					"outputs": [],
					"stateMutability": "payable",
					"type": "function"
				},
				{
					"inputs": [],
					"name": "transferFee",
					"outputs": [
						{
							"internalType": "uint256",
							"name": "",
							"type": "uint256"
						}
					],
					"stateMutability": "view",
					"type": "function"
				},
				{
					"inputs": [
						{
							"internalType": "string",
							"name": "_badge",
							"type": "string"
						},
						{
							"internalType": "uint256",
							"name": "_newThreshold",
							"type": "uint256"
						}
					],
					"name": "updateBadgeThreshold",
					"outputs": [],
					"stateMutability": "nonpayable",
					"type": "function"
				},
				{
					"inputs": [
						{
							"internalType": "uint256",
							"name": "_projectId",
							"type": "uint256"
						},
						{
							"internalType": "string",
							"name": "_name",
							"type": "string"
						},
						{
							"internalType": "uint256",
							"name": "_totalCredits",
							"type": "uint256"
						},
						{
							"internalType": "uint256",
							"name": "_pricePerCredit",
							"type": "uint256"
						}
					],
					"name": "updateProject",
					"outputs": [],
					"stateMutability": "nonpayable",
					"type": "function"
				},
				{
					"inputs": [
						{
							"internalType": "address",
							"name": "",
							"type": "address"
						},
						{
							"internalType": "uint256",
							"name": "",
							"type": "uint256"
						}
					],
					"name": "userCredits",
					"outputs": [
						{
							"internalType": "uint256",
							"name": "",
							"type": "uint256"
						}
					],
					"stateMutability": "view",
					"type": "function"
				},
				{
					"inputs": [
						{
							"internalType": "address",
							"name": "",
							"type": "address"
						}
					],
					"name": "userRewardPoints",
					"outputs": [
						{
							"internalType": "uint256",
							"name": "",
							"type": "uint256"
						}
					],
					"stateMutability": "view",
					"type": "function"
				},
				{
					"inputs": [
						{
							"internalType": "address",
							"name": "",
							"type": "address"
						}
					],
					"name": "userRewards",
					"outputs": [
						{
							"internalType": "uint256",
							"name": "rewardPoints",
							"type": "uint256"
						},
						{
							"internalType": "string",
							"name": "badge",
							"type": "string"
						}
					],
					"stateMutability": "view",
					"type": "function"
				},
				{
					"inputs": [
						{
							"internalType": "address",
							"name": "",
							"type": "address"
						},
						{
							"internalType": "uint256",
							"name": "",
							"type": "uint256"
						}
					],
					"name": "userTransactions",
					"outputs": [
						{
							"internalType": "address",
							"name": "user",
							"type": "address"
						},
						{
							"internalType": "uint256",
							"name": "projectId",
							"type": "uint256"
						},
						{
							"internalType": "uint256",
							"name": "credits",
							"type": "uint256"
						},
						{
							"internalType": "string",
							"name": "action",
							"type": "string"
						},
						{
							"internalType": "uint256",
							"name": "timestamp",
							"type": "uint256"
						}
					],
					"stateMutability": "view",
					"type": "function"
				}
			],
			"devdoc": {
				"kind": "dev",
				"methods": {},
				"version": 1
			},
			"evm": {
				"assembly": "    /* \"carbon.sol\":60:12287  contract CarbonOffsetMarketplace {... */\n  mstore(0x40, 0x80)\n    /* \"carbon.sol\":158:161  100 */\n  0x64\n    /* \"carbon.sol\":127:161  uint256 public feePercentage = 100 */\n  0x01\n  sstore\n    /* \"carbon.sol\":272:277  false */\n  0x00\n    /* \"carbon.sol\":232:277  bool public allowNonOwnerRegistration = false */\n  0x02\n  exp(0x0100, 0x00)\n  dup2\n  sload\n  dup2\n  0xff\n  mul\n  not\n  and\n  swap1\n  dup4\n  iszero\n  iszero\n  mul\n  or\n  swap1\n  sstore\n  pop\n    /* \"carbon.sol\":379:380  1 */\n  0x01\n    /* \"carbon.sol\":342:380  uint256 public minVotesForProposal = 1 */\n  0x03\n  sstore\n    /* \"carbon.sol\":472:479  2 ether */\n  0x1bc16d674ec80000\n    /* \"carbon.sol\":443:479  uint256 public transferFee = 2 ether */\n  0x04\n  sstore\n    /* \"carbon.sol\":1856:1860  1000 */\n  0x03e8\n    /* \"carbon.sol\":1815:1860  uint256 public carbonChampionThreshold = 1000 */\n  0x0c\n  sstore\n    /* \"carbon.sol\":1911:1914  500 */\n  0x01f4\n    /* \"carbon.sol\":1867:1914  uint256 public carbonContributorThreshold = 500 */\n  0x0d\n  sstore\n    /* \"carbon.sol\":3293:3344  constructor() {... */\n  callvalue\n  dup1\n  iszero\n  tag_1\n  jumpi\n  0x00\n  dup1\n  revert\ntag_1:\n  pop\n    /* \"carbon.sol\":3326:3336  msg.sender */\n  caller\n    /* \"carbon.sol\":3318:3323  owner */\n  0x00\n  dup1\n    /* \"carbon.sol\":3318:3336  owner = msg.sender */\n  0x0100\n  exp\n  dup2\n  sload\n  dup2\n  0xffffffffffffffffffffffffffffffffffffffff\n  mul\n  not\n  and\n  swap1\n  dup4\n  0xffffffffffffffffffffffffffffffffffffffff\n  and\n  mul\n  or\n  swap1\n  sstore\n  pop\n    /* \"carbon.sol\":60:12287  contract CarbonOffsetMarketplace {... */\n  dataSize(sub_0)\n  dup1\n  dataOffset(sub_0)\n  0x00\n  codecopy\n  0x00\n  return\nstop\n\nsub_0: assembly {\n        /* \"carbon.sol\":60:12287  contract CarbonOffsetMarketplace {... */\n      mstore(0x40, 0x80)\n      jumpi(tag_1, lt(calldatasize, 0x04))\n      shr(0xe0, calldataload(0x00))\n      dup1\n      0x84034469\n      gt\n      tag_28\n      jumpi\n      dup1\n      0xacb2ad6f\n      gt\n      tag_29\n      jumpi\n      dup1\n      0xd7ff0714\n      gt\n      tag_30\n      jumpi\n      dup1\n      0xd7ff0714\n      eq\n      tag_24\n      jumpi\n      dup1\n      0xe636eb55\n      eq\n      tag_25\n      jumpi\n      dup1\n      0xef925399\n      eq\n      tag_26\n      jumpi\n      dup1\n      0xf275fdf4\n      eq\n      tag_27\n      jumpi\n      jump(tag_1)\n    tag_30:\n      dup1\n      0xacb2ad6f\n      eq\n      tag_21\n      jumpi\n      dup1\n      0xb842ec44\n      eq\n      tag_22\n      jumpi\n      dup1\n      0xc9ded404\n      eq\n      tag_23\n      jumpi\n      jump(tag_1)\n    tag_29:\n      dup1\n      0x84034469\n      eq\n      tag_15\n      jumpi\n      dup1\n      0x883ffe91\n      eq\n      tag_16\n      jumpi\n      dup1\n      0x8da5cb5b\n      eq\n      tag_17\n      jumpi\n      dup1\n      0xa001ecdd\n      eq\n      tag_18\n      jumpi\n      dup1\n      0xa2f6045a\n      eq\n      tag_19\n      jumpi\n      dup1\n      0xab52a745\n      eq\n      tag_20\n      jumpi\n      jump(tag_1)\n    tag_28:\n      dup1\n      0x2f51d7ce\n      gt\n      tag_31\n      jumpi\n      dup1\n      0x3ea0fb13\n      gt\n      tag_32\n      jumpi\n      dup1\n      0x3ea0fb13\n      eq\n      tag_11\n      jumpi\n      dup1\n      0x53dc9988\n      eq\n      tag_12\n      jumpi\n      dup1\n      0x6d763a6e\n      eq\n      tag_13\n      jumpi\n      dup1\n      0x7ce26644\n      eq\n      tag_14\n      jumpi\n      jump(tag_1)\n    tag_32:\n      dup1\n      0x2f51d7ce\n      eq\n      tag_8\n      jumpi\n      dup1\n      0x354f75e1\n      eq\n      tag_9\n      jumpi\n      dup1\n      0x36fbad26\n      eq\n      tag_10\n      jumpi\n      jump(tag_1)\n    tag_31:\n      dup1\n      0x0660f1e8\n      eq\n      tag_2\n      jumpi\n      dup1\n      0x078b0fb7\n      eq\n      tag_3\n      jumpi\n      dup1\n      0x0994c98f\n      eq\n      tag_4\n      jumpi\n      dup1\n      0x107046bd\n      eq\n      tag_5\n      jumpi\n      dup1\n      0x17a483a3\n      eq\n      tag_6\n      jumpi\n      dup1\n      0x27506f53\n      eq\n      tag_7\n      jumpi\n    tag_1:\n      0x00\n      dup1\n      revert\n        /* \"carbon.sol\":1413:1458  mapping(address => Reward) public userRewards */\n    tag_2:\n      callvalue\n      dup1\n      iszero\n      tag_33\n      jumpi\n      0x00\n      dup1\n      revert\n    tag_33:\n      pop\n      tag_34\n      0x04\n      dup1\n      calldatasize\n      sub\n      dup2\n      add\n      swap1\n      tag_35\n      swap2\n      swap1\n      tag_36\n      jump\t// in\n    tag_35:\n      tag_37\n      jump\t// in\n    tag_34:\n      mload(0x40)\n      tag_38\n      swap3\n      swap2\n      swap1\n      tag_39\n      jump\t// in\n    tag_38:\n      mload(0x40)\n      dup1\n      swap2\n      sub\n      swap1\n      return\n        /* \"carbon.sol\":10526:10645  function getUserRewards(address _user) public view returns (Reward memory) {... */\n    tag_3:\n      callvalue\n      dup1\n      iszero\n      tag_40\n      jumpi\n      0x00\n      dup1\n      revert\n    tag_40:\n      pop\n      tag_41\n      0x04\n      dup1\n      calldatasize\n      sub\n      dup2\n      add\n      swap1\n      tag_42\n      swap2\n      swap1\n      tag_36\n      jump\t// in\n    tag_42:\n      tag_43\n      jump\t// in\n    tag_41:\n      mload(0x40)\n      tag_44\n      swap2\n      swap1\n      tag_45\n      jump\t// in\n    tag_44:\n      mload(0x40)\n      dup1\n      swap2\n      sub\n      swap1\n      return\n        /* \"carbon.sol\":3669:3856  function setMinVotesForProposal(uint256 _minVotes) public {... */\n    tag_4:\n      callvalue\n      dup1\n      iszero\n      tag_46\n      jumpi\n      0x00\n      dup1\n      revert\n    tag_46:\n      pop\n      tag_47\n      0x04\n      dup1\n      calldatasize\n      sub\n      dup2\n      add\n      swap1\n      tag_48\n      swap2\n      swap1\n      tag_49\n      jump\t// in\n    tag_48:\n      tag_50\n      jump\t// in\n    tag_47:\n      stop\n        /* \"carbon.sol\":1162:1205  mapping(uint256 => Project) public projects */\n    tag_5:\n      callvalue\n      dup1\n      iszero\n      tag_51\n      jumpi\n      0x00\n      dup1\n      revert\n    tag_51:\n      pop\n      tag_52\n      0x04\n      dup1\n      calldatasize\n      sub\n      dup2\n      add\n      swap1\n      tag_53\n      swap2\n      swap1\n      tag_49\n      jump\t// in\n    tag_53:\n      tag_54\n      jump\t// in\n    tag_52:\n      mload(0x40)\n      tag_55\n      swap6\n      swap5\n      swap4\n      swap3\n      swap2\n      swap1\n      tag_56\n      jump\t// in\n    tag_55:\n      mload(0x40)\n      dup1\n      swap2\n      sub\n      swap1\n      return\n        /* \"carbon.sol\":1300:1366  mapping(address => mapping(uint256 => uint256)) public userCredits */\n    tag_6:\n      callvalue\n      dup1\n      iszero\n      tag_57\n      jumpi\n      0x00\n      dup1\n      revert\n    tag_57:\n      pop\n      tag_58\n      0x04\n      dup1\n      calldatasize\n      sub\n      dup2\n      add\n      swap1\n      tag_59\n      swap2\n      swap1\n      tag_60\n      jump\t// in\n    tag_59:\n      tag_61\n      jump\t// in\n    tag_58:\n      mload(0x40)\n      tag_62\n      swap2\n      swap1\n      tag_63\n      jump\t// in\n    tag_62:\n      mload(0x40)\n      dup1\n      swap2\n      sub\n      swap1\n      return\n        /* \"carbon.sol\":10171:10285  function getAllTransactions() public view returns (Transaction[] memory) {... */\n    tag_7:\n      callvalue\n      dup1\n      iszero\n      tag_64\n      jumpi\n      0x00\n      dup1\n      revert\n    tag_64:\n      pop\n      tag_65\n      tag_66\n      jump\t// in\n    tag_65:\n      mload(0x40)\n      tag_67\n      swap2\n      swap1\n      tag_68\n      jump\t// in\n    tag_67:\n      mload(0x40)\n      dup1\n      swap2\n      sub\n      swap1\n      return\n        /* \"carbon.sol\":232:277  bool public allowNonOwnerRegistration = false */\n    tag_8:\n      callvalue\n      dup1\n      iszero\n      tag_69\n      jumpi\n      0x00\n      dup1\n      revert\n    tag_69:\n      pop\n      tag_70\n      tag_71\n      jump\t// in\n    tag_70:\n      mload(0x40)\n      tag_72\n      swap2\n      swap1\n      tag_73\n      jump\t// in\n    tag_72:\n      mload(0x40)\n      dup1\n      swap2\n      sub\n      swap1\n      return\n        /* \"carbon.sol\":4858:5714  function updateProject(uint256 _projectId, string memory _name, uint256 _totalCredits, uint256 _pricePerCredit) public {... */\n    tag_9:\n      callvalue\n      dup1\n      iszero\n      tag_74\n      jumpi\n      0x00\n      dup1\n      revert\n    tag_74:\n      pop\n      tag_75\n      0x04\n      dup1\n      calldatasize\n      sub\n      dup2\n      add\n      swap1\n      tag_76\n      swap2\n      swap1\n      tag_77\n      jump\t// in\n    tag_76:\n      tag_78\n      jump\t// in\n    tag_75:\n      stop\n        /* \"carbon.sol\":1212:1239  uint256 public projectCount */\n    tag_10:\n      callvalue\n      dup1\n      iszero\n      tag_79\n      jumpi\n      0x00\n      dup1\n      revert\n    tag_79:\n      pop\n      tag_80\n      tag_81\n      jump\t// in\n    tag_80:\n      mload(0x40)\n      tag_82\n      swap2\n      swap1\n      tag_63\n      jump\t// in\n    tag_82:\n      mload(0x40)\n      dup1\n      swap2\n      sub\n      swap1\n      return\n        /* \"carbon.sol\":7297:8135  function retireCredits(uint256 _projectId, uint256 _credits) public {... */\n    tag_11:\n      callvalue\n      dup1\n      iszero\n      tag_83\n      jumpi\n      0x00\n      dup1\n      revert\n    tag_83:\n      pop\n      tag_84\n      0x04\n      dup1\n      calldatasize\n      sub\n      dup2\n      add\n      swap1\n      tag_85\n      swap2\n      swap1\n      tag_86\n      jump\t// in\n    tag_85:\n      tag_87\n      jump\t// in\n    tag_84:\n      stop\n        /* \"carbon.sol\":11648:12284  function updateBadgeThreshold(string memory _badge, uint256 _newThreshold) public {... */\n    tag_12:\n      callvalue\n      dup1\n      iszero\n      tag_88\n      jumpi\n      0x00\n      dup1\n      revert\n    tag_88:\n      pop\n      tag_89\n      0x04\n      dup1\n      calldatasize\n      sub\n      dup2\n      add\n      swap1\n      tag_90\n      swap2\n      swap1\n      tag_91\n      jump\t// in\n    tag_90:\n      tag_92\n      jump\t// in\n    tag_89:\n      stop\n        /* \"carbon.sol\":10698:11596  function getLeaderboard() public view returns (address[] memory, uint256[] memory) {... */\n    tag_13:\n      callvalue\n      dup1\n      iszero\n      tag_93\n      jumpi\n      0x00\n      dup1\n      revert\n    tag_93:\n      pop\n      tag_94\n      tag_95\n      jump\t// in\n    tag_94:\n      mload(0x40)\n      tag_96\n      swap3\n      swap2\n      swap1\n      tag_97\n      jump\t// in\n    tag_96:\n      mload(0x40)\n      dup1\n      swap2\n      sub\n      swap1\n      return\n        /* \"carbon.sol\":1730:1781  mapping(address => uint256) public userRewardPoints */\n    tag_14:\n      callvalue\n      dup1\n      iszero\n      tag_98\n      jumpi\n      0x00\n      dup1\n      revert\n    tag_98:\n      pop\n      tag_99\n      0x04\n      dup1\n      calldatasize\n      sub\n      dup2\n      add\n      swap1\n      tag_100\n      swap2\n      swap1\n      tag_36\n      jump\t// in\n    tag_100:\n      tag_101\n      jump\t// in\n    tag_99:\n      mload(0x40)\n      tag_102\n      swap2\n      swap1\n      tag_63\n      jump\t// in\n    tag_102:\n      mload(0x40)\n      dup1\n      swap2\n      sub\n      swap1\n      return\n        /* \"carbon.sol\":5769:7239  function purchaseCredits(uint256 _projectId, uint256 _credits) public payable {... */\n    tag_15:\n      tag_103\n      0x04\n      dup1\n      calldatasize\n      sub\n      dup2\n      add\n      swap1\n      tag_104\n      swap2\n      swap1\n      tag_86\n      jump\t// in\n    tag_104:\n      tag_105\n      jump\t// in\n    tag_103:\n      stop\n        /* \"carbon.sol\":1867:1914  uint256 public carbonContributorThreshold = 500 */\n    tag_16:\n      callvalue\n      dup1\n      iszero\n      tag_106\n      jumpi\n      0x00\n      dup1\n      revert\n    tag_106:\n      pop\n      tag_107\n      tag_108\n      jump\t// in\n    tag_107:\n      mload(0x40)\n      tag_109\n      swap2\n      swap1\n      tag_63\n      jump\t// in\n    tag_109:\n      mload(0x40)\n      dup1\n      swap2\n      sub\n      swap1\n      return\n        /* \"carbon.sol\":100:120  address public owner */\n    tag_17:\n      callvalue\n      dup1\n      iszero\n      tag_110\n      jumpi\n      0x00\n      dup1\n      revert\n    tag_110:\n      pop\n      tag_111\n      tag_112\n      jump\t// in\n    tag_111:\n      mload(0x40)\n      tag_113\n      swap2\n      swap1\n      tag_114\n      jump\t// in\n    tag_113:\n      mload(0x40)\n      dup1\n      swap2\n      sub\n      swap1\n      return\n        /* \"carbon.sol\":127:161  uint256 public feePercentage = 100 */\n    tag_18:\n      callvalue\n      dup1\n      iszero\n      tag_115\n      jumpi\n      0x00\n      dup1\n      revert\n    tag_115:\n      pop\n      tag_116\n      tag_117\n      jump\t// in\n    tag_116:\n      mload(0x40)\n      tag_118\n      swap2\n      swap1\n      tag_63\n      jump\t// in\n    tag_118:\n      mload(0x40)\n      dup1\n      swap2\n      sub\n      swap1\n      return\n        /* \"carbon.sol\":8189:9326  function transferCredits(address _to, uint256 _projectId, uint256 _credits) public payable {... */\n    tag_19:\n      tag_119\n      0x04\n      dup1\n      calldatasize\n      sub\n      dup2\n      add\n      swap1\n      tag_120\n      swap2\n      swap1\n      tag_121\n      jump\t// in\n    tag_120:\n      tag_122\n      jump\t// in\n    tag_119:\n      stop\n        /* \"carbon.sol\":3394:3596  function toggleNonOwnerRegistration(bool _allow) public {... */\n    tag_20:\n      callvalue\n      dup1\n      iszero\n      tag_123\n      jumpi\n      0x00\n      dup1\n      revert\n    tag_123:\n      pop\n      tag_124\n      0x04\n      dup1\n      calldatasize\n      sub\n      dup2\n      add\n      swap1\n      tag_125\n      swap2\n      swap1\n      tag_126\n      jump\t// in\n    tag_125:\n      tag_127\n      jump\t// in\n    tag_124:\n      stop\n        /* \"carbon.sol\":443:479  uint256 public transferFee = 2 ether */\n    tag_21:\n      callvalue\n      dup1\n      iszero\n      tag_128\n      jumpi\n      0x00\n      dup1\n      revert\n    tag_128:\n      pop\n      tag_129\n      tag_130\n      jump\t// in\n    tag_129:\n      mload(0x40)\n      tag_131\n      swap2\n      swap1\n      tag_63\n      jump\t// in\n    tag_131:\n      mload(0x40)\n      dup1\n      swap2\n      sub\n      swap1\n      return\n        /* \"carbon.sol\":1519:1576  mapping(address => Transaction[]) public userTransactions */\n    tag_22:\n      callvalue\n      dup1\n      iszero\n      tag_132\n      jumpi\n      0x00\n      dup1\n      revert\n    tag_132:\n      pop\n      tag_133\n      0x04\n      dup1\n      calldatasize\n      sub\n      dup2\n      add\n      swap1\n      tag_134\n      swap2\n      swap1\n      tag_60\n      jump\t// in\n    tag_134:\n      tag_135\n      jump\t// in\n    tag_133:\n      mload(0x40)\n      tag_136\n      swap6\n      swap5\n      swap4\n      swap3\n      swap2\n      swap1\n      tag_137\n      jump\t// in\n    tag_136:\n      mload(0x40)\n      dup1\n      swap2\n      sub\n      swap1\n      return\n        /* \"carbon.sol\":342:380  uint256 public minVotesForProposal = 1 */\n    tag_23:\n      callvalue\n      dup1\n      iszero\n      tag_138\n      jumpi\n      0x00\n      dup1\n      revert\n    tag_138:\n      pop\n      tag_139\n      tag_140\n      jump\t// in\n    tag_139:\n      mload(0x40)\n      tag_141\n      swap2\n      swap1\n      tag_63\n      jump\t// in\n    tag_141:\n      mload(0x40)\n      dup1\n      swap2\n      sub\n      swap1\n      return\n        /* \"carbon.sol\":1625:1661  Transaction[] public allTransactions */\n    tag_24:\n      callvalue\n      dup1\n      iszero\n      tag_142\n      jumpi\n      0x00\n      dup1\n      revert\n    tag_142:\n      pop\n      tag_143\n      0x04\n      dup1\n      calldatasize\n      sub\n      dup2\n      add\n      swap1\n      tag_144\n      swap2\n      swap1\n      tag_49\n      jump\t// in\n    tag_144:\n      tag_145\n      jump\t// in\n    tag_143:\n      mload(0x40)\n      tag_146\n      swap6\n      swap5\n      swap4\n      swap3\n      swap2\n      swap1\n      tag_137\n      jump\t// in\n    tag_146:\n      mload(0x40)\n      dup1\n      swap2\n      sub\n      swap1\n      return\n        /* \"carbon.sol\":3909:4801  function registerProject(string memory _name, uint256 _totalCredits, uint256 _pricePerCredit) public {... */\n    tag_25:\n      callvalue\n      dup1\n      iszero\n      tag_147\n      jumpi\n      0x00\n      dup1\n      revert\n    tag_147:\n      pop\n      tag_148\n      0x04\n      dup1\n      calldatasize\n      sub\n      dup2\n      add\n      swap1\n      tag_149\n      swap2\n      swap1\n      tag_150\n      jump\t// in\n    tag_149:\n      tag_151\n      jump\t// in\n    tag_148:\n      stop\n        /* \"carbon.sol\":10340:10476  function getUserTransactions(address _user) public view returns (Transaction[] memory) {... */\n    tag_26:\n      callvalue\n      dup1\n      iszero\n      tag_152\n      jumpi\n      0x00\n      dup1\n      revert\n    tag_152:\n      pop\n      tag_153\n      0x04\n      dup1\n      calldatasize\n      sub\n      dup2\n      add\n      swap1\n      tag_154\n      swap2\n      swap1\n      tag_36\n      jump\t// in\n    tag_154:\n      tag_155\n      jump\t// in\n    tag_153:\n      mload(0x40)\n      tag_156\n      swap2\n      swap1\n      tag_68\n      jump\t// in\n    tag_156:\n      mload(0x40)\n      dup1\n      swap2\n      sub\n      swap1\n      return\n        /* \"carbon.sol\":1815:1860  uint256 public carbonChampionThreshold = 1000 */\n    tag_27:\n      callvalue\n      dup1\n      iszero\n      tag_157\n      jumpi\n      0x00\n      dup1\n      revert\n    tag_157:\n      pop\n      tag_158\n      tag_159\n      jump\t// in\n    tag_158:\n      mload(0x40)\n      tag_160\n      swap2\n      swap1\n      tag_63\n      jump\t// in\n    tag_160:\n      mload(0x40)\n      dup1\n      swap2\n      sub\n      swap1\n      return\n        /* \"carbon.sol\":1413:1458  mapping(address => Reward) public userRewards */\n    tag_37:\n      mstore(0x20, 0x08)\n      dup1\n      0x00\n      mstore\n      keccak256(0x00, 0x40)\n      0x00\n      swap2\n      pop\n      swap1\n      pop\n      dup1\n      0x00\n      add\n      sload\n      swap1\n      dup1\n      0x01\n      add\n      dup1\n      sload\n      tag_161\n      swap1\n      tag_162\n      jump\t// in\n    tag_161:\n      dup1\n      0x1f\n      add\n      0x20\n      dup1\n      swap2\n      div\n      mul\n      0x20\n      add\n      mload(0x40)\n      swap1\n      dup2\n      add\n      0x40\n      mstore\n      dup1\n      swap3\n      swap2\n      swap1\n      dup2\n      dup2\n      mstore\n      0x20\n      add\n      dup3\n      dup1\n      sload\n      tag_163\n      swap1\n      tag_162\n      jump\t// in\n    tag_163:\n      dup1\n      iszero\n      tag_164\n      jumpi\n      dup1\n      0x1f\n      lt\n      tag_165\n      jumpi\n      0x0100\n      dup1\n      dup4\n      sload\n      div\n      mul\n      dup4\n      mstore\n      swap2\n      0x20\n      add\n      swap2\n      jump(tag_164)\n    tag_165:\n      dup3\n      add\n      swap2\n      swap1\n      0x00\n      mstore\n      keccak256(0x00, 0x20)\n      swap1\n    tag_166:\n      dup2\n      sload\n      dup2\n      mstore\n      swap1\n      0x01\n      add\n      swap1\n      0x20\n      add\n      dup1\n      dup4\n      gt\n      tag_166\n      jumpi\n      dup3\n      swap1\n      sub\n      0x1f\n      and\n      dup3\n      add\n      swap2\n    tag_164:\n      pop\n      pop\n      pop\n      pop\n      pop\n      swap1\n      pop\n      dup3\n      jump\t// out\n        /* \"carbon.sol\":10526:10645  function getUserRewards(address _user) public view returns (Reward memory) {... */\n    tag_43:\n        /* \"carbon.sol\":10586:10599  Reward memory */\n      tag_167\n      tag_168\n      jump\t// in\n    tag_167:\n        /* \"carbon.sol\":10619:10630  userRewards */\n      0x08\n        /* \"carbon.sol\":10619:10637  userRewards[_user] */\n      0x00\n        /* \"carbon.sol\":10631:10636  _user */\n      dup4\n        /* \"carbon.sol\":10619:10637  userRewards[_user] */\n      0xffffffffffffffffffffffffffffffffffffffff\n      and\n      0xffffffffffffffffffffffffffffffffffffffff\n      and\n      dup2\n      mstore\n      0x20\n      add\n      swap1\n      dup2\n      mstore\n      0x20\n      add\n      0x00\n      keccak256\n        /* \"carbon.sol\":10612:10637  return userRewards[_user] */\n      mload(0x40)\n      dup1\n      0x40\n      add\n      0x40\n      mstore\n      swap1\n      dup2\n      0x00\n      dup3\n      add\n      sload\n      dup2\n      mstore\n      0x20\n      add\n      0x01\n      dup3\n      add\n      dup1\n      sload\n      tag_170\n      swap1\n      tag_162\n      jump\t// in\n    tag_170:\n      dup1\n      0x1f\n      add\n      0x20\n      dup1\n      swap2\n      div\n      mul\n      0x20\n      add\n      mload(0x40)\n      swap1\n      dup2\n      add\n      0x40\n      mstore\n      dup1\n      swap3\n      swap2\n      swap1\n      dup2\n      dup2\n      mstore\n      0x20\n      add\n      dup3\n      dup1\n      sload\n      tag_171\n      swap1\n      tag_162\n      jump\t// in\n    tag_171:\n      dup1\n      iszero\n      tag_172\n      jumpi\n      dup1\n      0x1f\n      lt\n      tag_173\n      jumpi\n      0x0100\n      dup1\n      dup4\n      sload\n      div\n      mul\n      dup4\n      mstore\n      swap2\n      0x20\n      add\n      swap2\n      jump(tag_172)\n    tag_173:\n      dup3\n      add\n      swap2\n      swap1\n      0x00\n      mstore\n      keccak256(0x00, 0x20)\n      swap1\n    tag_174:\n      dup2\n      sload\n      dup2\n      mstore\n      swap1\n      0x01\n      add\n      swap1\n      0x20\n      add\n      dup1\n      dup4\n      gt\n      tag_174\n      jumpi\n      dup3\n      swap1\n      sub\n      0x1f\n      and\n      dup3\n      add\n      swap2\n    tag_172:\n      pop\n      pop\n      pop\n      pop\n      pop\n      dup2\n      mstore\n      pop\n      pop\n      swap1\n      pop\n        /* \"carbon.sol\":10526:10645  function getUserRewards(address _user) public view returns (Reward memory) {... */\n      swap2\n      swap1\n      pop\n      jump\t// out\n        /* \"carbon.sol\":3669:3856  function setMinVotesForProposal(uint256 _minVotes) public {... */\n    tag_50:\n        /* \"carbon.sol\":3760:3765  owner */\n      0x00\n      dup1\n      sload\n      swap1\n      0x0100\n      exp\n      swap1\n      div\n      0xffffffffffffffffffffffffffffffffffffffff\n      and\n        /* \"carbon.sol\":3746:3765  msg.sender == owner */\n      0xffffffffffffffffffffffffffffffffffffffff\n      and\n        /* \"carbon.sol\":3746:3756  msg.sender */\n      caller\n        /* \"carbon.sol\":3746:3765  msg.sender == owner */\n      0xffffffffffffffffffffffffffffffffffffffff\n      and\n      eq\n        /* \"carbon.sol\":3738:3806  require(msg.sender == owner, \"Only the owner can set minimum votes\") */\n      tag_176\n      jumpi\n      mload(0x40)\n      0x08c379a000000000000000000000000000000000000000000000000000000000\n      dup2\n      mstore\n      0x04\n      add\n      tag_177\n      swap1\n      tag_178\n      jump\t// in\n    tag_177:\n      mload(0x40)\n      dup1\n      swap2\n      sub\n      swap1\n      revert\n    tag_176:\n        /* \"carbon.sol\":3839:3848  _minVotes */\n      dup1\n        /* \"carbon.sol\":3817:3836  minVotesForProposal */\n      0x03\n        /* \"carbon.sol\":3817:3848  minVotesForProposal = _minVotes */\n      dup2\n      swap1\n      sstore\n      pop\n        /* \"carbon.sol\":3669:3856  function setMinVotesForProposal(uint256 _minVotes) public {... */\n      pop\n      jump\t// out\n        /* \"carbon.sol\":1162:1205  mapping(uint256 => Project) public projects */\n    tag_54:\n      mstore(0x20, 0x05)\n      dup1\n      0x00\n      mstore\n      keccak256(0x00, 0x40)\n      0x00\n      swap2\n      pop\n      swap1\n      pop\n      dup1\n      0x00\n      add\n      0x00\n      swap1\n      sload\n      swap1\n      0x0100\n      exp\n      swap1\n      div\n      0xffffffffffffffffffffffffffffffffffffffff\n      and\n      swap1\n      dup1\n      0x01\n      add\n      dup1\n      sload\n      tag_179\n      swap1\n      tag_162\n      jump\t// in\n    tag_179:\n      dup1\n      0x1f\n      add\n      0x20\n      dup1\n      swap2\n      div\n      mul\n      0x20\n      add\n      mload(0x40)\n      swap1\n      dup2\n      add\n      0x40\n      mstore\n      dup1\n      swap3\n      swap2\n      swap1\n      dup2\n      dup2\n      mstore\n      0x20\n      add\n      dup3\n      dup1\n      sload\n      tag_180\n      swap1\n      tag_162\n      jump\t// in\n    tag_180:\n      dup1\n      iszero\n      tag_181\n      jumpi\n      dup1\n      0x1f\n      lt\n      tag_182\n      jumpi\n      0x0100\n      dup1\n      dup4\n      sload\n      div\n      mul\n      dup4\n      mstore\n      swap2\n      0x20\n      add\n      swap2\n      jump(tag_181)\n    tag_182:\n      dup3\n      add\n      swap2\n      swap1\n      0x00\n      mstore\n      keccak256(0x00, 0x20)\n      swap1\n    tag_183:\n      dup2\n      sload\n      dup2\n      mstore\n      swap1\n      0x01\n      add\n      swap1\n      0x20\n      add\n      dup1\n      dup4\n      gt\n      tag_183\n      jumpi\n      dup3\n      swap1\n      sub\n      0x1f\n      and\n      dup3\n      add\n      swap2\n    tag_181:\n      pop\n      pop\n      pop\n      pop\n      pop\n      swap1\n      dup1\n      0x02\n      add\n      sload\n      swap1\n      dup1\n      0x03\n      add\n      sload\n      swap1\n      dup1\n      0x04\n      add\n      sload\n      swap1\n      pop\n      dup6\n      jump\t// out\n        /* \"carbon.sol\":1300:1366  mapping(address => mapping(uint256 => uint256)) public userCredits */\n    tag_61:\n      mstore(0x20, 0x07)\n      dup2\n      0x00\n      mstore\n      mstore(0x20, keccak256(0x00, 0x40))\n      dup1\n      0x00\n      mstore\n      keccak256(0x00, 0x40)\n      0x00\n      swap2\n      pop\n      swap2\n      pop\n      pop\n      sload\n      dup2\n      jump\t// out\n        /* \"carbon.sol\":10171:10285  function getAllTransactions() public view returns (Transaction[] memory) {... */\n    tag_66:\n        /* \"carbon.sol\":10222:10242  Transaction[] memory */\n      0x60\n        /* \"carbon.sol\":10262:10277  allTransactions */\n      0x0a\n        /* \"carbon.sol\":10255:10277  return allTransactions */\n      dup1\n      sload\n      dup1\n      0x20\n      mul\n      0x20\n      add\n      mload(0x40)\n      swap1\n      dup2\n      add\n      0x40\n      mstore\n      dup1\n      swap3\n      swap2\n      swap1\n      dup2\n      dup2\n      mstore\n      0x20\n      add\n      0x00\n      swap1\n    tag_185:\n      dup3\n      dup3\n      lt\n      iszero\n      tag_186\n      jumpi\n      dup4\n      dup3\n      swap1\n      0x00\n      mstore\n      keccak256(0x00, 0x20)\n      swap1\n      0x05\n      mul\n      add\n      mload(0x40)\n      dup1\n      0xa0\n      add\n      0x40\n      mstore\n      swap1\n      dup2\n      0x00\n      dup3\n      add\n      0x00\n      swap1\n      sload\n      swap1\n      0x0100\n      exp\n      swap1\n      div\n      0xffffffffffffffffffffffffffffffffffffffff\n      and\n      0xffffffffffffffffffffffffffffffffffffffff\n      and\n      0xffffffffffffffffffffffffffffffffffffffff\n      and\n      dup2\n      mstore\n      0x20\n      add\n      0x01\n      dup3\n      add\n      sload\n      dup2\n      mstore\n      0x20\n      add\n      0x02\n      dup3\n      add\n      sload\n      dup2\n      mstore\n      0x20\n      add\n      0x03\n      dup3\n      add\n      dup1\n      sload\n      tag_188\n      swap1\n      tag_162\n      jump\t// in\n    tag_188:\n      dup1\n      0x1f\n      add\n      0x20\n      dup1\n      swap2\n      div\n      mul\n      0x20\n      add\n      mload(0x40)\n      swap1\n      dup2\n      add\n      0x40\n      mstore\n      dup1\n      swap3\n      swap2\n      swap1\n      dup2\n      dup2\n      mstore\n      0x20\n      add\n      dup3\n      dup1\n      sload\n      tag_189\n      swap1\n      tag_162\n      jump\t// in\n    tag_189:\n      dup1\n      iszero\n      tag_190\n      jumpi\n      dup1\n      0x1f\n      lt\n      tag_191\n      jumpi\n      0x0100\n      dup1\n      dup4\n      sload\n      div\n      mul\n      dup4\n      mstore\n      swap2\n      0x20\n      add\n      swap2\n      jump(tag_190)\n    tag_191:\n      dup3\n      add\n      swap2\n      swap1\n      0x00\n      mstore\n      keccak256(0x00, 0x20)\n      swap1\n    tag_192:\n      dup2\n      sload\n      dup2\n      mstore\n      swap1\n      0x01\n      add\n      swap1\n      0x20\n      add\n      dup1\n      dup4\n      gt\n      tag_192\n      jumpi\n      dup3\n      swap1\n      sub\n      0x1f\n      and\n      dup3\n      add\n      swap2\n    tag_190:\n      pop\n      pop\n      pop\n      pop\n      pop\n      dup2\n      mstore\n      0x20\n      add\n      0x04\n      dup3\n      add\n      sload\n      dup2\n      mstore\n      pop\n      pop\n      dup2\n      mstore\n      0x20\n      add\n      swap1\n      0x01\n      add\n      swap1\n      jump(tag_185)\n    tag_186:\n      pop\n      pop\n      pop\n      pop\n      swap1\n      pop\n        /* \"carbon.sol\":10171:10285  function getAllTransactions() public view returns (Transaction[] memory) {... */\n      swap1\n      jump\t// out\n        /* \"carbon.sol\":232:277  bool public allowNonOwnerRegistration = false */\n    tag_71:\n      0x02\n      0x00\n      swap1\n      sload\n      swap1\n      0x0100\n      exp\n      swap1\n      div\n      0xff\n      and\n      dup2\n      jump\t// out\n        /* \"carbon.sol\":4858:5714  function updateProject(uint256 _projectId, string memory _name, uint256 _totalCredits, uint256 _pricePerCredit) public {... */\n    tag_78:\n        /* \"carbon.sol\":5009:5021  projectCount */\n      sload(0x06)\n        /* \"carbon.sol\":4996:5006  _projectId */\n      dup5\n        /* \"carbon.sol\":4996:5021  _projectId < projectCount */\n      lt\n        /* \"carbon.sol\":4988:5044  require(_projectId < projectCount, \"Invalid project ID\") */\n      tag_194\n      jumpi\n      mload(0x40)\n      0x08c379a000000000000000000000000000000000000000000000000000000000\n      dup2\n      mstore\n      0x04\n      add\n      tag_195\n      swap1\n      tag_196\n      jump\t// in\n    tag_195:\n      mload(0x40)\n      dup1\n      swap2\n      sub\n      swap1\n      revert\n    tag_194:\n        /* \"carbon.sol\":5055:5078  Project storage project */\n      0x00\n        /* \"carbon.sol\":5081:5089  projects */\n      0x05\n        /* \"carbon.sol\":5081:5101  projects[_projectId] */\n      0x00\n        /* \"carbon.sol\":5090:5100  _projectId */\n      dup7\n        /* \"carbon.sol\":5081:5101  projects[_projectId] */\n      dup2\n      mstore\n      0x20\n      add\n      swap1\n      dup2\n      mstore\n      0x20\n      add\n      0x00\n      keccak256\n        /* \"carbon.sol\":5055:5101  Project storage project = projects[_projectId] */\n      swap1\n      pop\n        /* \"carbon.sol\":5134:5141  project */\n      dup1\n        /* \"carbon.sol\":5134:5147  project.owner */\n      0x00\n      add\n      0x00\n      swap1\n      sload\n      swap1\n      0x0100\n      exp\n      swap1\n      div\n      0xffffffffffffffffffffffffffffffffffffffff\n      and\n        /* \"carbon.sol\":5120:5147  msg.sender == project.owner */\n      0xffffffffffffffffffffffffffffffffffffffff\n      and\n        /* \"carbon.sol\":5120:5130  msg.sender */\n      caller\n        /* \"carbon.sol\":5120:5147  msg.sender == project.owner */\n      0xffffffffffffffffffffffffffffffffffffffff\n      and\n      eq\n        /* \"carbon.sol\":5112:5197  require(msg.sender == project.owner, \"Only the project owner can update the project\") */\n      tag_197\n      jumpi\n      mload(0x40)\n      0x08c379a000000000000000000000000000000000000000000000000000000000\n      dup2\n      mstore\n      0x04\n      add\n      tag_198\n      swap1\n      tag_199\n      jump\t// in\n    tag_198:\n      mload(0x40)\n      dup1\n      swap2\n      sub\n      swap1\n      revert\n    tag_197:\n        /* \"carbon.sol\":5238:5239  0 */\n      0x00\n        /* \"carbon.sol\":5222:5227  _name */\n      dup5\n        /* \"carbon.sol\":5216:5235  bytes(_name).length */\n      mload\n        /* \"carbon.sol\":5216:5239  bytes(_name).length > 0 */\n      gt\n        /* \"carbon.sol\":5208:5272  require(bytes(_name).length > 0, \"Project name cannot be empty\") */\n      tag_200\n      jumpi\n      mload(0x40)\n      0x08c379a000000000000000000000000000000000000000000000000000000000\n      dup2\n      mstore\n      0x04\n      add\n      tag_201\n      swap1\n      tag_202\n      jump\t// in\n    tag_201:\n      mload(0x40)\n      dup1\n      swap2\n      sub\n      swap1\n      revert\n    tag_200:\n        /* \"carbon.sol\":5307:5308  0 */\n      0x00\n        /* \"carbon.sol\":5291:5304  _totalCredits */\n      dup4\n        /* \"carbon.sol\":5291:5308  _totalCredits > 0 */\n      gt\n        /* \"carbon.sol\":5283:5354  require(_totalCredits > 0, \"Total credits should be greater than zero\") */\n      tag_203\n      jumpi\n      mload(0x40)\n      0x08c379a000000000000000000000000000000000000000000000000000000000\n      dup2\n      mstore\n      0x04\n      add\n      tag_204\n      swap1\n      tag_205\n      jump\t// in\n    tag_204:\n      mload(0x40)\n      dup1\n      swap2\n      sub\n      swap1\n      revert\n    tag_203:\n        /* \"carbon.sol\":5391:5392  0 */\n      0x00\n        /* \"carbon.sol\":5373:5388  _pricePerCredit */\n      dup3\n        /* \"carbon.sol\":5373:5392  _pricePerCredit > 0 */\n      gt\n        /* \"carbon.sol\":5365:5441  require(_pricePerCredit > 0, \"Price per credit should be greater than zero\") */\n      tag_206\n      jumpi\n      mload(0x40)\n      0x08c379a000000000000000000000000000000000000000000000000000000000\n      dup2\n      mstore\n      0x04\n      add\n      tag_207\n      swap1\n      tag_208\n      jump\t// in\n    tag_207:\n      mload(0x40)\n      dup1\n      swap2\n      sub\n      swap1\n      revert\n    tag_206:\n        /* \"carbon.sol\":5469:5474  _name */\n      dup4\n        /* \"carbon.sol\":5454:5461  project */\n      dup2\n        /* \"carbon.sol\":5454:5466  project.name */\n      0x01\n      add\n        /* \"carbon.sol\":5454:5474  project.name = _name */\n      swap1\n      dup2\n      tag_209\n      swap2\n      swap1\n      tag_210\n      jump\t// in\n    tag_209:\n      pop\n        /* \"carbon.sol\":5508:5521  _totalCredits */\n      dup3\n        /* \"carbon.sol\":5485:5492  project */\n      dup2\n        /* \"carbon.sol\":5485:5505  project.totalCredits */\n      0x02\n      add\n        /* \"carbon.sol\":5485:5521  project.totalCredits = _totalCredits */\n      dup2\n      swap1\n      sstore\n      pop\n        /* \"carbon.sol\":5559:5572  _totalCredits */\n      dup3\n        /* \"carbon.sol\":5532:5539  project */\n      dup2\n        /* \"carbon.sol\":5532:5556  project.availableCredits */\n      0x03\n      add\n        /* \"carbon.sol\":5532:5572  project.availableCredits = _totalCredits */\n      dup2\n      swap1\n      sstore\n      pop\n        /* \"carbon.sol\":5608:5623  _pricePerCredit */\n      dup2\n        /* \"carbon.sol\":5583:5590  project */\n      dup2\n        /* \"carbon.sol\":5583:5605  project.pricePerCredit */\n      0x04\n      add\n        /* \"carbon.sol\":5583:5623  project.pricePerCredit = _pricePerCredit */\n      dup2\n      swap1\n      sstore\n      pop\n        /* \"carbon.sol\":5641:5706  ProjectUpdated(_projectId, _name, _totalCredits, _pricePerCredit) */\n      0x700a00c8a0ce792dad3b7132a7a7f4a44a923f3820e64a1ca3594a073973c909\n        /* \"carbon.sol\":5656:5666  _projectId */\n      dup6\n        /* \"carbon.sol\":5668:5673  _name */\n      dup6\n        /* \"carbon.sol\":5675:5688  _totalCredits */\n      dup6\n        /* \"carbon.sol\":5690:5705  _pricePerCredit */\n      dup6\n        /* \"carbon.sol\":5641:5706  ProjectUpdated(_projectId, _name, _totalCredits, _pricePerCredit) */\n      mload(0x40)\n      tag_211\n      swap5\n      swap4\n      swap3\n      swap2\n      swap1\n      tag_212\n      jump\t// in\n    tag_211:\n      mload(0x40)\n      dup1\n      swap2\n      sub\n      swap1\n      log1\n        /* \"carbon.sol\":4977:5714  {... */\n      pop\n        /* \"carbon.sol\":4858:5714  function updateProject(uint256 _projectId, string memory _name, uint256 _totalCredits, uint256 _pricePerCredit) public {... */\n      pop\n      pop\n      pop\n      pop\n      jump\t// out\n        /* \"carbon.sol\":1212:1239  uint256 public projectCount */\n    tag_81:\n      sload(0x06)\n      dup2\n      jump\t// out\n        /* \"carbon.sol\":7297:8135  function retireCredits(uint256 _projectId, uint256 _credits) public {... */\n    tag_87:\n        /* \"carbon.sol\":7397:7409  projectCount */\n      sload(0x06)\n        /* \"carbon.sol\":7384:7394  _projectId */\n      dup3\n        /* \"carbon.sol\":7384:7409  _projectId < projectCount */\n      lt\n        /* \"carbon.sol\":7376:7432  require(_projectId < projectCount, \"Invalid project ID\") */\n      tag_214\n      jumpi\n      mload(0x40)\n      0x08c379a000000000000000000000000000000000000000000000000000000000\n      dup2\n      mstore\n      0x04\n      add\n      tag_215\n      swap1\n      tag_196\n      jump\t// in\n    tag_215:\n      mload(0x40)\n      dup1\n      swap2\n      sub\n      swap1\n      revert\n    tag_214:\n        /* \"carbon.sol\":7490:7498  _credits */\n      dup1\n        /* \"carbon.sol\":7451:7462  userCredits */\n      0x07\n        /* \"carbon.sol\":7451:7474  userCredits[msg.sender] */\n      0x00\n        /* \"carbon.sol\":7463:7473  msg.sender */\n      caller\n        /* \"carbon.sol\":7451:7474  userCredits[msg.sender] */\n      0xffffffffffffffffffffffffffffffffffffffff\n      and\n      0xffffffffffffffffffffffffffffffffffffffff\n      and\n      dup2\n      mstore\n      0x20\n      add\n      swap1\n      dup2\n      mstore\n      0x20\n      add\n      0x00\n      keccak256\n        /* \"carbon.sol\":7451:7486  userCredits[msg.sender][_projectId] */\n      0x00\n        /* \"carbon.sol\":7475:7485  _projectId */\n      dup5\n        /* \"carbon.sol\":7451:7486  userCredits[msg.sender][_projectId] */\n      dup2\n      mstore\n      0x20\n      add\n      swap1\n      dup2\n      mstore\n      0x20\n      add\n      0x00\n      keccak256\n      sload\n        /* \"carbon.sol\":7451:7498  userCredits[msg.sender][_projectId] >= _credits */\n      lt\n      iszero\n        /* \"carbon.sol\":7443:7533  require(userCredits[msg.sender][_projectId] >= _credits, \"Insufficient credits to retire\") */\n      tag_216\n      jumpi\n      mload(0x40)\n      0x08c379a000000000000000000000000000000000000000000000000000000000\n      dup2\n      mstore\n      0x04\n      add\n      tag_217\n      swap1\n      tag_218\n      jump\t// in\n    tag_217:\n      mload(0x40)\n      dup1\n      swap2\n      sub\n      swap1\n      revert\n    tag_216:\n        /* \"carbon.sol\":7585:7593  _credits */\n      dup1\n        /* \"carbon.sol\":7546:7557  userCredits */\n      0x07\n        /* \"carbon.sol\":7546:7569  userCredits[msg.sender] */\n      0x00\n        /* \"carbon.sol\":7558:7568  msg.sender */\n      caller\n        /* \"carbon.sol\":7546:7569  userCredits[msg.sender] */\n      0xffffffffffffffffffffffffffffffffffffffff\n      and\n      0xffffffffffffffffffffffffffffffffffffffff\n      and\n      dup2\n      mstore\n      0x20\n      add\n      swap1\n      dup2\n      mstore\n      0x20\n      add\n      0x00\n      keccak256\n        /* \"carbon.sol\":7546:7581  userCredits[msg.sender][_projectId] */\n      0x00\n        /* \"carbon.sol\":7570:7580  _projectId */\n      dup5\n        /* \"carbon.sol\":7546:7581  userCredits[msg.sender][_projectId] */\n      dup2\n      mstore\n      0x20\n      add\n      swap1\n      dup2\n      mstore\n      0x20\n      add\n      0x00\n      keccak256\n      0x00\n        /* \"carbon.sol\":7546:7593  userCredits[msg.sender][_projectId] -= _credits */\n      dup3\n      dup3\n      sload\n      tag_219\n      swap2\n      swap1\n      tag_220\n      jump\t// in\n    tag_219:\n      swap3\n      pop\n      pop\n      dup2\n      swap1\n      sstore\n      pop\n        /* \"carbon.sol\":7637:7667  Transaction memory transaction */\n      0x00\n        /* \"carbon.sol\":7670:7865  Transaction({... */\n      mload(0x40)\n      dup1\n      0xa0\n      add\n      0x40\n      mstore\n      dup1\n        /* \"carbon.sol\":7703:7713  msg.sender */\n      caller\n        /* \"carbon.sol\":7670:7865  Transaction({... */\n      0xffffffffffffffffffffffffffffffffffffffff\n      and\n      dup2\n      mstore\n      0x20\n      add\n        /* \"carbon.sol\":7739:7749  _projectId */\n      dup5\n        /* \"carbon.sol\":7670:7865  Transaction({... */\n      dup2\n      mstore\n      0x20\n      add\n        /* \"carbon.sol\":7773:7781  _credits */\n      dup4\n        /* \"carbon.sol\":7670:7865  Transaction({... */\n      dup2\n      mstore\n      0x20\n      add\n      mload(0x40)\n      dup1\n      0x40\n      add\n      0x40\n      mstore\n      dup1\n      0x06\n      dup2\n      mstore\n      0x20\n      add\n      0x7265746972650000000000000000000000000000000000000000000000000000\n      dup2\n      mstore\n      pop\n      dup2\n      mstore\n      0x20\n      add\n        /* \"carbon.sol\":7838:7853  block.timestamp */\n      timestamp\n        /* \"carbon.sol\":7670:7865  Transaction({... */\n      dup2\n      mstore\n      pop\n        /* \"carbon.sol\":7637:7865  Transaction memory transaction = Transaction({... */\n      swap1\n      pop\n        /* \"carbon.sol\":7876:7892  userTransactions */\n      0x09\n        /* \"carbon.sol\":7876:7904  userTransactions[msg.sender] */\n      0x00\n        /* \"carbon.sol\":7893:7903  msg.sender */\n      caller\n        /* \"carbon.sol\":7876:7904  userTransactions[msg.sender] */\n      0xffffffffffffffffffffffffffffffffffffffff\n      and\n      0xffffffffffffffffffffffffffffffffffffffff\n      and\n      dup2\n      mstore\n      0x20\n      add\n      swap1\n      dup2\n      mstore\n      0x20\n      add\n      0x00\n      keccak256\n        /* \"carbon.sol\":7910:7921  transaction */\n      dup2\n        /* \"carbon.sol\":7876:7922  userTransactions[msg.sender].push(transaction) */\n      swap1\n      dup1\n      0x01\n      dup2\n      sload\n      add\n      dup1\n      dup3\n      sstore\n      dup1\n      swap2\n      pop\n      pop\n      0x01\n      swap1\n      sub\n      swap1\n      0x00\n      mstore\n      keccak256(0x00, 0x20)\n      swap1\n      0x05\n      mul\n      add\n      0x00\n      swap1\n      swap2\n      swap1\n      swap2\n      swap1\n      swap2\n      pop\n      0x00\n      dup3\n      add\n      mload\n      dup2\n      0x00\n      add\n      exp(0x0100, 0x00)\n      dup2\n      sload\n      dup2\n      0xffffffffffffffffffffffffffffffffffffffff\n      mul\n      not\n      and\n      swap1\n      dup4\n      0xffffffffffffffffffffffffffffffffffffffff\n      and\n      mul\n      or\n      swap1\n      sstore\n      pop\n      0x20\n      dup3\n      add\n      mload\n      dup2\n      0x01\n      add\n      sstore\n      0x40\n      dup3\n      add\n      mload\n      dup2\n      0x02\n      add\n      sstore\n      0x60\n      dup3\n      add\n      mload\n      dup2\n      0x03\n      add\n      swap1\n      dup2\n      tag_222\n      swap2\n      swap1\n      tag_210\n      jump\t// in\n    tag_222:\n      pop\n      0x80\n      dup3\n      add\n      mload\n      dup2\n      0x04\n      add\n      sstore\n      pop\n      pop\n        /* \"carbon.sol\":7933:7948  allTransactions */\n      0x0a\n        /* \"carbon.sol\":7954:7965  transaction */\n      dup2\n        /* \"carbon.sol\":7933:7966  allTransactions.push(transaction) */\n      swap1\n      dup1\n      0x01\n      dup2\n      sload\n      add\n      dup1\n      dup3\n      sstore\n      dup1\n      swap2\n      pop\n      pop\n      0x01\n      swap1\n      sub\n      swap1\n      0x00\n      mstore\n      keccak256(0x00, 0x20)\n      swap1\n      0x05\n      mul\n      add\n      0x00\n      swap1\n      swap2\n      swap1\n      swap2\n      swap1\n      swap2\n      pop\n      0x00\n      dup3\n      add\n      mload\n      dup2\n      0x00\n      add\n      exp(0x0100, 0x00)\n      dup2\n      sload\n      dup2\n      0xffffffffffffffffffffffffffffffffffffffff\n      mul\n      not\n      and\n      swap1\n      dup4\n      0xffffffffffffffffffffffffffffffffffffffff\n      and\n      mul\n      or\n      swap1\n      sstore\n      pop\n      0x20\n      dup3\n      add\n      mload\n      dup2\n      0x01\n      add\n      sstore\n      0x40\n      dup3\n      add\n      mload\n      dup2\n      0x02\n      add\n      sstore\n      0x60\n      dup3\n      add\n      mload\n      dup2\n      0x03\n      add\n      swap1\n      dup2\n      tag_224\n      swap2\n      swap1\n      tag_210\n      jump\t// in\n    tag_224:\n      pop\n      0x80\n      dup3\n      add\n      mload\n      dup2\n      0x04\n      add\n      sstore\n      pop\n      pop\n        /* \"carbon.sol\":8011:8061  _updateUserRewards(msg.sender, _credits, \"retire\") */\n      tag_225\n        /* \"carbon.sol\":8030:8040  msg.sender */\n      caller\n        /* \"carbon.sol\":8042:8050  _credits */\n      dup4\n        /* \"carbon.sol\":8011:8061  _updateUserRewards(msg.sender, _credits, \"retire\") */\n      mload(0x40)\n      dup1\n      0x40\n      add\n      0x40\n      mstore\n      dup1\n      0x06\n      dup2\n      mstore\n      0x20\n      add\n      0x7265746972650000000000000000000000000000000000000000000000000000\n      dup2\n      mstore\n      pop\n        /* \"carbon.sol\":8011:8029  _updateUserRewards */\n      tag_226\n        /* \"carbon.sol\":8011:8061  _updateUserRewards(msg.sender, _credits, \"retire\") */\n      jump\t// in\n    tag_225:\n        /* \"carbon.sol\":8094:8104  msg.sender */\n      caller\n        /* \"carbon.sol\":8079:8127  CreditsRetired(msg.sender, _projectId, _credits) */\n      0xffffffffffffffffffffffffffffffffffffffff\n      and\n      0x2ffd4879af328c871cf4d2be1d40d91f5ce4f202fd47e10e4c58d19667627da8\n        /* \"carbon.sol\":8106:8116  _projectId */\n      dup5\n        /* \"carbon.sol\":8118:8126  _credits */\n      dup5\n        /* \"carbon.sol\":8079:8127  CreditsRetired(msg.sender, _projectId, _credits) */\n      mload(0x40)\n      tag_227\n      swap3\n      swap2\n      swap1\n      tag_228\n      jump\t// in\n    tag_227:\n      mload(0x40)\n      dup1\n      swap2\n      sub\n      swap1\n      log2\n        /* \"carbon.sol\":7365:8135  {... */\n      pop\n        /* \"carbon.sol\":7297:8135  function retireCredits(uint256 _projectId, uint256 _credits) public {... */\n      pop\n      pop\n      jump\t// out\n        /* \"carbon.sol\":11648:12284  function updateBadgeThreshold(string memory _badge, uint256 _newThreshold) public {... */\n    tag_92:\n        /* \"carbon.sol\":11763:11768  owner */\n      0x00\n      dup1\n      sload\n      swap1\n      0x0100\n      exp\n      swap1\n      div\n      0xffffffffffffffffffffffffffffffffffffffff\n      and\n        /* \"carbon.sol\":11749:11768  msg.sender == owner */\n      0xffffffffffffffffffffffffffffffffffffffff\n      and\n        /* \"carbon.sol\":11749:11759  msg.sender */\n      caller\n        /* \"carbon.sol\":11749:11768  msg.sender == owner */\n      0xffffffffffffffffffffffffffffffffffffffff\n      and\n      eq\n        /* \"carbon.sol\":11741:11815  require(msg.sender == owner, \"Only the owner can update badge thresholds\") */\n      tag_230\n      jumpi\n      mload(0x40)\n      0x08c379a000000000000000000000000000000000000000000000000000000000\n      dup2\n      mstore\n      0x04\n      add\n      tag_231\n      swap1\n      tag_232\n      jump\t// in\n    tag_231:\n      mload(0x40)\n      dup1\n      swap2\n      sub\n      swap1\n      revert\n    tag_230:\n        /* \"carbon.sol\":11881:11916  abi.encodePacked(\"Carbon Champion\") */\n      add(0x20, mload(0x40))\n      tag_233\n      swap1\n      tag_234\n      jump\t// in\n    tag_233:\n      mload(0x40)\n      0x20\n      dup2\n      dup4\n      sub\n      sub\n      dup2\n      mstore\n      swap1\n      0x40\n      mstore\n        /* \"carbon.sol\":11871:11917  keccak256(abi.encodePacked(\"Carbon Champion\")) */\n      dup1\n      mload\n      swap1\n      0x20\n      add\n      keccak256\n        /* \"carbon.sol\":11859:11865  _badge */\n      dup3\n        /* \"carbon.sol\":11842:11866  abi.encodePacked(_badge) */\n      add(0x20, mload(0x40))\n      tag_235\n      swap2\n      swap1\n      tag_236\n      jump\t// in\n    tag_235:\n      mload(0x40)\n      0x20\n      dup2\n      dup4\n      sub\n      sub\n      dup2\n      mstore\n      swap1\n      0x40\n      mstore\n        /* \"carbon.sol\":11832:11867  keccak256(abi.encodePacked(_badge)) */\n      dup1\n      mload\n      swap1\n      0x20\n      add\n      keccak256\n        /* \"carbon.sol\":11832:11917  keccak256(abi.encodePacked(_badge)) == keccak256(abi.encodePacked(\"Carbon Champion\")) */\n      sub\n        /* \"carbon.sol\":11828:12215  if (keccak256(abi.encodePacked(_badge)) == keccak256(abi.encodePacked(\"Carbon Champion\"))) {... */\n      tag_237\n      jumpi\n        /* \"carbon.sol\":11960:11973  _newThreshold */\n      dup1\n        /* \"carbon.sol\":11934:11957  carbonChampionThreshold */\n      0x0c\n        /* \"carbon.sol\":11934:11973  carbonChampionThreshold = _newThreshold */\n      dup2\n      swap1\n      sstore\n      pop\n        /* \"carbon.sol\":11828:12215  if (keccak256(abi.encodePacked(_badge)) == keccak256(abi.encodePacked(\"Carbon Champion\"))) {... */\n      jump(tag_238)\n    tag_237:\n        /* \"carbon.sol\":12044:12082  abi.encodePacked(\"Carbon Contributor\") */\n      add(0x20, mload(0x40))\n      tag_239\n      swap1\n      tag_240\n      jump\t// in\n    tag_239:\n      mload(0x40)\n      0x20\n      dup2\n      dup4\n      sub\n      sub\n      dup2\n      mstore\n      swap1\n      0x40\n      mstore\n        /* \"carbon.sol\":12034:12083  keccak256(abi.encodePacked(\"Carbon Contributor\")) */\n      dup1\n      mload\n      swap1\n      0x20\n      add\n      keccak256\n        /* \"carbon.sol\":12022:12028  _badge */\n      dup3\n        /* \"carbon.sol\":12005:12029  abi.encodePacked(_badge) */\n      add(0x20, mload(0x40))\n      tag_241\n      swap2\n      swap1\n      tag_236\n      jump\t// in\n    tag_241:\n      mload(0x40)\n      0x20\n      dup2\n      dup4\n      sub\n      sub\n      dup2\n      mstore\n      swap1\n      0x40\n      mstore\n        /* \"carbon.sol\":11995:12030  keccak256(abi.encodePacked(_badge)) */\n      dup1\n      mload\n      swap1\n      0x20\n      add\n      keccak256\n        /* \"carbon.sol\":11995:12083  keccak256(abi.encodePacked(_badge)) == keccak256(abi.encodePacked(\"Carbon Contributor\")) */\n      sub\n        /* \"carbon.sol\":11991:12215  if (keccak256(abi.encodePacked(_badge)) == keccak256(abi.encodePacked(\"Carbon Contributor\"))) {... */\n      tag_242\n      jumpi\n        /* \"carbon.sol\":12129:12142  _newThreshold */\n      dup1\n        /* \"carbon.sol\":12100:12126  carbonContributorThreshold */\n      0x0d\n        /* \"carbon.sol\":12100:12142  carbonContributorThreshold = _newThreshold */\n      dup2\n      swap1\n      sstore\n      pop\n        /* \"carbon.sol\":11991:12215  if (keccak256(abi.encodePacked(_badge)) == keccak256(abi.encodePacked(\"Carbon Contributor\"))) {... */\n      jump(tag_243)\n    tag_242:\n        /* \"carbon.sol\":12175:12203  revert(\"Invalid badge type\") */\n      mload(0x40)\n      0x08c379a000000000000000000000000000000000000000000000000000000000\n      dup2\n      mstore\n      0x04\n      add\n      tag_244\n      swap1\n      tag_245\n      jump\t// in\n    tag_244:\n      mload(0x40)\n      dup1\n      swap2\n      sub\n      swap1\n      revert\n        /* \"carbon.sol\":11991:12215  if (keccak256(abi.encodePacked(_badge)) == keccak256(abi.encodePacked(\"Carbon Contributor\"))) {... */\n    tag_243:\n        /* \"carbon.sol\":11828:12215  if (keccak256(abi.encodePacked(_badge)) == keccak256(abi.encodePacked(\"Carbon Champion\"))) {... */\n    tag_238:\n        /* \"carbon.sol\":12232:12276  BadgeThresholdUpdated(_badge, _newThreshold) */\n      0x65f813ffc62f4558203f911768a4c01623a0cbd5ba9ab7794c0d605e16b7d98c\n        /* \"carbon.sol\":12254:12260  _badge */\n      dup3\n        /* \"carbon.sol\":12262:12275  _newThreshold */\n      dup3\n        /* \"carbon.sol\":12232:12276  BadgeThresholdUpdated(_badge, _newThreshold) */\n      mload(0x40)\n      tag_246\n      swap3\n      swap2\n      swap1\n      tag_247\n      jump\t// in\n    tag_246:\n      mload(0x40)\n      dup1\n      swap2\n      sub\n      swap1\n      log1\n        /* \"carbon.sol\":11648:12284  function updateBadgeThreshold(string memory _badge, uint256 _newThreshold) public {... */\n      pop\n      pop\n      jump\t// out\n        /* \"carbon.sol\":10698:11596  function getLeaderboard() public view returns (address[] memory, uint256[] memory) {... */\n    tag_95:\n        /* \"carbon.sol\":10745:10761  address[] memory */\n      0x60\n        /* \"carbon.sol\":10763:10779  uint256[] memory */\n      dup1\n        /* \"carbon.sol\":10792:10821  uint256[] memory rewardPoints */\n      0x00\n        /* \"carbon.sol\":10838:10850  projectCount */\n      sload(0x06)\n        /* \"carbon.sol\":10824:10851  new uint256[](projectCount) */\n      0xffffffffffffffff\n      dup2\n      gt\n      iszero\n      tag_249\n      jumpi\n      tag_250\n      tag_251\n      jump\t// in\n    tag_250:\n    tag_249:\n      mload(0x40)\n      swap1\n      dup1\n      dup3\n      mstore\n      dup1\n      0x20\n      mul\n      0x20\n      add\n      dup3\n      add\n      0x40\n      mstore\n      dup1\n      iszero\n      tag_252\n      jumpi\n      dup2\n      0x20\n      add\n      0x20\n      dup3\n      mul\n      dup1\n      calldatasize\n      dup4\n      calldatacopy\n      dup1\n      dup3\n      add\n      swap2\n      pop\n      pop\n      swap1\n      pop\n    tag_252:\n      pop\n        /* \"carbon.sol\":10792:10851  uint256[] memory rewardPoints = new uint256[](projectCount) */\n      swap1\n      pop\n        /* \"carbon.sol\":10862:10884  address[] memory users */\n      0x00\n        /* \"carbon.sol\":10901:10913  projectCount */\n      sload(0x06)\n        /* \"carbon.sol\":10887:10914  new address[](projectCount) */\n      0xffffffffffffffff\n      dup2\n      gt\n      iszero\n      tag_253\n      jumpi\n      tag_254\n      tag_251\n      jump\t// in\n    tag_254:\n    tag_253:\n      mload(0x40)\n      swap1\n      dup1\n      dup3\n      mstore\n      dup1\n      0x20\n      mul\n      0x20\n      add\n      dup3\n      add\n      0x40\n      mstore\n      dup1\n      iszero\n      tag_255\n      jumpi\n      dup2\n      0x20\n      add\n      0x20\n      dup3\n      mul\n      dup1\n      calldatasize\n      dup4\n      calldatacopy\n      dup1\n      dup3\n      add\n      swap2\n      pop\n      pop\n      swap1\n      pop\n    tag_255:\n      pop\n        /* \"carbon.sol\":10862:10914  address[] memory users = new address[](projectCount) */\n      swap1\n      pop\n        /* \"carbon.sol\":10932:10941  uint256 i */\n      0x00\n        /* \"carbon.sol\":10927:11093  for (uint256 i = 0; i < projectCount; i++) {... */\n    tag_256:\n        /* \"carbon.sol\":10951:10963  projectCount */\n      sload(0x06)\n        /* \"carbon.sol\":10947:10948  i */\n      dup2\n        /* \"carbon.sol\":10947:10963  i < projectCount */\n      lt\n        /* \"carbon.sol\":10927:11093  for (uint256 i = 0; i < projectCount; i++) {... */\n      iszero\n      tag_257\n      jumpi\n        /* \"carbon.sol\":10996:11004  projects */\n      0x05\n        /* \"carbon.sol\":10996:11007  projects[i] */\n      0x00\n        /* \"carbon.sol\":11005:11006  i */\n      dup3\n        /* \"carbon.sol\":10996:11007  projects[i] */\n      dup2\n      mstore\n      0x20\n      add\n      swap1\n      dup2\n      mstore\n      0x20\n      add\n      0x00\n      keccak256\n        /* \"carbon.sol\":10996:11013  projects[i].owner */\n      0x00\n      add\n      0x00\n      swap1\n      sload\n      swap1\n      0x0100\n      exp\n      swap1\n      div\n      0xffffffffffffffffffffffffffffffffffffffff\n      and\n        /* \"carbon.sol\":10985:10990  users */\n      dup3\n        /* \"carbon.sol\":10991:10992  i */\n      dup3\n        /* \"carbon.sol\":10985:10993  users[i] */\n      dup2\n      mload\n      dup2\n      lt\n      tag_259\n      jumpi\n      tag_260\n      tag_261\n      jump\t// in\n    tag_260:\n    tag_259:\n      0x20\n      mul\n      0x20\n      add\n      add\n        /* \"carbon.sol\":10985:11013  users[i] = projects[i].owner */\n      swap1\n      0xffffffffffffffffffffffffffffffffffffffff\n      and\n      swap1\n      dup2\n      0xffffffffffffffffffffffffffffffffffffffff\n      and\n      dup2\n      mstore\n      pop\n      pop\n        /* \"carbon.sol\":11046:11062  userRewardPoints */\n      0x0b\n        /* \"carbon.sol\":11046:11081  userRewardPoints[projects[i].owner] */\n      0x00\n        /* \"carbon.sol\":11063:11071  projects */\n      0x05\n        /* \"carbon.sol\":11063:11074  projects[i] */\n      0x00\n        /* \"carbon.sol\":11072:11073  i */\n      dup5\n        /* \"carbon.sol\":11063:11074  projects[i] */\n      dup2\n      mstore\n      0x20\n      add\n      swap1\n      dup2\n      mstore\n      0x20\n      add\n      0x00\n      keccak256\n        /* \"carbon.sol\":11063:11080  projects[i].owner */\n      0x00\n      add\n      0x00\n      swap1\n      sload\n      swap1\n      0x0100\n      exp\n      swap1\n      div\n      0xffffffffffffffffffffffffffffffffffffffff\n      and\n        /* \"carbon.sol\":11046:11081  userRewardPoints[projects[i].owner] */\n      0xffffffffffffffffffffffffffffffffffffffff\n      and\n      0xffffffffffffffffffffffffffffffffffffffff\n      and\n      dup2\n      mstore\n      0x20\n      add\n      swap1\n      dup2\n      mstore\n      0x20\n      add\n      0x00\n      keccak256\n      sload\n        /* \"carbon.sol\":11028:11040  rewardPoints */\n      dup4\n        /* \"carbon.sol\":11041:11042  i */\n      dup3\n        /* \"carbon.sol\":11028:11043  rewardPoints[i] */\n      dup2\n      mload\n      dup2\n      lt\n      tag_262\n      jumpi\n      tag_263\n      tag_261\n      jump\t// in\n    tag_263:\n    tag_262:\n      0x20\n      mul\n      0x20\n      add\n      add\n        /* \"carbon.sol\":11028:11081  rewardPoints[i] = userRewardPoints[projects[i].owner] */\n      dup2\n      dup2\n      mstore\n      pop\n      pop\n        /* \"carbon.sol\":10965:10968  i++ */\n      dup1\n      dup1\n      0x01\n      add\n      swap2\n      pop\n      pop\n        /* \"carbon.sol\":10927:11093  for (uint256 i = 0; i < projectCount; i++) {... */\n      jump(tag_256)\n    tag_257:\n      pop\n        /* \"carbon.sol\":11166:11175  uint256 i */\n      0x00\n        /* \"carbon.sol\":11161:11548  for (uint256 i = 0; i < rewardPoints.length - 1; i++) {... */\n    tag_264:\n        /* \"carbon.sol\":11207:11208  1 */\n      0x01\n        /* \"carbon.sol\":11185:11197  rewardPoints */\n      dup4\n        /* \"carbon.sol\":11185:11204  rewardPoints.length */\n      mload\n        /* \"carbon.sol\":11185:11208  rewardPoints.length - 1 */\n      tag_267\n      swap2\n      swap1\n      tag_220\n      jump\t// in\n    tag_267:\n        /* \"carbon.sol\":11181:11182  i */\n      dup2\n        /* \"carbon.sol\":11181:11208  i < rewardPoints.length - 1 */\n      lt\n        /* \"carbon.sol\":11161:11548  for (uint256 i = 0; i < rewardPoints.length - 1; i++) {... */\n      iszero\n      tag_265\n      jumpi\n        /* \"carbon.sol\":11235:11244  uint256 j */\n      0x00\n        /* \"carbon.sol\":11251:11252  1 */\n      0x01\n        /* \"carbon.sol\":11247:11248  i */\n      dup3\n        /* \"carbon.sol\":11247:11252  i + 1 */\n      tag_271\n      swap2\n      swap1\n      tag_272\n      jump\t// in\n    tag_271:\n        /* \"carbon.sol\":11235:11252  uint256 j = i + 1 */\n      swap1\n      pop\n        /* \"carbon.sol\":11230:11537  for (uint256 j = i + 1; j < rewardPoints.length; j++) {... */\n    tag_268:\n        /* \"carbon.sol\":11258:11270  rewardPoints */\n      dup4\n        /* \"carbon.sol\":11258:11277  rewardPoints.length */\n      mload\n        /* \"carbon.sol\":11254:11255  j */\n      dup2\n        /* \"carbon.sol\":11254:11277  j < rewardPoints.length */\n      lt\n        /* \"carbon.sol\":11230:11537  for (uint256 j = i + 1; j < rewardPoints.length; j++) {... */\n      iszero\n      tag_269\n      jumpi\n        /* \"carbon.sol\":11325:11337  rewardPoints */\n      dup4\n        /* \"carbon.sol\":11338:11339  j */\n      dup2\n        /* \"carbon.sol\":11325:11340  rewardPoints[j] */\n      dup2\n      mload\n      dup2\n      lt\n      tag_273\n      jumpi\n      tag_274\n      tag_261\n      jump\t// in\n    tag_274:\n    tag_273:\n      0x20\n      mul\n      0x20\n      add\n      add\n      mload\n        /* \"carbon.sol\":11307:11319  rewardPoints */\n      dup5\n        /* \"carbon.sol\":11320:11321  i */\n      dup4\n        /* \"carbon.sol\":11307:11322  rewardPoints[i] */\n      dup2\n      mload\n      dup2\n      lt\n      tag_275\n      jumpi\n      tag_276\n      tag_261\n      jump\t// in\n    tag_276:\n    tag_275:\n      0x20\n      mul\n      0x20\n      add\n      add\n      mload\n        /* \"carbon.sol\":11307:11340  rewardPoints[i] < rewardPoints[j] */\n      lt\n        /* \"carbon.sol\":11303:11522  if (rewardPoints[i] < rewardPoints[j]) {... */\n      iszero\n      tag_277\n      jumpi\n        /* \"carbon.sol\":11403:11415  rewardPoints */\n      dup4\n        /* \"carbon.sol\":11416:11417  j */\n      dup2\n        /* \"carbon.sol\":11403:11418  rewardPoints[j] */\n      dup2\n      mload\n      dup2\n      lt\n      tag_278\n      jumpi\n      tag_279\n      tag_261\n      jump\t// in\n    tag_279:\n    tag_278:\n      0x20\n      mul\n      0x20\n      add\n      add\n      mload\n        /* \"carbon.sol\":11420:11432  rewardPoints */\n      dup5\n        /* \"carbon.sol\":11433:11434  i */\n      dup4\n        /* \"carbon.sol\":11420:11435  rewardPoints[i] */\n      dup2\n      mload\n      dup2\n      lt\n      tag_280\n      jumpi\n      tag_281\n      tag_261\n      jump\t// in\n    tag_281:\n    tag_280:\n      0x20\n      mul\n      0x20\n      add\n      add\n      mload\n        /* \"carbon.sol\":11366:11378  rewardPoints */\n      dup6\n        /* \"carbon.sol\":11379:11380  i */\n      dup5\n        /* \"carbon.sol\":11366:11381  rewardPoints[i] */\n      dup2\n      mload\n      dup2\n      lt\n      tag_282\n      jumpi\n      tag_283\n      tag_261\n      jump\t// in\n    tag_283:\n    tag_282:\n      0x20\n      mul\n      0x20\n      add\n      add\n        /* \"carbon.sol\":11383:11395  rewardPoints */\n      dup7\n        /* \"carbon.sol\":11396:11397  j */\n      dup5\n        /* \"carbon.sol\":11383:11398  rewardPoints[j] */\n      dup2\n      mload\n      dup2\n      lt\n      tag_284\n      jumpi\n      tag_285\n      tag_261\n      jump\t// in\n    tag_285:\n    tag_284:\n      0x20\n      mul\n      0x20\n      add\n      add\n        /* \"carbon.sol\":11365:11436  (rewardPoints[i], rewardPoints[j]) = (rewardPoints[j], rewardPoints[i]) */\n      dup3\n      dup2\n      mstore\n      pop\n      dup3\n      dup2\n      mstore\n      pop\n      pop\n      pop\n        /* \"carbon.sol\":11483:11488  users */\n      dup3\n        /* \"carbon.sol\":11489:11490  j */\n      dup2\n        /* \"carbon.sol\":11483:11491  users[j] */\n      dup2\n      mload\n      dup2\n      lt\n      tag_286\n      jumpi\n      tag_287\n      tag_261\n      jump\t// in\n    tag_287:\n    tag_286:\n      0x20\n      mul\n      0x20\n      add\n      add\n      mload\n        /* \"carbon.sol\":11493:11498  users */\n      dup4\n        /* \"carbon.sol\":11499:11500  i */\n      dup4\n        /* \"carbon.sol\":11493:11501  users[i] */\n      dup2\n      mload\n      dup2\n      lt\n      tag_288\n      jumpi\n      tag_289\n      tag_261\n      jump\t// in\n    tag_289:\n    tag_288:\n      0x20\n      mul\n      0x20\n      add\n      add\n      mload\n        /* \"carbon.sol\":11460:11465  users */\n      dup5\n        /* \"carbon.sol\":11466:11467  i */\n      dup5\n        /* \"carbon.sol\":11460:11468  users[i] */\n      dup2\n      mload\n      dup2\n      lt\n      tag_290\n      jumpi\n      tag_291\n      tag_261\n      jump\t// in\n    tag_291:\n    tag_290:\n      0x20\n      mul\n      0x20\n      add\n      add\n        /* \"carbon.sol\":11470:11475  users */\n      dup6\n        /* \"carbon.sol\":11476:11477  j */\n      dup5\n        /* \"carbon.sol\":11470:11478  users[j] */\n      dup2\n      mload\n      dup2\n      lt\n      tag_292\n      jumpi\n      tag_293\n      tag_261\n      jump\t// in\n    tag_293:\n    tag_292:\n      0x20\n      mul\n      0x20\n      add\n      add\n        /* \"carbon.sol\":11459:11502  (users[i], users[j]) = (users[j], users[i]) */\n      dup3\n      0xffffffffffffffffffffffffffffffffffffffff\n      and\n      0xffffffffffffffffffffffffffffffffffffffff\n      and\n      dup2\n      mstore\n      pop\n      dup3\n      0xffffffffffffffffffffffffffffffffffffffff\n      and\n      0xffffffffffffffffffffffffffffffffffffffff\n      and\n      dup2\n      mstore\n      pop\n      pop\n      pop\n        /* \"carbon.sol\":11303:11522  if (rewardPoints[i] < rewardPoints[j]) {... */\n    tag_277:\n        /* \"carbon.sol\":11279:11282  j++ */\n      dup1\n      dup1\n      0x01\n      add\n      swap2\n      pop\n      pop\n        /* \"carbon.sol\":11230:11537  for (uint256 j = i + 1; j < rewardPoints.length; j++) {... */\n      jump(tag_268)\n    tag_269:\n      pop\n        /* \"carbon.sol\":11210:11213  i++ */\n      dup1\n      dup1\n      0x01\n      add\n      swap2\n      pop\n      pop\n        /* \"carbon.sol\":11161:11548  for (uint256 i = 0; i < rewardPoints.length - 1; i++) {... */\n      jump(tag_264)\n    tag_265:\n      pop\n        /* \"carbon.sol\":11568:11573  users */\n      dup1\n        /* \"carbon.sol\":11575:11587  rewardPoints */\n      dup3\n        /* \"carbon.sol\":11560:11588  return (users, rewardPoints) */\n      swap4\n      pop\n      swap4\n      pop\n      pop\n      pop\n        /* \"carbon.sol\":10698:11596  function getLeaderboard() public view returns (address[] memory, uint256[] memory) {... */\n      swap1\n      swap2\n      jump\t// out\n        /* \"carbon.sol\":1730:1781  mapping(address => uint256) public userRewardPoints */\n    tag_101:\n      mstore(0x20, 0x0b)\n      dup1\n      0x00\n      mstore\n      keccak256(0x00, 0x40)\n      0x00\n      swap2\n      pop\n      swap1\n      pop\n      sload\n      dup2\n      jump\t// out\n        /* \"carbon.sol\":5769:7239  function purchaseCredits(uint256 _projectId, uint256 _credits) public payable {... */\n    tag_105:\n        /* \"carbon.sol\":5879:5891  projectCount */\n      sload(0x06)\n        /* \"carbon.sol\":5866:5876  _projectId */\n      dup3\n        /* \"carbon.sol\":5866:5891  _projectId < projectCount */\n      lt\n        /* \"carbon.sol\":5858:5914  require(_projectId < projectCount, \"Invalid project ID\") */\n      tag_295\n      jumpi\n      mload(0x40)\n      0x08c379a000000000000000000000000000000000000000000000000000000000\n      dup2\n      mstore\n      0x04\n      add\n      tag_296\n      swap1\n      tag_196\n      jump\t// in\n    tag_296:\n      mload(0x40)\n      dup1\n      swap2\n      sub\n      swap1\n      revert\n    tag_295:\n        /* \"carbon.sol\":5925:5948  Project storage project */\n      0x00\n        /* \"carbon.sol\":5951:5959  projects */\n      0x05\n        /* \"carbon.sol\":5951:5971  projects[_projectId] */\n      0x00\n        /* \"carbon.sol\":5960:5970  _projectId */\n      dup5\n        /* \"carbon.sol\":5951:5971  projects[_projectId] */\n      dup2\n      mstore\n      0x20\n      add\n      swap1\n      dup2\n      mstore\n      0x20\n      add\n      0x00\n      keccak256\n        /* \"carbon.sol\":5925:5971  Project storage project = projects[_projectId] */\n      swap1\n      pop\n        /* \"carbon.sol\":6001:6002  0 */\n      0x00\n        /* \"carbon.sol\":5990:5998  _credits */\n      dup3\n        /* \"carbon.sol\":5990:6002  _credits > 0 */\n      gt\n        /* \"carbon.sol\":5982:6042  require(_credits > 0, \"Credits should be greater than zero\") */\n      tag_297\n      jumpi\n      mload(0x40)\n      0x08c379a000000000000000000000000000000000000000000000000000000000\n      dup2\n      mstore\n      0x04\n      add\n      tag_298\n      swap1\n      tag_299\n      jump\t// in\n    tag_298:\n      mload(0x40)\n      dup1\n      swap2\n      sub\n      swap1\n      revert\n    tag_297:\n        /* \"carbon.sol\":6073:6080  project */\n      dup1\n        /* \"carbon.sol\":6073:6097  project.availableCredits */\n      0x03\n      add\n      sload\n        /* \"carbon.sol\":6061:6069  _credits */\n      dup3\n        /* \"carbon.sol\":6061:6097  _credits <= project.availableCredits */\n      gt\n      iszero\n        /* \"carbon.sol\":6053:6130  require(_credits <= project.availableCredits, \"Not enough available credits\") */\n      tag_300\n      jumpi\n      mload(0x40)\n      0x08c379a000000000000000000000000000000000000000000000000000000000\n      dup2\n      mstore\n      0x04\n      add\n      tag_301\n      swap1\n      tag_302\n      jump\t// in\n    tag_301:\n      mload(0x40)\n      dup1\n      swap2\n      sub\n      swap1\n      revert\n    tag_300:\n        /* \"carbon.sol\":6141:6159  uint256 totalPrice */\n      0x00\n        /* \"carbon.sol\":6173:6180  project */\n      dup2\n        /* \"carbon.sol\":6173:6195  project.pricePerCredit */\n      0x04\n      add\n      sload\n        /* \"carbon.sol\":6162:6170  _credits */\n      dup4\n        /* \"carbon.sol\":6162:6195  _credits * project.pricePerCredit */\n      tag_303\n      swap2\n      swap1\n      tag_304\n      jump\t// in\n    tag_303:\n        /* \"carbon.sol\":6141:6195  uint256 totalPrice = _credits * project.pricePerCredit */\n      swap1\n      pop\n        /* \"carbon.sol\":6227:6237  totalPrice */\n      dup1\n        /* \"carbon.sol\":6214:6223  msg.value */\n      callvalue\n        /* \"carbon.sol\":6214:6237  msg.value >= totalPrice */\n      lt\n      iszero\n        /* \"carbon.sol\":6206:6262  require(msg.value >= totalPrice, \"Insufficient payment\") */\n      tag_305\n      jumpi\n      mload(0x40)\n      0x08c379a000000000000000000000000000000000000000000000000000000000\n      dup2\n      mstore\n      0x04\n      add\n      tag_306\n      swap1\n      tag_307\n      jump\t// in\n    tag_306:\n      mload(0x40)\n      dup1\n      swap2\n      sub\n      swap1\n      revert\n    tag_305:\n        /* \"carbon.sol\":6275:6286  uint256 fee */\n      0x00\n        /* \"carbon.sol\":6320:6325  10000 */\n      0x2710\n        /* \"carbon.sol\":6303:6316  feePercentage */\n      sload(0x01)\n        /* \"carbon.sol\":6290:6300  totalPrice */\n      dup4\n        /* \"carbon.sol\":6290:6316  totalPrice * feePercentage */\n      tag_308\n      swap2\n      swap1\n      tag_304\n      jump\t// in\n    tag_308:\n        /* \"carbon.sol\":6289:6325  (totalPrice * feePercentage) / 10000 */\n      tag_309\n      swap2\n      swap1\n      tag_310\n      jump\t// in\n    tag_309:\n        /* \"carbon.sol\":6275:6325  uint256 fee = (totalPrice * feePercentage) / 10000 */\n      swap1\n      pop\n        /* \"carbon.sol\":6353:6375  uint256 paymentToOwner */\n      0x00\n        /* \"carbon.sol\":6391:6394  fee */\n      dup2\n        /* \"carbon.sol\":6378:6388  totalPrice */\n      dup4\n        /* \"carbon.sol\":6378:6394  totalPrice - fee */\n      tag_311\n      swap2\n      swap1\n      tag_220\n      jump\t// in\n    tag_311:\n        /* \"carbon.sol\":6353:6394  uint256 paymentToOwner = totalPrice - fee */\n      swap1\n      pop\n        /* \"carbon.sol\":6435:6443  _credits */\n      dup5\n        /* \"carbon.sol\":6407:6414  project */\n      dup5\n        /* \"carbon.sol\":6407:6431  project.availableCredits */\n      0x03\n      add\n      0x00\n        /* \"carbon.sol\":6407:6443  project.availableCredits -= _credits */\n      dup3\n      dup3\n      sload\n      tag_312\n      swap2\n      swap1\n      tag_220\n      jump\t// in\n    tag_312:\n      swap3\n      pop\n      pop\n      dup2\n      swap1\n      sstore\n      pop\n        /* \"carbon.sol\":6493:6501  _credits */\n      dup5\n        /* \"carbon.sol\":6454:6465  userCredits */\n      0x07\n        /* \"carbon.sol\":6454:6477  userCredits[msg.sender] */\n      0x00\n        /* \"carbon.sol\":6466:6476  msg.sender */\n      caller\n        /* \"carbon.sol\":6454:6477  userCredits[msg.sender] */\n      0xffffffffffffffffffffffffffffffffffffffff\n      and\n      0xffffffffffffffffffffffffffffffffffffffff\n      and\n      dup2\n      mstore\n      0x20\n      add\n      swap1\n      dup2\n      mstore\n      0x20\n      add\n      0x00\n      keccak256\n        /* \"carbon.sol\":6454:6489  userCredits[msg.sender][_projectId] */\n      0x00\n        /* \"carbon.sol\":6478:6488  _projectId */\n      dup9\n        /* \"carbon.sol\":6454:6489  userCredits[msg.sender][_projectId] */\n      dup2\n      mstore\n      0x20\n      add\n      swap1\n      dup2\n      mstore\n      0x20\n      add\n      0x00\n      keccak256\n      0x00\n        /* \"carbon.sol\":6454:6501  userCredits[msg.sender][_projectId] += _credits */\n      dup3\n      dup3\n      sload\n      tag_313\n      swap2\n      swap1\n      tag_272\n      jump\t// in\n    tag_313:\n      swap3\n      pop\n      pop\n      dup2\n      swap1\n      sstore\n      pop\n        /* \"carbon.sol\":6545:6575  Transaction memory transaction */\n      0x00\n        /* \"carbon.sol\":6578:6775  Transaction({... */\n      mload(0x40)\n      dup1\n      0xa0\n      add\n      0x40\n      mstore\n      dup1\n        /* \"carbon.sol\":6611:6621  msg.sender */\n      caller\n        /* \"carbon.sol\":6578:6775  Transaction({... */\n      0xffffffffffffffffffffffffffffffffffffffff\n      and\n      dup2\n      mstore\n      0x20\n      add\n        /* \"carbon.sol\":6647:6657  _projectId */\n      dup9\n        /* \"carbon.sol\":6578:6775  Transaction({... */\n      dup2\n      mstore\n      0x20\n      add\n        /* \"carbon.sol\":6681:6689  _credits */\n      dup8\n        /* \"carbon.sol\":6578:6775  Transaction({... */\n      dup2\n      mstore\n      0x20\n      add\n      mload(0x40)\n      dup1\n      0x40\n      add\n      0x40\n      mstore\n      dup1\n      0x08\n      dup2\n      mstore\n      0x20\n      add\n      0x7075726368617365000000000000000000000000000000000000000000000000\n      dup2\n      mstore\n      pop\n      dup2\n      mstore\n      0x20\n      add\n        /* \"carbon.sol\":6748:6763  block.timestamp */\n      timestamp\n        /* \"carbon.sol\":6578:6775  Transaction({... */\n      dup2\n      mstore\n      pop\n        /* \"carbon.sol\":6545:6775  Transaction memory transaction = Transaction({... */\n      swap1\n      pop\n        /* \"carbon.sol\":6786:6802  userTransactions */\n      0x09\n        /* \"carbon.sol\":6786:6814  userTransactions[msg.sender] */\n      0x00\n        /* \"carbon.sol\":6803:6813  msg.sender */\n      caller\n        /* \"carbon.sol\":6786:6814  userTransactions[msg.sender] */\n      0xffffffffffffffffffffffffffffffffffffffff\n      and\n      0xffffffffffffffffffffffffffffffffffffffff\n      and\n      dup2\n      mstore\n      0x20\n      add\n      swap1\n      dup2\n      mstore\n      0x20\n      add\n      0x00\n      keccak256\n        /* \"carbon.sol\":6820:6831  transaction */\n      dup2\n        /* \"carbon.sol\":6786:6832  userTransactions[msg.sender].push(transaction) */\n      swap1\n      dup1\n      0x01\n      dup2\n      sload\n      add\n      dup1\n      dup3\n      sstore\n      dup1\n      swap2\n      pop\n      pop\n      0x01\n      swap1\n      sub\n      swap1\n      0x00\n      mstore\n      keccak256(0x00, 0x20)\n      swap1\n      0x05\n      mul\n      add\n      0x00\n      swap1\n      swap2\n      swap1\n      swap2\n      swap1\n      swap2\n      pop\n      0x00\n      dup3\n      add\n      mload\n      dup2\n      0x00\n      add\n      exp(0x0100, 0x00)\n      dup2\n      sload\n      dup2\n      0xffffffffffffffffffffffffffffffffffffffff\n      mul\n      not\n      and\n      swap1\n      dup4\n      0xffffffffffffffffffffffffffffffffffffffff\n      and\n      mul\n      or\n      swap1\n      sstore\n      pop\n      0x20\n      dup3\n      add\n      mload\n      dup2\n      0x01\n      add\n      sstore\n      0x40\n      dup3\n      add\n      mload\n      dup2\n      0x02\n      add\n      sstore\n      0x60\n      dup3\n      add\n      mload\n      dup2\n      0x03\n      add\n      swap1\n      dup2\n      tag_315\n      swap2\n      swap1\n      tag_210\n      jump\t// in\n    tag_315:\n      pop\n      0x80\n      dup3\n      add\n      mload\n      dup2\n      0x04\n      add\n      sstore\n      pop\n      pop\n        /* \"carbon.sol\":6843:6858  allTransactions */\n      0x0a\n        /* \"carbon.sol\":6864:6875  transaction */\n      dup2\n        /* \"carbon.sol\":6843:6876  allTransactions.push(transaction) */\n      swap1\n      dup1\n      0x01\n      dup2\n      sload\n      add\n      dup1\n      dup3\n      sstore\n      dup1\n      swap2\n      pop\n      pop\n      0x01\n      swap1\n      sub\n      swap1\n      0x00\n      mstore\n      keccak256(0x00, 0x20)\n      swap1\n      0x05\n      mul\n      add\n      0x00\n      swap1\n      swap2\n      swap1\n      swap2\n      swap1\n      swap2\n      pop\n      0x00\n      dup3\n      add\n      mload\n      dup2\n      0x00\n      add\n      exp(0x0100, 0x00)\n      dup2\n      sload\n      dup2\n      0xffffffffffffffffffffffffffffffffffffffff\n      mul\n      not\n      and\n      swap1\n      dup4\n      0xffffffffffffffffffffffffffffffffffffffff\n      and\n      mul\n      or\n      swap1\n      sstore\n      pop\n      0x20\n      dup3\n      add\n      mload\n      dup2\n      0x01\n      add\n      sstore\n      0x40\n      dup3\n      add\n      mload\n      dup2\n      0x02\n      add\n      sstore\n      0x60\n      dup3\n      add\n      mload\n      dup2\n      0x03\n      add\n      swap1\n      dup2\n      tag_317\n      swap2\n      swap1\n      tag_210\n      jump\t// in\n    tag_317:\n      pop\n      0x80\n      dup3\n      add\n      mload\n      dup2\n      0x04\n      add\n      sstore\n      pop\n      pop\n        /* \"carbon.sol\":6921:6973  _updateUserRewards(msg.sender, _credits, \"purchase\") */\n      tag_318\n        /* \"carbon.sol\":6940:6950  msg.sender */\n      caller\n        /* \"carbon.sol\":6952:6960  _credits */\n      dup8\n        /* \"carbon.sol\":6921:6973  _updateUserRewards(msg.sender, _credits, \"purchase\") */\n      mload(0x40)\n      dup1\n      0x40\n      add\n      0x40\n      mstore\n      dup1\n      0x08\n      dup2\n      mstore\n      0x20\n      add\n      0x7075726368617365000000000000000000000000000000000000000000000000\n      dup2\n      mstore\n      pop\n        /* \"carbon.sol\":6921:6939  _updateUserRewards */\n      tag_226\n        /* \"carbon.sol\":6921:6973  _updateUserRewards(msg.sender, _credits, \"purchase\") */\n      jump\t// in\n    tag_318:\n        /* \"carbon.sol\":7040:7047  project */\n      dup5\n        /* \"carbon.sol\":7040:7053  project.owner */\n      0x00\n      add\n      0x00\n      swap1\n      sload\n      swap1\n      0x0100\n      exp\n      swap1\n      div\n      0xffffffffffffffffffffffffffffffffffffffff\n      and\n        /* \"carbon.sol\":7032:7063  payable(project.owner).transfer */\n      0xffffffffffffffffffffffffffffffffffffffff\n      and\n        /* \"carbon.sol\":7032:7079  payable(project.owner).transfer(paymentToOwner) */\n      0x08fc\n        /* \"carbon.sol\":7064:7078  paymentToOwner */\n      dup4\n        /* \"carbon.sol\":7032:7079  payable(project.owner).transfer(paymentToOwner) */\n      swap1\n      dup2\n      iszero\n      mul\n      swap1\n      mload(0x40)\n      0x00\n      mload(0x40)\n      dup1\n      dup4\n      sub\n      dup2\n      dup6\n      dup9\n      dup9\n      call\n      swap4\n      pop\n      pop\n      pop\n      pop\n      iszero\n      dup1\n      iszero\n      tag_320\n      jumpi\n      returndatasize\n      0x00\n      dup1\n      returndatacopy\n      revert(0x00, returndatasize)\n    tag_320:\n      pop\n        /* \"carbon.sol\":7143:7148  owner */\n      0x00\n      dup1\n      sload\n      swap1\n      0x0100\n      exp\n      swap1\n      div\n      0xffffffffffffffffffffffffffffffffffffffff\n      and\n        /* \"carbon.sol\":7135:7158  payable(owner).transfer */\n      0xffffffffffffffffffffffffffffffffffffffff\n      and\n        /* \"carbon.sol\":7135:7163  payable(owner).transfer(fee) */\n      0x08fc\n        /* \"carbon.sol\":7159:7162  fee */\n      dup5\n        /* \"carbon.sol\":7135:7163  payable(owner).transfer(fee) */\n      swap1\n      dup2\n      iszero\n      mul\n      swap1\n      mload(0x40)\n      0x00\n      mload(0x40)\n      dup1\n      dup4\n      sub\n      dup2\n      dup6\n      dup9\n      dup9\n      call\n      swap4\n      pop\n      pop\n      pop\n      pop\n      iszero\n      dup1\n      iszero\n      tag_322\n      jumpi\n      returndatasize\n      0x00\n      dup1\n      returndatacopy\n      revert(0x00, returndatasize)\n    tag_322:\n      pop\n        /* \"carbon.sol\":7198:7208  msg.sender */\n      caller\n        /* \"carbon.sol\":7181:7231  CreditsPurchased(msg.sender, _projectId, _credits) */\n      0xffffffffffffffffffffffffffffffffffffffff\n      and\n      0xfb82fc1c5adf84899709e87563b69dd5f4ac33320f1c60dbca744bec717eb90f\n        /* \"carbon.sol\":7210:7220  _projectId */\n      dup9\n        /* \"carbon.sol\":7222:7230  _credits */\n      dup9\n        /* \"carbon.sol\":7181:7231  CreditsPurchased(msg.sender, _projectId, _credits) */\n      mload(0x40)\n      tag_323\n      swap3\n      swap2\n      swap1\n      tag_228\n      jump\t// in\n    tag_323:\n      mload(0x40)\n      dup1\n      swap2\n      sub\n      swap1\n      log2\n        /* \"carbon.sol\":5847:7239  {... */\n      pop\n      pop\n      pop\n      pop\n      pop\n        /* \"carbon.sol\":5769:7239  function purchaseCredits(uint256 _projectId, uint256 _credits) public payable {... */\n      pop\n      pop\n      jump\t// out\n        /* \"carbon.sol\":1867:1914  uint256 public carbonContributorThreshold = 500 */\n    tag_108:\n      sload(0x0d)\n      dup2\n      jump\t// out\n        /* \"carbon.sol\":100:120  address public owner */\n    tag_112:\n      0x00\n      dup1\n      sload\n      swap1\n      0x0100\n      exp\n      swap1\n      div\n      0xffffffffffffffffffffffffffffffffffffffff\n      and\n      dup2\n      jump\t// out\n        /* \"carbon.sol\":127:161  uint256 public feePercentage = 100 */\n    tag_117:\n      sload(0x01)\n      dup2\n      jump\t// out\n        /* \"carbon.sol\":8189:9326  function transferCredits(address _to, uint256 _projectId, uint256 _credits) public payable {... */\n    tag_122:\n        /* \"carbon.sol\":8312:8324  projectCount */\n      sload(0x06)\n        /* \"carbon.sol\":8299:8309  _projectId */\n      dup3\n        /* \"carbon.sol\":8299:8324  _projectId < projectCount */\n      lt\n        /* \"carbon.sol\":8291:8347  require(_projectId < projectCount, \"Invalid project ID\") */\n      tag_325\n      jumpi\n      mload(0x40)\n      0x08c379a000000000000000000000000000000000000000000000000000000000\n      dup2\n      mstore\n      0x04\n      add\n      tag_326\n      swap1\n      tag_196\n      jump\t// in\n    tag_326:\n      mload(0x40)\n      dup1\n      swap2\n      sub\n      swap1\n      revert\n    tag_325:\n        /* \"carbon.sol\":8405:8413  _credits */\n      dup1\n        /* \"carbon.sol\":8366:8377  userCredits */\n      0x07\n        /* \"carbon.sol\":8366:8389  userCredits[msg.sender] */\n      0x00\n        /* \"carbon.sol\":8378:8388  msg.sender */\n      caller\n        /* \"carbon.sol\":8366:8389  userCredits[msg.sender] */\n      0xffffffffffffffffffffffffffffffffffffffff\n      and\n      0xffffffffffffffffffffffffffffffffffffffff\n      and\n      dup2\n      mstore\n      0x20\n      add\n      swap1\n      dup2\n      mstore\n      0x20\n      add\n      0x00\n      keccak256\n        /* \"carbon.sol\":8366:8401  userCredits[msg.sender][_projectId] */\n      0x00\n        /* \"carbon.sol\":8390:8400  _projectId */\n      dup5\n        /* \"carbon.sol\":8366:8401  userCredits[msg.sender][_projectId] */\n      dup2\n      mstore\n      0x20\n      add\n      swap1\n      dup2\n      mstore\n      0x20\n      add\n      0x00\n      keccak256\n      sload\n        /* \"carbon.sol\":8366:8413  userCredits[msg.sender][_projectId] >= _credits */\n      lt\n      iszero\n        /* \"carbon.sol\":8358:8450  require(userCredits[msg.sender][_projectId] >= _credits, \"Insufficient credits to transfer\") */\n      tag_327\n      jumpi\n      mload(0x40)\n      0x08c379a000000000000000000000000000000000000000000000000000000000\n      dup2\n      mstore\n      0x04\n      add\n      tag_328\n      swap1\n      tag_329\n      jump\t// in\n    tag_328:\n      mload(0x40)\n      dup1\n      swap2\n      sub\n      swap1\n      revert\n    tag_327:\n        /* \"carbon.sol\":8482:8493  transferFee */\n      sload(0x04)\n        /* \"carbon.sol\":8469:8478  msg.value */\n      callvalue\n        /* \"carbon.sol\":8469:8493  msg.value >= transferFee */\n      lt\n      iszero\n        /* \"carbon.sol\":8461:8531  require(msg.value >= transferFee, \"Insufficient fee for the transfer\") */\n      tag_330\n      jumpi\n      mload(0x40)\n      0x08c379a000000000000000000000000000000000000000000000000000000000\n      dup2\n      mstore\n      0x04\n      add\n      tag_331\n      swap1\n      tag_332\n      jump\t// in\n    tag_331:\n      mload(0x40)\n      dup1\n      swap2\n      sub\n      swap1\n      revert\n    tag_330:\n        /* \"carbon.sol\":8596:8601  owner */\n      0x00\n      dup1\n      sload\n      swap1\n      0x0100\n      exp\n      swap1\n      div\n      0xffffffffffffffffffffffffffffffffffffffff\n      and\n        /* \"carbon.sol\":8588:8611  payable(owner).transfer */\n      0xffffffffffffffffffffffffffffffffffffffff\n      and\n        /* \"carbon.sol\":8588:8624  payable(owner).transfer(transferFee) */\n      0x08fc\n        /* \"carbon.sol\":8612:8623  transferFee */\n      sload(0x04)\n        /* \"carbon.sol\":8588:8624  payable(owner).transfer(transferFee) */\n      swap1\n      dup2\n      iszero\n      mul\n      swap1\n      mload(0x40)\n      0x00\n      mload(0x40)\n      dup1\n      dup4\n      sub\n      dup2\n      dup6\n      dup9\n      dup9\n      call\n      swap4\n      pop\n      pop\n      pop\n      pop\n      iszero\n      dup1\n      iszero\n      tag_334\n      jumpi\n      returndatasize\n      0x00\n      dup1\n      returndatacopy\n      revert(0x00, returndatasize)\n    tag_334:\n      pop\n        /* \"carbon.sol\":8712:8720  _credits */\n      dup1\n        /* \"carbon.sol\":8673:8684  userCredits */\n      0x07\n        /* \"carbon.sol\":8673:8696  userCredits[msg.sender] */\n      0x00\n        /* \"carbon.sol\":8685:8695  msg.sender */\n      caller\n        /* \"carbon.sol\":8673:8696  userCredits[msg.sender] */\n      0xffffffffffffffffffffffffffffffffffffffff\n      and\n      0xffffffffffffffffffffffffffffffffffffffff\n      and\n      dup2\n      mstore\n      0x20\n      add\n      swap1\n      dup2\n      mstore\n      0x20\n      add\n      0x00\n      keccak256\n        /* \"carbon.sol\":8673:8708  userCredits[msg.sender][_projectId] */\n      0x00\n        /* \"carbon.sol\":8697:8707  _projectId */\n      dup5\n        /* \"carbon.sol\":8673:8708  userCredits[msg.sender][_projectId] */\n      dup2\n      mstore\n      0x20\n      add\n      swap1\n      dup2\n      mstore\n      0x20\n      add\n      0x00\n      keccak256\n      0x00\n        /* \"carbon.sol\":8673:8720  userCredits[msg.sender][_projectId] -= _credits */\n      dup3\n      dup3\n      sload\n      tag_335\n      swap2\n      swap1\n      tag_220\n      jump\t// in\n    tag_335:\n      swap3\n      pop\n      pop\n      dup2\n      swap1\n      sstore\n      pop\n        /* \"carbon.sol\":8763:8771  _credits */\n      dup1\n        /* \"carbon.sol\":8731:8742  userCredits */\n      0x07\n        /* \"carbon.sol\":8731:8747  userCredits[_to] */\n      0x00\n        /* \"carbon.sol\":8743:8746  _to */\n      dup6\n        /* \"carbon.sol\":8731:8747  userCredits[_to] */\n      0xffffffffffffffffffffffffffffffffffffffff\n      and\n      0xffffffffffffffffffffffffffffffffffffffff\n      and\n      dup2\n      mstore\n      0x20\n      add\n      swap1\n      dup2\n      mstore\n      0x20\n      add\n      0x00\n      keccak256\n        /* \"carbon.sol\":8731:8759  userCredits[_to][_projectId] */\n      0x00\n        /* \"carbon.sol\":8748:8758  _projectId */\n      dup5\n        /* \"carbon.sol\":8731:8759  userCredits[_to][_projectId] */\n      dup2\n      mstore\n      0x20\n      add\n      swap1\n      dup2\n      mstore\n      0x20\n      add\n      0x00\n      keccak256\n      0x00\n        /* \"carbon.sol\":8731:8771  userCredits[_to][_projectId] += _credits */\n      dup3\n      dup3\n      sload\n      tag_336\n      swap2\n      swap1\n      tag_272\n      jump\t// in\n    tag_336:\n      swap3\n      pop\n      pop\n      dup2\n      swap1\n      sstore\n      pop\n        /* \"carbon.sol\":8815:8845  Transaction memory transaction */\n      0x00\n        /* \"carbon.sol\":8848:9045  Transaction({... */\n      mload(0x40)\n      dup1\n      0xa0\n      add\n      0x40\n      mstore\n      dup1\n        /* \"carbon.sol\":8881:8891  msg.sender */\n      caller\n        /* \"carbon.sol\":8848:9045  Transaction({... */\n      0xffffffffffffffffffffffffffffffffffffffff\n      and\n      dup2\n      mstore\n      0x20\n      add\n        /* \"carbon.sol\":8917:8927  _projectId */\n      dup5\n        /* \"carbon.sol\":8848:9045  Transaction({... */\n      dup2\n      mstore\n      0x20\n      add\n        /* \"carbon.sol\":8951:8959  _credits */\n      dup4\n        /* \"carbon.sol\":8848:9045  Transaction({... */\n      dup2\n      mstore\n      0x20\n      add\n      mload(0x40)\n      dup1\n      0x40\n      add\n      0x40\n      mstore\n      dup1\n      0x08\n      dup2\n      mstore\n      0x20\n      add\n      0x7472616e73666572000000000000000000000000000000000000000000000000\n      dup2\n      mstore\n      pop\n      dup2\n      mstore\n      0x20\n      add\n        /* \"carbon.sol\":9018:9033  block.timestamp */\n      timestamp\n        /* \"carbon.sol\":8848:9045  Transaction({... */\n      dup2\n      mstore\n      pop\n        /* \"carbon.sol\":8815:9045  Transaction memory transaction = Transaction({... */\n      swap1\n      pop\n        /* \"carbon.sol\":9056:9072  userTransactions */\n      0x09\n        /* \"carbon.sol\":9056:9084  userTransactions[msg.sender] */\n      0x00\n        /* \"carbon.sol\":9073:9083  msg.sender */\n      caller\n        /* \"carbon.sol\":9056:9084  userTransactions[msg.sender] */\n      0xffffffffffffffffffffffffffffffffffffffff\n      and\n      0xffffffffffffffffffffffffffffffffffffffff\n      and\n      dup2\n      mstore\n      0x20\n      add\n      swap1\n      dup2\n      mstore\n      0x20\n      add\n      0x00\n      keccak256\n        /* \"carbon.sol\":9090:9101  transaction */\n      dup2\n        /* \"carbon.sol\":9056:9102  userTransactions[msg.sender].push(transaction) */\n      swap1\n      dup1\n      0x01\n      dup2\n      sload\n      add\n      dup1\n      dup3\n      sstore\n      dup1\n      swap2\n      pop\n      pop\n      0x01\n      swap1\n      sub\n      swap1\n      0x00\n      mstore\n      keccak256(0x00, 0x20)\n      swap1\n      0x05\n      mul\n      add\n      0x00\n      swap1\n      swap2\n      swap1\n      swap2\n      swap1\n      swap2\n      pop\n      0x00\n      dup3\n      add\n      mload\n      dup2\n      0x00\n      add\n      exp(0x0100, 0x00)\n      dup2\n      sload\n      dup2\n      0xffffffffffffffffffffffffffffffffffffffff\n      mul\n      not\n      and\n      swap1\n      dup4\n      0xffffffffffffffffffffffffffffffffffffffff\n      and\n      mul\n      or\n      swap1\n      sstore\n      pop\n      0x20\n      dup3\n      add\n      mload\n      dup2\n      0x01\n      add\n      sstore\n      0x40\n      dup3\n      add\n      mload\n      dup2\n      0x02\n      add\n      sstore\n      0x60\n      dup3\n      add\n      mload\n      dup2\n      0x03\n      add\n      swap1\n      dup2\n      tag_338\n      swap2\n      swap1\n      tag_210\n      jump\t// in\n    tag_338:\n      pop\n      0x80\n      dup3\n      add\n      mload\n      dup2\n      0x04\n      add\n      sstore\n      pop\n      pop\n        /* \"carbon.sol\":9113:9128  allTransactions */\n      0x0a\n        /* \"carbon.sol\":9134:9145  transaction */\n      dup2\n        /* \"carbon.sol\":9113:9146  allTransactions.push(transaction) */\n      swap1\n      dup1\n      0x01\n      dup2\n      sload\n      add\n      dup1\n      dup3\n      sstore\n      dup1\n      swap2\n      pop\n      pop\n      0x01\n      swap1\n      sub\n      swap1\n      0x00\n      mstore\n      keccak256(0x00, 0x20)\n      swap1\n      0x05\n      mul\n      add\n      0x00\n      swap1\n      swap2\n      swap1\n      swap2\n      swap1\n      swap2\n      pop\n      0x00\n      dup3\n      add\n      mload\n      dup2\n      0x00\n      add\n      exp(0x0100, 0x00)\n      dup2\n      sload\n      dup2\n      0xffffffffffffffffffffffffffffffffffffffff\n      mul\n      not\n      and\n      swap1\n      dup4\n      0xffffffffffffffffffffffffffffffffffffffff\n      and\n      mul\n      or\n      swap1\n      sstore\n      pop\n      0x20\n      dup3\n      add\n      mload\n      dup2\n      0x01\n      add\n      sstore\n      0x40\n      dup3\n      add\n      mload\n      dup2\n      0x02\n      add\n      sstore\n      0x60\n      dup3\n      add\n      mload\n      dup2\n      0x03\n      add\n      swap1\n      dup2\n      tag_340\n      swap2\n      swap1\n      tag_210\n      jump\t// in\n    tag_340:\n      pop\n      0x80\n      dup3\n      add\n      mload\n      dup2\n      0x04\n      add\n      sstore\n      pop\n      pop\n        /* \"carbon.sol\":9191:9243  _updateUserRewards(msg.sender, _credits, \"transfer\") */\n      tag_341\n        /* \"carbon.sol\":9210:9220  msg.sender */\n      caller\n        /* \"carbon.sol\":9222:9230  _credits */\n      dup4\n        /* \"carbon.sol\":9191:9243  _updateUserRewards(msg.sender, _credits, \"transfer\") */\n      mload(0x40)\n      dup1\n      0x40\n      add\n      0x40\n      mstore\n      dup1\n      0x08\n      dup2\n      mstore\n      0x20\n      add\n      0x7472616e73666572000000000000000000000000000000000000000000000000\n      dup2\n      mstore\n      pop\n        /* \"carbon.sol\":9191:9209  _updateUserRewards */\n      tag_226\n        /* \"carbon.sol\":9191:9243  _updateUserRewards(msg.sender, _credits, \"transfer\") */\n      jump\t// in\n    tag_341:\n        /* \"carbon.sol\":9292:9295  _to */\n      dup4\n        /* \"carbon.sol\":9261:9318  CreditsTransferred(msg.sender, _to, _projectId, _credits) */\n      0xffffffffffffffffffffffffffffffffffffffff\n      and\n        /* \"carbon.sol\":9280:9290  msg.sender */\n      caller\n        /* \"carbon.sol\":9261:9318  CreditsTransferred(msg.sender, _to, _projectId, _credits) */\n      0xffffffffffffffffffffffffffffffffffffffff\n      and\n      0xfc155943a4837f932d2628406ce5e8f3f42dd6ab031108a2fcec0c68d94005ee\n        /* \"carbon.sol\":9297:9307  _projectId */\n      dup6\n        /* \"carbon.sol\":9309:9317  _credits */\n      dup6\n        /* \"carbon.sol\":9261:9318  CreditsTransferred(msg.sender, _to, _projectId, _credits) */\n      mload(0x40)\n      tag_342\n      swap3\n      swap2\n      swap1\n      tag_228\n      jump\t// in\n    tag_342:\n      mload(0x40)\n      dup1\n      swap2\n      sub\n      swap1\n      log3\n        /* \"carbon.sol\":8280:9326  {... */\n      pop\n        /* \"carbon.sol\":8189:9326  function transferCredits(address _to, uint256 _projectId, uint256 _credits) public payable {... */\n      pop\n      pop\n      pop\n      jump\t// out\n        /* \"carbon.sol\":3394:3596  function toggleNonOwnerRegistration(bool _allow) public {... */\n    tag_127:\n        /* \"carbon.sol\":3483:3488  owner */\n      0x00\n      dup1\n      sload\n      swap1\n      0x0100\n      exp\n      swap1\n      div\n      0xffffffffffffffffffffffffffffffffffffffff\n      and\n        /* \"carbon.sol\":3469:3488  msg.sender == owner */\n      0xffffffffffffffffffffffffffffffffffffffff\n      and\n        /* \"carbon.sol\":3469:3479  msg.sender */\n      caller\n        /* \"carbon.sol\":3469:3488  msg.sender == owner */\n      0xffffffffffffffffffffffffffffffffffffffff\n      and\n      eq\n        /* \"carbon.sol\":3461:3543  require(msg.sender == owner, \"Only the owner can toggle registration permissions\") */\n      tag_344\n      jumpi\n      mload(0x40)\n      0x08c379a000000000000000000000000000000000000000000000000000000000\n      dup2\n      mstore\n      0x04\n      add\n      tag_345\n      swap1\n      tag_346\n      jump\t// in\n    tag_345:\n      mload(0x40)\n      dup1\n      swap2\n      sub\n      swap1\n      revert\n    tag_344:\n        /* \"carbon.sol\":3582:3588  _allow */\n      dup1\n        /* \"carbon.sol\":3554:3579  allowNonOwnerRegistration */\n      0x02\n      0x00\n        /* \"carbon.sol\":3554:3588  allowNonOwnerRegistration = _allow */\n      0x0100\n      exp\n      dup2\n      sload\n      dup2\n      0xff\n      mul\n      not\n      and\n      swap1\n      dup4\n      iszero\n      iszero\n      mul\n      or\n      swap1\n      sstore\n      pop\n        /* \"carbon.sol\":3394:3596  function toggleNonOwnerRegistration(bool _allow) public {... */\n      pop\n      jump\t// out\n        /* \"carbon.sol\":443:479  uint256 public transferFee = 2 ether */\n    tag_130:\n      sload(0x04)\n      dup2\n      jump\t// out\n        /* \"carbon.sol\":1519:1576  mapping(address => Transaction[]) public userTransactions */\n    tag_135:\n      mstore(0x20, 0x09)\n      dup2\n      0x00\n      mstore\n      keccak256(0x00, 0x40)\n      dup2\n      dup2\n      sload\n      dup2\n      lt\n      tag_347\n      jumpi\n      0x00\n      dup1\n      revert\n    tag_347:\n      swap1\n      0x00\n      mstore\n      keccak256(0x00, 0x20)\n      swap1\n      0x05\n      mul\n      add\n      0x00\n      swap2\n      pop\n      swap2\n      pop\n      pop\n      dup1\n      0x00\n      add\n      0x00\n      swap1\n      sload\n      swap1\n      0x0100\n      exp\n      swap1\n      div\n      0xffffffffffffffffffffffffffffffffffffffff\n      and\n      swap1\n      dup1\n      0x01\n      add\n      sload\n      swap1\n      dup1\n      0x02\n      add\n      sload\n      swap1\n      dup1\n      0x03\n      add\n      dup1\n      sload\n      tag_349\n      swap1\n      tag_162\n      jump\t// in\n    tag_349:\n      dup1\n      0x1f\n      add\n      0x20\n      dup1\n      swap2\n      div\n      mul\n      0x20\n      add\n      mload(0x40)\n      swap1\n      dup2\n      add\n      0x40\n      mstore\n      dup1\n      swap3\n      swap2\n      swap1\n      dup2\n      dup2\n      mstore\n      0x20\n      add\n      dup3\n      dup1\n      sload\n      tag_350\n      swap1\n      tag_162\n      jump\t// in\n    tag_350:\n      dup1\n      iszero\n      tag_351\n      jumpi\n      dup1\n      0x1f\n      lt\n      tag_352\n      jumpi\n      0x0100\n      dup1\n      dup4\n      sload\n      div\n      mul\n      dup4\n      mstore\n      swap2\n      0x20\n      add\n      swap2\n      jump(tag_351)\n    tag_352:\n      dup3\n      add\n      swap2\n      swap1\n      0x00\n      mstore\n      keccak256(0x00, 0x20)\n      swap1\n    tag_353:\n      dup2\n      sload\n      dup2\n      mstore\n      swap1\n      0x01\n      add\n      swap1\n      0x20\n      add\n      dup1\n      dup4\n      gt\n      tag_353\n      jumpi\n      dup3\n      swap1\n      sub\n      0x1f\n      and\n      dup3\n      add\n      swap2\n    tag_351:\n      pop\n      pop\n      pop\n      pop\n      pop\n      swap1\n      dup1\n      0x04\n      add\n      sload\n      swap1\n      pop\n      dup6\n      jump\t// out\n        /* \"carbon.sol\":342:380  uint256 public minVotesForProposal = 1 */\n    tag_140:\n      sload(0x03)\n      dup2\n      jump\t// out\n        /* \"carbon.sol\":1625:1661  Transaction[] public allTransactions */\n    tag_145:\n      0x0a\n      dup2\n      dup2\n      sload\n      dup2\n      lt\n      tag_354\n      jumpi\n      0x00\n      dup1\n      revert\n    tag_354:\n      swap1\n      0x00\n      mstore\n      keccak256(0x00, 0x20)\n      swap1\n      0x05\n      mul\n      add\n      0x00\n      swap2\n      pop\n      swap1\n      pop\n      dup1\n      0x00\n      add\n      0x00\n      swap1\n      sload\n      swap1\n      0x0100\n      exp\n      swap1\n      div\n      0xffffffffffffffffffffffffffffffffffffffff\n      and\n      swap1\n      dup1\n      0x01\n      add\n      sload\n      swap1\n      dup1\n      0x02\n      add\n      sload\n      swap1\n      dup1\n      0x03\n      add\n      dup1\n      sload\n      tag_356\n      swap1\n      tag_162\n      jump\t// in\n    tag_356:\n      dup1\n      0x1f\n      add\n      0x20\n      dup1\n      swap2\n      div\n      mul\n      0x20\n      add\n      mload(0x40)\n      swap1\n      dup2\n      add\n      0x40\n      mstore\n      dup1\n      swap3\n      swap2\n      swap1\n      dup2\n      dup2\n      mstore\n      0x20\n      add\n      dup3\n      dup1\n      sload\n      tag_357\n      swap1\n      tag_162\n      jump\t// in\n    tag_357:\n      dup1\n      iszero\n      tag_358\n      jumpi\n      dup1\n      0x1f\n      lt\n      tag_359\n      jumpi\n      0x0100\n      dup1\n      dup4\n      sload\n      div\n      mul\n      dup4\n      mstore\n      swap2\n      0x20\n      add\n      swap2\n      jump(tag_358)\n    tag_359:\n      dup3\n      add\n      swap2\n      swap1\n      0x00\n      mstore\n      keccak256(0x00, 0x20)\n      swap1\n    tag_360:\n      dup2\n      sload\n      dup2\n      mstore\n      swap1\n      0x01\n      add\n      swap1\n      0x20\n      add\n      dup1\n      dup4\n      gt\n      tag_360\n      jumpi\n      dup3\n      swap1\n      sub\n      0x1f\n      and\n      dup3\n      add\n      swap2\n    tag_358:\n      pop\n      pop\n      pop\n      pop\n      pop\n      swap1\n      dup1\n      0x04\n      add\n      sload\n      swap1\n      pop\n      dup6\n      jump\t// out\n        /* \"carbon.sol\":3909:4801  function registerProject(string memory _name, uint256 _totalCredits, uint256 _pricePerCredit) public {... */\n    tag_151:\n        /* \"carbon.sol\":4057:4062  owner */\n      0x00\n      dup1\n      sload\n      swap1\n      0x0100\n      exp\n      swap1\n      div\n      0xffffffffffffffffffffffffffffffffffffffff\n      and\n        /* \"carbon.sol\":4043:4062  msg.sender == owner */\n      0xffffffffffffffffffffffffffffffffffffffff\n      and\n        /* \"carbon.sol\":4043:4053  msg.sender */\n      caller\n        /* \"carbon.sol\":4043:4062  msg.sender == owner */\n      0xffffffffffffffffffffffffffffffffffffffff\n      and\n      eq\n        /* \"carbon.sol\":4043:4091  msg.sender == owner || allowNonOwnerRegistration */\n      dup1\n      tag_362\n      jumpi\n      pop\n        /* \"carbon.sol\":4066:4091  allowNonOwnerRegistration */\n      0x02\n      0x00\n      swap1\n      sload\n      swap1\n      0x0100\n      exp\n      swap1\n      div\n      0xff\n      and\n        /* \"carbon.sol\":4043:4091  msg.sender == owner || allowNonOwnerRegistration */\n    tag_362:\n        /* \"carbon.sol\":4021:4186  require(... */\n      tag_363\n      jumpi\n      mload(0x40)\n      0x08c379a000000000000000000000000000000000000000000000000000000000\n      dup2\n      mstore\n      0x04\n      add\n      tag_364\n      swap1\n      tag_365\n      jump\t// in\n    tag_364:\n      mload(0x40)\n      dup1\n      swap2\n      sub\n      swap1\n      revert\n    tag_363:\n        /* \"carbon.sol\":4227:4228  0 */\n      0x00\n        /* \"carbon.sol\":4211:4216  _name */\n      dup4\n        /* \"carbon.sol\":4205:4224  bytes(_name).length */\n      mload\n        /* \"carbon.sol\":4205:4228  bytes(_name).length > 0 */\n      gt\n        /* \"carbon.sol\":4197:4261  require(bytes(_name).length > 0, \"Project name cannot be empty\") */\n      tag_366\n      jumpi\n      mload(0x40)\n      0x08c379a000000000000000000000000000000000000000000000000000000000\n      dup2\n      mstore\n      0x04\n      add\n      tag_367\n      swap1\n      tag_202\n      jump\t// in\n    tag_367:\n      mload(0x40)\n      dup1\n      swap2\n      sub\n      swap1\n      revert\n    tag_366:\n        /* \"carbon.sol\":4296:4297  0 */\n      0x00\n        /* \"carbon.sol\":4280:4293  _totalCredits */\n      dup3\n        /* \"carbon.sol\":4280:4297  _totalCredits > 0 */\n      gt\n        /* \"carbon.sol\":4272:4343  require(_totalCredits > 0, \"Total credits should be greater than zero\") */\n      tag_368\n      jumpi\n      mload(0x40)\n      0x08c379a000000000000000000000000000000000000000000000000000000000\n      dup2\n      mstore\n      0x04\n      add\n      tag_369\n      swap1\n      tag_205\n      jump\t// in\n    tag_369:\n      mload(0x40)\n      dup1\n      swap2\n      sub\n      swap1\n      revert\n    tag_368:\n        /* \"carbon.sol\":4380:4381  0 */\n      0x00\n        /* \"carbon.sol\":4362:4377  _pricePerCredit */\n      dup2\n        /* \"carbon.sol\":4362:4381  _pricePerCredit > 0 */\n      gt\n        /* \"carbon.sol\":4354:4430  require(_pricePerCredit > 0, \"Price per credit should be greater than zero\") */\n      tag_370\n      jumpi\n      mload(0x40)\n      0x08c379a000000000000000000000000000000000000000000000000000000000\n      dup2\n      mstore\n      0x04\n      add\n      tag_371\n      swap1\n      tag_208\n      jump\t// in\n    tag_371:\n      mload(0x40)\n      dup1\n      swap2\n      sub\n      swap1\n      revert\n    tag_370:\n        /* \"carbon.sol\":4468:4680  Project({... */\n      mload(0x40)\n      dup1\n      0xa0\n      add\n      0x40\n      mstore\n      dup1\n        /* \"carbon.sol\":4498:4508  msg.sender */\n      caller\n        /* \"carbon.sol\":4468:4680  Project({... */\n      0xffffffffffffffffffffffffffffffffffffffff\n      and\n      dup2\n      mstore\n      0x20\n      add\n        /* \"carbon.sol\":4529:4534  _name */\n      dup5\n        /* \"carbon.sol\":4468:4680  Project({... */\n      dup2\n      mstore\n      0x20\n      add\n        /* \"carbon.sol\":4563:4576  _totalCredits */\n      dup4\n        /* \"carbon.sol\":4468:4680  Project({... */\n      dup2\n      mstore\n      0x20\n      add\n        /* \"carbon.sol\":4609:4622  _totalCredits */\n      dup4\n        /* \"carbon.sol\":4468:4680  Project({... */\n      dup2\n      mstore\n      0x20\n      add\n        /* \"carbon.sol\":4653:4668  _pricePerCredit */\n      dup3\n        /* \"carbon.sol\":4468:4680  Project({... */\n      dup2\n      mstore\n      pop\n        /* \"carbon.sol\":4443:4451  projects */\n      0x05\n        /* \"carbon.sol\":4443:4465  projects[projectCount] */\n      0x00\n        /* \"carbon.sol\":4452:4464  projectCount */\n      sload(0x06)\n        /* \"carbon.sol\":4443:4465  projects[projectCount] */\n      dup2\n      mstore\n      0x20\n      add\n      swap1\n      dup2\n      mstore\n      0x20\n      add\n      0x00\n      keccak256\n        /* \"carbon.sol\":4443:4680  projects[projectCount] = Project({... */\n      0x00\n      dup3\n      add\n      mload\n      dup2\n      0x00\n      add\n      exp(0x0100, 0x00)\n      dup2\n      sload\n      dup2\n      0xffffffffffffffffffffffffffffffffffffffff\n      mul\n      not\n      and\n      swap1\n      dup4\n      0xffffffffffffffffffffffffffffffffffffffff\n      and\n      mul\n      or\n      swap1\n      sstore\n      pop\n      0x20\n      dup3\n      add\n      mload\n      dup2\n      0x01\n      add\n      swap1\n      dup2\n      tag_372\n      swap2\n      swap1\n      tag_210\n      jump\t// in\n    tag_372:\n      pop\n      0x40\n      dup3\n      add\n      mload\n      dup2\n      0x02\n      add\n      sstore\n      0x60\n      dup3\n      add\n      mload\n      dup2\n      0x03\n      add\n      sstore\n      0x80\n      dup3\n      add\n      mload\n      dup2\n      0x04\n      add\n      sstore\n      swap1\n      pop\n      pop\n        /* \"carbon.sol\":4698:4768  ProjectRegistered(projectCount, _name, _totalCredits, _pricePerCredit) */\n      0x50c6a8b423458d44f896828d57af33000ead07320bc572c2b3d856e7a954df4b\n        /* \"carbon.sol\":4716:4728  projectCount */\n      sload(0x06)\n        /* \"carbon.sol\":4730:4735  _name */\n      dup5\n        /* \"carbon.sol\":4737:4750  _totalCredits */\n      dup5\n        /* \"carbon.sol\":4752:4767  _pricePerCredit */\n      dup5\n        /* \"carbon.sol\":4698:4768  ProjectRegistered(projectCount, _name, _totalCredits, _pricePerCredit) */\n      mload(0x40)\n      tag_373\n      swap5\n      swap4\n      swap3\n      swap2\n      swap1\n      tag_212\n      jump\t// in\n    tag_373:\n      mload(0x40)\n      dup1\n      swap2\n      sub\n      swap1\n      log1\n        /* \"carbon.sol\":4779:4791  projectCount */\n      0x06\n      0x00\n        /* \"carbon.sol\":4779:4793  projectCount++ */\n      dup2\n      sload\n      dup1\n      swap3\n      swap2\n      swap1\n      tag_374\n      swap1\n      tag_375\n      jump\t// in\n    tag_374:\n      swap2\n      swap1\n      pop\n      sstore\n      pop\n        /* \"carbon.sol\":3909:4801  function registerProject(string memory _name, uint256 _totalCredits, uint256 _pricePerCredit) public {... */\n      pop\n      pop\n      pop\n      jump\t// out\n        /* \"carbon.sol\":10340:10476  function getUserTransactions(address _user) public view returns (Transaction[] memory) {... */\n    tag_155:\n        /* \"carbon.sol\":10405:10425  Transaction[] memory */\n      0x60\n        /* \"carbon.sol\":10445:10461  userTransactions */\n      0x09\n        /* \"carbon.sol\":10445:10468  userTransactions[_user] */\n      0x00\n        /* \"carbon.sol\":10462:10467  _user */\n      dup4\n        /* \"carbon.sol\":10445:10468  userTransactions[_user] */\n      0xffffffffffffffffffffffffffffffffffffffff\n      and\n      0xffffffffffffffffffffffffffffffffffffffff\n      and\n      dup2\n      mstore\n      0x20\n      add\n      swap1\n      dup2\n      mstore\n      0x20\n      add\n      0x00\n      keccak256\n        /* \"carbon.sol\":10438:10468  return userTransactions[_user] */\n      dup1\n      sload\n      dup1\n      0x20\n      mul\n      0x20\n      add\n      mload(0x40)\n      swap1\n      dup2\n      add\n      0x40\n      mstore\n      dup1\n      swap3\n      swap2\n      swap1\n      dup2\n      dup2\n      mstore\n      0x20\n      add\n      0x00\n      swap1\n    tag_377:\n      dup3\n      dup3\n      lt\n      iszero\n      tag_378\n      jumpi\n      dup4\n      dup3\n      swap1\n      0x00\n      mstore\n      keccak256(0x00, 0x20)\n      swap1\n      0x05\n      mul\n      add\n      mload(0x40)\n      dup1\n      0xa0\n      add\n      0x40\n      mstore\n      swap1\n      dup2\n      0x00\n      dup3\n      add\n      0x00\n      swap1\n      sload\n      swap1\n      0x0100\n      exp\n      swap1\n      div\n      0xffffffffffffffffffffffffffffffffffffffff\n      and\n      0xffffffffffffffffffffffffffffffffffffffff\n      and\n      0xffffffffffffffffffffffffffffffffffffffff\n      and\n      dup2\n      mstore\n      0x20\n      add\n      0x01\n      dup3\n      add\n      sload\n      dup2\n      mstore\n      0x20\n      add\n      0x02\n      dup3\n      add\n      sload\n      dup2\n      mstore\n      0x20\n      add\n      0x03\n      dup3\n      add\n      dup1\n      sload\n      tag_380\n      swap1\n      tag_162\n      jump\t// in\n    tag_380:\n      dup1\n      0x1f\n      add\n      0x20\n      dup1\n      swap2\n      div\n      mul\n      0x20\n      add\n      mload(0x40)\n      swap1\n      dup2\n      add\n      0x40\n      mstore\n      dup1\n      swap3\n      swap2\n      swap1\n      dup2\n      dup2\n      mstore\n      0x20\n      add\n      dup3\n      dup1\n      sload\n      tag_381\n      swap1\n      tag_162\n      jump\t// in\n    tag_381:\n      dup1\n      iszero\n      tag_382\n      jumpi\n      dup1\n      0x1f\n      lt\n      tag_383\n      jumpi\n      0x0100\n      dup1\n      dup4\n      sload\n      div\n      mul\n      dup4\n      mstore\n      swap2\n      0x20\n      add\n      swap2\n      jump(tag_382)\n    tag_383:\n      dup3\n      add\n      swap2\n      swap1\n      0x00\n      mstore\n      keccak256(0x00, 0x20)\n      swap1\n    tag_384:\n      dup2\n      sload\n      dup2\n      mstore\n      swap1\n      0x01\n      add\n      swap1\n      0x20\n      add\n      dup1\n      dup4\n      gt\n      tag_384\n      jumpi\n      dup3\n      swap1\n      sub\n      0x1f\n      and\n      dup3\n      add\n      swap2\n    tag_382:\n      pop\n      pop\n      pop\n      pop\n      pop\n      dup2\n      mstore\n      0x20\n      add\n      0x04\n      dup3\n      add\n      sload\n      dup2\n      mstore\n      pop\n      pop\n      dup2\n      mstore\n      0x20\n      add\n      swap1\n      0x01\n      add\n      swap1\n      jump(tag_377)\n    tag_378:\n      pop\n      pop\n      pop\n      pop\n      swap1\n      pop\n        /* \"carbon.sol\":10340:10476  function getUserTransactions(address _user) public view returns (Transaction[] memory) {... */\n      swap2\n      swap1\n      pop\n      jump\t// out\n        /* \"carbon.sol\":1815:1860  uint256 public carbonChampionThreshold = 1000 */\n    tag_159:\n      sload(0x0c)\n      dup2\n      jump\t// out\n        /* \"carbon.sol\":9374:10117  function _updateUserRewards(address _user, uint256 _credits, string memory) internal {... */\n    tag_226:\n        /* \"carbon.sol\":9470:9491  Reward storage reward */\n      0x00\n        /* \"carbon.sol\":9494:9505  userRewards */\n      0x08\n        /* \"carbon.sol\":9494:9512  userRewards[_user] */\n      0x00\n        /* \"carbon.sol\":9506:9511  _user */\n      dup6\n        /* \"carbon.sol\":9494:9512  userRewards[_user] */\n      0xffffffffffffffffffffffffffffffffffffffff\n      and\n      0xffffffffffffffffffffffffffffffffffffffff\n      and\n      dup2\n      mstore\n      0x20\n      add\n      swap1\n      dup2\n      mstore\n      0x20\n      add\n      0x00\n      keccak256\n        /* \"carbon.sol\":9470:9512  Reward storage reward = userRewards[_user] */\n      swap1\n      pop\n        /* \"carbon.sol\":9602:9622  uint256 pointsEarned */\n      0x00\n        /* \"carbon.sol\":9625:9633  _credits */\n      dup4\n        /* \"carbon.sol\":9602:9633  uint256 pointsEarned = _credits */\n      swap1\n      pop\n        /* \"carbon.sol\":9667:9679  pointsEarned */\n      dup1\n        /* \"carbon.sol\":9644:9650  reward */\n      dup3\n        /* \"carbon.sol\":9644:9663  reward.rewardPoints */\n      0x00\n      add\n      0x00\n        /* \"carbon.sol\":9644:9679  reward.rewardPoints += pointsEarned */\n      dup3\n      dup3\n      sload\n      tag_386\n      swap2\n      swap1\n      tag_272\n      jump\t// in\n    tag_386:\n      swap3\n      pop\n      pop\n      dup2\n      swap1\n      sstore\n      pop\n        /* \"carbon.sol\":9716:9722  reward */\n      dup2\n        /* \"carbon.sol\":9716:9735  reward.rewardPoints */\n      0x00\n      add\n      sload\n        /* \"carbon.sol\":9690:9706  userRewardPoints */\n      0x0b\n        /* \"carbon.sol\":9690:9713  userRewardPoints[_user] */\n      0x00\n        /* \"carbon.sol\":9707:9712  _user */\n      dup8\n        /* \"carbon.sol\":9690:9713  userRewardPoints[_user] */\n      0xffffffffffffffffffffffffffffffffffffffff\n      and\n      0xffffffffffffffffffffffffffffffffffffffff\n      and\n      dup2\n      mstore\n      0x20\n      add\n      swap1\n      dup2\n      mstore\n      0x20\n      add\n      0x00\n      keccak256\n        /* \"carbon.sol\":9690:9735  userRewardPoints[_user] = reward.rewardPoints */\n      dup2\n      swap1\n      sstore\n      pop\n        /* \"carbon.sol\":9775:9798  carbonChampionThreshold */\n      sload(0x0c)\n        /* \"carbon.sol\":9752:9758  reward */\n      dup3\n        /* \"carbon.sol\":9752:9771  reward.rewardPoints */\n      0x00\n      add\n      sload\n        /* \"carbon.sol\":9752:9798  reward.rewardPoints >= carbonChampionThreshold */\n      lt\n        /* \"carbon.sol\":9748:10038  if (reward.rewardPoints >= carbonChampionThreshold) {... */\n      tag_387\n      jumpi\n        /* \"carbon.sol\":9815:9847  reward.badge = \"Carbon Champion\" */\n      mload(0x40)\n      dup1\n      0x40\n      add\n      0x40\n      mstore\n      dup1\n      0x0f\n      dup2\n      mstore\n      0x20\n      add\n      0x436172626f6e204368616d70696f6e0000000000000000000000000000000000\n      dup2\n      mstore\n      pop\n        /* \"carbon.sol\":9815:9821  reward */\n      dup3\n        /* \"carbon.sol\":9815:9827  reward.badge */\n      0x01\n      add\n        /* \"carbon.sol\":9815:9847  reward.badge = \"Carbon Champion\" */\n      swap1\n      dup2\n      tag_388\n      swap2\n      swap1\n      tag_210\n      jump\t// in\n    tag_388:\n      pop\n        /* \"carbon.sol\":9748:10038  if (reward.rewardPoints >= carbonChampionThreshold) {... */\n      jump(tag_389)\n    tag_387:\n        /* \"carbon.sol\":9892:9918  carbonContributorThreshold */\n      sload(0x0d)\n        /* \"carbon.sol\":9869:9875  reward */\n      dup3\n        /* \"carbon.sol\":9869:9888  reward.rewardPoints */\n      0x00\n      add\n      sload\n        /* \"carbon.sol\":9869:9918  reward.rewardPoints >= carbonContributorThreshold */\n      lt\n        /* \"carbon.sol\":9865:10038  if (reward.rewardPoints >= carbonContributorThreshold) {... */\n      tag_390\n      jumpi\n        /* \"carbon.sol\":9935:9970  reward.badge = \"Carbon Contributor\" */\n      mload(0x40)\n      dup1\n      0x40\n      add\n      0x40\n      mstore\n      dup1\n      0x12\n      dup2\n      mstore\n      0x20\n      add\n      0x436172626f6e20436f6e7472696275746f720000000000000000000000000000\n      dup2\n      mstore\n      pop\n        /* \"carbon.sol\":9935:9941  reward */\n      dup3\n        /* \"carbon.sol\":9935:9947  reward.badge */\n      0x01\n      add\n        /* \"carbon.sol\":9935:9970  reward.badge = \"Carbon Contributor\" */\n      swap1\n      dup2\n      tag_391\n      swap2\n      swap1\n      tag_210\n      jump\t// in\n    tag_391:\n      pop\n        /* \"carbon.sol\":9865:10038  if (reward.rewardPoints >= carbonContributorThreshold) {... */\n      jump(tag_392)\n    tag_390:\n        /* \"carbon.sol\":10003:10026  reward.badge = \"Novice\" */\n      mload(0x40)\n      dup1\n      0x40\n      add\n      0x40\n      mstore\n      dup1\n      0x06\n      dup2\n      mstore\n      0x20\n      add\n      0x4e6f766963650000000000000000000000000000000000000000000000000000\n      dup2\n      mstore\n      pop\n        /* \"carbon.sol\":10003:10009  reward */\n      dup3\n        /* \"carbon.sol\":10003:10015  reward.badge */\n      0x01\n      add\n        /* \"carbon.sol\":10003:10026  reward.badge = \"Novice\" */\n      swap1\n      dup2\n      tag_393\n      swap2\n      swap1\n      tag_210\n      jump\t// in\n    tag_393:\n      pop\n        /* \"carbon.sol\":9865:10038  if (reward.rewardPoints >= carbonContributorThreshold) {... */\n    tag_392:\n        /* \"carbon.sol\":9748:10038  if (reward.rewardPoints >= carbonChampionThreshold) {... */\n    tag_389:\n        /* \"carbon.sol\":10068:10073  _user */\n      dup5\n        /* \"carbon.sol\":10055:10109  RewardEarned(_user, reward.rewardPoints, reward.badge) */\n      0xffffffffffffffffffffffffffffffffffffffff\n      and\n      0x7832b7eebe8de153acecf46b96e9e04c64c883545a6285fcc564d16ae2d73414\n        /* \"carbon.sol\":10075:10081  reward */\n      dup4\n        /* \"carbon.sol\":10075:10094  reward.rewardPoints */\n      0x00\n      add\n      sload\n        /* \"carbon.sol\":10096:10102  reward */\n      dup5\n        /* \"carbon.sol\":10096:10108  reward.badge */\n      0x01\n      add\n        /* \"carbon.sol\":10055:10109  RewardEarned(_user, reward.rewardPoints, reward.badge) */\n      mload(0x40)\n      tag_394\n      swap3\n      swap2\n      swap1\n      tag_395\n      jump\t// in\n    tag_394:\n      mload(0x40)\n      dup1\n      swap2\n      sub\n      swap1\n      log2\n        /* \"carbon.sol\":9459:10117  {... */\n      pop\n      pop\n        /* \"carbon.sol\":9374:10117  function _updateUserRewards(address _user, uint256 _credits, string memory) internal {... */\n      pop\n      pop\n      pop\n      jump\t// out\n    tag_168:\n      mload(0x40)\n      dup1\n      0x40\n      add\n      0x40\n      mstore\n      dup1\n      0x00\n      dup2\n      mstore\n      0x20\n      add\n      0x60\n      dup2\n      mstore\n      pop\n      swap1\n      jump\t// out\n        /* \"#utility.yul\":7:82   */\n    tag_396:\n        /* \"#utility.yul\":40:46   */\n      0x00\n        /* \"#utility.yul\":73:75   */\n      0x40\n        /* \"#utility.yul\":67:76   */\n      mload\n        /* \"#utility.yul\":57:76   */\n      swap1\n      pop\n        /* \"#utility.yul\":7:82   */\n      swap1\n      jump\t// out\n        /* \"#utility.yul\":88:205   */\n    tag_397:\n        /* \"#utility.yul\":197:198   */\n      0x00\n        /* \"#utility.yul\":194:195   */\n      dup1\n        /* \"#utility.yul\":187:199   */\n      revert\n        /* \"#utility.yul\":211:328   */\n    tag_398:\n        /* \"#utility.yul\":320:321   */\n      0x00\n        /* \"#utility.yul\":317:318   */\n      dup1\n        /* \"#utility.yul\":310:322   */\n      revert\n        /* \"#utility.yul\":334:460   */\n    tag_399:\n        /* \"#utility.yul\":371:378   */\n      0x00\n        /* \"#utility.yul\":411:453   */\n      0xffffffffffffffffffffffffffffffffffffffff\n        /* \"#utility.yul\":404:409   */\n      dup3\n        /* \"#utility.yul\":400:454   */\n      and\n        /* \"#utility.yul\":389:454   */\n      swap1\n      pop\n        /* \"#utility.yul\":334:460   */\n      swap2\n      swap1\n      pop\n      jump\t// out\n        /* \"#utility.yul\":466:562   */\n    tag_400:\n        /* \"#utility.yul\":503:510   */\n      0x00\n        /* \"#utility.yul\":532:556   */\n      tag_512\n        /* \"#utility.yul\":550:555   */\n      dup3\n        /* \"#utility.yul\":532:556   */\n      tag_399\n      jump\t// in\n    tag_512:\n        /* \"#utility.yul\":521:556   */\n      swap1\n      pop\n        /* \"#utility.yul\":466:562   */\n      swap2\n      swap1\n      pop\n      jump\t// out\n        /* \"#utility.yul\":568:690   */\n    tag_401:\n        /* \"#utility.yul\":641:665   */\n      tag_514\n        /* \"#utility.yul\":659:664   */\n      dup2\n        /* \"#utility.yul\":641:665   */\n      tag_400\n      jump\t// in\n    tag_514:\n        /* \"#utility.yul\":634:639   */\n      dup2\n        /* \"#utility.yul\":631:666   */\n      eq\n        /* \"#utility.yul\":621:684   */\n      tag_515\n      jumpi\n        /* \"#utility.yul\":680:681   */\n      0x00\n        /* \"#utility.yul\":677:678   */\n      dup1\n        /* \"#utility.yul\":670:682   */\n      revert\n        /* \"#utility.yul\":621:684   */\n    tag_515:\n        /* \"#utility.yul\":568:690   */\n      pop\n      jump\t// out\n        /* \"#utility.yul\":696:835   */\n    tag_402:\n        /* \"#utility.yul\":742:747   */\n      0x00\n        /* \"#utility.yul\":780:786   */\n      dup2\n        /* \"#utility.yul\":767:787   */\n      calldataload\n        /* \"#utility.yul\":758:787   */\n      swap1\n      pop\n        /* \"#utility.yul\":796:829   */\n      tag_517\n        /* \"#utility.yul\":823:828   */\n      dup2\n        /* \"#utility.yul\":796:829   */\n      tag_401\n      jump\t// in\n    tag_517:\n        /* \"#utility.yul\":696:835   */\n      swap3\n      swap2\n      pop\n      pop\n      jump\t// out\n        /* \"#utility.yul\":841:1170   */\n    tag_36:\n        /* \"#utility.yul\":900:906   */\n      0x00\n        /* \"#utility.yul\":949:951   */\n      0x20\n        /* \"#utility.yul\":937:946   */\n      dup3\n        /* \"#utility.yul\":928:935   */\n      dup5\n        /* \"#utility.yul\":924:947   */\n      sub\n        /* \"#utility.yul\":920:952   */\n      slt\n        /* \"#utility.yul\":917:1036   */\n      iszero\n      tag_519\n      jumpi\n        /* \"#utility.yul\":955:1034   */\n      tag_520\n      tag_397\n      jump\t// in\n    tag_520:\n        /* \"#utility.yul\":917:1036   */\n    tag_519:\n        /* \"#utility.yul\":1075:1076   */\n      0x00\n        /* \"#utility.yul\":1100:1153   */\n      tag_521\n        /* \"#utility.yul\":1145:1152   */\n      dup5\n        /* \"#utility.yul\":1136:1142   */\n      dup3\n        /* \"#utility.yul\":1125:1134   */\n      dup6\n        /* \"#utility.yul\":1121:1143   */\n      add\n        /* \"#utility.yul\":1100:1153   */\n      tag_402\n      jump\t// in\n    tag_521:\n        /* \"#utility.yul\":1090:1153   */\n      swap2\n      pop\n        /* \"#utility.yul\":1046:1163   */\n      pop\n        /* \"#utility.yul\":841:1170   */\n      swap3\n      swap2\n      pop\n      pop\n      jump\t// out\n        /* \"#utility.yul\":1176:1253   */\n    tag_403:\n        /* \"#utility.yul\":1213:1220   */\n      0x00\n        /* \"#utility.yul\":1242:1247   */\n      dup2\n        /* \"#utility.yul\":1231:1247   */\n      swap1\n      pop\n        /* \"#utility.yul\":1176:1253   */\n      swap2\n      swap1\n      pop\n      jump\t// out\n        /* \"#utility.yul\":1259:1377   */\n    tag_404:\n        /* \"#utility.yul\":1346:1370   */\n      tag_524\n        /* \"#utility.yul\":1364:1369   */\n      dup2\n        /* \"#utility.yul\":1346:1370   */\n      tag_403\n      jump\t// in\n    tag_524:\n        /* \"#utility.yul\":1341:1344   */\n      dup3\n        /* \"#utility.yul\":1334:1371   */\n      mstore\n        /* \"#utility.yul\":1259:1377   */\n      pop\n      pop\n      jump\t// out\n        /* \"#utility.yul\":1383:1482   */\n    tag_405:\n        /* \"#utility.yul\":1435:1441   */\n      0x00\n        /* \"#utility.yul\":1469:1474   */\n      dup2\n        /* \"#utility.yul\":1463:1475   */\n      mload\n        /* \"#utility.yul\":1453:1475   */\n      swap1\n      pop\n        /* \"#utility.yul\":1383:1482   */\n      swap2\n      swap1\n      pop\n      jump\t// out\n        /* \"#utility.yul\":1488:1657   */\n    tag_406:\n        /* \"#utility.yul\":1572:1583   */\n      0x00\n        /* \"#utility.yul\":1606:1612   */\n      dup3\n        /* \"#utility.yul\":1601:1604   */\n      dup3\n        /* \"#utility.yul\":1594:1613   */\n      mstore\n        /* \"#utility.yul\":1646:1650   */\n      0x20\n        /* \"#utility.yul\":1641:1644   */\n      dup3\n        /* \"#utility.yul\":1637:1651   */\n      add\n        /* \"#utility.yul\":1622:1651   */\n      swap1\n      pop\n        /* \"#utility.yul\":1488:1657   */\n      swap3\n      swap2\n      pop\n      pop\n      jump\t// out\n        /* \"#utility.yul\":1663:1802   */\n    tag_407:\n        /* \"#utility.yul\":1752:1758   */\n      dup3\n        /* \"#utility.yul\":1747:1750   */\n      dup2\n        /* \"#utility.yul\":1742:1745   */\n      dup4\n        /* \"#utility.yul\":1736:1759   */\n      mcopy\n        /* \"#utility.yul\":1793:1794   */\n      0x00\n        /* \"#utility.yul\":1784:1790   */\n      dup4\n        /* \"#utility.yul\":1779:1782   */\n      dup4\n        /* \"#utility.yul\":1775:1791   */\n      add\n        /* \"#utility.yul\":1768:1795   */\n      mstore\n        /* \"#utility.yul\":1663:1802   */\n      pop\n      pop\n      pop\n      jump\t// out\n        /* \"#utility.yul\":1808:1910   */\n    tag_408:\n        /* \"#utility.yul\":1849:1855   */\n      0x00\n        /* \"#utility.yul\":1900:1902   */\n      0x1f\n        /* \"#utility.yul\":1896:1903   */\n      not\n        /* \"#utility.yul\":1891:1893   */\n      0x1f\n        /* \"#utility.yul\":1884:1889   */\n      dup4\n        /* \"#utility.yul\":1880:1894   */\n      add\n        /* \"#utility.yul\":1876:1904   */\n      and\n        /* \"#utility.yul\":1866:1904   */\n      swap1\n      pop\n        /* \"#utility.yul\":1808:1910   */\n      swap2\n      swap1\n      pop\n      jump\t// out\n        /* \"#utility.yul\":1916:2293   */\n    tag_409:\n        /* \"#utility.yul\":2004:2007   */\n      0x00\n        /* \"#utility.yul\":2032:2071   */\n      tag_530\n        /* \"#utility.yul\":2065:2070   */\n      dup3\n        /* \"#utility.yul\":2032:2071   */\n      tag_405\n      jump\t// in\n    tag_530:\n        /* \"#utility.yul\":2087:2158   */\n      tag_531\n        /* \"#utility.yul\":2151:2157   */\n      dup2\n        /* \"#utility.yul\":2146:2149   */\n      dup6\n        /* \"#utility.yul\":2087:2158   */\n      tag_406\n      jump\t// in\n    tag_531:\n        /* \"#utility.yul\":2080:2158   */\n      swap4\n      pop\n        /* \"#utility.yul\":2167:2232   */\n      tag_532\n        /* \"#utility.yul\":2225:2231   */\n      dup2\n        /* \"#utility.yul\":2220:2223   */\n      dup6\n        /* \"#utility.yul\":2213:2217   */\n      0x20\n        /* \"#utility.yul\":2206:2211   */\n      dup7\n        /* \"#utility.yul\":2202:2218   */\n      add\n        /* \"#utility.yul\":2167:2232   */\n      tag_407\n      jump\t// in\n    tag_532:\n        /* \"#utility.yul\":2257:2286   */\n      tag_533\n        /* \"#utility.yul\":2279:2285   */\n      dup2\n        /* \"#utility.yul\":2257:2286   */\n      tag_408\n      jump\t// in\n    tag_533:\n        /* \"#utility.yul\":2252:2255   */\n      dup5\n        /* \"#utility.yul\":2248:2287   */\n      add\n        /* \"#utility.yul\":2241:2287   */\n      swap2\n      pop\n        /* \"#utility.yul\":2008:2293   */\n      pop\n        /* \"#utility.yul\":1916:2293   */\n      swap3\n      swap2\n      pop\n      pop\n      jump\t// out\n        /* \"#utility.yul\":2299:2722   */\n    tag_39:\n        /* \"#utility.yul\":2440:2444   */\n      0x00\n        /* \"#utility.yul\":2478:2480   */\n      0x40\n        /* \"#utility.yul\":2467:2476   */\n      dup3\n        /* \"#utility.yul\":2463:2481   */\n      add\n        /* \"#utility.yul\":2455:2481   */\n      swap1\n      pop\n        /* \"#utility.yul\":2491:2562   */\n      tag_535\n        /* \"#utility.yul\":2559:2560   */\n      0x00\n        /* \"#utility.yul\":2548:2557   */\n      dup4\n        /* \"#utility.yul\":2544:2561   */\n      add\n        /* \"#utility.yul\":2535:2541   */\n      dup6\n        /* \"#utility.yul\":2491:2562   */\n      tag_404\n      jump\t// in\n    tag_535:\n        /* \"#utility.yul\":2609:2618   */\n      dup2\n        /* \"#utility.yul\":2603:2607   */\n      dup2\n        /* \"#utility.yul\":2599:2619   */\n      sub\n        /* \"#utility.yul\":2594:2596   */\n      0x20\n        /* \"#utility.yul\":2583:2592   */\n      dup4\n        /* \"#utility.yul\":2579:2597   */\n      add\n        /* \"#utility.yul\":2572:2620   */\n      mstore\n        /* \"#utility.yul\":2637:2715   */\n      tag_536\n        /* \"#utility.yul\":2710:2714   */\n      dup2\n        /* \"#utility.yul\":2701:2707   */\n      dup5\n        /* \"#utility.yul\":2637:2715   */\n      tag_409\n      jump\t// in\n    tag_536:\n        /* \"#utility.yul\":2629:2715   */\n      swap1\n      pop\n        /* \"#utility.yul\":2299:2722   */\n      swap4\n      swap3\n      pop\n      pop\n      pop\n      jump\t// out\n        /* \"#utility.yul\":2728:2836   */\n    tag_410:\n        /* \"#utility.yul\":2805:2829   */\n      tag_538\n        /* \"#utility.yul\":2823:2828   */\n      dup2\n        /* \"#utility.yul\":2805:2829   */\n      tag_403\n      jump\t// in\n    tag_538:\n        /* \"#utility.yul\":2800:2803   */\n      dup3\n        /* \"#utility.yul\":2793:2830   */\n      mstore\n        /* \"#utility.yul\":2728:2836   */\n      pop\n      pop\n      jump\t// out\n        /* \"#utility.yul\":2842:3001   */\n    tag_411:\n        /* \"#utility.yul\":2916:2927   */\n      0x00\n        /* \"#utility.yul\":2950:2956   */\n      dup3\n        /* \"#utility.yul\":2945:2948   */\n      dup3\n        /* \"#utility.yul\":2938:2957   */\n      mstore\n        /* \"#utility.yul\":2990:2994   */\n      0x20\n        /* \"#utility.yul\":2985:2988   */\n      dup3\n        /* \"#utility.yul\":2981:2995   */\n      add\n        /* \"#utility.yul\":2966:2995   */\n      swap1\n      pop\n        /* \"#utility.yul\":2842:3001   */\n      swap3\n      swap2\n      pop\n      pop\n      jump\t// out\n        /* \"#utility.yul\":3007:3364   */\n    tag_412:\n        /* \"#utility.yul\":3085:3088   */\n      0x00\n        /* \"#utility.yul\":3113:3152   */\n      tag_541\n        /* \"#utility.yul\":3146:3151   */\n      dup3\n        /* \"#utility.yul\":3113:3152   */\n      tag_405\n      jump\t// in\n    tag_541:\n        /* \"#utility.yul\":3168:3229   */\n      tag_542\n        /* \"#utility.yul\":3222:3228   */\n      dup2\n        /* \"#utility.yul\":3217:3220   */\n      dup6\n        /* \"#utility.yul\":3168:3229   */\n      tag_411\n      jump\t// in\n    tag_542:\n        /* \"#utility.yul\":3161:3229   */\n      swap4\n      pop\n        /* \"#utility.yul\":3238:3303   */\n      tag_543\n        /* \"#utility.yul\":3296:3302   */\n      dup2\n        /* \"#utility.yul\":3291:3294   */\n      dup6\n        /* \"#utility.yul\":3284:3288   */\n      0x20\n        /* \"#utility.yul\":3277:3282   */\n      dup7\n        /* \"#utility.yul\":3273:3289   */\n      add\n        /* \"#utility.yul\":3238:3303   */\n      tag_407\n      jump\t// in\n    tag_543:\n        /* \"#utility.yul\":3328:3357   */\n      tag_544\n        /* \"#utility.yul\":3350:3356   */\n      dup2\n        /* \"#utility.yul\":3328:3357   */\n      tag_408\n      jump\t// in\n    tag_544:\n        /* \"#utility.yul\":3323:3326   */\n      dup5\n        /* \"#utility.yul\":3319:3358   */\n      add\n        /* \"#utility.yul\":3312:3358   */\n      swap2\n      pop\n        /* \"#utility.yul\":3089:3364   */\n      pop\n        /* \"#utility.yul\":3007:3364   */\n      swap3\n      swap2\n      pop\n      pop\n      jump\t// out\n        /* \"#utility.yul\":3456:4065   */\n    tag_413:\n        /* \"#utility.yul\":3569:3572   */\n      0x00\n        /* \"#utility.yul\":3605:3609   */\n      0x40\n        /* \"#utility.yul\":3600:3603   */\n      dup4\n        /* \"#utility.yul\":3596:3610   */\n      add\n        /* \"#utility.yul\":3700:3704   */\n      0x00\n        /* \"#utility.yul\":3693:3698   */\n      dup4\n        /* \"#utility.yul\":3689:3705   */\n      add\n        /* \"#utility.yul\":3683:3706   */\n      mload\n        /* \"#utility.yul\":3719:3782   */\n      tag_546\n        /* \"#utility.yul\":3776:3780   */\n      0x00\n        /* \"#utility.yul\":3771:3774   */\n      dup7\n        /* \"#utility.yul\":3767:3781   */\n      add\n        /* \"#utility.yul\":3753:3765   */\n      dup3\n        /* \"#utility.yul\":3719:3782   */\n      tag_410\n      jump\t// in\n    tag_546:\n        /* \"#utility.yul\":3620:3792   */\n      pop\n        /* \"#utility.yul\":3875:3879   */\n      0x20\n        /* \"#utility.yul\":3868:3873   */\n      dup4\n        /* \"#utility.yul\":3864:3880   */\n      add\n        /* \"#utility.yul\":3858:3881   */\n      mload\n        /* \"#utility.yul\":3928:3931   */\n      dup5\n        /* \"#utility.yul\":3922:3926   */\n      dup3\n        /* \"#utility.yul\":3918:3932   */\n      sub\n        /* \"#utility.yul\":3911:3915   */\n      0x20\n        /* \"#utility.yul\":3906:3909   */\n      dup7\n        /* \"#utility.yul\":3902:3916   */\n      add\n        /* \"#utility.yul\":3895:3933   */\n      mstore\n        /* \"#utility.yul\":3954:4027   */\n      tag_547\n        /* \"#utility.yul\":4022:4026   */\n      dup3\n        /* \"#utility.yul\":4008:4020   */\n      dup3\n        /* \"#utility.yul\":3954:4027   */\n      tag_412\n      jump\t// in\n    tag_547:\n        /* \"#utility.yul\":3946:4027   */\n      swap2\n      pop\n        /* \"#utility.yul\":3802:4038   */\n      pop\n        /* \"#utility.yul\":4055:4059   */\n      dup1\n        /* \"#utility.yul\":4048:4059   */\n      swap2\n      pop\n        /* \"#utility.yul\":3574:4065   */\n      pop\n        /* \"#utility.yul\":3456:4065   */\n      swap3\n      swap2\n      pop\n      pop\n      jump\t// out\n        /* \"#utility.yul\":4071:4432   */\n    tag_45:\n        /* \"#utility.yul\":4208:4212   */\n      0x00\n        /* \"#utility.yul\":4246:4248   */\n      0x20\n        /* \"#utility.yul\":4235:4244   */\n      dup3\n        /* \"#utility.yul\":4231:4249   */\n      add\n        /* \"#utility.yul\":4223:4249   */\n      swap1\n      pop\n        /* \"#utility.yul\":4295:4304   */\n      dup2\n        /* \"#utility.yul\":4289:4293   */\n      dup2\n        /* \"#utility.yul\":4285:4305   */\n      sub\n        /* \"#utility.yul\":4281:4282   */\n      0x00\n        /* \"#utility.yul\":4270:4279   */\n      dup4\n        /* \"#utility.yul\":4266:4283   */\n      add\n        /* \"#utility.yul\":4259:4306   */\n      mstore\n        /* \"#utility.yul\":4323:4425   */\n      tag_549\n        /* \"#utility.yul\":4420:4424   */\n      dup2\n        /* \"#utility.yul\":4411:4417   */\n      dup5\n        /* \"#utility.yul\":4323:4425   */\n      tag_413\n      jump\t// in\n    tag_549:\n        /* \"#utility.yul\":4315:4425   */\n      swap1\n      pop\n        /* \"#utility.yul\":4071:4432   */\n      swap3\n      swap2\n      pop\n      pop\n      jump\t// out\n        /* \"#utility.yul\":4438:4560   */\n    tag_414:\n        /* \"#utility.yul\":4511:4535   */\n      tag_551\n        /* \"#utility.yul\":4529:4534   */\n      dup2\n        /* \"#utility.yul\":4511:4535   */\n      tag_403\n      jump\t// in\n    tag_551:\n        /* \"#utility.yul\":4504:4509   */\n      dup2\n        /* \"#utility.yul\":4501:4536   */\n      eq\n        /* \"#utility.yul\":4491:4554   */\n      tag_552\n      jumpi\n        /* \"#utility.yul\":4550:4551   */\n      0x00\n        /* \"#utility.yul\":4547:4548   */\n      dup1\n        /* \"#utility.yul\":4540:4552   */\n      revert\n        /* \"#utility.yul\":4491:4554   */\n    tag_552:\n        /* \"#utility.yul\":4438:4560   */\n      pop\n      jump\t// out\n        /* \"#utility.yul\":4566:4705   */\n    tag_415:\n        /* \"#utility.yul\":4612:4617   */\n      0x00\n        /* \"#utility.yul\":4650:4656   */\n      dup2\n        /* \"#utility.yul\":4637:4657   */\n      calldataload\n        /* \"#utility.yul\":4628:4657   */\n      swap1\n      pop\n        /* \"#utility.yul\":4666:4699   */\n      tag_554\n        /* \"#utility.yul\":4693:4698   */\n      dup2\n        /* \"#utility.yul\":4666:4699   */\n      tag_414\n      jump\t// in\n    tag_554:\n        /* \"#utility.yul\":4566:4705   */\n      swap3\n      swap2\n      pop\n      pop\n      jump\t// out\n        /* \"#utility.yul\":4711:5040   */\n    tag_49:\n        /* \"#utility.yul\":4770:4776   */\n      0x00\n        /* \"#utility.yul\":4819:4821   */\n      0x20\n        /* \"#utility.yul\":4807:4816   */\n      dup3\n        /* \"#utility.yul\":4798:4805   */\n      dup5\n        /* \"#utility.yul\":4794:4817   */\n      sub\n        /* \"#utility.yul\":4790:4822   */\n      slt\n        /* \"#utility.yul\":4787:4906   */\n      iszero\n      tag_556\n      jumpi\n        /* \"#utility.yul\":4825:4904   */\n      tag_557\n      tag_397\n      jump\t// in\n    tag_557:\n        /* \"#utility.yul\":4787:4906   */\n    tag_556:\n        /* \"#utility.yul\":4945:4946   */\n      0x00\n        /* \"#utility.yul\":4970:5023   */\n      tag_558\n        /* \"#utility.yul\":5015:5022   */\n      dup5\n        /* \"#utility.yul\":5006:5012   */\n      dup3\n        /* \"#utility.yul\":4995:5004   */\n      dup6\n        /* \"#utility.yul\":4991:5013   */\n      add\n        /* \"#utility.yul\":4970:5023   */\n      tag_415\n      jump\t// in\n    tag_558:\n        /* \"#utility.yul\":4960:5023   */\n      swap2\n      pop\n        /* \"#utility.yul\":4916:5033   */\n      pop\n        /* \"#utility.yul\":4711:5040   */\n      swap3\n      swap2\n      pop\n      pop\n      jump\t// out\n        /* \"#utility.yul\":5046:5164   */\n    tag_416:\n        /* \"#utility.yul\":5133:5157   */\n      tag_560\n        /* \"#utility.yul\":5151:5156   */\n      dup2\n        /* \"#utility.yul\":5133:5157   */\n      tag_400\n      jump\t// in\n    tag_560:\n        /* \"#utility.yul\":5128:5131   */\n      dup3\n        /* \"#utility.yul\":5121:5158   */\n      mstore\n        /* \"#utility.yul\":5046:5164   */\n      pop\n      pop\n      jump\t// out\n        /* \"#utility.yul\":5170:5925   */\n    tag_56:\n        /* \"#utility.yul\":5395:5399   */\n      0x00\n        /* \"#utility.yul\":5433:5436   */\n      0xa0\n        /* \"#utility.yul\":5422:5431   */\n      dup3\n        /* \"#utility.yul\":5418:5437   */\n      add\n        /* \"#utility.yul\":5410:5437   */\n      swap1\n      pop\n        /* \"#utility.yul\":5447:5518   */\n      tag_562\n        /* \"#utility.yul\":5515:5516   */\n      0x00\n        /* \"#utility.yul\":5504:5513   */\n      dup4\n        /* \"#utility.yul\":5500:5517   */\n      add\n        /* \"#utility.yul\":5491:5497   */\n      dup9\n        /* \"#utility.yul\":5447:5518   */\n      tag_416\n      jump\t// in\n    tag_562:\n        /* \"#utility.yul\":5565:5574   */\n      dup2\n        /* \"#utility.yul\":5559:5563   */\n      dup2\n        /* \"#utility.yul\":5555:5575   */\n      sub\n        /* \"#utility.yul\":5550:5552   */\n      0x20\n        /* \"#utility.yul\":5539:5548   */\n      dup4\n        /* \"#utility.yul\":5535:5553   */\n      add\n        /* \"#utility.yul\":5528:5576   */\n      mstore\n        /* \"#utility.yul\":5593:5671   */\n      tag_563\n        /* \"#utility.yul\":5666:5670   */\n      dup2\n        /* \"#utility.yul\":5657:5663   */\n      dup8\n        /* \"#utility.yul\":5593:5671   */\n      tag_409\n      jump\t// in\n    tag_563:\n        /* \"#utility.yul\":5585:5671   */\n      swap1\n      pop\n        /* \"#utility.yul\":5681:5753   */\n      tag_564\n        /* \"#utility.yul\":5749:5751   */\n      0x40\n        /* \"#utility.yul\":5738:5747   */\n      dup4\n        /* \"#utility.yul\":5734:5752   */\n      add\n        /* \"#utility.yul\":5725:5731   */\n      dup7\n        /* \"#utility.yul\":5681:5753   */\n      tag_404\n      jump\t// in\n    tag_564:\n        /* \"#utility.yul\":5763:5835   */\n      tag_565\n        /* \"#utility.yul\":5831:5833   */\n      0x60\n        /* \"#utility.yul\":5820:5829   */\n      dup4\n        /* \"#utility.yul\":5816:5834   */\n      add\n        /* \"#utility.yul\":5807:5813   */\n      dup6\n        /* \"#utility.yul\":5763:5835   */\n      tag_404\n      jump\t// in\n    tag_565:\n        /* \"#utility.yul\":5845:5918   */\n      tag_566\n        /* \"#utility.yul\":5913:5916   */\n      0x80\n        /* \"#utility.yul\":5902:5911   */\n      dup4\n        /* \"#utility.yul\":5898:5917   */\n      add\n        /* \"#utility.yul\":5889:5895   */\n      dup5\n        /* \"#utility.yul\":5845:5918   */\n      tag_404\n      jump\t// in\n    tag_566:\n        /* \"#utility.yul\":5170:5925   */\n      swap7\n      swap6\n      pop\n      pop\n      pop\n      pop\n      pop\n      pop\n      jump\t// out\n        /* \"#utility.yul\":5931:6405   */\n    tag_60:\n        /* \"#utility.yul\":5999:6005   */\n      0x00\n        /* \"#utility.yul\":6007:6013   */\n      dup1\n        /* \"#utility.yul\":6056:6058   */\n      0x40\n        /* \"#utility.yul\":6044:6053   */\n      dup4\n        /* \"#utility.yul\":6035:6042   */\n      dup6\n        /* \"#utility.yul\":6031:6054   */\n      sub\n        /* \"#utility.yul\":6027:6059   */\n      slt\n        /* \"#utility.yul\":6024:6143   */\n      iszero\n      tag_568\n      jumpi\n        /* \"#utility.yul\":6062:6141   */\n      tag_569\n      tag_397\n      jump\t// in\n    tag_569:\n        /* \"#utility.yul\":6024:6143   */\n    tag_568:\n        /* \"#utility.yul\":6182:6183   */\n      0x00\n        /* \"#utility.yul\":6207:6260   */\n      tag_570\n        /* \"#utility.yul\":6252:6259   */\n      dup6\n        /* \"#utility.yul\":6243:6249   */\n      dup3\n        /* \"#utility.yul\":6232:6241   */\n      dup7\n        /* \"#utility.yul\":6228:6250   */\n      add\n        /* \"#utility.yul\":6207:6260   */\n      tag_402\n      jump\t// in\n    tag_570:\n        /* \"#utility.yul\":6197:6260   */\n      swap3\n      pop\n        /* \"#utility.yul\":6153:6270   */\n      pop\n        /* \"#utility.yul\":6309:6311   */\n      0x20\n        /* \"#utility.yul\":6335:6388   */\n      tag_571\n        /* \"#utility.yul\":6380:6387   */\n      dup6\n        /* \"#utility.yul\":6371:6377   */\n      dup3\n        /* \"#utility.yul\":6360:6369   */\n      dup7\n        /* \"#utility.yul\":6356:6378   */\n      add\n        /* \"#utility.yul\":6335:6388   */\n      tag_415\n      jump\t// in\n    tag_571:\n        /* \"#utility.yul\":6325:6388   */\n      swap2\n      pop\n        /* \"#utility.yul\":6280:6398   */\n      pop\n        /* \"#utility.yul\":5931:6405   */\n      swap3\n      pop\n      swap3\n      swap1\n      pop\n      jump\t// out\n        /* \"#utility.yul\":6411:6633   */\n    tag_63:\n        /* \"#utility.yul\":6504:6508   */\n      0x00\n        /* \"#utility.yul\":6542:6544   */\n      0x20\n        /* \"#utility.yul\":6531:6540   */\n      dup3\n        /* \"#utility.yul\":6527:6545   */\n      add\n        /* \"#utility.yul\":6519:6545   */\n      swap1\n      pop\n        /* \"#utility.yul\":6555:6626   */\n      tag_573\n        /* \"#utility.yul\":6623:6624   */\n      0x00\n        /* \"#utility.yul\":6612:6621   */\n      dup4\n        /* \"#utility.yul\":6608:6625   */\n      add\n        /* \"#utility.yul\":6599:6605   */\n      dup5\n        /* \"#utility.yul\":6555:6626   */\n      tag_404\n      jump\t// in\n    tag_573:\n        /* \"#utility.yul\":6411:6633   */\n      swap3\n      swap2\n      pop\n      pop\n      jump\t// out\n        /* \"#utility.yul\":6639:6780   */\n    tag_417:\n        /* \"#utility.yul\":6733:6739   */\n      0x00\n        /* \"#utility.yul\":6767:6772   */\n      dup2\n        /* \"#utility.yul\":6761:6773   */\n      mload\n        /* \"#utility.yul\":6751:6773   */\n      swap1\n      pop\n        /* \"#utility.yul\":6639:6780   */\n      swap2\n      swap1\n      pop\n      jump\t// out\n        /* \"#utility.yul\":6786:6997   */\n    tag_418:\n        /* \"#utility.yul\":6912:6923   */\n      0x00\n        /* \"#utility.yul\":6946:6952   */\n      dup3\n        /* \"#utility.yul\":6941:6944   */\n      dup3\n        /* \"#utility.yul\":6934:6953   */\n      mstore\n        /* \"#utility.yul\":6986:6990   */\n      0x20\n        /* \"#utility.yul\":6981:6984   */\n      dup3\n        /* \"#utility.yul\":6977:6991   */\n      add\n        /* \"#utility.yul\":6962:6991   */\n      swap1\n      pop\n        /* \"#utility.yul\":6786:6997   */\n      swap3\n      swap2\n      pop\n      pop\n      jump\t// out\n        /* \"#utility.yul\":7003:7162   */\n    tag_419:\n        /* \"#utility.yul\":7097:7101   */\n      0x00\n        /* \"#utility.yul\":7120:7123   */\n      dup2\n        /* \"#utility.yul\":7112:7123   */\n      swap1\n      pop\n        /* \"#utility.yul\":7150:7154   */\n      0x20\n        /* \"#utility.yul\":7145:7148   */\n      dup3\n        /* \"#utility.yul\":7141:7155   */\n      add\n        /* \"#utility.yul\":7133:7155   */\n      swap1\n      pop\n        /* \"#utility.yul\":7003:7162   */\n      swap2\n      swap1\n      pop\n      jump\t// out\n        /* \"#utility.yul\":7168:7276   */\n    tag_420:\n        /* \"#utility.yul\":7245:7269   */\n      tag_578\n        /* \"#utility.yul\":7263:7268   */\n      dup2\n        /* \"#utility.yul\":7245:7269   */\n      tag_400\n      jump\t// in\n    tag_578:\n        /* \"#utility.yul\":7240:7243   */\n      dup3\n        /* \"#utility.yul\":7233:7270   */\n      mstore\n        /* \"#utility.yul\":7168:7276   */\n      pop\n      pop\n      jump\t// out\n        /* \"#utility.yul\":7378:8515   */\n    tag_421:\n        /* \"#utility.yul\":7491:7494   */\n      0x00\n        /* \"#utility.yul\":7527:7531   */\n      0xa0\n        /* \"#utility.yul\":7522:7525   */\n      dup4\n        /* \"#utility.yul\":7518:7532   */\n      add\n        /* \"#utility.yul\":7614:7618   */\n      0x00\n        /* \"#utility.yul\":7607:7612   */\n      dup4\n        /* \"#utility.yul\":7603:7619   */\n      add\n        /* \"#utility.yul\":7597:7620   */\n      mload\n        /* \"#utility.yul\":7633:7696   */\n      tag_580\n        /* \"#utility.yul\":7690:7694   */\n      0x00\n        /* \"#utility.yul\":7685:7688   */\n      dup7\n        /* \"#utility.yul\":7681:7695   */\n      add\n        /* \"#utility.yul\":7667:7679   */\n      dup3\n        /* \"#utility.yul\":7633:7696   */\n      tag_420\n      jump\t// in\n    tag_580:\n        /* \"#utility.yul\":7542:7706   */\n      pop\n        /* \"#utility.yul\":7793:7797   */\n      0x20\n        /* \"#utility.yul\":7786:7791   */\n      dup4\n        /* \"#utility.yul\":7782:7798   */\n      add\n        /* \"#utility.yul\":7776:7799   */\n      mload\n        /* \"#utility.yul\":7812:7875   */\n      tag_581\n        /* \"#utility.yul\":7869:7873   */\n      0x20\n        /* \"#utility.yul\":7864:7867   */\n      dup7\n        /* \"#utility.yul\":7860:7874   */\n      add\n        /* \"#utility.yul\":7846:7858   */\n      dup3\n        /* \"#utility.yul\":7812:7875   */\n      tag_410\n      jump\t// in\n    tag_581:\n        /* \"#utility.yul\":7716:7885   */\n      pop\n        /* \"#utility.yul\":7970:7974   */\n      0x40\n        /* \"#utility.yul\":7963:7968   */\n      dup4\n        /* \"#utility.yul\":7959:7975   */\n      add\n        /* \"#utility.yul\":7953:7976   */\n      mload\n        /* \"#utility.yul\":7989:8052   */\n      tag_582\n        /* \"#utility.yul\":8046:8050   */\n      0x40\n        /* \"#utility.yul\":8041:8044   */\n      dup7\n        /* \"#utility.yul\":8037:8051   */\n      add\n        /* \"#utility.yul\":8023:8035   */\n      dup3\n        /* \"#utility.yul\":7989:8052   */\n      tag_410\n      jump\t// in\n    tag_582:\n        /* \"#utility.yul\":7895:8062   */\n      pop\n        /* \"#utility.yul\":8146:8150   */\n      0x60\n        /* \"#utility.yul\":8139:8144   */\n      dup4\n        /* \"#utility.yul\":8135:8151   */\n      add\n        /* \"#utility.yul\":8129:8152   */\n      mload\n        /* \"#utility.yul\":8199:8202   */\n      dup5\n        /* \"#utility.yul\":8193:8197   */\n      dup3\n        /* \"#utility.yul\":8189:8203   */\n      sub\n        /* \"#utility.yul\":8182:8186   */\n      0x60\n        /* \"#utility.yul\":8177:8180   */\n      dup7\n        /* \"#utility.yul\":8173:8187   */\n      add\n        /* \"#utility.yul\":8166:8204   */\n      mstore\n        /* \"#utility.yul\":8225:8298   */\n      tag_583\n        /* \"#utility.yul\":8293:8297   */\n      dup3\n        /* \"#utility.yul\":8279:8291   */\n      dup3\n        /* \"#utility.yul\":8225:8298   */\n      tag_412\n      jump\t// in\n    tag_583:\n        /* \"#utility.yul\":8217:8298   */\n      swap2\n      pop\n        /* \"#utility.yul\":8072:8309   */\n      pop\n        /* \"#utility.yul\":8396:8400   */\n      0x80\n        /* \"#utility.yul\":8389:8394   */\n      dup4\n        /* \"#utility.yul\":8385:8401   */\n      add\n        /* \"#utility.yul\":8379:8402   */\n      mload\n        /* \"#utility.yul\":8415:8478   */\n      tag_584\n        /* \"#utility.yul\":8472:8476   */\n      0x80\n        /* \"#utility.yul\":8467:8470   */\n      dup7\n        /* \"#utility.yul\":8463:8477   */\n      add\n        /* \"#utility.yul\":8449:8461   */\n      dup3\n        /* \"#utility.yul\":8415:8478   */\n      tag_410\n      jump\t// in\n    tag_584:\n        /* \"#utility.yul\":8319:8488   */\n      pop\n        /* \"#utility.yul\":8505:8509   */\n      dup1\n        /* \"#utility.yul\":8498:8509   */\n      swap2\n      pop\n        /* \"#utility.yul\":7496:8515   */\n      pop\n        /* \"#utility.yul\":7378:8515   */\n      swap3\n      swap2\n      pop\n      pop\n      jump\t// out\n        /* \"#utility.yul\":8521:8785   */\n    tag_422:\n        /* \"#utility.yul\":8644:8654   */\n      0x00\n        /* \"#utility.yul\":8679:8779   */\n      tag_586\n        /* \"#utility.yul\":8775:8778   */\n      dup4\n        /* \"#utility.yul\":8767:8773   */\n      dup4\n        /* \"#utility.yul\":8679:8779   */\n      tag_421\n      jump\t// in\n    tag_586:\n        /* \"#utility.yul\":8665:8779   */\n      swap1\n      pop\n        /* \"#utility.yul\":8521:8785   */\n      swap3\n      swap2\n      pop\n      pop\n      jump\t// out\n        /* \"#utility.yul\":8791:8931   */\n    tag_423:\n        /* \"#utility.yul\":8888:8892   */\n      0x00\n        /* \"#utility.yul\":8920:8924   */\n      0x20\n        /* \"#utility.yul\":8915:8918   */\n      dup3\n        /* \"#utility.yul\":8911:8925   */\n      add\n        /* \"#utility.yul\":8903:8925   */\n      swap1\n      pop\n        /* \"#utility.yul\":8791:8931   */\n      swap2\n      swap1\n      pop\n      jump\t// out\n        /* \"#utility.yul\":9037:10164   */\n    tag_424:\n        /* \"#utility.yul\":9210:9213   */\n      0x00\n        /* \"#utility.yul\":9239:9320   */\n      tag_589\n        /* \"#utility.yul\":9314:9319   */\n      dup3\n        /* \"#utility.yul\":9239:9320   */\n      tag_417\n      jump\t// in\n    tag_589:\n        /* \"#utility.yul\":9336:9449   */\n      tag_590\n        /* \"#utility.yul\":9442:9448   */\n      dup2\n        /* \"#utility.yul\":9437:9440   */\n      dup6\n        /* \"#utility.yul\":9336:9449   */\n      tag_418\n      jump\t// in\n    tag_590:\n        /* \"#utility.yul\":9329:9449   */\n      swap4\n      pop\n        /* \"#utility.yul\":9475:9478   */\n      dup4\n        /* \"#utility.yul\":9520:9524   */\n      0x20\n        /* \"#utility.yul\":9512:9518   */\n      dup3\n        /* \"#utility.yul\":9508:9525   */\n      mul\n        /* \"#utility.yul\":9503:9506   */\n      dup6\n        /* \"#utility.yul\":9499:9526   */\n      add\n        /* \"#utility.yul\":9550:9633   */\n      tag_591\n        /* \"#utility.yul\":9627:9632   */\n      dup6\n        /* \"#utility.yul\":9550:9633   */\n      tag_419\n      jump\t// in\n    tag_591:\n        /* \"#utility.yul\":9656:9663   */\n      dup1\n        /* \"#utility.yul\":9687:9688   */\n      0x00\n        /* \"#utility.yul\":9672:10119   */\n    tag_592:\n        /* \"#utility.yul\":9697:9703   */\n      dup6\n        /* \"#utility.yul\":9694:9695   */\n      dup2\n        /* \"#utility.yul\":9691:9704   */\n      lt\n        /* \"#utility.yul\":9672:10119   */\n      iszero\n      tag_594\n      jumpi\n        /* \"#utility.yul\":9768:9777   */\n      dup5\n        /* \"#utility.yul\":9762:9766   */\n      dup5\n        /* \"#utility.yul\":9758:9778   */\n      sub\n        /* \"#utility.yul\":9753:9756   */\n      dup10\n        /* \"#utility.yul\":9746:9779   */\n      mstore\n        /* \"#utility.yul\":9819:9825   */\n      dup2\n        /* \"#utility.yul\":9813:9826   */\n      mload\n        /* \"#utility.yul\":9847:9965   */\n      tag_595\n        /* \"#utility.yul\":9960:9964   */\n      dup6\n        /* \"#utility.yul\":9945:9958   */\n      dup3\n        /* \"#utility.yul\":9847:9965   */\n      tag_422\n      jump\t// in\n    tag_595:\n        /* \"#utility.yul\":9839:9965   */\n      swap5\n      pop\n        /* \"#utility.yul\":9988:10075   */\n      tag_596\n        /* \"#utility.yul\":10068:10074   */\n      dup4\n        /* \"#utility.yul\":9988:10075   */\n      tag_423\n      jump\t// in\n    tag_596:\n        /* \"#utility.yul\":9978:10075   */\n      swap3\n      pop\n        /* \"#utility.yul\":10104:10108   */\n      0x20\n        /* \"#utility.yul\":10099:10102   */\n      dup11\n        /* \"#utility.yul\":10095:10109   */\n      add\n        /* \"#utility.yul\":10088:10109   */\n      swap10\n      pop\n        /* \"#utility.yul\":9732:10119   */\n      pop\n        /* \"#utility.yul\":9719:9720   */\n      0x01\n        /* \"#utility.yul\":9716:9717   */\n      dup2\n        /* \"#utility.yul\":9712:9721   */\n      add\n        /* \"#utility.yul\":9707:9721   */\n      swap1\n      pop\n        /* \"#utility.yul\":9672:10119   */\n      jump(tag_592)\n    tag_594:\n        /* \"#utility.yul\":9676:9690   */\n      pop\n        /* \"#utility.yul\":10135:10139   */\n      dup3\n        /* \"#utility.yul\":10128:10139   */\n      swap8\n      pop\n        /* \"#utility.yul\":10155:10158   */\n      dup8\n        /* \"#utility.yul\":10148:10158   */\n      swap6\n      pop\n        /* \"#utility.yul\":9215:10164   */\n      pop\n      pop\n      pop\n      pop\n      pop\n        /* \"#utility.yul\":9037:10164   */\n      swap3\n      swap2\n      pop\n      pop\n      jump\t// out\n        /* \"#utility.yul\":10170:10651   */\n    tag_68:\n        /* \"#utility.yul\":10367:10371   */\n      0x00\n        /* \"#utility.yul\":10405:10407   */\n      0x20\n        /* \"#utility.yul\":10394:10403   */\n      dup3\n        /* \"#utility.yul\":10390:10408   */\n      add\n        /* \"#utility.yul\":10382:10408   */\n      swap1\n      pop\n        /* \"#utility.yul\":10454:10463   */\n      dup2\n        /* \"#utility.yul\":10448:10452   */\n      dup2\n        /* \"#utility.yul\":10444:10464   */\n      sub\n        /* \"#utility.yul\":10440:10441   */\n      0x00\n        /* \"#utility.yul\":10429:10438   */\n      dup4\n        /* \"#utility.yul\":10425:10442   */\n      add\n        /* \"#utility.yul\":10418:10465   */\n      mstore\n        /* \"#utility.yul\":10482:10644   */\n      tag_598\n        /* \"#utility.yul\":10639:10643   */\n      dup2\n        /* \"#utility.yul\":10630:10636   */\n      dup5\n        /* \"#utility.yul\":10482:10644   */\n      tag_424\n      jump\t// in\n    tag_598:\n        /* \"#utility.yul\":10474:10644   */\n      swap1\n      pop\n        /* \"#utility.yul\":10170:10651   */\n      swap3\n      swap2\n      pop\n      pop\n      jump\t// out\n        /* \"#utility.yul\":10657:10747   */\n    tag_425:\n        /* \"#utility.yul\":10691:10698   */\n      0x00\n        /* \"#utility.yul\":10734:10739   */\n      dup2\n        /* \"#utility.yul\":10727:10740   */\n      iszero\n        /* \"#utility.yul\":10720:10741   */\n      iszero\n        /* \"#utility.yul\":10709:10741   */\n      swap1\n      pop\n        /* \"#utility.yul\":10657:10747   */\n      swap2\n      swap1\n      pop\n      jump\t// out\n        /* \"#utility.yul\":10753:10862   */\n    tag_426:\n        /* \"#utility.yul\":10834:10855   */\n      tag_601\n        /* \"#utility.yul\":10849:10854   */\n      dup2\n        /* \"#utility.yul\":10834:10855   */\n      tag_425\n      jump\t// in\n    tag_601:\n        /* \"#utility.yul\":10829:10832   */\n      dup3\n        /* \"#utility.yul\":10822:10856   */\n      mstore\n        /* \"#utility.yul\":10753:10862   */\n      pop\n      pop\n      jump\t// out\n        /* \"#utility.yul\":10868:11078   */\n    tag_73:\n        /* \"#utility.yul\":10955:10959   */\n      0x00\n        /* \"#utility.yul\":10993:10995   */\n      0x20\n        /* \"#utility.yul\":10982:10991   */\n      dup3\n        /* \"#utility.yul\":10978:10996   */\n      add\n        /* \"#utility.yul\":10970:10996   */\n      swap1\n      pop\n        /* \"#utility.yul\":11006:11071   */\n      tag_603\n        /* \"#utility.yul\":11068:11069   */\n      0x00\n        /* \"#utility.yul\":11057:11066   */\n      dup4\n        /* \"#utility.yul\":11053:11070   */\n      add\n        /* \"#utility.yul\":11044:11050   */\n      dup5\n        /* \"#utility.yul\":11006:11071   */\n      tag_426\n      jump\t// in\n    tag_603:\n        /* \"#utility.yul\":10868:11078   */\n      swap3\n      swap2\n      pop\n      pop\n      jump\t// out\n        /* \"#utility.yul\":11084:11201   */\n    tag_427:\n        /* \"#utility.yul\":11193:11194   */\n      0x00\n        /* \"#utility.yul\":11190:11191   */\n      dup1\n        /* \"#utility.yul\":11183:11195   */\n      revert\n        /* \"#utility.yul\":11207:11324   */\n    tag_428:\n        /* \"#utility.yul\":11316:11317   */\n      0x00\n        /* \"#utility.yul\":11313:11314   */\n      dup1\n        /* \"#utility.yul\":11306:11318   */\n      revert\n        /* \"#utility.yul\":11330:11510   */\n    tag_251:\n        /* \"#utility.yul\":11378:11455   */\n      0x4e487b7100000000000000000000000000000000000000000000000000000000\n        /* \"#utility.yul\":11375:11376   */\n      0x00\n        /* \"#utility.yul\":11368:11456   */\n      mstore\n        /* \"#utility.yul\":11475:11479   */\n      0x41\n        /* \"#utility.yul\":11472:11473   */\n      0x04\n        /* \"#utility.yul\":11465:11480   */\n      mstore\n        /* \"#utility.yul\":11499:11503   */\n      0x24\n        /* \"#utility.yul\":11496:11497   */\n      0x00\n        /* \"#utility.yul\":11489:11504   */\n      revert\n        /* \"#utility.yul\":11516:11797   */\n    tag_429:\n        /* \"#utility.yul\":11599:11626   */\n      tag_608\n        /* \"#utility.yul\":11621:11625   */\n      dup3\n        /* \"#utility.yul\":11599:11626   */\n      tag_408\n      jump\t// in\n    tag_608:\n        /* \"#utility.yul\":11591:11597   */\n      dup2\n        /* \"#utility.yul\":11587:11627   */\n      add\n        /* \"#utility.yul\":11729:11735   */\n      dup2\n        /* \"#utility.yul\":11717:11727   */\n      dup2\n        /* \"#utility.yul\":11714:11736   */\n      lt\n        /* \"#utility.yul\":11693:11711   */\n      0xffffffffffffffff\n        /* \"#utility.yul\":11681:11691   */\n      dup3\n        /* \"#utility.yul\":11678:11712   */\n      gt\n        /* \"#utility.yul\":11675:11737   */\n      or\n        /* \"#utility.yul\":11672:11760   */\n      iszero\n      tag_609\n      jumpi\n        /* \"#utility.yul\":11740:11758   */\n      tag_610\n      tag_251\n      jump\t// in\n    tag_610:\n        /* \"#utility.yul\":11672:11760   */\n    tag_609:\n        /* \"#utility.yul\":11780:11790   */\n      dup1\n        /* \"#utility.yul\":11776:11778   */\n      0x40\n        /* \"#utility.yul\":11769:11791   */\n      mstore\n        /* \"#utility.yul\":11559:11797   */\n      pop\n        /* \"#utility.yul\":11516:11797   */\n      pop\n      pop\n      jump\t// out\n        /* \"#utility.yul\":11803:11932   */\n    tag_430:\n        /* \"#utility.yul\":11837:11843   */\n      0x00\n        /* \"#utility.yul\":11864:11884   */\n      tag_612\n      tag_396\n      jump\t// in\n    tag_612:\n        /* \"#utility.yul\":11854:11884   */\n      swap1\n      pop\n        /* \"#utility.yul\":11893:11926   */\n      tag_613\n        /* \"#utility.yul\":11921:11925   */\n      dup3\n        /* \"#utility.yul\":11913:11919   */\n      dup3\n        /* \"#utility.yul\":11893:11926   */\n      tag_429\n      jump\t// in\n    tag_613:\n        /* \"#utility.yul\":11803:11932   */\n      swap2\n      swap1\n      pop\n      jump\t// out\n        /* \"#utility.yul\":11938:12246   */\n    tag_431:\n        /* \"#utility.yul\":12000:12004   */\n      0x00\n        /* \"#utility.yul\":12090:12108   */\n      0xffffffffffffffff\n        /* \"#utility.yul\":12082:12088   */\n      dup3\n        /* \"#utility.yul\":12079:12109   */\n      gt\n        /* \"#utility.yul\":12076:12132   */\n      iszero\n      tag_615\n      jumpi\n        /* \"#utility.yul\":12112:12130   */\n      tag_616\n      tag_251\n      jump\t// in\n    tag_616:\n        /* \"#utility.yul\":12076:12132   */\n    tag_615:\n        /* \"#utility.yul\":12150:12179   */\n      tag_617\n        /* \"#utility.yul\":12172:12178   */\n      dup3\n        /* \"#utility.yul\":12150:12179   */\n      tag_408\n      jump\t// in\n    tag_617:\n        /* \"#utility.yul\":12142:12179   */\n      swap1\n      pop\n        /* \"#utility.yul\":12234:12238   */\n      0x20\n        /* \"#utility.yul\":12228:12232   */\n      dup2\n        /* \"#utility.yul\":12224:12239   */\n      add\n        /* \"#utility.yul\":12216:12239   */\n      swap1\n      pop\n        /* \"#utility.yul\":11938:12246   */\n      swap2\n      swap1\n      pop\n      jump\t// out\n        /* \"#utility.yul\":12252:12400   */\n    tag_432:\n        /* \"#utility.yul\":12350:12356   */\n      dup3\n        /* \"#utility.yul\":12345:12348   */\n      dup2\n        /* \"#utility.yul\":12340:12343   */\n      dup4\n        /* \"#utility.yul\":12327:12357   */\n      calldatacopy\n        /* \"#utility.yul\":12391:12392   */\n      0x00\n        /* \"#utility.yul\":12382:12388   */\n      dup4\n        /* \"#utility.yul\":12377:12380   */\n      dup4\n        /* \"#utility.yul\":12373:12389   */\n      add\n        /* \"#utility.yul\":12366:12393   */\n      mstore\n        /* \"#utility.yul\":12252:12400   */\n      pop\n      pop\n      pop\n      jump\t// out\n        /* \"#utility.yul\":12406:12831   */\n    tag_433:\n        /* \"#utility.yul\":12484:12489   */\n      0x00\n        /* \"#utility.yul\":12509:12575   */\n      tag_620\n        /* \"#utility.yul\":12525:12574   */\n      tag_621\n        /* \"#utility.yul\":12567:12573   */\n      dup5\n        /* \"#utility.yul\":12525:12574   */\n      tag_431\n      jump\t// in\n    tag_621:\n        /* \"#utility.yul\":12509:12575   */\n      tag_430\n      jump\t// in\n    tag_620:\n        /* \"#utility.yul\":12500:12575   */\n      swap1\n      pop\n        /* \"#utility.yul\":12598:12604   */\n      dup3\n        /* \"#utility.yul\":12591:12596   */\n      dup2\n        /* \"#utility.yul\":12584:12605   */\n      mstore\n        /* \"#utility.yul\":12636:12640   */\n      0x20\n        /* \"#utility.yul\":12629:12634   */\n      dup2\n        /* \"#utility.yul\":12625:12641   */\n      add\n        /* \"#utility.yul\":12674:12677   */\n      dup5\n        /* \"#utility.yul\":12665:12671   */\n      dup5\n        /* \"#utility.yul\":12660:12663   */\n      dup5\n        /* \"#utility.yul\":12656:12672   */\n      add\n        /* \"#utility.yul\":12653:12678   */\n      gt\n        /* \"#utility.yul\":12650:12762   */\n      iszero\n      tag_622\n      jumpi\n        /* \"#utility.yul\":12681:12760   */\n      tag_623\n      tag_428\n      jump\t// in\n    tag_623:\n        /* \"#utility.yul\":12650:12762   */\n    tag_622:\n        /* \"#utility.yul\":12771:12825   */\n      tag_624\n        /* \"#utility.yul\":12818:12824   */\n      dup5\n        /* \"#utility.yul\":12813:12816   */\n      dup3\n        /* \"#utility.yul\":12808:12811   */\n      dup6\n        /* \"#utility.yul\":12771:12825   */\n      tag_432\n      jump\t// in\n    tag_624:\n        /* \"#utility.yul\":12490:12831   */\n      pop\n        /* \"#utility.yul\":12406:12831   */\n      swap4\n      swap3\n      pop\n      pop\n      pop\n      jump\t// out\n        /* \"#utility.yul\":12851:13191   */\n    tag_434:\n        /* \"#utility.yul\":12907:12912   */\n      0x00\n        /* \"#utility.yul\":12956:12959   */\n      dup3\n        /* \"#utility.yul\":12949:12953   */\n      0x1f\n        /* \"#utility.yul\":12941:12947   */\n      dup4\n        /* \"#utility.yul\":12937:12954   */\n      add\n        /* \"#utility.yul\":12933:12960   */\n      slt\n        /* \"#utility.yul\":12923:13045   */\n      tag_626\n      jumpi\n        /* \"#utility.yul\":12964:13043   */\n      tag_627\n      tag_427\n      jump\t// in\n    tag_627:\n        /* \"#utility.yul\":12923:13045   */\n    tag_626:\n        /* \"#utility.yul\":13081:13087   */\n      dup2\n        /* \"#utility.yul\":13068:13088   */\n      calldataload\n        /* \"#utility.yul\":13106:13185   */\n      tag_628\n        /* \"#utility.yul\":13181:13184   */\n      dup5\n        /* \"#utility.yul\":13173:13179   */\n      dup3\n        /* \"#utility.yul\":13166:13170   */\n      0x20\n        /* \"#utility.yul\":13158:13164   */\n      dup7\n        /* \"#utility.yul\":13154:13171   */\n      add\n        /* \"#utility.yul\":13106:13185   */\n      tag_433\n      jump\t// in\n    tag_628:\n        /* \"#utility.yul\":13097:13185   */\n      swap2\n      pop\n        /* \"#utility.yul\":12913:13191   */\n      pop\n        /* \"#utility.yul\":12851:13191   */\n      swap3\n      swap2\n      pop\n      pop\n      jump\t// out\n        /* \"#utility.yul\":13197:14142   */\n    tag_77:\n        /* \"#utility.yul\":13293:13299   */\n      0x00\n        /* \"#utility.yul\":13301:13307   */\n      dup1\n        /* \"#utility.yul\":13309:13315   */\n      0x00\n        /* \"#utility.yul\":13317:13323   */\n      dup1\n        /* \"#utility.yul\":13366:13369   */\n      0x80\n        /* \"#utility.yul\":13354:13363   */\n      dup6\n        /* \"#utility.yul\":13345:13352   */\n      dup8\n        /* \"#utility.yul\":13341:13364   */\n      sub\n        /* \"#utility.yul\":13337:13370   */\n      slt\n        /* \"#utility.yul\":13334:13454   */\n      iszero\n      tag_630\n      jumpi\n        /* \"#utility.yul\":13373:13452   */\n      tag_631\n      tag_397\n      jump\t// in\n    tag_631:\n        /* \"#utility.yul\":13334:13454   */\n    tag_630:\n        /* \"#utility.yul\":13493:13494   */\n      0x00\n        /* \"#utility.yul\":13518:13571   */\n      tag_632\n        /* \"#utility.yul\":13563:13570   */\n      dup8\n        /* \"#utility.yul\":13554:13560   */\n      dup3\n        /* \"#utility.yul\":13543:13552   */\n      dup9\n        /* \"#utility.yul\":13539:13561   */\n      add\n        /* \"#utility.yul\":13518:13571   */\n      tag_415\n      jump\t// in\n    tag_632:\n        /* \"#utility.yul\":13508:13571   */\n      swap5\n      pop\n        /* \"#utility.yul\":13464:13581   */\n      pop\n        /* \"#utility.yul\":13648:13650   */\n      0x20\n        /* \"#utility.yul\":13637:13646   */\n      dup6\n        /* \"#utility.yul\":13633:13651   */\n      add\n        /* \"#utility.yul\":13620:13652   */\n      calldataload\n        /* \"#utility.yul\":13679:13697   */\n      0xffffffffffffffff\n        /* \"#utility.yul\":13671:13677   */\n      dup2\n        /* \"#utility.yul\":13668:13698   */\n      gt\n        /* \"#utility.yul\":13665:13782   */\n      iszero\n      tag_633\n      jumpi\n        /* \"#utility.yul\":13701:13780   */\n      tag_634\n      tag_398\n      jump\t// in\n    tag_634:\n        /* \"#utility.yul\":13665:13782   */\n    tag_633:\n        /* \"#utility.yul\":13806:13869   */\n      tag_635\n        /* \"#utility.yul\":13861:13868   */\n      dup8\n        /* \"#utility.yul\":13852:13858   */\n      dup3\n        /* \"#utility.yul\":13841:13850   */\n      dup9\n        /* \"#utility.yul\":13837:13859   */\n      add\n        /* \"#utility.yul\":13806:13869   */\n      tag_434\n      jump\t// in\n    tag_635:\n        /* \"#utility.yul\":13796:13869   */\n      swap4\n      pop\n        /* \"#utility.yul\":13591:13879   */\n      pop\n        /* \"#utility.yul\":13918:13920   */\n      0x40\n        /* \"#utility.yul\":13944:13997   */\n      tag_636\n        /* \"#utility.yul\":13989:13996   */\n      dup8\n        /* \"#utility.yul\":13980:13986   */\n      dup3\n        /* \"#utility.yul\":13969:13978   */\n      dup9\n        /* \"#utility.yul\":13965:13987   */\n      add\n        /* \"#utility.yul\":13944:13997   */\n      tag_415\n      jump\t// in\n    tag_636:\n        /* \"#utility.yul\":13934:13997   */\n      swap3\n      pop\n        /* \"#utility.yul\":13889:14007   */\n      pop\n        /* \"#utility.yul\":14046:14048   */\n      0x60\n        /* \"#utility.yul\":14072:14125   */\n      tag_637\n        /* \"#utility.yul\":14117:14124   */\n      dup8\n        /* \"#utility.yul\":14108:14114   */\n      dup3\n        /* \"#utility.yul\":14097:14106   */\n      dup9\n        /* \"#utility.yul\":14093:14115   */\n      add\n        /* \"#utility.yul\":14072:14125   */\n      tag_415\n      jump\t// in\n    tag_637:\n        /* \"#utility.yul\":14062:14125   */\n      swap2\n      pop\n        /* \"#utility.yul\":14017:14135   */\n      pop\n        /* \"#utility.yul\":13197:14142   */\n      swap3\n      swap6\n      swap2\n      swap5\n      pop\n      swap3\n      pop\n      jump\t// out\n        /* \"#utility.yul\":14148:14622   */\n    tag_86:\n        /* \"#utility.yul\":14216:14222   */\n      0x00\n        /* \"#utility.yul\":14224:14230   */\n      dup1\n        /* \"#utility.yul\":14273:14275   */\n      0x40\n        /* \"#utility.yul\":14261:14270   */\n      dup4\n        /* \"#utility.yul\":14252:14259   */\n      dup6\n        /* \"#utility.yul\":14248:14271   */\n      sub\n        /* \"#utility.yul\":14244:14276   */\n      slt\n        /* \"#utility.yul\":14241:14360   */\n      iszero\n      tag_639\n      jumpi\n        /* \"#utility.yul\":14279:14358   */\n      tag_640\n      tag_397\n      jump\t// in\n    tag_640:\n        /* \"#utility.yul\":14241:14360   */\n    tag_639:\n        /* \"#utility.yul\":14399:14400   */\n      0x00\n        /* \"#utility.yul\":14424:14477   */\n      tag_641\n        /* \"#utility.yul\":14469:14476   */\n      dup6\n        /* \"#utility.yul\":14460:14466   */\n      dup3\n        /* \"#utility.yul\":14449:14458   */\n      dup7\n        /* \"#utility.yul\":14445:14467   */\n      add\n        /* \"#utility.yul\":14424:14477   */\n      tag_415\n      jump\t// in\n    tag_641:\n        /* \"#utility.yul\":14414:14477   */\n      swap3\n      pop\n        /* \"#utility.yul\":14370:14487   */\n      pop\n        /* \"#utility.yul\":14526:14528   */\n      0x20\n        /* \"#utility.yul\":14552:14605   */\n      tag_642\n        /* \"#utility.yul\":14597:14604   */\n      dup6\n        /* \"#utility.yul\":14588:14594   */\n      dup3\n        /* \"#utility.yul\":14577:14586   */\n      dup7\n        /* \"#utility.yul\":14573:14595   */\n      add\n        /* \"#utility.yul\":14552:14605   */\n      tag_415\n      jump\t// in\n    tag_642:\n        /* \"#utility.yul\":14542:14605   */\n      swap2\n      pop\n        /* \"#utility.yul\":14497:14615   */\n      pop\n        /* \"#utility.yul\":14148:14622   */\n      swap3\n      pop\n      swap3\n      swap1\n      pop\n      jump\t// out\n        /* \"#utility.yul\":14628:15282   */\n    tag_91:\n        /* \"#utility.yul\":14706:14712   */\n      0x00\n        /* \"#utility.yul\":14714:14720   */\n      dup1\n        /* \"#utility.yul\":14763:14765   */\n      0x40\n        /* \"#utility.yul\":14751:14760   */\n      dup4\n        /* \"#utility.yul\":14742:14749   */\n      dup6\n        /* \"#utility.yul\":14738:14761   */\n      sub\n        /* \"#utility.yul\":14734:14766   */\n      slt\n        /* \"#utility.yul\":14731:14850   */\n      iszero\n      tag_644\n      jumpi\n        /* \"#utility.yul\":14769:14848   */\n      tag_645\n      tag_397\n      jump\t// in\n    tag_645:\n        /* \"#utility.yul\":14731:14850   */\n    tag_644:\n        /* \"#utility.yul\":14917:14918   */\n      0x00\n        /* \"#utility.yul\":14906:14915   */\n      dup4\n        /* \"#utility.yul\":14902:14919   */\n      add\n        /* \"#utility.yul\":14889:14920   */\n      calldataload\n        /* \"#utility.yul\":14947:14965   */\n      0xffffffffffffffff\n        /* \"#utility.yul\":14939:14945   */\n      dup2\n        /* \"#utility.yul\":14936:14966   */\n      gt\n        /* \"#utility.yul\":14933:15050   */\n      iszero\n      tag_646\n      jumpi\n        /* \"#utility.yul\":14969:15048   */\n      tag_647\n      tag_398\n      jump\t// in\n    tag_647:\n        /* \"#utility.yul\":14933:15050   */\n    tag_646:\n        /* \"#utility.yul\":15074:15137   */\n      tag_648\n        /* \"#utility.yul\":15129:15136   */\n      dup6\n        /* \"#utility.yul\":15120:15126   */\n      dup3\n        /* \"#utility.yul\":15109:15118   */\n      dup7\n        /* \"#utility.yul\":15105:15127   */\n      add\n        /* \"#utility.yul\":15074:15137   */\n      tag_434\n      jump\t// in\n    tag_648:\n        /* \"#utility.yul\":15064:15137   */\n      swap3\n      pop\n        /* \"#utility.yul\":14860:15147   */\n      pop\n        /* \"#utility.yul\":15186:15188   */\n      0x20\n        /* \"#utility.yul\":15212:15265   */\n      tag_649\n        /* \"#utility.yul\":15257:15264   */\n      dup6\n        /* \"#utility.yul\":15248:15254   */\n      dup3\n        /* \"#utility.yul\":15237:15246   */\n      dup7\n        /* \"#utility.yul\":15233:15255   */\n      add\n        /* \"#utility.yul\":15212:15265   */\n      tag_415\n      jump\t// in\n    tag_649:\n        /* \"#utility.yul\":15202:15265   */\n      swap2\n      pop\n        /* \"#utility.yul\":15157:15275   */\n      pop\n        /* \"#utility.yul\":14628:15282   */\n      swap3\n      pop\n      swap3\n      swap1\n      pop\n      jump\t// out\n        /* \"#utility.yul\":15288:15402   */\n    tag_435:\n        /* \"#utility.yul\":15355:15361   */\n      0x00\n        /* \"#utility.yul\":15389:15394   */\n      dup2\n        /* \"#utility.yul\":15383:15395   */\n      mload\n        /* \"#utility.yul\":15373:15395   */\n      swap1\n      pop\n        /* \"#utility.yul\":15288:15402   */\n      swap2\n      swap1\n      pop\n      jump\t// out\n        /* \"#utility.yul\":15408:15592   */\n    tag_436:\n        /* \"#utility.yul\":15507:15518   */\n      0x00\n        /* \"#utility.yul\":15541:15547   */\n      dup3\n        /* \"#utility.yul\":15536:15539   */\n      dup3\n        /* \"#utility.yul\":15529:15548   */\n      mstore\n        /* \"#utility.yul\":15581:15585   */\n      0x20\n        /* \"#utility.yul\":15576:15579   */\n      dup3\n        /* \"#utility.yul\":15572:15586   */\n      add\n        /* \"#utility.yul\":15557:15586   */\n      swap1\n      pop\n        /* \"#utility.yul\":15408:15592   */\n      swap3\n      swap2\n      pop\n      pop\n      jump\t// out\n        /* \"#utility.yul\":15598:15730   */\n    tag_437:\n        /* \"#utility.yul\":15665:15669   */\n      0x00\n        /* \"#utility.yul\":15688:15691   */\n      dup2\n        /* \"#utility.yul\":15680:15691   */\n      swap1\n      pop\n        /* \"#utility.yul\":15718:15722   */\n      0x20\n        /* \"#utility.yul\":15713:15716   */\n      dup3\n        /* \"#utility.yul\":15709:15723   */\n      add\n        /* \"#utility.yul\":15701:15723   */\n      swap1\n      pop\n        /* \"#utility.yul\":15598:15730   */\n      swap2\n      swap1\n      pop\n      jump\t// out\n        /* \"#utility.yul\":15736:15915   */\n    tag_438:\n        /* \"#utility.yul\":15805:15815   */\n      0x00\n        /* \"#utility.yul\":15826:15872   */\n      tag_654\n        /* \"#utility.yul\":15868:15871   */\n      dup4\n        /* \"#utility.yul\":15860:15866   */\n      dup4\n        /* \"#utility.yul\":15826:15872   */\n      tag_420\n      jump\t// in\n    tag_654:\n        /* \"#utility.yul\":15904:15908   */\n      0x20\n        /* \"#utility.yul\":15899:15902   */\n      dup4\n        /* \"#utility.yul\":15895:15909   */\n      add\n        /* \"#utility.yul\":15881:15909   */\n      swap1\n      pop\n        /* \"#utility.yul\":15736:15915   */\n      swap3\n      swap2\n      pop\n      pop\n      jump\t// out\n        /* \"#utility.yul\":15921:16034   */\n    tag_439:\n        /* \"#utility.yul\":15991:15995   */\n      0x00\n        /* \"#utility.yul\":16023:16027   */\n      0x20\n        /* \"#utility.yul\":16018:16021   */\n      dup3\n        /* \"#utility.yul\":16014:16028   */\n      add\n        /* \"#utility.yul\":16006:16028   */\n      swap1\n      pop\n        /* \"#utility.yul\":15921:16034   */\n      swap2\n      swap1\n      pop\n      jump\t// out\n        /* \"#utility.yul\":16070:16802   */\n    tag_440:\n        /* \"#utility.yul\":16189:16192   */\n      0x00\n        /* \"#utility.yul\":16218:16272   */\n      tag_657\n        /* \"#utility.yul\":16266:16271   */\n      dup3\n        /* \"#utility.yul\":16218:16272   */\n      tag_435\n      jump\t// in\n    tag_657:\n        /* \"#utility.yul\":16288:16374   */\n      tag_658\n        /* \"#utility.yul\":16367:16373   */\n      dup2\n        /* \"#utility.yul\":16362:16365   */\n      dup6\n        /* \"#utility.yul\":16288:16374   */\n      tag_436\n      jump\t// in\n    tag_658:\n        /* \"#utility.yul\":16281:16374   */\n      swap4\n      pop\n        /* \"#utility.yul\":16398:16454   */\n      tag_659\n        /* \"#utility.yul\":16448:16453   */\n      dup4\n        /* \"#utility.yul\":16398:16454   */\n      tag_437\n      jump\t// in\n    tag_659:\n        /* \"#utility.yul\":16477:16484   */\n      dup1\n        /* \"#utility.yul\":16508:16509   */\n      0x00\n        /* \"#utility.yul\":16493:16777   */\n    tag_660:\n        /* \"#utility.yul\":16518:16524   */\n      dup4\n        /* \"#utility.yul\":16515:16516   */\n      dup2\n        /* \"#utility.yul\":16512:16525   */\n      lt\n        /* \"#utility.yul\":16493:16777   */\n      iszero\n      tag_662\n      jumpi\n        /* \"#utility.yul\":16594:16600   */\n      dup2\n        /* \"#utility.yul\":16588:16601   */\n      mload\n        /* \"#utility.yul\":16621:16684   */\n      tag_663\n        /* \"#utility.yul\":16680:16683   */\n      dup9\n        /* \"#utility.yul\":16665:16678   */\n      dup3\n        /* \"#utility.yul\":16621:16684   */\n      tag_438\n      jump\t// in\n    tag_663:\n        /* \"#utility.yul\":16614:16684   */\n      swap8\n      pop\n        /* \"#utility.yul\":16707:16767   */\n      tag_664\n        /* \"#utility.yul\":16760:16766   */\n      dup4\n        /* \"#utility.yul\":16707:16767   */\n      tag_439\n      jump\t// in\n    tag_664:\n        /* \"#utility.yul\":16697:16767   */\n      swap3\n      pop\n        /* \"#utility.yul\":16553:16777   */\n      pop\n        /* \"#utility.yul\":16540:16541   */\n      0x01\n        /* \"#utility.yul\":16537:16538   */\n      dup2\n        /* \"#utility.yul\":16533:16542   */\n      add\n        /* \"#utility.yul\":16528:16542   */\n      swap1\n      pop\n        /* \"#utility.yul\":16493:16777   */\n      jump(tag_660)\n    tag_662:\n        /* \"#utility.yul\":16497:16511   */\n      pop\n        /* \"#utility.yul\":16793:16796   */\n      dup6\n        /* \"#utility.yul\":16786:16796   */\n      swap4\n      pop\n        /* \"#utility.yul\":16194:16802   */\n      pop\n      pop\n      pop\n        /* \"#utility.yul\":16070:16802   */\n      swap3\n      swap2\n      pop\n      pop\n      jump\t// out\n        /* \"#utility.yul\":16808:16922   */\n    tag_441:\n        /* \"#utility.yul\":16875:16881   */\n      0x00\n        /* \"#utility.yul\":16909:16914   */\n      dup2\n        /* \"#utility.yul\":16903:16915   */\n      mload\n        /* \"#utility.yul\":16893:16915   */\n      swap1\n      pop\n        /* \"#utility.yul\":16808:16922   */\n      swap2\n      swap1\n      pop\n      jump\t// out\n        /* \"#utility.yul\":16928:17112   */\n    tag_442:\n        /* \"#utility.yul\":17027:17038   */\n      0x00\n        /* \"#utility.yul\":17061:17067   */\n      dup3\n        /* \"#utility.yul\":17056:17059   */\n      dup3\n        /* \"#utility.yul\":17049:17068   */\n      mstore\n        /* \"#utility.yul\":17101:17105   */\n      0x20\n        /* \"#utility.yul\":17096:17099   */\n      dup3\n        /* \"#utility.yul\":17092:17106   */\n      add\n        /* \"#utility.yul\":17077:17106   */\n      swap1\n      pop\n        /* \"#utility.yul\":16928:17112   */\n      swap3\n      swap2\n      pop\n      pop\n      jump\t// out\n        /* \"#utility.yul\":17118:17250   */\n    tag_443:\n        /* \"#utility.yul\":17185:17189   */\n      0x00\n        /* \"#utility.yul\":17208:17211   */\n      dup2\n        /* \"#utility.yul\":17200:17211   */\n      swap1\n      pop\n        /* \"#utility.yul\":17238:17242   */\n      0x20\n        /* \"#utility.yul\":17233:17236   */\n      dup3\n        /* \"#utility.yul\":17229:17243   */\n      add\n        /* \"#utility.yul\":17221:17243   */\n      swap1\n      pop\n        /* \"#utility.yul\":17118:17250   */\n      swap2\n      swap1\n      pop\n      jump\t// out\n        /* \"#utility.yul\":17256:17435   */\n    tag_444:\n        /* \"#utility.yul\":17325:17335   */\n      0x00\n        /* \"#utility.yul\":17346:17392   */\n      tag_669\n        /* \"#utility.yul\":17388:17391   */\n      dup4\n        /* \"#utility.yul\":17380:17386   */\n      dup4\n        /* \"#utility.yul\":17346:17392   */\n      tag_410\n      jump\t// in\n    tag_669:\n        /* \"#utility.yul\":17424:17428   */\n      0x20\n        /* \"#utility.yul\":17419:17422   */\n      dup4\n        /* \"#utility.yul\":17415:17429   */\n      add\n        /* \"#utility.yul\":17401:17429   */\n      swap1\n      pop\n        /* \"#utility.yul\":17256:17435   */\n      swap3\n      swap2\n      pop\n      pop\n      jump\t// out\n        /* \"#utility.yul\":17441:17554   */\n    tag_445:\n        /* \"#utility.yul\":17511:17515   */\n      0x00\n        /* \"#utility.yul\":17543:17547   */\n      0x20\n        /* \"#utility.yul\":17538:17541   */\n      dup3\n        /* \"#utility.yul\":17534:17548   */\n      add\n        /* \"#utility.yul\":17526:17548   */\n      swap1\n      pop\n        /* \"#utility.yul\":17441:17554   */\n      swap2\n      swap1\n      pop\n      jump\t// out\n        /* \"#utility.yul\":17590:18322   */\n    tag_446:\n        /* \"#utility.yul\":17709:17712   */\n      0x00\n        /* \"#utility.yul\":17738:17792   */\n      tag_672\n        /* \"#utility.yul\":17786:17791   */\n      dup3\n        /* \"#utility.yul\":17738:17792   */\n      tag_441\n      jump\t// in\n    tag_672:\n        /* \"#utility.yul\":17808:17894   */\n      tag_673\n        /* \"#utility.yul\":17887:17893   */\n      dup2\n        /* \"#utility.yul\":17882:17885   */\n      dup6\n        /* \"#utility.yul\":17808:17894   */\n      tag_442\n      jump\t// in\n    tag_673:\n        /* \"#utility.yul\":17801:17894   */\n      swap4\n      pop\n        /* \"#utility.yul\":17918:17974   */\n      tag_674\n        /* \"#utility.yul\":17968:17973   */\n      dup4\n        /* \"#utility.yul\":17918:17974   */\n      tag_443\n      jump\t// in\n    tag_674:\n        /* \"#utility.yul\":17997:18004   */\n      dup1\n        /* \"#utility.yul\":18028:18029   */\n      0x00\n        /* \"#utility.yul\":18013:18297   */\n    tag_675:\n        /* \"#utility.yul\":18038:18044   */\n      dup4\n        /* \"#utility.yul\":18035:18036   */\n      dup2\n        /* \"#utility.yul\":18032:18045   */\n      lt\n        /* \"#utility.yul\":18013:18297   */\n      iszero\n      tag_677\n      jumpi\n        /* \"#utility.yul\":18114:18120   */\n      dup2\n        /* \"#utility.yul\":18108:18121   */\n      mload\n        /* \"#utility.yul\":18141:18204   */\n      tag_678\n        /* \"#utility.yul\":18200:18203   */\n      dup9\n        /* \"#utility.yul\":18185:18198   */\n      dup3\n        /* \"#utility.yul\":18141:18204   */\n      tag_444\n      jump\t// in\n    tag_678:\n        /* \"#utility.yul\":18134:18204   */\n      swap8\n      pop\n        /* \"#utility.yul\":18227:18287   */\n      tag_679\n        /* \"#utility.yul\":18280:18286   */\n      dup4\n        /* \"#utility.yul\":18227:18287   */\n      tag_445\n      jump\t// in\n    tag_679:\n        /* \"#utility.yul\":18217:18287   */\n      swap3\n      pop\n        /* \"#utility.yul\":18073:18297   */\n      pop\n        /* \"#utility.yul\":18060:18061   */\n      0x01\n        /* \"#utility.yul\":18057:18058   */\n      dup2\n        /* \"#utility.yul\":18053:18062   */\n      add\n        /* \"#utility.yul\":18048:18062   */\n      swap1\n      pop\n        /* \"#utility.yul\":18013:18297   */\n      jump(tag_675)\n    tag_677:\n        /* \"#utility.yul\":18017:18031   */\n      pop\n        /* \"#utility.yul\":18313:18316   */\n      dup6\n        /* \"#utility.yul\":18306:18316   */\n      swap4\n      pop\n        /* \"#utility.yul\":17714:18322   */\n      pop\n      pop\n      pop\n        /* \"#utility.yul\":17590:18322   */\n      swap3\n      swap2\n      pop\n      pop\n      jump\t// out\n        /* \"#utility.yul\":18328:18962   */\n    tag_97:\n        /* \"#utility.yul\":18549:18553   */\n      0x00\n        /* \"#utility.yul\":18587:18589   */\n      0x40\n        /* \"#utility.yul\":18576:18585   */\n      dup3\n        /* \"#utility.yul\":18572:18590   */\n      add\n        /* \"#utility.yul\":18564:18590   */\n      swap1\n      pop\n        /* \"#utility.yul\":18636:18645   */\n      dup2\n        /* \"#utility.yul\":18630:18634   */\n      dup2\n        /* \"#utility.yul\":18626:18646   */\n      sub\n        /* \"#utility.yul\":18622:18623   */\n      0x00\n        /* \"#utility.yul\":18611:18620   */\n      dup4\n        /* \"#utility.yul\":18607:18624   */\n      add\n        /* \"#utility.yul\":18600:18647   */\n      mstore\n        /* \"#utility.yul\":18664:18772   */\n      tag_681\n        /* \"#utility.yul\":18767:18771   */\n      dup2\n        /* \"#utility.yul\":18758:18764   */\n      dup6\n        /* \"#utility.yul\":18664:18772   */\n      tag_440\n      jump\t// in\n    tag_681:\n        /* \"#utility.yul\":18656:18772   */\n      swap1\n      pop\n        /* \"#utility.yul\":18819:18828   */\n      dup2\n        /* \"#utility.yul\":18813:18817   */\n      dup2\n        /* \"#utility.yul\":18809:18829   */\n      sub\n        /* \"#utility.yul\":18804:18806   */\n      0x20\n        /* \"#utility.yul\":18793:18802   */\n      dup4\n        /* \"#utility.yul\":18789:18807   */\n      add\n        /* \"#utility.yul\":18782:18830   */\n      mstore\n        /* \"#utility.yul\":18847:18955   */\n      tag_682\n        /* \"#utility.yul\":18950:18954   */\n      dup2\n        /* \"#utility.yul\":18941:18947   */\n      dup5\n        /* \"#utility.yul\":18847:18955   */\n      tag_446\n      jump\t// in\n    tag_682:\n        /* \"#utility.yul\":18839:18955   */\n      swap1\n      pop\n        /* \"#utility.yul\":18328:18962   */\n      swap4\n      swap3\n      pop\n      pop\n      pop\n      jump\t// out\n        /* \"#utility.yul\":18968:19190   */\n    tag_114:\n        /* \"#utility.yul\":19061:19065   */\n      0x00\n        /* \"#utility.yul\":19099:19101   */\n      0x20\n        /* \"#utility.yul\":19088:19097   */\n      dup3\n        /* \"#utility.yul\":19084:19102   */\n      add\n        /* \"#utility.yul\":19076:19102   */\n      swap1\n      pop\n        /* \"#utility.yul\":19112:19183   */\n      tag_684\n        /* \"#utility.yul\":19180:19181   */\n      0x00\n        /* \"#utility.yul\":19169:19178   */\n      dup4\n        /* \"#utility.yul\":19165:19182   */\n      add\n        /* \"#utility.yul\":19156:19162   */\n      dup5\n        /* \"#utility.yul\":19112:19183   */\n      tag_416\n      jump\t// in\n    tag_684:\n        /* \"#utility.yul\":18968:19190   */\n      swap3\n      swap2\n      pop\n      pop\n      jump\t// out\n        /* \"#utility.yul\":19196:19815   */\n    tag_121:\n        /* \"#utility.yul\":19273:19279   */\n      0x00\n        /* \"#utility.yul\":19281:19287   */\n      dup1\n        /* \"#utility.yul\":19289:19295   */\n      0x00\n        /* \"#utility.yul\":19338:19340   */\n      0x60\n        /* \"#utility.yul\":19326:19335   */\n      dup5\n        /* \"#utility.yul\":19317:19324   */\n      dup7\n        /* \"#utility.yul\":19313:19336   */\n      sub\n        /* \"#utility.yul\":19309:19341   */\n      slt\n        /* \"#utility.yul\":19306:19425   */\n      iszero\n      tag_686\n      jumpi\n        /* \"#utility.yul\":19344:19423   */\n      tag_687\n      tag_397\n      jump\t// in\n    tag_687:\n        /* \"#utility.yul\":19306:19425   */\n    tag_686:\n        /* \"#utility.yul\":19464:19465   */\n      0x00\n        /* \"#utility.yul\":19489:19542   */\n      tag_688\n        /* \"#utility.yul\":19534:19541   */\n      dup7\n        /* \"#utility.yul\":19525:19531   */\n      dup3\n        /* \"#utility.yul\":19514:19523   */\n      dup8\n        /* \"#utility.yul\":19510:19532   */\n      add\n        /* \"#utility.yul\":19489:19542   */\n      tag_402\n      jump\t// in\n    tag_688:\n        /* \"#utility.yul\":19479:19542   */\n      swap4\n      pop\n        /* \"#utility.yul\":19435:19552   */\n      pop\n        /* \"#utility.yul\":19591:19593   */\n      0x20\n        /* \"#utility.yul\":19617:19670   */\n      tag_689\n        /* \"#utility.yul\":19662:19669   */\n      dup7\n        /* \"#utility.yul\":19653:19659   */\n      dup3\n        /* \"#utility.yul\":19642:19651   */\n      dup8\n        /* \"#utility.yul\":19638:19660   */\n      add\n        /* \"#utility.yul\":19617:19670   */\n      tag_415\n      jump\t// in\n    tag_689:\n        /* \"#utility.yul\":19607:19670   */\n      swap3\n      pop\n        /* \"#utility.yul\":19562:19680   */\n      pop\n        /* \"#utility.yul\":19719:19721   */\n      0x40\n        /* \"#utility.yul\":19745:19798   */\n      tag_690\n        /* \"#utility.yul\":19790:19797   */\n      dup7\n        /* \"#utility.yul\":19781:19787   */\n      dup3\n        /* \"#utility.yul\":19770:19779   */\n      dup8\n        /* \"#utility.yul\":19766:19788   */\n      add\n        /* \"#utility.yul\":19745:19798   */\n      tag_415\n      jump\t// in\n    tag_690:\n        /* \"#utility.yul\":19735:19798   */\n      swap2\n      pop\n        /* \"#utility.yul\":19690:19808   */\n      pop\n        /* \"#utility.yul\":19196:19815   */\n      swap3\n      pop\n      swap3\n      pop\n      swap3\n      jump\t// out\n        /* \"#utility.yul\":19821:19937   */\n    tag_447:\n        /* \"#utility.yul\":19891:19912   */\n      tag_692\n        /* \"#utility.yul\":19906:19911   */\n      dup2\n        /* \"#utility.yul\":19891:19912   */\n      tag_425\n      jump\t// in\n    tag_692:\n        /* \"#utility.yul\":19884:19889   */\n      dup2\n        /* \"#utility.yul\":19881:19913   */\n      eq\n        /* \"#utility.yul\":19871:19931   */\n      tag_693\n      jumpi\n        /* \"#utility.yul\":19927:19928   */\n      0x00\n        /* \"#utility.yul\":19924:19925   */\n      dup1\n        /* \"#utility.yul\":19917:19929   */\n      revert\n        /* \"#utility.yul\":19871:19931   */\n    tag_693:\n        /* \"#utility.yul\":19821:19937   */\n      pop\n      jump\t// out\n        /* \"#utility.yul\":19943:20076   */\n    tag_448:\n        /* \"#utility.yul\":19986:19991   */\n      0x00\n        /* \"#utility.yul\":20024:20030   */\n      dup2\n        /* \"#utility.yul\":20011:20031   */\n      calldataload\n        /* \"#utility.yul\":20002:20031   */\n      swap1\n      pop\n        /* \"#utility.yul\":20040:20070   */\n      tag_695\n        /* \"#utility.yul\":20064:20069   */\n      dup2\n        /* \"#utility.yul\":20040:20070   */\n      tag_447\n      jump\t// in\n    tag_695:\n        /* \"#utility.yul\":19943:20076   */\n      swap3\n      swap2\n      pop\n      pop\n      jump\t// out\n        /* \"#utility.yul\":20082:20405   */\n    tag_126:\n        /* \"#utility.yul\":20138:20144   */\n      0x00\n        /* \"#utility.yul\":20187:20189   */\n      0x20\n        /* \"#utility.yul\":20175:20184   */\n      dup3\n        /* \"#utility.yul\":20166:20173   */\n      dup5\n        /* \"#utility.yul\":20162:20185   */\n      sub\n        /* \"#utility.yul\":20158:20190   */\n      slt\n        /* \"#utility.yul\":20155:20274   */\n      iszero\n      tag_697\n      jumpi\n        /* \"#utility.yul\":20193:20272   */\n      tag_698\n      tag_397\n      jump\t// in\n    tag_698:\n        /* \"#utility.yul\":20155:20274   */\n    tag_697:\n        /* \"#utility.yul\":20313:20314   */\n      0x00\n        /* \"#utility.yul\":20338:20388   */\n      tag_699\n        /* \"#utility.yul\":20380:20387   */\n      dup5\n        /* \"#utility.yul\":20371:20377   */\n      dup3\n        /* \"#utility.yul\":20360:20369   */\n      dup6\n        /* \"#utility.yul\":20356:20378   */\n      add\n        /* \"#utility.yul\":20338:20388   */\n      tag_448\n      jump\t// in\n    tag_699:\n        /* \"#utility.yul\":20328:20388   */\n      swap2\n      pop\n        /* \"#utility.yul\":20284:20398   */\n      pop\n        /* \"#utility.yul\":20082:20405   */\n      swap3\n      swap2\n      pop\n      pop\n      jump\t// out\n        /* \"#utility.yul\":20411:21166   */\n    tag_137:\n        /* \"#utility.yul\":20636:20640   */\n      0x00\n        /* \"#utility.yul\":20674:20677   */\n      0xa0\n        /* \"#utility.yul\":20663:20672   */\n      dup3\n        /* \"#utility.yul\":20659:20678   */\n      add\n        /* \"#utility.yul\":20651:20678   */\n      swap1\n      pop\n        /* \"#utility.yul\":20688:20759   */\n      tag_701\n        /* \"#utility.yul\":20756:20757   */\n      0x00\n        /* \"#utility.yul\":20745:20754   */\n      dup4\n        /* \"#utility.yul\":20741:20758   */\n      add\n        /* \"#utility.yul\":20732:20738   */\n      dup9\n        /* \"#utility.yul\":20688:20759   */\n      tag_416\n      jump\t// in\n    tag_701:\n        /* \"#utility.yul\":20769:20841   */\n      tag_702\n        /* \"#utility.yul\":20837:20839   */\n      0x20\n        /* \"#utility.yul\":20826:20835   */\n      dup4\n        /* \"#utility.yul\":20822:20840   */\n      add\n        /* \"#utility.yul\":20813:20819   */\n      dup8\n        /* \"#utility.yul\":20769:20841   */\n      tag_404\n      jump\t// in\n    tag_702:\n        /* \"#utility.yul\":20851:20923   */\n      tag_703\n        /* \"#utility.yul\":20919:20921   */\n      0x40\n        /* \"#utility.yul\":20908:20917   */\n      dup4\n        /* \"#utility.yul\":20904:20922   */\n      add\n        /* \"#utility.yul\":20895:20901   */\n      dup7\n        /* \"#utility.yul\":20851:20923   */\n      tag_404\n      jump\t// in\n    tag_703:\n        /* \"#utility.yul\":20970:20979   */\n      dup2\n        /* \"#utility.yul\":20964:20968   */\n      dup2\n        /* \"#utility.yul\":20960:20980   */\n      sub\n        /* \"#utility.yul\":20955:20957   */\n      0x60\n        /* \"#utility.yul\":20944:20953   */\n      dup4\n        /* \"#utility.yul\":20940:20958   */\n      add\n        /* \"#utility.yul\":20933:20981   */\n      mstore\n        /* \"#utility.yul\":20998:21076   */\n      tag_704\n        /* \"#utility.yul\":21071:21075   */\n      dup2\n        /* \"#utility.yul\":21062:21068   */\n      dup6\n        /* \"#utility.yul\":20998:21076   */\n      tag_409\n      jump\t// in\n    tag_704:\n        /* \"#utility.yul\":20990:21076   */\n      swap1\n      pop\n        /* \"#utility.yul\":21086:21159   */\n      tag_705\n        /* \"#utility.yul\":21154:21157   */\n      0x80\n        /* \"#utility.yul\":21143:21152   */\n      dup4\n        /* \"#utility.yul\":21139:21158   */\n      add\n        /* \"#utility.yul\":21130:21136   */\n      dup5\n        /* \"#utility.yul\":21086:21159   */\n      tag_404\n      jump\t// in\n    tag_705:\n        /* \"#utility.yul\":20411:21166   */\n      swap7\n      swap6\n      pop\n      pop\n      pop\n      pop\n      pop\n      pop\n      jump\t// out\n        /* \"#utility.yul\":21172:21971   */\n    tag_150:\n        /* \"#utility.yul\":21259:21265   */\n      0x00\n        /* \"#utility.yul\":21267:21273   */\n      dup1\n        /* \"#utility.yul\":21275:21281   */\n      0x00\n        /* \"#utility.yul\":21324:21326   */\n      0x60\n        /* \"#utility.yul\":21312:21321   */\n      dup5\n        /* \"#utility.yul\":21303:21310   */\n      dup7\n        /* \"#utility.yul\":21299:21322   */\n      sub\n        /* \"#utility.yul\":21295:21327   */\n      slt\n        /* \"#utility.yul\":21292:21411   */\n      iszero\n      tag_707\n      jumpi\n        /* \"#utility.yul\":21330:21409   */\n      tag_708\n      tag_397\n      jump\t// in\n    tag_708:\n        /* \"#utility.yul\":21292:21411   */\n    tag_707:\n        /* \"#utility.yul\":21478:21479   */\n      0x00\n        /* \"#utility.yul\":21467:21476   */\n      dup5\n        /* \"#utility.yul\":21463:21480   */\n      add\n        /* \"#utility.yul\":21450:21481   */\n      calldataload\n        /* \"#utility.yul\":21508:21526   */\n      0xffffffffffffffff\n        /* \"#utility.yul\":21500:21506   */\n      dup2\n        /* \"#utility.yul\":21497:21527   */\n      gt\n        /* \"#utility.yul\":21494:21611   */\n      iszero\n      tag_709\n      jumpi\n        /* \"#utility.yul\":21530:21609   */\n      tag_710\n      tag_398\n      jump\t// in\n    tag_710:\n        /* \"#utility.yul\":21494:21611   */\n    tag_709:\n        /* \"#utility.yul\":21635:21698   */\n      tag_711\n        /* \"#utility.yul\":21690:21697   */\n      dup7\n        /* \"#utility.yul\":21681:21687   */\n      dup3\n        /* \"#utility.yul\":21670:21679   */\n      dup8\n        /* \"#utility.yul\":21666:21688   */\n      add\n        /* \"#utility.yul\":21635:21698   */\n      tag_434\n      jump\t// in\n    tag_711:\n        /* \"#utility.yul\":21625:21698   */\n      swap4\n      pop\n        /* \"#utility.yul\":21421:21708   */\n      pop\n        /* \"#utility.yul\":21747:21749   */\n      0x20\n        /* \"#utility.yul\":21773:21826   */\n      tag_712\n        /* \"#utility.yul\":21818:21825   */\n      dup7\n        /* \"#utility.yul\":21809:21815   */\n      dup3\n        /* \"#utility.yul\":21798:21807   */\n      dup8\n        /* \"#utility.yul\":21794:21816   */\n      add\n        /* \"#utility.yul\":21773:21826   */\n      tag_415\n      jump\t// in\n    tag_712:\n        /* \"#utility.yul\":21763:21826   */\n      swap3\n      pop\n        /* \"#utility.yul\":21718:21836   */\n      pop\n        /* \"#utility.yul\":21875:21877   */\n      0x40\n        /* \"#utility.yul\":21901:21954   */\n      tag_713\n        /* \"#utility.yul\":21946:21953   */\n      dup7\n        /* \"#utility.yul\":21937:21943   */\n      dup3\n        /* \"#utility.yul\":21926:21935   */\n      dup8\n        /* \"#utility.yul\":21922:21944   */\n      add\n        /* \"#utility.yul\":21901:21954   */\n      tag_415\n      jump\t// in\n    tag_713:\n        /* \"#utility.yul\":21891:21954   */\n      swap2\n      pop\n        /* \"#utility.yul\":21846:21964   */\n      pop\n        /* \"#utility.yul\":21172:21971   */\n      swap3\n      pop\n      swap3\n      pop\n      swap3\n      jump\t// out\n        /* \"#utility.yul\":21977:22157   */\n    tag_449:\n        /* \"#utility.yul\":22025:22102   */\n      0x4e487b7100000000000000000000000000000000000000000000000000000000\n        /* \"#utility.yul\":22022:22023   */\n      0x00\n        /* \"#utility.yul\":22015:22103   */\n      mstore\n        /* \"#utility.yul\":22122:22126   */\n      0x22\n        /* \"#utility.yul\":22119:22120   */\n      0x04\n        /* \"#utility.yul\":22112:22127   */\n      mstore\n        /* \"#utility.yul\":22146:22150   */\n      0x24\n        /* \"#utility.yul\":22143:22144   */\n      0x00\n        /* \"#utility.yul\":22136:22151   */\n      revert\n        /* \"#utility.yul\":22163:22483   */\n    tag_162:\n        /* \"#utility.yul\":22207:22213   */\n      0x00\n        /* \"#utility.yul\":22244:22245   */\n      0x02\n        /* \"#utility.yul\":22238:22242   */\n      dup3\n        /* \"#utility.yul\":22234:22246   */\n      div\n        /* \"#utility.yul\":22224:22246   */\n      swap1\n      pop\n        /* \"#utility.yul\":22291:22292   */\n      0x01\n        /* \"#utility.yul\":22285:22289   */\n      dup3\n        /* \"#utility.yul\":22281:22293   */\n      and\n        /* \"#utility.yul\":22312:22330   */\n      dup1\n        /* \"#utility.yul\":22302:22383   */\n      tag_716\n      jumpi\n        /* \"#utility.yul\":22368:22372   */\n      0x7f\n        /* \"#utility.yul\":22360:22366   */\n      dup3\n        /* \"#utility.yul\":22356:22373   */\n      and\n        /* \"#utility.yul\":22346:22373   */\n      swap2\n      pop\n        /* \"#utility.yul\":22302:22383   */\n    tag_716:\n        /* \"#utility.yul\":22430:22432   */\n      0x20\n        /* \"#utility.yul\":22422:22428   */\n      dup3\n        /* \"#utility.yul\":22419:22433   */\n      lt\n        /* \"#utility.yul\":22399:22417   */\n      dup2\n        /* \"#utility.yul\":22396:22434   */\n      sub\n        /* \"#utility.yul\":22393:22477   */\n      tag_717\n      jumpi\n        /* \"#utility.yul\":22449:22467   */\n      tag_718\n      tag_449\n      jump\t// in\n    tag_718:\n        /* \"#utility.yul\":22393:22477   */\n    tag_717:\n        /* \"#utility.yul\":22214:22483   */\n      pop\n        /* \"#utility.yul\":22163:22483   */\n      swap2\n      swap1\n      pop\n      jump\t// out\n        /* \"#utility.yul\":22489:22712   */\n    tag_450:\n        /* \"#utility.yul\":22629:22663   */\n      0x4f6e6c7920746865206f776e65722063616e20736574206d696e696d756d2076\n        /* \"#utility.yul\":22625:22626   */\n      0x00\n        /* \"#utility.yul\":22617:22623   */\n      dup3\n        /* \"#utility.yul\":22613:22627   */\n      add\n        /* \"#utility.yul\":22606:22664   */\n      mstore\n        /* \"#utility.yul\":22698:22704   */\n      0x6f74657300000000000000000000000000000000000000000000000000000000\n        /* \"#utility.yul\":22693:22695   */\n      0x20\n        /* \"#utility.yul\":22685:22691   */\n      dup3\n        /* \"#utility.yul\":22681:22696   */\n      add\n        /* \"#utility.yul\":22674:22705   */\n      mstore\n        /* \"#utility.yul\":22489:22712   */\n      pop\n      jump\t// out\n        /* \"#utility.yul\":22718:23084   */\n    tag_451:\n        /* \"#utility.yul\":22860:22863   */\n      0x00\n        /* \"#utility.yul\":22881:22948   */\n      tag_721\n        /* \"#utility.yul\":22945:22947   */\n      0x24\n        /* \"#utility.yul\":22940:22943   */\n      dup4\n        /* \"#utility.yul\":22881:22948   */\n      tag_406\n      jump\t// in\n    tag_721:\n        /* \"#utility.yul\":22874:22948   */\n      swap2\n      pop\n        /* \"#utility.yul\":22957:23050   */\n      tag_722\n        /* \"#utility.yul\":23046:23049   */\n      dup3\n        /* \"#utility.yul\":22957:23050   */\n      tag_450\n      jump\t// in\n    tag_722:\n        /* \"#utility.yul\":23075:23077   */\n      0x40\n        /* \"#utility.yul\":23070:23073   */\n      dup3\n        /* \"#utility.yul\":23066:23078   */\n      add\n        /* \"#utility.yul\":23059:23078   */\n      swap1\n      pop\n        /* \"#utility.yul\":22718:23084   */\n      swap2\n      swap1\n      pop\n      jump\t// out\n        /* \"#utility.yul\":23090:23509   */\n    tag_178:\n        /* \"#utility.yul\":23256:23260   */\n      0x00\n        /* \"#utility.yul\":23294:23296   */\n      0x20\n        /* \"#utility.yul\":23283:23292   */\n      dup3\n        /* \"#utility.yul\":23279:23297   */\n      add\n        /* \"#utility.yul\":23271:23297   */\n      swap1\n      pop\n        /* \"#utility.yul\":23343:23352   */\n      dup2\n        /* \"#utility.yul\":23337:23341   */\n      dup2\n        /* \"#utility.yul\":23333:23353   */\n      sub\n        /* \"#utility.yul\":23329:23330   */\n      0x00\n        /* \"#utility.yul\":23318:23327   */\n      dup4\n        /* \"#utility.yul\":23314:23331   */\n      add\n        /* \"#utility.yul\":23307:23354   */\n      mstore\n        /* \"#utility.yul\":23371:23502   */\n      tag_724\n        /* \"#utility.yul\":23497:23501   */\n      dup2\n        /* \"#utility.yul\":23371:23502   */\n      tag_451\n      jump\t// in\n    tag_724:\n        /* \"#utility.yul\":23363:23502   */\n      swap1\n      pop\n        /* \"#utility.yul\":23090:23509   */\n      swap2\n      swap1\n      pop\n      jump\t// out\n        /* \"#utility.yul\":23515:23683   */\n    tag_452:\n        /* \"#utility.yul\":23655:23675   */\n      0x496e76616c69642070726f6a6563742049440000000000000000000000000000\n        /* \"#utility.yul\":23651:23652   */\n      0x00\n        /* \"#utility.yul\":23643:23649   */\n      dup3\n        /* \"#utility.yul\":23639:23653   */\n      add\n        /* \"#utility.yul\":23632:23676   */\n      mstore\n        /* \"#utility.yul\":23515:23683   */\n      pop\n      jump\t// out\n        /* \"#utility.yul\":23689:24055   */\n    tag_453:\n        /* \"#utility.yul\":23831:23834   */\n      0x00\n        /* \"#utility.yul\":23852:23919   */\n      tag_727\n        /* \"#utility.yul\":23916:23918   */\n      0x12\n        /* \"#utility.yul\":23911:23914   */\n      dup4\n        /* \"#utility.yul\":23852:23919   */\n      tag_406\n      jump\t// in\n    tag_727:\n        /* \"#utility.yul\":23845:23919   */\n      swap2\n      pop\n        /* \"#utility.yul\":23928:24021   */\n      tag_728\n        /* \"#utility.yul\":24017:24020   */\n      dup3\n        /* \"#utility.yul\":23928:24021   */\n      tag_452\n      jump\t// in\n    tag_728:\n        /* \"#utility.yul\":24046:24048   */\n      0x20\n        /* \"#utility.yul\":24041:24044   */\n      dup3\n        /* \"#utility.yul\":24037:24049   */\n      add\n        /* \"#utility.yul\":24030:24049   */\n      swap1\n      pop\n        /* \"#utility.yul\":23689:24055   */\n      swap2\n      swap1\n      pop\n      jump\t// out\n        /* \"#utility.yul\":24061:24480   */\n    tag_196:\n        /* \"#utility.yul\":24227:24231   */\n      0x00\n        /* \"#utility.yul\":24265:24267   */\n      0x20\n        /* \"#utility.yul\":24254:24263   */\n      dup3\n        /* \"#utility.yul\":24250:24268   */\n      add\n        /* \"#utility.yul\":24242:24268   */\n      swap1\n      pop\n        /* \"#utility.yul\":24314:24323   */\n      dup2\n        /* \"#utility.yul\":24308:24312   */\n      dup2\n        /* \"#utility.yul\":24304:24324   */\n      sub\n        /* \"#utility.yul\":24300:24301   */\n      0x00\n        /* \"#utility.yul\":24289:24298   */\n      dup4\n        /* \"#utility.yul\":24285:24302   */\n      add\n        /* \"#utility.yul\":24278:24325   */\n      mstore\n        /* \"#utility.yul\":24342:24473   */\n      tag_730\n        /* \"#utility.yul\":24468:24472   */\n      dup2\n        /* \"#utility.yul\":24342:24473   */\n      tag_453\n      jump\t// in\n    tag_730:\n        /* \"#utility.yul\":24334:24473   */\n      swap1\n      pop\n        /* \"#utility.yul\":24061:24480   */\n      swap2\n      swap1\n      pop\n      jump\t// out\n        /* \"#utility.yul\":24486:24718   */\n    tag_454:\n        /* \"#utility.yul\":24626:24660   */\n      0x4f6e6c79207468652070726f6a656374206f776e65722063616e207570646174\n        /* \"#utility.yul\":24622:24623   */\n      0x00\n        /* \"#utility.yul\":24614:24620   */\n      dup3\n        /* \"#utility.yul\":24610:24624   */\n      add\n        /* \"#utility.yul\":24603:24661   */\n      mstore\n        /* \"#utility.yul\":24695:24710   */\n      0x65207468652070726f6a65637400000000000000000000000000000000000000\n        /* \"#utility.yul\":24690:24692   */\n      0x20\n        /* \"#utility.yul\":24682:24688   */\n      dup3\n        /* \"#utility.yul\":24678:24693   */\n      add\n        /* \"#utility.yul\":24671:24711   */\n      mstore\n        /* \"#utility.yul\":24486:24718   */\n      pop\n      jump\t// out\n        /* \"#utility.yul\":24724:25090   */\n    tag_455:\n        /* \"#utility.yul\":24866:24869   */\n      0x00\n        /* \"#utility.yul\":24887:24954   */\n      tag_733\n        /* \"#utility.yul\":24951:24953   */\n      0x2d\n        /* \"#utility.yul\":24946:24949   */\n      dup4\n        /* \"#utility.yul\":24887:24954   */\n      tag_406\n      jump\t// in\n    tag_733:\n        /* \"#utility.yul\":24880:24954   */\n      swap2\n      pop\n        /* \"#utility.yul\":24963:25056   */\n      tag_734\n        /* \"#utility.yul\":25052:25055   */\n      dup3\n        /* \"#utility.yul\":24963:25056   */\n      tag_454\n      jump\t// in\n    tag_734:\n        /* \"#utility.yul\":25081:25083   */\n      0x40\n        /* \"#utility.yul\":25076:25079   */\n      dup3\n        /* \"#utility.yul\":25072:25084   */\n      add\n        /* \"#utility.yul\":25065:25084   */\n      swap1\n      pop\n        /* \"#utility.yul\":24724:25090   */\n      swap2\n      swap1\n      pop\n      jump\t// out\n        /* \"#utility.yul\":25096:25515   */\n    tag_199:\n        /* \"#utility.yul\":25262:25266   */\n      0x00\n        /* \"#utility.yul\":25300:25302   */\n      0x20\n        /* \"#utility.yul\":25289:25298   */\n      dup3\n        /* \"#utility.yul\":25285:25303   */\n      add\n        /* \"#utility.yul\":25277:25303   */\n      swap1\n      pop\n        /* \"#utility.yul\":25349:25358   */\n      dup2\n        /* \"#utility.yul\":25343:25347   */\n      dup2\n        /* \"#utility.yul\":25339:25359   */\n      sub\n        /* \"#utility.yul\":25335:25336   */\n      0x00\n        /* \"#utility.yul\":25324:25333   */\n      dup4\n        /* \"#utility.yul\":25320:25337   */\n      add\n        /* \"#utility.yul\":25313:25360   */\n      mstore\n        /* \"#utility.yul\":25377:25508   */\n      tag_736\n        /* \"#utility.yul\":25503:25507   */\n      dup2\n        /* \"#utility.yul\":25377:25508   */\n      tag_455\n      jump\t// in\n    tag_736:\n        /* \"#utility.yul\":25369:25508   */\n      swap1\n      pop\n        /* \"#utility.yul\":25096:25515   */\n      swap2\n      swap1\n      pop\n      jump\t// out\n        /* \"#utility.yul\":25521:25699   */\n    tag_456:\n        /* \"#utility.yul\":25661:25691   */\n      0x50726f6a656374206e616d652063616e6e6f7420626520656d70747900000000\n        /* \"#utility.yul\":25657:25658   */\n      0x00\n        /* \"#utility.yul\":25649:25655   */\n      dup3\n        /* \"#utility.yul\":25645:25659   */\n      add\n        /* \"#utility.yul\":25638:25692   */\n      mstore\n        /* \"#utility.yul\":25521:25699   */\n      pop\n      jump\t// out\n        /* \"#utility.yul\":25705:26071   */\n    tag_457:\n        /* \"#utility.yul\":25847:25850   */\n      0x00\n        /* \"#utility.yul\":25868:25935   */\n      tag_739\n        /* \"#utility.yul\":25932:25934   */\n      0x1c\n        /* \"#utility.yul\":25927:25930   */\n      dup4\n        /* \"#utility.yul\":25868:25935   */\n      tag_406\n      jump\t// in\n    tag_739:\n        /* \"#utility.yul\":25861:25935   */\n      swap2\n      pop\n        /* \"#utility.yul\":25944:26037   */\n      tag_740\n        /* \"#utility.yul\":26033:26036   */\n      dup3\n        /* \"#utility.yul\":25944:26037   */\n      tag_456\n      jump\t// in\n    tag_740:\n        /* \"#utility.yul\":26062:26064   */\n      0x20\n        /* \"#utility.yul\":26057:26060   */\n      dup3\n        /* \"#utility.yul\":26053:26065   */\n      add\n        /* \"#utility.yul\":26046:26065   */\n      swap1\n      pop\n        /* \"#utility.yul\":25705:26071   */\n      swap2\n      swap1\n      pop\n      jump\t// out\n        /* \"#utility.yul\":26077:26496   */\n    tag_202:\n        /* \"#utility.yul\":26243:26247   */\n      0x00\n        /* \"#utility.yul\":26281:26283   */\n      0x20\n        /* \"#utility.yul\":26270:26279   */\n      dup3\n        /* \"#utility.yul\":26266:26284   */\n      add\n        /* \"#utility.yul\":26258:26284   */\n      swap1\n      pop\n        /* \"#utility.yul\":26330:26339   */\n      dup2\n        /* \"#utility.yul\":26324:26328   */\n      dup2\n        /* \"#utility.yul\":26320:26340   */\n      sub\n        /* \"#utility.yul\":26316:26317   */\n      0x00\n        /* \"#utility.yul\":26305:26314   */\n      dup4\n        /* \"#utility.yul\":26301:26318   */\n      add\n        /* \"#utility.yul\":26294:26341   */\n      mstore\n        /* \"#utility.yul\":26358:26489   */\n      tag_742\n        /* \"#utility.yul\":26484:26488   */\n      dup2\n        /* \"#utility.yul\":26358:26489   */\n      tag_457\n      jump\t// in\n    tag_742:\n        /* \"#utility.yul\":26350:26489   */\n      swap1\n      pop\n        /* \"#utility.yul\":26077:26496   */\n      swap2\n      swap1\n      pop\n      jump\t// out\n        /* \"#utility.yul\":26502:26730   */\n    tag_458:\n        /* \"#utility.yul\":26642:26676   */\n      0x546f74616c20637265646974732073686f756c64206265206772656174657220\n        /* \"#utility.yul\":26638:26639   */\n      0x00\n        /* \"#utility.yul\":26630:26636   */\n      dup3\n        /* \"#utility.yul\":26626:26640   */\n      add\n        /* \"#utility.yul\":26619:26677   */\n      mstore\n        /* \"#utility.yul\":26711:26722   */\n      0x7468616e207a65726f0000000000000000000000000000000000000000000000\n        /* \"#utility.yul\":26706:26708   */\n      0x20\n        /* \"#utility.yul\":26698:26704   */\n      dup3\n        /* \"#utility.yul\":26694:26709   */\n      add\n        /* \"#utility.yul\":26687:26723   */\n      mstore\n        /* \"#utility.yul\":26502:26730   */\n      pop\n      jump\t// out\n        /* \"#utility.yul\":26736:27102   */\n    tag_459:\n        /* \"#utility.yul\":26878:26881   */\n      0x00\n        /* \"#utility.yul\":26899:26966   */\n      tag_745\n        /* \"#utility.yul\":26963:26965   */\n      0x29\n        /* \"#utility.yul\":26958:26961   */\n      dup4\n        /* \"#utility.yul\":26899:26966   */\n      tag_406\n      jump\t// in\n    tag_745:\n        /* \"#utility.yul\":26892:26966   */\n      swap2\n      pop\n        /* \"#utility.yul\":26975:27068   */\n      tag_746\n        /* \"#utility.yul\":27064:27067   */\n      dup3\n        /* \"#utility.yul\":26975:27068   */\n      tag_458\n      jump\t// in\n    tag_746:\n        /* \"#utility.yul\":27093:27095   */\n      0x40\n        /* \"#utility.yul\":27088:27091   */\n      dup3\n        /* \"#utility.yul\":27084:27096   */\n      add\n        /* \"#utility.yul\":27077:27096   */\n      swap1\n      pop\n        /* \"#utility.yul\":26736:27102   */\n      swap2\n      swap1\n      pop\n      jump\t// out\n        /* \"#utility.yul\":27108:27527   */\n    tag_205:\n        /* \"#utility.yul\":27274:27278   */\n      0x00\n        /* \"#utility.yul\":27312:27314   */\n      0x20\n        /* \"#utility.yul\":27301:27310   */\n      dup3\n        /* \"#utility.yul\":27297:27315   */\n      add\n        /* \"#utility.yul\":27289:27315   */\n      swap1\n      pop\n        /* \"#utility.yul\":27361:27370   */\n      dup2\n        /* \"#utility.yul\":27355:27359   */\n      dup2\n        /* \"#utility.yul\":27351:27371   */\n      sub\n        /* \"#utility.yul\":27347:27348   */\n      0x00\n        /* \"#utility.yul\":27336:27345   */\n      dup4\n        /* \"#utility.yul\":27332:27349   */\n      add\n        /* \"#utility.yul\":27325:27372   */\n      mstore\n        /* \"#utility.yul\":27389:27520   */\n      tag_748\n        /* \"#utility.yul\":27515:27519   */\n      dup2\n        /* \"#utility.yul\":27389:27520   */\n      tag_459\n      jump\t// in\n    tag_748:\n        /* \"#utility.yul\":27381:27520   */\n      swap1\n      pop\n        /* \"#utility.yul\":27108:27527   */\n      swap2\n      swap1\n      pop\n      jump\t// out\n        /* \"#utility.yul\":27533:27764   */\n    tag_460:\n        /* \"#utility.yul\":27673:27707   */\n      0x507269636520706572206372656469742073686f756c64206265206772656174\n        /* \"#utility.yul\":27669:27670   */\n      0x00\n        /* \"#utility.yul\":27661:27667   */\n      dup3\n        /* \"#utility.yul\":27657:27671   */\n      add\n        /* \"#utility.yul\":27650:27708   */\n      mstore\n        /* \"#utility.yul\":27742:27756   */\n      0x6572207468616e207a65726f0000000000000000000000000000000000000000\n        /* \"#utility.yul\":27737:27739   */\n      0x20\n        /* \"#utility.yul\":27729:27735   */\n      dup3\n        /* \"#utility.yul\":27725:27740   */\n      add\n        /* \"#utility.yul\":27718:27757   */\n      mstore\n        /* \"#utility.yul\":27533:27764   */\n      pop\n      jump\t// out\n        /* \"#utility.yul\":27770:28136   */\n    tag_461:\n        /* \"#utility.yul\":27912:27915   */\n      0x00\n        /* \"#utility.yul\":27933:28000   */\n      tag_751\n        /* \"#utility.yul\":27997:27999   */\n      0x2c\n        /* \"#utility.yul\":27992:27995   */\n      dup4\n        /* \"#utility.yul\":27933:28000   */\n      tag_406\n      jump\t// in\n    tag_751:\n        /* \"#utility.yul\":27926:28000   */\n      swap2\n      pop\n        /* \"#utility.yul\":28009:28102   */\n      tag_752\n        /* \"#utility.yul\":28098:28101   */\n      dup3\n        /* \"#utility.yul\":28009:28102   */\n      tag_460\n      jump\t// in\n    tag_752:\n        /* \"#utility.yul\":28127:28129   */\n      0x40\n        /* \"#utility.yul\":28122:28125   */\n      dup3\n        /* \"#utility.yul\":28118:28130   */\n      add\n        /* \"#utility.yul\":28111:28130   */\n      swap1\n      pop\n        /* \"#utility.yul\":27770:28136   */\n      swap2\n      swap1\n      pop\n      jump\t// out\n        /* \"#utility.yul\":28142:28561   */\n    tag_208:\n        /* \"#utility.yul\":28308:28312   */\n      0x00\n        /* \"#utility.yul\":28346:28348   */\n      0x20\n        /* \"#utility.yul\":28335:28344   */\n      dup3\n        /* \"#utility.yul\":28331:28349   */\n      add\n        /* \"#utility.yul\":28323:28349   */\n      swap1\n      pop\n        /* \"#utility.yul\":28395:28404   */\n      dup2\n        /* \"#utility.yul\":28389:28393   */\n      dup2\n        /* \"#utility.yul\":28385:28405   */\n      sub\n        /* \"#utility.yul\":28381:28382   */\n      0x00\n        /* \"#utility.yul\":28370:28379   */\n      dup4\n        /* \"#utility.yul\":28366:28383   */\n      add\n        /* \"#utility.yul\":28359:28406   */\n      mstore\n        /* \"#utility.yul\":28423:28554   */\n      tag_754\n        /* \"#utility.yul\":28549:28553   */\n      dup2\n        /* \"#utility.yul\":28423:28554   */\n      tag_461\n      jump\t// in\n    tag_754:\n        /* \"#utility.yul\":28415:28554   */\n      swap1\n      pop\n        /* \"#utility.yul\":28142:28561   */\n      swap2\n      swap1\n      pop\n      jump\t// out\n        /* \"#utility.yul\":28567:28708   */\n    tag_462:\n        /* \"#utility.yul\":28616:28620   */\n      0x00\n        /* \"#utility.yul\":28639:28642   */\n      dup2\n        /* \"#utility.yul\":28631:28642   */\n      swap1\n      pop\n        /* \"#utility.yul\":28662:28665   */\n      dup2\n        /* \"#utility.yul\":28659:28660   */\n      0x00\n        /* \"#utility.yul\":28652:28666   */\n      mstore\n        /* \"#utility.yul\":28696:28700   */\n      0x20\n        /* \"#utility.yul\":28693:28694   */\n      0x00\n        /* \"#utility.yul\":28683:28701   */\n      keccak256\n        /* \"#utility.yul\":28675:28701   */\n      swap1\n      pop\n        /* \"#utility.yul\":28567:28708   */\n      swap2\n      swap1\n      pop\n      jump\t// out\n        /* \"#utility.yul\":28714:28807   */\n    tag_463:\n        /* \"#utility.yul\":28751:28757   */\n      0x00\n        /* \"#utility.yul\":28798:28800   */\n      0x20\n        /* \"#utility.yul\":28793:28795   */\n      0x1f\n        /* \"#utility.yul\":28786:28791   */\n      dup4\n        /* \"#utility.yul\":28782:28796   */\n      add\n        /* \"#utility.yul\":28778:28801   */\n      div\n        /* \"#utility.yul\":28768:28801   */\n      swap1\n      pop\n        /* \"#utility.yul\":28714:28807   */\n      swap2\n      swap1\n      pop\n      jump\t// out\n        /* \"#utility.yul\":28813:28920   */\n    tag_464:\n        /* \"#utility.yul\":28857:28865   */\n      0x00\n        /* \"#utility.yul\":28907:28912   */\n      dup3\n        /* \"#utility.yul\":28901:28905   */\n      dup3\n        /* \"#utility.yul\":28897:28913   */\n      shl\n        /* \"#utility.yul\":28876:28913   */\n      swap1\n      pop\n        /* \"#utility.yul\":28813:28920   */\n      swap3\n      swap2\n      pop\n      pop\n      jump\t// out\n        /* \"#utility.yul\":28926:29319   */\n    tag_465:\n        /* \"#utility.yul\":28995:29001   */\n      0x00\n        /* \"#utility.yul\":29045:29046   */\n      0x08\n        /* \"#utility.yul\":29033:29043   */\n      dup4\n        /* \"#utility.yul\":29029:29047   */\n      mul\n        /* \"#utility.yul\":29068:29165   */\n      tag_759\n        /* \"#utility.yul\":29098:29164   */\n      0xffffffffffffffffffffffffffffffffffffffffffffffffffffffffffffffff\n        /* \"#utility.yul\":29087:29096   */\n      dup3\n        /* \"#utility.yul\":29068:29165   */\n      tag_464\n      jump\t// in\n    tag_759:\n        /* \"#utility.yul\":29186:29225   */\n      tag_760\n        /* \"#utility.yul\":29216:29224   */\n      dup7\n        /* \"#utility.yul\":29205:29214   */\n      dup4\n        /* \"#utility.yul\":29186:29225   */\n      tag_464\n      jump\t// in\n    tag_760:\n        /* \"#utility.yul\":29174:29225   */\n      swap6\n      pop\n        /* \"#utility.yul\":29258:29262   */\n      dup1\n        /* \"#utility.yul\":29254:29263   */\n      not\n        /* \"#utility.yul\":29247:29252   */\n      dup5\n        /* \"#utility.yul\":29243:29264   */\n      and\n        /* \"#utility.yul\":29234:29264   */\n      swap4\n      pop\n        /* \"#utility.yul\":29307:29311   */\n      dup1\n        /* \"#utility.yul\":29297:29305   */\n      dup7\n        /* \"#utility.yul\":29293:29312   */\n      and\n        /* \"#utility.yul\":29286:29291   */\n      dup5\n        /* \"#utility.yul\":29283:29313   */\n      or\n        /* \"#utility.yul\":29273:29313   */\n      swap3\n      pop\n        /* \"#utility.yul\":29002:29319   */\n      pop\n      pop\n        /* \"#utility.yul\":28926:29319   */\n      swap4\n      swap3\n      pop\n      pop\n      pop\n      jump\t// out\n        /* \"#utility.yul\":29325:29385   */\n    tag_466:\n        /* \"#utility.yul\":29353:29356   */\n      0x00\n        /* \"#utility.yul\":29374:29379   */\n      dup2\n        /* \"#utility.yul\":29367:29379   */\n      swap1\n      pop\n        /* \"#utility.yul\":29325:29385   */\n      swap2\n      swap1\n      pop\n      jump\t// out\n        /* \"#utility.yul\":29391:29533   */\n    tag_467:\n        /* \"#utility.yul\":29441:29450   */\n      0x00\n        /* \"#utility.yul\":29474:29527   */\n      tag_763\n        /* \"#utility.yul\":29492:29526   */\n      tag_764\n        /* \"#utility.yul\":29501:29525   */\n      tag_765\n        /* \"#utility.yul\":29519:29524   */\n      dup5\n        /* \"#utility.yul\":29501:29525   */\n      tag_403\n      jump\t// in\n    tag_765:\n        /* \"#utility.yul\":29492:29526   */\n      tag_466\n      jump\t// in\n    tag_764:\n        /* \"#utility.yul\":29474:29527   */\n      tag_403\n      jump\t// in\n    tag_763:\n        /* \"#utility.yul\":29461:29527   */\n      swap1\n      pop\n        /* \"#utility.yul\":29391:29533   */\n      swap2\n      swap1\n      pop\n      jump\t// out\n        /* \"#utility.yul\":29539:29614   */\n    tag_468:\n        /* \"#utility.yul\":29582:29585   */\n      0x00\n        /* \"#utility.yul\":29603:29608   */\n      dup2\n        /* \"#utility.yul\":29596:29608   */\n      swap1\n      pop\n        /* \"#utility.yul\":29539:29614   */\n      swap2\n      swap1\n      pop\n      jump\t// out\n        /* \"#utility.yul\":29620:29889   */\n    tag_469:\n        /* \"#utility.yul\":29730:29769   */\n      tag_768\n        /* \"#utility.yul\":29761:29768   */\n      dup4\n        /* \"#utility.yul\":29730:29769   */\n      tag_467\n      jump\t// in\n    tag_768:\n        /* \"#utility.yul\":29791:29882   */\n      tag_769\n        /* \"#utility.yul\":29840:29881   */\n      tag_770\n        /* \"#utility.yul\":29864:29880   */\n      dup3\n        /* \"#utility.yul\":29840:29881   */\n      tag_468\n      jump\t// in\n    tag_770:\n        /* \"#utility.yul\":29832:29838   */\n      dup5\n        /* \"#utility.yul\":29825:29829   */\n      dup5\n        /* \"#utility.yul\":29819:29830   */\n      sload\n        /* \"#utility.yul\":29791:29882   */\n      tag_465\n      jump\t// in\n    tag_769:\n        /* \"#utility.yul\":29785:29789   */\n      dup3\n        /* \"#utility.yul\":29778:29883   */\n      sstore\n        /* \"#utility.yul\":29696:29889   */\n      pop\n        /* \"#utility.yul\":29620:29889   */\n      pop\n      pop\n      pop\n      jump\t// out\n        /* \"#utility.yul\":29895:29968   */\n    tag_470:\n        /* \"#utility.yul\":29940:29943   */\n      0x00\n        /* \"#utility.yul\":29895:29968   */\n      swap1\n      jump\t// out\n        /* \"#utility.yul\":29974:30163   */\n    tag_471:\n        /* \"#utility.yul\":30051:30083   */\n      tag_773\n      tag_470\n      jump\t// in\n    tag_773:\n        /* \"#utility.yul\":30092:30157   */\n      tag_774\n        /* \"#utility.yul\":30150:30156   */\n      dup2\n        /* \"#utility.yul\":30142:30148   */\n      dup5\n        /* \"#utility.yul\":30136:30140   */\n      dup5\n        /* \"#utility.yul\":30092:30157   */\n      tag_469\n      jump\t// in\n    tag_774:\n        /* \"#utility.yul\":30027:30163   */\n      pop\n        /* \"#utility.yul\":29974:30163   */\n      pop\n      pop\n      jump\t// out\n        /* \"#utility.yul\":30169:30355   */\n    tag_472:\n        /* \"#utility.yul\":30229:30349   */\n    tag_776:\n        /* \"#utility.yul\":30246:30249   */\n      dup2\n        /* \"#utility.yul\":30239:30244   */\n      dup2\n        /* \"#utility.yul\":30236:30250   */\n      lt\n        /* \"#utility.yul\":30229:30349   */\n      iszero\n      tag_778\n      jumpi\n        /* \"#utility.yul\":30300:30339   */\n      tag_779\n        /* \"#utility.yul\":30337:30338   */\n      0x00\n        /* \"#utility.yul\":30330:30335   */\n      dup3\n        /* \"#utility.yul\":30300:30339   */\n      tag_471\n      jump\t// in\n    tag_779:\n        /* \"#utility.yul\":30273:30274   */\n      0x01\n        /* \"#utility.yul\":30266:30271   */\n      dup2\n        /* \"#utility.yul\":30262:30275   */\n      add\n        /* \"#utility.yul\":30253:30275   */\n      swap1\n      pop\n        /* \"#utility.yul\":30229:30349   */\n      jump(tag_776)\n    tag_778:\n        /* \"#utility.yul\":30169:30355   */\n      pop\n      pop\n      jump\t// out\n        /* \"#utility.yul\":30361:30904   */\n    tag_473:\n        /* \"#utility.yul\":30462:30464   */\n      0x1f\n        /* \"#utility.yul\":30457:30460   */\n      dup3\n        /* \"#utility.yul\":30454:30465   */\n      gt\n        /* \"#utility.yul\":30451:30897   */\n      iszero\n      tag_781\n      jumpi\n        /* \"#utility.yul\":30496:30534   */\n      tag_782\n        /* \"#utility.yul\":30528:30533   */\n      dup2\n        /* \"#utility.yul\":30496:30534   */\n      tag_462\n      jump\t// in\n    tag_782:\n        /* \"#utility.yul\":30580:30609   */\n      tag_783\n        /* \"#utility.yul\":30598:30608   */\n      dup5\n        /* \"#utility.yul\":30580:30609   */\n      tag_463\n      jump\t// in\n    tag_783:\n        /* \"#utility.yul\":30570:30578   */\n      dup2\n        /* \"#utility.yul\":30566:30610   */\n      add\n        /* \"#utility.yul\":30763:30765   */\n      0x20\n        /* \"#utility.yul\":30751:30761   */\n      dup6\n        /* \"#utility.yul\":30748:30766   */\n      lt\n        /* \"#utility.yul\":30745:30794   */\n      iszero\n      tag_784\n      jumpi\n        /* \"#utility.yul\":30784:30792   */\n      dup2\n        /* \"#utility.yul\":30769:30792   */\n      swap1\n      pop\n        /* \"#utility.yul\":30745:30794   */\n    tag_784:\n        /* \"#utility.yul\":30807:30887   */\n      tag_785\n        /* \"#utility.yul\":30863:30885   */\n      tag_786\n        /* \"#utility.yul\":30881:30884   */\n      dup6\n        /* \"#utility.yul\":30863:30885   */\n      tag_463\n      jump\t// in\n    tag_786:\n        /* \"#utility.yul\":30853:30861   */\n      dup4\n        /* \"#utility.yul\":30849:30886   */\n      add\n        /* \"#utility.yul\":30836:30847   */\n      dup3\n        /* \"#utility.yul\":30807:30887   */\n      tag_472\n      jump\t// in\n    tag_785:\n        /* \"#utility.yul\":30466:30897   */\n      pop\n      pop\n        /* \"#utility.yul\":30451:30897   */\n    tag_781:\n        /* \"#utility.yul\":30361:30904   */\n      pop\n      pop\n      pop\n      jump\t// out\n        /* \"#utility.yul\":30910:31027   */\n    tag_474:\n        /* \"#utility.yul\":30964:30972   */\n      0x00\n        /* \"#utility.yul\":31014:31019   */\n      dup3\n        /* \"#utility.yul\":31008:31012   */\n      dup3\n        /* \"#utility.yul\":31004:31020   */\n      shr\n        /* \"#utility.yul\":30983:31020   */\n      swap1\n      pop\n        /* \"#utility.yul\":30910:31027   */\n      swap3\n      swap2\n      pop\n      pop\n      jump\t// out\n        /* \"#utility.yul\":31033:31202   */\n    tag_475:\n        /* \"#utility.yul\":31077:31083   */\n      0x00\n        /* \"#utility.yul\":31110:31161   */\n      tag_789\n        /* \"#utility.yul\":31158:31159   */\n      0x00\n        /* \"#utility.yul\":31154:31160   */\n      not\n        /* \"#utility.yul\":31146:31151   */\n      dup5\n        /* \"#utility.yul\":31143:31144   */\n      0x08\n        /* \"#utility.yul\":31139:31152   */\n      mul\n        /* \"#utility.yul\":31110:31161   */\n      tag_474\n      jump\t// in\n    tag_789:\n        /* \"#utility.yul\":31106:31162   */\n      not\n        /* \"#utility.yul\":31191:31195   */\n      dup1\n        /* \"#utility.yul\":31185:31189   */\n      dup4\n        /* \"#utility.yul\":31181:31196   */\n      and\n        /* \"#utility.yul\":31171:31196   */\n      swap2\n      pop\n        /* \"#utility.yul\":31084:31202   */\n      pop\n        /* \"#utility.yul\":31033:31202   */\n      swap3\n      swap2\n      pop\n      pop\n      jump\t// out\n        /* \"#utility.yul\":31207:31502   */\n    tag_476:\n        /* \"#utility.yul\":31283:31287   */\n      0x00\n        /* \"#utility.yul\":31429:31458   */\n      tag_791\n        /* \"#utility.yul\":31454:31457   */\n      dup4\n        /* \"#utility.yul\":31448:31452   */\n      dup4\n        /* \"#utility.yul\":31429:31458   */\n      tag_475\n      jump\t// in\n    tag_791:\n        /* \"#utility.yul\":31421:31458   */\n      swap2\n      pop\n        /* \"#utility.yul\":31491:31494   */\n      dup3\n        /* \"#utility.yul\":31488:31489   */\n      0x02\n        /* \"#utility.yul\":31484:31495   */\n      mul\n        /* \"#utility.yul\":31478:31482   */\n      dup3\n        /* \"#utility.yul\":31475:31496   */\n      or\n        /* \"#utility.yul\":31467:31496   */\n      swap1\n      pop\n        /* \"#utility.yul\":31207:31502   */\n      swap3\n      swap2\n      pop\n      pop\n      jump\t// out\n        /* \"#utility.yul\":31507:32902   */\n    tag_210:\n        /* \"#utility.yul\":31624:31661   */\n      tag_793\n        /* \"#utility.yul\":31657:31660   */\n      dup3\n        /* \"#utility.yul\":31624:31661   */\n      tag_405\n      jump\t// in\n    tag_793:\n        /* \"#utility.yul\":31726:31744   */\n      0xffffffffffffffff\n        /* \"#utility.yul\":31718:31724   */\n      dup2\n        /* \"#utility.yul\":31715:31745   */\n      gt\n        /* \"#utility.yul\":31712:31768   */\n      iszero\n      tag_794\n      jumpi\n        /* \"#utility.yul\":31748:31766   */\n      tag_795\n      tag_251\n      jump\t// in\n    tag_795:\n        /* \"#utility.yul\":31712:31768   */\n    tag_794:\n        /* \"#utility.yul\":31792:31830   */\n      tag_796\n        /* \"#utility.yul\":31824:31828   */\n      dup3\n        /* \"#utility.yul\":31818:31829   */\n      sload\n        /* \"#utility.yul\":31792:31830   */\n      tag_162\n      jump\t// in\n    tag_796:\n        /* \"#utility.yul\":31877:31944   */\n      tag_797\n        /* \"#utility.yul\":31937:31943   */\n      dup3\n        /* \"#utility.yul\":31929:31935   */\n      dup3\n        /* \"#utility.yul\":31923:31927   */\n      dup6\n        /* \"#utility.yul\":31877:31944   */\n      tag_473\n      jump\t// in\n    tag_797:\n        /* \"#utility.yul\":31971:31972   */\n      0x00\n        /* \"#utility.yul\":31995:31999   */\n      0x20\n        /* \"#utility.yul\":31982:31999   */\n      swap1\n      pop\n        /* \"#utility.yul\":32027:32029   */\n      0x1f\n        /* \"#utility.yul\":32019:32025   */\n      dup4\n        /* \"#utility.yul\":32016:32030   */\n      gt\n        /* \"#utility.yul\":32044:32045   */\n      0x01\n        /* \"#utility.yul\":32039:32657   */\n      dup2\n      eq\n      tag_799\n      jumpi\n        /* \"#utility.yul\":32701:32702   */\n      0x00\n        /* \"#utility.yul\":32718:32724   */\n      dup5\n        /* \"#utility.yul\":32715:32792   */\n      iszero\n      tag_800\n      jumpi\n        /* \"#utility.yul\":32767:32776   */\n      dup3\n        /* \"#utility.yul\":32762:32765   */\n      dup8\n        /* \"#utility.yul\":32758:32777   */\n      add\n        /* \"#utility.yul\":32752:32778   */\n      mload\n        /* \"#utility.yul\":32743:32778   */\n      swap1\n      pop\n        /* \"#utility.yul\":32715:32792   */\n    tag_800:\n        /* \"#utility.yul\":32818:32885   */\n      tag_801\n        /* \"#utility.yul\":32878:32884   */\n      dup6\n        /* \"#utility.yul\":32871:32876   */\n      dup3\n        /* \"#utility.yul\":32818:32885   */\n      tag_476\n      jump\t// in\n    tag_801:\n        /* \"#utility.yul\":32812:32816   */\n      dup7\n        /* \"#utility.yul\":32805:32886   */\n      sstore\n        /* \"#utility.yul\":32674:32896   */\n      pop\n        /* \"#utility.yul\":32009:32896   */\n      jump(tag_798)\n        /* \"#utility.yul\":32039:32657   */\n    tag_799:\n        /* \"#utility.yul\":32091:32095   */\n      0x1f\n        /* \"#utility.yul\":32087:32096   */\n      not\n        /* \"#utility.yul\":32079:32085   */\n      dup5\n        /* \"#utility.yul\":32075:32097   */\n      and\n        /* \"#utility.yul\":32125:32162   */\n      tag_802\n        /* \"#utility.yul\":32157:32161   */\n      dup7\n        /* \"#utility.yul\":32125:32162   */\n      tag_462\n      jump\t// in\n    tag_802:\n        /* \"#utility.yul\":32184:32185   */\n      0x00\n        /* \"#utility.yul\":32198:32406   */\n    tag_803:\n        /* \"#utility.yul\":32212:32219   */\n      dup3\n        /* \"#utility.yul\":32209:32210   */\n      dup2\n        /* \"#utility.yul\":32206:32220   */\n      lt\n        /* \"#utility.yul\":32198:32406   */\n      iszero\n      tag_805\n      jumpi\n        /* \"#utility.yul\":32291:32300   */\n      dup5\n        /* \"#utility.yul\":32286:32289   */\n      dup10\n        /* \"#utility.yul\":32282:32301   */\n      add\n        /* \"#utility.yul\":32276:32302   */\n      mload\n        /* \"#utility.yul\":32268:32274   */\n      dup3\n        /* \"#utility.yul\":32261:32303   */\n      sstore\n        /* \"#utility.yul\":32342:32343   */\n      0x01\n        /* \"#utility.yul\":32334:32340   */\n      dup3\n        /* \"#utility.yul\":32330:32344   */\n      add\n        /* \"#utility.yul\":32320:32344   */\n      swap2\n      pop\n        /* \"#utility.yul\":32389:32391   */\n      0x20\n        /* \"#utility.yul\":32378:32387   */\n      dup6\n        /* \"#utility.yul\":32374:32392   */\n      add\n        /* \"#utility.yul\":32361:32392   */\n      swap5\n      pop\n        /* \"#utility.yul\":32235:32239   */\n      0x20\n        /* \"#utility.yul\":32232:32233   */\n      dup2\n        /* \"#utility.yul\":32228:32240   */\n      add\n        /* \"#utility.yul\":32223:32240   */\n      swap1\n      pop\n        /* \"#utility.yul\":32198:32406   */\n      jump(tag_803)\n    tag_805:\n        /* \"#utility.yul\":32434:32440   */\n      dup7\n        /* \"#utility.yul\":32425:32432   */\n      dup4\n        /* \"#utility.yul\":32422:32441   */\n      lt\n        /* \"#utility.yul\":32419:32598   */\n      iszero\n      tag_806\n      jumpi\n        /* \"#utility.yul\":32492:32501   */\n      dup5\n        /* \"#utility.yul\":32487:32490   */\n      dup10\n        /* \"#utility.yul\":32483:32502   */\n      add\n        /* \"#utility.yul\":32477:32503   */\n      mload\n        /* \"#utility.yul\":32535:32583   */\n      tag_807\n        /* \"#utility.yul\":32577:32581   */\n      0x1f\n        /* \"#utility.yul\":32569:32575   */\n      dup10\n        /* \"#utility.yul\":32565:32582   */\n      and\n        /* \"#utility.yul\":32554:32563   */\n      dup3\n        /* \"#utility.yul\":32535:32583   */\n      tag_475\n      jump\t// in\n    tag_807:\n        /* \"#utility.yul\":32527:32533   */\n      dup4\n        /* \"#utility.yul\":32520:32584   */\n      sstore\n        /* \"#utility.yul\":32442:32598   */\n      pop\n        /* \"#utility.yul\":32419:32598   */\n    tag_806:\n        /* \"#utility.yul\":32644:32645   */\n      0x01\n        /* \"#utility.yul\":32640:32641   */\n      0x02\n        /* \"#utility.yul\":32632:32638   */\n      dup9\n        /* \"#utility.yul\":32628:32642   */\n      mul\n        /* \"#utility.yul\":32624:32646   */\n      add\n        /* \"#utility.yul\":32618:32622   */\n      dup9\n        /* \"#utility.yul\":32611:32647   */\n      sstore\n        /* \"#utility.yul\":32046:32657   */\n      pop\n      pop\n      pop\n        /* \"#utility.yul\":32009:32896   */\n    tag_798:\n      pop\n        /* \"#utility.yul\":31599:32902   */\n      pop\n      pop\n      pop\n        /* \"#utility.yul\":31507:32902   */\n      pop\n      pop\n      jump\t// out\n        /* \"#utility.yul\":32908:33552   */\n    tag_212:\n        /* \"#utility.yul\":33105:33109   */\n      0x00\n        /* \"#utility.yul\":33143:33146   */\n      0x80\n        /* \"#utility.yul\":33132:33141   */\n      dup3\n        /* \"#utility.yul\":33128:33147   */\n      add\n        /* \"#utility.yul\":33120:33147   */\n      swap1\n      pop\n        /* \"#utility.yul\":33157:33228   */\n      tag_809\n        /* \"#utility.yul\":33225:33226   */\n      0x00\n        /* \"#utility.yul\":33214:33223   */\n      dup4\n        /* \"#utility.yul\":33210:33227   */\n      add\n        /* \"#utility.yul\":33201:33207   */\n      dup8\n        /* \"#utility.yul\":33157:33228   */\n      tag_404\n      jump\t// in\n    tag_809:\n        /* \"#utility.yul\":33275:33284   */\n      dup2\n        /* \"#utility.yul\":33269:33273   */\n      dup2\n        /* \"#utility.yul\":33265:33285   */\n      sub\n        /* \"#utility.yul\":33260:33262   */\n      0x20\n        /* \"#utility.yul\":33249:33258   */\n      dup4\n        /* \"#utility.yul\":33245:33263   */\n      add\n        /* \"#utility.yul\":33238:33286   */\n      mstore\n        /* \"#utility.yul\":33303:33381   */\n      tag_810\n        /* \"#utility.yul\":33376:33380   */\n      dup2\n        /* \"#utility.yul\":33367:33373   */\n      dup7\n        /* \"#utility.yul\":33303:33381   */\n      tag_409\n      jump\t// in\n    tag_810:\n        /* \"#utility.yul\":33295:33381   */\n      swap1\n      pop\n        /* \"#utility.yul\":33391:33463   */\n      tag_811\n        /* \"#utility.yul\":33459:33461   */\n      0x40\n        /* \"#utility.yul\":33448:33457   */\n      dup4\n        /* \"#utility.yul\":33444:33462   */\n      add\n        /* \"#utility.yul\":33435:33441   */\n      dup6\n        /* \"#utility.yul\":33391:33463   */\n      tag_404\n      jump\t// in\n    tag_811:\n        /* \"#utility.yul\":33473:33545   */\n      tag_812\n        /* \"#utility.yul\":33541:33543   */\n      0x60\n        /* \"#utility.yul\":33530:33539   */\n      dup4\n        /* \"#utility.yul\":33526:33544   */\n      add\n        /* \"#utility.yul\":33517:33523   */\n      dup5\n        /* \"#utility.yul\":33473:33545   */\n      tag_404\n      jump\t// in\n    tag_812:\n        /* \"#utility.yul\":32908:33552   */\n      swap6\n      swap5\n      pop\n      pop\n      pop\n      pop\n      pop\n      jump\t// out\n        /* \"#utility.yul\":33558:33738   */\n    tag_477:\n        /* \"#utility.yul\":33698:33730   */\n      0x496e73756666696369656e74206372656469747320746f207265746972650000\n        /* \"#utility.yul\":33694:33695   */\n      0x00\n        /* \"#utility.yul\":33686:33692   */\n      dup3\n        /* \"#utility.yul\":33682:33696   */\n      add\n        /* \"#utility.yul\":33675:33731   */\n      mstore\n        /* \"#utility.yul\":33558:33738   */\n      pop\n      jump\t// out\n        /* \"#utility.yul\":33744:34110   */\n    tag_478:\n        /* \"#utility.yul\":33886:33889   */\n      0x00\n        /* \"#utility.yul\":33907:33974   */\n      tag_815\n        /* \"#utility.yul\":33971:33973   */\n      0x1e\n        /* \"#utility.yul\":33966:33969   */\n      dup4\n        /* \"#utility.yul\":33907:33974   */\n      tag_406\n      jump\t// in\n    tag_815:\n        /* \"#utility.yul\":33900:33974   */\n      swap2\n      pop\n        /* \"#utility.yul\":33983:34076   */\n      tag_816\n        /* \"#utility.yul\":34072:34075   */\n      dup3\n        /* \"#utility.yul\":33983:34076   */\n      tag_477\n      jump\t// in\n    tag_816:\n        /* \"#utility.yul\":34101:34103   */\n      0x20\n        /* \"#utility.yul\":34096:34099   */\n      dup3\n        /* \"#utility.yul\":34092:34104   */\n      add\n        /* \"#utility.yul\":34085:34104   */\n      swap1\n      pop\n        /* \"#utility.yul\":33744:34110   */\n      swap2\n      swap1\n      pop\n      jump\t// out\n        /* \"#utility.yul\":34116:34535   */\n    tag_218:\n        /* \"#utility.yul\":34282:34286   */\n      0x00\n        /* \"#utility.yul\":34320:34322   */\n      0x20\n        /* \"#utility.yul\":34309:34318   */\n      dup3\n        /* \"#utility.yul\":34305:34323   */\n      add\n        /* \"#utility.yul\":34297:34323   */\n      swap1\n      pop\n        /* \"#utility.yul\":34369:34378   */\n      dup2\n        /* \"#utility.yul\":34363:34367   */\n      dup2\n        /* \"#utility.yul\":34359:34379   */\n      sub\n        /* \"#utility.yul\":34355:34356   */\n      0x00\n        /* \"#utility.yul\":34344:34353   */\n      dup4\n        /* \"#utility.yul\":34340:34357   */\n      add\n        /* \"#utility.yul\":34333:34380   */\n      mstore\n        /* \"#utility.yul\":34397:34528   */\n      tag_818\n        /* \"#utility.yul\":34523:34527   */\n      dup2\n        /* \"#utility.yul\":34397:34528   */\n      tag_478\n      jump\t// in\n    tag_818:\n        /* \"#utility.yul\":34389:34528   */\n      swap1\n      pop\n        /* \"#utility.yul\":34116:34535   */\n      swap2\n      swap1\n      pop\n      jump\t// out\n        /* \"#utility.yul\":34541:34721   */\n    tag_479:\n        /* \"#utility.yul\":34589:34666   */\n      0x4e487b7100000000000000000000000000000000000000000000000000000000\n        /* \"#utility.yul\":34586:34587   */\n      0x00\n        /* \"#utility.yul\":34579:34667   */\n      mstore\n        /* \"#utility.yul\":34686:34690   */\n      0x11\n        /* \"#utility.yul\":34683:34684   */\n      0x04\n        /* \"#utility.yul\":34676:34691   */\n      mstore\n        /* \"#utility.yul\":34710:34714   */\n      0x24\n        /* \"#utility.yul\":34707:34708   */\n      0x00\n        /* \"#utility.yul\":34700:34715   */\n      revert\n        /* \"#utility.yul\":34727:34921   */\n    tag_220:\n        /* \"#utility.yul\":34767:34771   */\n      0x00\n        /* \"#utility.yul\":34787:34807   */\n      tag_821\n        /* \"#utility.yul\":34805:34806   */\n      dup3\n        /* \"#utility.yul\":34787:34807   */\n      tag_403\n      jump\t// in\n    tag_821:\n        /* \"#utility.yul\":34782:34807   */\n      swap2\n      pop\n        /* \"#utility.yul\":34821:34841   */\n      tag_822\n        /* \"#utility.yul\":34839:34840   */\n      dup4\n        /* \"#utility.yul\":34821:34841   */\n      tag_403\n      jump\t// in\n    tag_822:\n        /* \"#utility.yul\":34816:34841   */\n      swap3\n      pop\n        /* \"#utility.yul\":34865:34866   */\n      dup3\n        /* \"#utility.yul\":34862:34863   */\n      dup3\n        /* \"#utility.yul\":34858:34867   */\n      sub\n        /* \"#utility.yul\":34850:34867   */\n      swap1\n      pop\n        /* \"#utility.yul\":34889:34890   */\n      dup2\n        /* \"#utility.yul\":34883:34887   */\n      dup2\n        /* \"#utility.yul\":34880:34891   */\n      gt\n        /* \"#utility.yul\":34877:34914   */\n      iszero\n      tag_823\n      jumpi\n        /* \"#utility.yul\":34894:34912   */\n      tag_824\n      tag_479\n      jump\t// in\n    tag_824:\n        /* \"#utility.yul\":34877:34914   */\n    tag_823:\n        /* \"#utility.yul\":34727:34921   */\n      swap3\n      swap2\n      pop\n      pop\n      jump\t// out\n        /* \"#utility.yul\":34927:35259   */\n    tag_228:\n        /* \"#utility.yul\":35048:35052   */\n      0x00\n        /* \"#utility.yul\":35086:35088   */\n      0x40\n        /* \"#utility.yul\":35075:35084   */\n      dup3\n        /* \"#utility.yul\":35071:35089   */\n      add\n        /* \"#utility.yul\":35063:35089   */\n      swap1\n      pop\n        /* \"#utility.yul\":35099:35170   */\n      tag_826\n        /* \"#utility.yul\":35167:35168   */\n      0x00\n        /* \"#utility.yul\":35156:35165   */\n      dup4\n        /* \"#utility.yul\":35152:35169   */\n      add\n        /* \"#utility.yul\":35143:35149   */\n      dup6\n        /* \"#utility.yul\":35099:35170   */\n      tag_404\n      jump\t// in\n    tag_826:\n        /* \"#utility.yul\":35180:35252   */\n      tag_827\n        /* \"#utility.yul\":35248:35250   */\n      0x20\n        /* \"#utility.yul\":35237:35246   */\n      dup4\n        /* \"#utility.yul\":35233:35251   */\n      add\n        /* \"#utility.yul\":35224:35230   */\n      dup5\n        /* \"#utility.yul\":35180:35252   */\n      tag_404\n      jump\t// in\n    tag_827:\n        /* \"#utility.yul\":34927:35259   */\n      swap4\n      swap3\n      pop\n      pop\n      pop\n      jump\t// out\n        /* \"#utility.yul\":35265:35494   */\n    tag_480:\n        /* \"#utility.yul\":35405:35439   */\n      0x4f6e6c7920746865206f776e65722063616e2075706461746520626164676520\n        /* \"#utility.yul\":35401:35402   */\n      0x00\n        /* \"#utility.yul\":35393:35399   */\n      dup3\n        /* \"#utility.yul\":35389:35403   */\n      add\n        /* \"#utility.yul\":35382:35440   */\n      mstore\n        /* \"#utility.yul\":35474:35486   */\n      0x7468726573686f6c647300000000000000000000000000000000000000000000\n        /* \"#utility.yul\":35469:35471   */\n      0x20\n        /* \"#utility.yul\":35461:35467   */\n      dup3\n        /* \"#utility.yul\":35457:35472   */\n      add\n        /* \"#utility.yul\":35450:35487   */\n      mstore\n        /* \"#utility.yul\":35265:35494   */\n      pop\n      jump\t// out\n        /* \"#utility.yul\":35500:35866   */\n    tag_481:\n        /* \"#utility.yul\":35642:35645   */\n      0x00\n        /* \"#utility.yul\":35663:35730   */\n      tag_830\n        /* \"#utility.yul\":35727:35729   */\n      0x2a\n        /* \"#utility.yul\":35722:35725   */\n      dup4\n        /* \"#utility.yul\":35663:35730   */\n      tag_406\n      jump\t// in\n    tag_830:\n        /* \"#utility.yul\":35656:35730   */\n      swap2\n      pop\n        /* \"#utility.yul\":35739:35832   */\n      tag_831\n        /* \"#utility.yul\":35828:35831   */\n      dup3\n        /* \"#utility.yul\":35739:35832   */\n      tag_480\n      jump\t// in\n    tag_831:\n        /* \"#utility.yul\":35857:35859   */\n      0x40\n        /* \"#utility.yul\":35852:35855   */\n      dup3\n        /* \"#utility.yul\":35848:35860   */\n      add\n        /* \"#utility.yul\":35841:35860   */\n      swap1\n      pop\n        /* \"#utility.yul\":35500:35866   */\n      swap2\n      swap1\n      pop\n      jump\t// out\n        /* \"#utility.yul\":35872:36291   */\n    tag_232:\n        /* \"#utility.yul\":36038:36042   */\n      0x00\n        /* \"#utility.yul\":36076:36078   */\n      0x20\n        /* \"#utility.yul\":36065:36074   */\n      dup3\n        /* \"#utility.yul\":36061:36079   */\n      add\n        /* \"#utility.yul\":36053:36079   */\n      swap1\n      pop\n        /* \"#utility.yul\":36125:36134   */\n      dup2\n        /* \"#utility.yul\":36119:36123   */\n      dup2\n        /* \"#utility.yul\":36115:36135   */\n      sub\n        /* \"#utility.yul\":36111:36112   */\n      0x00\n        /* \"#utility.yul\":36100:36109   */\n      dup4\n        /* \"#utility.yul\":36096:36113   */\n      add\n        /* \"#utility.yul\":36089:36136   */\n      mstore\n        /* \"#utility.yul\":36153:36284   */\n      tag_833\n        /* \"#utility.yul\":36279:36283   */\n      dup2\n        /* \"#utility.yul\":36153:36284   */\n      tag_481\n      jump\t// in\n    tag_833:\n        /* \"#utility.yul\":36145:36284   */\n      swap1\n      pop\n        /* \"#utility.yul\":35872:36291   */\n      swap2\n      swap1\n      pop\n      jump\t// out\n        /* \"#utility.yul\":36297:36445   */\n    tag_482:\n        /* \"#utility.yul\":36399:36410   */\n      0x00\n        /* \"#utility.yul\":36436:36439   */\n      dup2\n        /* \"#utility.yul\":36421:36439   */\n      swap1\n      pop\n        /* \"#utility.yul\":36297:36445   */\n      swap3\n      swap2\n      pop\n      pop\n      jump\t// out\n        /* \"#utility.yul\":36451:36616   */\n    tag_483:\n        /* \"#utility.yul\":36591:36608   */\n      0x436172626f6e204368616d70696f6e0000000000000000000000000000000000\n        /* \"#utility.yul\":36587:36588   */\n      0x00\n        /* \"#utility.yul\":36579:36585   */\n      dup3\n        /* \"#utility.yul\":36575:36589   */\n      add\n        /* \"#utility.yul\":36568:36609   */\n      mstore\n        /* \"#utility.yul\":36451:36616   */\n      pop\n      jump\t// out\n        /* \"#utility.yul\":36622:37024   */\n    tag_484:\n        /* \"#utility.yul\":36782:36785   */\n      0x00\n        /* \"#utility.yul\":36803:36888   */\n      tag_837\n        /* \"#utility.yul\":36885:36887   */\n      0x0f\n        /* \"#utility.yul\":36880:36883   */\n      dup4\n        /* \"#utility.yul\":36803:36888   */\n      tag_482\n      jump\t// in\n    tag_837:\n        /* \"#utility.yul\":36796:36888   */\n      swap2\n      pop\n        /* \"#utility.yul\":36897:36990   */\n      tag_838\n        /* \"#utility.yul\":36986:36989   */\n      dup3\n        /* \"#utility.yul\":36897:36990   */\n      tag_483\n      jump\t// in\n    tag_838:\n        /* \"#utility.yul\":37015:37017   */\n      0x0f\n        /* \"#utility.yul\":37010:37013   */\n      dup3\n        /* \"#utility.yul\":37006:37018   */\n      add\n        /* \"#utility.yul\":36999:37018   */\n      swap1\n      pop\n        /* \"#utility.yul\":36622:37024   */\n      swap2\n      swap1\n      pop\n      jump\t// out\n        /* \"#utility.yul\":37030:37411   */\n    tag_234:\n        /* \"#utility.yul\":37215:37218   */\n      0x00\n        /* \"#utility.yul\":37237:37385   */\n      tag_840\n        /* \"#utility.yul\":37381:37384   */\n      dup3\n        /* \"#utility.yul\":37237:37385   */\n      tag_484\n      jump\t// in\n    tag_840:\n        /* \"#utility.yul\":37230:37385   */\n      swap2\n      pop\n        /* \"#utility.yul\":37402:37405   */\n      dup2\n        /* \"#utility.yul\":37395:37405   */\n      swap1\n      pop\n        /* \"#utility.yul\":37030:37411   */\n      swap2\n      swap1\n      pop\n      jump\t// out\n        /* \"#utility.yul\":37417:37807   */\n    tag_485:\n        /* \"#utility.yul\":37523:37526   */\n      0x00\n        /* \"#utility.yul\":37551:37590   */\n      tag_842\n        /* \"#utility.yul\":37584:37589   */\n      dup3\n        /* \"#utility.yul\":37551:37590   */\n      tag_405\n      jump\t// in\n    tag_842:\n        /* \"#utility.yul\":37606:37695   */\n      tag_843\n        /* \"#utility.yul\":37688:37694   */\n      dup2\n        /* \"#utility.yul\":37683:37686   */\n      dup6\n        /* \"#utility.yul\":37606:37695   */\n      tag_482\n      jump\t// in\n    tag_843:\n        /* \"#utility.yul\":37599:37695   */\n      swap4\n      pop\n        /* \"#utility.yul\":37704:37769   */\n      tag_844\n        /* \"#utility.yul\":37762:37768   */\n      dup2\n        /* \"#utility.yul\":37757:37760   */\n      dup6\n        /* \"#utility.yul\":37750:37754   */\n      0x20\n        /* \"#utility.yul\":37743:37748   */\n      dup7\n        /* \"#utility.yul\":37739:37755   */\n      add\n        /* \"#utility.yul\":37704:37769   */\n      tag_407\n      jump\t// in\n    tag_844:\n        /* \"#utility.yul\":37794:37800   */\n      dup1\n        /* \"#utility.yul\":37789:37792   */\n      dup5\n        /* \"#utility.yul\":37785:37801   */\n      add\n        /* \"#utility.yul\":37778:37801   */\n      swap2\n      pop\n        /* \"#utility.yul\":37527:37807   */\n      pop\n        /* \"#utility.yul\":37417:37807   */\n      swap3\n      swap2\n      pop\n      pop\n      jump\t// out\n        /* \"#utility.yul\":37813:38088   */\n    tag_236:\n        /* \"#utility.yul\":37945:37948   */\n      0x00\n        /* \"#utility.yul\":37967:38062   */\n      tag_846\n        /* \"#utility.yul\":38058:38061   */\n      dup3\n        /* \"#utility.yul\":38049:38055   */\n      dup5\n        /* \"#utility.yul\":37967:38062   */\n      tag_485\n      jump\t// in\n    tag_846:\n        /* \"#utility.yul\":37960:38062   */\n      swap2\n      pop\n        /* \"#utility.yul\":38079:38082   */\n      dup2\n        /* \"#utility.yul\":38072:38082   */\n      swap1\n      pop\n        /* \"#utility.yul\":37813:38088   */\n      swap3\n      swap2\n      pop\n      pop\n      jump\t// out\n        /* \"#utility.yul\":38094:38262   */\n    tag_486:\n        /* \"#utility.yul\":38234:38254   */\n      0x436172626f6e20436f6e7472696275746f720000000000000000000000000000\n        /* \"#utility.yul\":38230:38231   */\n      0x00\n        /* \"#utility.yul\":38222:38228   */\n      dup3\n        /* \"#utility.yul\":38218:38232   */\n      add\n        /* \"#utility.yul\":38211:38255   */\n      mstore\n        /* \"#utility.yul\":38094:38262   */\n      pop\n      jump\t// out\n        /* \"#utility.yul\":38268:38670   */\n    tag_487:\n        /* \"#utility.yul\":38428:38431   */\n      0x00\n        /* \"#utility.yul\":38449:38534   */\n      tag_849\n        /* \"#utility.yul\":38531:38533   */\n      0x12\n        /* \"#utility.yul\":38526:38529   */\n      dup4\n        /* \"#utility.yul\":38449:38534   */\n      tag_482\n      jump\t// in\n    tag_849:\n        /* \"#utility.yul\":38442:38534   */\n      swap2\n      pop\n        /* \"#utility.yul\":38543:38636   */\n      tag_850\n        /* \"#utility.yul\":38632:38635   */\n      dup3\n        /* \"#utility.yul\":38543:38636   */\n      tag_486\n      jump\t// in\n    tag_850:\n        /* \"#utility.yul\":38661:38663   */\n      0x12\n        /* \"#utility.yul\":38656:38659   */\n      dup3\n        /* \"#utility.yul\":38652:38664   */\n      add\n        /* \"#utility.yul\":38645:38664   */\n      swap1\n      pop\n        /* \"#utility.yul\":38268:38670   */\n      swap2\n      swap1\n      pop\n      jump\t// out\n        /* \"#utility.yul\":38676:39057   */\n    tag_240:\n        /* \"#utility.yul\":38861:38864   */\n      0x00\n        /* \"#utility.yul\":38883:39031   */\n      tag_852\n        /* \"#utility.yul\":39027:39030   */\n      dup3\n        /* \"#utility.yul\":38883:39031   */\n      tag_487\n      jump\t// in\n    tag_852:\n        /* \"#utility.yul\":38876:39031   */\n      swap2\n      pop\n        /* \"#utility.yul\":39048:39051   */\n      dup2\n        /* \"#utility.yul\":39041:39051   */\n      swap1\n      pop\n        /* \"#utility.yul\":38676:39057   */\n      swap2\n      swap1\n      pop\n      jump\t// out\n        /* \"#utility.yul\":39063:39231   */\n    tag_488:\n        /* \"#utility.yul\":39203:39223   */\n      0x496e76616c696420626164676520747970650000000000000000000000000000\n        /* \"#utility.yul\":39199:39200   */\n      0x00\n        /* \"#utility.yul\":39191:39197   */\n      dup3\n        /* \"#utility.yul\":39187:39201   */\n      add\n        /* \"#utility.yul\":39180:39224   */\n      mstore\n        /* \"#utility.yul\":39063:39231   */\n      pop\n      jump\t// out\n        /* \"#utility.yul\":39237:39603   */\n    tag_489:\n        /* \"#utility.yul\":39379:39382   */\n      0x00\n        /* \"#utility.yul\":39400:39467   */\n      tag_855\n        /* \"#utility.yul\":39464:39466   */\n      0x12\n        /* \"#utility.yul\":39459:39462   */\n      dup4\n        /* \"#utility.yul\":39400:39467   */\n      tag_406\n      jump\t// in\n    tag_855:\n        /* \"#utility.yul\":39393:39467   */\n      swap2\n      pop\n        /* \"#utility.yul\":39476:39569   */\n      tag_856\n        /* \"#utility.yul\":39565:39568   */\n      dup3\n        /* \"#utility.yul\":39476:39569   */\n      tag_488\n      jump\t// in\n    tag_856:\n        /* \"#utility.yul\":39594:39596   */\n      0x20\n        /* \"#utility.yul\":39589:39592   */\n      dup3\n        /* \"#utility.yul\":39585:39597   */\n      add\n        /* \"#utility.yul\":39578:39597   */\n      swap1\n      pop\n        /* \"#utility.yul\":39237:39603   */\n      swap2\n      swap1\n      pop\n      jump\t// out\n        /* \"#utility.yul\":39609:40028   */\n    tag_245:\n        /* \"#utility.yul\":39775:39779   */\n      0x00\n        /* \"#utility.yul\":39813:39815   */\n      0x20\n        /* \"#utility.yul\":39802:39811   */\n      dup3\n        /* \"#utility.yul\":39798:39816   */\n      add\n        /* \"#utility.yul\":39790:39816   */\n      swap1\n      pop\n        /* \"#utility.yul\":39862:39871   */\n      dup2\n        /* \"#utility.yul\":39856:39860   */\n      dup2\n        /* \"#utility.yul\":39852:39872   */\n      sub\n        /* \"#utility.yul\":39848:39849   */\n      0x00\n        /* \"#utility.yul\":39837:39846   */\n      dup4\n        /* \"#utility.yul\":39833:39850   */\n      add\n        /* \"#utility.yul\":39826:39873   */\n      mstore\n        /* \"#utility.yul\":39890:40021   */\n      tag_858\n        /* \"#utility.yul\":40016:40020   */\n      dup2\n        /* \"#utility.yul\":39890:40021   */\n      tag_489\n      jump\t// in\n    tag_858:\n        /* \"#utility.yul\":39882:40021   */\n      swap1\n      pop\n        /* \"#utility.yul\":39609:40028   */\n      swap2\n      swap1\n      pop\n      jump\t// out\n        /* \"#utility.yul\":40034:40457   */\n    tag_247:\n        /* \"#utility.yul\":40175:40179   */\n      0x00\n        /* \"#utility.yul\":40213:40215   */\n      0x40\n        /* \"#utility.yul\":40202:40211   */\n      dup3\n        /* \"#utility.yul\":40198:40216   */\n      add\n        /* \"#utility.yul\":40190:40216   */\n      swap1\n      pop\n        /* \"#utility.yul\":40262:40271   */\n      dup2\n        /* \"#utility.yul\":40256:40260   */\n      dup2\n        /* \"#utility.yul\":40252:40272   */\n      sub\n        /* \"#utility.yul\":40248:40249   */\n      0x00\n        /* \"#utility.yul\":40237:40246   */\n      dup4\n        /* \"#utility.yul\":40233:40250   */\n      add\n        /* \"#utility.yul\":40226:40273   */\n      mstore\n        /* \"#utility.yul\":40290:40368   */\n      tag_860\n        /* \"#utility.yul\":40363:40367   */\n      dup2\n        /* \"#utility.yul\":40354:40360   */\n      dup6\n        /* \"#utility.yul\":40290:40368   */\n      tag_409\n      jump\t// in\n    tag_860:\n        /* \"#utility.yul\":40282:40368   */\n      swap1\n      pop\n        /* \"#utility.yul\":40378:40450   */\n      tag_861\n        /* \"#utility.yul\":40446:40448   */\n      0x20\n        /* \"#utility.yul\":40435:40444   */\n      dup4\n        /* \"#utility.yul\":40431:40449   */\n      add\n        /* \"#utility.yul\":40422:40428   */\n      dup5\n        /* \"#utility.yul\":40378:40450   */\n      tag_404\n      jump\t// in\n    tag_861:\n        /* \"#utility.yul\":40034:40457   */\n      swap4\n      swap3\n      pop\n      pop\n      pop\n      jump\t// out\n        /* \"#utility.yul\":40463:40643   */\n    tag_261:\n        /* \"#utility.yul\":40511:40588   */\n      0x4e487b7100000000000000000000000000000000000000000000000000000000\n        /* \"#utility.yul\":40508:40509   */\n      0x00\n        /* \"#utility.yul\":40501:40589   */\n      mstore\n        /* \"#utility.yul\":40608:40612   */\n      0x32\n        /* \"#utility.yul\":40605:40606   */\n      0x04\n        /* \"#utility.yul\":40598:40613   */\n      mstore\n        /* \"#utility.yul\":40632:40636   */\n      0x24\n        /* \"#utility.yul\":40629:40630   */\n      0x00\n        /* \"#utility.yul\":40622:40637   */\n      revert\n        /* \"#utility.yul\":40649:40840   */\n    tag_272:\n        /* \"#utility.yul\":40689:40692   */\n      0x00\n        /* \"#utility.yul\":40708:40728   */\n      tag_864\n        /* \"#utility.yul\":40726:40727   */\n      dup3\n        /* \"#utility.yul\":40708:40728   */\n      tag_403\n      jump\t// in\n    tag_864:\n        /* \"#utility.yul\":40703:40728   */\n      swap2\n      pop\n        /* \"#utility.yul\":40742:40762   */\n      tag_865\n        /* \"#utility.yul\":40760:40761   */\n      dup4\n        /* \"#utility.yul\":40742:40762   */\n      tag_403\n      jump\t// in\n    tag_865:\n        /* \"#utility.yul\":40737:40762   */\n      swap3\n      pop\n        /* \"#utility.yul\":40785:40786   */\n      dup3\n        /* \"#utility.yul\":40782:40783   */\n      dup3\n        /* \"#utility.yul\":40778:40787   */\n      add\n        /* \"#utility.yul\":40771:40787   */\n      swap1\n      pop\n        /* \"#utility.yul\":40806:40809   */\n      dup1\n        /* \"#utility.yul\":40803:40804   */\n      dup3\n        /* \"#utility.yul\":40800:40810   */\n      gt\n        /* \"#utility.yul\":40797:40833   */\n      iszero\n      tag_866\n      jumpi\n        /* \"#utility.yul\":40813:40831   */\n      tag_867\n      tag_479\n      jump\t// in\n    tag_867:\n        /* \"#utility.yul\":40797:40833   */\n    tag_866:\n        /* \"#utility.yul\":40649:40840   */\n      swap3\n      swap2\n      pop\n      pop\n      jump\t// out\n        /* \"#utility.yul\":40846:41068   */\n    tag_490:\n        /* \"#utility.yul\":40986:41020   */\n      0x437265646974732073686f756c642062652067726561746572207468616e207a\n        /* \"#utility.yul\":40982:40983   */\n      0x00\n        /* \"#utility.yul\":40974:40980   */\n      dup3\n        /* \"#utility.yul\":40970:40984   */\n      add\n        /* \"#utility.yul\":40963:41021   */\n      mstore\n        /* \"#utility.yul\":41055:41060   */\n      0x65726f0000000000000000000000000000000000000000000000000000000000\n        /* \"#utility.yul\":41050:41052   */\n      0x20\n        /* \"#utility.yul\":41042:41048   */\n      dup3\n        /* \"#utility.yul\":41038:41053   */\n      add\n        /* \"#utility.yul\":41031:41061   */\n      mstore\n        /* \"#utility.yul\":40846:41068   */\n      pop\n      jump\t// out\n        /* \"#utility.yul\":41074:41440   */\n    tag_491:\n        /* \"#utility.yul\":41216:41219   */\n      0x00\n        /* \"#utility.yul\":41237:41304   */\n      tag_870\n        /* \"#utility.yul\":41301:41303   */\n      0x23\n        /* \"#utility.yul\":41296:41299   */\n      dup4\n        /* \"#utility.yul\":41237:41304   */\n      tag_406\n      jump\t// in\n    tag_870:\n        /* \"#utility.yul\":41230:41304   */\n      swap2\n      pop\n        /* \"#utility.yul\":41313:41406   */\n      tag_871\n        /* \"#utility.yul\":41402:41405   */\n      dup3\n        /* \"#utility.yul\":41313:41406   */\n      tag_490\n      jump\t// in\n    tag_871:\n        /* \"#utility.yul\":41431:41433   */\n      0x40\n        /* \"#utility.yul\":41426:41429   */\n      dup3\n        /* \"#utility.yul\":41422:41434   */\n      add\n        /* \"#utility.yul\":41415:41434   */\n      swap1\n      pop\n        /* \"#utility.yul\":41074:41440   */\n      swap2\n      swap1\n      pop\n      jump\t// out\n        /* \"#utility.yul\":41446:41865   */\n    tag_299:\n        /* \"#utility.yul\":41612:41616   */\n      0x00\n        /* \"#utility.yul\":41650:41652   */\n      0x20\n        /* \"#utility.yul\":41639:41648   */\n      dup3\n        /* \"#utility.yul\":41635:41653   */\n      add\n        /* \"#utility.yul\":41627:41653   */\n      swap1\n      pop\n        /* \"#utility.yul\":41699:41708   */\n      dup2\n        /* \"#utility.yul\":41693:41697   */\n      dup2\n        /* \"#utility.yul\":41689:41709   */\n      sub\n        /* \"#utility.yul\":41685:41686   */\n      0x00\n        /* \"#utility.yul\":41674:41683   */\n      dup4\n        /* \"#utility.yul\":41670:41687   */\n      add\n        /* \"#utility.yul\":41663:41710   */\n      mstore\n        /* \"#utility.yul\":41727:41858   */\n      tag_873\n        /* \"#utility.yul\":41853:41857   */\n      dup2\n        /* \"#utility.yul\":41727:41858   */\n      tag_491\n      jump\t// in\n    tag_873:\n        /* \"#utility.yul\":41719:41858   */\n      swap1\n      pop\n        /* \"#utility.yul\":41446:41865   */\n      swap2\n      swap1\n      pop\n      jump\t// out\n        /* \"#utility.yul\":41871:42049   */\n    tag_492:\n        /* \"#utility.yul\":42011:42041   */\n      0x4e6f7420656e6f75676820617661696c61626c65206372656469747300000000\n        /* \"#utility.yul\":42007:42008   */\n      0x00\n        /* \"#utility.yul\":41999:42005   */\n      dup3\n        /* \"#utility.yul\":41995:42009   */\n      add\n        /* \"#utility.yul\":41988:42042   */\n      mstore\n        /* \"#utility.yul\":41871:42049   */\n      pop\n      jump\t// out\n        /* \"#utility.yul\":42055:42421   */\n    tag_493:\n        /* \"#utility.yul\":42197:42200   */\n      0x00\n        /* \"#utility.yul\":42218:42285   */\n      tag_876\n        /* \"#utility.yul\":42282:42284   */\n      0x1c\n        /* \"#utility.yul\":42277:42280   */\n      dup4\n        /* \"#utility.yul\":42218:42285   */\n      tag_406\n      jump\t// in\n    tag_876:\n        /* \"#utility.yul\":42211:42285   */\n      swap2\n      pop\n        /* \"#utility.yul\":42294:42387   */\n      tag_877\n        /* \"#utility.yul\":42383:42386   */\n      dup3\n        /* \"#utility.yul\":42294:42387   */\n      tag_492\n      jump\t// in\n    tag_877:\n        /* \"#utility.yul\":42412:42414   */\n      0x20\n        /* \"#utility.yul\":42407:42410   */\n      dup3\n        /* \"#utility.yul\":42403:42415   */\n      add\n        /* \"#utility.yul\":42396:42415   */\n      swap1\n      pop\n        /* \"#utility.yul\":42055:42421   */\n      swap2\n      swap1\n      pop\n      jump\t// out\n        /* \"#utility.yul\":42427:42846   */\n    tag_302:\n        /* \"#utility.yul\":42593:42597   */\n      0x00\n        /* \"#utility.yul\":42631:42633   */\n      0x20\n        /* \"#utility.yul\":42620:42629   */\n      dup3\n        /* \"#utility.yul\":42616:42634   */\n      add\n        /* \"#utility.yul\":42608:42634   */\n      swap1\n      pop\n        /* \"#utility.yul\":42680:42689   */\n      dup2\n        /* \"#utility.yul\":42674:42678   */\n      dup2\n        /* \"#utility.yul\":42670:42690   */\n      sub\n        /* \"#utility.yul\":42666:42667   */\n      0x00\n        /* \"#utility.yul\":42655:42664   */\n      dup4\n        /* \"#utility.yul\":42651:42668   */\n      add\n        /* \"#utility.yul\":42644:42691   */\n      mstore\n        /* \"#utility.yul\":42708:42839   */\n      tag_879\n        /* \"#utility.yul\":42834:42838   */\n      dup2\n        /* \"#utility.yul\":42708:42839   */\n      tag_493\n      jump\t// in\n    tag_879:\n        /* \"#utility.yul\":42700:42839   */\n      swap1\n      pop\n        /* \"#utility.yul\":42427:42846   */\n      swap2\n      swap1\n      pop\n      jump\t// out\n        /* \"#utility.yul\":42852:43262   */\n    tag_304:\n        /* \"#utility.yul\":42892:42899   */\n      0x00\n        /* \"#utility.yul\":42915:42935   */\n      tag_881\n        /* \"#utility.yul\":42933:42934   */\n      dup3\n        /* \"#utility.yul\":42915:42935   */\n      tag_403\n      jump\t// in\n    tag_881:\n        /* \"#utility.yul\":42910:42935   */\n      swap2\n      pop\n        /* \"#utility.yul\":42949:42969   */\n      tag_882\n        /* \"#utility.yul\":42967:42968   */\n      dup4\n        /* \"#utility.yul\":42949:42969   */\n      tag_403\n      jump\t// in\n    tag_882:\n        /* \"#utility.yul\":42944:42969   */\n      swap3\n      pop\n        /* \"#utility.yul\":43004:43005   */\n      dup3\n        /* \"#utility.yul\":43001:43002   */\n      dup3\n        /* \"#utility.yul\":42997:43006   */\n      mul\n        /* \"#utility.yul\":43026:43056   */\n      tag_883\n        /* \"#utility.yul\":43044:43055   */\n      dup2\n        /* \"#utility.yul\":43026:43056   */\n      tag_403\n      jump\t// in\n    tag_883:\n        /* \"#utility.yul\":43015:43056   */\n      swap2\n      pop\n        /* \"#utility.yul\":43205:43206   */\n      dup3\n        /* \"#utility.yul\":43196:43203   */\n      dup3\n        /* \"#utility.yul\":43192:43207   */\n      div\n        /* \"#utility.yul\":43189:43190   */\n      dup5\n        /* \"#utility.yul\":43186:43208   */\n      eq\n        /* \"#utility.yul\":43166:43167   */\n      dup4\n        /* \"#utility.yul\":43159:43168   */\n      iszero\n        /* \"#utility.yul\":43139:43222   */\n      or\n        /* \"#utility.yul\":43116:43255   */\n      tag_884\n      jumpi\n        /* \"#utility.yul\":43235:43253   */\n      tag_885\n      tag_479\n      jump\t// in\n    tag_885:\n        /* \"#utility.yul\":43116:43255   */\n    tag_884:\n        /* \"#utility.yul\":42900:43262   */\n      pop\n        /* \"#utility.yul\":42852:43262   */\n      swap3\n      swap2\n      pop\n      pop\n      jump\t// out\n        /* \"#utility.yul\":43268:43438   */\n    tag_494:\n        /* \"#utility.yul\":43408:43430   */\n      0x496e73756666696369656e74207061796d656e74000000000000000000000000\n        /* \"#utility.yul\":43404:43405   */\n      0x00\n        /* \"#utility.yul\":43396:43402   */\n      dup3\n        /* \"#utility.yul\":43392:43406   */\n      add\n        /* \"#utility.yul\":43385:43431   */\n      mstore\n        /* \"#utility.yul\":43268:43438   */\n      pop\n      jump\t// out\n        /* \"#utility.yul\":43444:43810   */\n    tag_495:\n        /* \"#utility.yul\":43586:43589   */\n      0x00\n        /* \"#utility.yul\":43607:43674   */\n      tag_888\n        /* \"#utility.yul\":43671:43673   */\n      0x14\n        /* \"#utility.yul\":43666:43669   */\n      dup4\n        /* \"#utility.yul\":43607:43674   */\n      tag_406\n      jump\t// in\n    tag_888:\n        /* \"#utility.yul\":43600:43674   */\n      swap2\n      pop\n        /* \"#utility.yul\":43683:43776   */\n      tag_889\n        /* \"#utility.yul\":43772:43775   */\n      dup3\n        /* \"#utility.yul\":43683:43776   */\n      tag_494\n      jump\t// in\n    tag_889:\n        /* \"#utility.yul\":43801:43803   */\n      0x20\n        /* \"#utility.yul\":43796:43799   */\n      dup3\n        /* \"#utility.yul\":43792:43804   */\n      add\n        /* \"#utility.yul\":43785:43804   */\n      swap1\n      pop\n        /* \"#utility.yul\":43444:43810   */\n      swap2\n      swap1\n      pop\n      jump\t// out\n        /* \"#utility.yul\":43816:44235   */\n    tag_307:\n        /* \"#utility.yul\":43982:43986   */\n      0x00\n        /* \"#utility.yul\":44020:44022   */\n      0x20\n        /* \"#utility.yul\":44009:44018   */\n      dup3\n        /* \"#utility.yul\":44005:44023   */\n      add\n        /* \"#utility.yul\":43997:44023   */\n      swap1\n      pop\n        /* \"#utility.yul\":44069:44078   */\n      dup2\n        /* \"#utility.yul\":44063:44067   */\n      dup2\n        /* \"#utility.yul\":44059:44079   */\n      sub\n        /* \"#utility.yul\":44055:44056   */\n      0x00\n        /* \"#utility.yul\":44044:44053   */\n      dup4\n        /* \"#utility.yul\":44040:44057   */\n      add\n        /* \"#utility.yul\":44033:44080   */\n      mstore\n        /* \"#utility.yul\":44097:44228   */\n      tag_891\n        /* \"#utility.yul\":44223:44227   */\n      dup2\n        /* \"#utility.yul\":44097:44228   */\n      tag_495\n      jump\t// in\n    tag_891:\n        /* \"#utility.yul\":44089:44228   */\n      swap1\n      pop\n        /* \"#utility.yul\":43816:44235   */\n      swap2\n      swap1\n      pop\n      jump\t// out\n        /* \"#utility.yul\":44241:44421   */\n    tag_496:\n        /* \"#utility.yul\":44289:44366   */\n      0x4e487b7100000000000000000000000000000000000000000000000000000000\n        /* \"#utility.yul\":44286:44287   */\n      0x00\n        /* \"#utility.yul\":44279:44367   */\n      mstore\n        /* \"#utility.yul\":44386:44390   */\n      0x12\n        /* \"#utility.yul\":44383:44384   */\n      0x04\n        /* \"#utility.yul\":44376:44391   */\n      mstore\n        /* \"#utility.yul\":44410:44414   */\n      0x24\n        /* \"#utility.yul\":44407:44408   */\n      0x00\n        /* \"#utility.yul\":44400:44415   */\n      revert\n        /* \"#utility.yul\":44427:44612   */\n    tag_310:\n        /* \"#utility.yul\":44467:44468   */\n      0x00\n        /* \"#utility.yul\":44484:44504   */\n      tag_894\n        /* \"#utility.yul\":44502:44503   */\n      dup3\n        /* \"#utility.yul\":44484:44504   */\n      tag_403\n      jump\t// in\n    tag_894:\n        /* \"#utility.yul\":44479:44504   */\n      swap2\n      pop\n        /* \"#utility.yul\":44518:44538   */\n      tag_895\n        /* \"#utility.yul\":44536:44537   */\n      dup4\n        /* \"#utility.yul\":44518:44538   */\n      tag_403\n      jump\t// in\n    tag_895:\n        /* \"#utility.yul\":44513:44538   */\n      swap3\n      pop\n        /* \"#utility.yul\":44557:44558   */\n      dup3\n        /* \"#utility.yul\":44547:44582   */\n      tag_896\n      jumpi\n        /* \"#utility.yul\":44562:44580   */\n      tag_897\n      tag_496\n      jump\t// in\n    tag_897:\n        /* \"#utility.yul\":44547:44582   */\n    tag_896:\n        /* \"#utility.yul\":44604:44605   */\n      dup3\n        /* \"#utility.yul\":44601:44602   */\n      dup3\n        /* \"#utility.yul\":44597:44606   */\n      div\n        /* \"#utility.yul\":44592:44606   */\n      swap1\n      pop\n        /* \"#utility.yul\":44427:44612   */\n      swap3\n      swap2\n      pop\n      pop\n      jump\t// out\n        /* \"#utility.yul\":44618:44800   */\n    tag_497:\n        /* \"#utility.yul\":44758:44792   */\n      0x496e73756666696369656e74206372656469747320746f207472616e73666572\n        /* \"#utility.yul\":44754:44755   */\n      0x00\n        /* \"#utility.yul\":44746:44752   */\n      dup3\n        /* \"#utility.yul\":44742:44756   */\n      add\n        /* \"#utility.yul\":44735:44793   */\n      mstore\n        /* \"#utility.yul\":44618:44800   */\n      pop\n      jump\t// out\n        /* \"#utility.yul\":44806:45172   */\n    tag_498:\n        /* \"#utility.yul\":44948:44951   */\n      0x00\n        /* \"#utility.yul\":44969:45036   */\n      tag_900\n        /* \"#utility.yul\":45033:45035   */\n      0x20\n        /* \"#utility.yul\":45028:45031   */\n      dup4\n        /* \"#utility.yul\":44969:45036   */\n      tag_406\n      jump\t// in\n    tag_900:\n        /* \"#utility.yul\":44962:45036   */\n      swap2\n      pop\n        /* \"#utility.yul\":45045:45138   */\n      tag_901\n        /* \"#utility.yul\":45134:45137   */\n      dup3\n        /* \"#utility.yul\":45045:45138   */\n      tag_497\n      jump\t// in\n    tag_901:\n        /* \"#utility.yul\":45163:45165   */\n      0x20\n        /* \"#utility.yul\":45158:45161   */\n      dup3\n        /* \"#utility.yul\":45154:45166   */\n      add\n        /* \"#utility.yul\":45147:45166   */\n      swap1\n      pop\n        /* \"#utility.yul\":44806:45172   */\n      swap2\n      swap1\n      pop\n      jump\t// out\n        /* \"#utility.yul\":45178:45597   */\n    tag_329:\n        /* \"#utility.yul\":45344:45348   */\n      0x00\n        /* \"#utility.yul\":45382:45384   */\n      0x20\n        /* \"#utility.yul\":45371:45380   */\n      dup3\n        /* \"#utility.yul\":45367:45385   */\n      add\n        /* \"#utility.yul\":45359:45385   */\n      swap1\n      pop\n        /* \"#utility.yul\":45431:45440   */\n      dup2\n        /* \"#utility.yul\":45425:45429   */\n      dup2\n        /* \"#utility.yul\":45421:45441   */\n      sub\n        /* \"#utility.yul\":45417:45418   */\n      0x00\n        /* \"#utility.yul\":45406:45415   */\n      dup4\n        /* \"#utility.yul\":45402:45419   */\n      add\n        /* \"#utility.yul\":45395:45442   */\n      mstore\n        /* \"#utility.yul\":45459:45590   */\n      tag_903\n        /* \"#utility.yul\":45585:45589   */\n      dup2\n        /* \"#utility.yul\":45459:45590   */\n      tag_498\n      jump\t// in\n    tag_903:\n        /* \"#utility.yul\":45451:45590   */\n      swap1\n      pop\n        /* \"#utility.yul\":45178:45597   */\n      swap2\n      swap1\n      pop\n      jump\t// out\n        /* \"#utility.yul\":45603:45823   */\n    tag_499:\n        /* \"#utility.yul\":45743:45777   */\n      0x496e73756666696369656e742066656520666f7220746865207472616e736665\n        /* \"#utility.yul\":45739:45740   */\n      0x00\n        /* \"#utility.yul\":45731:45737   */\n      dup3\n        /* \"#utility.yul\":45727:45741   */\n      add\n        /* \"#utility.yul\":45720:45778   */\n      mstore\n        /* \"#utility.yul\":45812:45815   */\n      0x7200000000000000000000000000000000000000000000000000000000000000\n        /* \"#utility.yul\":45807:45809   */\n      0x20\n        /* \"#utility.yul\":45799:45805   */\n      dup3\n        /* \"#utility.yul\":45795:45810   */\n      add\n        /* \"#utility.yul\":45788:45816   */\n      mstore\n        /* \"#utility.yul\":45603:45823   */\n      pop\n      jump\t// out\n        /* \"#utility.yul\":45829:46195   */\n    tag_500:\n        /* \"#utility.yul\":45971:45974   */\n      0x00\n        /* \"#utility.yul\":45992:46059   */\n      tag_906\n        /* \"#utility.yul\":46056:46058   */\n      0x21\n        /* \"#utility.yul\":46051:46054   */\n      dup4\n        /* \"#utility.yul\":45992:46059   */\n      tag_406\n      jump\t// in\n    tag_906:\n        /* \"#utility.yul\":45985:46059   */\n      swap2\n      pop\n        /* \"#utility.yul\":46068:46161   */\n      tag_907\n        /* \"#utility.yul\":46157:46160   */\n      dup3\n        /* \"#utility.yul\":46068:46161   */\n      tag_499\n      jump\t// in\n    tag_907:\n        /* \"#utility.yul\":46186:46188   */\n      0x40\n        /* \"#utility.yul\":46181:46184   */\n      dup3\n        /* \"#utility.yul\":46177:46189   */\n      add\n        /* \"#utility.yul\":46170:46189   */\n      swap1\n      pop\n        /* \"#utility.yul\":45829:46195   */\n      swap2\n      swap1\n      pop\n      jump\t// out\n        /* \"#utility.yul\":46201:46620   */\n    tag_332:\n        /* \"#utility.yul\":46367:46371   */\n      0x00\n        /* \"#utility.yul\":46405:46407   */\n      0x20\n        /* \"#utility.yul\":46394:46403   */\n      dup3\n        /* \"#utility.yul\":46390:46408   */\n      add\n        /* \"#utility.yul\":46382:46408   */\n      swap1\n      pop\n        /* \"#utility.yul\":46454:46463   */\n      dup2\n        /* \"#utility.yul\":46448:46452   */\n      dup2\n        /* \"#utility.yul\":46444:46464   */\n      sub\n        /* \"#utility.yul\":46440:46441   */\n      0x00\n        /* \"#utility.yul\":46429:46438   */\n      dup4\n        /* \"#utility.yul\":46425:46442   */\n      add\n        /* \"#utility.yul\":46418:46465   */\n      mstore\n        /* \"#utility.yul\":46482:46613   */\n      tag_909\n        /* \"#utility.yul\":46608:46612   */\n      dup2\n        /* \"#utility.yul\":46482:46613   */\n      tag_500\n      jump\t// in\n    tag_909:\n        /* \"#utility.yul\":46474:46613   */\n      swap1\n      pop\n        /* \"#utility.yul\":46201:46620   */\n      swap2\n      swap1\n      pop\n      jump\t// out\n        /* \"#utility.yul\":46626:46863   */\n    tag_501:\n        /* \"#utility.yul\":46766:46800   */\n      0x4f6e6c7920746865206f776e65722063616e20746f67676c6520726567697374\n        /* \"#utility.yul\":46762:46763   */\n      0x00\n        /* \"#utility.yul\":46754:46760   */\n      dup3\n        /* \"#utility.yul\":46750:46764   */\n      add\n        /* \"#utility.yul\":46743:46801   */\n      mstore\n        /* \"#utility.yul\":46835:46855   */\n      0x726174696f6e207065726d697373696f6e730000000000000000000000000000\n        /* \"#utility.yul\":46830:46832   */\n      0x20\n        /* \"#utility.yul\":46822:46828   */\n      dup3\n        /* \"#utility.yul\":46818:46833   */\n      add\n        /* \"#utility.yul\":46811:46856   */\n      mstore\n        /* \"#utility.yul\":46626:46863   */\n      pop\n      jump\t// out\n        /* \"#utility.yul\":46869:47235   */\n    tag_502:\n        /* \"#utility.yul\":47011:47014   */\n      0x00\n        /* \"#utility.yul\":47032:47099   */\n      tag_912\n        /* \"#utility.yul\":47096:47098   */\n      0x32\n        /* \"#utility.yul\":47091:47094   */\n      dup4\n        /* \"#utility.yul\":47032:47099   */\n      tag_406\n      jump\t// in\n    tag_912:\n        /* \"#utility.yul\":47025:47099   */\n      swap2\n      pop\n        /* \"#utility.yul\":47108:47201   */\n      tag_913\n        /* \"#utility.yul\":47197:47200   */\n      dup3\n        /* \"#utility.yul\":47108:47201   */\n      tag_501\n      jump\t// in\n    tag_913:\n        /* \"#utility.yul\":47226:47228   */\n      0x40\n        /* \"#utility.yul\":47221:47224   */\n      dup3\n        /* \"#utility.yul\":47217:47229   */\n      add\n        /* \"#utility.yul\":47210:47229   */\n      swap1\n      pop\n        /* \"#utility.yul\":46869:47235   */\n      swap2\n      swap1\n      pop\n      jump\t// out\n        /* \"#utility.yul\":47241:47660   */\n    tag_346:\n        /* \"#utility.yul\":47407:47411   */\n      0x00\n        /* \"#utility.yul\":47445:47447   */\n      0x20\n        /* \"#utility.yul\":47434:47443   */\n      dup3\n        /* \"#utility.yul\":47430:47448   */\n      add\n        /* \"#utility.yul\":47422:47448   */\n      swap1\n      pop\n        /* \"#utility.yul\":47494:47503   */\n      dup2\n        /* \"#utility.yul\":47488:47492   */\n      dup2\n        /* \"#utility.yul\":47484:47504   */\n      sub\n        /* \"#utility.yul\":47480:47481   */\n      0x00\n        /* \"#utility.yul\":47469:47478   */\n      dup4\n        /* \"#utility.yul\":47465:47482   */\n      add\n        /* \"#utility.yul\":47458:47505   */\n      mstore\n        /* \"#utility.yul\":47522:47653   */\n      tag_915\n        /* \"#utility.yul\":47648:47652   */\n      dup2\n        /* \"#utility.yul\":47522:47653   */\n      tag_502\n      jump\t// in\n    tag_915:\n        /* \"#utility.yul\":47514:47653   */\n      swap1\n      pop\n        /* \"#utility.yul\":47241:47660   */\n      swap2\n      swap1\n      pop\n      jump\t// out\n        /* \"#utility.yul\":47666:47957   */\n    tag_503:\n        /* \"#utility.yul\":47806:47840   */\n      0x4f6e6c7920746865206f776e65722063616e2072656769737465722070726f6a\n        /* \"#utility.yul\":47802:47803   */\n      0x00\n        /* \"#utility.yul\":47794:47800   */\n      dup3\n        /* \"#utility.yul\":47790:47804   */\n      add\n        /* \"#utility.yul\":47783:47841   */\n      mstore\n        /* \"#utility.yul\":47875:47909   */\n      0x6563747320616e64206e6f6e2d6f776e65727320617265206e6f7420616c6c6f\n        /* \"#utility.yul\":47870:47872   */\n      0x20\n        /* \"#utility.yul\":47862:47868   */\n      dup3\n        /* \"#utility.yul\":47858:47873   */\n      add\n        /* \"#utility.yul\":47851:47910   */\n      mstore\n        /* \"#utility.yul\":47944:47949   */\n      0x7765640000000000000000000000000000000000000000000000000000000000\n        /* \"#utility.yul\":47939:47941   */\n      0x40\n        /* \"#utility.yul\":47931:47937   */\n      dup3\n        /* \"#utility.yul\":47927:47942   */\n      add\n        /* \"#utility.yul\":47920:47950   */\n      mstore\n        /* \"#utility.yul\":47666:47957   */\n      pop\n      jump\t// out\n        /* \"#utility.yul\":47963:48329   */\n    tag_504:\n        /* \"#utility.yul\":48105:48108   */\n      0x00\n        /* \"#utility.yul\":48126:48193   */\n      tag_918\n        /* \"#utility.yul\":48190:48192   */\n      0x43\n        /* \"#utility.yul\":48185:48188   */\n      dup4\n        /* \"#utility.yul\":48126:48193   */\n      tag_406\n      jump\t// in\n    tag_918:\n        /* \"#utility.yul\":48119:48193   */\n      swap2\n      pop\n        /* \"#utility.yul\":48202:48295   */\n      tag_919\n        /* \"#utility.yul\":48291:48294   */\n      dup3\n        /* \"#utility.yul\":48202:48295   */\n      tag_503\n      jump\t// in\n    tag_919:\n        /* \"#utility.yul\":48320:48322   */\n      0x60\n        /* \"#utility.yul\":48315:48318   */\n      dup3\n        /* \"#utility.yul\":48311:48323   */\n      add\n        /* \"#utility.yul\":48304:48323   */\n      swap1\n      pop\n        /* \"#utility.yul\":47963:48329   */\n      swap2\n      swap1\n      pop\n      jump\t// out\n        /* \"#utility.yul\":48335:48754   */\n    tag_365:\n        /* \"#utility.yul\":48501:48505   */\n      0x00\n        /* \"#utility.yul\":48539:48541   */\n      0x20\n        /* \"#utility.yul\":48528:48537   */\n      dup3\n        /* \"#utility.yul\":48524:48542   */\n      add\n        /* \"#utility.yul\":48516:48542   */\n      swap1\n      pop\n        /* \"#utility.yul\":48588:48597   */\n      dup2\n        /* \"#utility.yul\":48582:48586   */\n      dup2\n        /* \"#utility.yul\":48578:48598   */\n      sub\n        /* \"#utility.yul\":48574:48575   */\n      0x00\n        /* \"#utility.yul\":48563:48572   */\n      dup4\n        /* \"#utility.yul\":48559:48576   */\n      add\n        /* \"#utility.yul\":48552:48599   */\n      mstore\n        /* \"#utility.yul\":48616:48747   */\n      tag_921\n        /* \"#utility.yul\":48742:48746   */\n      dup2\n        /* \"#utility.yul\":48616:48747   */\n      tag_504\n      jump\t// in\n    tag_921:\n        /* \"#utility.yul\":48608:48747   */\n      swap1\n      pop\n        /* \"#utility.yul\":48335:48754   */\n      swap2\n      swap1\n      pop\n      jump\t// out\n        /* \"#utility.yul\":48760:48993   */\n    tag_375:\n        /* \"#utility.yul\":48799:48802   */\n      0x00\n        /* \"#utility.yul\":48822:48846   */\n      tag_923\n        /* \"#utility.yul\":48840:48845   */\n      dup3\n        /* \"#utility.yul\":48822:48846   */\n      tag_403\n      jump\t// in\n    tag_923:\n        /* \"#utility.yul\":48813:48846   */\n      swap2\n      pop\n        /* \"#utility.yul\":48868:48934   */\n      0xffffffffffffffffffffffffffffffffffffffffffffffffffffffffffffffff\n        /* \"#utility.yul\":48861:48866   */\n      dup3\n        /* \"#utility.yul\":48858:48935   */\n      sub\n        /* \"#utility.yul\":48855:48958   */\n      tag_924\n      jumpi\n        /* \"#utility.yul\":48938:48956   */\n      tag_925\n      tag_479\n      jump\t// in\n    tag_925:\n        /* \"#utility.yul\":48855:48958   */\n    tag_924:\n        /* \"#utility.yul\":48985:48986   */\n      0x01\n        /* \"#utility.yul\":48978:48983   */\n      dup3\n        /* \"#utility.yul\":48974:48987   */\n      add\n        /* \"#utility.yul\":48967:48987   */\n      swap1\n      pop\n        /* \"#utility.yul\":48760:48993   */\n      swap2\n      swap1\n      pop\n      jump\t// out\n        /* \"#utility.yul\":49023:49854   */\n    tag_505:\n        /* \"#utility.yul\":49108:49111   */\n      0x00\n        /* \"#utility.yul\":49145:49150   */\n      dup2\n        /* \"#utility.yul\":49139:49151   */\n      sload\n        /* \"#utility.yul\":49174:49210   */\n      tag_927\n        /* \"#utility.yul\":49200:49209   */\n      dup2\n        /* \"#utility.yul\":49174:49210   */\n      tag_162\n      jump\t// in\n    tag_927:\n        /* \"#utility.yul\":49226:49297   */\n      tag_928\n        /* \"#utility.yul\":49290:49296   */\n      dup2\n        /* \"#utility.yul\":49285:49288   */\n      dup7\n        /* \"#utility.yul\":49226:49297   */\n      tag_406\n      jump\t// in\n    tag_928:\n        /* \"#utility.yul\":49219:49297   */\n      swap5\n      pop\n        /* \"#utility.yul\":49328:49329   */\n      0x01\n        /* \"#utility.yul\":49317:49326   */\n      dup3\n        /* \"#utility.yul\":49313:49330   */\n      and\n        /* \"#utility.yul\":49344:49345   */\n      0x00\n        /* \"#utility.yul\":49339:49503   */\n      dup2\n      eq\n      tag_930\n      jumpi\n        /* \"#utility.yul\":49517:49518   */\n      0x01\n        /* \"#utility.yul\":49512:49848   */\n      dup2\n      eq\n      tag_931\n      jumpi\n        /* \"#utility.yul\":49306:49848   */\n      jump(tag_929)\n        /* \"#utility.yul\":49339:49503   */\n    tag_930:\n        /* \"#utility.yul\":49423:49427   */\n      0xff\n        /* \"#utility.yul\":49419:49428   */\n      not\n        /* \"#utility.yul\":49408:49417   */\n      dup4\n        /* \"#utility.yul\":49404:49429   */\n      and\n        /* \"#utility.yul\":49399:49402   */\n      dup7\n        /* \"#utility.yul\":49392:49430   */\n      mstore\n        /* \"#utility.yul\":49483:49489   */\n      dup2\n        /* \"#utility.yul\":49476:49490   */\n      iszero\n        /* \"#utility.yul\":49469:49491   */\n      iszero\n        /* \"#utility.yul\":49463:49467   */\n      0x20\n        /* \"#utility.yul\":49459:49492   */\n      mul\n        /* \"#utility.yul\":49454:49457   */\n      dup7\n        /* \"#utility.yul\":49450:49493   */\n      add\n        /* \"#utility.yul\":49443:49493   */\n      swap4\n      pop\n        /* \"#utility.yul\":49339:49503   */\n      jump(tag_929)\n        /* \"#utility.yul\":49512:49848   */\n    tag_931:\n        /* \"#utility.yul\":49579:49617   */\n      tag_932\n        /* \"#utility.yul\":49611:49616   */\n      dup6\n        /* \"#utility.yul\":49579:49617   */\n      tag_462\n      jump\t// in\n    tag_932:\n        /* \"#utility.yul\":49639:49640   */\n      0x00\n        /* \"#utility.yul\":49653:49807   */\n    tag_933:\n        /* \"#utility.yul\":49667:49673   */\n      dup4\n        /* \"#utility.yul\":49664:49665   */\n      dup2\n        /* \"#utility.yul\":49661:49674   */\n      lt\n        /* \"#utility.yul\":49653:49807   */\n      iszero\n      tag_935\n      jumpi\n        /* \"#utility.yul\":49741:49748   */\n      dup2\n        /* \"#utility.yul\":49735:49749   */\n      sload\n        /* \"#utility.yul\":49731:49732   */\n      dup2\n        /* \"#utility.yul\":49726:49729   */\n      dup10\n        /* \"#utility.yul\":49722:49733   */\n      add\n        /* \"#utility.yul\":49715:49750   */\n      mstore\n        /* \"#utility.yul\":49791:49792   */\n      0x01\n        /* \"#utility.yul\":49782:49789   */\n      dup3\n        /* \"#utility.yul\":49778:49793   */\n      add\n        /* \"#utility.yul\":49767:49793   */\n      swap2\n      pop\n        /* \"#utility.yul\":49689:49693   */\n      0x20\n        /* \"#utility.yul\":49686:49687   */\n      dup2\n        /* \"#utility.yul\":49682:49694   */\n      add\n        /* \"#utility.yul\":49677:49694   */\n      swap1\n      pop\n        /* \"#utility.yul\":49653:49807   */\n      jump(tag_933)\n    tag_935:\n        /* \"#utility.yul\":49836:49837   */\n      dup1\n        /* \"#utility.yul\":49831:49834   */\n      dup9\n        /* \"#utility.yul\":49827:49838   */\n      add\n        /* \"#utility.yul\":49820:49838   */\n      swap6\n      pop\n        /* \"#utility.yul\":49519:49848   */\n      pop\n      pop\n        /* \"#utility.yul\":49306:49848   */\n    tag_929:\n      pop\n        /* \"#utility.yul\":49112:49854   */\n      pop\n      pop\n        /* \"#utility.yul\":49023:49854   */\n      swap3\n      swap2\n      pop\n      pop\n      jump\t// out\n        /* \"#utility.yul\":49860:50277   */\n    tag_395:\n        /* \"#utility.yul\":49998:50002   */\n      0x00\n        /* \"#utility.yul\":50036:50038   */\n      0x40\n        /* \"#utility.yul\":50025:50034   */\n      dup3\n        /* \"#utility.yul\":50021:50039   */\n      add\n        /* \"#utility.yul\":50013:50039   */\n      swap1\n      pop\n        /* \"#utility.yul\":50049:50120   */\n      tag_937\n        /* \"#utility.yul\":50117:50118   */\n      0x00\n        /* \"#utility.yul\":50106:50115   */\n      dup4\n        /* \"#utility.yul\":50102:50119   */\n      add\n        /* \"#utility.yul\":50093:50099   */\n      dup6\n        /* \"#utility.yul\":50049:50120   */\n      tag_404\n      jump\t// in\n    tag_937:\n        /* \"#utility.yul\":50167:50176   */\n      dup2\n        /* \"#utility.yul\":50161:50165   */\n      dup2\n        /* \"#utility.yul\":50157:50177   */\n      sub\n        /* \"#utility.yul\":50152:50154   */\n      0x20\n        /* \"#utility.yul\":50141:50150   */\n      dup4\n        /* \"#utility.yul\":50137:50155   */\n      add\n        /* \"#utility.yul\":50130:50178   */\n      mstore\n        /* \"#utility.yul\":50195:50270   */\n      tag_938\n        /* \"#utility.yul\":50265:50269   */\n      dup2\n        /* \"#utility.yul\":50256:50262   */\n      dup5\n        /* \"#utility.yul\":50195:50270   */\n      tag_505\n      jump\t// in\n    tag_938:\n        /* \"#utility.yul\":50187:50270   */\n      swap1\n      pop\n        /* \"#utility.yul\":49860:50277   */\n      swap4\n      swap3\n      pop\n      pop\n      pop\n      jump\t// out\n\n    auxdata: 0xa2646970667358221220f83956999000ecf2c1a850a246d2cf0265c5252b3c9f622482d3a5bcfdaef43d64736f6c634300081a0033\n}\n",
				"bytecode": {
					"linkReferences": {},
					"object": "608060405260646001555f60025f6101000a81548160ff0219169083151502179055506001600355671bc16d674ec800006004556103e8600c556101f4600d553480156049575f80fd5b50335f806101000a81548173ffffffffffffffffffffffffffffffffffffffff021916908373ffffffffffffffffffffffffffffffffffffffff160217905550614229806100965f395ff3fe608060405260043610610180575f3560e01c806384034469116100d0578063acb2ad6f11610089578063d7ff071411610063578063d7ff071414610570578063e636eb55146105b0578063ef925399146105d8578063f275fdf41461061457610180565b8063acb2ad6f146104dc578063b842ec4414610506578063c9ded4041461054657610180565b806384034469146103fe578063883ffe911461041a5780638da5cb5b14610444578063a001ecdd1461046e578063a2f6045a14610498578063ab52a745146104b457610180565b80632f51d7ce1161013d5780633ea0fb13116101175780633ea0fb131461034757806353dc99881461036f5780636d763a6e146103975780637ce26644146103c257610180565b80632f51d7ce146102cb578063354f75e1146102f557806336fbad261461031d57610180565b80630660f1e814610184578063078b0fb7146101c15780630994c98f146101fd578063107046bd1461022557806317a483a31461026557806327506f53146102a1575b5f80fd5b34801561018f575f80fd5b506101aa60048036038101906101a591906129af565b61063e565b6040516101b8929190612a62565b60405180910390f35b3480156101cc575f80fd5b506101e760048036038101906101e291906129af565b6106e4565b6040516101f49190612b21565b60405180910390f35b348015610208575f80fd5b50610223600480360381019061021e9190612b6b565b6107d4565b005b348015610230575f80fd5b5061024b60048036038101906102469190612b6b565b61086b565b60405161025c959493929190612ba5565b60405180910390f35b348015610270575f80fd5b5061028b60048036038101906102869190612bfd565b610942565b6040516102989190612c3b565b60405180910390f35b3480156102ac575f80fd5b506102b5610962565b6040516102c29190612d91565b60405180910390f35b3480156102d6575f80fd5b506102df610ac0565b6040516102ec9190612dcb565b60405180910390f35b348015610300575f80fd5b5061031b60048036038101906103169190612f10565b610ad2565b005b348015610328575f80fd5b50610331610cf2565b60405161033e9190612c3b565b60405180910390f35b348015610352575f80fd5b5061036d60048036038101906103689190612f90565b610cf8565b005b34801561037a575f80fd5b5061039560048036038101906103909190612fce565b6110b8565b005b3480156103a2575f80fd5b506103ab611278565b6040516103b9929190613178565b60405180910390f35b3480156103cd575f80fd5b506103e860048036038101906103e391906129af565b611616565b6040516103f59190612c3b565b60405180910390f35b61041860048036038101906104139190612f90565b61162b565b005b348015610425575f80fd5b5061042e611b63565b60405161043b9190612c3b565b60405180910390f35b34801561044f575f80fd5b50610458611b69565b60405161046591906131ad565b60405180910390f35b348015610479575f80fd5b50610482611b8c565b60405161048f9190612c3b565b60405180910390f35b6104b260048036038101906104ad91906131c6565b611b92565b005b3480156104bf575f80fd5b506104da60048036038101906104d59190613240565b612076565b005b3480156104e7575f80fd5b506104f061211f565b6040516104fd9190612c3b565b60405180910390f35b348015610511575f80fd5b5061052c60048036038101906105279190612bfd565b612125565b60405161053d95949392919061326b565b60405180910390f35b348015610551575f80fd5b5061055a612216565b6040516105679190612c3b565b60405180910390f35b34801561057b575f80fd5b5061059660048036038101906105919190612b6b565b61221c565b6040516105a795949392919061326b565b60405180910390f35b3480156105bb575f80fd5b506105d660048036038101906105d191906132c3565b612302565b005b3480156105e3575f80fd5b506105fe60048036038101906105f991906129af565b612592565b60405161060b9190612d91565b60405180910390f35b34801561061f575f80fd5b5061062861272d565b6040516106359190612c3b565b60405180910390f35b6008602052805f5260405f205f91509050805f0154908060010180546106639061335c565b80601f016020809104026020016040519081016040528092919081815260200182805461068f9061335c565b80156106da5780601f106106b1576101008083540402835291602001916106da565b820191905f5260205f20905b8154815290600101906020018083116106bd57829003601f168201915b5050505050905082565b6106ec61292b565b60085f8373ffffffffffffffffffffffffffffffffffffffff1673ffffffffffffffffffffffffffffffffffffffff1681526020019081526020015f206040518060400160405290815f820154815260200160018201805461074d9061335c565b80601f01602080910402602001604051908101604052809291908181526020018280546107799061335c565b80156107c45780601f1061079b576101008083540402835291602001916107c4565b820191905f5260205f20905b8154815290600101906020018083116107a757829003601f168201915b5050505050815250509050919050565b5f8054906101000a900473ffffffffffffffffffffffffffffffffffffffff1673ffffffffffffffffffffffffffffffffffffffff163373ffffffffffffffffffffffffffffffffffffffff1614610861576040517f08c379a0000000000000000000000000000000000000000000000000000000008152600401610858906133fc565b60405180910390fd5b8060038190555050565b6005602052805f5260405f205f91509050805f015f9054906101000a900473ffffffffffffffffffffffffffffffffffffffff16908060010180546108af9061335c565b80601f01602080910402602001604051908101604052809291908181526020018280546108db9061335c565b80156109265780601f106108fd57610100808354040283529160200191610926565b820191905f5260205f20905b81548152906001019060200180831161090957829003601f168201915b5050505050908060020154908060030154908060040154905085565b6007602052815f5260405f20602052805f5260405f205f91509150505481565b6060600a805480602002602001604051908101604052809291908181526020015f905b82821015610ab7578382905f5260205f2090600502016040518060a00160405290815f82015f9054906101000a900473ffffffffffffffffffffffffffffffffffffffff1673ffffffffffffffffffffffffffffffffffffffff1673ffffffffffffffffffffffffffffffffffffffff1681526020016001820154815260200160028201548152602001600382018054610a1e9061335c565b80601f0160208091040260200160405190810160405280929190818152602001828054610a4a9061335c565b8015610a955780601f10610a6c57610100808354040283529160200191610a95565b820191905f5260205f20905b815481529060010190602001808311610a7857829003601f168201915b5050505050815260200160048201548152505081526020019060010190610985565b50505050905090565b60025f9054906101000a900460ff1681565b6006548410610b16576040517f08c379a0000000000000000000000000000000000000000000000000000000008152600401610b0d90613464565b60405180910390fd5b5f60055f8681526020019081526020015f209050805f015f9054906101000a900473ffffffffffffffffffffffffffffffffffffffff1673ffffffffffffffffffffffffffffffffffffffff163373ffffffffffffffffffffffffffffffffffffffff1614610bba576040517f08c379a0000000000000000000000000000000000000000000000000000000008152600401610bb1906134f2565b60405180910390fd5b5f845111610bfd576040517f08c379a0000000000000000000000000000000000000000000000000000000008152600401610bf49061355a565b60405180910390fd5b5f8311610c3f576040517f08c379a0000000000000000000000000000000000000000000000000000000008152600401610c36906135e8565b60405180910390fd5b5f8211610c81576040517f08c379a0000000000000000000000000000000000000000000000000000000008152600401610c7890613676565b60405180910390fd5b83816001019081610c929190613831565b508281600201819055508281600301819055508181600401819055507f700a00c8a0ce792dad3b7132a7a7f4a44a923f3820e64a1ca3594a073973c90985858585604051610ce39493929190613900565b60405180910390a15050505050565b60065481565b6006548210610d3c576040517f08c379a0000000000000000000000000000000000000000000000000000000008152600401610d3390613464565b60405180910390fd5b8060075f3373ffffffffffffffffffffffffffffffffffffffff1673ffffffffffffffffffffffffffffffffffffffff1681526020019081526020015f205f8481526020019081526020015f20541015610dcb576040517f08c379a0000000000000000000000000000000000000000000000000000000008152600401610dc290613994565b60405180910390fd5b8060075f3373ffffffffffffffffffffffffffffffffffffffff1673ffffffffffffffffffffffffffffffffffffffff1681526020019081526020015f205f8481526020019081526020015f205f828254610e2691906139df565b925050819055505f6040518060a001604052803373ffffffffffffffffffffffffffffffffffffffff1681526020018481526020018381526020016040518060400160405280600681526020017f7265746972650000000000000000000000000000000000000000000000000000815250815260200142815250905060095f3373ffffffffffffffffffffffffffffffffffffffff1673ffffffffffffffffffffffffffffffffffffffff1681526020019081526020015f2081908060018154018082558091505060019003905f5260205f2090600502015f909190919091505f820151815f015f6101000a81548173ffffffffffffffffffffffffffffffffffffffff021916908373ffffffffffffffffffffffffffffffffffffffff16021790555060208201518160010155604082015181600201556060820151816003019081610f739190613831565b50608082015181600401555050600a81908060018154018082558091505060019003905f5260205f2090600502015f909190919091505f820151815f015f6101000a81548173ffffffffffffffffffffffffffffffffffffffff021916908373ffffffffffffffffffffffffffffffffffffffff160217905550602082015181600101556040820151816002015560608201518160030190816110169190613831565b5060808201518160040155505061106333836040518060400160405280600681526020017f7265746972650000000000000000000000000000000000000000000000000000815250612733565b3373ffffffffffffffffffffffffffffffffffffffff167f2ffd4879af328c871cf4d2be1d40d91f5ce4f202fd47e10e4c58d19667627da884846040516110ab929190613a12565b60405180910390a2505050565b5f8054906101000a900473ffffffffffffffffffffffffffffffffffffffff1673ffffffffffffffffffffffffffffffffffffffff163373ffffffffffffffffffffffffffffffffffffffff1614611145576040517f08c379a000000000000000000000000000000000000000000000000000000000815260040161113c90613aa9565b60405180910390fd5b60405160200161115490613b1b565b604051602081830303815290604052805190602001208260405160200161117b9190613b5f565b60405160208183030381529060405280519060200120036111a25780600c8190555061123b565b6040516020016111b190613bbf565b60405160208183030381529060405280519060200120826040516020016111d89190613b5f565b60405160208183030381529060405280519060200120036111ff5780600d8190555061123a565b6040517f08c379a000000000000000000000000000000000000000000000000000000000815260040161123190613c1d565b60405180910390fd5b5b7f65f813ffc62f4558203f911768a4c01623a0cbd5ba9ab7794c0d605e16b7d98c828260405161126c929190613c3b565b60405180910390a15050565b6060805f60065467ffffffffffffffff81111561129857611297612dec565b5b6040519080825280602002602001820160405280156112c65781602001602082028036833780820191505090505b5090505f60065467ffffffffffffffff8111156112e6576112e5612dec565b5b6040519080825280602002602001820160405280156113145781602001602082028036833780820191505090505b5090505f5b60065481101561143f5760055f8281526020019081526020015f205f015f9054906101000a900473ffffffffffffffffffffffffffffffffffffffff1682828151811061136957611368613c69565b5b602002602001019073ffffffffffffffffffffffffffffffffffffffff16908173ffffffffffffffffffffffffffffffffffffffff1681525050600b5f60055f8481526020019081526020015f205f015f9054906101000a900473ffffffffffffffffffffffffffffffffffffffff1673ffffffffffffffffffffffffffffffffffffffff1673ffffffffffffffffffffffffffffffffffffffff1681526020019081526020015f205483828151811061142657611425613c69565b5b6020026020010181815250508080600101915050611319565b505f5b6001835161145091906139df565b811015611609575f6001826114659190613c96565b90505b83518110156115fb5783818151811061148457611483613c69565b5b602002602001015184838151811061149f5761149e613c69565b5b602002602001015110156115ee578381815181106114c0576114bf613c69565b5b60200260200101518483815181106114db576114da613c69565b5b60200260200101518584815181106114f6576114f5613c69565b5b602002602001018684815181106115105761150f613c69565b5b602002602001018281525082815250505082818151811061153457611533613c69565b5b602002602001015183838151811061154f5761154e613c69565b5b602002602001015184848151811061156a57611569613c69565b5b6020026020010185848151811061158457611583613c69565b5b602002602001018273ffffffffffffffffffffffffffffffffffffffff1673ffffffffffffffffffffffffffffffffffffffff168152508273ffffffffffffffffffffffffffffffffffffffff1673ffffffffffffffffffffffffffffffffffffffff1681525050505b8080600101915050611468565b508080600101915050611442565b5080829350935050509091565b600b602052805f5260405f205f915090505481565b600654821061166f576040517f08c379a000000000000000000000000000000000000000000000000000000000815260040161166690613464565b60405180910390fd5b5f60055f8481526020019081526020015f2090505f82116116c5576040517f08c379a00000000000000000000000000000000000000000000000000000000081526004016116bc90613d39565b60405180910390fd5b806003015482111561170c576040517f08c379a000000000000000000000000000000000000000000000000000000000815260040161170390613da1565b60405180910390fd5b5f81600401548361171d9190613dbf565b905080341015611762576040517f08c379a000000000000000000000000000000000000000000000000000000000815260040161175990613e4a565b60405180910390fd5b5f612710600154836117749190613dbf565b61177e9190613e95565b90505f818361178d91906139df565b905084846003015f8282546117a291906139df565b925050819055508460075f3373ffffffffffffffffffffffffffffffffffffffff1673ffffffffffffffffffffffffffffffffffffffff1681526020019081526020015f205f8881526020019081526020015f205f8282546118049190613c96565b925050819055505f6040518060a001604052803373ffffffffffffffffffffffffffffffffffffffff1681526020018881526020018781526020016040518060400160405280600881526020017f7075726368617365000000000000000000000000000000000000000000000000815250815260200142815250905060095f3373ffffffffffffffffffffffffffffffffffffffff1673ffffffffffffffffffffffffffffffffffffffff1681526020019081526020015f2081908060018154018082558091505060019003905f5260205f2090600502015f909190919091505f820151815f015f6101000a81548173ffffffffffffffffffffffffffffffffffffffff021916908373ffffffffffffffffffffffffffffffffffffffff160217905550602082015181600101556040820151816002015560608201518160030190816119519190613831565b50608082015181600401555050600a81908060018154018082558091505060019003905f5260205f2090600502015f909190919091505f820151815f015f6101000a81548173ffffffffffffffffffffffffffffffffffffffff021916908373ffffffffffffffffffffffffffffffffffffffff160217905550602082015181600101556040820151816002015560608201518160030190816119f49190613831565b50608082015181600401555050611a4133876040518060400160405280600881526020017f7075726368617365000000000000000000000000000000000000000000000000815250612733565b845f015f9054906101000a900473ffffffffffffffffffffffffffffffffffffffff1673ffffffffffffffffffffffffffffffffffffffff166108fc8390811502906040515f60405180830381858888f19350505050158015611aa6573d5f803e3d5ffd5b505f8054906101000a900473ffffffffffffffffffffffffffffffffffffffff1673ffffffffffffffffffffffffffffffffffffffff166108fc8490811502906040515f60405180830381858888f19350505050158015611b09573d5f803e3d5ffd5b503373ffffffffffffffffffffffffffffffffffffffff167ffb82fc1c5adf84899709e87563b69dd5f4ac33320f1c60dbca744bec717eb90f8888604051611b52929190613a12565b60405180910390a250505050505050565b600d5481565b5f8054906101000a900473ffffffffffffffffffffffffffffffffffffffff1681565b60015481565b6006548210611bd6576040517f08c379a0000000000000000000000000000000000000000000000000000000008152600401611bcd90613464565b60405180910390fd5b8060075f3373ffffffffffffffffffffffffffffffffffffffff1673ffffffffffffffffffffffffffffffffffffffff1681526020019081526020015f205f8481526020019081526020015f20541015611c65576040517f08c379a0000000000000000000000000000000000000000000000000000000008152600401611c5c90613f0f565b60405180910390fd5b600454341015611caa576040517f08c379a0000000000000000000000000000000000000000000000000000000008152600401611ca190613f9d565b60405180910390fd5b5f8054906101000a900473ffffffffffffffffffffffffffffffffffffffff1673ffffffffffffffffffffffffffffffffffffffff166108fc60045490811502906040515f60405180830381858888f19350505050158015611d0e573d5f803e3d5ffd5b508060075f3373ffffffffffffffffffffffffffffffffffffffff1673ffffffffffffffffffffffffffffffffffffffff1681526020019081526020015f205f8481526020019081526020015f205f828254611d6a91906139df565b925050819055508060075f8573ffffffffffffffffffffffffffffffffffffffff1673ffffffffffffffffffffffffffffffffffffffff1681526020019081526020015f205f8481526020019081526020015f205f828254611dcc9190613c96565b925050819055505f6040518060a001604052803373ffffffffffffffffffffffffffffffffffffffff1681526020018481526020018381526020016040518060400160405280600881526020017f7472616e73666572000000000000000000000000000000000000000000000000815250815260200142815250905060095f3373ffffffffffffffffffffffffffffffffffffffff1673ffffffffffffffffffffffffffffffffffffffff1681526020019081526020015f2081908060018154018082558091505060019003905f5260205f2090600502015f909190919091505f820151815f015f6101000a81548173ffffffffffffffffffffffffffffffffffffffff021916908373ffffffffffffffffffffffffffffffffffffffff16021790555060208201518160010155604082015181600201556060820151816003019081611f199190613831565b50608082015181600401555050600a81908060018154018082558091505060019003905f5260205f2090600502015f909190919091505f820151815f015f6101000a81548173ffffffffffffffffffffffffffffffffffffffff021916908373ffffffffffffffffffffffffffffffffffffffff16021790555060208201518160010155604082015181600201556060820151816003019081611fbc9190613831565b5060808201518160040155505061200933836040518060400160405280600881526020017f7472616e73666572000000000000000000000000000000000000000000000000815250612733565b8373ffffffffffffffffffffffffffffffffffffffff163373ffffffffffffffffffffffffffffffffffffffff167ffc155943a4837f932d2628406ce5e8f3f42dd6ab031108a2fcec0c68d94005ee8585604051612068929190613a12565b60405180910390a350505050565b5f8054906101000a900473ffffffffffffffffffffffffffffffffffffffff1673ffffffffffffffffffffffffffffffffffffffff163373ffffffffffffffffffffffffffffffffffffffff1614612103576040517f08c379a00000000000000000000000000000000000000000000000000000000081526004016120fa9061402b565b60405180910390fd5b8060025f6101000a81548160ff02191690831515021790555050565b60045481565b6009602052815f5260405f20818154811061213e575f80fd5b905f5260205f2090600502015f9150915050805f015f9054906101000a900473ffffffffffffffffffffffffffffffffffffffff169080600101549080600201549080600301805461218f9061335c565b80601f01602080910402602001604051908101604052809291908181526020018280546121bb9061335c565b80156122065780601f106121dd57610100808354040283529160200191612206565b820191905f5260205f20905b8154815290600101906020018083116121e957829003601f168201915b5050505050908060040154905085565b60035481565b600a818154811061222b575f80fd5b905f5260205f2090600502015f91509050805f015f9054906101000a900473ffffffffffffffffffffffffffffffffffffffff169080600101549080600201549080600301805461227b9061335c565b80601f01602080910402602001604051908101604052809291908181526020018280546122a79061335c565b80156122f25780601f106122c9576101008083540402835291602001916122f2565b820191905f5260205f20905b8154815290600101906020018083116122d557829003601f168201915b5050505050908060040154905085565b5f8054906101000a900473ffffffffffffffffffffffffffffffffffffffff1673ffffffffffffffffffffffffffffffffffffffff163373ffffffffffffffffffffffffffffffffffffffff161480612366575060025f9054906101000a900460ff165b6123a5576040517f08c379a000000000000000000000000000000000000000000000000000000000815260040161239c906140df565b60405180910390fd5b5f8351116123e8576040517f08c379a00000000000000000000000000000000000000000000000000000000081526004016123df9061355a565b60405180910390fd5b5f821161242a576040517f08c379a0000000000000000000000000000000000000000000000000000000008152600401612421906135e8565b60405180910390fd5b5f811161246c576040517f08c379a000000000000000000000000000000000000000000000000000000000815260040161246390613676565b60405180910390fd5b6040518060a001604052803373ffffffffffffffffffffffffffffffffffffffff1681526020018481526020018381526020018381526020018281525060055f60065481526020019081526020015f205f820151815f015f6101000a81548173ffffffffffffffffffffffffffffffffffffffff021916908373ffffffffffffffffffffffffffffffffffffffff16021790555060208201518160010190816125159190613831565b506040820151816002015560608201518160030155608082015181600401559050507f50c6a8b423458d44f896828d57af33000ead07320bc572c2b3d856e7a954df4b60065484848460405161256e9493929190613900565b60405180910390a160065f815480929190612588906140fd565b9190505550505050565b606060095f8373ffffffffffffffffffffffffffffffffffffffff1673ffffffffffffffffffffffffffffffffffffffff1681526020019081526020015f20805480602002602001604051908101604052809291908181526020015f905b82821015612722578382905f5260205f2090600502016040518060a00160405290815f82015f9054906101000a900473ffffffffffffffffffffffffffffffffffffffff1673ffffffffffffffffffffffffffffffffffffffff1673ffffffffffffffffffffffffffffffffffffffff16815260200160018201548152602001600282015481526020016003820180546126899061335c565b80601f01602080910402602001604051908101604052809291908181526020018280546126b59061335c565b80156127005780601f106126d757610100808354040283529160200191612700565b820191905f5260205f20905b8154815290600101906020018083116126e357829003601f168201915b50505050508152602001600482015481525050815260200190600101906125f0565b505050509050919050565b600c5481565b5f60085f8573ffffffffffffffffffffffffffffffffffffffff1673ffffffffffffffffffffffffffffffffffffffff1681526020019081526020015f2090505f83905080825f015f8282546127899190613c96565b92505081905550815f0154600b5f8773ffffffffffffffffffffffffffffffffffffffff1673ffffffffffffffffffffffffffffffffffffffff1681526020019081526020015f2081905550600c54825f01541061282d576040518060400160405280600f81526020017f436172626f6e204368616d70696f6e00000000000000000000000000000000008152508260010190816128279190613831565b506128ce565b600d54825f015410612885576040518060400160405280601281526020017f436172626f6e20436f6e7472696275746f72000000000000000000000000000081525082600101908161287f9190613831565b506128cd565b6040518060400160405280600681526020017f4e6f7669636500000000000000000000000000000000000000000000000000008152508260010190816128cb9190613831565b505b5b8473ffffffffffffffffffffffffffffffffffffffff167f7832b7eebe8de153acecf46b96e9e04c64c883545a6285fcc564d16ae2d73414835f01548460010160405161291c9291906141c5565b60405180910390a25050505050565b60405180604001604052805f8152602001606081525090565b5f604051905090565b5f80fd5b5f80fd5b5f73ffffffffffffffffffffffffffffffffffffffff82169050919050565b5f61297e82612955565b9050919050565b61298e81612974565b8114612998575f80fd5b50565b5f813590506129a981612985565b92915050565b5f602082840312156129c4576129c361294d565b5b5f6129d18482850161299b565b91505092915050565b5f819050919050565b6129ec816129da565b82525050565b5f81519050919050565b5f82825260208201905092915050565b8281835e5f83830152505050565b5f601f19601f8301169050919050565b5f612a34826129f2565b612a3e81856129fc565b9350612a4e818560208601612a0c565b612a5781612a1a565b840191505092915050565b5f604082019050612a755f8301856129e3565b8181036020830152612a878184612a2a565b90509392505050565b612a99816129da565b82525050565b5f82825260208201905092915050565b5f612ab9826129f2565b612ac38185612a9f565b9350612ad3818560208601612a0c565b612adc81612a1a565b840191505092915050565b5f604083015f830151612afc5f860182612a90565b5060208301518482036020860152612b148282612aaf565b9150508091505092915050565b5f6020820190508181035f830152612b398184612ae7565b905092915050565b612b4a816129da565b8114612b54575f80fd5b50565b5f81359050612b6581612b41565b92915050565b5f60208284031215612b8057612b7f61294d565b5b5f612b8d84828501612b57565b91505092915050565b612b9f81612974565b82525050565b5f60a082019050612bb85f830188612b96565b8181036020830152612bca8187612a2a565b9050612bd960408301866129e3565b612be660608301856129e3565b612bf360808301846129e3565b9695505050505050565b5f8060408385031215612c1357612c1261294d565b5b5f612c208582860161299b565b9250506020612c3185828601612b57565b9150509250929050565b5f602082019050612c4e5f8301846129e3565b92915050565b5f81519050919050565b5f82825260208201905092915050565b5f819050602082019050919050565b612c8681612974565b82525050565b5f60a083015f830151612ca15f860182612c7d565b506020830151612cb46020860182612a90565b506040830151612cc76040860182612a90565b5060608301518482036060860152612cdf8282612aaf565b9150506080830151612cf46080860182612a90565b508091505092915050565b5f612d0a8383612c8c565b905092915050565b5f602082019050919050565b5f612d2882612c54565b612d328185612c5e565b935083602082028501612d4485612c6e565b805f5b85811015612d7f5784840389528151612d608582612cff565b9450612d6b83612d12565b925060208a01995050600181019050612d47565b50829750879550505050505092915050565b5f6020820190508181035f830152612da98184612d1e565b905092915050565b5f8115159050919050565b612dc581612db1565b82525050565b5f602082019050612dde5f830184612dbc565b92915050565b5f80fd5b5f80fd5b7f4e487b71000000000000000000000000000000000000000000000000000000005f52604160045260245ffd5b612e2282612a1a565b810181811067ffffffffffffffff82111715612e4157612e40612dec565b5b80604052505050565b5f612e53612944565b9050612e5f8282612e19565b919050565b5f67ffffffffffffffff821115612e7e57612e7d612dec565b5b612e8782612a1a565b9050602081019050919050565b828183375f83830152505050565b5f612eb4612eaf84612e64565b612e4a565b905082815260208101848484011115612ed057612ecf612de8565b5b612edb848285612e94565b509392505050565b5f82601f830112612ef757612ef6612de4565b5b8135612f07848260208601612ea2565b91505092915050565b5f805f8060808587031215612f2857612f2761294d565b5b5f612f3587828801612b57565b945050602085013567ffffffffffffffff811115612f5657612f55612951565b5b612f6287828801612ee3565b9350506040612f7387828801612b57565b9250506060612f8487828801612b57565b91505092959194509250565b5f8060408385031215612fa657612fa561294d565b5b5f612fb385828601612b57565b9250506020612fc485828601612b57565b9150509250929050565b5f8060408385031215612fe457612fe361294d565b5b5f83013567ffffffffffffffff81111561300157613000612951565b5b61300d85828601612ee3565b925050602061301e85828601612b57565b9150509250929050565b5f81519050919050565b5f82825260208201905092915050565b5f819050602082019050919050565b5f61305c8383612c7d565b60208301905092915050565b5f602082019050919050565b5f61307e82613028565b6130888185613032565b935061309383613042565b805f5b838110156130c35781516130aa8882613051565b97506130b583613068565b925050600181019050613096565b5085935050505092915050565b5f81519050919050565b5f82825260208201905092915050565b5f819050602082019050919050565b5f6131048383612a90565b60208301905092915050565b5f602082019050919050565b5f613126826130d0565b61313081856130da565b935061313b836130ea565b805f5b8381101561316b57815161315288826130f9565b975061315d83613110565b92505060018101905061313e565b5085935050505092915050565b5f6040820190508181035f8301526131908185613074565b905081810360208301526131a4818461311c565b90509392505050565b5f6020820190506131c05f830184612b96565b92915050565b5f805f606084860312156131dd576131dc61294d565b5b5f6131ea8682870161299b565b93505060206131fb86828701612b57565b925050604061320c86828701612b57565b9150509250925092565b61321f81612db1565b8114613229575f80fd5b50565b5f8135905061323a81613216565b92915050565b5f602082840312156132555761325461294d565b5b5f6132628482850161322c565b91505092915050565b5f60a08201905061327e5f830188612b96565b61328b60208301876129e3565b61329860408301866129e3565b81810360608301526132aa8185612a2a565b90506132b960808301846129e3565b9695505050505050565b5f805f606084860312156132da576132d961294d565b5b5f84013567ffffffffffffffff8111156132f7576132f6612951565b5b61330386828701612ee3565b935050602061331486828701612b57565b925050604061332586828701612b57565b9150509250925092565b7f4e487b71000000000000000000000000000000000000000000000000000000005f52602260045260245ffd5b5f600282049050600182168061337357607f821691505b6020821081036133865761338561332f565b5b50919050565b7f4f6e6c7920746865206f776e65722063616e20736574206d696e696d756d20765f8201527f6f74657300000000000000000000000000000000000000000000000000000000602082015250565b5f6133e66024836129fc565b91506133f18261338c565b604082019050919050565b5f6020820190508181035f830152613413816133da565b9050919050565b7f496e76616c69642070726f6a65637420494400000000000000000000000000005f82015250565b5f61344e6012836129fc565b91506134598261341a565b602082019050919050565b5f6020820190508181035f83015261347b81613442565b9050919050565b7f4f6e6c79207468652070726f6a656374206f776e65722063616e2075706461745f8201527f65207468652070726f6a65637400000000000000000000000000000000000000602082015250565b5f6134dc602d836129fc565b91506134e782613482565b604082019050919050565b5f6020820190508181035f830152613509816134d0565b9050919050565b7f50726f6a656374206e616d652063616e6e6f7420626520656d707479000000005f82015250565b5f613544601c836129fc565b915061354f82613510565b602082019050919050565b5f6020820190508181035f83015261357181613538565b9050919050565b7f546f74616c20637265646974732073686f756c642062652067726561746572205f8201527f7468616e207a65726f0000000000000000000000000000000000000000000000602082015250565b5f6135d26029836129fc565b91506135dd82613578565b604082019050919050565b5f6020820190508181035f8301526135ff816135c6565b9050919050565b7f507269636520706572206372656469742073686f756c642062652067726561745f8201527f6572207468616e207a65726f0000000000000000000000000000000000000000602082015250565b5f613660602c836129fc565b915061366b82613606565b604082019050919050565b5f6020820190508181035f83015261368d81613654565b9050919050565b5f819050815f5260205f209050919050565b5f6020601f8301049050919050565b5f82821b905092915050565b5f600883026136f07fffffffffffffffffffffffffffffffffffffffffffffffffffffffffffffffff826136b5565b6136fa86836136b5565b95508019841693508086168417925050509392505050565b5f819050919050565b5f61373561373061372b846129da565b613712565b6129da565b9050919050565b5f819050919050565b61374e8361371b565b61376261375a8261373c565b8484546136c1565b825550505050565b5f90565b61377661376a565b613781818484613745565b505050565b5b818110156137a4576137995f8261376e565b600181019050613787565b5050565b601f8211156137e9576137ba81613694565b6137c3846136a6565b810160208510156137d2578190505b6137e66137de856136a6565b830182613786565b50505b505050565b5f82821c905092915050565b5f6138095f19846008026137ee565b1980831691505092915050565b5f61382183836137fa565b9150826002028217905092915050565b61383a826129f2565b67ffffffffffffffff81111561385357613852612dec565b5b61385d825461335c565b6138688282856137a8565b5f60209050601f831160018114613899575f8415613887578287015190505b6138918582613816565b8655506138f8565b601f1984166138a786613694565b5f5b828110156138ce578489015182556001820191506020850194506020810190506138a9565b868310156138eb57848901516138e7601f8916826137fa565b8355505b6001600288020188555050505b505050505050565b5f6080820190506139135f8301876129e3565b81810360208301526139258186612a2a565b905061393460408301856129e3565b61394160608301846129e3565b95945050505050565b7f496e73756666696369656e74206372656469747320746f2072657469726500005f82015250565b5f61397e601e836129fc565b91506139898261394a565b602082019050919050565b5f6020820190508181035f8301526139ab81613972565b9050919050565b7f4e487b71000000000000000000000000000000000000000000000000000000005f52601160045260245ffd5b5f6139e9826129da565b91506139f4836129da565b9250828203905081811115613a0c57613a0b6139b2565b5b92915050565b5f604082019050613a255f8301856129e3565b613a3260208301846129e3565b9392505050565b7f4f6e6c7920746865206f776e65722063616e20757064617465206261646765205f8201527f7468726573686f6c647300000000000000000000000000000000000000000000602082015250565b5f613a93602a836129fc565b9150613a9e82613a39565b604082019050919050565b5f6020820190508181035f830152613ac081613a87565b9050919050565b5f81905092915050565b7f436172626f6e204368616d70696f6e00000000000000000000000000000000005f82015250565b5f613b05600f83613ac7565b9150613b1082613ad1565b600f82019050919050565b5f613b2582613af9565b9150819050919050565b5f613b39826129f2565b613b438185613ac7565b9350613b53818560208601612a0c565b80840191505092915050565b5f613b6a8284613b2f565b915081905092915050565b7f436172626f6e20436f6e7472696275746f7200000000000000000000000000005f82015250565b5f613ba9601283613ac7565b9150613bb482613b75565b601282019050919050565b5f613bc982613b9d565b9150819050919050565b7f496e76616c6964206261646765207479706500000000000000000000000000005f82015250565b5f613c076012836129fc565b9150613c1282613bd3565b602082019050919050565b5f6020820190508181035f830152613c3481613bfb565b9050919050565b5f6040820190508181035f830152613c538185612a2a565b9050613c6260208301846129e3565b9392505050565b7f4e487b71000000000000000000000000000000000000000000000000000000005f52603260045260245ffd5b5f613ca0826129da565b9150613cab836129da565b9250828201905080821115613cc357613cc26139b2565b5b92915050565b7f437265646974732073686f756c642062652067726561746572207468616e207a5f8201527f65726f0000000000000000000000000000000000000000000000000000000000602082015250565b5f613d236023836129fc565b9150613d2e82613cc9565b604082019050919050565b5f6020820190508181035f830152613d5081613d17565b9050919050565b7f4e6f7420656e6f75676820617661696c61626c652063726564697473000000005f82015250565b5f613d8b601c836129fc565b9150613d9682613d57565b602082019050919050565b5f6020820190508181035f830152613db881613d7f565b9050919050565b5f613dc9826129da565b9150613dd4836129da565b9250828202613de2816129da565b91508282048414831517613df957613df86139b2565b5b5092915050565b7f496e73756666696369656e74207061796d656e740000000000000000000000005f82015250565b5f613e346014836129fc565b9150613e3f82613e00565b602082019050919050565b5f6020820190508181035f830152613e6181613e28565b9050919050565b7f4e487b71000000000000000000000000000000000000000000000000000000005f52601260045260245ffd5b5f613e9f826129da565b9150613eaa836129da565b925082613eba57613eb9613e68565b5b828204905092915050565b7f496e73756666696369656e74206372656469747320746f207472616e736665725f82015250565b5f613ef96020836129fc565b9150613f0482613ec5565b602082019050919050565b5f6020820190508181035f830152613f2681613eed565b9050919050565b7f496e73756666696369656e742066656520666f7220746865207472616e7366655f8201527f7200000000000000000000000000000000000000000000000000000000000000602082015250565b5f613f876021836129fc565b9150613f9282613f2d565b604082019050919050565b5f6020820190508181035f830152613fb481613f7b565b9050919050565b7f4f6e6c7920746865206f776e65722063616e20746f67676c65207265676973745f8201527f726174696f6e207065726d697373696f6e730000000000000000000000000000602082015250565b5f6140156032836129fc565b915061402082613fbb565b604082019050919050565b5f6020820190508181035f83015261404281614009565b9050919050565b7f4f6e6c7920746865206f776e65722063616e2072656769737465722070726f6a5f8201527f6563747320616e64206e6f6e2d6f776e65727320617265206e6f7420616c6c6f60208201527f7765640000000000000000000000000000000000000000000000000000000000604082015250565b5f6140c96043836129fc565b91506140d482614049565b606082019050919050565b5f6020820190508181035f8301526140f6816140bd565b9050919050565b5f614107826129da565b91507fffffffffffffffffffffffffffffffffffffffffffffffffffffffffffffffff8203614139576141386139b2565b5b600182019050919050565b5f81546141508161335c565b61415a81866129fc565b9450600182165f8114614174576001811461418a576141bc565b60ff1983168652811515602002860193506141bc565b61419385613694565b5f5b838110156141b457815481890152600182019150602081019050614195565b808801955050505b50505092915050565b5f6040820190506141d85f8301856129e3565b81810360208301526141ea8184614144565b9050939250505056fea2646970667358221220f83956999000ecf2c1a850a246d2cf0265c5252b3c9f622482d3a5bcfdaef43d64736f6c634300081a0033",
					"opcodes": "PUSH1 0x80 PUSH1 0x40 MSTORE PUSH1 0x64 PUSH1 0x1 SSTORE PUSH0 PUSH1 0x2 PUSH0 PUSH2 0x100 EXP DUP2 SLOAD DUP2 PUSH1 0xFF MUL NOT AND SWAP1 DUP4 ISZERO ISZERO MUL OR SWAP1 SSTORE POP PUSH1 0x1 PUSH1 0x3 SSTORE PUSH8 0x1BC16D674EC80000 PUSH1 0x4 SSTORE PUSH2 0x3E8 PUSH1 0xC SSTORE PUSH2 0x1F4 PUSH1 0xD SSTORE CALLVALUE DUP1 ISZERO PUSH1 0x49 JUMPI PUSH0 DUP1 REVERT JUMPDEST POP CALLER PUSH0 DUP1 PUSH2 0x100 EXP DUP2 SLOAD DUP2 PUSH20 0xFFFFFFFFFFFFFFFFFFFFFFFFFFFFFFFFFFFFFFFF MUL NOT AND SWAP1 DUP4 PUSH20 0xFFFFFFFFFFFFFFFFFFFFFFFFFFFFFFFFFFFFFFFF AND MUL OR SWAP1 SSTORE POP PUSH2 0x4229 DUP1 PUSH2 0x96 PUSH0 CODECOPY PUSH0 RETURN INVALID PUSH1 0x80 PUSH1 0x40 MSTORE PUSH1 0x4 CALLDATASIZE LT PUSH2 0x180 JUMPI PUSH0 CALLDATALOAD PUSH1 0xE0 SHR DUP1 PUSH4 0x84034469 GT PUSH2 0xD0 JUMPI DUP1 PUSH4 0xACB2AD6F GT PUSH2 0x89 JUMPI DUP1 PUSH4 0xD7FF0714 GT PUSH2 0x63 JUMPI DUP1 PUSH4 0xD7FF0714 EQ PUSH2 0x570 JUMPI DUP1 PUSH4 0xE636EB55 EQ PUSH2 0x5B0 JUMPI DUP1 PUSH4 0xEF925399 EQ PUSH2 0x5D8 JUMPI DUP1 PUSH4 0xF275FDF4 EQ PUSH2 0x614 JUMPI PUSH2 0x180 JUMP JUMPDEST DUP1 PUSH4 0xACB2AD6F EQ PUSH2 0x4DC JUMPI DUP1 PUSH4 0xB842EC44 EQ PUSH2 0x506 JUMPI DUP1 PUSH4 0xC9DED404 EQ PUSH2 0x546 JUMPI PUSH2 0x180 JUMP JUMPDEST DUP1 PUSH4 0x84034469 EQ PUSH2 0x3FE JUMPI DUP1 PUSH4 0x883FFE91 EQ PUSH2 0x41A JUMPI DUP1 PUSH4 0x8DA5CB5B EQ PUSH2 0x444 JUMPI DUP1 PUSH4 0xA001ECDD EQ PUSH2 0x46E JUMPI DUP1 PUSH4 0xA2F6045A EQ PUSH2 0x498 JUMPI DUP1 PUSH4 0xAB52A745 EQ PUSH2 0x4B4 JUMPI PUSH2 0x180 JUMP JUMPDEST DUP1 PUSH4 0x2F51D7CE GT PUSH2 0x13D JUMPI DUP1 PUSH4 0x3EA0FB13 GT PUSH2 0x117 JUMPI DUP1 PUSH4 0x3EA0FB13 EQ PUSH2 0x347 JUMPI DUP1 PUSH4 0x53DC9988 EQ PUSH2 0x36F JUMPI DUP1 PUSH4 0x6D763A6E EQ PUSH2 0x397 JUMPI DUP1 PUSH4 0x7CE26644 EQ PUSH2 0x3C2 JUMPI PUSH2 0x180 JUMP JUMPDEST DUP1 PUSH4 0x2F51D7CE EQ PUSH2 0x2CB JUMPI DUP1 PUSH4 0x354F75E1 EQ PUSH2 0x2F5 JUMPI DUP1 PUSH4 0x36FBAD26 EQ PUSH2 0x31D JUMPI PUSH2 0x180 JUMP JUMPDEST DUP1 PUSH4 0x660F1E8 EQ PUSH2 0x184 JUMPI DUP1 PUSH4 0x78B0FB7 EQ PUSH2 0x1C1 JUMPI DUP1 PUSH4 0x994C98F EQ PUSH2 0x1FD JUMPI DUP1 PUSH4 0x107046BD EQ PUSH2 0x225 JUMPI DUP1 PUSH4 0x17A483A3 EQ PUSH2 0x265 JUMPI DUP1 PUSH4 0x27506F53 EQ PUSH2 0x2A1 JUMPI JUMPDEST PUSH0 DUP1 REVERT JUMPDEST CALLVALUE DUP1 ISZERO PUSH2 0x18F JUMPI PUSH0 DUP1 REVERT JUMPDEST POP PUSH2 0x1AA PUSH1 0x4 DUP1 CALLDATASIZE SUB DUP2 ADD SWAP1 PUSH2 0x1A5 SWAP2 SWAP1 PUSH2 0x29AF JUMP JUMPDEST PUSH2 0x63E JUMP JUMPDEST PUSH1 0x40 MLOAD PUSH2 0x1B8 SWAP3 SWAP2 SWAP1 PUSH2 0x2A62 JUMP JUMPDEST PUSH1 0x40 MLOAD DUP1 SWAP2 SUB SWAP1 RETURN JUMPDEST CALLVALUE DUP1 ISZERO PUSH2 0x1CC JUMPI PUSH0 DUP1 REVERT JUMPDEST POP PUSH2 0x1E7 PUSH1 0x4 DUP1 CALLDATASIZE SUB DUP2 ADD SWAP1 PUSH2 0x1E2 SWAP2 SWAP1 PUSH2 0x29AF JUMP JUMPDEST PUSH2 0x6E4 JUMP JUMPDEST PUSH1 0x40 MLOAD PUSH2 0x1F4 SWAP2 SWAP1 PUSH2 0x2B21 JUMP JUMPDEST PUSH1 0x40 MLOAD DUP1 SWAP2 SUB SWAP1 RETURN JUMPDEST CALLVALUE DUP1 ISZERO PUSH2 0x208 JUMPI PUSH0 DUP1 REVERT JUMPDEST POP PUSH2 0x223 PUSH1 0x4 DUP1 CALLDATASIZE SUB DUP2 ADD SWAP1 PUSH2 0x21E SWAP2 SWAP1 PUSH2 0x2B6B JUMP JUMPDEST PUSH2 0x7D4 JUMP JUMPDEST STOP JUMPDEST CALLVALUE DUP1 ISZERO PUSH2 0x230 JUMPI PUSH0 DUP1 REVERT JUMPDEST POP PUSH2 0x24B PUSH1 0x4 DUP1 CALLDATASIZE SUB DUP2 ADD SWAP1 PUSH2 0x246 SWAP2 SWAP1 PUSH2 0x2B6B JUMP JUMPDEST PUSH2 0x86B JUMP JUMPDEST PUSH1 0x40 MLOAD PUSH2 0x25C SWAP6 SWAP5 SWAP4 SWAP3 SWAP2 SWAP1 PUSH2 0x2BA5 JUMP JUMPDEST PUSH1 0x40 MLOAD DUP1 SWAP2 SUB SWAP1 RETURN JUMPDEST CALLVALUE DUP1 ISZERO PUSH2 0x270 JUMPI PUSH0 DUP1 REVERT JUMPDEST POP PUSH2 0x28B PUSH1 0x4 DUP1 CALLDATASIZE SUB DUP2 ADD SWAP1 PUSH2 0x286 SWAP2 SWAP1 PUSH2 0x2BFD JUMP JUMPDEST PUSH2 0x942 JUMP JUMPDEST PUSH1 0x40 MLOAD PUSH2 0x298 SWAP2 SWAP1 PUSH2 0x2C3B JUMP JUMPDEST PUSH1 0x40 MLOAD DUP1 SWAP2 SUB SWAP1 RETURN JUMPDEST CALLVALUE DUP1 ISZERO PUSH2 0x2AC JUMPI PUSH0 DUP1 REVERT JUMPDEST POP PUSH2 0x2B5 PUSH2 0x962 JUMP JUMPDEST PUSH1 0x40 MLOAD PUSH2 0x2C2 SWAP2 SWAP1 PUSH2 0x2D91 JUMP JUMPDEST PUSH1 0x40 MLOAD DUP1 SWAP2 SUB SWAP1 RETURN JUMPDEST CALLVALUE DUP1 ISZERO PUSH2 0x2D6 JUMPI PUSH0 DUP1 REVERT JUMPDEST POP PUSH2 0x2DF PUSH2 0xAC0 JUMP JUMPDEST PUSH1 0x40 MLOAD PUSH2 0x2EC SWAP2 SWAP1 PUSH2 0x2DCB JUMP JUMPDEST PUSH1 0x40 MLOAD DUP1 SWAP2 SUB SWAP1 RETURN JUMPDEST CALLVALUE DUP1 ISZERO PUSH2 0x300 JUMPI PUSH0 DUP1 REVERT JUMPDEST POP PUSH2 0x31B PUSH1 0x4 DUP1 CALLDATASIZE SUB DUP2 ADD SWAP1 PUSH2 0x316 SWAP2 SWAP1 PUSH2 0x2F10 JUMP JUMPDEST PUSH2 0xAD2 JUMP JUMPDEST STOP JUMPDEST CALLVALUE DUP1 ISZERO PUSH2 0x328 JUMPI PUSH0 DUP1 REVERT JUMPDEST POP PUSH2 0x331 PUSH2 0xCF2 JUMP JUMPDEST PUSH1 0x40 MLOAD PUSH2 0x33E SWAP2 SWAP1 PUSH2 0x2C3B JUMP JUMPDEST PUSH1 0x40 MLOAD DUP1 SWAP2 SUB SWAP1 RETURN JUMPDEST CALLVALUE DUP1 ISZERO PUSH2 0x352 JUMPI PUSH0 DUP1 REVERT JUMPDEST POP PUSH2 0x36D PUSH1 0x4 DUP1 CALLDATASIZE SUB DUP2 ADD SWAP1 PUSH2 0x368 SWAP2 SWAP1 PUSH2 0x2F90 JUMP JUMPDEST PUSH2 0xCF8 JUMP JUMPDEST STOP JUMPDEST CALLVALUE DUP1 ISZERO PUSH2 0x37A JUMPI PUSH0 DUP1 REVERT JUMPDEST POP PUSH2 0x395 PUSH1 0x4 DUP1 CALLDATASIZE SUB DUP2 ADD SWAP1 PUSH2 0x390 SWAP2 SWAP1 PUSH2 0x2FCE JUMP JUMPDEST PUSH2 0x10B8 JUMP JUMPDEST STOP JUMPDEST CALLVALUE DUP1 ISZERO PUSH2 0x3A2 JUMPI PUSH0 DUP1 REVERT JUMPDEST POP PUSH2 0x3AB PUSH2 0x1278 JUMP JUMPDEST PUSH1 0x40 MLOAD PUSH2 0x3B9 SWAP3 SWAP2 SWAP1 PUSH2 0x3178 JUMP JUMPDEST PUSH1 0x40 MLOAD DUP1 SWAP2 SUB SWAP1 RETURN JUMPDEST CALLVALUE DUP1 ISZERO PUSH2 0x3CD JUMPI PUSH0 DUP1 REVERT JUMPDEST POP PUSH2 0x3E8 PUSH1 0x4 DUP1 CALLDATASIZE SUB DUP2 ADD SWAP1 PUSH2 0x3E3 SWAP2 SWAP1 PUSH2 0x29AF JUMP JUMPDEST PUSH2 0x1616 JUMP JUMPDEST PUSH1 0x40 MLOAD PUSH2 0x3F5 SWAP2 SWAP1 PUSH2 0x2C3B JUMP JUMPDEST PUSH1 0x40 MLOAD DUP1 SWAP2 SUB SWAP1 RETURN JUMPDEST PUSH2 0x418 PUSH1 0x4 DUP1 CALLDATASIZE SUB DUP2 ADD SWAP1 PUSH2 0x413 SWAP2 SWAP1 PUSH2 0x2F90 JUMP JUMPDEST PUSH2 0x162B JUMP JUMPDEST STOP JUMPDEST CALLVALUE DUP1 ISZERO PUSH2 0x425 JUMPI PUSH0 DUP1 REVERT JUMPDEST POP PUSH2 0x42E PUSH2 0x1B63 JUMP JUMPDEST PUSH1 0x40 MLOAD PUSH2 0x43B SWAP2 SWAP1 PUSH2 0x2C3B JUMP JUMPDEST PUSH1 0x40 MLOAD DUP1 SWAP2 SUB SWAP1 RETURN JUMPDEST CALLVALUE DUP1 ISZERO PUSH2 0x44F JUMPI PUSH0 DUP1 REVERT JUMPDEST POP PUSH2 0x458 PUSH2 0x1B69 JUMP JUMPDEST PUSH1 0x40 MLOAD PUSH2 0x465 SWAP2 SWAP1 PUSH2 0x31AD JUMP JUMPDEST PUSH1 0x40 MLOAD DUP1 SWAP2 SUB SWAP1 RETURN JUMPDEST CALLVALUE DUP1 ISZERO PUSH2 0x479 JUMPI PUSH0 DUP1 REVERT JUMPDEST POP PUSH2 0x482 PUSH2 0x1B8C JUMP JUMPDEST PUSH1 0x40 MLOAD PUSH2 0x48F SWAP2 SWAP1 PUSH2 0x2C3B JUMP JUMPDEST PUSH1 0x40 MLOAD DUP1 SWAP2 SUB SWAP1 RETURN JUMPDEST PUSH2 0x4B2 PUSH1 0x4 DUP1 CALLDATASIZE SUB DUP2 ADD SWAP1 PUSH2 0x4AD SWAP2 SWAP1 PUSH2 0x31C6 JUMP JUMPDEST PUSH2 0x1B92 JUMP JUMPDEST STOP JUMPDEST CALLVALUE DUP1 ISZERO PUSH2 0x4BF JUMPI PUSH0 DUP1 REVERT JUMPDEST POP PUSH2 0x4DA PUSH1 0x4 DUP1 CALLDATASIZE SUB DUP2 ADD SWAP1 PUSH2 0x4D5 SWAP2 SWAP1 PUSH2 0x3240 JUMP JUMPDEST PUSH2 0x2076 JUMP JUMPDEST STOP JUMPDEST CALLVALUE DUP1 ISZERO PUSH2 0x4E7 JUMPI PUSH0 DUP1 REVERT JUMPDEST POP PUSH2 0x4F0 PUSH2 0x211F JUMP JUMPDEST PUSH1 0x40 MLOAD PUSH2 0x4FD SWAP2 SWAP1 PUSH2 0x2C3B JUMP JUMPDEST PUSH1 0x40 MLOAD DUP1 SWAP2 SUB SWAP1 RETURN JUMPDEST CALLVALUE DUP1 ISZERO PUSH2 0x511 JUMPI PUSH0 DUP1 REVERT JUMPDEST POP PUSH2 0x52C PUSH1 0x4 DUP1 CALLDATASIZE SUB DUP2 ADD SWAP1 PUSH2 0x527 SWAP2 SWAP1 PUSH2 0x2BFD JUMP JUMPDEST PUSH2 0x2125 JUMP JUMPDEST PUSH1 0x40 MLOAD PUSH2 0x53D SWAP6 SWAP5 SWAP4 SWAP3 SWAP2 SWAP1 PUSH2 0x326B JUMP JUMPDEST PUSH1 0x40 MLOAD DUP1 SWAP2 SUB SWAP1 RETURN JUMPDEST CALLVALUE DUP1 ISZERO PUSH2 0x551 JUMPI PUSH0 DUP1 REVERT JUMPDEST POP PUSH2 0x55A PUSH2 0x2216 JUMP JUMPDEST PUSH1 0x40 MLOAD PUSH2 0x567 SWAP2 SWAP1 PUSH2 0x2C3B JUMP JUMPDEST PUSH1 0x40 MLOAD DUP1 SWAP2 SUB SWAP1 RETURN JUMPDEST CALLVALUE DUP1 ISZERO PUSH2 0x57B JUMPI PUSH0 DUP1 REVERT JUMPDEST POP PUSH2 0x596 PUSH1 0x4 DUP1 CALLDATASIZE SUB DUP2 ADD SWAP1 PUSH2 0x591 SWAP2 SWAP1 PUSH2 0x2B6B JUMP JUMPDEST PUSH2 0x221C JUMP JUMPDEST PUSH1 0x40 MLOAD PUSH2 0x5A7 SWAP6 SWAP5 SWAP4 SWAP3 SWAP2 SWAP1 PUSH2 0x326B JUMP JUMPDEST PUSH1 0x40 MLOAD DUP1 SWAP2 SUB SWAP1 RETURN JUMPDEST CALLVALUE DUP1 ISZERO PUSH2 0x5BB JUMPI PUSH0 DUP1 REVERT JUMPDEST POP PUSH2 0x5D6 PUSH1 0x4 DUP1 CALLDATASIZE SUB DUP2 ADD SWAP1 PUSH2 0x5D1 SWAP2 SWAP1 PUSH2 0x32C3 JUMP JUMPDEST PUSH2 0x2302 JUMP JUMPDEST STOP JUMPDEST CALLVALUE DUP1 ISZERO PUSH2 0x5E3 JUMPI PUSH0 DUP1 REVERT JUMPDEST POP PUSH2 0x5FE PUSH1 0x4 DUP1 CALLDATASIZE SUB DUP2 ADD SWAP1 PUSH2 0x5F9 SWAP2 SWAP1 PUSH2 0x29AF JUMP JUMPDEST PUSH2 0x2592 JUMP JUMPDEST PUSH1 0x40 MLOAD PUSH2 0x60B SWAP2 SWAP1 PUSH2 0x2D91 JUMP JUMPDEST PUSH1 0x40 MLOAD DUP1 SWAP2 SUB SWAP1 RETURN JUMPDEST CALLVALUE DUP1 ISZERO PUSH2 0x61F JUMPI PUSH0 DUP1 REVERT JUMPDEST POP PUSH2 0x628 PUSH2 0x272D JUMP JUMPDEST PUSH1 0x40 MLOAD PUSH2 0x635 SWAP2 SWAP1 PUSH2 0x2C3B JUMP JUMPDEST PUSH1 0x40 MLOAD DUP1 SWAP2 SUB SWAP1 RETURN JUMPDEST PUSH1 0x8 PUSH1 0x20 MSTORE DUP1 PUSH0 MSTORE PUSH1 0x40 PUSH0 KECCAK256 PUSH0 SWAP2 POP SWAP1 POP DUP1 PUSH0 ADD SLOAD SWAP1 DUP1 PUSH1 0x1 ADD DUP1 SLOAD PUSH2 0x663 SWAP1 PUSH2 0x335C JUMP JUMPDEST DUP1 PUSH1 0x1F ADD PUSH1 0x20 DUP1 SWAP2 DIV MUL PUSH1 0x20 ADD PUSH1 0x40 MLOAD SWAP1 DUP2 ADD PUSH1 0x40 MSTORE DUP1 SWAP3 SWAP2 SWAP1 DUP2 DUP2 MSTORE PUSH1 0x20 ADD DUP3 DUP1 SLOAD PUSH2 0x68F SWAP1 PUSH2 0x335C JUMP JUMPDEST DUP1 ISZERO PUSH2 0x6DA JUMPI DUP1 PUSH1 0x1F LT PUSH2 0x6B1 JUMPI PUSH2 0x100 DUP1 DUP4 SLOAD DIV MUL DUP4 MSTORE SWAP2 PUSH1 0x20 ADD SWAP2 PUSH2 0x6DA JUMP JUMPDEST DUP3 ADD SWAP2 SWAP1 PUSH0 MSTORE PUSH1 0x20 PUSH0 KECCAK256 SWAP1 JUMPDEST DUP2 SLOAD DUP2 MSTORE SWAP1 PUSH1 0x1 ADD SWAP1 PUSH1 0x20 ADD DUP1 DUP4 GT PUSH2 0x6BD JUMPI DUP3 SWAP1 SUB PUSH1 0x1F AND DUP3 ADD SWAP2 JUMPDEST POP POP POP POP POP SWAP1 POP DUP3 JUMP JUMPDEST PUSH2 0x6EC PUSH2 0x292B JUMP JUMPDEST PUSH1 0x8 PUSH0 DUP4 PUSH20 0xFFFFFFFFFFFFFFFFFFFFFFFFFFFFFFFFFFFFFFFF AND PUSH20 0xFFFFFFFFFFFFFFFFFFFFFFFFFFFFFFFFFFFFFFFF AND DUP2 MSTORE PUSH1 0x20 ADD SWAP1 DUP2 MSTORE PUSH1 0x20 ADD PUSH0 KECCAK256 PUSH1 0x40 MLOAD DUP1 PUSH1 0x40 ADD PUSH1 0x40 MSTORE SWAP1 DUP2 PUSH0 DUP3 ADD SLOAD DUP2 MSTORE PUSH1 0x20 ADD PUSH1 0x1 DUP3 ADD DUP1 SLOAD PUSH2 0x74D SWAP1 PUSH2 0x335C JUMP JUMPDEST DUP1 PUSH1 0x1F ADD PUSH1 0x20 DUP1 SWAP2 DIV MUL PUSH1 0x20 ADD PUSH1 0x40 MLOAD SWAP1 DUP2 ADD PUSH1 0x40 MSTORE DUP1 SWAP3 SWAP2 SWAP1 DUP2 DUP2 MSTORE PUSH1 0x20 ADD DUP3 DUP1 SLOAD PUSH2 0x779 SWAP1 PUSH2 0x335C JUMP JUMPDEST DUP1 ISZERO PUSH2 0x7C4 JUMPI DUP1 PUSH1 0x1F LT PUSH2 0x79B JUMPI PUSH2 0x100 DUP1 DUP4 SLOAD DIV MUL DUP4 MSTORE SWAP2 PUSH1 0x20 ADD SWAP2 PUSH2 0x7C4 JUMP JUMPDEST DUP3 ADD SWAP2 SWAP1 PUSH0 MSTORE PUSH1 0x20 PUSH0 KECCAK256 SWAP1 JUMPDEST DUP2 SLOAD DUP2 MSTORE SWAP1 PUSH1 0x1 ADD SWAP1 PUSH1 0x20 ADD DUP1 DUP4 GT PUSH2 0x7A7 JUMPI DUP3 SWAP1 SUB PUSH1 0x1F AND DUP3 ADD SWAP2 JUMPDEST POP POP POP POP POP DUP2 MSTORE POP POP SWAP1 POP SWAP2 SWAP1 POP JUMP JUMPDEST PUSH0 DUP1 SLOAD SWAP1 PUSH2 0x100 EXP SWAP1 DIV PUSH20 0xFFFFFFFFFFFFFFFFFFFFFFFFFFFFFFFFFFFFFFFF AND PUSH20 0xFFFFFFFFFFFFFFFFFFFFFFFFFFFFFFFFFFFFFFFF AND CALLER PUSH20 0xFFFFFFFFFFFFFFFFFFFFFFFFFFFFFFFFFFFFFFFF AND EQ PUSH2 0x861 JUMPI PUSH1 0x40 MLOAD PUSH32 0x8C379A000000000000000000000000000000000000000000000000000000000 DUP2 MSTORE PUSH1 0x4 ADD PUSH2 0x858 SWAP1 PUSH2 0x33FC JUMP JUMPDEST PUSH1 0x40 MLOAD DUP1 SWAP2 SUB SWAP1 REVERT JUMPDEST DUP1 PUSH1 0x3 DUP2 SWAP1 SSTORE POP POP JUMP JUMPDEST PUSH1 0x5 PUSH1 0x20 MSTORE DUP1 PUSH0 MSTORE PUSH1 0x40 PUSH0 KECCAK256 PUSH0 SWAP2 POP SWAP1 POP DUP1 PUSH0 ADD PUSH0 SWAP1 SLOAD SWAP1 PUSH2 0x100 EXP SWAP1 DIV PUSH20 0xFFFFFFFFFFFFFFFFFFFFFFFFFFFFFFFFFFFFFFFF AND SWAP1 DUP1 PUSH1 0x1 ADD DUP1 SLOAD PUSH2 0x8AF SWAP1 PUSH2 0x335C JUMP JUMPDEST DUP1 PUSH1 0x1F ADD PUSH1 0x20 DUP1 SWAP2 DIV MUL PUSH1 0x20 ADD PUSH1 0x40 MLOAD SWAP1 DUP2 ADD PUSH1 0x40 MSTORE DUP1 SWAP3 SWAP2 SWAP1 DUP2 DUP2 MSTORE PUSH1 0x20 ADD DUP3 DUP1 SLOAD PUSH2 0x8DB SWAP1 PUSH2 0x335C JUMP JUMPDEST DUP1 ISZERO PUSH2 0x926 JUMPI DUP1 PUSH1 0x1F LT PUSH2 0x8FD JUMPI PUSH2 0x100 DUP1 DUP4 SLOAD DIV MUL DUP4 MSTORE SWAP2 PUSH1 0x20 ADD SWAP2 PUSH2 0x926 JUMP JUMPDEST DUP3 ADD SWAP2 SWAP1 PUSH0 MSTORE PUSH1 0x20 PUSH0 KECCAK256 SWAP1 JUMPDEST DUP2 SLOAD DUP2 MSTORE SWAP1 PUSH1 0x1 ADD SWAP1 PUSH1 0x20 ADD DUP1 DUP4 GT PUSH2 0x909 JUMPI DUP3 SWAP1 SUB PUSH1 0x1F AND DUP3 ADD SWAP2 JUMPDEST POP POP POP POP POP SWAP1 DUP1 PUSH1 0x2 ADD SLOAD SWAP1 DUP1 PUSH1 0x3 ADD SLOAD SWAP1 DUP1 PUSH1 0x4 ADD SLOAD SWAP1 POP DUP6 JUMP JUMPDEST PUSH1 0x7 PUSH1 0x20 MSTORE DUP2 PUSH0 MSTORE PUSH1 0x40 PUSH0 KECCAK256 PUSH1 0x20 MSTORE DUP1 PUSH0 MSTORE PUSH1 0x40 PUSH0 KECCAK256 PUSH0 SWAP2 POP SWAP2 POP POP SLOAD DUP2 JUMP JUMPDEST PUSH1 0x60 PUSH1 0xA DUP1 SLOAD DUP1 PUSH1 0x20 MUL PUSH1 0x20 ADD PUSH1 0x40 MLOAD SWAP1 DUP2 ADD PUSH1 0x40 MSTORE DUP1 SWAP3 SWAP2 SWAP1 DUP2 DUP2 MSTORE PUSH1 0x20 ADD PUSH0 SWAP1 JUMPDEST DUP3 DUP3 LT ISZERO PUSH2 0xAB7 JUMPI DUP4 DUP3 SWAP1 PUSH0 MSTORE PUSH1 0x20 PUSH0 KECCAK256 SWAP1 PUSH1 0x5 MUL ADD PUSH1 0x40 MLOAD DUP1 PUSH1 0xA0 ADD PUSH1 0x40 MSTORE SWAP1 DUP2 PUSH0 DUP3 ADD PUSH0 SWAP1 SLOAD SWAP1 PUSH2 0x100 EXP SWAP1 DIV PUSH20 0xFFFFFFFFFFFFFFFFFFFFFFFFFFFFFFFFFFFFFFFF AND PUSH20 0xFFFFFFFFFFFFFFFFFFFFFFFFFFFFFFFFFFFFFFFF AND PUSH20 0xFFFFFFFFFFFFFFFFFFFFFFFFFFFFFFFFFFFFFFFF AND DUP2 MSTORE PUSH1 0x20 ADD PUSH1 0x1 DUP3 ADD SLOAD DUP2 MSTORE PUSH1 0x20 ADD PUSH1 0x2 DUP3 ADD SLOAD DUP2 MSTORE PUSH1 0x20 ADD PUSH1 0x3 DUP3 ADD DUP1 SLOAD PUSH2 0xA1E SWAP1 PUSH2 0x335C JUMP JUMPDEST DUP1 PUSH1 0x1F ADD PUSH1 0x20 DUP1 SWAP2 DIV MUL PUSH1 0x20 ADD PUSH1 0x40 MLOAD SWAP1 DUP2 ADD PUSH1 0x40 MSTORE DUP1 SWAP3 SWAP2 SWAP1 DUP2 DUP2 MSTORE PUSH1 0x20 ADD DUP3 DUP1 SLOAD PUSH2 0xA4A SWAP1 PUSH2 0x335C JUMP JUMPDEST DUP1 ISZERO PUSH2 0xA95 JUMPI DUP1 PUSH1 0x1F LT PUSH2 0xA6C JUMPI PUSH2 0x100 DUP1 DUP4 SLOAD DIV MUL DUP4 MSTORE SWAP2 PUSH1 0x20 ADD SWAP2 PUSH2 0xA95 JUMP JUMPDEST DUP3 ADD SWAP2 SWAP1 PUSH0 MSTORE PUSH1 0x20 PUSH0 KECCAK256 SWAP1 JUMPDEST DUP2 SLOAD DUP2 MSTORE SWAP1 PUSH1 0x1 ADD SWAP1 PUSH1 0x20 ADD DUP1 DUP4 GT PUSH2 0xA78 JUMPI DUP3 SWAP1 SUB PUSH1 0x1F AND DUP3 ADD SWAP2 JUMPDEST POP POP POP POP POP DUP2 MSTORE PUSH1 0x20 ADD PUSH1 0x4 DUP3 ADD SLOAD DUP2 MSTORE POP POP DUP2 MSTORE PUSH1 0x20 ADD SWAP1 PUSH1 0x1 ADD SWAP1 PUSH2 0x985 JUMP JUMPDEST POP POP POP POP SWAP1 POP SWAP1 JUMP JUMPDEST PUSH1 0x2 PUSH0 SWAP1 SLOAD SWAP1 PUSH2 0x100 EXP SWAP1 DIV PUSH1 0xFF AND DUP2 JUMP JUMPDEST PUSH1 0x6 SLOAD DUP5 LT PUSH2 0xB16 JUMPI PUSH1 0x40 MLOAD PUSH32 0x8C379A000000000000000000000000000000000000000000000000000000000 DUP2 MSTORE PUSH1 0x4 ADD PUSH2 0xB0D SWAP1 PUSH2 0x3464 JUMP JUMPDEST PUSH1 0x40 MLOAD DUP1 SWAP2 SUB SWAP1 REVERT JUMPDEST PUSH0 PUSH1 0x5 PUSH0 DUP7 DUP2 MSTORE PUSH1 0x20 ADD SWAP1 DUP2 MSTORE PUSH1 0x20 ADD PUSH0 KECCAK256 SWAP1 POP DUP1 PUSH0 ADD PUSH0 SWAP1 SLOAD SWAP1 PUSH2 0x100 EXP SWAP1 DIV PUSH20 0xFFFFFFFFFFFFFFFFFFFFFFFFFFFFFFFFFFFFFFFF AND PUSH20 0xFFFFFFFFFFFFFFFFFFFFFFFFFFFFFFFFFFFFFFFF AND CALLER PUSH20 0xFFFFFFFFFFFFFFFFFFFFFFFFFFFFFFFFFFFFFFFF AND EQ PUSH2 0xBBA JUMPI PUSH1 0x40 MLOAD PUSH32 0x8C379A000000000000000000000000000000000000000000000000000000000 DUP2 MSTORE PUSH1 0x4 ADD PUSH2 0xBB1 SWAP1 PUSH2 0x34F2 JUMP JUMPDEST PUSH1 0x40 MLOAD DUP1 SWAP2 SUB SWAP1 REVERT JUMPDEST PUSH0 DUP5 MLOAD GT PUSH2 0xBFD JUMPI PUSH1 0x40 MLOAD PUSH32 0x8C379A000000000000000000000000000000000000000000000000000000000 DUP2 MSTORE PUSH1 0x4 ADD PUSH2 0xBF4 SWAP1 PUSH2 0x355A JUMP JUMPDEST PUSH1 0x40 MLOAD DUP1 SWAP2 SUB SWAP1 REVERT JUMPDEST PUSH0 DUP4 GT PUSH2 0xC3F JUMPI PUSH1 0x40 MLOAD PUSH32 0x8C379A000000000000000000000000000000000000000000000000000000000 DUP2 MSTORE PUSH1 0x4 ADD PUSH2 0xC36 SWAP1 PUSH2 0x35E8 JUMP JUMPDEST PUSH1 0x40 MLOAD DUP1 SWAP2 SUB SWAP1 REVERT JUMPDEST PUSH0 DUP3 GT PUSH2 0xC81 JUMPI PUSH1 0x40 MLOAD PUSH32 0x8C379A000000000000000000000000000000000000000000000000000000000 DUP2 MSTORE PUSH1 0x4 ADD PUSH2 0xC78 SWAP1 PUSH2 0x3676 JUMP JUMPDEST PUSH1 0x40 MLOAD DUP1 SWAP2 SUB SWAP1 REVERT JUMPDEST DUP4 DUP2 PUSH1 0x1 ADD SWAP1 DUP2 PUSH2 0xC92 SWAP2 SWAP1 PUSH2 0x3831 JUMP JUMPDEST POP DUP3 DUP2 PUSH1 0x2 ADD DUP2 SWAP1 SSTORE POP DUP3 DUP2 PUSH1 0x3 ADD DUP2 SWAP1 SSTORE POP DUP2 DUP2 PUSH1 0x4 ADD DUP2 SWAP1 SSTORE POP PUSH32 0x700A00C8A0CE792DAD3B7132A7A7F4A44A923F3820E64A1CA3594A073973C909 DUP6 DUP6 DUP6 DUP6 PUSH1 0x40 MLOAD PUSH2 0xCE3 SWAP5 SWAP4 SWAP3 SWAP2 SWAP1 PUSH2 0x3900 JUMP JUMPDEST PUSH1 0x40 MLOAD DUP1 SWAP2 SUB SWAP1 LOG1 POP POP POP POP POP JUMP JUMPDEST PUSH1 0x6 SLOAD DUP2 JUMP JUMPDEST PUSH1 0x6 SLOAD DUP3 LT PUSH2 0xD3C JUMPI PUSH1 0x40 MLOAD PUSH32 0x8C379A000000000000000000000000000000000000000000000000000000000 DUP2 MSTORE PUSH1 0x4 ADD PUSH2 0xD33 SWAP1 PUSH2 0x3464 JUMP JUMPDEST PUSH1 0x40 MLOAD DUP1 SWAP2 SUB SWAP1 REVERT JUMPDEST DUP1 PUSH1 0x7 PUSH0 CALLER PUSH20 0xFFFFFFFFFFFFFFFFFFFFFFFFFFFFFFFFFFFFFFFF AND PUSH20 0xFFFFFFFFFFFFFFFFFFFFFFFFFFFFFFFFFFFFFFFF AND DUP2 MSTORE PUSH1 0x20 ADD SWAP1 DUP2 MSTORE PUSH1 0x20 ADD PUSH0 KECCAK256 PUSH0 DUP5 DUP2 MSTORE PUSH1 0x20 ADD SWAP1 DUP2 MSTORE PUSH1 0x20 ADD PUSH0 KECCAK256 SLOAD LT ISZERO PUSH2 0xDCB JUMPI PUSH1 0x40 MLOAD PUSH32 0x8C379A000000000000000000000000000000000000000000000000000000000 DUP2 MSTORE PUSH1 0x4 ADD PUSH2 0xDC2 SWAP1 PUSH2 0x3994 JUMP JUMPDEST PUSH1 0x40 MLOAD DUP1 SWAP2 SUB SWAP1 REVERT JUMPDEST DUP1 PUSH1 0x7 PUSH0 CALLER PUSH20 0xFFFFFFFFFFFFFFFFFFFFFFFFFFFFFFFFFFFFFFFF AND PUSH20 0xFFFFFFFFFFFFFFFFFFFFFFFFFFFFFFFFFFFFFFFF AND DUP2 MSTORE PUSH1 0x20 ADD SWAP1 DUP2 MSTORE PUSH1 0x20 ADD PUSH0 KECCAK256 PUSH0 DUP5 DUP2 MSTORE PUSH1 0x20 ADD SWAP1 DUP2 MSTORE PUSH1 0x20 ADD PUSH0 KECCAK256 PUSH0 DUP3 DUP3 SLOAD PUSH2 0xE26 SWAP2 SWAP1 PUSH2 0x39DF JUMP JUMPDEST SWAP3 POP POP DUP2 SWAP1 SSTORE POP PUSH0 PUSH1 0x40 MLOAD DUP1 PUSH1 0xA0 ADD PUSH1 0x40 MSTORE DUP1 CALLER PUSH20 0xFFFFFFFFFFFFFFFFFFFFFFFFFFFFFFFFFFFFFFFF AND DUP2 MSTORE PUSH1 0x20 ADD DUP5 DUP2 MSTORE PUSH1 0x20 ADD DUP4 DUP2 MSTORE PUSH1 0x20 ADD PUSH1 0x40 MLOAD DUP1 PUSH1 0x40 ADD PUSH1 0x40 MSTORE DUP1 PUSH1 0x6 DUP2 MSTORE PUSH1 0x20 ADD PUSH32 0x7265746972650000000000000000000000000000000000000000000000000000 DUP2 MSTORE POP DUP2 MSTORE PUSH1 0x20 ADD TIMESTAMP DUP2 MSTORE POP SWAP1 POP PUSH1 0x9 PUSH0 CALLER PUSH20 0xFFFFFFFFFFFFFFFFFFFFFFFFFFFFFFFFFFFFFFFF AND PUSH20 0xFFFFFFFFFFFFFFFFFFFFFFFFFFFFFFFFFFFFFFFF AND DUP2 MSTORE PUSH1 0x20 ADD SWAP1 DUP2 MSTORE PUSH1 0x20 ADD PUSH0 KECCAK256 DUP2 SWAP1 DUP1 PUSH1 0x1 DUP2 SLOAD ADD DUP1 DUP3 SSTORE DUP1 SWAP2 POP POP PUSH1 0x1 SWAP1 SUB SWAP1 PUSH0 MSTORE PUSH1 0x20 PUSH0 KECCAK256 SWAP1 PUSH1 0x5 MUL ADD PUSH0 SWAP1 SWAP2 SWAP1 SWAP2 SWAP1 SWAP2 POP PUSH0 DUP3 ADD MLOAD DUP2 PUSH0 ADD PUSH0 PUSH2 0x100 EXP DUP2 SLOAD DUP2 PUSH20 0xFFFFFFFFFFFFFFFFFFFFFFFFFFFFFFFFFFFFFFFF MUL NOT AND SWAP1 DUP4 PUSH20 0xFFFFFFFFFFFFFFFFFFFFFFFFFFFFFFFFFFFFFFFF AND MUL OR SWAP1 SSTORE POP PUSH1 0x20 DUP3 ADD MLOAD DUP2 PUSH1 0x1 ADD SSTORE PUSH1 0x40 DUP3 ADD MLOAD DUP2 PUSH1 0x2 ADD SSTORE PUSH1 0x60 DUP3 ADD MLOAD DUP2 PUSH1 0x3 ADD SWAP1 DUP2 PUSH2 0xF73 SWAP2 SWAP1 PUSH2 0x3831 JUMP JUMPDEST POP PUSH1 0x80 DUP3 ADD MLOAD DUP2 PUSH1 0x4 ADD SSTORE POP POP PUSH1 0xA DUP2 SWAP1 DUP1 PUSH1 0x1 DUP2 SLOAD ADD DUP1 DUP3 SSTORE DUP1 SWAP2 POP POP PUSH1 0x1 SWAP1 SUB SWAP1 PUSH0 MSTORE PUSH1 0x20 PUSH0 KECCAK256 SWAP1 PUSH1 0x5 MUL ADD PUSH0 SWAP1 SWAP2 SWAP1 SWAP2 SWAP1 SWAP2 POP PUSH0 DUP3 ADD MLOAD DUP2 PUSH0 ADD PUSH0 PUSH2 0x100 EXP DUP2 SLOAD DUP2 PUSH20 0xFFFFFFFFFFFFFFFFFFFFFFFFFFFFFFFFFFFFFFFF MUL NOT AND SWAP1 DUP4 PUSH20 0xFFFFFFFFFFFFFFFFFFFFFFFFFFFFFFFFFFFFFFFF AND MUL OR SWAP1 SSTORE POP PUSH1 0x20 DUP3 ADD MLOAD DUP2 PUSH1 0x1 ADD SSTORE PUSH1 0x40 DUP3 ADD MLOAD DUP2 PUSH1 0x2 ADD SSTORE PUSH1 0x60 DUP3 ADD MLOAD DUP2 PUSH1 0x3 ADD SWAP1 DUP2 PUSH2 0x1016 SWAP2 SWAP1 PUSH2 0x3831 JUMP JUMPDEST POP PUSH1 0x80 DUP3 ADD MLOAD DUP2 PUSH1 0x4 ADD SSTORE POP POP PUSH2 0x1063 CALLER DUP4 PUSH1 0x40 MLOAD DUP1 PUSH1 0x40 ADD PUSH1 0x40 MSTORE DUP1 PUSH1 0x6 DUP2 MSTORE PUSH1 0x20 ADD PUSH32 0x7265746972650000000000000000000000000000000000000000000000000000 DUP2 MSTORE POP PUSH2 0x2733 JUMP JUMPDEST CALLER PUSH20 0xFFFFFFFFFFFFFFFFFFFFFFFFFFFFFFFFFFFFFFFF AND PUSH32 0x2FFD4879AF328C871CF4D2BE1D40D91F5CE4F202FD47E10E4C58D19667627DA8 DUP5 DUP5 PUSH1 0x40 MLOAD PUSH2 0x10AB SWAP3 SWAP2 SWAP1 PUSH2 0x3A12 JUMP JUMPDEST PUSH1 0x40 MLOAD DUP1 SWAP2 SUB SWAP1 LOG2 POP POP POP JUMP JUMPDEST PUSH0 DUP1 SLOAD SWAP1 PUSH2 0x100 EXP SWAP1 DIV PUSH20 0xFFFFFFFFFFFFFFFFFFFFFFFFFFFFFFFFFFFFFFFF AND PUSH20 0xFFFFFFFFFFFFFFFFFFFFFFFFFFFFFFFFFFFFFFFF AND CALLER PUSH20 0xFFFFFFFFFFFFFFFFFFFFFFFFFFFFFFFFFFFFFFFF AND EQ PUSH2 0x1145 JUMPI PUSH1 0x40 MLOAD PUSH32 0x8C379A000000000000000000000000000000000000000000000000000000000 DUP2 MSTORE PUSH1 0x4 ADD PUSH2 0x113C SWAP1 PUSH2 0x3AA9 JUMP JUMPDEST PUSH1 0x40 MLOAD DUP1 SWAP2 SUB SWAP1 REVERT JUMPDEST PUSH1 0x40 MLOAD PUSH1 0x20 ADD PUSH2 0x1154 SWAP1 PUSH2 0x3B1B JUMP JUMPDEST PUSH1 0x40 MLOAD PUSH1 0x20 DUP2 DUP4 SUB SUB DUP2 MSTORE SWAP1 PUSH1 0x40 MSTORE DUP1 MLOAD SWAP1 PUSH1 0x20 ADD KECCAK256 DUP3 PUSH1 0x40 MLOAD PUSH1 0x20 ADD PUSH2 0x117B SWAP2 SWAP1 PUSH2 0x3B5F JUMP JUMPDEST PUSH1 0x40 MLOAD PUSH1 0x20 DUP2 DUP4 SUB SUB DUP2 MSTORE SWAP1 PUSH1 0x40 MSTORE DUP1 MLOAD SWAP1 PUSH1 0x20 ADD KECCAK256 SUB PUSH2 0x11A2 JUMPI DUP1 PUSH1 0xC DUP2 SWAP1 SSTORE POP PUSH2 0x123B JUMP JUMPDEST PUSH1 0x40 MLOAD PUSH1 0x20 ADD PUSH2 0x11B1 SWAP1 PUSH2 0x3BBF JUMP JUMPDEST PUSH1 0x40 MLOAD PUSH1 0x20 DUP2 DUP4 SUB SUB DUP2 MSTORE SWAP1 PUSH1 0x40 MSTORE DUP1 MLOAD SWAP1 PUSH1 0x20 ADD KECCAK256 DUP3 PUSH1 0x40 MLOAD PUSH1 0x20 ADD PUSH2 0x11D8 SWAP2 SWAP1 PUSH2 0x3B5F JUMP JUMPDEST PUSH1 0x40 MLOAD PUSH1 0x20 DUP2 DUP4 SUB SUB DUP2 MSTORE SWAP1 PUSH1 0x40 MSTORE DUP1 MLOAD SWAP1 PUSH1 0x20 ADD KECCAK256 SUB PUSH2 0x11FF JUMPI DUP1 PUSH1 0xD DUP2 SWAP1 SSTORE POP PUSH2 0x123A JUMP JUMPDEST PUSH1 0x40 MLOAD PUSH32 0x8C379A000000000000000000000000000000000000000000000000000000000 DUP2 MSTORE PUSH1 0x4 ADD PUSH2 0x1231 SWAP1 PUSH2 0x3C1D JUMP JUMPDEST PUSH1 0x40 MLOAD DUP1 SWAP2 SUB SWAP1 REVERT JUMPDEST JUMPDEST PUSH32 0x65F813FFC62F4558203F911768A4C01623A0CBD5BA9AB7794C0D605E16B7D98C DUP3 DUP3 PUSH1 0x40 MLOAD PUSH2 0x126C SWAP3 SWAP2 SWAP1 PUSH2 0x3C3B JUMP JUMPDEST PUSH1 0x40 MLOAD DUP1 SWAP2 SUB SWAP1 LOG1 POP POP JUMP JUMPDEST PUSH1 0x60 DUP1 PUSH0 PUSH1 0x6 SLOAD PUSH8 0xFFFFFFFFFFFFFFFF DUP2 GT ISZERO PUSH2 0x1298 JUMPI PUSH2 0x1297 PUSH2 0x2DEC JUMP JUMPDEST JUMPDEST PUSH1 0x40 MLOAD SWAP1 DUP1 DUP3 MSTORE DUP1 PUSH1 0x20 MUL PUSH1 0x20 ADD DUP3 ADD PUSH1 0x40 MSTORE DUP1 ISZERO PUSH2 0x12C6 JUMPI DUP2 PUSH1 0x20 ADD PUSH1 0x20 DUP3 MUL DUP1 CALLDATASIZE DUP4 CALLDATACOPY DUP1 DUP3 ADD SWAP2 POP POP SWAP1 POP JUMPDEST POP SWAP1 POP PUSH0 PUSH1 0x6 SLOAD PUSH8 0xFFFFFFFFFFFFFFFF DUP2 GT ISZERO PUSH2 0x12E6 JUMPI PUSH2 0x12E5 PUSH2 0x2DEC JUMP JUMPDEST JUMPDEST PUSH1 0x40 MLOAD SWAP1 DUP1 DUP3 MSTORE DUP1 PUSH1 0x20 MUL PUSH1 0x20 ADD DUP3 ADD PUSH1 0x40 MSTORE DUP1 ISZERO PUSH2 0x1314 JUMPI DUP2 PUSH1 0x20 ADD PUSH1 0x20 DUP3 MUL DUP1 CALLDATASIZE DUP4 CALLDATACOPY DUP1 DUP3 ADD SWAP2 POP POP SWAP1 POP JUMPDEST POP SWAP1 POP PUSH0 JUMPDEST PUSH1 0x6 SLOAD DUP2 LT ISZERO PUSH2 0x143F JUMPI PUSH1 0x5 PUSH0 DUP3 DUP2 MSTORE PUSH1 0x20 ADD SWAP1 DUP2 MSTORE PUSH1 0x20 ADD PUSH0 KECCAK256 PUSH0 ADD PUSH0 SWAP1 SLOAD SWAP1 PUSH2 0x100 EXP SWAP1 DIV PUSH20 0xFFFFFFFFFFFFFFFFFFFFFFFFFFFFFFFFFFFFFFFF AND DUP3 DUP3 DUP2 MLOAD DUP2 LT PUSH2 0x1369 JUMPI PUSH2 0x1368 PUSH2 0x3C69 JUMP JUMPDEST JUMPDEST PUSH1 0x20 MUL PUSH1 0x20 ADD ADD SWAP1 PUSH20 0xFFFFFFFFFFFFFFFFFFFFFFFFFFFFFFFFFFFFFFFF AND SWAP1 DUP2 PUSH20 0xFFFFFFFFFFFFFFFFFFFFFFFFFFFFFFFFFFFFFFFF AND DUP2 MSTORE POP POP PUSH1 0xB PUSH0 PUSH1 0x5 PUSH0 DUP5 DUP2 MSTORE PUSH1 0x20 ADD SWAP1 DUP2 MSTORE PUSH1 0x20 ADD PUSH0 KECCAK256 PUSH0 ADD PUSH0 SWAP1 SLOAD SWAP1 PUSH2 0x100 EXP SWAP1 DIV PUSH20 0xFFFFFFFFFFFFFFFFFFFFFFFFFFFFFFFFFFFFFFFF AND PUSH20 0xFFFFFFFFFFFFFFFFFFFFFFFFFFFFFFFFFFFFFFFF AND PUSH20 0xFFFFFFFFFFFFFFFFFFFFFFFFFFFFFFFFFFFFFFFF AND DUP2 MSTORE PUSH1 0x20 ADD SWAP1 DUP2 MSTORE PUSH1 0x20 ADD PUSH0 KECCAK256 SLOAD DUP4 DUP3 DUP2 MLOAD DUP2 LT PUSH2 0x1426 JUMPI PUSH2 0x1425 PUSH2 0x3C69 JUMP JUMPDEST JUMPDEST PUSH1 0x20 MUL PUSH1 0x20 ADD ADD DUP2 DUP2 MSTORE POP POP DUP1 DUP1 PUSH1 0x1 ADD SWAP2 POP POP PUSH2 0x1319 JUMP JUMPDEST POP PUSH0 JUMPDEST PUSH1 0x1 DUP4 MLOAD PUSH2 0x1450 SWAP2 SWAP1 PUSH2 0x39DF JUMP JUMPDEST DUP2 LT ISZERO PUSH2 0x1609 JUMPI PUSH0 PUSH1 0x1 DUP3 PUSH2 0x1465 SWAP2 SWAP1 PUSH2 0x3C96 JUMP JUMPDEST SWAP1 POP JUMPDEST DUP4 MLOAD DUP2 LT ISZERO PUSH2 0x15FB JUMPI DUP4 DUP2 DUP2 MLOAD DUP2 LT PUSH2 0x1484 JUMPI PUSH2 0x1483 PUSH2 0x3C69 JUMP JUMPDEST JUMPDEST PUSH1 0x20 MUL PUSH1 0x20 ADD ADD MLOAD DUP5 DUP4 DUP2 MLOAD DUP2 LT PUSH2 0x149F JUMPI PUSH2 0x149E PUSH2 0x3C69 JUMP JUMPDEST JUMPDEST PUSH1 0x20 MUL PUSH1 0x20 ADD ADD MLOAD LT ISZERO PUSH2 0x15EE JUMPI DUP4 DUP2 DUP2 MLOAD DUP2 LT PUSH2 0x14C0 JUMPI PUSH2 0x14BF PUSH2 0x3C69 JUMP JUMPDEST JUMPDEST PUSH1 0x20 MUL PUSH1 0x20 ADD ADD MLOAD DUP5 DUP4 DUP2 MLOAD DUP2 LT PUSH2 0x14DB JUMPI PUSH2 0x14DA PUSH2 0x3C69 JUMP JUMPDEST JUMPDEST PUSH1 0x20 MUL PUSH1 0x20 ADD ADD MLOAD DUP6 DUP5 DUP2 MLOAD DUP2 LT PUSH2 0x14F6 JUMPI PUSH2 0x14F5 PUSH2 0x3C69 JUMP JUMPDEST JUMPDEST PUSH1 0x20 MUL PUSH1 0x20 ADD ADD DUP7 DUP5 DUP2 MLOAD DUP2 LT PUSH2 0x1510 JUMPI PUSH2 0x150F PUSH2 0x3C69 JUMP JUMPDEST JUMPDEST PUSH1 0x20 MUL PUSH1 0x20 ADD ADD DUP3 DUP2 MSTORE POP DUP3 DUP2 MSTORE POP POP POP DUP3 DUP2 DUP2 MLOAD DUP2 LT PUSH2 0x1534 JUMPI PUSH2 0x1533 PUSH2 0x3C69 JUMP JUMPDEST JUMPDEST PUSH1 0x20 MUL PUSH1 0x20 ADD ADD MLOAD DUP4 DUP4 DUP2 MLOAD DUP2 LT PUSH2 0x154F JUMPI PUSH2 0x154E PUSH2 0x3C69 JUMP JUMPDEST JUMPDEST PUSH1 0x20 MUL PUSH1 0x20 ADD ADD MLOAD DUP5 DUP5 DUP2 MLOAD DUP2 LT PUSH2 0x156A JUMPI PUSH2 0x1569 PUSH2 0x3C69 JUMP JUMPDEST JUMPDEST PUSH1 0x20 MUL PUSH1 0x20 ADD ADD DUP6 DUP5 DUP2 MLOAD DUP2 LT PUSH2 0x1584 JUMPI PUSH2 0x1583 PUSH2 0x3C69 JUMP JUMPDEST JUMPDEST PUSH1 0x20 MUL PUSH1 0x20 ADD ADD DUP3 PUSH20 0xFFFFFFFFFFFFFFFFFFFFFFFFFFFFFFFFFFFFFFFF AND PUSH20 0xFFFFFFFFFFFFFFFFFFFFFFFFFFFFFFFFFFFFFFFF AND DUP2 MSTORE POP DUP3 PUSH20 0xFFFFFFFFFFFFFFFFFFFFFFFFFFFFFFFFFFFFFFFF AND PUSH20 0xFFFFFFFFFFFFFFFFFFFFFFFFFFFFFFFFFFFFFFFF AND DUP2 MSTORE POP POP POP JUMPDEST DUP1 DUP1 PUSH1 0x1 ADD SWAP2 POP POP PUSH2 0x1468 JUMP JUMPDEST POP DUP1 DUP1 PUSH1 0x1 ADD SWAP2 POP POP PUSH2 0x1442 JUMP JUMPDEST POP DUP1 DUP3 SWAP4 POP SWAP4 POP POP POP SWAP1 SWAP2 JUMP JUMPDEST PUSH1 0xB PUSH1 0x20 MSTORE DUP1 PUSH0 MSTORE PUSH1 0x40 PUSH0 KECCAK256 PUSH0 SWAP2 POP SWAP1 POP SLOAD DUP2 JUMP JUMPDEST PUSH1 0x6 SLOAD DUP3 LT PUSH2 0x166F JUMPI PUSH1 0x40 MLOAD PUSH32 0x8C379A000000000000000000000000000000000000000000000000000000000 DUP2 MSTORE PUSH1 0x4 ADD PUSH2 0x1666 SWAP1 PUSH2 0x3464 JUMP JUMPDEST PUSH1 0x40 MLOAD DUP1 SWAP2 SUB SWAP1 REVERT JUMPDEST PUSH0 PUSH1 0x5 PUSH0 DUP5 DUP2 MSTORE PUSH1 0x20 ADD SWAP1 DUP2 MSTORE PUSH1 0x20 ADD PUSH0 KECCAK256 SWAP1 POP PUSH0 DUP3 GT PUSH2 0x16C5 JUMPI PUSH1 0x40 MLOAD PUSH32 0x8C379A000000000000000000000000000000000000000000000000000000000 DUP2 MSTORE PUSH1 0x4 ADD PUSH2 0x16BC SWAP1 PUSH2 0x3D39 JUMP JUMPDEST PUSH1 0x40 MLOAD DUP1 SWAP2 SUB SWAP1 REVERT JUMPDEST DUP1 PUSH1 0x3 ADD SLOAD DUP3 GT ISZERO PUSH2 0x170C JUMPI PUSH1 0x40 MLOAD PUSH32 0x8C379A000000000000000000000000000000000000000000000000000000000 DUP2 MSTORE PUSH1 0x4 ADD PUSH2 0x1703 SWAP1 PUSH2 0x3DA1 JUMP JUMPDEST PUSH1 0x40 MLOAD DUP1 SWAP2 SUB SWAP1 REVERT JUMPDEST PUSH0 DUP2 PUSH1 0x4 ADD SLOAD DUP4 PUSH2 0x171D SWAP2 SWAP1 PUSH2 0x3DBF JUMP JUMPDEST SWAP1 POP DUP1 CALLVALUE LT ISZERO PUSH2 0x1762 JUMPI PUSH1 0x40 MLOAD PUSH32 0x8C379A000000000000000000000000000000000000000000000000000000000 DUP2 MSTORE PUSH1 0x4 ADD PUSH2 0x1759 SWAP1 PUSH2 0x3E4A JUMP JUMPDEST PUSH1 0x40 MLOAD DUP1 SWAP2 SUB SWAP1 REVERT JUMPDEST PUSH0 PUSH2 0x2710 PUSH1 0x1 SLOAD DUP4 PUSH2 0x1774 SWAP2 SWAP1 PUSH2 0x3DBF JUMP JUMPDEST PUSH2 0x177E SWAP2 SWAP1 PUSH2 0x3E95 JUMP JUMPDEST SWAP1 POP PUSH0 DUP2 DUP4 PUSH2 0x178D SWAP2 SWAP1 PUSH2 0x39DF JUMP JUMPDEST SWAP1 POP DUP5 DUP5 PUSH1 0x3 ADD PUSH0 DUP3 DUP3 SLOAD PUSH2 0x17A2 SWAP2 SWAP1 PUSH2 0x39DF JUMP JUMPDEST SWAP3 POP POP DUP2 SWAP1 SSTORE POP DUP5 PUSH1 0x7 PUSH0 CALLER PUSH20 0xFFFFFFFFFFFFFFFFFFFFFFFFFFFFFFFFFFFFFFFF AND PUSH20 0xFFFFFFFFFFFFFFFFFFFFFFFFFFFFFFFFFFFFFFFF AND DUP2 MSTORE PUSH1 0x20 ADD SWAP1 DUP2 MSTORE PUSH1 0x20 ADD PUSH0 KECCAK256 PUSH0 DUP9 DUP2 MSTORE PUSH1 0x20 ADD SWAP1 DUP2 MSTORE PUSH1 0x20 ADD PUSH0 KECCAK256 PUSH0 DUP3 DUP3 SLOAD PUSH2 0x1804 SWAP2 SWAP1 PUSH2 0x3C96 JUMP JUMPDEST SWAP3 POP POP DUP2 SWAP1 SSTORE POP PUSH0 PUSH1 0x40 MLOAD DUP1 PUSH1 0xA0 ADD PUSH1 0x40 MSTORE DUP1 CALLER PUSH20 0xFFFFFFFFFFFFFFFFFFFFFFFFFFFFFFFFFFFFFFFF AND DUP2 MSTORE PUSH1 0x20 ADD DUP9 DUP2 MSTORE PUSH1 0x20 ADD DUP8 DUP2 MSTORE PUSH1 0x20 ADD PUSH1 0x40 MLOAD DUP1 PUSH1 0x40 ADD PUSH1 0x40 MSTORE DUP1 PUSH1 0x8 DUP2 MSTORE PUSH1 0x20 ADD PUSH32 0x7075726368617365000000000000000000000000000000000000000000000000 DUP2 MSTORE POP DUP2 MSTORE PUSH1 0x20 ADD TIMESTAMP DUP2 MSTORE POP SWAP1 POP PUSH1 0x9 PUSH0 CALLER PUSH20 0xFFFFFFFFFFFFFFFFFFFFFFFFFFFFFFFFFFFFFFFF AND PUSH20 0xFFFFFFFFFFFFFFFFFFFFFFFFFFFFFFFFFFFFFFFF AND DUP2 MSTORE PUSH1 0x20 ADD SWAP1 DUP2 MSTORE PUSH1 0x20 ADD PUSH0 KECCAK256 DUP2 SWAP1 DUP1 PUSH1 0x1 DUP2 SLOAD ADD DUP1 DUP3 SSTORE DUP1 SWAP2 POP POP PUSH1 0x1 SWAP1 SUB SWAP1 PUSH0 MSTORE PUSH1 0x20 PUSH0 KECCAK256 SWAP1 PUSH1 0x5 MUL ADD PUSH0 SWAP1 SWAP2 SWAP1 SWAP2 SWAP1 SWAP2 POP PUSH0 DUP3 ADD MLOAD DUP2 PUSH0 ADD PUSH0 PUSH2 0x100 EXP DUP2 SLOAD DUP2 PUSH20 0xFFFFFFFFFFFFFFFFFFFFFFFFFFFFFFFFFFFFFFFF MUL NOT AND SWAP1 DUP4 PUSH20 0xFFFFFFFFFFFFFFFFFFFFFFFFFFFFFFFFFFFFFFFF AND MUL OR SWAP1 SSTORE POP PUSH1 0x20 DUP3 ADD MLOAD DUP2 PUSH1 0x1 ADD SSTORE PUSH1 0x40 DUP3 ADD MLOAD DUP2 PUSH1 0x2 ADD SSTORE PUSH1 0x60 DUP3 ADD MLOAD DUP2 PUSH1 0x3 ADD SWAP1 DUP2 PUSH2 0x1951 SWAP2 SWAP1 PUSH2 0x3831 JUMP JUMPDEST POP PUSH1 0x80 DUP3 ADD MLOAD DUP2 PUSH1 0x4 ADD SSTORE POP POP PUSH1 0xA DUP2 SWAP1 DUP1 PUSH1 0x1 DUP2 SLOAD ADD DUP1 DUP3 SSTORE DUP1 SWAP2 POP POP PUSH1 0x1 SWAP1 SUB SWAP1 PUSH0 MSTORE PUSH1 0x20 PUSH0 KECCAK256 SWAP1 PUSH1 0x5 MUL ADD PUSH0 SWAP1 SWAP2 SWAP1 SWAP2 SWAP1 SWAP2 POP PUSH0 DUP3 ADD MLOAD DUP2 PUSH0 ADD PUSH0 PUSH2 0x100 EXP DUP2 SLOAD DUP2 PUSH20 0xFFFFFFFFFFFFFFFFFFFFFFFFFFFFFFFFFFFFFFFF MUL NOT AND SWAP1 DUP4 PUSH20 0xFFFFFFFFFFFFFFFFFFFFFFFFFFFFFFFFFFFFFFFF AND MUL OR SWAP1 SSTORE POP PUSH1 0x20 DUP3 ADD MLOAD DUP2 PUSH1 0x1 ADD SSTORE PUSH1 0x40 DUP3 ADD MLOAD DUP2 PUSH1 0x2 ADD SSTORE PUSH1 0x60 DUP3 ADD MLOAD DUP2 PUSH1 0x3 ADD SWAP1 DUP2 PUSH2 0x19F4 SWAP2 SWAP1 PUSH2 0x3831 JUMP JUMPDEST POP PUSH1 0x80 DUP3 ADD MLOAD DUP2 PUSH1 0x4 ADD SSTORE POP POP PUSH2 0x1A41 CALLER DUP8 PUSH1 0x40 MLOAD DUP1 PUSH1 0x40 ADD PUSH1 0x40 MSTORE DUP1 PUSH1 0x8 DUP2 MSTORE PUSH1 0x20 ADD PUSH32 0x7075726368617365000000000000000000000000000000000000000000000000 DUP2 MSTORE POP PUSH2 0x2733 JUMP JUMPDEST DUP5 PUSH0 ADD PUSH0 SWAP1 SLOAD SWAP1 PUSH2 0x100 EXP SWAP1 DIV PUSH20 0xFFFFFFFFFFFFFFFFFFFFFFFFFFFFFFFFFFFFFFFF AND PUSH20 0xFFFFFFFFFFFFFFFFFFFFFFFFFFFFFFFFFFFFFFFF AND PUSH2 0x8FC DUP4 SWAP1 DUP2 ISZERO MUL SWAP1 PUSH1 0x40 MLOAD PUSH0 PUSH1 0x40 MLOAD DUP1 DUP4 SUB DUP2 DUP6 DUP9 DUP9 CALL SWAP4 POP POP POP POP ISZERO DUP1 ISZERO PUSH2 0x1AA6 JUMPI RETURNDATASIZE PUSH0 DUP1 RETURNDATACOPY RETURNDATASIZE PUSH0 REVERT JUMPDEST POP PUSH0 DUP1 SLOAD SWAP1 PUSH2 0x100 EXP SWAP1 DIV PUSH20 0xFFFFFFFFFFFFFFFFFFFFFFFFFFFFFFFFFFFFFFFF AND PUSH20 0xFFFFFFFFFFFFFFFFFFFFFFFFFFFFFFFFFFFFFFFF AND PUSH2 0x8FC DUP5 SWAP1 DUP2 ISZERO MUL SWAP1 PUSH1 0x40 MLOAD PUSH0 PUSH1 0x40 MLOAD DUP1 DUP4 SUB DUP2 DUP6 DUP9 DUP9 CALL SWAP4 POP POP POP POP ISZERO DUP1 ISZERO PUSH2 0x1B09 JUMPI RETURNDATASIZE PUSH0 DUP1 RETURNDATACOPY RETURNDATASIZE PUSH0 REVERT JUMPDEST POP CALLER PUSH20 0xFFFFFFFFFFFFFFFFFFFFFFFFFFFFFFFFFFFFFFFF AND PUSH32 0xFB82FC1C5ADF84899709E87563B69DD5F4AC33320F1C60DBCA744BEC717EB90F DUP9 DUP9 PUSH1 0x40 MLOAD PUSH2 0x1B52 SWAP3 SWAP2 SWAP1 PUSH2 0x3A12 JUMP JUMPDEST PUSH1 0x40 MLOAD DUP1 SWAP2 SUB SWAP1 LOG2 POP POP POP POP POP POP POP JUMP JUMPDEST PUSH1 0xD SLOAD DUP2 JUMP JUMPDEST PUSH0 DUP1 SLOAD SWAP1 PUSH2 0x100 EXP SWAP1 DIV PUSH20 0xFFFFFFFFFFFFFFFFFFFFFFFFFFFFFFFFFFFFFFFF AND DUP2 JUMP JUMPDEST PUSH1 0x1 SLOAD DUP2 JUMP JUMPDEST PUSH1 0x6 SLOAD DUP3 LT PUSH2 0x1BD6 JUMPI PUSH1 0x40 MLOAD PUSH32 0x8C379A000000000000000000000000000000000000000000000000000000000 DUP2 MSTORE PUSH1 0x4 ADD PUSH2 0x1BCD SWAP1 PUSH2 0x3464 JUMP JUMPDEST PUSH1 0x40 MLOAD DUP1 SWAP2 SUB SWAP1 REVERT JUMPDEST DUP1 PUSH1 0x7 PUSH0 CALLER PUSH20 0xFFFFFFFFFFFFFFFFFFFFFFFFFFFFFFFFFFFFFFFF AND PUSH20 0xFFFFFFFFFFFFFFFFFFFFFFFFFFFFFFFFFFFFFFFF AND DUP2 MSTORE PUSH1 0x20 ADD SWAP1 DUP2 MSTORE PUSH1 0x20 ADD PUSH0 KECCAK256 PUSH0 DUP5 DUP2 MSTORE PUSH1 0x20 ADD SWAP1 DUP2 MSTORE PUSH1 0x20 ADD PUSH0 KECCAK256 SLOAD LT ISZERO PUSH2 0x1C65 JUMPI PUSH1 0x40 MLOAD PUSH32 0x8C379A000000000000000000000000000000000000000000000000000000000 DUP2 MSTORE PUSH1 0x4 ADD PUSH2 0x1C5C SWAP1 PUSH2 0x3F0F JUMP JUMPDEST PUSH1 0x40 MLOAD DUP1 SWAP2 SUB SWAP1 REVERT JUMPDEST PUSH1 0x4 SLOAD CALLVALUE LT ISZERO PUSH2 0x1CAA JUMPI PUSH1 0x40 MLOAD PUSH32 0x8C379A000000000000000000000000000000000000000000000000000000000 DUP2 MSTORE PUSH1 0x4 ADD PUSH2 0x1CA1 SWAP1 PUSH2 0x3F9D JUMP JUMPDEST PUSH1 0x40 MLOAD DUP1 SWAP2 SUB SWAP1 REVERT JUMPDEST PUSH0 DUP1 SLOAD SWAP1 PUSH2 0x100 EXP SWAP1 DIV PUSH20 0xFFFFFFFFFFFFFFFFFFFFFFFFFFFFFFFFFFFFFFFF AND PUSH20 0xFFFFFFFFFFFFFFFFFFFFFFFFFFFFFFFFFFFFFFFF AND PUSH2 0x8FC PUSH1 0x4 SLOAD SWAP1 DUP2 ISZERO MUL SWAP1 PUSH1 0x40 MLOAD PUSH0 PUSH1 0x40 MLOAD DUP1 DUP4 SUB DUP2 DUP6 DUP9 DUP9 CALL SWAP4 POP POP POP POP ISZERO DUP1 ISZERO PUSH2 0x1D0E JUMPI RETURNDATASIZE PUSH0 DUP1 RETURNDATACOPY RETURNDATASIZE PUSH0 REVERT JUMPDEST POP DUP1 PUSH1 0x7 PUSH0 CALLER PUSH20 0xFFFFFFFFFFFFFFFFFFFFFFFFFFFFFFFFFFFFFFFF AND PUSH20 0xFFFFFFFFFFFFFFFFFFFFFFFFFFFFFFFFFFFFFFFF AND DUP2 MSTORE PUSH1 0x20 ADD SWAP1 DUP2 MSTORE PUSH1 0x20 ADD PUSH0 KECCAK256 PUSH0 DUP5 DUP2 MSTORE PUSH1 0x20 ADD SWAP1 DUP2 MSTORE PUSH1 0x20 ADD PUSH0 KECCAK256 PUSH0 DUP3 DUP3 SLOAD PUSH2 0x1D6A SWAP2 SWAP1 PUSH2 0x39DF JUMP JUMPDEST SWAP3 POP POP DUP2 SWAP1 SSTORE POP DUP1 PUSH1 0x7 PUSH0 DUP6 PUSH20 0xFFFFFFFFFFFFFFFFFFFFFFFFFFFFFFFFFFFFFFFF AND PUSH20 0xFFFFFFFFFFFFFFFFFFFFFFFFFFFFFFFFFFFFFFFF AND DUP2 MSTORE PUSH1 0x20 ADD SWAP1 DUP2 MSTORE PUSH1 0x20 ADD PUSH0 KECCAK256 PUSH0 DUP5 DUP2 MSTORE PUSH1 0x20 ADD SWAP1 DUP2 MSTORE PUSH1 0x20 ADD PUSH0 KECCAK256 PUSH0 DUP3 DUP3 SLOAD PUSH2 0x1DCC SWAP2 SWAP1 PUSH2 0x3C96 JUMP JUMPDEST SWAP3 POP POP DUP2 SWAP1 SSTORE POP PUSH0 PUSH1 0x40 MLOAD DUP1 PUSH1 0xA0 ADD PUSH1 0x40 MSTORE DUP1 CALLER PUSH20 0xFFFFFFFFFFFFFFFFFFFFFFFFFFFFFFFFFFFFFFFF AND DUP2 MSTORE PUSH1 0x20 ADD DUP5 DUP2 MSTORE PUSH1 0x20 ADD DUP4 DUP2 MSTORE PUSH1 0x20 ADD PUSH1 0x40 MLOAD DUP1 PUSH1 0x40 ADD PUSH1 0x40 MSTORE DUP1 PUSH1 0x8 DUP2 MSTORE PUSH1 0x20 ADD PUSH32 0x7472616E73666572000000000000000000000000000000000000000000000000 DUP2 MSTORE POP DUP2 MSTORE PUSH1 0x20 ADD TIMESTAMP DUP2 MSTORE POP SWAP1 POP PUSH1 0x9 PUSH0 CALLER PUSH20 0xFFFFFFFFFFFFFFFFFFFFFFFFFFFFFFFFFFFFFFFF AND PUSH20 0xFFFFFFFFFFFFFFFFFFFFFFFFFFFFFFFFFFFFFFFF AND DUP2 MSTORE PUSH1 0x20 ADD SWAP1 DUP2 MSTORE PUSH1 0x20 ADD PUSH0 KECCAK256 DUP2 SWAP1 DUP1 PUSH1 0x1 DUP2 SLOAD ADD DUP1 DUP3 SSTORE DUP1 SWAP2 POP POP PUSH1 0x1 SWAP1 SUB SWAP1 PUSH0 MSTORE PUSH1 0x20 PUSH0 KECCAK256 SWAP1 PUSH1 0x5 MUL ADD PUSH0 SWAP1 SWAP2 SWAP1 SWAP2 SWAP1 SWAP2 POP PUSH0 DUP3 ADD MLOAD DUP2 PUSH0 ADD PUSH0 PUSH2 0x100 EXP DUP2 SLOAD DUP2 PUSH20 0xFFFFFFFFFFFFFFFFFFFFFFFFFFFFFFFFFFFFFFFF MUL NOT AND SWAP1 DUP4 PUSH20 0xFFFFFFFFFFFFFFFFFFFFFFFFFFFFFFFFFFFFFFFF AND MUL OR SWAP1 SSTORE POP PUSH1 0x20 DUP3 ADD MLOAD DUP2 PUSH1 0x1 ADD SSTORE PUSH1 0x40 DUP3 ADD MLOAD DUP2 PUSH1 0x2 ADD SSTORE PUSH1 0x60 DUP3 ADD MLOAD DUP2 PUSH1 0x3 ADD SWAP1 DUP2 PUSH2 0x1F19 SWAP2 SWAP1 PUSH2 0x3831 JUMP JUMPDEST POP PUSH1 0x80 DUP3 ADD MLOAD DUP2 PUSH1 0x4 ADD SSTORE POP POP PUSH1 0xA DUP2 SWAP1 DUP1 PUSH1 0x1 DUP2 SLOAD ADD DUP1 DUP3 SSTORE DUP1 SWAP2 POP POP PUSH1 0x1 SWAP1 SUB SWAP1 PUSH0 MSTORE PUSH1 0x20 PUSH0 KECCAK256 SWAP1 PUSH1 0x5 MUL ADD PUSH0 SWAP1 SWAP2 SWAP1 SWAP2 SWAP1 SWAP2 POP PUSH0 DUP3 ADD MLOAD DUP2 PUSH0 ADD PUSH0 PUSH2 0x100 EXP DUP2 SLOAD DUP2 PUSH20 0xFFFFFFFFFFFFFFFFFFFFFFFFFFFFFFFFFFFFFFFF MUL NOT AND SWAP1 DUP4 PUSH20 0xFFFFFFFFFFFFFFFFFFFFFFFFFFFFFFFFFFFFFFFF AND MUL OR SWAP1 SSTORE POP PUSH1 0x20 DUP3 ADD MLOAD DUP2 PUSH1 0x1 ADD SSTORE PUSH1 0x40 DUP3 ADD MLOAD DUP2 PUSH1 0x2 ADD SSTORE PUSH1 0x60 DUP3 ADD MLOAD DUP2 PUSH1 0x3 ADD SWAP1 DUP2 PUSH2 0x1FBC SWAP2 SWAP1 PUSH2 0x3831 JUMP JUMPDEST POP PUSH1 0x80 DUP3 ADD MLOAD DUP2 PUSH1 0x4 ADD SSTORE POP POP PUSH2 0x2009 CALLER DUP4 PUSH1 0x40 MLOAD DUP1 PUSH1 0x40 ADD PUSH1 0x40 MSTORE DUP1 PUSH1 0x8 DUP2 MSTORE PUSH1 0x20 ADD PUSH32 0x7472616E73666572000000000000000000000000000000000000000000000000 DUP2 MSTORE POP PUSH2 0x2733 JUMP JUMPDEST DUP4 PUSH20 0xFFFFFFFFFFFFFFFFFFFFFFFFFFFFFFFFFFFFFFFF AND CALLER PUSH20 0xFFFFFFFFFFFFFFFFFFFFFFFFFFFFFFFFFFFFFFFF AND PUSH32 0xFC155943A4837F932D2628406CE5E8F3F42DD6AB031108A2FCEC0C68D94005EE DUP6 DUP6 PUSH1 0x40 MLOAD PUSH2 0x2068 SWAP3 SWAP2 SWAP1 PUSH2 0x3A12 JUMP JUMPDEST PUSH1 0x40 MLOAD DUP1 SWAP2 SUB SWAP1 LOG3 POP POP POP POP JUMP JUMPDEST PUSH0 DUP1 SLOAD SWAP1 PUSH2 0x100 EXP SWAP1 DIV PUSH20 0xFFFFFFFFFFFFFFFFFFFFFFFFFFFFFFFFFFFFFFFF AND PUSH20 0xFFFFFFFFFFFFFFFFFFFFFFFFFFFFFFFFFFFFFFFF AND CALLER PUSH20 0xFFFFFFFFFFFFFFFFFFFFFFFFFFFFFFFFFFFFFFFF AND EQ PUSH2 0x2103 JUMPI PUSH1 0x40 MLOAD PUSH32 0x8C379A000000000000000000000000000000000000000000000000000000000 DUP2 MSTORE PUSH1 0x4 ADD PUSH2 0x20FA SWAP1 PUSH2 0x402B JUMP JUMPDEST PUSH1 0x40 MLOAD DUP1 SWAP2 SUB SWAP1 REVERT JUMPDEST DUP1 PUSH1 0x2 PUSH0 PUSH2 0x100 EXP DUP2 SLOAD DUP2 PUSH1 0xFF MUL NOT AND SWAP1 DUP4 ISZERO ISZERO MUL OR SWAP1 SSTORE POP POP JUMP JUMPDEST PUSH1 0x4 SLOAD DUP2 JUMP JUMPDEST PUSH1 0x9 PUSH1 0x20 MSTORE DUP2 PUSH0 MSTORE PUSH1 0x40 PUSH0 KECCAK256 DUP2 DUP2 SLOAD DUP2 LT PUSH2 0x213E JUMPI PUSH0 DUP1 REVERT JUMPDEST SWAP1 PUSH0 MSTORE PUSH1 0x20 PUSH0 KECCAK256 SWAP1 PUSH1 0x5 MUL ADD PUSH0 SWAP2 POP SWAP2 POP POP DUP1 PUSH0 ADD PUSH0 SWAP1 SLOAD SWAP1 PUSH2 0x100 EXP SWAP1 DIV PUSH20 0xFFFFFFFFFFFFFFFFFFFFFFFFFFFFFFFFFFFFFFFF AND SWAP1 DUP1 PUSH1 0x1 ADD SLOAD SWAP1 DUP1 PUSH1 0x2 ADD SLOAD SWAP1 DUP1 PUSH1 0x3 ADD DUP1 SLOAD PUSH2 0x218F SWAP1 PUSH2 0x335C JUMP JUMPDEST DUP1 PUSH1 0x1F ADD PUSH1 0x20 DUP1 SWAP2 DIV MUL PUSH1 0x20 ADD PUSH1 0x40 MLOAD SWAP1 DUP2 ADD PUSH1 0x40 MSTORE DUP1 SWAP3 SWAP2 SWAP1 DUP2 DUP2 MSTORE PUSH1 0x20 ADD DUP3 DUP1 SLOAD PUSH2 0x21BB SWAP1 PUSH2 0x335C JUMP JUMPDEST DUP1 ISZERO PUSH2 0x2206 JUMPI DUP1 PUSH1 0x1F LT PUSH2 0x21DD JUMPI PUSH2 0x100 DUP1 DUP4 SLOAD DIV MUL DUP4 MSTORE SWAP2 PUSH1 0x20 ADD SWAP2 PUSH2 0x2206 JUMP JUMPDEST DUP3 ADD SWAP2 SWAP1 PUSH0 MSTORE PUSH1 0x20 PUSH0 KECCAK256 SWAP1 JUMPDEST DUP2 SLOAD DUP2 MSTORE SWAP1 PUSH1 0x1 ADD SWAP1 PUSH1 0x20 ADD DUP1 DUP4 GT PUSH2 0x21E9 JUMPI DUP3 SWAP1 SUB PUSH1 0x1F AND DUP3 ADD SWAP2 JUMPDEST POP POP POP POP POP SWAP1 DUP1 PUSH1 0x4 ADD SLOAD SWAP1 POP DUP6 JUMP JUMPDEST PUSH1 0x3 SLOAD DUP2 JUMP JUMPDEST PUSH1 0xA DUP2 DUP2 SLOAD DUP2 LT PUSH2 0x222B JUMPI PUSH0 DUP1 REVERT JUMPDEST SWAP1 PUSH0 MSTORE PUSH1 0x20 PUSH0 KECCAK256 SWAP1 PUSH1 0x5 MUL ADD PUSH0 SWAP2 POP SWAP1 POP DUP1 PUSH0 ADD PUSH0 SWAP1 SLOAD SWAP1 PUSH2 0x100 EXP SWAP1 DIV PUSH20 0xFFFFFFFFFFFFFFFFFFFFFFFFFFFFFFFFFFFFFFFF AND SWAP1 DUP1 PUSH1 0x1 ADD SLOAD SWAP1 DUP1 PUSH1 0x2 ADD SLOAD SWAP1 DUP1 PUSH1 0x3 ADD DUP1 SLOAD PUSH2 0x227B SWAP1 PUSH2 0x335C JUMP JUMPDEST DUP1 PUSH1 0x1F ADD PUSH1 0x20 DUP1 SWAP2 DIV MUL PUSH1 0x20 ADD PUSH1 0x40 MLOAD SWAP1 DUP2 ADD PUSH1 0x40 MSTORE DUP1 SWAP3 SWAP2 SWAP1 DUP2 DUP2 MSTORE PUSH1 0x20 ADD DUP3 DUP1 SLOAD PUSH2 0x22A7 SWAP1 PUSH2 0x335C JUMP JUMPDEST DUP1 ISZERO PUSH2 0x22F2 JUMPI DUP1 PUSH1 0x1F LT PUSH2 0x22C9 JUMPI PUSH2 0x100 DUP1 DUP4 SLOAD DIV MUL DUP4 MSTORE SWAP2 PUSH1 0x20 ADD SWAP2 PUSH2 0x22F2 JUMP JUMPDEST DUP3 ADD SWAP2 SWAP1 PUSH0 MSTORE PUSH1 0x20 PUSH0 KECCAK256 SWAP1 JUMPDEST DUP2 SLOAD DUP2 MSTORE SWAP1 PUSH1 0x1 ADD SWAP1 PUSH1 0x20 ADD DUP1 DUP4 GT PUSH2 0x22D5 JUMPI DUP3 SWAP1 SUB PUSH1 0x1F AND DUP3 ADD SWAP2 JUMPDEST POP POP POP POP POP SWAP1 DUP1 PUSH1 0x4 ADD SLOAD SWAP1 POP DUP6 JUMP JUMPDEST PUSH0 DUP1 SLOAD SWAP1 PUSH2 0x100 EXP SWAP1 DIV PUSH20 0xFFFFFFFFFFFFFFFFFFFFFFFFFFFFFFFFFFFFFFFF AND PUSH20 0xFFFFFFFFFFFFFFFFFFFFFFFFFFFFFFFFFFFFFFFF AND CALLER PUSH20 0xFFFFFFFFFFFFFFFFFFFFFFFFFFFFFFFFFFFFFFFF AND EQ DUP1 PUSH2 0x2366 JUMPI POP PUSH1 0x2 PUSH0 SWAP1 SLOAD SWAP1 PUSH2 0x100 EXP SWAP1 DIV PUSH1 0xFF AND JUMPDEST PUSH2 0x23A5 JUMPI PUSH1 0x40 MLOAD PUSH32 0x8C379A000000000000000000000000000000000000000000000000000000000 DUP2 MSTORE PUSH1 0x4 ADD PUSH2 0x239C SWAP1 PUSH2 0x40DF JUMP JUMPDEST PUSH1 0x40 MLOAD DUP1 SWAP2 SUB SWAP1 REVERT JUMPDEST PUSH0 DUP4 MLOAD GT PUSH2 0x23E8 JUMPI PUSH1 0x40 MLOAD PUSH32 0x8C379A000000000000000000000000000000000000000000000000000000000 DUP2 MSTORE PUSH1 0x4 ADD PUSH2 0x23DF SWAP1 PUSH2 0x355A JUMP JUMPDEST PUSH1 0x40 MLOAD DUP1 SWAP2 SUB SWAP1 REVERT JUMPDEST PUSH0 DUP3 GT PUSH2 0x242A JUMPI PUSH1 0x40 MLOAD PUSH32 0x8C379A000000000000000000000000000000000000000000000000000000000 DUP2 MSTORE PUSH1 0x4 ADD PUSH2 0x2421 SWAP1 PUSH2 0x35E8 JUMP JUMPDEST PUSH1 0x40 MLOAD DUP1 SWAP2 SUB SWAP1 REVERT JUMPDEST PUSH0 DUP2 GT PUSH2 0x246C JUMPI PUSH1 0x40 MLOAD PUSH32 0x8C379A000000000000000000000000000000000000000000000000000000000 DUP2 MSTORE PUSH1 0x4 ADD PUSH2 0x2463 SWAP1 PUSH2 0x3676 JUMP JUMPDEST PUSH1 0x40 MLOAD DUP1 SWAP2 SUB SWAP1 REVERT JUMPDEST PUSH1 0x40 MLOAD DUP1 PUSH1 0xA0 ADD PUSH1 0x40 MSTORE DUP1 CALLER PUSH20 0xFFFFFFFFFFFFFFFFFFFFFFFFFFFFFFFFFFFFFFFF AND DUP2 MSTORE PUSH1 0x20 ADD DUP5 DUP2 MSTORE PUSH1 0x20 ADD DUP4 DUP2 MSTORE PUSH1 0x20 ADD DUP4 DUP2 MSTORE PUSH1 0x20 ADD DUP3 DUP2 MSTORE POP PUSH1 0x5 PUSH0 PUSH1 0x6 SLOAD DUP2 MSTORE PUSH1 0x20 ADD SWAP1 DUP2 MSTORE PUSH1 0x20 ADD PUSH0 KECCAK256 PUSH0 DUP3 ADD MLOAD DUP2 PUSH0 ADD PUSH0 PUSH2 0x100 EXP DUP2 SLOAD DUP2 PUSH20 0xFFFFFFFFFFFFFFFFFFFFFFFFFFFFFFFFFFFFFFFF MUL NOT AND SWAP1 DUP4 PUSH20 0xFFFFFFFFFFFFFFFFFFFFFFFFFFFFFFFFFFFFFFFF AND MUL OR SWAP1 SSTORE POP PUSH1 0x20 DUP3 ADD MLOAD DUP2 PUSH1 0x1 ADD SWAP1 DUP2 PUSH2 0x2515 SWAP2 SWAP1 PUSH2 0x3831 JUMP JUMPDEST POP PUSH1 0x40 DUP3 ADD MLOAD DUP2 PUSH1 0x2 ADD SSTORE PUSH1 0x60 DUP3 ADD MLOAD DUP2 PUSH1 0x3 ADD SSTORE PUSH1 0x80 DUP3 ADD MLOAD DUP2 PUSH1 0x4 ADD SSTORE SWAP1 POP POP PUSH32 0x50C6A8B423458D44F896828D57AF33000EAD07320BC572C2B3D856E7A954DF4B PUSH1 0x6 SLOAD DUP5 DUP5 DUP5 PUSH1 0x40 MLOAD PUSH2 0x256E SWAP5 SWAP4 SWAP3 SWAP2 SWAP1 PUSH2 0x3900 JUMP JUMPDEST PUSH1 0x40 MLOAD DUP1 SWAP2 SUB SWAP1 LOG1 PUSH1 0x6 PUSH0 DUP2 SLOAD DUP1 SWAP3 SWAP2 SWAP1 PUSH2 0x2588 SWAP1 PUSH2 0x40FD JUMP JUMPDEST SWAP2 SWAP1 POP SSTORE POP POP POP POP JUMP JUMPDEST PUSH1 0x60 PUSH1 0x9 PUSH0 DUP4 PUSH20 0xFFFFFFFFFFFFFFFFFFFFFFFFFFFFFFFFFFFFFFFF AND PUSH20 0xFFFFFFFFFFFFFFFFFFFFFFFFFFFFFFFFFFFFFFFF AND DUP2 MSTORE PUSH1 0x20 ADD SWAP1 DUP2 MSTORE PUSH1 0x20 ADD PUSH0 KECCAK256 DUP1 SLOAD DUP1 PUSH1 0x20 MUL PUSH1 0x20 ADD PUSH1 0x40 MLOAD SWAP1 DUP2 ADD PUSH1 0x40 MSTORE DUP1 SWAP3 SWAP2 SWAP1 DUP2 DUP2 MSTORE PUSH1 0x20 ADD PUSH0 SWAP1 JUMPDEST DUP3 DUP3 LT ISZERO PUSH2 0x2722 JUMPI DUP4 DUP3 SWAP1 PUSH0 MSTORE PUSH1 0x20 PUSH0 KECCAK256 SWAP1 PUSH1 0x5 MUL ADD PUSH1 0x40 MLOAD DUP1 PUSH1 0xA0 ADD PUSH1 0x40 MSTORE SWAP1 DUP2 PUSH0 DUP3 ADD PUSH0 SWAP1 SLOAD SWAP1 PUSH2 0x100 EXP SWAP1 DIV PUSH20 0xFFFFFFFFFFFFFFFFFFFFFFFFFFFFFFFFFFFFFFFF AND PUSH20 0xFFFFFFFFFFFFFFFFFFFFFFFFFFFFFFFFFFFFFFFF AND PUSH20 0xFFFFFFFFFFFFFFFFFFFFFFFFFFFFFFFFFFFFFFFF AND DUP2 MSTORE PUSH1 0x20 ADD PUSH1 0x1 DUP3 ADD SLOAD DUP2 MSTORE PUSH1 0x20 ADD PUSH1 0x2 DUP3 ADD SLOAD DUP2 MSTORE PUSH1 0x20 ADD PUSH1 0x3 DUP3 ADD DUP1 SLOAD PUSH2 0x2689 SWAP1 PUSH2 0x335C JUMP JUMPDEST DUP1 PUSH1 0x1F ADD PUSH1 0x20 DUP1 SWAP2 DIV MUL PUSH1 0x20 ADD PUSH1 0x40 MLOAD SWAP1 DUP2 ADD PUSH1 0x40 MSTORE DUP1 SWAP3 SWAP2 SWAP1 DUP2 DUP2 MSTORE PUSH1 0x20 ADD DUP3 DUP1 SLOAD PUSH2 0x26B5 SWAP1 PUSH2 0x335C JUMP JUMPDEST DUP1 ISZERO PUSH2 0x2700 JUMPI DUP1 PUSH1 0x1F LT PUSH2 0x26D7 JUMPI PUSH2 0x100 DUP1 DUP4 SLOAD DIV MUL DUP4 MSTORE SWAP2 PUSH1 0x20 ADD SWAP2 PUSH2 0x2700 JUMP JUMPDEST DUP3 ADD SWAP2 SWAP1 PUSH0 MSTORE PUSH1 0x20 PUSH0 KECCAK256 SWAP1 JUMPDEST DUP2 SLOAD DUP2 MSTORE SWAP1 PUSH1 0x1 ADD SWAP1 PUSH1 0x20 ADD DUP1 DUP4 GT PUSH2 0x26E3 JUMPI DUP3 SWAP1 SUB PUSH1 0x1F AND DUP3 ADD SWAP2 JUMPDEST POP POP POP POP POP DUP2 MSTORE PUSH1 0x20 ADD PUSH1 0x4 DUP3 ADD SLOAD DUP2 MSTORE POP POP DUP2 MSTORE PUSH1 0x20 ADD SWAP1 PUSH1 0x1 ADD SWAP1 PUSH2 0x25F0 JUMP JUMPDEST POP POP POP POP SWAP1 POP SWAP2 SWAP1 POP JUMP JUMPDEST PUSH1 0xC SLOAD DUP2 JUMP JUMPDEST PUSH0 PUSH1 0x8 PUSH0 DUP6 PUSH20 0xFFFFFFFFFFFFFFFFFFFFFFFFFFFFFFFFFFFFFFFF AND PUSH20 0xFFFFFFFFFFFFFFFFFFFFFFFFFFFFFFFFFFFFFFFF AND DUP2 MSTORE PUSH1 0x20 ADD SWAP1 DUP2 MSTORE PUSH1 0x20 ADD PUSH0 KECCAK256 SWAP1 POP PUSH0 DUP4 SWAP1 POP DUP1 DUP3 PUSH0 ADD PUSH0 DUP3 DUP3 SLOAD PUSH2 0x2789 SWAP2 SWAP1 PUSH2 0x3C96 JUMP JUMPDEST SWAP3 POP POP DUP2 SWAP1 SSTORE POP DUP2 PUSH0 ADD SLOAD PUSH1 0xB PUSH0 DUP8 PUSH20 0xFFFFFFFFFFFFFFFFFFFFFFFFFFFFFFFFFFFFFFFF AND PUSH20 0xFFFFFFFFFFFFFFFFFFFFFFFFFFFFFFFFFFFFFFFF AND DUP2 MSTORE PUSH1 0x20 ADD SWAP1 DUP2 MSTORE PUSH1 0x20 ADD PUSH0 KECCAK256 DUP2 SWAP1 SSTORE POP PUSH1 0xC SLOAD DUP3 PUSH0 ADD SLOAD LT PUSH2 0x282D JUMPI PUSH1 0x40 MLOAD DUP1 PUSH1 0x40 ADD PUSH1 0x40 MSTORE DUP1 PUSH1 0xF DUP2 MSTORE PUSH1 0x20 ADD PUSH32 0x436172626F6E204368616D70696F6E0000000000000000000000000000000000 DUP2 MSTORE POP DUP3 PUSH1 0x1 ADD SWAP1 DUP2 PUSH2 0x2827 SWAP2 SWAP1 PUSH2 0x3831 JUMP JUMPDEST POP PUSH2 0x28CE JUMP JUMPDEST PUSH1 0xD SLOAD DUP3 PUSH0 ADD SLOAD LT PUSH2 0x2885 JUMPI PUSH1 0x40 MLOAD DUP1 PUSH1 0x40 ADD PUSH1 0x40 MSTORE DUP1 PUSH1 0x12 DUP2 MSTORE PUSH1 0x20 ADD PUSH32 0x436172626F6E20436F6E7472696275746F720000000000000000000000000000 DUP2 MSTORE POP DUP3 PUSH1 0x1 ADD SWAP1 DUP2 PUSH2 0x287F SWAP2 SWAP1 PUSH2 0x3831 JUMP JUMPDEST POP PUSH2 0x28CD JUMP JUMPDEST PUSH1 0x40 MLOAD DUP1 PUSH1 0x40 ADD PUSH1 0x40 MSTORE DUP1 PUSH1 0x6 DUP2 MSTORE PUSH1 0x20 ADD PUSH32 0x4E6F766963650000000000000000000000000000000000000000000000000000 DUP2 MSTORE POP DUP3 PUSH1 0x1 ADD SWAP1 DUP2 PUSH2 0x28CB SWAP2 SWAP1 PUSH2 0x3831 JUMP JUMPDEST POP JUMPDEST JUMPDEST DUP5 PUSH20 0xFFFFFFFFFFFFFFFFFFFFFFFFFFFFFFFFFFFFFFFF AND PUSH32 0x7832B7EEBE8DE153ACECF46B96E9E04C64C883545A6285FCC564D16AE2D73414 DUP4 PUSH0 ADD SLOAD DUP5 PUSH1 0x1 ADD PUSH1 0x40 MLOAD PUSH2 0x291C SWAP3 SWAP2 SWAP1 PUSH2 0x41C5 JUMP JUMPDEST PUSH1 0x40 MLOAD DUP1 SWAP2 SUB SWAP1 LOG2 POP POP POP POP POP JUMP JUMPDEST PUSH1 0x40 MLOAD DUP1 PUSH1 0x40 ADD PUSH1 0x40 MSTORE DUP1 PUSH0 DUP2 MSTORE PUSH1 0x20 ADD PUSH1 0x60 DUP2 MSTORE POP SWAP1 JUMP JUMPDEST PUSH0 PUSH1 0x40 MLOAD SWAP1 POP SWAP1 JUMP JUMPDEST PUSH0 DUP1 REVERT JUMPDEST PUSH0 DUP1 REVERT JUMPDEST PUSH0 PUSH20 0xFFFFFFFFFFFFFFFFFFFFFFFFFFFFFFFFFFFFFFFF DUP3 AND SWAP1 POP SWAP2 SWAP1 POP JUMP JUMPDEST PUSH0 PUSH2 0x297E DUP3 PUSH2 0x2955 JUMP JUMPDEST SWAP1 POP SWAP2 SWAP1 POP JUMP JUMPDEST PUSH2 0x298E DUP2 PUSH2 0x2974 JUMP JUMPDEST DUP2 EQ PUSH2 0x2998 JUMPI PUSH0 DUP1 REVERT JUMPDEST POP JUMP JUMPDEST PUSH0 DUP2 CALLDATALOAD SWAP1 POP PUSH2 0x29A9 DUP2 PUSH2 0x2985 JUMP JUMPDEST SWAP3 SWAP2 POP POP JUMP JUMPDEST PUSH0 PUSH1 0x20 DUP3 DUP5 SUB SLT ISZERO PUSH2 0x29C4 JUMPI PUSH2 0x29C3 PUSH2 0x294D JUMP JUMPDEST JUMPDEST PUSH0 PUSH2 0x29D1 DUP5 DUP3 DUP6 ADD PUSH2 0x299B JUMP JUMPDEST SWAP2 POP POP SWAP3 SWAP2 POP POP JUMP JUMPDEST PUSH0 DUP2 SWAP1 POP SWAP2 SWAP1 POP JUMP JUMPDEST PUSH2 0x29EC DUP2 PUSH2 0x29DA JUMP JUMPDEST DUP3 MSTORE POP POP JUMP JUMPDEST PUSH0 DUP2 MLOAD SWAP1 POP SWAP2 SWAP1 POP JUMP JUMPDEST PUSH0 DUP3 DUP3 MSTORE PUSH1 0x20 DUP3 ADD SWAP1 POP SWAP3 SWAP2 POP POP JUMP JUMPDEST DUP3 DUP2 DUP4 MCOPY PUSH0 DUP4 DUP4 ADD MSTORE POP POP POP JUMP JUMPDEST PUSH0 PUSH1 0x1F NOT PUSH1 0x1F DUP4 ADD AND SWAP1 POP SWAP2 SWAP1 POP JUMP JUMPDEST PUSH0 PUSH2 0x2A34 DUP3 PUSH2 0x29F2 JUMP JUMPDEST PUSH2 0x2A3E DUP2 DUP6 PUSH2 0x29FC JUMP JUMPDEST SWAP4 POP PUSH2 0x2A4E DUP2 DUP6 PUSH1 0x20 DUP7 ADD PUSH2 0x2A0C JUMP JUMPDEST PUSH2 0x2A57 DUP2 PUSH2 0x2A1A JUMP JUMPDEST DUP5 ADD SWAP2 POP POP SWAP3 SWAP2 POP POP JUMP JUMPDEST PUSH0 PUSH1 0x40 DUP3 ADD SWAP1 POP PUSH2 0x2A75 PUSH0 DUP4 ADD DUP6 PUSH2 0x29E3 JUMP JUMPDEST DUP2 DUP2 SUB PUSH1 0x20 DUP4 ADD MSTORE PUSH2 0x2A87 DUP2 DUP5 PUSH2 0x2A2A JUMP JUMPDEST SWAP1 POP SWAP4 SWAP3 POP POP POP JUMP JUMPDEST PUSH2 0x2A99 DUP2 PUSH2 0x29DA JUMP JUMPDEST DUP3 MSTORE POP POP JUMP JUMPDEST PUSH0 DUP3 DUP3 MSTORE PUSH1 0x20 DUP3 ADD SWAP1 POP SWAP3 SWAP2 POP POP JUMP JUMPDEST PUSH0 PUSH2 0x2AB9 DUP3 PUSH2 0x29F2 JUMP JUMPDEST PUSH2 0x2AC3 DUP2 DUP6 PUSH2 0x2A9F JUMP JUMPDEST SWAP4 POP PUSH2 0x2AD3 DUP2 DUP6 PUSH1 0x20 DUP7 ADD PUSH2 0x2A0C JUMP JUMPDEST PUSH2 0x2ADC DUP2 PUSH2 0x2A1A JUMP JUMPDEST DUP5 ADD SWAP2 POP POP SWAP3 SWAP2 POP POP JUMP JUMPDEST PUSH0 PUSH1 0x40 DUP4 ADD PUSH0 DUP4 ADD MLOAD PUSH2 0x2AFC PUSH0 DUP7 ADD DUP3 PUSH2 0x2A90 JUMP JUMPDEST POP PUSH1 0x20 DUP4 ADD MLOAD DUP5 DUP3 SUB PUSH1 0x20 DUP7 ADD MSTORE PUSH2 0x2B14 DUP3 DUP3 PUSH2 0x2AAF JUMP JUMPDEST SWAP2 POP POP DUP1 SWAP2 POP POP SWAP3 SWAP2 POP POP JUMP JUMPDEST PUSH0 PUSH1 0x20 DUP3 ADD SWAP1 POP DUP2 DUP2 SUB PUSH0 DUP4 ADD MSTORE PUSH2 0x2B39 DUP2 DUP5 PUSH2 0x2AE7 JUMP JUMPDEST SWAP1 POP SWAP3 SWAP2 POP POP JUMP JUMPDEST PUSH2 0x2B4A DUP2 PUSH2 0x29DA JUMP JUMPDEST DUP2 EQ PUSH2 0x2B54 JUMPI PUSH0 DUP1 REVERT JUMPDEST POP JUMP JUMPDEST PUSH0 DUP2 CALLDATALOAD SWAP1 POP PUSH2 0x2B65 DUP2 PUSH2 0x2B41 JUMP JUMPDEST SWAP3 SWAP2 POP POP JUMP JUMPDEST PUSH0 PUSH1 0x20 DUP3 DUP5 SUB SLT ISZERO PUSH2 0x2B80 JUMPI PUSH2 0x2B7F PUSH2 0x294D JUMP JUMPDEST JUMPDEST PUSH0 PUSH2 0x2B8D DUP5 DUP3 DUP6 ADD PUSH2 0x2B57 JUMP JUMPDEST SWAP2 POP POP SWAP3 SWAP2 POP POP JUMP JUMPDEST PUSH2 0x2B9F DUP2 PUSH2 0x2974 JUMP JUMPDEST DUP3 MSTORE POP POP JUMP JUMPDEST PUSH0 PUSH1 0xA0 DUP3 ADD SWAP1 POP PUSH2 0x2BB8 PUSH0 DUP4 ADD DUP9 PUSH2 0x2B96 JUMP JUMPDEST DUP2 DUP2 SUB PUSH1 0x20 DUP4 ADD MSTORE PUSH2 0x2BCA DUP2 DUP8 PUSH2 0x2A2A JUMP JUMPDEST SWAP1 POP PUSH2 0x2BD9 PUSH1 0x40 DUP4 ADD DUP7 PUSH2 0x29E3 JUMP JUMPDEST PUSH2 0x2BE6 PUSH1 0x60 DUP4 ADD DUP6 PUSH2 0x29E3 JUMP JUMPDEST PUSH2 0x2BF3 PUSH1 0x80 DUP4 ADD DUP5 PUSH2 0x29E3 JUMP JUMPDEST SWAP7 SWAP6 POP POP POP POP POP POP JUMP JUMPDEST PUSH0 DUP1 PUSH1 0x40 DUP4 DUP6 SUB SLT ISZERO PUSH2 0x2C13 JUMPI PUSH2 0x2C12 PUSH2 0x294D JUMP JUMPDEST JUMPDEST PUSH0 PUSH2 0x2C20 DUP6 DUP3 DUP7 ADD PUSH2 0x299B JUMP JUMPDEST SWAP3 POP POP PUSH1 0x20 PUSH2 0x2C31 DUP6 DUP3 DUP7 ADD PUSH2 0x2B57 JUMP JUMPDEST SWAP2 POP POP SWAP3 POP SWAP3 SWAP1 POP JUMP JUMPDEST PUSH0 PUSH1 0x20 DUP3 ADD SWAP1 POP PUSH2 0x2C4E PUSH0 DUP4 ADD DUP5 PUSH2 0x29E3 JUMP JUMPDEST SWAP3 SWAP2 POP POP JUMP JUMPDEST PUSH0 DUP2 MLOAD SWAP1 POP SWAP2 SWAP1 POP JUMP JUMPDEST PUSH0 DUP3 DUP3 MSTORE PUSH1 0x20 DUP3 ADD SWAP1 POP SWAP3 SWAP2 POP POP JUMP JUMPDEST PUSH0 DUP2 SWAP1 POP PUSH1 0x20 DUP3 ADD SWAP1 POP SWAP2 SWAP1 POP JUMP JUMPDEST PUSH2 0x2C86 DUP2 PUSH2 0x2974 JUMP JUMPDEST DUP3 MSTORE POP POP JUMP JUMPDEST PUSH0 PUSH1 0xA0 DUP4 ADD PUSH0 DUP4 ADD MLOAD PUSH2 0x2CA1 PUSH0 DUP7 ADD DUP3 PUSH2 0x2C7D JUMP JUMPDEST POP PUSH1 0x20 DUP4 ADD MLOAD PUSH2 0x2CB4 PUSH1 0x20 DUP7 ADD DUP3 PUSH2 0x2A90 JUMP JUMPDEST POP PUSH1 0x40 DUP4 ADD MLOAD PUSH2 0x2CC7 PUSH1 0x40 DUP7 ADD DUP3 PUSH2 0x2A90 JUMP JUMPDEST POP PUSH1 0x60 DUP4 ADD MLOAD DUP5 DUP3 SUB PUSH1 0x60 DUP7 ADD MSTORE PUSH2 0x2CDF DUP3 DUP3 PUSH2 0x2AAF JUMP JUMPDEST SWAP2 POP POP PUSH1 0x80 DUP4 ADD MLOAD PUSH2 0x2CF4 PUSH1 0x80 DUP7 ADD DUP3 PUSH2 0x2A90 JUMP JUMPDEST POP DUP1 SWAP2 POP POP SWAP3 SWAP2 POP POP JUMP JUMPDEST PUSH0 PUSH2 0x2D0A DUP4 DUP4 PUSH2 0x2C8C JUMP JUMPDEST SWAP1 POP SWAP3 SWAP2 POP POP JUMP JUMPDEST PUSH0 PUSH1 0x20 DUP3 ADD SWAP1 POP SWAP2 SWAP1 POP JUMP JUMPDEST PUSH0 PUSH2 0x2D28 DUP3 PUSH2 0x2C54 JUMP JUMPDEST PUSH2 0x2D32 DUP2 DUP6 PUSH2 0x2C5E JUMP JUMPDEST SWAP4 POP DUP4 PUSH1 0x20 DUP3 MUL DUP6 ADD PUSH2 0x2D44 DUP6 PUSH2 0x2C6E JUMP JUMPDEST DUP1 PUSH0 JUMPDEST DUP6 DUP2 LT ISZERO PUSH2 0x2D7F JUMPI DUP5 DUP5 SUB DUP10 MSTORE DUP2 MLOAD PUSH2 0x2D60 DUP6 DUP3 PUSH2 0x2CFF JUMP JUMPDEST SWAP5 POP PUSH2 0x2D6B DUP4 PUSH2 0x2D12 JUMP JUMPDEST SWAP3 POP PUSH1 0x20 DUP11 ADD SWAP10 POP POP PUSH1 0x1 DUP2 ADD SWAP1 POP PUSH2 0x2D47 JUMP JUMPDEST POP DUP3 SWAP8 POP DUP8 SWAP6 POP POP POP POP POP POP SWAP3 SWAP2 POP POP JUMP JUMPDEST PUSH0 PUSH1 0x20 DUP3 ADD SWAP1 POP DUP2 DUP2 SUB PUSH0 DUP4 ADD MSTORE PUSH2 0x2DA9 DUP2 DUP5 PUSH2 0x2D1E JUMP JUMPDEST SWAP1 POP SWAP3 SWAP2 POP POP JUMP JUMPDEST PUSH0 DUP2 ISZERO ISZERO SWAP1 POP SWAP2 SWAP1 POP JUMP JUMPDEST PUSH2 0x2DC5 DUP2 PUSH2 0x2DB1 JUMP JUMPDEST DUP3 MSTORE POP POP JUMP JUMPDEST PUSH0 PUSH1 0x20 DUP3 ADD SWAP1 POP PUSH2 0x2DDE PUSH0 DUP4 ADD DUP5 PUSH2 0x2DBC JUMP JUMPDEST SWAP3 SWAP2 POP POP JUMP JUMPDEST PUSH0 DUP1 REVERT JUMPDEST PUSH0 DUP1 REVERT JUMPDEST PUSH32 0x4E487B7100000000000000000000000000000000000000000000000000000000 PUSH0 MSTORE PUSH1 0x41 PUSH1 0x4 MSTORE PUSH1 0x24 PUSH0 REVERT JUMPDEST PUSH2 0x2E22 DUP3 PUSH2 0x2A1A JUMP JUMPDEST DUP2 ADD DUP2 DUP2 LT PUSH8 0xFFFFFFFFFFFFFFFF DUP3 GT OR ISZERO PUSH2 0x2E41 JUMPI PUSH2 0x2E40 PUSH2 0x2DEC JUMP JUMPDEST JUMPDEST DUP1 PUSH1 0x40 MSTORE POP POP POP JUMP JUMPDEST PUSH0 PUSH2 0x2E53 PUSH2 0x2944 JUMP JUMPDEST SWAP1 POP PUSH2 0x2E5F DUP3 DUP3 PUSH2 0x2E19 JUMP JUMPDEST SWAP2 SWAP1 POP JUMP JUMPDEST PUSH0 PUSH8 0xFFFFFFFFFFFFFFFF DUP3 GT ISZERO PUSH2 0x2E7E JUMPI PUSH2 0x2E7D PUSH2 0x2DEC JUMP JUMPDEST JUMPDEST PUSH2 0x2E87 DUP3 PUSH2 0x2A1A JUMP JUMPDEST SWAP1 POP PUSH1 0x20 DUP2 ADD SWAP1 POP SWAP2 SWAP1 POP JUMP JUMPDEST DUP3 DUP2 DUP4 CALLDATACOPY PUSH0 DUP4 DUP4 ADD MSTORE POP POP POP JUMP JUMPDEST PUSH0 PUSH2 0x2EB4 PUSH2 0x2EAF DUP5 PUSH2 0x2E64 JUMP JUMPDEST PUSH2 0x2E4A JUMP JUMPDEST SWAP1 POP DUP3 DUP2 MSTORE PUSH1 0x20 DUP2 ADD DUP5 DUP5 DUP5 ADD GT ISZERO PUSH2 0x2ED0 JUMPI PUSH2 0x2ECF PUSH2 0x2DE8 JUMP JUMPDEST JUMPDEST PUSH2 0x2EDB DUP5 DUP3 DUP6 PUSH2 0x2E94 JUMP JUMPDEST POP SWAP4 SWAP3 POP POP POP JUMP JUMPDEST PUSH0 DUP3 PUSH1 0x1F DUP4 ADD SLT PUSH2 0x2EF7 JUMPI PUSH2 0x2EF6 PUSH2 0x2DE4 JUMP JUMPDEST JUMPDEST DUP2 CALLDATALOAD PUSH2 0x2F07 DUP5 DUP3 PUSH1 0x20 DUP7 ADD PUSH2 0x2EA2 JUMP JUMPDEST SWAP2 POP POP SWAP3 SWAP2 POP POP JUMP JUMPDEST PUSH0 DUP1 PUSH0 DUP1 PUSH1 0x80 DUP6 DUP8 SUB SLT ISZERO PUSH2 0x2F28 JUMPI PUSH2 0x2F27 PUSH2 0x294D JUMP JUMPDEST JUMPDEST PUSH0 PUSH2 0x2F35 DUP8 DUP3 DUP9 ADD PUSH2 0x2B57 JUMP JUMPDEST SWAP5 POP POP PUSH1 0x20 DUP6 ADD CALLDATALOAD PUSH8 0xFFFFFFFFFFFFFFFF DUP2 GT ISZERO PUSH2 0x2F56 JUMPI PUSH2 0x2F55 PUSH2 0x2951 JUMP JUMPDEST JUMPDEST PUSH2 0x2F62 DUP8 DUP3 DUP9 ADD PUSH2 0x2EE3 JUMP JUMPDEST SWAP4 POP POP PUSH1 0x40 PUSH2 0x2F73 DUP8 DUP3 DUP9 ADD PUSH2 0x2B57 JUMP JUMPDEST SWAP3 POP POP PUSH1 0x60 PUSH2 0x2F84 DUP8 DUP3 DUP9 ADD PUSH2 0x2B57 JUMP JUMPDEST SWAP2 POP POP SWAP3 SWAP6 SWAP2 SWAP5 POP SWAP3 POP JUMP JUMPDEST PUSH0 DUP1 PUSH1 0x40 DUP4 DUP6 SUB SLT ISZERO PUSH2 0x2FA6 JUMPI PUSH2 0x2FA5 PUSH2 0x294D JUMP JUMPDEST JUMPDEST PUSH0 PUSH2 0x2FB3 DUP6 DUP3 DUP7 ADD PUSH2 0x2B57 JUMP JUMPDEST SWAP3 POP POP PUSH1 0x20 PUSH2 0x2FC4 DUP6 DUP3 DUP7 ADD PUSH2 0x2B57 JUMP JUMPDEST SWAP2 POP POP SWAP3 POP SWAP3 SWAP1 POP JUMP JUMPDEST PUSH0 DUP1 PUSH1 0x40 DUP4 DUP6 SUB SLT ISZERO PUSH2 0x2FE4 JUMPI PUSH2 0x2FE3 PUSH2 0x294D JUMP JUMPDEST JUMPDEST PUSH0 DUP4 ADD CALLDATALOAD PUSH8 0xFFFFFFFFFFFFFFFF DUP2 GT ISZERO PUSH2 0x3001 JUMPI PUSH2 0x3000 PUSH2 0x2951 JUMP JUMPDEST JUMPDEST PUSH2 0x300D DUP6 DUP3 DUP7 ADD PUSH2 0x2EE3 JUMP JUMPDEST SWAP3 POP POP PUSH1 0x20 PUSH2 0x301E DUP6 DUP3 DUP7 ADD PUSH2 0x2B57 JUMP JUMPDEST SWAP2 POP POP SWAP3 POP SWAP3 SWAP1 POP JUMP JUMPDEST PUSH0 DUP2 MLOAD SWAP1 POP SWAP2 SWAP1 POP JUMP JUMPDEST PUSH0 DUP3 DUP3 MSTORE PUSH1 0x20 DUP3 ADD SWAP1 POP SWAP3 SWAP2 POP POP JUMP JUMPDEST PUSH0 DUP2 SWAP1 POP PUSH1 0x20 DUP3 ADD SWAP1 POP SWAP2 SWAP1 POP JUMP JUMPDEST PUSH0 PUSH2 0x305C DUP4 DUP4 PUSH2 0x2C7D JUMP JUMPDEST PUSH1 0x20 DUP4 ADD SWAP1 POP SWAP3 SWAP2 POP POP JUMP JUMPDEST PUSH0 PUSH1 0x20 DUP3 ADD SWAP1 POP SWAP2 SWAP1 POP JUMP JUMPDEST PUSH0 PUSH2 0x307E DUP3 PUSH2 0x3028 JUMP JUMPDEST PUSH2 0x3088 DUP2 DUP6 PUSH2 0x3032 JUMP JUMPDEST SWAP4 POP PUSH2 0x3093 DUP4 PUSH2 0x3042 JUMP JUMPDEST DUP1 PUSH0 JUMPDEST DUP4 DUP2 LT ISZERO PUSH2 0x30C3 JUMPI DUP2 MLOAD PUSH2 0x30AA DUP9 DUP3 PUSH2 0x3051 JUMP JUMPDEST SWAP8 POP PUSH2 0x30B5 DUP4 PUSH2 0x3068 JUMP JUMPDEST SWAP3 POP POP PUSH1 0x1 DUP2 ADD SWAP1 POP PUSH2 0x3096 JUMP JUMPDEST POP DUP6 SWAP4 POP POP POP POP SWAP3 SWAP2 POP POP JUMP JUMPDEST PUSH0 DUP2 MLOAD SWAP1 POP SWAP2 SWAP1 POP JUMP JUMPDEST PUSH0 DUP3 DUP3 MSTORE PUSH1 0x20 DUP3 ADD SWAP1 POP SWAP3 SWAP2 POP POP JUMP JUMPDEST PUSH0 DUP2 SWAP1 POP PUSH1 0x20 DUP3 ADD SWAP1 POP SWAP2 SWAP1 POP JUMP JUMPDEST PUSH0 PUSH2 0x3104 DUP4 DUP4 PUSH2 0x2A90 JUMP JUMPDEST PUSH1 0x20 DUP4 ADD SWAP1 POP SWAP3 SWAP2 POP POP JUMP JUMPDEST PUSH0 PUSH1 0x20 DUP3 ADD SWAP1 POP SWAP2 SWAP1 POP JUMP JUMPDEST PUSH0 PUSH2 0x3126 DUP3 PUSH2 0x30D0 JUMP JUMPDEST PUSH2 0x3130 DUP2 DUP6 PUSH2 0x30DA JUMP JUMPDEST SWAP4 POP PUSH2 0x313B DUP4 PUSH2 0x30EA JUMP JUMPDEST DUP1 PUSH0 JUMPDEST DUP4 DUP2 LT ISZERO PUSH2 0x316B JUMPI DUP2 MLOAD PUSH2 0x3152 DUP9 DUP3 PUSH2 0x30F9 JUMP JUMPDEST SWAP8 POP PUSH2 0x315D DUP4 PUSH2 0x3110 JUMP JUMPDEST SWAP3 POP POP PUSH1 0x1 DUP2 ADD SWAP1 POP PUSH2 0x313E JUMP JUMPDEST POP DUP6 SWAP4 POP POP POP POP SWAP3 SWAP2 POP POP JUMP JUMPDEST PUSH0 PUSH1 0x40 DUP3 ADD SWAP1 POP DUP2 DUP2 SUB PUSH0 DUP4 ADD MSTORE PUSH2 0x3190 DUP2 DUP6 PUSH2 0x3074 JUMP JUMPDEST SWAP1 POP DUP2 DUP2 SUB PUSH1 0x20 DUP4 ADD MSTORE PUSH2 0x31A4 DUP2 DUP5 PUSH2 0x311C JUMP JUMPDEST SWAP1 POP SWAP4 SWAP3 POP POP POP JUMP JUMPDEST PUSH0 PUSH1 0x20 DUP3 ADD SWAP1 POP PUSH2 0x31C0 PUSH0 DUP4 ADD DUP5 PUSH2 0x2B96 JUMP JUMPDEST SWAP3 SWAP2 POP POP JUMP JUMPDEST PUSH0 DUP1 PUSH0 PUSH1 0x60 DUP5 DUP7 SUB SLT ISZERO PUSH2 0x31DD JUMPI PUSH2 0x31DC PUSH2 0x294D JUMP JUMPDEST JUMPDEST PUSH0 PUSH2 0x31EA DUP7 DUP3 DUP8 ADD PUSH2 0x299B JUMP JUMPDEST SWAP4 POP POP PUSH1 0x20 PUSH2 0x31FB DUP7 DUP3 DUP8 ADD PUSH2 0x2B57 JUMP JUMPDEST SWAP3 POP POP PUSH1 0x40 PUSH2 0x320C DUP7 DUP3 DUP8 ADD PUSH2 0x2B57 JUMP JUMPDEST SWAP2 POP POP SWAP3 POP SWAP3 POP SWAP3 JUMP JUMPDEST PUSH2 0x321F DUP2 PUSH2 0x2DB1 JUMP JUMPDEST DUP2 EQ PUSH2 0x3229 JUMPI PUSH0 DUP1 REVERT JUMPDEST POP JUMP JUMPDEST PUSH0 DUP2 CALLDATALOAD SWAP1 POP PUSH2 0x323A DUP2 PUSH2 0x3216 JUMP JUMPDEST SWAP3 SWAP2 POP POP JUMP JUMPDEST PUSH0 PUSH1 0x20 DUP3 DUP5 SUB SLT ISZERO PUSH2 0x3255 JUMPI PUSH2 0x3254 PUSH2 0x294D JUMP JUMPDEST JUMPDEST PUSH0 PUSH2 0x3262 DUP5 DUP3 DUP6 ADD PUSH2 0x322C JUMP JUMPDEST SWAP2 POP POP SWAP3 SWAP2 POP POP JUMP JUMPDEST PUSH0 PUSH1 0xA0 DUP3 ADD SWAP1 POP PUSH2 0x327E PUSH0 DUP4 ADD DUP9 PUSH2 0x2B96 JUMP JUMPDEST PUSH2 0x328B PUSH1 0x20 DUP4 ADD DUP8 PUSH2 0x29E3 JUMP JUMPDEST PUSH2 0x3298 PUSH1 0x40 DUP4 ADD DUP7 PUSH2 0x29E3 JUMP JUMPDEST DUP2 DUP2 SUB PUSH1 0x60 DUP4 ADD MSTORE PUSH2 0x32AA DUP2 DUP6 PUSH2 0x2A2A JUMP JUMPDEST SWAP1 POP PUSH2 0x32B9 PUSH1 0x80 DUP4 ADD DUP5 PUSH2 0x29E3 JUMP JUMPDEST SWAP7 SWAP6 POP POP POP POP POP POP JUMP JUMPDEST PUSH0 DUP1 PUSH0 PUSH1 0x60 DUP5 DUP7 SUB SLT ISZERO PUSH2 0x32DA JUMPI PUSH2 0x32D9 PUSH2 0x294D JUMP JUMPDEST JUMPDEST PUSH0 DUP5 ADD CALLDATALOAD PUSH8 0xFFFFFFFFFFFFFFFF DUP2 GT ISZERO PUSH2 0x32F7 JUMPI PUSH2 0x32F6 PUSH2 0x2951 JUMP JUMPDEST JUMPDEST PUSH2 0x3303 DUP7 DUP3 DUP8 ADD PUSH2 0x2EE3 JUMP JUMPDEST SWAP4 POP POP PUSH1 0x20 PUSH2 0x3314 DUP7 DUP3 DUP8 ADD PUSH2 0x2B57 JUMP JUMPDEST SWAP3 POP POP PUSH1 0x40 PUSH2 0x3325 DUP7 DUP3 DUP8 ADD PUSH2 0x2B57 JUMP JUMPDEST SWAP2 POP POP SWAP3 POP SWAP3 POP SWAP3 JUMP JUMPDEST PUSH32 0x4E487B7100000000000000000000000000000000000000000000000000000000 PUSH0 MSTORE PUSH1 0x22 PUSH1 0x4 MSTORE PUSH1 0x24 PUSH0 REVERT JUMPDEST PUSH0 PUSH1 0x2 DUP3 DIV SWAP1 POP PUSH1 0x1 DUP3 AND DUP1 PUSH2 0x3373 JUMPI PUSH1 0x7F DUP3 AND SWAP2 POP JUMPDEST PUSH1 0x20 DUP3 LT DUP2 SUB PUSH2 0x3386 JUMPI PUSH2 0x3385 PUSH2 0x332F JUMP JUMPDEST JUMPDEST POP SWAP2 SWAP1 POP JUMP JUMPDEST PUSH32 0x4F6E6C7920746865206F776E65722063616E20736574206D696E696D756D2076 PUSH0 DUP3 ADD MSTORE PUSH32 0x6F74657300000000000000000000000000000000000000000000000000000000 PUSH1 0x20 DUP3 ADD MSTORE POP JUMP JUMPDEST PUSH0 PUSH2 0x33E6 PUSH1 0x24 DUP4 PUSH2 0x29FC JUMP JUMPDEST SWAP2 POP PUSH2 0x33F1 DUP3 PUSH2 0x338C JUMP JUMPDEST PUSH1 0x40 DUP3 ADD SWAP1 POP SWAP2 SWAP1 POP JUMP JUMPDEST PUSH0 PUSH1 0x20 DUP3 ADD SWAP1 POP DUP2 DUP2 SUB PUSH0 DUP4 ADD MSTORE PUSH2 0x3413 DUP2 PUSH2 0x33DA JUMP JUMPDEST SWAP1 POP SWAP2 SWAP1 POP JUMP JUMPDEST PUSH32 0x496E76616C69642070726F6A6563742049440000000000000000000000000000 PUSH0 DUP3 ADD MSTORE POP JUMP JUMPDEST PUSH0 PUSH2 0x344E PUSH1 0x12 DUP4 PUSH2 0x29FC JUMP JUMPDEST SWAP2 POP PUSH2 0x3459 DUP3 PUSH2 0x341A JUMP JUMPDEST PUSH1 0x20 DUP3 ADD SWAP1 POP SWAP2 SWAP1 POP JUMP JUMPDEST PUSH0 PUSH1 0x20 DUP3 ADD SWAP1 POP DUP2 DUP2 SUB PUSH0 DUP4 ADD MSTORE PUSH2 0x347B DUP2 PUSH2 0x3442 JUMP JUMPDEST SWAP1 POP SWAP2 SWAP1 POP JUMP JUMPDEST PUSH32 0x4F6E6C79207468652070726F6A656374206F776E65722063616E207570646174 PUSH0 DUP3 ADD MSTORE PUSH32 0x65207468652070726F6A65637400000000000000000000000000000000000000 PUSH1 0x20 DUP3 ADD MSTORE POP JUMP JUMPDEST PUSH0 PUSH2 0x34DC PUSH1 0x2D DUP4 PUSH2 0x29FC JUMP JUMPDEST SWAP2 POP PUSH2 0x34E7 DUP3 PUSH2 0x3482 JUMP JUMPDEST PUSH1 0x40 DUP3 ADD SWAP1 POP SWAP2 SWAP1 POP JUMP JUMPDEST PUSH0 PUSH1 0x20 DUP3 ADD SWAP1 POP DUP2 DUP2 SUB PUSH0 DUP4 ADD MSTORE PUSH2 0x3509 DUP2 PUSH2 0x34D0 JUMP JUMPDEST SWAP1 POP SWAP2 SWAP1 POP JUMP JUMPDEST PUSH32 0x50726F6A656374206E616D652063616E6E6F7420626520656D70747900000000 PUSH0 DUP3 ADD MSTORE POP JUMP JUMPDEST PUSH0 PUSH2 0x3544 PUSH1 0x1C DUP4 PUSH2 0x29FC JUMP JUMPDEST SWAP2 POP PUSH2 0x354F DUP3 PUSH2 0x3510 JUMP JUMPDEST PUSH1 0x20 DUP3 ADD SWAP1 POP SWAP2 SWAP1 POP JUMP JUMPDEST PUSH0 PUSH1 0x20 DUP3 ADD SWAP1 POP DUP2 DUP2 SUB PUSH0 DUP4 ADD MSTORE PUSH2 0x3571 DUP2 PUSH2 0x3538 JUMP JUMPDEST SWAP1 POP SWAP2 SWAP1 POP JUMP JUMPDEST PUSH32 0x546F74616C20637265646974732073686F756C64206265206772656174657220 PUSH0 DUP3 ADD MSTORE PUSH32 0x7468616E207A65726F0000000000000000000000000000000000000000000000 PUSH1 0x20 DUP3 ADD MSTORE POP JUMP JUMPDEST PUSH0 PUSH2 0x35D2 PUSH1 0x29 DUP4 PUSH2 0x29FC JUMP JUMPDEST SWAP2 POP PUSH2 0x35DD DUP3 PUSH2 0x3578 JUMP JUMPDEST PUSH1 0x40 DUP3 ADD SWAP1 POP SWAP2 SWAP1 POP JUMP JUMPDEST PUSH0 PUSH1 0x20 DUP3 ADD SWAP1 POP DUP2 DUP2 SUB PUSH0 DUP4 ADD MSTORE PUSH2 0x35FF DUP2 PUSH2 0x35C6 JUMP JUMPDEST SWAP1 POP SWAP2 SWAP1 POP JUMP JUMPDEST PUSH32 0x507269636520706572206372656469742073686F756C64206265206772656174 PUSH0 DUP3 ADD MSTORE PUSH32 0x6572207468616E207A65726F0000000000000000000000000000000000000000 PUSH1 0x20 DUP3 ADD MSTORE POP JUMP JUMPDEST PUSH0 PUSH2 0x3660 PUSH1 0x2C DUP4 PUSH2 0x29FC JUMP JUMPDEST SWAP2 POP PUSH2 0x366B DUP3 PUSH2 0x3606 JUMP JUMPDEST PUSH1 0x40 DUP3 ADD SWAP1 POP SWAP2 SWAP1 POP JUMP JUMPDEST PUSH0 PUSH1 0x20 DUP3 ADD SWAP1 POP DUP2 DUP2 SUB PUSH0 DUP4 ADD MSTORE PUSH2 0x368D DUP2 PUSH2 0x3654 JUMP JUMPDEST SWAP1 POP SWAP2 SWAP1 POP JUMP JUMPDEST PUSH0 DUP2 SWAP1 POP DUP2 PUSH0 MSTORE PUSH1 0x20 PUSH0 KECCAK256 SWAP1 POP SWAP2 SWAP1 POP JUMP JUMPDEST PUSH0 PUSH1 0x20 PUSH1 0x1F DUP4 ADD DIV SWAP1 POP SWAP2 SWAP1 POP JUMP JUMPDEST PUSH0 DUP3 DUP3 SHL SWAP1 POP SWAP3 SWAP2 POP POP JUMP JUMPDEST PUSH0 PUSH1 0x8 DUP4 MUL PUSH2 0x36F0 PUSH32 0xFFFFFFFFFFFFFFFFFFFFFFFFFFFFFFFFFFFFFFFFFFFFFFFFFFFFFFFFFFFFFFFF DUP3 PUSH2 0x36B5 JUMP JUMPDEST PUSH2 0x36FA DUP7 DUP4 PUSH2 0x36B5 JUMP JUMPDEST SWAP6 POP DUP1 NOT DUP5 AND SWAP4 POP DUP1 DUP7 AND DUP5 OR SWAP3 POP POP POP SWAP4 SWAP3 POP POP POP JUMP JUMPDEST PUSH0 DUP2 SWAP1 POP SWAP2 SWAP1 POP JUMP JUMPDEST PUSH0 PUSH2 0x3735 PUSH2 0x3730 PUSH2 0x372B DUP5 PUSH2 0x29DA JUMP JUMPDEST PUSH2 0x3712 JUMP JUMPDEST PUSH2 0x29DA JUMP JUMPDEST SWAP1 POP SWAP2 SWAP1 POP JUMP JUMPDEST PUSH0 DUP2 SWAP1 POP SWAP2 SWAP1 POP JUMP JUMPDEST PUSH2 0x374E DUP4 PUSH2 0x371B JUMP JUMPDEST PUSH2 0x3762 PUSH2 0x375A DUP3 PUSH2 0x373C JUMP JUMPDEST DUP5 DUP5 SLOAD PUSH2 0x36C1 JUMP JUMPDEST DUP3 SSTORE POP POP POP POP JUMP JUMPDEST PUSH0 SWAP1 JUMP JUMPDEST PUSH2 0x3776 PUSH2 0x376A JUMP JUMPDEST PUSH2 0x3781 DUP2 DUP5 DUP5 PUSH2 0x3745 JUMP JUMPDEST POP POP POP JUMP JUMPDEST JUMPDEST DUP2 DUP2 LT ISZERO PUSH2 0x37A4 JUMPI PUSH2 0x3799 PUSH0 DUP3 PUSH2 0x376E JUMP JUMPDEST PUSH1 0x1 DUP2 ADD SWAP1 POP PUSH2 0x3787 JUMP JUMPDEST POP POP JUMP JUMPDEST PUSH1 0x1F DUP3 GT ISZERO PUSH2 0x37E9 JUMPI PUSH2 0x37BA DUP2 PUSH2 0x3694 JUMP JUMPDEST PUSH2 0x37C3 DUP5 PUSH2 0x36A6 JUMP JUMPDEST DUP2 ADD PUSH1 0x20 DUP6 LT ISZERO PUSH2 0x37D2 JUMPI DUP2 SWAP1 POP JUMPDEST PUSH2 0x37E6 PUSH2 0x37DE DUP6 PUSH2 0x36A6 JUMP JUMPDEST DUP4 ADD DUP3 PUSH2 0x3786 JUMP JUMPDEST POP POP JUMPDEST POP POP POP JUMP JUMPDEST PUSH0 DUP3 DUP3 SHR SWAP1 POP SWAP3 SWAP2 POP POP JUMP JUMPDEST PUSH0 PUSH2 0x3809 PUSH0 NOT DUP5 PUSH1 0x8 MUL PUSH2 0x37EE JUMP JUMPDEST NOT DUP1 DUP4 AND SWAP2 POP POP SWAP3 SWAP2 POP POP JUMP JUMPDEST PUSH0 PUSH2 0x3821 DUP4 DUP4 PUSH2 0x37FA JUMP JUMPDEST SWAP2 POP DUP3 PUSH1 0x2 MUL DUP3 OR SWAP1 POP SWAP3 SWAP2 POP POP JUMP JUMPDEST PUSH2 0x383A DUP3 PUSH2 0x29F2 JUMP JUMPDEST PUSH8 0xFFFFFFFFFFFFFFFF DUP2 GT ISZERO PUSH2 0x3853 JUMPI PUSH2 0x3852 PUSH2 0x2DEC JUMP JUMPDEST JUMPDEST PUSH2 0x385D DUP3 SLOAD PUSH2 0x335C JUMP JUMPDEST PUSH2 0x3868 DUP3 DUP3 DUP6 PUSH2 0x37A8 JUMP JUMPDEST PUSH0 PUSH1 0x20 SWAP1 POP PUSH1 0x1F DUP4 GT PUSH1 0x1 DUP2 EQ PUSH2 0x3899 JUMPI PUSH0 DUP5 ISZERO PUSH2 0x3887 JUMPI DUP3 DUP8 ADD MLOAD SWAP1 POP JUMPDEST PUSH2 0x3891 DUP6 DUP3 PUSH2 0x3816 JUMP JUMPDEST DUP7 SSTORE POP PUSH2 0x38F8 JUMP JUMPDEST PUSH1 0x1F NOT DUP5 AND PUSH2 0x38A7 DUP7 PUSH2 0x3694 JUMP JUMPDEST PUSH0 JUMPDEST DUP3 DUP2 LT ISZERO PUSH2 0x38CE JUMPI DUP5 DUP10 ADD MLOAD DUP3 SSTORE PUSH1 0x1 DUP3 ADD SWAP2 POP PUSH1 0x20 DUP6 ADD SWAP5 POP PUSH1 0x20 DUP2 ADD SWAP1 POP PUSH2 0x38A9 JUMP JUMPDEST DUP7 DUP4 LT ISZERO PUSH2 0x38EB JUMPI DUP5 DUP10 ADD MLOAD PUSH2 0x38E7 PUSH1 0x1F DUP10 AND DUP3 PUSH2 0x37FA JUMP JUMPDEST DUP4 SSTORE POP JUMPDEST PUSH1 0x1 PUSH1 0x2 DUP9 MUL ADD DUP9 SSTORE POP POP POP JUMPDEST POP POP POP POP POP POP JUMP JUMPDEST PUSH0 PUSH1 0x80 DUP3 ADD SWAP1 POP PUSH2 0x3913 PUSH0 DUP4 ADD DUP8 PUSH2 0x29E3 JUMP JUMPDEST DUP2 DUP2 SUB PUSH1 0x20 DUP4 ADD MSTORE PUSH2 0x3925 DUP2 DUP7 PUSH2 0x2A2A JUMP JUMPDEST SWAP1 POP PUSH2 0x3934 PUSH1 0x40 DUP4 ADD DUP6 PUSH2 0x29E3 JUMP JUMPDEST PUSH2 0x3941 PUSH1 0x60 DUP4 ADD DUP5 PUSH2 0x29E3 JUMP JUMPDEST SWAP6 SWAP5 POP POP POP POP POP JUMP JUMPDEST PUSH32 0x496E73756666696369656E74206372656469747320746F207265746972650000 PUSH0 DUP3 ADD MSTORE POP JUMP JUMPDEST PUSH0 PUSH2 0x397E PUSH1 0x1E DUP4 PUSH2 0x29FC JUMP JUMPDEST SWAP2 POP PUSH2 0x3989 DUP3 PUSH2 0x394A JUMP JUMPDEST PUSH1 0x20 DUP3 ADD SWAP1 POP SWAP2 SWAP1 POP JUMP JUMPDEST PUSH0 PUSH1 0x20 DUP3 ADD SWAP1 POP DUP2 DUP2 SUB PUSH0 DUP4 ADD MSTORE PUSH2 0x39AB DUP2 PUSH2 0x3972 JUMP JUMPDEST SWAP1 POP SWAP2 SWAP1 POP JUMP JUMPDEST PUSH32 0x4E487B7100000000000000000000000000000000000000000000000000000000 PUSH0 MSTORE PUSH1 0x11 PUSH1 0x4 MSTORE PUSH1 0x24 PUSH0 REVERT JUMPDEST PUSH0 PUSH2 0x39E9 DUP3 PUSH2 0x29DA JUMP JUMPDEST SWAP2 POP PUSH2 0x39F4 DUP4 PUSH2 0x29DA JUMP JUMPDEST SWAP3 POP DUP3 DUP3 SUB SWAP1 POP DUP2 DUP2 GT ISZERO PUSH2 0x3A0C JUMPI PUSH2 0x3A0B PUSH2 0x39B2 JUMP JUMPDEST JUMPDEST SWAP3 SWAP2 POP POP JUMP JUMPDEST PUSH0 PUSH1 0x40 DUP3 ADD SWAP1 POP PUSH2 0x3A25 PUSH0 DUP4 ADD DUP6 PUSH2 0x29E3 JUMP JUMPDEST PUSH2 0x3A32 PUSH1 0x20 DUP4 ADD DUP5 PUSH2 0x29E3 JUMP JUMPDEST SWAP4 SWAP3 POP POP POP JUMP JUMPDEST PUSH32 0x4F6E6C7920746865206F776E65722063616E2075706461746520626164676520 PUSH0 DUP3 ADD MSTORE PUSH32 0x7468726573686F6C647300000000000000000000000000000000000000000000 PUSH1 0x20 DUP3 ADD MSTORE POP JUMP JUMPDEST PUSH0 PUSH2 0x3A93 PUSH1 0x2A DUP4 PUSH2 0x29FC JUMP JUMPDEST SWAP2 POP PUSH2 0x3A9E DUP3 PUSH2 0x3A39 JUMP JUMPDEST PUSH1 0x40 DUP3 ADD SWAP1 POP SWAP2 SWAP1 POP JUMP JUMPDEST PUSH0 PUSH1 0x20 DUP3 ADD SWAP1 POP DUP2 DUP2 SUB PUSH0 DUP4 ADD MSTORE PUSH2 0x3AC0 DUP2 PUSH2 0x3A87 JUMP JUMPDEST SWAP1 POP SWAP2 SWAP1 POP JUMP JUMPDEST PUSH0 DUP2 SWAP1 POP SWAP3 SWAP2 POP POP JUMP JUMPDEST PUSH32 0x436172626F6E204368616D70696F6E0000000000000000000000000000000000 PUSH0 DUP3 ADD MSTORE POP JUMP JUMPDEST PUSH0 PUSH2 0x3B05 PUSH1 0xF DUP4 PUSH2 0x3AC7 JUMP JUMPDEST SWAP2 POP PUSH2 0x3B10 DUP3 PUSH2 0x3AD1 JUMP JUMPDEST PUSH1 0xF DUP3 ADD SWAP1 POP SWAP2 SWAP1 POP JUMP JUMPDEST PUSH0 PUSH2 0x3B25 DUP3 PUSH2 0x3AF9 JUMP JUMPDEST SWAP2 POP DUP2 SWAP1 POP SWAP2 SWAP1 POP JUMP JUMPDEST PUSH0 PUSH2 0x3B39 DUP3 PUSH2 0x29F2 JUMP JUMPDEST PUSH2 0x3B43 DUP2 DUP6 PUSH2 0x3AC7 JUMP JUMPDEST SWAP4 POP PUSH2 0x3B53 DUP2 DUP6 PUSH1 0x20 DUP7 ADD PUSH2 0x2A0C JUMP JUMPDEST DUP1 DUP5 ADD SWAP2 POP POP SWAP3 SWAP2 POP POP JUMP JUMPDEST PUSH0 PUSH2 0x3B6A DUP3 DUP5 PUSH2 0x3B2F JUMP JUMPDEST SWAP2 POP DUP2 SWAP1 POP SWAP3 SWAP2 POP POP JUMP JUMPDEST PUSH32 0x436172626F6E20436F6E7472696275746F720000000000000000000000000000 PUSH0 DUP3 ADD MSTORE POP JUMP JUMPDEST PUSH0 PUSH2 0x3BA9 PUSH1 0x12 DUP4 PUSH2 0x3AC7 JUMP JUMPDEST SWAP2 POP PUSH2 0x3BB4 DUP3 PUSH2 0x3B75 JUMP JUMPDEST PUSH1 0x12 DUP3 ADD SWAP1 POP SWAP2 SWAP1 POP JUMP JUMPDEST PUSH0 PUSH2 0x3BC9 DUP3 PUSH2 0x3B9D JUMP JUMPDEST SWAP2 POP DUP2 SWAP1 POP SWAP2 SWAP1 POP JUMP JUMPDEST PUSH32 0x496E76616C696420626164676520747970650000000000000000000000000000 PUSH0 DUP3 ADD MSTORE POP JUMP JUMPDEST PUSH0 PUSH2 0x3C07 PUSH1 0x12 DUP4 PUSH2 0x29FC JUMP JUMPDEST SWAP2 POP PUSH2 0x3C12 DUP3 PUSH2 0x3BD3 JUMP JUMPDEST PUSH1 0x20 DUP3 ADD SWAP1 POP SWAP2 SWAP1 POP JUMP JUMPDEST PUSH0 PUSH1 0x20 DUP3 ADD SWAP1 POP DUP2 DUP2 SUB PUSH0 DUP4 ADD MSTORE PUSH2 0x3C34 DUP2 PUSH2 0x3BFB JUMP JUMPDEST SWAP1 POP SWAP2 SWAP1 POP JUMP JUMPDEST PUSH0 PUSH1 0x40 DUP3 ADD SWAP1 POP DUP2 DUP2 SUB PUSH0 DUP4 ADD MSTORE PUSH2 0x3C53 DUP2 DUP6 PUSH2 0x2A2A JUMP JUMPDEST SWAP1 POP PUSH2 0x3C62 PUSH1 0x20 DUP4 ADD DUP5 PUSH2 0x29E3 JUMP JUMPDEST SWAP4 SWAP3 POP POP POP JUMP JUMPDEST PUSH32 0x4E487B7100000000000000000000000000000000000000000000000000000000 PUSH0 MSTORE PUSH1 0x32 PUSH1 0x4 MSTORE PUSH1 0x24 PUSH0 REVERT JUMPDEST PUSH0 PUSH2 0x3CA0 DUP3 PUSH2 0x29DA JUMP JUMPDEST SWAP2 POP PUSH2 0x3CAB DUP4 PUSH2 0x29DA JUMP JUMPDEST SWAP3 POP DUP3 DUP3 ADD SWAP1 POP DUP1 DUP3 GT ISZERO PUSH2 0x3CC3 JUMPI PUSH2 0x3CC2 PUSH2 0x39B2 JUMP JUMPDEST JUMPDEST SWAP3 SWAP2 POP POP JUMP JUMPDEST PUSH32 0x437265646974732073686F756C642062652067726561746572207468616E207A PUSH0 DUP3 ADD MSTORE PUSH32 0x65726F0000000000000000000000000000000000000000000000000000000000 PUSH1 0x20 DUP3 ADD MSTORE POP JUMP JUMPDEST PUSH0 PUSH2 0x3D23 PUSH1 0x23 DUP4 PUSH2 0x29FC JUMP JUMPDEST SWAP2 POP PUSH2 0x3D2E DUP3 PUSH2 0x3CC9 JUMP JUMPDEST PUSH1 0x40 DUP3 ADD SWAP1 POP SWAP2 SWAP1 POP JUMP JUMPDEST PUSH0 PUSH1 0x20 DUP3 ADD SWAP1 POP DUP2 DUP2 SUB PUSH0 DUP4 ADD MSTORE PUSH2 0x3D50 DUP2 PUSH2 0x3D17 JUMP JUMPDEST SWAP1 POP SWAP2 SWAP1 POP JUMP JUMPDEST PUSH32 0x4E6F7420656E6F75676820617661696C61626C65206372656469747300000000 PUSH0 DUP3 ADD MSTORE POP JUMP JUMPDEST PUSH0 PUSH2 0x3D8B PUSH1 0x1C DUP4 PUSH2 0x29FC JUMP JUMPDEST SWAP2 POP PUSH2 0x3D96 DUP3 PUSH2 0x3D57 JUMP JUMPDEST PUSH1 0x20 DUP3 ADD SWAP1 POP SWAP2 SWAP1 POP JUMP JUMPDEST PUSH0 PUSH1 0x20 DUP3 ADD SWAP1 POP DUP2 DUP2 SUB PUSH0 DUP4 ADD MSTORE PUSH2 0x3DB8 DUP2 PUSH2 0x3D7F JUMP JUMPDEST SWAP1 POP SWAP2 SWAP1 POP JUMP JUMPDEST PUSH0 PUSH2 0x3DC9 DUP3 PUSH2 0x29DA JUMP JUMPDEST SWAP2 POP PUSH2 0x3DD4 DUP4 PUSH2 0x29DA JUMP JUMPDEST SWAP3 POP DUP3 DUP3 MUL PUSH2 0x3DE2 DUP2 PUSH2 0x29DA JUMP JUMPDEST SWAP2 POP DUP3 DUP3 DIV DUP5 EQ DUP4 ISZERO OR PUSH2 0x3DF9 JUMPI PUSH2 0x3DF8 PUSH2 0x39B2 JUMP JUMPDEST JUMPDEST POP SWAP3 SWAP2 POP POP JUMP JUMPDEST PUSH32 0x496E73756666696369656E74207061796D656E74000000000000000000000000 PUSH0 DUP3 ADD MSTORE POP JUMP JUMPDEST PUSH0 PUSH2 0x3E34 PUSH1 0x14 DUP4 PUSH2 0x29FC JUMP JUMPDEST SWAP2 POP PUSH2 0x3E3F DUP3 PUSH2 0x3E00 JUMP JUMPDEST PUSH1 0x20 DUP3 ADD SWAP1 POP SWAP2 SWAP1 POP JUMP JUMPDEST PUSH0 PUSH1 0x20 DUP3 ADD SWAP1 POP DUP2 DUP2 SUB PUSH0 DUP4 ADD MSTORE PUSH2 0x3E61 DUP2 PUSH2 0x3E28 JUMP JUMPDEST SWAP1 POP SWAP2 SWAP1 POP JUMP JUMPDEST PUSH32 0x4E487B7100000000000000000000000000000000000000000000000000000000 PUSH0 MSTORE PUSH1 0x12 PUSH1 0x4 MSTORE PUSH1 0x24 PUSH0 REVERT JUMPDEST PUSH0 PUSH2 0x3E9F DUP3 PUSH2 0x29DA JUMP JUMPDEST SWAP2 POP PUSH2 0x3EAA DUP4 PUSH2 0x29DA JUMP JUMPDEST SWAP3 POP DUP3 PUSH2 0x3EBA JUMPI PUSH2 0x3EB9 PUSH2 0x3E68 JUMP JUMPDEST JUMPDEST DUP3 DUP3 DIV SWAP1 POP SWAP3 SWAP2 POP POP JUMP JUMPDEST PUSH32 0x496E73756666696369656E74206372656469747320746F207472616E73666572 PUSH0 DUP3 ADD MSTORE POP JUMP JUMPDEST PUSH0 PUSH2 0x3EF9 PUSH1 0x20 DUP4 PUSH2 0x29FC JUMP JUMPDEST SWAP2 POP PUSH2 0x3F04 DUP3 PUSH2 0x3EC5 JUMP JUMPDEST PUSH1 0x20 DUP3 ADD SWAP1 POP SWAP2 SWAP1 POP JUMP JUMPDEST PUSH0 PUSH1 0x20 DUP3 ADD SWAP1 POP DUP2 DUP2 SUB PUSH0 DUP4 ADD MSTORE PUSH2 0x3F26 DUP2 PUSH2 0x3EED JUMP JUMPDEST SWAP1 POP SWAP2 SWAP1 POP JUMP JUMPDEST PUSH32 0x496E73756666696369656E742066656520666F7220746865207472616E736665 PUSH0 DUP3 ADD MSTORE PUSH32 0x7200000000000000000000000000000000000000000000000000000000000000 PUSH1 0x20 DUP3 ADD MSTORE POP JUMP JUMPDEST PUSH0 PUSH2 0x3F87 PUSH1 0x21 DUP4 PUSH2 0x29FC JUMP JUMPDEST SWAP2 POP PUSH2 0x3F92 DUP3 PUSH2 0x3F2D JUMP JUMPDEST PUSH1 0x40 DUP3 ADD SWAP1 POP SWAP2 SWAP1 POP JUMP JUMPDEST PUSH0 PUSH1 0x20 DUP3 ADD SWAP1 POP DUP2 DUP2 SUB PUSH0 DUP4 ADD MSTORE PUSH2 0x3FB4 DUP2 PUSH2 0x3F7B JUMP JUMPDEST SWAP1 POP SWAP2 SWAP1 POP JUMP JUMPDEST PUSH32 0x4F6E6C7920746865206F776E65722063616E20746F67676C6520726567697374 PUSH0 DUP3 ADD MSTORE PUSH32 0x726174696F6E207065726D697373696F6E730000000000000000000000000000 PUSH1 0x20 DUP3 ADD MSTORE POP JUMP JUMPDEST PUSH0 PUSH2 0x4015 PUSH1 0x32 DUP4 PUSH2 0x29FC JUMP JUMPDEST SWAP2 POP PUSH2 0x4020 DUP3 PUSH2 0x3FBB JUMP JUMPDEST PUSH1 0x40 DUP3 ADD SWAP1 POP SWAP2 SWAP1 POP JUMP JUMPDEST PUSH0 PUSH1 0x20 DUP3 ADD SWAP1 POP DUP2 DUP2 SUB PUSH0 DUP4 ADD MSTORE PUSH2 0x4042 DUP2 PUSH2 0x4009 JUMP JUMPDEST SWAP1 POP SWAP2 SWAP1 POP JUMP JUMPDEST PUSH32 0x4F6E6C7920746865206F776E65722063616E2072656769737465722070726F6A PUSH0 DUP3 ADD MSTORE PUSH32 0x6563747320616E64206E6F6E2D6F776E65727320617265206E6F7420616C6C6F PUSH1 0x20 DUP3 ADD MSTORE PUSH32 0x7765640000000000000000000000000000000000000000000000000000000000 PUSH1 0x40 DUP3 ADD MSTORE POP JUMP JUMPDEST PUSH0 PUSH2 0x40C9 PUSH1 0x43 DUP4 PUSH2 0x29FC JUMP JUMPDEST SWAP2 POP PUSH2 0x40D4 DUP3 PUSH2 0x4049 JUMP JUMPDEST PUSH1 0x60 DUP3 ADD SWAP1 POP SWAP2 SWAP1 POP JUMP JUMPDEST PUSH0 PUSH1 0x20 DUP3 ADD SWAP1 POP DUP2 DUP2 SUB PUSH0 DUP4 ADD MSTORE PUSH2 0x40F6 DUP2 PUSH2 0x40BD JUMP JUMPDEST SWAP1 POP SWAP2 SWAP1 POP JUMP JUMPDEST PUSH0 PUSH2 0x4107 DUP3 PUSH2 0x29DA JUMP JUMPDEST SWAP2 POP PUSH32 0xFFFFFFFFFFFFFFFFFFFFFFFFFFFFFFFFFFFFFFFFFFFFFFFFFFFFFFFFFFFFFFFF DUP3 SUB PUSH2 0x4139 JUMPI PUSH2 0x4138 PUSH2 0x39B2 JUMP JUMPDEST JUMPDEST PUSH1 0x1 DUP3 ADD SWAP1 POP SWAP2 SWAP1 POP JUMP JUMPDEST PUSH0 DUP2 SLOAD PUSH2 0x4150 DUP2 PUSH2 0x335C JUMP JUMPDEST PUSH2 0x415A DUP2 DUP7 PUSH2 0x29FC JUMP JUMPDEST SWAP5 POP PUSH1 0x1 DUP3 AND PUSH0 DUP2 EQ PUSH2 0x4174 JUMPI PUSH1 0x1 DUP2 EQ PUSH2 0x418A JUMPI PUSH2 0x41BC JUMP JUMPDEST PUSH1 0xFF NOT DUP4 AND DUP7 MSTORE DUP2 ISZERO ISZERO PUSH1 0x20 MUL DUP7 ADD SWAP4 POP PUSH2 0x41BC JUMP JUMPDEST PUSH2 0x4193 DUP6 PUSH2 0x3694 JUMP JUMPDEST PUSH0 JUMPDEST DUP4 DUP2 LT ISZERO PUSH2 0x41B4 JUMPI DUP2 SLOAD DUP2 DUP10 ADD MSTORE PUSH1 0x1 DUP3 ADD SWAP2 POP PUSH1 0x20 DUP2 ADD SWAP1 POP PUSH2 0x4195 JUMP JUMPDEST DUP1 DUP9 ADD SWAP6 POP POP POP JUMPDEST POP POP POP SWAP3 SWAP2 POP POP JUMP JUMPDEST PUSH0 PUSH1 0x40 DUP3 ADD SWAP1 POP PUSH2 0x41D8 PUSH0 DUP4 ADD DUP6 PUSH2 0x29E3 JUMP JUMPDEST DUP2 DUP2 SUB PUSH1 0x20 DUP4 ADD MSTORE PUSH2 0x41EA DUP2 DUP5 PUSH2 0x4144 JUMP JUMPDEST SWAP1 POP SWAP4 SWAP3 POP POP POP JUMP INVALID LOG2 PUSH5 0x6970667358 0x22 SLT KECCAK256 0xF8 CODECOPY JUMP SWAP10 SWAP1 STOP 0xEC CALLCODE 0xC1 0xA8 POP LOG2 CHAINID 0xD2 0xCF MUL PUSH6 0xC5252B3C9F62 0x24 DUP3 0xD3 0xA5 0xBC REVERT 0xAE DELEGATECALL RETURNDATASIZE PUSH5 0x736F6C6343 STOP ADDMOD BYTE STOP CALLER "
				},
				"gasEstimates": {
					"creation": {
						"codeDepositCost": "3387400",
						"executionCost": "162837",
						"totalCost": "3550237"
					},
					"external": {
						"allTransactions(uint256)": "infinite",
						"allowNonOwnerRegistration()": "2512",
						"carbonChampionThreshold()": "2535",
						"carbonContributorThreshold()": "2470",
						"feePercentage()": "2514",
						"getAllTransactions()": "infinite",
						"getLeaderboard()": "infinite",
						"getUserRewards(address)": "infinite",
						"getUserTransactions(address)": "infinite",
						"minVotesForProposal()": "2514",
						"owner()": "2572",
						"projectCount()": "2515",
						"projects(uint256)": "infinite",
						"purchaseCredits(uint256,uint256)": "infinite",
						"registerProject(string,uint256,uint256)": "infinite",
						"retireCredits(uint256,uint256)": "infinite",
						"setMinVotesForProposal(uint256)": "24749",
						"toggleNonOwnerRegistration(bool)": "26972",
						"transferCredits(address,uint256,uint256)": "infinite",
						"transferFee()": "2470",
						"updateBadgeThreshold(string,uint256)": "infinite",
						"updateProject(uint256,string,uint256,uint256)": "infinite",
						"userCredits(address,uint256)": "infinite",
						"userRewardPoints(address)": "2913",
						"userRewards(address)": "infinite",
						"userTransactions(address,uint256)": "infinite"
					},
					"internal": {
						"_updateUserRewards(address,uint256,string memory)": "infinite"
					}
				},
				"methodIdentifiers": {
					"allTransactions(uint256)": "d7ff0714",
					"allowNonOwnerRegistration()": "2f51d7ce",
					"carbonChampionThreshold()": "f275fdf4",
					"carbonContributorThreshold()": "883ffe91",
					"feePercentage()": "a001ecdd",
					"getAllTransactions()": "27506f53",
					"getLeaderboard()": "6d763a6e",
					"getUserRewards(address)": "078b0fb7",
					"getUserTransactions(address)": "ef925399",
					"minVotesForProposal()": "c9ded404",
					"owner()": "8da5cb5b",
					"projectCount()": "36fbad26",
					"projects(uint256)": "107046bd",
					"purchaseCredits(uint256,uint256)": "84034469",
					"registerProject(string,uint256,uint256)": "e636eb55",
					"retireCredits(uint256,uint256)": "3ea0fb13",
					"setMinVotesForProposal(uint256)": "0994c98f",
					"toggleNonOwnerRegistration(bool)": "ab52a745",
					"transferCredits(address,uint256,uint256)": "a2f6045a",
					"transferFee()": "acb2ad6f",
					"updateBadgeThreshold(string,uint256)": "53dc9988",
					"updateProject(uint256,string,uint256,uint256)": "354f75e1",
					"userCredits(address,uint256)": "17a483a3",
					"userRewardPoints(address)": "7ce26644",
					"userRewards(address)": "0660f1e8",
					"userTransactions(address,uint256)": "b842ec44"
				}
			},
			"storageLayout": {
				"storage": [
					{
						"astId": 3,
						"contract": "carbon.sol:CarbonOffsetMarketplace",
						"label": "owner",
						"offset": 0,
						"slot": "0",
						"type": "t_address"
					},
					{
						"astId": 6,
						"contract": "carbon.sol:CarbonOffsetMarketplace",
						"label": "feePercentage",
						"offset": 0,
						"slot": "1",
						"type": "t_uint256"
					},
					{
						"astId": 9,
						"contract": "carbon.sol:CarbonOffsetMarketplace",
						"label": "allowNonOwnerRegistration",
						"offset": 0,
						"slot": "2",
						"type": "t_bool"
					},
					{
						"astId": 12,
						"contract": "carbon.sol:CarbonOffsetMarketplace",
						"label": "minVotesForProposal",
						"offset": 0,
						"slot": "3",
						"type": "t_uint256"
					},
					{
						"astId": 15,
						"contract": "carbon.sol:CarbonOffsetMarketplace",
						"label": "transferFee",
						"offset": 0,
						"slot": "4",
						"type": "t_uint256"
					},
					{
						"astId": 47,
						"contract": "carbon.sol:CarbonOffsetMarketplace",
						"label": "projects",
						"offset": 0,
						"slot": "5",
						"type": "t_mapping(t_uint256,t_struct(Project)26_storage)"
					},
					{
						"astId": 49,
						"contract": "carbon.sol:CarbonOffsetMarketplace",
						"label": "projectCount",
						"offset": 0,
						"slot": "6",
						"type": "t_uint256"
					},
					{
						"astId": 55,
						"contract": "carbon.sol:CarbonOffsetMarketplace",
						"label": "userCredits",
						"offset": 0,
						"slot": "7",
						"type": "t_mapping(t_address,t_mapping(t_uint256,t_uint256))"
					},
					{
						"astId": 60,
						"contract": "carbon.sol:CarbonOffsetMarketplace",
						"label": "userRewards",
						"offset": 0,
						"slot": "8",
						"type": "t_mapping(t_address,t_struct(Reward)42_storage)"
					},
					{
						"astId": 66,
						"contract": "carbon.sol:CarbonOffsetMarketplace",
						"label": "userTransactions",
						"offset": 0,
						"slot": "9",
						"type": "t_mapping(t_address,t_array(t_struct(Transaction)37_storage)dyn_storage)"
					},
					{
						"astId": 70,
						"contract": "carbon.sol:CarbonOffsetMarketplace",
						"label": "allTransactions",
						"offset": 0,
						"slot": "10",
						"type": "t_array(t_struct(Transaction)37_storage)dyn_storage"
					},
					{
						"astId": 74,
						"contract": "carbon.sol:CarbonOffsetMarketplace",
						"label": "userRewardPoints",
						"offset": 0,
						"slot": "11",
						"type": "t_mapping(t_address,t_uint256)"
					},
					{
						"astId": 77,
						"contract": "carbon.sol:CarbonOffsetMarketplace",
						"label": "carbonChampionThreshold",
						"offset": 0,
						"slot": "12",
						"type": "t_uint256"
					},
					{
						"astId": 80,
						"contract": "carbon.sol:CarbonOffsetMarketplace",
						"label": "carbonContributorThreshold",
						"offset": 0,
						"slot": "13",
						"type": "t_uint256"
					}
				],
				"types": {
					"t_address": {
						"encoding": "inplace",
						"label": "address",
						"numberOfBytes": "20"
					},
					"t_array(t_struct(Transaction)37_storage)dyn_storage": {
						"base": "t_struct(Transaction)37_storage",
						"encoding": "dynamic_array",
						"label": "struct CarbonOffsetMarketplace.Transaction[]",
						"numberOfBytes": "32"
					},
					"t_bool": {
						"encoding": "inplace",
						"label": "bool",
						"numberOfBytes": "1"
					},
					"t_mapping(t_address,t_array(t_struct(Transaction)37_storage)dyn_storage)": {
						"encoding": "mapping",
						"key": "t_address",
						"label": "mapping(address => struct CarbonOffsetMarketplace.Transaction[])",
						"numberOfBytes": "32",
						"value": "t_array(t_struct(Transaction)37_storage)dyn_storage"
					},
					"t_mapping(t_address,t_mapping(t_uint256,t_uint256))": {
						"encoding": "mapping",
						"key": "t_address",
						"label": "mapping(address => mapping(uint256 => uint256))",
						"numberOfBytes": "32",
						"value": "t_mapping(t_uint256,t_uint256)"
					},
					"t_mapping(t_address,t_struct(Reward)42_storage)": {
						"encoding": "mapping",
						"key": "t_address",
						"label": "mapping(address => struct CarbonOffsetMarketplace.Reward)",
						"numberOfBytes": "32",
						"value": "t_struct(Reward)42_storage"
					},
					"t_mapping(t_address,t_uint256)": {
						"encoding": "mapping",
						"key": "t_address",
						"label": "mapping(address => uint256)",
						"numberOfBytes": "32",
						"value": "t_uint256"
					},
					"t_mapping(t_uint256,t_struct(Project)26_storage)": {
						"encoding": "mapping",
						"key": "t_uint256",
						"label": "mapping(uint256 => struct CarbonOffsetMarketplace.Project)",
						"numberOfBytes": "32",
						"value": "t_struct(Project)26_storage"
					},
					"t_mapping(t_uint256,t_uint256)": {
						"encoding": "mapping",
						"key": "t_uint256",
						"label": "mapping(uint256 => uint256)",
						"numberOfBytes": "32",
						"value": "t_uint256"
					},
					"t_string_storage": {
						"encoding": "bytes",
						"label": "string",
						"numberOfBytes": "32"
					},
					"t_struct(Project)26_storage": {
						"encoding": "inplace",
						"label": "struct CarbonOffsetMarketplace.Project",
						"members": [
							{
								"astId": 17,
								"contract": "carbon.sol:CarbonOffsetMarketplace",
								"label": "owner",
								"offset": 0,
								"slot": "0",
								"type": "t_address"
							},
							{
								"astId": 19,
								"contract": "carbon.sol:CarbonOffsetMarketplace",
								"label": "name",
								"offset": 0,
								"slot": "1",
								"type": "t_string_storage"
							},
							{
								"astId": 21,
								"contract": "carbon.sol:CarbonOffsetMarketplace",
								"label": "totalCredits",
								"offset": 0,
								"slot": "2",
								"type": "t_uint256"
							},
							{
								"astId": 23,
								"contract": "carbon.sol:CarbonOffsetMarketplace",
								"label": "availableCredits",
								"offset": 0,
								"slot": "3",
								"type": "t_uint256"
							},
							{
								"astId": 25,
								"contract": "carbon.sol:CarbonOffsetMarketplace",
								"label": "pricePerCredit",
								"offset": 0,
								"slot": "4",
								"type": "t_uint256"
							}
						],
						"numberOfBytes": "160"
					},
					"t_struct(Reward)42_storage": {
						"encoding": "inplace",
						"label": "struct CarbonOffsetMarketplace.Reward",
						"members": [
							{
								"astId": 39,
								"contract": "carbon.sol:CarbonOffsetMarketplace",
								"label": "rewardPoints",
								"offset": 0,
								"slot": "0",
								"type": "t_uint256"
							},
							{
								"astId": 41,
								"contract": "carbon.sol:CarbonOffsetMarketplace",
								"label": "badge",
								"offset": 0,
								"slot": "1",
								"type": "t_string_storage"
							}
						],
						"numberOfBytes": "64"
					},
					"t_struct(Transaction)37_storage": {
						"encoding": "inplace",
						"label": "struct CarbonOffsetMarketplace.Transaction",
						"members": [
							{
								"astId": 28,
								"contract": "carbon.sol:CarbonOffsetMarketplace",
								"label": "user",
								"offset": 0,
								"slot": "0",
								"type": "t_address"
							},
							{
								"astId": 30,
								"contract": "carbon.sol:CarbonOffsetMarketplace",
								"label": "projectId",
								"offset": 0,
								"slot": "1",
								"type": "t_uint256"
							},
							{
								"astId": 32,
								"contract": "carbon.sol:CarbonOffsetMarketplace",
								"label": "credits",
								"offset": 0,
								"slot": "2",
								"type": "t_uint256"
							},
							{
								"astId": 34,
								"contract": "carbon.sol:CarbonOffsetMarketplace",
								"label": "action",
								"offset": 0,
								"slot": "3",
								"type": "t_string_storage"
							},
							{
								"astId": 36,
								"contract": "carbon.sol:CarbonOffsetMarketplace",
								"label": "timestamp",
								"offset": 0,
								"slot": "4",
								"type": "t_uint256"
							}
						],
						"numberOfBytes": "160"
					},
					"t_uint256": {
						"encoding": "inplace",
						"label": "uint256",
						"numberOfBytes": "32"
					}
				}
			},
			"userdoc": {
				"kind": "user",
				"methods": {},
				"version": 1
			}
		}
	}
}