{
	"carbon.sol": {
		"CarbonOffsetMarketplace": {
			"abi": [
				{
					"anonymous": false,
					"inputs": [
						{
							"indexed": true,
							"internalType": "address",
							"name": "buyer",
							"type": "address"
						},
						{
							"indexed": false,
							"internalType": "uint256",
							"name": "projectId",
							"type": "uint256"
						},
						{
							"indexed": false,
							"internalType": "uint256",
							"name": "credits",
							"type": "uint256"
						}
					],
					"name": "CreditsPurchased",
					"type": "event"
				},
				{
					"anonymous": false,
					"inputs": [
						{
							"indexed": true,
							"internalType": "address",
							"name": "user",
							"type": "address"
						},
						{
							"indexed": false,
							"internalType": "uint256",
							"name": "projectId",
							"type": "uint256"
						},
						{
							"indexed": false,
							"internalType": "uint256",
							"name": "credits",
							"type": "uint256"
						}
					],
					"name": "CreditsRetired",
					"type": "event"
				},
				{
					"anonymous": false,
					"inputs": [
						{
							"indexed": false,
							"internalType": "uint256",
							"name": "projectId",
							"type": "uint256"
						},
						{
							"indexed": false,
							"internalType": "string",
							"name": "name",
							"type": "string"
						},
						{
							"indexed": false,
							"internalType": "uint256",
							"name": "totalCredits",
							"type": "uint256"
						},
						{
							"indexed": false,
							"internalType": "uint256",
							"name": "pricePerCredit",
							"type": "uint256"
						}
					],
					"name": "ProjectRegistered",
					"type": "event"
				},
				{
					"anonymous": false,
					"inputs": [
						{
							"indexed": false,
							"internalType": "uint256",
							"name": "proposalId",
							"type": "uint256"
						},
						{
							"indexed": false,
							"internalType": "string",
							"name": "description",
							"type": "string"
						},
						{
							"indexed": false,
							"internalType": "address",
							"name": "proposer",
							"type": "address"
						}
					],
					"name": "ProposalCreated",
					"type": "event"
				},
				{
					"anonymous": false,
					"inputs": [
						{
							"indexed": false,
							"internalType": "uint256",
							"name": "proposalId",
							"type": "uint256"
						},
						{
							"indexed": false,
							"internalType": "address",
							"name": "voter",
							"type": "address"
						},
						{
							"indexed": false,
							"internalType": "bool",
							"name": "support",
							"type": "bool"
						}
					],
					"name": "VoteCast",
					"type": "event"
				},
				{
					"inputs": [
						{
							"internalType": "string",
							"name": "_description",
							"type": "string"
						}
					],
					"name": "createProposal",
					"outputs": [],
					"stateMutability": "nonpayable",
					"type": "function"
				},
				{
					"inputs": [
						{
							"internalType": "uint256",
							"name": "_proposalId",
							"type": "uint256"
						}
					],
					"name": "executeProposal",
					"outputs": [],
					"stateMutability": "nonpayable",
					"type": "function"
				},
				{
					"inputs": [
						{
							"internalType": "uint256",
							"name": "_projectId",
							"type": "uint256"
						}
					],
					"name": "getProject",
					"outputs": [
						{
							"internalType": "string",
							"name": "",
							"type": "string"
						},
						{
							"internalType": "uint256",
							"name": "",
							"type": "uint256"
						},
						{
							"internalType": "uint256",
							"name": "",
							"type": "uint256"
						},
						{
							"internalType": "uint256",
							"name": "",
							"type": "uint256"
						},
						{
							"internalType": "address",
							"name": "",
							"type": "address"
						}
					],
					"stateMutability": "view",
					"type": "function"
				},
				{
					"inputs": [
						{
							"internalType": "address",
							"name": "_user",
							"type": "address"
						},
						{
							"internalType": "uint256",
							"name": "_projectId",
							"type": "uint256"
						}
					],
					"name": "getUserCredits",
					"outputs": [
						{
							"internalType": "uint256",
							"name": "",
							"type": "uint256"
						}
					],
					"stateMutability": "view",
					"type": "function"
				},
				{
					"inputs": [
						{
							"internalType": "address",
							"name": "_user",
							"type": "address"
						}
					],
					"name": "getUserReputation",
					"outputs": [
						{
							"internalType": "uint256",
							"name": "",
							"type": "uint256"
						}
					],
					"stateMutability": "view",
					"type": "function"
				},
				{
					"inputs": [],
					"name": "projectCount",
					"outputs": [
						{
							"internalType": "uint256",
							"name": "",
							"type": "uint256"
						}
					],
					"stateMutability": "view",
					"type": "function"
				},
				{
					"inputs": [
						{
							"internalType": "uint256",
							"name": "",
							"type": "uint256"
						}
					],
					"name": "projects",
					"outputs": [
						{
							"internalType": "address",
							"name": "owner",
							"type": "address"
						},
						{
							"internalType": "string",
							"name": "name",
							"type": "string"
						},
						{
							"internalType": "uint256",
							"name": "totalCredits",
							"type": "uint256"
						},
						{
							"internalType": "uint256",
							"name": "availableCredits",
							"type": "uint256"
						},
						{
							"internalType": "uint256",
							"name": "pricePerCredit",
							"type": "uint256"
						}
					],
					"stateMutability": "view",
					"type": "function"
				},
				{
					"inputs": [
						{
							"internalType": "uint256",
							"name": "",
							"type": "uint256"
						}
					],
					"name": "proposals",
					"outputs": [
						{
							"internalType": "address",
							"name": "proposer",
							"type": "address"
						},
						{
							"internalType": "string",
							"name": "description",
							"type": "string"
						},
						{
							"internalType": "uint256",
							"name": "votesFor",
							"type": "uint256"
						},
						{
							"internalType": "uint256",
							"name": "votesAgainst",
							"type": "uint256"
						},
						{
							"internalType": "bool",
							"name": "executed",
							"type": "bool"
						}
					],
					"stateMutability": "view",
					"type": "function"
				},
				{
					"inputs": [
						{
							"internalType": "uint256",
							"name": "_projectId",
							"type": "uint256"
						},
						{
							"internalType": "uint256",
							"name": "_credits",
							"type": "uint256"
						}
					],
					"name": "purchaseCredits",
					"outputs": [],
					"stateMutability": "payable",
					"type": "function"
				},
				{
					"inputs": [
						{
							"internalType": "string",
							"name": "_name",
							"type": "string"
						},
						{
							"internalType": "uint256",
							"name": "_totalCredits",
							"type": "uint256"
						},
						{
							"internalType": "uint256",
							"name": "_pricePerCredit",
							"type": "uint256"
						}
					],
					"name": "registerProject",
					"outputs": [],
					"stateMutability": "nonpayable",
					"type": "function"
				},
				{
					"inputs": [
						{
							"internalType": "uint256",
							"name": "_projectId",
							"type": "uint256"
						},
						{
							"internalType": "uint256",
							"name": "_credits",
							"type": "uint256"
						}
					],
					"name": "retireCredits",
					"outputs": [],
					"stateMutability": "nonpayable",
					"type": "function"
				},
				{
					"inputs": [
						{
							"internalType": "address",
							"name": "",
							"type": "address"
						},
						{
							"internalType": "uint256",
							"name": "",
							"type": "uint256"
						}
					],
					"name": "userCredits",
					"outputs": [
						{
							"internalType": "uint256",
							"name": "",
							"type": "uint256"
						}
					],
					"stateMutability": "view",
					"type": "function"
				},
				{
					"inputs": [
						{
							"internalType": "address",
							"name": "",
							"type": "address"
						}
					],
					"name": "userReputation",
					"outputs": [
						{
							"internalType": "uint256",
							"name": "",
							"type": "uint256"
						}
					],
					"stateMutability": "view",
					"type": "function"
				},
				{
					"inputs": [
						{
							"internalType": "uint256",
							"name": "_proposalId",
							"type": "uint256"
						},
						{
							"internalType": "bool",
							"name": "_support",
							"type": "bool"
						}
					],
					"name": "voteOnProposal",
					"outputs": [],
					"stateMutability": "nonpayable",
					"type": "function"
				}
			],
			"devdoc": {
				"kind": "dev",
				"methods": {},
				"version": 1
			},
			"evm": {
				"assembly": "    /* \"carbon.sol\":60:5458  contract CarbonOffsetMarketplace {... */\n  mstore(0x40, 0x80)\n  callvalue\n  dup1\n  iszero\n  tag_1\n  jumpi\n  0x00\n  dup1\n  revert\ntag_1:\n  pop\n  dataSize(sub_0)\n  dup1\n  dataOffset(sub_0)\n  0x00\n  codecopy\n  0x00\n  return\nstop\n\nsub_0: assembly {\n        /* \"carbon.sol\":60:5458  contract CarbonOffsetMarketplace {... */\n      mstore(0x40, 0x80)\n      jumpi(tag_1, lt(calldatasize, 0x04))\n      shr(0xe0, calldataload(0x00))\n      dup1\n      0x49c2a1a6\n      gt\n      tag_16\n      jumpi\n      dup1\n      0xc121cff0\n      gt\n      tag_17\n      jumpi\n      dup1\n      0xc121cff0\n      eq\n      tag_12\n      jumpi\n      dup1\n      0xe503bb05\n      eq\n      tag_13\n      jumpi\n      dup1\n      0xe636eb55\n      eq\n      tag_14\n      jumpi\n      dup1\n      0xf0f3f2c8\n      eq\n      tag_15\n      jumpi\n      jump(tag_1)\n    tag_17:\n      dup1\n      0x49c2a1a6\n      eq\n      tag_9\n      jumpi\n      dup1\n      0x84034469\n      eq\n      tag_10\n      jumpi\n      dup1\n      0xbaccbfdb\n      eq\n      tag_11\n      jumpi\n      jump(tag_1)\n    tag_16:\n      dup1\n      0x1614665c\n      gt\n      tag_18\n      jumpi\n      dup1\n      0x1614665c\n      eq\n      tag_5\n      jumpi\n      dup1\n      0x17a483a3\n      eq\n      tag_6\n      jumpi\n      dup1\n      0x36fbad26\n      eq\n      tag_7\n      jumpi\n      dup1\n      0x3ea0fb13\n      eq\n      tag_8\n      jumpi\n      jump(tag_1)\n    tag_18:\n      dup1\n      0x013cf08b\n      eq\n      tag_2\n      jumpi\n      dup1\n      0x0d61b519\n      eq\n      tag_3\n      jumpi\n      dup1\n      0x107046bd\n      eq\n      tag_4\n      jumpi\n    tag_1:\n      0x00\n      dup1\n      revert\n        /* \"carbon.sol\":3927:3954  Proposal[] public proposals */\n    tag_2:\n      callvalue\n      dup1\n      iszero\n      tag_19\n      jumpi\n      0x00\n      dup1\n      revert\n    tag_19:\n      pop\n      tag_20\n      0x04\n      dup1\n      calldatasize\n      sub\n      dup2\n      add\n      swap1\n      tag_21\n      swap2\n      swap1\n      tag_22\n      jump\t// in\n    tag_21:\n      tag_23\n      jump\t// in\n    tag_20:\n      mload(0x40)\n      tag_24\n      swap6\n      swap5\n      swap4\n      swap3\n      swap2\n      swap1\n      tag_25\n      jump\t// in\n    tag_24:\n      mload(0x40)\n      dup1\n      swap2\n      sub\n      swap1\n      return\n        /* \"carbon.sol\":5090:5455  function executeProposal(uint256 _proposalId) public {... */\n    tag_3:\n      callvalue\n      dup1\n      iszero\n      tag_26\n      jumpi\n      0x00\n      dup1\n      revert\n    tag_26:\n      pop\n      tag_27\n      0x04\n      dup1\n      calldatasize\n      sub\n      dup2\n      add\n      swap1\n      tag_28\n      swap2\n      swap1\n      tag_22\n      jump\t// in\n    tag_28:\n      tag_29\n      jump\t// in\n    tag_27:\n      stop\n        /* \"carbon.sol\":377:420  mapping(uint256 => Project) public projects */\n    tag_4:\n      callvalue\n      dup1\n      iszero\n      tag_30\n      jumpi\n      0x00\n      dup1\n      revert\n    tag_30:\n      pop\n      tag_31\n      0x04\n      dup1\n      calldatasize\n      sub\n      dup2\n      add\n      swap1\n      tag_32\n      swap2\n      swap1\n      tag_22\n      jump\t// in\n    tag_32:\n      tag_33\n      jump\t// in\n    tag_31:\n      mload(0x40)\n      tag_34\n      swap6\n      swap5\n      swap4\n      swap3\n      swap2\n      swap1\n      tag_35\n      jump\t// in\n    tag_34:\n      mload(0x40)\n      dup1\n      swap2\n      sub\n      swap1\n      return\n        /* \"carbon.sol\":4640:5032  function voteOnProposal(uint256 _proposalId, bool _support) public {... */\n    tag_5:\n      callvalue\n      dup1\n      iszero\n      tag_36\n      jumpi\n      0x00\n      dup1\n      revert\n    tag_36:\n      pop\n      tag_37\n      0x04\n      dup1\n      calldatasize\n      sub\n      dup2\n      add\n      swap1\n      tag_38\n      swap2\n      swap1\n      tag_39\n      jump\t// in\n    tag_38:\n      tag_40\n      jump\t// in\n    tag_37:\n      stop\n        /* \"carbon.sol\":515:581  mapping(address => mapping(uint256 => uint256)) public userCredits */\n    tag_6:\n      callvalue\n      dup1\n      iszero\n      tag_41\n      jumpi\n      0x00\n      dup1\n      revert\n    tag_41:\n      pop\n      tag_42\n      0x04\n      dup1\n      calldatasize\n      sub\n      dup2\n      add\n      swap1\n      tag_43\n      swap2\n      swap1\n      tag_44\n      jump\t// in\n    tag_43:\n      tag_45\n      jump\t// in\n    tag_42:\n      mload(0x40)\n      tag_46\n      swap2\n      swap1\n      tag_47\n      jump\t// in\n    tag_46:\n      mload(0x40)\n      dup1\n      swap2\n      sub\n      swap1\n      return\n        /* \"carbon.sol\":427:454  uint256 public projectCount */\n    tag_7:\n      callvalue\n      dup1\n      iszero\n      tag_48\n      jumpi\n      0x00\n      dup1\n      revert\n    tag_48:\n      pop\n      tag_49\n      tag_50\n      jump\t// in\n    tag_49:\n      mload(0x40)\n      tag_51\n      swap2\n      swap1\n      tag_47\n      jump\t// in\n    tag_51:\n      mload(0x40)\n      dup1\n      swap2\n      sub\n      swap1\n      return\n        /* \"carbon.sol\":2687:2988  function retireCredits(uint256 _projectId, uint256 _credits) public {... */\n    tag_8:\n      callvalue\n      dup1\n      iszero\n      tag_52\n      jumpi\n      0x00\n      dup1\n      revert\n    tag_52:\n      pop\n      tag_53\n      0x04\n      dup1\n      calldatasize\n      sub\n      dup2\n      add\n      swap1\n      tag_54\n      swap2\n      swap1\n      tag_55\n      jump\t// in\n    tag_54:\n      tag_56\n      jump\t// in\n    tag_53:\n      stop\n        /* \"carbon.sol\":4248:4605  function createProposal(string memory _description) public {... */\n    tag_9:\n      callvalue\n      dup1\n      iszero\n      tag_57\n      jumpi\n      0x00\n      dup1\n      revert\n    tag_57:\n      pop\n      tag_58\n      0x04\n      dup1\n      calldatasize\n      sub\n      dup2\n      add\n      swap1\n      tag_59\n      swap2\n      swap1\n      tag_60\n      jump\t// in\n    tag_59:\n      tag_61\n      jump\t// in\n    tag_58:\n      stop\n        /* \"carbon.sol\":1875:2629  function purchaseCredits(uint256 _projectId, uint256 _credits) public payable {... */\n    tag_10:\n      tag_62\n      0x04\n      dup1\n      calldatasize\n      sub\n      dup2\n      add\n      swap1\n      tag_63\n      swap2\n      swap1\n      tag_55\n      jump\t// in\n    tag_63:\n      tag_64\n      jump\t// in\n    tag_62:\n      stop\n        /* \"carbon.sol\":3568:3687  function getUserReputation(address _user) public view returns (uint256) {... */\n    tag_11:\n      callvalue\n      dup1\n      iszero\n      tag_65\n      jumpi\n      0x00\n      dup1\n      revert\n    tag_65:\n      pop\n      tag_66\n      0x04\n      dup1\n      calldatasize\n      sub\n      dup2\n      add\n      swap1\n      tag_67\n      swap2\n      swap1\n      tag_68\n      jump\t// in\n    tag_67:\n      tag_69\n      jump\t// in\n    tag_66:\n      mload(0x40)\n      tag_70\n      swap2\n      swap1\n      tag_47\n      jump\t// in\n    tag_70:\n      mload(0x40)\n      dup1\n      swap2\n      sub\n      swap1\n      return\n        /* \"carbon.sol\":3378:3523  function getUserCredits(address _user, uint256 _projectId) public view returns (uint256) {... */\n    tag_12:\n      callvalue\n      dup1\n      iszero\n      tag_71\n      jumpi\n      0x00\n      dup1\n      revert\n    tag_71:\n      pop\n      tag_72\n      0x04\n      dup1\n      calldatasize\n      sub\n      dup2\n      add\n      swap1\n      tag_73\n      swap2\n      swap1\n      tag_44\n      jump\t// in\n    tag_73:\n      tag_74\n      jump\t// in\n    tag_72:\n      mload(0x40)\n      tag_75\n      swap2\n      swap1\n      tag_47\n      jump\t// in\n    tag_75:\n      mload(0x40)\n      dup1\n      swap2\n      sub\n      swap1\n      return\n        /* \"carbon.sol\":638:687  mapping(address => uint256) public userReputation */\n    tag_13:\n      callvalue\n      dup1\n      iszero\n      tag_76\n      jumpi\n      0x00\n      dup1\n      revert\n    tag_76:\n      pop\n      tag_77\n      0x04\n      dup1\n      calldatasize\n      sub\n      dup2\n      add\n      swap1\n      tag_78\n      swap2\n      swap1\n      tag_68\n      jump\t// in\n    tag_78:\n      tag_79\n      jump\t// in\n    tag_77:\n      mload(0x40)\n      tag_80\n      swap2\n      swap1\n      tag_47\n      jump\t// in\n    tag_80:\n      mload(0x40)\n      dup1\n      swap2\n      sub\n      swap1\n      return\n        /* \"carbon.sol\":1179:1820  function registerProject(string memory _name, uint256 _totalCredits, uint256 _pricePerCredit) public {... */\n    tag_14:\n      callvalue\n      dup1\n      iszero\n      tag_81\n      jumpi\n      0x00\n      dup1\n      revert\n    tag_81:\n      pop\n      tag_82\n      0x04\n      dup1\n      calldatasize\n      sub\n      dup2\n      add\n      swap1\n      tag_83\n      swap2\n      swap1\n      tag_84\n      jump\t// in\n    tag_83:\n      tag_85\n      jump\t// in\n    tag_82:\n      stop\n        /* \"carbon.sol\":3024:3320  function getProject(uint256 _projectId) public view returns (string memory, uint256, uint256, uint256, address) {... */\n    tag_15:\n      callvalue\n      dup1\n      iszero\n      tag_86\n      jumpi\n      0x00\n      dup1\n      revert\n    tag_86:\n      pop\n      tag_87\n      0x04\n      dup1\n      calldatasize\n      sub\n      dup2\n      add\n      swap1\n      tag_88\n      swap2\n      swap1\n      tag_22\n      jump\t// in\n    tag_88:\n      tag_89\n      jump\t// in\n    tag_87:\n      mload(0x40)\n      tag_90\n      swap6\n      swap5\n      swap4\n      swap3\n      swap2\n      swap1\n      tag_91\n      jump\t// in\n    tag_90:\n      mload(0x40)\n      dup1\n      swap2\n      sub\n      swap1\n      return\n        /* \"carbon.sol\":3927:3954  Proposal[] public proposals */\n    tag_23:\n      0x04\n      dup2\n      dup2\n      sload\n      dup2\n      lt\n      tag_92\n      jumpi\n      0x00\n      dup1\n      revert\n    tag_92:\n      swap1\n      0x00\n      mstore\n      keccak256(0x00, 0x20)\n      swap1\n      0x05\n      mul\n      add\n      0x00\n      swap2\n      pop\n      swap1\n      pop\n      dup1\n      0x00\n      add\n      0x00\n      swap1\n      sload\n      swap1\n      0x0100\n      exp\n      swap1\n      div\n      0xffffffffffffffffffffffffffffffffffffffff\n      and\n      swap1\n      dup1\n      0x01\n      add\n      dup1\n      sload\n      tag_94\n      swap1\n      tag_95\n      jump\t// in\n    tag_94:\n      dup1\n      0x1f\n      add\n      0x20\n      dup1\n      swap2\n      div\n      mul\n      0x20\n      add\n      mload(0x40)\n      swap1\n      dup2\n      add\n      0x40\n      mstore\n      dup1\n      swap3\n      swap2\n      swap1\n      dup2\n      dup2\n      mstore\n      0x20\n      add\n      dup3\n      dup1\n      sload\n      tag_96\n      swap1\n      tag_95\n      jump\t// in\n    tag_96:\n      dup1\n      iszero\n      tag_97\n      jumpi\n      dup1\n      0x1f\n      lt\n      tag_98\n      jumpi\n      0x0100\n      dup1\n      dup4\n      sload\n      div\n      mul\n      dup4\n      mstore\n      swap2\n      0x20\n      add\n      swap2\n      jump(tag_97)\n    tag_98:\n      dup3\n      add\n      swap2\n      swap1\n      0x00\n      mstore\n      keccak256(0x00, 0x20)\n      swap1\n    tag_99:\n      dup2\n      sload\n      dup2\n      mstore\n      swap1\n      0x01\n      add\n      swap1\n      0x20\n      add\n      dup1\n      dup4\n      gt\n      tag_99\n      jumpi\n      dup3\n      swap1\n      sub\n      0x1f\n      and\n      dup3\n      add\n      swap2\n    tag_97:\n      pop\n      pop\n      pop\n      pop\n      pop\n      swap1\n      dup1\n      0x02\n      add\n      sload\n      swap1\n      dup1\n      0x03\n      add\n      sload\n      swap1\n      dup1\n      0x04\n      add\n      0x00\n      swap1\n      sload\n      swap1\n      0x0100\n      exp\n      swap1\n      div\n      0xff\n      and\n      swap1\n      pop\n      dup6\n      jump\t// out\n        /* \"carbon.sol\":5090:5455  function executeProposal(uint256 _proposalId) public {... */\n    tag_29:\n        /* \"carbon.sol\":5154:5179  Proposal storage proposal */\n      0x00\n        /* \"carbon.sol\":5182:5191  proposals */\n      0x04\n        /* \"carbon.sol\":5192:5203  _proposalId */\n      dup3\n        /* \"carbon.sol\":5182:5204  proposals[_proposalId] */\n      dup2\n      sload\n      dup2\n      lt\n      tag_101\n      jumpi\n      tag_102\n      tag_103\n      jump\t// in\n    tag_102:\n    tag_101:\n      swap1\n      0x00\n      mstore\n      keccak256(0x00, 0x20)\n      swap1\n      0x05\n      mul\n      add\n        /* \"carbon.sol\":5154:5204  Proposal storage proposal = proposals[_proposalId] */\n      swap1\n      pop\n        /* \"carbon.sol\":5224:5232  proposal */\n      dup1\n        /* \"carbon.sol\":5224:5241  proposal.executed */\n      0x04\n      add\n      0x00\n      swap1\n      sload\n      swap1\n      0x0100\n      exp\n      swap1\n      div\n      0xff\n      and\n        /* \"carbon.sol\":5223:5241  !proposal.executed */\n      iszero\n        /* \"carbon.sol\":5215:5271  require(!proposal.executed, \"Proposal already executed\") */\n      tag_105\n      jumpi\n      mload(0x40)\n      0x08c379a000000000000000000000000000000000000000000000000000000000\n      dup2\n      mstore\n      0x04\n      add\n      tag_106\n      swap1\n      tag_107\n      jump\t// in\n    tag_106:\n      mload(0x40)\n      dup1\n      swap2\n      sub\n      swap1\n      revert\n    tag_105:\n        /* \"carbon.sol\":5310:5318  proposal */\n      dup1\n        /* \"carbon.sol\":5310:5331  proposal.votesAgainst */\n      0x03\n      add\n      sload\n        /* \"carbon.sol\":5290:5298  proposal */\n      dup2\n        /* \"carbon.sol\":5290:5307  proposal.votesFor */\n      0x02\n      add\n      sload\n        /* \"carbon.sol\":5290:5331  proposal.votesFor > proposal.votesAgainst */\n      gt\n        /* \"carbon.sol\":5282:5357  require(proposal.votesFor > proposal.votesAgainst, \"Proposal did not pass\") */\n      tag_108\n      jumpi\n      mload(0x40)\n      0x08c379a000000000000000000000000000000000000000000000000000000000\n      dup2\n      mstore\n      0x04\n      add\n      tag_109\n      swap1\n      tag_110\n      jump\t// in\n    tag_109:\n      mload(0x40)\n      dup1\n      swap2\n      sub\n      swap1\n      revert\n    tag_108:\n        /* \"carbon.sol\":5443:5447  true */\n      0x01\n        /* \"carbon.sol\":5423:5431  proposal */\n      dup2\n        /* \"carbon.sol\":5423:5440  proposal.executed */\n      0x04\n      add\n      0x00\n        /* \"carbon.sol\":5423:5447  proposal.executed = true */\n      0x0100\n      exp\n      dup2\n      sload\n      dup2\n      0xff\n      mul\n      not\n      and\n      swap1\n      dup4\n      iszero\n      iszero\n      mul\n      or\n      swap1\n      sstore\n      pop\n        /* \"carbon.sol\":5143:5455  {... */\n      pop\n        /* \"carbon.sol\":5090:5455  function executeProposal(uint256 _proposalId) public {... */\n      pop\n      jump\t// out\n        /* \"carbon.sol\":377:420  mapping(uint256 => Project) public projects */\n    tag_33:\n      mstore(0x20, 0x00)\n      dup1\n      0x00\n      mstore\n      keccak256(0x00, 0x40)\n      0x00\n      swap2\n      pop\n      swap1\n      pop\n      dup1\n      0x00\n      add\n      0x00\n      swap1\n      sload\n      swap1\n      0x0100\n      exp\n      swap1\n      div\n      0xffffffffffffffffffffffffffffffffffffffff\n      and\n      swap1\n      dup1\n      0x01\n      add\n      dup1\n      sload\n      tag_111\n      swap1\n      tag_95\n      jump\t// in\n    tag_111:\n      dup1\n      0x1f\n      add\n      0x20\n      dup1\n      swap2\n      div\n      mul\n      0x20\n      add\n      mload(0x40)\n      swap1\n      dup2\n      add\n      0x40\n      mstore\n      dup1\n      swap3\n      swap2\n      swap1\n      dup2\n      dup2\n      mstore\n      0x20\n      add\n      dup3\n      dup1\n      sload\n      tag_112\n      swap1\n      tag_95\n      jump\t// in\n    tag_112:\n      dup1\n      iszero\n      tag_113\n      jumpi\n      dup1\n      0x1f\n      lt\n      tag_114\n      jumpi\n      0x0100\n      dup1\n      dup4\n      sload\n      div\n      mul\n      dup4\n      mstore\n      swap2\n      0x20\n      add\n      swap2\n      jump(tag_113)\n    tag_114:\n      dup3\n      add\n      swap2\n      swap1\n      0x00\n      mstore\n      keccak256(0x00, 0x20)\n      swap1\n    tag_115:\n      dup2\n      sload\n      dup2\n      mstore\n      swap1\n      0x01\n      add\n      swap1\n      0x20\n      add\n      dup1\n      dup4\n      gt\n      tag_115\n      jumpi\n      dup3\n      swap1\n      sub\n      0x1f\n      and\n      dup3\n      add\n      swap2\n    tag_113:\n      pop\n      pop\n      pop\n      pop\n      pop\n      swap1\n      dup1\n      0x02\n      add\n      sload\n      swap1\n      dup1\n      0x03\n      add\n      sload\n      swap1\n      dup1\n      0x04\n      add\n      sload\n      swap1\n      pop\n      dup6\n      jump\t// out\n        /* \"carbon.sol\":4640:5032  function voteOnProposal(uint256 _proposalId, bool _support) public {... */\n    tag_40:\n        /* \"carbon.sol\":4718:4743  Proposal storage proposal */\n      0x00\n        /* \"carbon.sol\":4746:4755  proposals */\n      0x04\n        /* \"carbon.sol\":4756:4767  _proposalId */\n      dup4\n        /* \"carbon.sol\":4746:4768  proposals[_proposalId] */\n      dup2\n      sload\n      dup2\n      lt\n      tag_117\n      jumpi\n      tag_118\n      tag_103\n      jump\t// in\n    tag_118:\n    tag_117:\n      swap1\n      0x00\n      mstore\n      keccak256(0x00, 0x20)\n      swap1\n      0x05\n      mul\n      add\n        /* \"carbon.sol\":4718:4768  Proposal storage proposal = proposals[_proposalId] */\n      swap1\n      pop\n        /* \"carbon.sol\":4788:4796  proposal */\n      dup1\n        /* \"carbon.sol\":4788:4805  proposal.executed */\n      0x04\n      add\n      0x00\n      swap1\n      sload\n      swap1\n      0x0100\n      exp\n      swap1\n      div\n      0xff\n      and\n        /* \"carbon.sol\":4787:4805  !proposal.executed */\n      iszero\n        /* \"carbon.sol\":4779:4835  require(!proposal.executed, \"Proposal already executed\") */\n      tag_120\n      jumpi\n      mload(0x40)\n      0x08c379a000000000000000000000000000000000000000000000000000000000\n      dup2\n      mstore\n      0x04\n      add\n      tag_121\n      swap1\n      tag_107\n      jump\t// in\n    tag_121:\n      mload(0x40)\n      dup1\n      swap2\n      sub\n      swap1\n      revert\n    tag_120:\n        /* \"carbon.sol\":4852:4860  _support */\n      dup2\n        /* \"carbon.sol\":4848:4964  if (_support) {... */\n      iszero\n      tag_122\n      jumpi\n        /* \"carbon.sol\":4877:4885  proposal */\n      dup1\n        /* \"carbon.sol\":4877:4894  proposal.votesFor */\n      0x02\n      add\n      0x00\n        /* \"carbon.sol\":4877:4896  proposal.votesFor++ */\n      dup2\n      sload\n      dup1\n      swap3\n      swap2\n      swap1\n      tag_123\n      swap1\n      tag_124\n      jump\t// in\n    tag_123:\n      swap2\n      swap1\n      pop\n      sstore\n      pop\n        /* \"carbon.sol\":4848:4964  if (_support) {... */\n      jump(tag_125)\n    tag_122:\n        /* \"carbon.sol\":4929:4937  proposal */\n      dup1\n        /* \"carbon.sol\":4929:4950  proposal.votesAgainst */\n      0x03\n      add\n      0x00\n        /* \"carbon.sol\":4929:4952  proposal.votesAgainst++ */\n      dup2\n      sload\n      dup1\n      swap3\n      swap2\n      swap1\n      tag_126\n      swap1\n      tag_124\n      jump\t// in\n    tag_126:\n      swap2\n      swap1\n      pop\n      sstore\n      pop\n        /* \"carbon.sol\":4848:4964  if (_support) {... */\n    tag_125:\n        /* \"carbon.sol\":4981:5024  VoteCast(_proposalId, msg.sender, _support) */\n      0xe71fcdac32df1877c1700e7bda2a03157e20993363a28fc35ac495cefc76e4d4\n        /* \"carbon.sol\":4990:5001  _proposalId */\n      dup4\n        /* \"carbon.sol\":5003:5013  msg.sender */\n      caller\n        /* \"carbon.sol\":5015:5023  _support */\n      dup5\n        /* \"carbon.sol\":4981:5024  VoteCast(_proposalId, msg.sender, _support) */\n      mload(0x40)\n      tag_127\n      swap4\n      swap3\n      swap2\n      swap1\n      tag_128\n      jump\t// in\n    tag_127:\n      mload(0x40)\n      dup1\n      swap2\n      sub\n      swap1\n      log1\n        /* \"carbon.sol\":4707:5032  {... */\n      pop\n        /* \"carbon.sol\":4640:5032  function voteOnProposal(uint256 _proposalId, bool _support) public {... */\n      pop\n      pop\n      jump\t// out\n        /* \"carbon.sol\":515:581  mapping(address => mapping(uint256 => uint256)) public userCredits */\n    tag_45:\n      mstore(0x20, 0x02)\n      dup2\n      0x00\n      mstore\n      mstore(0x20, keccak256(0x00, 0x40))\n      dup1\n      0x00\n      mstore\n      keccak256(0x00, 0x40)\n      0x00\n      swap2\n      pop\n      swap2\n      pop\n      pop\n      sload\n      dup2\n      jump\t// out\n        /* \"carbon.sol\":427:454  uint256 public projectCount */\n    tag_50:\n      sload(0x01)\n      dup2\n      jump\t// out\n        /* \"carbon.sol\":2687:2988  function retireCredits(uint256 _projectId, uint256 _credits) public {... */\n    tag_56:\n        /* \"carbon.sol\":2813:2821  _credits */\n      dup1\n        /* \"carbon.sol\":2774:2785  userCredits */\n      0x02\n        /* \"carbon.sol\":2774:2797  userCredits[msg.sender] */\n      0x00\n        /* \"carbon.sol\":2786:2796  msg.sender */\n      caller\n        /* \"carbon.sol\":2774:2797  userCredits[msg.sender] */\n      0xffffffffffffffffffffffffffffffffffffffff\n      and\n      0xffffffffffffffffffffffffffffffffffffffff\n      and\n      dup2\n      mstore\n      0x20\n      add\n      swap1\n      dup2\n      mstore\n      0x20\n      add\n      0x00\n      keccak256\n        /* \"carbon.sol\":2774:2809  userCredits[msg.sender][_projectId] */\n      0x00\n        /* \"carbon.sol\":2798:2808  _projectId */\n      dup5\n        /* \"carbon.sol\":2774:2809  userCredits[msg.sender][_projectId] */\n      dup2\n      mstore\n      0x20\n      add\n      swap1\n      dup2\n      mstore\n      0x20\n      add\n      0x00\n      keccak256\n      sload\n        /* \"carbon.sol\":2774:2821  userCredits[msg.sender][_projectId] >= _credits */\n      lt\n      iszero\n        /* \"carbon.sol\":2766:2856  require(userCredits[msg.sender][_projectId] >= _credits, \"Insufficient credits to retire\") */\n      tag_130\n      jumpi\n      mload(0x40)\n      0x08c379a000000000000000000000000000000000000000000000000000000000\n      dup2\n      mstore\n      0x04\n      add\n      tag_131\n      swap1\n      tag_132\n      jump\t// in\n    tag_131:\n      mload(0x40)\n      dup1\n      swap2\n      sub\n      swap1\n      revert\n    tag_130:\n        /* \"carbon.sol\":2908:2916  _credits */\n      dup1\n        /* \"carbon.sol\":2869:2880  userCredits */\n      0x02\n        /* \"carbon.sol\":2869:2892  userCredits[msg.sender] */\n      0x00\n        /* \"carbon.sol\":2881:2891  msg.sender */\n      caller\n        /* \"carbon.sol\":2869:2892  userCredits[msg.sender] */\n      0xffffffffffffffffffffffffffffffffffffffff\n      and\n      0xffffffffffffffffffffffffffffffffffffffff\n      and\n      dup2\n      mstore\n      0x20\n      add\n      swap1\n      dup2\n      mstore\n      0x20\n      add\n      0x00\n      keccak256\n        /* \"carbon.sol\":2869:2904  userCredits[msg.sender][_projectId] */\n      0x00\n        /* \"carbon.sol\":2893:2903  _projectId */\n      dup5\n        /* \"carbon.sol\":2869:2904  userCredits[msg.sender][_projectId] */\n      dup2\n      mstore\n      0x20\n      add\n      swap1\n      dup2\n      mstore\n      0x20\n      add\n      0x00\n      keccak256\n      0x00\n        /* \"carbon.sol\":2869:2916  userCredits[msg.sender][_projectId] -= _credits */\n      dup3\n      dup3\n      sload\n      tag_133\n      swap2\n      swap1\n      tag_134\n      jump\t// in\n    tag_133:\n      swap3\n      pop\n      pop\n      dup2\n      swap1\n      sstore\n      pop\n        /* \"carbon.sol\":2947:2957  msg.sender */\n      caller\n        /* \"carbon.sol\":2932:2980  CreditsRetired(msg.sender, _projectId, _credits) */\n      0xffffffffffffffffffffffffffffffffffffffff\n      and\n      0x2ffd4879af328c871cf4d2be1d40d91f5ce4f202fd47e10e4c58d19667627da8\n        /* \"carbon.sol\":2959:2969  _projectId */\n      dup4\n        /* \"carbon.sol\":2971:2979  _credits */\n      dup4\n        /* \"carbon.sol\":2932:2980  CreditsRetired(msg.sender, _projectId, _credits) */\n      mload(0x40)\n      tag_135\n      swap3\n      swap2\n      swap1\n      tag_136\n      jump\t// in\n    tag_135:\n      mload(0x40)\n      dup1\n      swap2\n      sub\n      swap1\n      log2\n        /* \"carbon.sol\":2687:2988  function retireCredits(uint256 _projectId, uint256 _credits) public {... */\n      pop\n      pop\n      jump\t// out\n        /* \"carbon.sol\":4248:4605  function createProposal(string memory _description) public {... */\n    tag_61:\n        /* \"carbon.sol\":4318:4327  proposals */\n      0x04\n        /* \"carbon.sol\":4333:4515  Proposal({... */\n      mload(0x40)\n      dup1\n      0xa0\n      add\n      0x40\n      mstore\n      dup1\n        /* \"carbon.sol\":4367:4377  msg.sender */\n      caller\n        /* \"carbon.sol\":4333:4515  Proposal({... */\n      0xffffffffffffffffffffffffffffffffffffffff\n      and\n      dup2\n      mstore\n      0x20\n      add\n        /* \"carbon.sol\":4405:4417  _description */\n      dup4\n        /* \"carbon.sol\":4333:4515  Proposal({... */\n      dup2\n      mstore\n      0x20\n      add\n        /* \"carbon.sol\":4442:4443  0 */\n      0x00\n        /* \"carbon.sol\":4333:4515  Proposal({... */\n      dup2\n      mstore\n      0x20\n      add\n        /* \"carbon.sol\":4472:4473  0 */\n      0x00\n        /* \"carbon.sol\":4333:4515  Proposal({... */\n      dup2\n      mstore\n      0x20\n      add\n        /* \"carbon.sol\":4498:4503  false */\n      0x00\n        /* \"carbon.sol\":4333:4515  Proposal({... */\n      iszero\n      iszero\n      dup2\n      mstore\n      pop\n        /* \"carbon.sol\":4318:4516  proposals.push(Proposal({... */\n      swap1\n      dup1\n      0x01\n      dup2\n      sload\n      add\n      dup1\n      dup3\n      sstore\n      dup1\n      swap2\n      pop\n      pop\n      0x01\n      swap1\n      sub\n      swap1\n      0x00\n      mstore\n      keccak256(0x00, 0x20)\n      swap1\n      0x05\n      mul\n      add\n      0x00\n      swap1\n      swap2\n      swap1\n      swap2\n      swap1\n      swap2\n      pop\n      0x00\n      dup3\n      add\n      mload\n      dup2\n      0x00\n      add\n      exp(0x0100, 0x00)\n      dup2\n      sload\n      dup2\n      0xffffffffffffffffffffffffffffffffffffffff\n      mul\n      not\n      and\n      swap1\n      dup4\n      0xffffffffffffffffffffffffffffffffffffffff\n      and\n      mul\n      or\n      swap1\n      sstore\n      pop\n      0x20\n      dup3\n      add\n      mload\n      dup2\n      0x01\n      add\n      swap1\n      dup2\n      tag_139\n      swap2\n      swap1\n      tag_140\n      jump\t// in\n    tag_139:\n      pop\n      0x40\n      dup3\n      add\n      mload\n      dup2\n      0x02\n      add\n      sstore\n      0x60\n      dup3\n      add\n      mload\n      dup2\n      0x03\n      add\n      sstore\n      0x80\n      dup3\n      add\n      mload\n      dup2\n      0x04\n      add\n      exp(0x0100, 0x00)\n      dup2\n      sload\n      dup2\n      0xff\n      mul\n      not\n      and\n      swap1\n      dup4\n      iszero\n      iszero\n      mul\n      or\n      swap1\n      sstore\n      pop\n      pop\n      pop\n        /* \"carbon.sol\":4534:4597  ProposalCreated(proposals.length - 1, _description, msg.sender) */\n      0xc8c078bfee58e5822588f08b4509ed1eb5058e03f666cca84dd2d44bf5c288a8\n        /* \"carbon.sol\":4569:4570  1 */\n      0x01\n        /* \"carbon.sol\":4550:4559  proposals */\n      0x04\n        /* \"carbon.sol\":4550:4566  proposals.length */\n      dup1\n      sload\n      swap1\n      pop\n        /* \"carbon.sol\":4550:4570  proposals.length - 1 */\n      tag_141\n      swap2\n      swap1\n      tag_134\n      jump\t// in\n    tag_141:\n        /* \"carbon.sol\":4572:4584  _description */\n      dup3\n        /* \"carbon.sol\":4586:4596  msg.sender */\n      caller\n        /* \"carbon.sol\":4534:4597  ProposalCreated(proposals.length - 1, _description, msg.sender) */\n      mload(0x40)\n      tag_142\n      swap4\n      swap3\n      swap2\n      swap1\n      tag_143\n      jump\t// in\n    tag_142:\n      mload(0x40)\n      dup1\n      swap2\n      sub\n      swap1\n      log1\n        /* \"carbon.sol\":4248:4605  function createProposal(string memory _description) public {... */\n      pop\n      jump\t// out\n        /* \"carbon.sol\":1875:2629  function purchaseCredits(uint256 _projectId, uint256 _credits) public payable {... */\n    tag_64:\n        /* \"carbon.sol\":1964:1987  Project storage project */\n      0x00\n        /* \"carbon.sol\":1990:1998  projects */\n      dup1\n        /* \"carbon.sol\":1990:2010  projects[_projectId] */\n      0x00\n        /* \"carbon.sol\":1999:2009  _projectId */\n      dup5\n        /* \"carbon.sol\":1990:2010  projects[_projectId] */\n      dup2\n      mstore\n      0x20\n      add\n      swap1\n      dup2\n      mstore\n      0x20\n      add\n      0x00\n      keccak256\n        /* \"carbon.sol\":1964:2010  Project storage project = projects[_projectId] */\n      swap1\n      pop\n        /* \"carbon.sol\":2040:2041  0 */\n      0x00\n        /* \"carbon.sol\":2029:2037  _credits */\n      dup3\n        /* \"carbon.sol\":2029:2041  _credits > 0 */\n      gt\n        /* \"carbon.sol\":2021:2081  require(_credits > 0, \"Credits should be greater than zero\") */\n      tag_145\n      jumpi\n      mload(0x40)\n      0x08c379a000000000000000000000000000000000000000000000000000000000\n      dup2\n      mstore\n      0x04\n      add\n      tag_146\n      swap1\n      tag_147\n      jump\t// in\n    tag_146:\n      mload(0x40)\n      dup1\n      swap2\n      sub\n      swap1\n      revert\n    tag_145:\n        /* \"carbon.sol\":2112:2119  project */\n      dup1\n        /* \"carbon.sol\":2112:2136  project.availableCredits */\n      0x03\n      add\n      sload\n        /* \"carbon.sol\":2100:2108  _credits */\n      dup3\n        /* \"carbon.sol\":2100:2136  _credits <= project.availableCredits */\n      gt\n      iszero\n        /* \"carbon.sol\":2092:2169  require(_credits <= project.availableCredits, \"Not enough available credits\") */\n      tag_148\n      jumpi\n      mload(0x40)\n      0x08c379a000000000000000000000000000000000000000000000000000000000\n      dup2\n      mstore\n      0x04\n      add\n      tag_149\n      swap1\n      tag_150\n      jump\t// in\n    tag_149:\n      mload(0x40)\n      dup1\n      swap2\n      sub\n      swap1\n      revert\n    tag_148:\n        /* \"carbon.sol\":2212:2219  project */\n      dup1\n        /* \"carbon.sol\":2212:2234  project.pricePerCredit */\n      0x04\n      add\n      sload\n        /* \"carbon.sol\":2201:2209  _credits */\n      dup3\n        /* \"carbon.sol\":2201:2234  _credits * project.pricePerCredit */\n      tag_151\n      swap2\n      swap1\n      tag_152\n      jump\t// in\n    tag_151:\n        /* \"carbon.sol\":2188:2197  msg.value */\n      callvalue\n        /* \"carbon.sol\":2188:2234  msg.value >= _credits * project.pricePerCredit */\n      lt\n      iszero\n        /* \"carbon.sol\":2180:2259  require(msg.value >= _credits * project.pricePerCredit, \"Insufficient payment\") */\n      tag_153\n      jumpi\n      mload(0x40)\n      0x08c379a000000000000000000000000000000000000000000000000000000000\n      dup2\n      mstore\n      0x04\n      add\n      tag_154\n      swap1\n      tag_155\n      jump\t// in\n    tag_154:\n      mload(0x40)\n      dup1\n      swap2\n      sub\n      swap1\n      revert\n    tag_153:\n        /* \"carbon.sol\":2300:2308  _credits */\n      dup2\n        /* \"carbon.sol\":2272:2279  project */\n      dup2\n        /* \"carbon.sol\":2272:2296  project.availableCredits */\n      0x03\n      add\n      0x00\n        /* \"carbon.sol\":2272:2308  project.availableCredits -= _credits */\n      dup3\n      dup3\n      sload\n      tag_156\n      swap2\n      swap1\n      tag_134\n      jump\t// in\n    tag_156:\n      swap3\n      pop\n      pop\n      dup2\n      swap1\n      sstore\n      pop\n        /* \"carbon.sol\":2358:2366  _credits */\n      dup2\n        /* \"carbon.sol\":2319:2330  userCredits */\n      0x02\n        /* \"carbon.sol\":2319:2342  userCredits[msg.sender] */\n      0x00\n        /* \"carbon.sol\":2331:2341  msg.sender */\n      caller\n        /* \"carbon.sol\":2319:2342  userCredits[msg.sender] */\n      0xffffffffffffffffffffffffffffffffffffffff\n      and\n      0xffffffffffffffffffffffffffffffffffffffff\n      and\n      dup2\n      mstore\n      0x20\n      add\n      swap1\n      dup2\n      mstore\n      0x20\n      add\n      0x00\n      keccak256\n        /* \"carbon.sol\":2319:2354  userCredits[msg.sender][_projectId] */\n      0x00\n        /* \"carbon.sol\":2343:2353  _projectId */\n      dup6\n        /* \"carbon.sol\":2319:2354  userCredits[msg.sender][_projectId] */\n      dup2\n      mstore\n      0x20\n      add\n      swap1\n      dup2\n      mstore\n      0x20\n      add\n      0x00\n      keccak256\n      0x00\n        /* \"carbon.sol\":2319:2366  userCredits[msg.sender][_projectId] += _credits */\n      dup3\n      dup3\n      sload\n      tag_157\n      swap2\n      swap1\n      tag_158\n      jump\t// in\n    tag_157:\n      swap3\n      pop\n      pop\n      dup2\n      swap1\n      sstore\n      pop\n        /* \"carbon.sol\":2407:2415  _credits */\n      dup2\n        /* \"carbon.sol\":2377:2391  userReputation */\n      0x03\n        /* \"carbon.sol\":2377:2403  userReputation[msg.sender] */\n      0x00\n        /* \"carbon.sol\":2392:2402  msg.sender */\n      caller\n        /* \"carbon.sol\":2377:2403  userReputation[msg.sender] */\n      0xffffffffffffffffffffffffffffffffffffffff\n      and\n      0xffffffffffffffffffffffffffffffffffffffff\n      and\n      dup2\n      mstore\n      0x20\n      add\n      swap1\n      dup2\n      mstore\n      0x20\n      add\n      0x00\n      keccak256\n      0x00\n        /* \"carbon.sol\":2377:2415  userReputation[msg.sender] += _credits */\n      dup3\n      dup3\n      sload\n      tag_159\n      swap2\n      swap1\n      tag_158\n      jump\t// in\n    tag_159:\n      swap3\n      pop\n      pop\n      dup2\n      swap1\n      sstore\n      pop\n        /* \"carbon.sol\":2519:2526  project */\n      dup1\n        /* \"carbon.sol\":2519:2532  project.owner */\n      0x00\n      add\n      0x00\n      swap1\n      sload\n      swap1\n      0x0100\n      exp\n      swap1\n      div\n      0xffffffffffffffffffffffffffffffffffffffff\n      and\n        /* \"carbon.sol\":2511:2542  payable(project.owner).transfer */\n      0xffffffffffffffffffffffffffffffffffffffff\n      and\n        /* \"carbon.sol\":2511:2553  payable(project.owner).transfer(msg.value) */\n      0x08fc\n        /* \"carbon.sol\":2543:2552  msg.value */\n      callvalue\n        /* \"carbon.sol\":2511:2553  payable(project.owner).transfer(msg.value) */\n      swap1\n      dup2\n      iszero\n      mul\n      swap1\n      mload(0x40)\n      0x00\n      mload(0x40)\n      dup1\n      dup4\n      sub\n      dup2\n      dup6\n      dup9\n      dup9\n      call\n      swap4\n      pop\n      pop\n      pop\n      pop\n      iszero\n      dup1\n      iszero\n      tag_161\n      jumpi\n      returndatasize\n      0x00\n      dup1\n      returndatacopy\n      revert(0x00, returndatasize)\n    tag_161:\n      pop\n        /* \"carbon.sol\":2588:2598  msg.sender */\n      caller\n        /* \"carbon.sol\":2571:2621  CreditsPurchased(msg.sender, _projectId, _credits) */\n      0xffffffffffffffffffffffffffffffffffffffff\n      and\n      0xfb82fc1c5adf84899709e87563b69dd5f4ac33320f1c60dbca744bec717eb90f\n        /* \"carbon.sol\":2600:2610  _projectId */\n      dup5\n        /* \"carbon.sol\":2612:2620  _credits */\n      dup5\n        /* \"carbon.sol\":2571:2621  CreditsPurchased(msg.sender, _projectId, _credits) */\n      mload(0x40)\n      tag_162\n      swap3\n      swap2\n      swap1\n      tag_136\n      jump\t// in\n    tag_162:\n      mload(0x40)\n      dup1\n      swap2\n      sub\n      swap1\n      log2\n        /* \"carbon.sol\":1953:2629  {... */\n      pop\n        /* \"carbon.sol\":1875:2629  function purchaseCredits(uint256 _projectId, uint256 _credits) public payable {... */\n      pop\n      pop\n      jump\t// out\n        /* \"carbon.sol\":3568:3687  function getUserReputation(address _user) public view returns (uint256) {... */\n    tag_69:\n        /* \"carbon.sol\":3631:3638  uint256 */\n      0x00\n        /* \"carbon.sol\":3658:3672  userReputation */\n      0x03\n        /* \"carbon.sol\":3658:3679  userReputation[_user] */\n      0x00\n        /* \"carbon.sol\":3673:3678  _user */\n      dup4\n        /* \"carbon.sol\":3658:3679  userReputation[_user] */\n      0xffffffffffffffffffffffffffffffffffffffff\n      and\n      0xffffffffffffffffffffffffffffffffffffffff\n      and\n      dup2\n      mstore\n      0x20\n      add\n      swap1\n      dup2\n      mstore\n      0x20\n      add\n      0x00\n      keccak256\n      sload\n        /* \"carbon.sol\":3651:3679  return userReputation[_user] */\n      swap1\n      pop\n        /* \"carbon.sol\":3568:3687  function getUserReputation(address _user) public view returns (uint256) {... */\n      swap2\n      swap1\n      pop\n      jump\t// out\n        /* \"carbon.sol\":3378:3523  function getUserCredits(address _user, uint256 _projectId) public view returns (uint256) {... */\n    tag_74:\n        /* \"carbon.sol\":3458:3465  uint256 */\n      0x00\n        /* \"carbon.sol\":3485:3496  userCredits */\n      0x02\n        /* \"carbon.sol\":3485:3503  userCredits[_user] */\n      0x00\n        /* \"carbon.sol\":3497:3502  _user */\n      dup5\n        /* \"carbon.sol\":3485:3503  userCredits[_user] */\n      0xffffffffffffffffffffffffffffffffffffffff\n      and\n      0xffffffffffffffffffffffffffffffffffffffff\n      and\n      dup2\n      mstore\n      0x20\n      add\n      swap1\n      dup2\n      mstore\n      0x20\n      add\n      0x00\n      keccak256\n        /* \"carbon.sol\":3485:3515  userCredits[_user][_projectId] */\n      0x00\n        /* \"carbon.sol\":3504:3514  _projectId */\n      dup4\n        /* \"carbon.sol\":3485:3515  userCredits[_user][_projectId] */\n      dup2\n      mstore\n      0x20\n      add\n      swap1\n      dup2\n      mstore\n      0x20\n      add\n      0x00\n      keccak256\n      sload\n        /* \"carbon.sol\":3478:3515  return userCredits[_user][_projectId] */\n      swap1\n      pop\n        /* \"carbon.sol\":3378:3523  function getUserCredits(address _user, uint256 _projectId) public view returns (uint256) {... */\n      swap3\n      swap2\n      pop\n      pop\n      jump\t// out\n        /* \"carbon.sol\":638:687  mapping(address => uint256) public userReputation */\n    tag_79:\n      mstore(0x20, 0x03)\n      dup1\n      0x00\n      mstore\n      keccak256(0x00, 0x40)\n      0x00\n      swap2\n      pop\n      swap1\n      pop\n      sload\n      dup2\n      jump\t// out\n        /* \"carbon.sol\":1179:1820  function registerProject(string memory _name, uint256 _totalCredits, uint256 _pricePerCredit) public {... */\n    tag_85:\n        /* \"carbon.sol\":1315:1316  0 */\n      0x00\n        /* \"carbon.sol\":1299:1312  _totalCredits */\n      dup3\n        /* \"carbon.sol\":1299:1316  _totalCredits > 0 */\n      gt\n        /* \"carbon.sol\":1291:1362  require(_totalCredits > 0, \"Total credits should be greater than zero\") */\n      tag_166\n      jumpi\n      mload(0x40)\n      0x08c379a000000000000000000000000000000000000000000000000000000000\n      dup2\n      mstore\n      0x04\n      add\n      tag_167\n      swap1\n      tag_168\n      jump\t// in\n    tag_167:\n      mload(0x40)\n      dup1\n      swap2\n      sub\n      swap1\n      revert\n    tag_166:\n        /* \"carbon.sol\":1399:1400  0 */\n      0x00\n        /* \"carbon.sol\":1381:1396  _pricePerCredit */\n      dup2\n        /* \"carbon.sol\":1381:1400  _pricePerCredit > 0 */\n      gt\n        /* \"carbon.sol\":1373:1449  require(_pricePerCredit > 0, \"Price per credit should be greater than zero\") */\n      tag_169\n      jumpi\n      mload(0x40)\n      0x08c379a000000000000000000000000000000000000000000000000000000000\n      dup2\n      mstore\n      0x04\n      add\n      tag_170\n      swap1\n      tag_171\n      jump\t// in\n    tag_170:\n      mload(0x40)\n      dup1\n      swap2\n      sub\n      swap1\n      revert\n    tag_169:\n        /* \"carbon.sol\":1487:1699  Project({... */\n      mload(0x40)\n      dup1\n      0xa0\n      add\n      0x40\n      mstore\n      dup1\n        /* \"carbon.sol\":1517:1527  msg.sender */\n      caller\n        /* \"carbon.sol\":1487:1699  Project({... */\n      0xffffffffffffffffffffffffffffffffffffffff\n      and\n      dup2\n      mstore\n      0x20\n      add\n        /* \"carbon.sol\":1548:1553  _name */\n      dup5\n        /* \"carbon.sol\":1487:1699  Project({... */\n      dup2\n      mstore\n      0x20\n      add\n        /* \"carbon.sol\":1582:1595  _totalCredits */\n      dup4\n        /* \"carbon.sol\":1487:1699  Project({... */\n      dup2\n      mstore\n      0x20\n      add\n        /* \"carbon.sol\":1628:1641  _totalCredits */\n      dup4\n        /* \"carbon.sol\":1487:1699  Project({... */\n      dup2\n      mstore\n      0x20\n      add\n        /* \"carbon.sol\":1672:1687  _pricePerCredit */\n      dup3\n        /* \"carbon.sol\":1487:1699  Project({... */\n      dup2\n      mstore\n      pop\n        /* \"carbon.sol\":1462:1470  projects */\n      0x00\n        /* \"carbon.sol\":1462:1484  projects[projectCount] */\n      dup1\n        /* \"carbon.sol\":1471:1483  projectCount */\n      sload(0x01)\n        /* \"carbon.sol\":1462:1484  projects[projectCount] */\n      dup2\n      mstore\n      0x20\n      add\n      swap1\n      dup2\n      mstore\n      0x20\n      add\n      0x00\n      keccak256\n        /* \"carbon.sol\":1462:1699  projects[projectCount] = Project({... */\n      0x00\n      dup3\n      add\n      mload\n      dup2\n      0x00\n      add\n      exp(0x0100, 0x00)\n      dup2\n      sload\n      dup2\n      0xffffffffffffffffffffffffffffffffffffffff\n      mul\n      not\n      and\n      swap1\n      dup4\n      0xffffffffffffffffffffffffffffffffffffffff\n      and\n      mul\n      or\n      swap1\n      sstore\n      pop\n      0x20\n      dup3\n      add\n      mload\n      dup2\n      0x01\n      add\n      swap1\n      dup2\n      tag_172\n      swap2\n      swap1\n      tag_140\n      jump\t// in\n    tag_172:\n      pop\n      0x40\n      dup3\n      add\n      mload\n      dup2\n      0x02\n      add\n      sstore\n      0x60\n      dup3\n      add\n      mload\n      dup2\n      0x03\n      add\n      sstore\n      0x80\n      dup3\n      add\n      mload\n      dup2\n      0x04\n      add\n      sstore\n      swap1\n      pop\n      pop\n        /* \"carbon.sol\":1717:1787  ProjectRegistered(projectCount, _name, _totalCredits, _pricePerCredit) */\n      0x50c6a8b423458d44f896828d57af33000ead07320bc572c2b3d856e7a954df4b\n        /* \"carbon.sol\":1735:1747  projectCount */\n      sload(0x01)\n        /* \"carbon.sol\":1749:1754  _name */\n      dup5\n        /* \"carbon.sol\":1756:1769  _totalCredits */\n      dup5\n        /* \"carbon.sol\":1771:1786  _pricePerCredit */\n      dup5\n        /* \"carbon.sol\":1717:1787  ProjectRegistered(projectCount, _name, _totalCredits, _pricePerCredit) */\n      mload(0x40)\n      tag_173\n      swap5\n      swap4\n      swap3\n      swap2\n      swap1\n      tag_174\n      jump\t// in\n    tag_173:\n      mload(0x40)\n      dup1\n      swap2\n      sub\n      swap1\n      log1\n        /* \"carbon.sol\":1798:1810  projectCount */\n      0x01\n      0x00\n        /* \"carbon.sol\":1798:1812  projectCount++ */\n      dup2\n      sload\n      dup1\n      swap3\n      swap2\n      swap1\n      tag_175\n      swap1\n      tag_124\n      jump\t// in\n    tag_175:\n      swap2\n      swap1\n      pop\n      sstore\n      pop\n        /* \"carbon.sol\":1179:1820  function registerProject(string memory _name, uint256 _totalCredits, uint256 _pricePerCredit) public {... */\n      pop\n      pop\n      pop\n      jump\t// out\n        /* \"carbon.sol\":3024:3320  function getProject(uint256 _projectId) public view returns (string memory, uint256, uint256, uint256, address) {... */\n    tag_89:\n        /* \"carbon.sol\":3085:3098  string memory */\n      0x60\n        /* \"carbon.sol\":3100:3107  uint256 */\n      0x00\n        /* \"carbon.sol\":3109:3116  uint256 */\n      dup1\n        /* \"carbon.sol\":3118:3125  uint256 */\n      0x00\n        /* \"carbon.sol\":3127:3134  address */\n      dup1\n        /* \"carbon.sol\":3147:3170  Project storage project */\n      0x00\n        /* \"carbon.sol\":3173:3181  projects */\n      dup1\n        /* \"carbon.sol\":3173:3193  projects[_projectId] */\n      0x00\n        /* \"carbon.sol\":3182:3192  _projectId */\n      dup9\n        /* \"carbon.sol\":3173:3193  projects[_projectId] */\n      dup2\n      mstore\n      0x20\n      add\n      swap1\n      dup2\n      mstore\n      0x20\n      add\n      0x00\n      keccak256\n        /* \"carbon.sol\":3147:3193  Project storage project = projects[_projectId] */\n      swap1\n      pop\n        /* \"carbon.sol\":3212:3219  project */\n      dup1\n        /* \"carbon.sol\":3212:3224  project.name */\n      0x01\n      add\n        /* \"carbon.sol\":3226:3233  project */\n      dup2\n        /* \"carbon.sol\":3226:3246  project.totalCredits */\n      0x02\n      add\n      sload\n        /* \"carbon.sol\":3248:3255  project */\n      dup3\n        /* \"carbon.sol\":3248:3272  project.availableCredits */\n      0x03\n      add\n      sload\n        /* \"carbon.sol\":3274:3281  project */\n      dup4\n        /* \"carbon.sol\":3274:3296  project.pricePerCredit */\n      0x04\n      add\n      sload\n        /* \"carbon.sol\":3298:3305  project */\n      dup5\n        /* \"carbon.sol\":3298:3311  project.owner */\n      0x00\n      add\n      0x00\n      swap1\n      sload\n      swap1\n      0x0100\n      exp\n      swap1\n      div\n      0xffffffffffffffffffffffffffffffffffffffff\n      and\n        /* \"carbon.sol\":3204:3312  return (project.name, project.totalCredits, project.availableCredits, project.pricePerCredit, project.owner) */\n      dup5\n      dup1\n      sload\n      tag_177\n      swap1\n      tag_95\n      jump\t// in\n    tag_177:\n      dup1\n      0x1f\n      add\n      0x20\n      dup1\n      swap2\n      div\n      mul\n      0x20\n      add\n      mload(0x40)\n      swap1\n      dup2\n      add\n      0x40\n      mstore\n      dup1\n      swap3\n      swap2\n      swap1\n      dup2\n      dup2\n      mstore\n      0x20\n      add\n      dup3\n      dup1\n      sload\n      tag_178\n      swap1\n      tag_95\n      jump\t// in\n    tag_178:\n      dup1\n      iszero\n      tag_179\n      jumpi\n      dup1\n      0x1f\n      lt\n      tag_180\n      jumpi\n      0x0100\n      dup1\n      dup4\n      sload\n      div\n      mul\n      dup4\n      mstore\n      swap2\n      0x20\n      add\n      swap2\n      jump(tag_179)\n    tag_180:\n      dup3\n      add\n      swap2\n      swap1\n      0x00\n      mstore\n      keccak256(0x00, 0x20)\n      swap1\n    tag_181:\n      dup2\n      sload\n      dup2\n      mstore\n      swap1\n      0x01\n      add\n      swap1\n      0x20\n      add\n      dup1\n      dup4\n      gt\n      tag_181\n      jumpi\n      dup3\n      swap1\n      sub\n      0x1f\n      and\n      dup3\n      add\n      swap2\n    tag_179:\n      pop\n      pop\n      pop\n      pop\n      pop\n      swap5\n      pop\n      swap6\n      pop\n      swap6\n      pop\n      swap6\n      pop\n      swap6\n      pop\n      swap6\n      pop\n      pop\n        /* \"carbon.sol\":3024:3320  function getProject(uint256 _projectId) public view returns (string memory, uint256, uint256, uint256, address) {... */\n      swap2\n      swap4\n      swap6\n      swap1\n      swap3\n      swap5\n      pop\n      jump\t// out\n        /* \"#utility.yul\":7:82   */\n    tag_182:\n        /* \"#utility.yul\":40:46   */\n      0x00\n        /* \"#utility.yul\":73:75   */\n      0x40\n        /* \"#utility.yul\":67:76   */\n      mload\n        /* \"#utility.yul\":57:76   */\n      swap1\n      pop\n        /* \"#utility.yul\":7:82   */\n      swap1\n      jump\t// out\n        /* \"#utility.yul\":88:205   */\n    tag_183:\n        /* \"#utility.yul\":197:198   */\n      0x00\n        /* \"#utility.yul\":194:195   */\n      dup1\n        /* \"#utility.yul\":187:199   */\n      revert\n        /* \"#utility.yul\":211:328   */\n    tag_184:\n        /* \"#utility.yul\":320:321   */\n      0x00\n        /* \"#utility.yul\":317:318   */\n      dup1\n        /* \"#utility.yul\":310:322   */\n      revert\n        /* \"#utility.yul\":334:411   */\n    tag_185:\n        /* \"#utility.yul\":371:378   */\n      0x00\n        /* \"#utility.yul\":400:405   */\n      dup2\n        /* \"#utility.yul\":389:405   */\n      swap1\n      pop\n        /* \"#utility.yul\":334:411   */\n      swap2\n      swap1\n      pop\n      jump\t// out\n        /* \"#utility.yul\":417:539   */\n    tag_186:\n        /* \"#utility.yul\":490:514   */\n      tag_251\n        /* \"#utility.yul\":508:513   */\n      dup2\n        /* \"#utility.yul\":490:514   */\n      tag_185\n      jump\t// in\n    tag_251:\n        /* \"#utility.yul\":483:488   */\n      dup2\n        /* \"#utility.yul\":480:515   */\n      eq\n        /* \"#utility.yul\":470:533   */\n      tag_252\n      jumpi\n        /* \"#utility.yul\":529:530   */\n      0x00\n        /* \"#utility.yul\":526:527   */\n      dup1\n        /* \"#utility.yul\":519:531   */\n      revert\n        /* \"#utility.yul\":470:533   */\n    tag_252:\n        /* \"#utility.yul\":417:539   */\n      pop\n      jump\t// out\n        /* \"#utility.yul\":545:684   */\n    tag_187:\n        /* \"#utility.yul\":591:596   */\n      0x00\n        /* \"#utility.yul\":629:635   */\n      dup2\n        /* \"#utility.yul\":616:636   */\n      calldataload\n        /* \"#utility.yul\":607:636   */\n      swap1\n      pop\n        /* \"#utility.yul\":645:678   */\n      tag_254\n        /* \"#utility.yul\":672:677   */\n      dup2\n        /* \"#utility.yul\":645:678   */\n      tag_186\n      jump\t// in\n    tag_254:\n        /* \"#utility.yul\":545:684   */\n      swap3\n      swap2\n      pop\n      pop\n      jump\t// out\n        /* \"#utility.yul\":690:1019   */\n    tag_22:\n        /* \"#utility.yul\":749:755   */\n      0x00\n        /* \"#utility.yul\":798:800   */\n      0x20\n        /* \"#utility.yul\":786:795   */\n      dup3\n        /* \"#utility.yul\":777:784   */\n      dup5\n        /* \"#utility.yul\":773:796   */\n      sub\n        /* \"#utility.yul\":769:801   */\n      slt\n        /* \"#utility.yul\":766:885   */\n      iszero\n      tag_256\n      jumpi\n        /* \"#utility.yul\":804:883   */\n      tag_257\n      tag_183\n      jump\t// in\n    tag_257:\n        /* \"#utility.yul\":766:885   */\n    tag_256:\n        /* \"#utility.yul\":924:925   */\n      0x00\n        /* \"#utility.yul\":949:1002   */\n      tag_258\n        /* \"#utility.yul\":994:1001   */\n      dup5\n        /* \"#utility.yul\":985:991   */\n      dup3\n        /* \"#utility.yul\":974:983   */\n      dup6\n        /* \"#utility.yul\":970:992   */\n      add\n        /* \"#utility.yul\":949:1002   */\n      tag_187\n      jump\t// in\n    tag_258:\n        /* \"#utility.yul\":939:1002   */\n      swap2\n      pop\n        /* \"#utility.yul\":895:1012   */\n      pop\n        /* \"#utility.yul\":690:1019   */\n      swap3\n      swap2\n      pop\n      pop\n      jump\t// out\n        /* \"#utility.yul\":1025:1151   */\n    tag_188:\n        /* \"#utility.yul\":1062:1069   */\n      0x00\n        /* \"#utility.yul\":1102:1144   */\n      0xffffffffffffffffffffffffffffffffffffffff\n        /* \"#utility.yul\":1095:1100   */\n      dup3\n        /* \"#utility.yul\":1091:1145   */\n      and\n        /* \"#utility.yul\":1080:1145   */\n      swap1\n      pop\n        /* \"#utility.yul\":1025:1151   */\n      swap2\n      swap1\n      pop\n      jump\t// out\n        /* \"#utility.yul\":1157:1253   */\n    tag_189:\n        /* \"#utility.yul\":1194:1201   */\n      0x00\n        /* \"#utility.yul\":1223:1247   */\n      tag_261\n        /* \"#utility.yul\":1241:1246   */\n      dup3\n        /* \"#utility.yul\":1223:1247   */\n      tag_188\n      jump\t// in\n    tag_261:\n        /* \"#utility.yul\":1212:1247   */\n      swap1\n      pop\n        /* \"#utility.yul\":1157:1253   */\n      swap2\n      swap1\n      pop\n      jump\t// out\n        /* \"#utility.yul\":1259:1377   */\n    tag_190:\n        /* \"#utility.yul\":1346:1370   */\n      tag_263\n        /* \"#utility.yul\":1364:1369   */\n      dup2\n        /* \"#utility.yul\":1346:1370   */\n      tag_189\n      jump\t// in\n    tag_263:\n        /* \"#utility.yul\":1341:1344   */\n      dup3\n        /* \"#utility.yul\":1334:1371   */\n      mstore\n        /* \"#utility.yul\":1259:1377   */\n      pop\n      pop\n      jump\t// out\n        /* \"#utility.yul\":1383:1482   */\n    tag_191:\n        /* \"#utility.yul\":1435:1441   */\n      0x00\n        /* \"#utility.yul\":1469:1474   */\n      dup2\n        /* \"#utility.yul\":1463:1475   */\n      mload\n        /* \"#utility.yul\":1453:1475   */\n      swap1\n      pop\n        /* \"#utility.yul\":1383:1482   */\n      swap2\n      swap1\n      pop\n      jump\t// out\n        /* \"#utility.yul\":1488:1657   */\n    tag_192:\n        /* \"#utility.yul\":1572:1583   */\n      0x00\n        /* \"#utility.yul\":1606:1612   */\n      dup3\n        /* \"#utility.yul\":1601:1604   */\n      dup3\n        /* \"#utility.yul\":1594:1613   */\n      mstore\n        /* \"#utility.yul\":1646:1650   */\n      0x20\n        /* \"#utility.yul\":1641:1644   */\n      dup3\n        /* \"#utility.yul\":1637:1651   */\n      add\n        /* \"#utility.yul\":1622:1651   */\n      swap1\n      pop\n        /* \"#utility.yul\":1488:1657   */\n      swap3\n      swap2\n      pop\n      pop\n      jump\t// out\n        /* \"#utility.yul\":1663:1802   */\n    tag_193:\n        /* \"#utility.yul\":1752:1758   */\n      dup3\n        /* \"#utility.yul\":1747:1750   */\n      dup2\n        /* \"#utility.yul\":1742:1745   */\n      dup4\n        /* \"#utility.yul\":1736:1759   */\n      mcopy\n        /* \"#utility.yul\":1793:1794   */\n      0x00\n        /* \"#utility.yul\":1784:1790   */\n      dup4\n        /* \"#utility.yul\":1779:1782   */\n      dup4\n        /* \"#utility.yul\":1775:1791   */\n      add\n        /* \"#utility.yul\":1768:1795   */\n      mstore\n        /* \"#utility.yul\":1663:1802   */\n      pop\n      pop\n      pop\n      jump\t// out\n        /* \"#utility.yul\":1808:1910   */\n    tag_194:\n        /* \"#utility.yul\":1849:1855   */\n      0x00\n        /* \"#utility.yul\":1900:1902   */\n      0x1f\n        /* \"#utility.yul\":1896:1903   */\n      not\n        /* \"#utility.yul\":1891:1893   */\n      0x1f\n        /* \"#utility.yul\":1884:1889   */\n      dup4\n        /* \"#utility.yul\":1880:1894   */\n      add\n        /* \"#utility.yul\":1876:1904   */\n      and\n        /* \"#utility.yul\":1866:1904   */\n      swap1\n      pop\n        /* \"#utility.yul\":1808:1910   */\n      swap2\n      swap1\n      pop\n      jump\t// out\n        /* \"#utility.yul\":1916:2293   */\n    tag_195:\n        /* \"#utility.yul\":2004:2007   */\n      0x00\n        /* \"#utility.yul\":2032:2071   */\n      tag_269\n        /* \"#utility.yul\":2065:2070   */\n      dup3\n        /* \"#utility.yul\":2032:2071   */\n      tag_191\n      jump\t// in\n    tag_269:\n        /* \"#utility.yul\":2087:2158   */\n      tag_270\n        /* \"#utility.yul\":2151:2157   */\n      dup2\n        /* \"#utility.yul\":2146:2149   */\n      dup6\n        /* \"#utility.yul\":2087:2158   */\n      tag_192\n      jump\t// in\n    tag_270:\n        /* \"#utility.yul\":2080:2158   */\n      swap4\n      pop\n        /* \"#utility.yul\":2167:2232   */\n      tag_271\n        /* \"#utility.yul\":2225:2231   */\n      dup2\n        /* \"#utility.yul\":2220:2223   */\n      dup6\n        /* \"#utility.yul\":2213:2217   */\n      0x20\n        /* \"#utility.yul\":2206:2211   */\n      dup7\n        /* \"#utility.yul\":2202:2218   */\n      add\n        /* \"#utility.yul\":2167:2232   */\n      tag_193\n      jump\t// in\n    tag_271:\n        /* \"#utility.yul\":2257:2286   */\n      tag_272\n        /* \"#utility.yul\":2279:2285   */\n      dup2\n        /* \"#utility.yul\":2257:2286   */\n      tag_194\n      jump\t// in\n    tag_272:\n        /* \"#utility.yul\":2252:2255   */\n      dup5\n        /* \"#utility.yul\":2248:2287   */\n      add\n        /* \"#utility.yul\":2241:2287   */\n      swap2\n      pop\n        /* \"#utility.yul\":2008:2293   */\n      pop\n        /* \"#utility.yul\":1916:2293   */\n      swap3\n      swap2\n      pop\n      pop\n      jump\t// out\n        /* \"#utility.yul\":2299:2417   */\n    tag_196:\n        /* \"#utility.yul\":2386:2410   */\n      tag_274\n        /* \"#utility.yul\":2404:2409   */\n      dup2\n        /* \"#utility.yul\":2386:2410   */\n      tag_185\n      jump\t// in\n    tag_274:\n        /* \"#utility.yul\":2381:2384   */\n      dup3\n        /* \"#utility.yul\":2374:2411   */\n      mstore\n        /* \"#utility.yul\":2299:2417   */\n      pop\n      pop\n      jump\t// out\n        /* \"#utility.yul\":2423:2513   */\n    tag_197:\n        /* \"#utility.yul\":2457:2464   */\n      0x00\n        /* \"#utility.yul\":2500:2505   */\n      dup2\n        /* \"#utility.yul\":2493:2506   */\n      iszero\n        /* \"#utility.yul\":2486:2507   */\n      iszero\n        /* \"#utility.yul\":2475:2507   */\n      swap1\n      pop\n        /* \"#utility.yul\":2423:2513   */\n      swap2\n      swap1\n      pop\n      jump\t// out\n        /* \"#utility.yul\":2519:2628   */\n    tag_198:\n        /* \"#utility.yul\":2600:2621   */\n      tag_277\n        /* \"#utility.yul\":2615:2620   */\n      dup2\n        /* \"#utility.yul\":2600:2621   */\n      tag_197\n      jump\t// in\n    tag_277:\n        /* \"#utility.yul\":2595:2598   */\n      dup3\n        /* \"#utility.yul\":2588:2622   */\n      mstore\n        /* \"#utility.yul\":2519:2628   */\n      pop\n      pop\n      jump\t// out\n        /* \"#utility.yul\":2634:3377   */\n    tag_25:\n        /* \"#utility.yul\":2853:2857   */\n      0x00\n        /* \"#utility.yul\":2891:2894   */\n      0xa0\n        /* \"#utility.yul\":2880:2889   */\n      dup3\n        /* \"#utility.yul\":2876:2895   */\n      add\n        /* \"#utility.yul\":2868:2895   */\n      swap1\n      pop\n        /* \"#utility.yul\":2905:2976   */\n      tag_279\n        /* \"#utility.yul\":2973:2974   */\n      0x00\n        /* \"#utility.yul\":2962:2971   */\n      dup4\n        /* \"#utility.yul\":2958:2975   */\n      add\n        /* \"#utility.yul\":2949:2955   */\n      dup9\n        /* \"#utility.yul\":2905:2976   */\n      tag_190\n      jump\t// in\n    tag_279:\n        /* \"#utility.yul\":3023:3032   */\n      dup2\n        /* \"#utility.yul\":3017:3021   */\n      dup2\n        /* \"#utility.yul\":3013:3033   */\n      sub\n        /* \"#utility.yul\":3008:3010   */\n      0x20\n        /* \"#utility.yul\":2997:3006   */\n      dup4\n        /* \"#utility.yul\":2993:3011   */\n      add\n        /* \"#utility.yul\":2986:3034   */\n      mstore\n        /* \"#utility.yul\":3051:3129   */\n      tag_280\n        /* \"#utility.yul\":3124:3128   */\n      dup2\n        /* \"#utility.yul\":3115:3121   */\n      dup8\n        /* \"#utility.yul\":3051:3129   */\n      tag_195\n      jump\t// in\n    tag_280:\n        /* \"#utility.yul\":3043:3129   */\n      swap1\n      pop\n        /* \"#utility.yul\":3139:3211   */\n      tag_281\n        /* \"#utility.yul\":3207:3209   */\n      0x40\n        /* \"#utility.yul\":3196:3205   */\n      dup4\n        /* \"#utility.yul\":3192:3210   */\n      add\n        /* \"#utility.yul\":3183:3189   */\n      dup7\n        /* \"#utility.yul\":3139:3211   */\n      tag_196\n      jump\t// in\n    tag_281:\n        /* \"#utility.yul\":3221:3293   */\n      tag_282\n        /* \"#utility.yul\":3289:3291   */\n      0x60\n        /* \"#utility.yul\":3278:3287   */\n      dup4\n        /* \"#utility.yul\":3274:3292   */\n      add\n        /* \"#utility.yul\":3265:3271   */\n      dup6\n        /* \"#utility.yul\":3221:3293   */\n      tag_196\n      jump\t// in\n    tag_282:\n        /* \"#utility.yul\":3303:3370   */\n      tag_283\n        /* \"#utility.yul\":3365:3368   */\n      0x80\n        /* \"#utility.yul\":3354:3363   */\n      dup4\n        /* \"#utility.yul\":3350:3369   */\n      add\n        /* \"#utility.yul\":3341:3347   */\n      dup5\n        /* \"#utility.yul\":3303:3370   */\n      tag_198\n      jump\t// in\n    tag_283:\n        /* \"#utility.yul\":2634:3377   */\n      swap7\n      swap6\n      pop\n      pop\n      pop\n      pop\n      pop\n      pop\n      jump\t// out\n        /* \"#utility.yul\":3383:4138   */\n    tag_35:\n        /* \"#utility.yul\":3608:3612   */\n      0x00\n        /* \"#utility.yul\":3646:3649   */\n      0xa0\n        /* \"#utility.yul\":3635:3644   */\n      dup3\n        /* \"#utility.yul\":3631:3650   */\n      add\n        /* \"#utility.yul\":3623:3650   */\n      swap1\n      pop\n        /* \"#utility.yul\":3660:3731   */\n      tag_285\n        /* \"#utility.yul\":3728:3729   */\n      0x00\n        /* \"#utility.yul\":3717:3726   */\n      dup4\n        /* \"#utility.yul\":3713:3730   */\n      add\n        /* \"#utility.yul\":3704:3710   */\n      dup9\n        /* \"#utility.yul\":3660:3731   */\n      tag_190\n      jump\t// in\n    tag_285:\n        /* \"#utility.yul\":3778:3787   */\n      dup2\n        /* \"#utility.yul\":3772:3776   */\n      dup2\n        /* \"#utility.yul\":3768:3788   */\n      sub\n        /* \"#utility.yul\":3763:3765   */\n      0x20\n        /* \"#utility.yul\":3752:3761   */\n      dup4\n        /* \"#utility.yul\":3748:3766   */\n      add\n        /* \"#utility.yul\":3741:3789   */\n      mstore\n        /* \"#utility.yul\":3806:3884   */\n      tag_286\n        /* \"#utility.yul\":3879:3883   */\n      dup2\n        /* \"#utility.yul\":3870:3876   */\n      dup8\n        /* \"#utility.yul\":3806:3884   */\n      tag_195\n      jump\t// in\n    tag_286:\n        /* \"#utility.yul\":3798:3884   */\n      swap1\n      pop\n        /* \"#utility.yul\":3894:3966   */\n      tag_287\n        /* \"#utility.yul\":3962:3964   */\n      0x40\n        /* \"#utility.yul\":3951:3960   */\n      dup4\n        /* \"#utility.yul\":3947:3965   */\n      add\n        /* \"#utility.yul\":3938:3944   */\n      dup7\n        /* \"#utility.yul\":3894:3966   */\n      tag_196\n      jump\t// in\n    tag_287:\n        /* \"#utility.yul\":3976:4048   */\n      tag_288\n        /* \"#utility.yul\":4044:4046   */\n      0x60\n        /* \"#utility.yul\":4033:4042   */\n      dup4\n        /* \"#utility.yul\":4029:4047   */\n      add\n        /* \"#utility.yul\":4020:4026   */\n      dup6\n        /* \"#utility.yul\":3976:4048   */\n      tag_196\n      jump\t// in\n    tag_288:\n        /* \"#utility.yul\":4058:4131   */\n      tag_289\n        /* \"#utility.yul\":4126:4129   */\n      0x80\n        /* \"#utility.yul\":4115:4124   */\n      dup4\n        /* \"#utility.yul\":4111:4130   */\n      add\n        /* \"#utility.yul\":4102:4108   */\n      dup5\n        /* \"#utility.yul\":4058:4131   */\n      tag_196\n      jump\t// in\n    tag_289:\n        /* \"#utility.yul\":3383:4138   */\n      swap7\n      swap6\n      pop\n      pop\n      pop\n      pop\n      pop\n      pop\n      jump\t// out\n        /* \"#utility.yul\":4144:4260   */\n    tag_199:\n        /* \"#utility.yul\":4214:4235   */\n      tag_291\n        /* \"#utility.yul\":4229:4234   */\n      dup2\n        /* \"#utility.yul\":4214:4235   */\n      tag_197\n      jump\t// in\n    tag_291:\n        /* \"#utility.yul\":4207:4212   */\n      dup2\n        /* \"#utility.yul\":4204:4236   */\n      eq\n        /* \"#utility.yul\":4194:4254   */\n      tag_292\n      jumpi\n        /* \"#utility.yul\":4250:4251   */\n      0x00\n        /* \"#utility.yul\":4247:4248   */\n      dup1\n        /* \"#utility.yul\":4240:4252   */\n      revert\n        /* \"#utility.yul\":4194:4254   */\n    tag_292:\n        /* \"#utility.yul\":4144:4260   */\n      pop\n      jump\t// out\n        /* \"#utility.yul\":4266:4399   */\n    tag_200:\n        /* \"#utility.yul\":4309:4314   */\n      0x00\n        /* \"#utility.yul\":4347:4353   */\n      dup2\n        /* \"#utility.yul\":4334:4354   */\n      calldataload\n        /* \"#utility.yul\":4325:4354   */\n      swap1\n      pop\n        /* \"#utility.yul\":4363:4393   */\n      tag_294\n        /* \"#utility.yul\":4387:4392   */\n      dup2\n        /* \"#utility.yul\":4363:4393   */\n      tag_199\n      jump\t// in\n    tag_294:\n        /* \"#utility.yul\":4266:4399   */\n      swap3\n      swap2\n      pop\n      pop\n      jump\t// out\n        /* \"#utility.yul\":4405:4873   */\n    tag_39:\n        /* \"#utility.yul\":4470:4476   */\n      0x00\n        /* \"#utility.yul\":4478:4484   */\n      dup1\n        /* \"#utility.yul\":4527:4529   */\n      0x40\n        /* \"#utility.yul\":4515:4524   */\n      dup4\n        /* \"#utility.yul\":4506:4513   */\n      dup6\n        /* \"#utility.yul\":4502:4525   */\n      sub\n        /* \"#utility.yul\":4498:4530   */\n      slt\n        /* \"#utility.yul\":4495:4614   */\n      iszero\n      tag_296\n      jumpi\n        /* \"#utility.yul\":4533:4612   */\n      tag_297\n      tag_183\n      jump\t// in\n    tag_297:\n        /* \"#utility.yul\":4495:4614   */\n    tag_296:\n        /* \"#utility.yul\":4653:4654   */\n      0x00\n        /* \"#utility.yul\":4678:4731   */\n      tag_298\n        /* \"#utility.yul\":4723:4730   */\n      dup6\n        /* \"#utility.yul\":4714:4720   */\n      dup3\n        /* \"#utility.yul\":4703:4712   */\n      dup7\n        /* \"#utility.yul\":4699:4721   */\n      add\n        /* \"#utility.yul\":4678:4731   */\n      tag_187\n      jump\t// in\n    tag_298:\n        /* \"#utility.yul\":4668:4731   */\n      swap3\n      pop\n        /* \"#utility.yul\":4624:4741   */\n      pop\n        /* \"#utility.yul\":4780:4782   */\n      0x20\n        /* \"#utility.yul\":4806:4856   */\n      tag_299\n        /* \"#utility.yul\":4848:4855   */\n      dup6\n        /* \"#utility.yul\":4839:4845   */\n      dup3\n        /* \"#utility.yul\":4828:4837   */\n      dup7\n        /* \"#utility.yul\":4824:4846   */\n      add\n        /* \"#utility.yul\":4806:4856   */\n      tag_200\n      jump\t// in\n    tag_299:\n        /* \"#utility.yul\":4796:4856   */\n      swap2\n      pop\n        /* \"#utility.yul\":4751:4866   */\n      pop\n        /* \"#utility.yul\":4405:4873   */\n      swap3\n      pop\n      swap3\n      swap1\n      pop\n      jump\t// out\n        /* \"#utility.yul\":4879:5001   */\n    tag_201:\n        /* \"#utility.yul\":4952:4976   */\n      tag_301\n        /* \"#utility.yul\":4970:4975   */\n      dup2\n        /* \"#utility.yul\":4952:4976   */\n      tag_189\n      jump\t// in\n    tag_301:\n        /* \"#utility.yul\":4945:4950   */\n      dup2\n        /* \"#utility.yul\":4942:4977   */\n      eq\n        /* \"#utility.yul\":4932:4995   */\n      tag_302\n      jumpi\n        /* \"#utility.yul\":4991:4992   */\n      0x00\n        /* \"#utility.yul\":4988:4989   */\n      dup1\n        /* \"#utility.yul\":4981:4993   */\n      revert\n        /* \"#utility.yul\":4932:4995   */\n    tag_302:\n        /* \"#utility.yul\":4879:5001   */\n      pop\n      jump\t// out\n        /* \"#utility.yul\":5007:5146   */\n    tag_202:\n        /* \"#utility.yul\":5053:5058   */\n      0x00\n        /* \"#utility.yul\":5091:5097   */\n      dup2\n        /* \"#utility.yul\":5078:5098   */\n      calldataload\n        /* \"#utility.yul\":5069:5098   */\n      swap1\n      pop\n        /* \"#utility.yul\":5107:5140   */\n      tag_304\n        /* \"#utility.yul\":5134:5139   */\n      dup2\n        /* \"#utility.yul\":5107:5140   */\n      tag_201\n      jump\t// in\n    tag_304:\n        /* \"#utility.yul\":5007:5146   */\n      swap3\n      swap2\n      pop\n      pop\n      jump\t// out\n        /* \"#utility.yul\":5152:5626   */\n    tag_44:\n        /* \"#utility.yul\":5220:5226   */\n      0x00\n        /* \"#utility.yul\":5228:5234   */\n      dup1\n        /* \"#utility.yul\":5277:5279   */\n      0x40\n        /* \"#utility.yul\":5265:5274   */\n      dup4\n        /* \"#utility.yul\":5256:5263   */\n      dup6\n        /* \"#utility.yul\":5252:5275   */\n      sub\n        /* \"#utility.yul\":5248:5280   */\n      slt\n        /* \"#utility.yul\":5245:5364   */\n      iszero\n      tag_306\n      jumpi\n        /* \"#utility.yul\":5283:5362   */\n      tag_307\n      tag_183\n      jump\t// in\n    tag_307:\n        /* \"#utility.yul\":5245:5364   */\n    tag_306:\n        /* \"#utility.yul\":5403:5404   */\n      0x00\n        /* \"#utility.yul\":5428:5481   */\n      tag_308\n        /* \"#utility.yul\":5473:5480   */\n      dup6\n        /* \"#utility.yul\":5464:5470   */\n      dup3\n        /* \"#utility.yul\":5453:5462   */\n      dup7\n        /* \"#utility.yul\":5449:5471   */\n      add\n        /* \"#utility.yul\":5428:5481   */\n      tag_202\n      jump\t// in\n    tag_308:\n        /* \"#utility.yul\":5418:5481   */\n      swap3\n      pop\n        /* \"#utility.yul\":5374:5491   */\n      pop\n        /* \"#utility.yul\":5530:5532   */\n      0x20\n        /* \"#utility.yul\":5556:5609   */\n      tag_309\n        /* \"#utility.yul\":5601:5608   */\n      dup6\n        /* \"#utility.yul\":5592:5598   */\n      dup3\n        /* \"#utility.yul\":5581:5590   */\n      dup7\n        /* \"#utility.yul\":5577:5599   */\n      add\n        /* \"#utility.yul\":5556:5609   */\n      tag_187\n      jump\t// in\n    tag_309:\n        /* \"#utility.yul\":5546:5609   */\n      swap2\n      pop\n        /* \"#utility.yul\":5501:5619   */\n      pop\n        /* \"#utility.yul\":5152:5626   */\n      swap3\n      pop\n      swap3\n      swap1\n      pop\n      jump\t// out\n        /* \"#utility.yul\":5632:5854   */\n    tag_47:\n        /* \"#utility.yul\":5725:5729   */\n      0x00\n        /* \"#utility.yul\":5763:5765   */\n      0x20\n        /* \"#utility.yul\":5752:5761   */\n      dup3\n        /* \"#utility.yul\":5748:5766   */\n      add\n        /* \"#utility.yul\":5740:5766   */\n      swap1\n      pop\n        /* \"#utility.yul\":5776:5847   */\n      tag_311\n        /* \"#utility.yul\":5844:5845   */\n      0x00\n        /* \"#utility.yul\":5833:5842   */\n      dup4\n        /* \"#utility.yul\":5829:5846   */\n      add\n        /* \"#utility.yul\":5820:5826   */\n      dup5\n        /* \"#utility.yul\":5776:5847   */\n      tag_196\n      jump\t// in\n    tag_311:\n        /* \"#utility.yul\":5632:5854   */\n      swap3\n      swap2\n      pop\n      pop\n      jump\t// out\n        /* \"#utility.yul\":5860:6334   */\n    tag_55:\n        /* \"#utility.yul\":5928:5934   */\n      0x00\n        /* \"#utility.yul\":5936:5942   */\n      dup1\n        /* \"#utility.yul\":5985:5987   */\n      0x40\n        /* \"#utility.yul\":5973:5982   */\n      dup4\n        /* \"#utility.yul\":5964:5971   */\n      dup6\n        /* \"#utility.yul\":5960:5983   */\n      sub\n        /* \"#utility.yul\":5956:5988   */\n      slt\n        /* \"#utility.yul\":5953:6072   */\n      iszero\n      tag_313\n      jumpi\n        /* \"#utility.yul\":5991:6070   */\n      tag_314\n      tag_183\n      jump\t// in\n    tag_314:\n        /* \"#utility.yul\":5953:6072   */\n    tag_313:\n        /* \"#utility.yul\":6111:6112   */\n      0x00\n        /* \"#utility.yul\":6136:6189   */\n      tag_315\n        /* \"#utility.yul\":6181:6188   */\n      dup6\n        /* \"#utility.yul\":6172:6178   */\n      dup3\n        /* \"#utility.yul\":6161:6170   */\n      dup7\n        /* \"#utility.yul\":6157:6179   */\n      add\n        /* \"#utility.yul\":6136:6189   */\n      tag_187\n      jump\t// in\n    tag_315:\n        /* \"#utility.yul\":6126:6189   */\n      swap3\n      pop\n        /* \"#utility.yul\":6082:6199   */\n      pop\n        /* \"#utility.yul\":6238:6240   */\n      0x20\n        /* \"#utility.yul\":6264:6317   */\n      tag_316\n        /* \"#utility.yul\":6309:6316   */\n      dup6\n        /* \"#utility.yul\":6300:6306   */\n      dup3\n        /* \"#utility.yul\":6289:6298   */\n      dup7\n        /* \"#utility.yul\":6285:6307   */\n      add\n        /* \"#utility.yul\":6264:6317   */\n      tag_187\n      jump\t// in\n    tag_316:\n        /* \"#utility.yul\":6254:6317   */\n      swap2\n      pop\n        /* \"#utility.yul\":6209:6327   */\n      pop\n        /* \"#utility.yul\":5860:6334   */\n      swap3\n      pop\n      swap3\n      swap1\n      pop\n      jump\t// out\n        /* \"#utility.yul\":6340:6457   */\n    tag_203:\n        /* \"#utility.yul\":6449:6450   */\n      0x00\n        /* \"#utility.yul\":6446:6447   */\n      dup1\n        /* \"#utility.yul\":6439:6451   */\n      revert\n        /* \"#utility.yul\":6463:6580   */\n    tag_204:\n        /* \"#utility.yul\":6572:6573   */\n      0x00\n        /* \"#utility.yul\":6569:6570   */\n      dup1\n        /* \"#utility.yul\":6562:6574   */\n      revert\n        /* \"#utility.yul\":6586:6766   */\n    tag_205:\n        /* \"#utility.yul\":6634:6711   */\n      0x4e487b7100000000000000000000000000000000000000000000000000000000\n        /* \"#utility.yul\":6631:6632   */\n      0x00\n        /* \"#utility.yul\":6624:6712   */\n      mstore\n        /* \"#utility.yul\":6731:6735   */\n      0x41\n        /* \"#utility.yul\":6728:6729   */\n      0x04\n        /* \"#utility.yul\":6721:6736   */\n      mstore\n        /* \"#utility.yul\":6755:6759   */\n      0x24\n        /* \"#utility.yul\":6752:6753   */\n      0x00\n        /* \"#utility.yul\":6745:6760   */\n      revert\n        /* \"#utility.yul\":6772:7053   */\n    tag_206:\n        /* \"#utility.yul\":6855:6882   */\n      tag_321\n        /* \"#utility.yul\":6877:6881   */\n      dup3\n        /* \"#utility.yul\":6855:6882   */\n      tag_194\n      jump\t// in\n    tag_321:\n        /* \"#utility.yul\":6847:6853   */\n      dup2\n        /* \"#utility.yul\":6843:6883   */\n      add\n        /* \"#utility.yul\":6985:6991   */\n      dup2\n        /* \"#utility.yul\":6973:6983   */\n      dup2\n        /* \"#utility.yul\":6970:6992   */\n      lt\n        /* \"#utility.yul\":6949:6967   */\n      0xffffffffffffffff\n        /* \"#utility.yul\":6937:6947   */\n      dup3\n        /* \"#utility.yul\":6934:6968   */\n      gt\n        /* \"#utility.yul\":6931:6993   */\n      or\n        /* \"#utility.yul\":6928:7016   */\n      iszero\n      tag_322\n      jumpi\n        /* \"#utility.yul\":6996:7014   */\n      tag_323\n      tag_205\n      jump\t// in\n    tag_323:\n        /* \"#utility.yul\":6928:7016   */\n    tag_322:\n        /* \"#utility.yul\":7036:7046   */\n      dup1\n        /* \"#utility.yul\":7032:7034   */\n      0x40\n        /* \"#utility.yul\":7025:7047   */\n      mstore\n        /* \"#utility.yul\":6815:7053   */\n      pop\n        /* \"#utility.yul\":6772:7053   */\n      pop\n      pop\n      jump\t// out\n        /* \"#utility.yul\":7059:7188   */\n    tag_207:\n        /* \"#utility.yul\":7093:7099   */\n      0x00\n        /* \"#utility.yul\":7120:7140   */\n      tag_325\n      tag_182\n      jump\t// in\n    tag_325:\n        /* \"#utility.yul\":7110:7140   */\n      swap1\n      pop\n        /* \"#utility.yul\":7149:7182   */\n      tag_326\n        /* \"#utility.yul\":7177:7181   */\n      dup3\n        /* \"#utility.yul\":7169:7175   */\n      dup3\n        /* \"#utility.yul\":7149:7182   */\n      tag_206\n      jump\t// in\n    tag_326:\n        /* \"#utility.yul\":7059:7188   */\n      swap2\n      swap1\n      pop\n      jump\t// out\n        /* \"#utility.yul\":7194:7502   */\n    tag_208:\n        /* \"#utility.yul\":7256:7260   */\n      0x00\n        /* \"#utility.yul\":7346:7364   */\n      0xffffffffffffffff\n        /* \"#utility.yul\":7338:7344   */\n      dup3\n        /* \"#utility.yul\":7335:7365   */\n      gt\n        /* \"#utility.yul\":7332:7388   */\n      iszero\n      tag_328\n      jumpi\n        /* \"#utility.yul\":7368:7386   */\n      tag_329\n      tag_205\n      jump\t// in\n    tag_329:\n        /* \"#utility.yul\":7332:7388   */\n    tag_328:\n        /* \"#utility.yul\":7406:7435   */\n      tag_330\n        /* \"#utility.yul\":7428:7434   */\n      dup3\n        /* \"#utility.yul\":7406:7435   */\n      tag_194\n      jump\t// in\n    tag_330:\n        /* \"#utility.yul\":7398:7435   */\n      swap1\n      pop\n        /* \"#utility.yul\":7490:7494   */\n      0x20\n        /* \"#utility.yul\":7484:7488   */\n      dup2\n        /* \"#utility.yul\":7480:7495   */\n      add\n        /* \"#utility.yul\":7472:7495   */\n      swap1\n      pop\n        /* \"#utility.yul\":7194:7502   */\n      swap2\n      swap1\n      pop\n      jump\t// out\n        /* \"#utility.yul\":7508:7656   */\n    tag_209:\n        /* \"#utility.yul\":7606:7612   */\n      dup3\n        /* \"#utility.yul\":7601:7604   */\n      dup2\n        /* \"#utility.yul\":7596:7599   */\n      dup4\n        /* \"#utility.yul\":7583:7613   */\n      calldatacopy\n        /* \"#utility.yul\":7647:7648   */\n      0x00\n        /* \"#utility.yul\":7638:7644   */\n      dup4\n        /* \"#utility.yul\":7633:7636   */\n      dup4\n        /* \"#utility.yul\":7629:7645   */\n      add\n        /* \"#utility.yul\":7622:7649   */\n      mstore\n        /* \"#utility.yul\":7508:7656   */\n      pop\n      pop\n      pop\n      jump\t// out\n        /* \"#utility.yul\":7662:8087   */\n    tag_210:\n        /* \"#utility.yul\":7740:7745   */\n      0x00\n        /* \"#utility.yul\":7765:7831   */\n      tag_333\n        /* \"#utility.yul\":7781:7830   */\n      tag_334\n        /* \"#utility.yul\":7823:7829   */\n      dup5\n        /* \"#utility.yul\":7781:7830   */\n      tag_208\n      jump\t// in\n    tag_334:\n        /* \"#utility.yul\":7765:7831   */\n      tag_207\n      jump\t// in\n    tag_333:\n        /* \"#utility.yul\":7756:7831   */\n      swap1\n      pop\n        /* \"#utility.yul\":7854:7860   */\n      dup3\n        /* \"#utility.yul\":7847:7852   */\n      dup2\n        /* \"#utility.yul\":7840:7861   */\n      mstore\n        /* \"#utility.yul\":7892:7896   */\n      0x20\n        /* \"#utility.yul\":7885:7890   */\n      dup2\n        /* \"#utility.yul\":7881:7897   */\n      add\n        /* \"#utility.yul\":7930:7933   */\n      dup5\n        /* \"#utility.yul\":7921:7927   */\n      dup5\n        /* \"#utility.yul\":7916:7919   */\n      dup5\n        /* \"#utility.yul\":7912:7928   */\n      add\n        /* \"#utility.yul\":7909:7934   */\n      gt\n        /* \"#utility.yul\":7906:8018   */\n      iszero\n      tag_335\n      jumpi\n        /* \"#utility.yul\":7937:8016   */\n      tag_336\n      tag_204\n      jump\t// in\n    tag_336:\n        /* \"#utility.yul\":7906:8018   */\n    tag_335:\n        /* \"#utility.yul\":8027:8081   */\n      tag_337\n        /* \"#utility.yul\":8074:8080   */\n      dup5\n        /* \"#utility.yul\":8069:8072   */\n      dup3\n        /* \"#utility.yul\":8064:8067   */\n      dup6\n        /* \"#utility.yul\":8027:8081   */\n      tag_209\n      jump\t// in\n    tag_337:\n        /* \"#utility.yul\":7746:8087   */\n      pop\n        /* \"#utility.yul\":7662:8087   */\n      swap4\n      swap3\n      pop\n      pop\n      pop\n      jump\t// out\n        /* \"#utility.yul\":8107:8447   */\n    tag_211:\n        /* \"#utility.yul\":8163:8168   */\n      0x00\n        /* \"#utility.yul\":8212:8215   */\n      dup3\n        /* \"#utility.yul\":8205:8209   */\n      0x1f\n        /* \"#utility.yul\":8197:8203   */\n      dup4\n        /* \"#utility.yul\":8193:8210   */\n      add\n        /* \"#utility.yul\":8189:8216   */\n      slt\n        /* \"#utility.yul\":8179:8301   */\n      tag_339\n      jumpi\n        /* \"#utility.yul\":8220:8299   */\n      tag_340\n      tag_203\n      jump\t// in\n    tag_340:\n        /* \"#utility.yul\":8179:8301   */\n    tag_339:\n        /* \"#utility.yul\":8337:8343   */\n      dup2\n        /* \"#utility.yul\":8324:8344   */\n      calldataload\n        /* \"#utility.yul\":8362:8441   */\n      tag_341\n        /* \"#utility.yul\":8437:8440   */\n      dup5\n        /* \"#utility.yul\":8429:8435   */\n      dup3\n        /* \"#utility.yul\":8422:8426   */\n      0x20\n        /* \"#utility.yul\":8414:8420   */\n      dup7\n        /* \"#utility.yul\":8410:8427   */\n      add\n        /* \"#utility.yul\":8362:8441   */\n      tag_210\n      jump\t// in\n    tag_341:\n        /* \"#utility.yul\":8353:8441   */\n      swap2\n      pop\n        /* \"#utility.yul\":8169:8447   */\n      pop\n        /* \"#utility.yul\":8107:8447   */\n      swap3\n      swap2\n      pop\n      pop\n      jump\t// out\n        /* \"#utility.yul\":8453:8962   */\n    tag_60:\n        /* \"#utility.yul\":8522:8528   */\n      0x00\n        /* \"#utility.yul\":8571:8573   */\n      0x20\n        /* \"#utility.yul\":8559:8568   */\n      dup3\n        /* \"#utility.yul\":8550:8557   */\n      dup5\n        /* \"#utility.yul\":8546:8569   */\n      sub\n        /* \"#utility.yul\":8542:8574   */\n      slt\n        /* \"#utility.yul\":8539:8658   */\n      iszero\n      tag_343\n      jumpi\n        /* \"#utility.yul\":8577:8656   */\n      tag_344\n      tag_183\n      jump\t// in\n    tag_344:\n        /* \"#utility.yul\":8539:8658   */\n    tag_343:\n        /* \"#utility.yul\":8725:8726   */\n      0x00\n        /* \"#utility.yul\":8714:8723   */\n      dup3\n        /* \"#utility.yul\":8710:8727   */\n      add\n        /* \"#utility.yul\":8697:8728   */\n      calldataload\n        /* \"#utility.yul\":8755:8773   */\n      0xffffffffffffffff\n        /* \"#utility.yul\":8747:8753   */\n      dup2\n        /* \"#utility.yul\":8744:8774   */\n      gt\n        /* \"#utility.yul\":8741:8858   */\n      iszero\n      tag_345\n      jumpi\n        /* \"#utility.yul\":8777:8856   */\n      tag_346\n      tag_184\n      jump\t// in\n    tag_346:\n        /* \"#utility.yul\":8741:8858   */\n    tag_345:\n        /* \"#utility.yul\":8882:8945   */\n      tag_347\n        /* \"#utility.yul\":8937:8944   */\n      dup5\n        /* \"#utility.yul\":8928:8934   */\n      dup3\n        /* \"#utility.yul\":8917:8926   */\n      dup6\n        /* \"#utility.yul\":8913:8935   */\n      add\n        /* \"#utility.yul\":8882:8945   */\n      tag_211\n      jump\t// in\n    tag_347:\n        /* \"#utility.yul\":8872:8945   */\n      swap2\n      pop\n        /* \"#utility.yul\":8668:8955   */\n      pop\n        /* \"#utility.yul\":8453:8962   */\n      swap3\n      swap2\n      pop\n      pop\n      jump\t// out\n        /* \"#utility.yul\":8968:9297   */\n    tag_68:\n        /* \"#utility.yul\":9027:9033   */\n      0x00\n        /* \"#utility.yul\":9076:9078   */\n      0x20\n        /* \"#utility.yul\":9064:9073   */\n      dup3\n        /* \"#utility.yul\":9055:9062   */\n      dup5\n        /* \"#utility.yul\":9051:9074   */\n      sub\n        /* \"#utility.yul\":9047:9079   */\n      slt\n        /* \"#utility.yul\":9044:9163   */\n      iszero\n      tag_349\n      jumpi\n        /* \"#utility.yul\":9082:9161   */\n      tag_350\n      tag_183\n      jump\t// in\n    tag_350:\n        /* \"#utility.yul\":9044:9163   */\n    tag_349:\n        /* \"#utility.yul\":9202:9203   */\n      0x00\n        /* \"#utility.yul\":9227:9280   */\n      tag_351\n        /* \"#utility.yul\":9272:9279   */\n      dup5\n        /* \"#utility.yul\":9263:9269   */\n      dup3\n        /* \"#utility.yul\":9252:9261   */\n      dup6\n        /* \"#utility.yul\":9248:9270   */\n      add\n        /* \"#utility.yul\":9227:9280   */\n      tag_202\n      jump\t// in\n    tag_351:\n        /* \"#utility.yul\":9217:9280   */\n      swap2\n      pop\n        /* \"#utility.yul\":9173:9290   */\n      pop\n        /* \"#utility.yul\":8968:9297   */\n      swap3\n      swap2\n      pop\n      pop\n      jump\t// out\n        /* \"#utility.yul\":9303:10102   */\n    tag_84:\n        /* \"#utility.yul\":9390:9396   */\n      0x00\n        /* \"#utility.yul\":9398:9404   */\n      dup1\n        /* \"#utility.yul\":9406:9412   */\n      0x00\n        /* \"#utility.yul\":9455:9457   */\n      0x60\n        /* \"#utility.yul\":9443:9452   */\n      dup5\n        /* \"#utility.yul\":9434:9441   */\n      dup7\n        /* \"#utility.yul\":9430:9453   */\n      sub\n        /* \"#utility.yul\":9426:9458   */\n      slt\n        /* \"#utility.yul\":9423:9542   */\n      iszero\n      tag_353\n      jumpi\n        /* \"#utility.yul\":9461:9540   */\n      tag_354\n      tag_183\n      jump\t// in\n    tag_354:\n        /* \"#utility.yul\":9423:9542   */\n    tag_353:\n        /* \"#utility.yul\":9609:9610   */\n      0x00\n        /* \"#utility.yul\":9598:9607   */\n      dup5\n        /* \"#utility.yul\":9594:9611   */\n      add\n        /* \"#utility.yul\":9581:9612   */\n      calldataload\n        /* \"#utility.yul\":9639:9657   */\n      0xffffffffffffffff\n        /* \"#utility.yul\":9631:9637   */\n      dup2\n        /* \"#utility.yul\":9628:9658   */\n      gt\n        /* \"#utility.yul\":9625:9742   */\n      iszero\n      tag_355\n      jumpi\n        /* \"#utility.yul\":9661:9740   */\n      tag_356\n      tag_184\n      jump\t// in\n    tag_356:\n        /* \"#utility.yul\":9625:9742   */\n    tag_355:\n        /* \"#utility.yul\":9766:9829   */\n      tag_357\n        /* \"#utility.yul\":9821:9828   */\n      dup7\n        /* \"#utility.yul\":9812:9818   */\n      dup3\n        /* \"#utility.yul\":9801:9810   */\n      dup8\n        /* \"#utility.yul\":9797:9819   */\n      add\n        /* \"#utility.yul\":9766:9829   */\n      tag_211\n      jump\t// in\n    tag_357:\n        /* \"#utility.yul\":9756:9829   */\n      swap4\n      pop\n        /* \"#utility.yul\":9552:9839   */\n      pop\n        /* \"#utility.yul\":9878:9880   */\n      0x20\n        /* \"#utility.yul\":9904:9957   */\n      tag_358\n        /* \"#utility.yul\":9949:9956   */\n      dup7\n        /* \"#utility.yul\":9940:9946   */\n      dup3\n        /* \"#utility.yul\":9929:9938   */\n      dup8\n        /* \"#utility.yul\":9925:9947   */\n      add\n        /* \"#utility.yul\":9904:9957   */\n      tag_187\n      jump\t// in\n    tag_358:\n        /* \"#utility.yul\":9894:9957   */\n      swap3\n      pop\n        /* \"#utility.yul\":9849:9967   */\n      pop\n        /* \"#utility.yul\":10006:10008   */\n      0x40\n        /* \"#utility.yul\":10032:10085   */\n      tag_359\n        /* \"#utility.yul\":10077:10084   */\n      dup7\n        /* \"#utility.yul\":10068:10074   */\n      dup3\n        /* \"#utility.yul\":10057:10066   */\n      dup8\n        /* \"#utility.yul\":10053:10075   */\n      add\n        /* \"#utility.yul\":10032:10085   */\n      tag_187\n      jump\t// in\n    tag_359:\n        /* \"#utility.yul\":10022:10085   */\n      swap2\n      pop\n        /* \"#utility.yul\":9977:10095   */\n      pop\n        /* \"#utility.yul\":9303:10102   */\n      swap3\n      pop\n      swap3\n      pop\n      swap3\n      jump\t// out\n        /* \"#utility.yul\":10108:10863   */\n    tag_91:\n        /* \"#utility.yul\":10333:10337   */\n      0x00\n        /* \"#utility.yul\":10371:10374   */\n      0xa0\n        /* \"#utility.yul\":10360:10369   */\n      dup3\n        /* \"#utility.yul\":10356:10375   */\n      add\n        /* \"#utility.yul\":10348:10375   */\n      swap1\n      pop\n        /* \"#utility.yul\":10421:10430   */\n      dup2\n        /* \"#utility.yul\":10415:10419   */\n      dup2\n        /* \"#utility.yul\":10411:10431   */\n      sub\n        /* \"#utility.yul\":10407:10408   */\n      0x00\n        /* \"#utility.yul\":10396:10405   */\n      dup4\n        /* \"#utility.yul\":10392:10409   */\n      add\n        /* \"#utility.yul\":10385:10432   */\n      mstore\n        /* \"#utility.yul\":10449:10527   */\n      tag_361\n        /* \"#utility.yul\":10522:10526   */\n      dup2\n        /* \"#utility.yul\":10513:10519   */\n      dup9\n        /* \"#utility.yul\":10449:10527   */\n      tag_195\n      jump\t// in\n    tag_361:\n        /* \"#utility.yul\":10441:10527   */\n      swap1\n      pop\n        /* \"#utility.yul\":10537:10609   */\n      tag_362\n        /* \"#utility.yul\":10605:10607   */\n      0x20\n        /* \"#utility.yul\":10594:10603   */\n      dup4\n        /* \"#utility.yul\":10590:10608   */\n      add\n        /* \"#utility.yul\":10581:10587   */\n      dup8\n        /* \"#utility.yul\":10537:10609   */\n      tag_196\n      jump\t// in\n    tag_362:\n        /* \"#utility.yul\":10619:10691   */\n      tag_363\n        /* \"#utility.yul\":10687:10689   */\n      0x40\n        /* \"#utility.yul\":10676:10685   */\n      dup4\n        /* \"#utility.yul\":10672:10690   */\n      add\n        /* \"#utility.yul\":10663:10669   */\n      dup7\n        /* \"#utility.yul\":10619:10691   */\n      tag_196\n      jump\t// in\n    tag_363:\n        /* \"#utility.yul\":10701:10773   */\n      tag_364\n        /* \"#utility.yul\":10769:10771   */\n      0x60\n        /* \"#utility.yul\":10758:10767   */\n      dup4\n        /* \"#utility.yul\":10754:10772   */\n      add\n        /* \"#utility.yul\":10745:10751   */\n      dup6\n        /* \"#utility.yul\":10701:10773   */\n      tag_196\n      jump\t// in\n    tag_364:\n        /* \"#utility.yul\":10783:10856   */\n      tag_365\n        /* \"#utility.yul\":10851:10854   */\n      0x80\n        /* \"#utility.yul\":10840:10849   */\n      dup4\n        /* \"#utility.yul\":10836:10855   */\n      add\n        /* \"#utility.yul\":10827:10833   */\n      dup5\n        /* \"#utility.yul\":10783:10856   */\n      tag_190\n      jump\t// in\n    tag_365:\n        /* \"#utility.yul\":10108:10863   */\n      swap7\n      swap6\n      pop\n      pop\n      pop\n      pop\n      pop\n      pop\n      jump\t// out\n        /* \"#utility.yul\":10869:11049   */\n    tag_212:\n        /* \"#utility.yul\":10917:10994   */\n      0x4e487b7100000000000000000000000000000000000000000000000000000000\n        /* \"#utility.yul\":10914:10915   */\n      0x00\n        /* \"#utility.yul\":10907:10995   */\n      mstore\n        /* \"#utility.yul\":11014:11018   */\n      0x22\n        /* \"#utility.yul\":11011:11012   */\n      0x04\n        /* \"#utility.yul\":11004:11019   */\n      mstore\n        /* \"#utility.yul\":11038:11042   */\n      0x24\n        /* \"#utility.yul\":11035:11036   */\n      0x00\n        /* \"#utility.yul\":11028:11043   */\n      revert\n        /* \"#utility.yul\":11055:11375   */\n    tag_95:\n        /* \"#utility.yul\":11099:11105   */\n      0x00\n        /* \"#utility.yul\":11136:11137   */\n      0x02\n        /* \"#utility.yul\":11130:11134   */\n      dup3\n        /* \"#utility.yul\":11126:11138   */\n      div\n        /* \"#utility.yul\":11116:11138   */\n      swap1\n      pop\n        /* \"#utility.yul\":11183:11184   */\n      0x01\n        /* \"#utility.yul\":11177:11181   */\n      dup3\n        /* \"#utility.yul\":11173:11185   */\n      and\n        /* \"#utility.yul\":11204:11222   */\n      dup1\n        /* \"#utility.yul\":11194:11275   */\n      tag_368\n      jumpi\n        /* \"#utility.yul\":11260:11264   */\n      0x7f\n        /* \"#utility.yul\":11252:11258   */\n      dup3\n        /* \"#utility.yul\":11248:11265   */\n      and\n        /* \"#utility.yul\":11238:11265   */\n      swap2\n      pop\n        /* \"#utility.yul\":11194:11275   */\n    tag_368:\n        /* \"#utility.yul\":11322:11324   */\n      0x20\n        /* \"#utility.yul\":11314:11320   */\n      dup3\n        /* \"#utility.yul\":11311:11325   */\n      lt\n        /* \"#utility.yul\":11291:11309   */\n      dup2\n        /* \"#utility.yul\":11288:11326   */\n      sub\n        /* \"#utility.yul\":11285:11369   */\n      tag_369\n      jumpi\n        /* \"#utility.yul\":11341:11359   */\n      tag_370\n      tag_212\n      jump\t// in\n    tag_370:\n        /* \"#utility.yul\":11285:11369   */\n    tag_369:\n        /* \"#utility.yul\":11106:11375   */\n      pop\n        /* \"#utility.yul\":11055:11375   */\n      swap2\n      swap1\n      pop\n      jump\t// out\n        /* \"#utility.yul\":11381:11561   */\n    tag_103:\n        /* \"#utility.yul\":11429:11506   */\n      0x4e487b7100000000000000000000000000000000000000000000000000000000\n        /* \"#utility.yul\":11426:11427   */\n      0x00\n        /* \"#utility.yul\":11419:11507   */\n      mstore\n        /* \"#utility.yul\":11526:11530   */\n      0x32\n        /* \"#utility.yul\":11523:11524   */\n      0x04\n        /* \"#utility.yul\":11516:11531   */\n      mstore\n        /* \"#utility.yul\":11550:11554   */\n      0x24\n        /* \"#utility.yul\":11547:11548   */\n      0x00\n        /* \"#utility.yul\":11540:11555   */\n      revert\n        /* \"#utility.yul\":11567:11742   */\n    tag_213:\n        /* \"#utility.yul\":11707:11734   */\n      0x50726f706f73616c20616c726561647920657865637574656400000000000000\n        /* \"#utility.yul\":11703:11704   */\n      0x00\n        /* \"#utility.yul\":11695:11701   */\n      dup3\n        /* \"#utility.yul\":11691:11705   */\n      add\n        /* \"#utility.yul\":11684:11735   */\n      mstore\n        /* \"#utility.yul\":11567:11742   */\n      pop\n      jump\t// out\n        /* \"#utility.yul\":11748:12114   */\n    tag_214:\n        /* \"#utility.yul\":11890:11893   */\n      0x00\n        /* \"#utility.yul\":11911:11978   */\n      tag_374\n        /* \"#utility.yul\":11975:11977   */\n      0x19\n        /* \"#utility.yul\":11970:11973   */\n      dup4\n        /* \"#utility.yul\":11911:11978   */\n      tag_192\n      jump\t// in\n    tag_374:\n        /* \"#utility.yul\":11904:11978   */\n      swap2\n      pop\n        /* \"#utility.yul\":11987:12080   */\n      tag_375\n        /* \"#utility.yul\":12076:12079   */\n      dup3\n        /* \"#utility.yul\":11987:12080   */\n      tag_213\n      jump\t// in\n    tag_375:\n        /* \"#utility.yul\":12105:12107   */\n      0x20\n        /* \"#utility.yul\":12100:12103   */\n      dup3\n        /* \"#utility.yul\":12096:12108   */\n      add\n        /* \"#utility.yul\":12089:12108   */\n      swap1\n      pop\n        /* \"#utility.yul\":11748:12114   */\n      swap2\n      swap1\n      pop\n      jump\t// out\n        /* \"#utility.yul\":12120:12539   */\n    tag_107:\n        /* \"#utility.yul\":12286:12290   */\n      0x00\n        /* \"#utility.yul\":12324:12326   */\n      0x20\n        /* \"#utility.yul\":12313:12322   */\n      dup3\n        /* \"#utility.yul\":12309:12327   */\n      add\n        /* \"#utility.yul\":12301:12327   */\n      swap1\n      pop\n        /* \"#utility.yul\":12373:12382   */\n      dup2\n        /* \"#utility.yul\":12367:12371   */\n      dup2\n        /* \"#utility.yul\":12363:12383   */\n      sub\n        /* \"#utility.yul\":12359:12360   */\n      0x00\n        /* \"#utility.yul\":12348:12357   */\n      dup4\n        /* \"#utility.yul\":12344:12361   */\n      add\n        /* \"#utility.yul\":12337:12384   */\n      mstore\n        /* \"#utility.yul\":12401:12532   */\n      tag_377\n        /* \"#utility.yul\":12527:12531   */\n      dup2\n        /* \"#utility.yul\":12401:12532   */\n      tag_214\n      jump\t// in\n    tag_377:\n        /* \"#utility.yul\":12393:12532   */\n      swap1\n      pop\n        /* \"#utility.yul\":12120:12539   */\n      swap2\n      swap1\n      pop\n      jump\t// out\n        /* \"#utility.yul\":12545:12716   */\n    tag_215:\n        /* \"#utility.yul\":12685:12708   */\n      0x50726f706f73616c20646964206e6f7420706173730000000000000000000000\n        /* \"#utility.yul\":12681:12682   */\n      0x00\n        /* \"#utility.yul\":12673:12679   */\n      dup3\n        /* \"#utility.yul\":12669:12683   */\n      add\n        /* \"#utility.yul\":12662:12709   */\n      mstore\n        /* \"#utility.yul\":12545:12716   */\n      pop\n      jump\t// out\n        /* \"#utility.yul\":12722:13088   */\n    tag_216:\n        /* \"#utility.yul\":12864:12867   */\n      0x00\n        /* \"#utility.yul\":12885:12952   */\n      tag_380\n        /* \"#utility.yul\":12949:12951   */\n      0x15\n        /* \"#utility.yul\":12944:12947   */\n      dup4\n        /* \"#utility.yul\":12885:12952   */\n      tag_192\n      jump\t// in\n    tag_380:\n        /* \"#utility.yul\":12878:12952   */\n      swap2\n      pop\n        /* \"#utility.yul\":12961:13054   */\n      tag_381\n        /* \"#utility.yul\":13050:13053   */\n      dup3\n        /* \"#utility.yul\":12961:13054   */\n      tag_215\n      jump\t// in\n    tag_381:\n        /* \"#utility.yul\":13079:13081   */\n      0x20\n        /* \"#utility.yul\":13074:13077   */\n      dup3\n        /* \"#utility.yul\":13070:13082   */\n      add\n        /* \"#utility.yul\":13063:13082   */\n      swap1\n      pop\n        /* \"#utility.yul\":12722:13088   */\n      swap2\n      swap1\n      pop\n      jump\t// out\n        /* \"#utility.yul\":13094:13513   */\n    tag_110:\n        /* \"#utility.yul\":13260:13264   */\n      0x00\n        /* \"#utility.yul\":13298:13300   */\n      0x20\n        /* \"#utility.yul\":13287:13296   */\n      dup3\n        /* \"#utility.yul\":13283:13301   */\n      add\n        /* \"#utility.yul\":13275:13301   */\n      swap1\n      pop\n        /* \"#utility.yul\":13347:13356   */\n      dup2\n        /* \"#utility.yul\":13341:13345   */\n      dup2\n        /* \"#utility.yul\":13337:13357   */\n      sub\n        /* \"#utility.yul\":13333:13334   */\n      0x00\n        /* \"#utility.yul\":13322:13331   */\n      dup4\n        /* \"#utility.yul\":13318:13335   */\n      add\n        /* \"#utility.yul\":13311:13358   */\n      mstore\n        /* \"#utility.yul\":13375:13506   */\n      tag_383\n        /* \"#utility.yul\":13501:13505   */\n      dup2\n        /* \"#utility.yul\":13375:13506   */\n      tag_216\n      jump\t// in\n    tag_383:\n        /* \"#utility.yul\":13367:13506   */\n      swap1\n      pop\n        /* \"#utility.yul\":13094:13513   */\n      swap2\n      swap1\n      pop\n      jump\t// out\n        /* \"#utility.yul\":13519:13699   */\n    tag_217:\n        /* \"#utility.yul\":13567:13644   */\n      0x4e487b7100000000000000000000000000000000000000000000000000000000\n        /* \"#utility.yul\":13564:13565   */\n      0x00\n        /* \"#utility.yul\":13557:13645   */\n      mstore\n        /* \"#utility.yul\":13664:13668   */\n      0x11\n        /* \"#utility.yul\":13661:13662   */\n      0x04\n        /* \"#utility.yul\":13654:13669   */\n      mstore\n        /* \"#utility.yul\":13688:13692   */\n      0x24\n        /* \"#utility.yul\":13685:13686   */\n      0x00\n        /* \"#utility.yul\":13678:13693   */\n      revert\n        /* \"#utility.yul\":13705:13938   */\n    tag_124:\n        /* \"#utility.yul\":13744:13747   */\n      0x00\n        /* \"#utility.yul\":13767:13791   */\n      tag_386\n        /* \"#utility.yul\":13785:13790   */\n      dup3\n        /* \"#utility.yul\":13767:13791   */\n      tag_185\n      jump\t// in\n    tag_386:\n        /* \"#utility.yul\":13758:13791   */\n      swap2\n      pop\n        /* \"#utility.yul\":13813:13879   */\n      0xffffffffffffffffffffffffffffffffffffffffffffffffffffffffffffffff\n        /* \"#utility.yul\":13806:13811   */\n      dup3\n        /* \"#utility.yul\":13803:13880   */\n      sub\n        /* \"#utility.yul\":13800:13903   */\n      tag_387\n      jumpi\n        /* \"#utility.yul\":13883:13901   */\n      tag_388\n      tag_217\n      jump\t// in\n    tag_388:\n        /* \"#utility.yul\":13800:13903   */\n    tag_387:\n        /* \"#utility.yul\":13930:13931   */\n      0x01\n        /* \"#utility.yul\":13923:13928   */\n      dup3\n        /* \"#utility.yul\":13919:13932   */\n      add\n        /* \"#utility.yul\":13912:13932   */\n      swap1\n      pop\n        /* \"#utility.yul\":13705:13938   */\n      swap2\n      swap1\n      pop\n      jump\t// out\n        /* \"#utility.yul\":13944:14374   */\n    tag_128:\n        /* \"#utility.yul\":14087:14091   */\n      0x00\n        /* \"#utility.yul\":14125:14127   */\n      0x60\n        /* \"#utility.yul\":14114:14123   */\n      dup3\n        /* \"#utility.yul\":14110:14128   */\n      add\n        /* \"#utility.yul\":14102:14128   */\n      swap1\n      pop\n        /* \"#utility.yul\":14138:14209   */\n      tag_390\n        /* \"#utility.yul\":14206:14207   */\n      0x00\n        /* \"#utility.yul\":14195:14204   */\n      dup4\n        /* \"#utility.yul\":14191:14208   */\n      add\n        /* \"#utility.yul\":14182:14188   */\n      dup7\n        /* \"#utility.yul\":14138:14209   */\n      tag_196\n      jump\t// in\n    tag_390:\n        /* \"#utility.yul\":14219:14291   */\n      tag_391\n        /* \"#utility.yul\":14287:14289   */\n      0x20\n        /* \"#utility.yul\":14276:14285   */\n      dup4\n        /* \"#utility.yul\":14272:14290   */\n      add\n        /* \"#utility.yul\":14263:14269   */\n      dup6\n        /* \"#utility.yul\":14219:14291   */\n      tag_190\n      jump\t// in\n    tag_391:\n        /* \"#utility.yul\":14301:14367   */\n      tag_392\n        /* \"#utility.yul\":14363:14365   */\n      0x40\n        /* \"#utility.yul\":14352:14361   */\n      dup4\n        /* \"#utility.yul\":14348:14366   */\n      add\n        /* \"#utility.yul\":14339:14345   */\n      dup5\n        /* \"#utility.yul\":14301:14367   */\n      tag_198\n      jump\t// in\n    tag_392:\n        /* \"#utility.yul\":13944:14374   */\n      swap5\n      swap4\n      pop\n      pop\n      pop\n      pop\n      jump\t// out\n        /* \"#utility.yul\":14380:14560   */\n    tag_218:\n        /* \"#utility.yul\":14520:14552   */\n      0x496e73756666696369656e74206372656469747320746f207265746972650000\n        /* \"#utility.yul\":14516:14517   */\n      0x00\n        /* \"#utility.yul\":14508:14514   */\n      dup3\n        /* \"#utility.yul\":14504:14518   */\n      add\n        /* \"#utility.yul\":14497:14553   */\n      mstore\n        /* \"#utility.yul\":14380:14560   */\n      pop\n      jump\t// out\n        /* \"#utility.yul\":14566:14932   */\n    tag_219:\n        /* \"#utility.yul\":14708:14711   */\n      0x00\n        /* \"#utility.yul\":14729:14796   */\n      tag_395\n        /* \"#utility.yul\":14793:14795   */\n      0x1e\n        /* \"#utility.yul\":14788:14791   */\n      dup4\n        /* \"#utility.yul\":14729:14796   */\n      tag_192\n      jump\t// in\n    tag_395:\n        /* \"#utility.yul\":14722:14796   */\n      swap2\n      pop\n        /* \"#utility.yul\":14805:14898   */\n      tag_396\n        /* \"#utility.yul\":14894:14897   */\n      dup3\n        /* \"#utility.yul\":14805:14898   */\n      tag_218\n      jump\t// in\n    tag_396:\n        /* \"#utility.yul\":14923:14925   */\n      0x20\n        /* \"#utility.yul\":14918:14921   */\n      dup3\n        /* \"#utility.yul\":14914:14926   */\n      add\n        /* \"#utility.yul\":14907:14926   */\n      swap1\n      pop\n        /* \"#utility.yul\":14566:14932   */\n      swap2\n      swap1\n      pop\n      jump\t// out\n        /* \"#utility.yul\":14938:15357   */\n    tag_132:\n        /* \"#utility.yul\":15104:15108   */\n      0x00\n        /* \"#utility.yul\":15142:15144   */\n      0x20\n        /* \"#utility.yul\":15131:15140   */\n      dup3\n        /* \"#utility.yul\":15127:15145   */\n      add\n        /* \"#utility.yul\":15119:15145   */\n      swap1\n      pop\n        /* \"#utility.yul\":15191:15200   */\n      dup2\n        /* \"#utility.yul\":15185:15189   */\n      dup2\n        /* \"#utility.yul\":15181:15201   */\n      sub\n        /* \"#utility.yul\":15177:15178   */\n      0x00\n        /* \"#utility.yul\":15166:15175   */\n      dup4\n        /* \"#utility.yul\":15162:15179   */\n      add\n        /* \"#utility.yul\":15155:15202   */\n      mstore\n        /* \"#utility.yul\":15219:15350   */\n      tag_398\n        /* \"#utility.yul\":15345:15349   */\n      dup2\n        /* \"#utility.yul\":15219:15350   */\n      tag_219\n      jump\t// in\n    tag_398:\n        /* \"#utility.yul\":15211:15350   */\n      swap1\n      pop\n        /* \"#utility.yul\":14938:15357   */\n      swap2\n      swap1\n      pop\n      jump\t// out\n        /* \"#utility.yul\":15363:15557   */\n    tag_134:\n        /* \"#utility.yul\":15403:15407   */\n      0x00\n        /* \"#utility.yul\":15423:15443   */\n      tag_400\n        /* \"#utility.yul\":15441:15442   */\n      dup3\n        /* \"#utility.yul\":15423:15443   */\n      tag_185\n      jump\t// in\n    tag_400:\n        /* \"#utility.yul\":15418:15443   */\n      swap2\n      pop\n        /* \"#utility.yul\":15457:15477   */\n      tag_401\n        /* \"#utility.yul\":15475:15476   */\n      dup4\n        /* \"#utility.yul\":15457:15477   */\n      tag_185\n      jump\t// in\n    tag_401:\n        /* \"#utility.yul\":15452:15477   */\n      swap3\n      pop\n        /* \"#utility.yul\":15501:15502   */\n      dup3\n        /* \"#utility.yul\":15498:15499   */\n      dup3\n        /* \"#utility.yul\":15494:15503   */\n      sub\n        /* \"#utility.yul\":15486:15503   */\n      swap1\n      pop\n        /* \"#utility.yul\":15525:15526   */\n      dup2\n        /* \"#utility.yul\":15519:15523   */\n      dup2\n        /* \"#utility.yul\":15516:15527   */\n      gt\n        /* \"#utility.yul\":15513:15550   */\n      iszero\n      tag_402\n      jumpi\n        /* \"#utility.yul\":15530:15548   */\n      tag_403\n      tag_217\n      jump\t// in\n    tag_403:\n        /* \"#utility.yul\":15513:15550   */\n    tag_402:\n        /* \"#utility.yul\":15363:15557   */\n      swap3\n      swap2\n      pop\n      pop\n      jump\t// out\n        /* \"#utility.yul\":15563:15895   */\n    tag_136:\n        /* \"#utility.yul\":15684:15688   */\n      0x00\n        /* \"#utility.yul\":15722:15724   */\n      0x40\n        /* \"#utility.yul\":15711:15720   */\n      dup3\n        /* \"#utility.yul\":15707:15725   */\n      add\n        /* \"#utility.yul\":15699:15725   */\n      swap1\n      pop\n        /* \"#utility.yul\":15735:15806   */\n      tag_405\n        /* \"#utility.yul\":15803:15804   */\n      0x00\n        /* \"#utility.yul\":15792:15801   */\n      dup4\n        /* \"#utility.yul\":15788:15805   */\n      add\n        /* \"#utility.yul\":15779:15785   */\n      dup6\n        /* \"#utility.yul\":15735:15806   */\n      tag_196\n      jump\t// in\n    tag_405:\n        /* \"#utility.yul\":15816:15888   */\n      tag_406\n        /* \"#utility.yul\":15884:15886   */\n      0x20\n        /* \"#utility.yul\":15873:15882   */\n      dup4\n        /* \"#utility.yul\":15869:15887   */\n      add\n        /* \"#utility.yul\":15860:15866   */\n      dup5\n        /* \"#utility.yul\":15816:15888   */\n      tag_196\n      jump\t// in\n    tag_406:\n        /* \"#utility.yul\":15563:15895   */\n      swap4\n      swap3\n      pop\n      pop\n      pop\n      jump\t// out\n        /* \"#utility.yul\":15901:16042   */\n    tag_220:\n        /* \"#utility.yul\":15950:15954   */\n      0x00\n        /* \"#utility.yul\":15973:15976   */\n      dup2\n        /* \"#utility.yul\":15965:15976   */\n      swap1\n      pop\n        /* \"#utility.yul\":15996:15999   */\n      dup2\n        /* \"#utility.yul\":15993:15994   */\n      0x00\n        /* \"#utility.yul\":15986:16000   */\n      mstore\n        /* \"#utility.yul\":16030:16034   */\n      0x20\n        /* \"#utility.yul\":16027:16028   */\n      0x00\n        /* \"#utility.yul\":16017:16035   */\n      keccak256\n        /* \"#utility.yul\":16009:16035   */\n      swap1\n      pop\n        /* \"#utility.yul\":15901:16042   */\n      swap2\n      swap1\n      pop\n      jump\t// out\n        /* \"#utility.yul\":16048:16141   */\n    tag_221:\n        /* \"#utility.yul\":16085:16091   */\n      0x00\n        /* \"#utility.yul\":16132:16134   */\n      0x20\n        /* \"#utility.yul\":16127:16129   */\n      0x1f\n        /* \"#utility.yul\":16120:16125   */\n      dup4\n        /* \"#utility.yul\":16116:16130   */\n      add\n        /* \"#utility.yul\":16112:16135   */\n      div\n        /* \"#utility.yul\":16102:16135   */\n      swap1\n      pop\n        /* \"#utility.yul\":16048:16141   */\n      swap2\n      swap1\n      pop\n      jump\t// out\n        /* \"#utility.yul\":16147:16254   */\n    tag_222:\n        /* \"#utility.yul\":16191:16199   */\n      0x00\n        /* \"#utility.yul\":16241:16246   */\n      dup3\n        /* \"#utility.yul\":16235:16239   */\n      dup3\n        /* \"#utility.yul\":16231:16247   */\n      shl\n        /* \"#utility.yul\":16210:16247   */\n      swap1\n      pop\n        /* \"#utility.yul\":16147:16254   */\n      swap3\n      swap2\n      pop\n      pop\n      jump\t// out\n        /* \"#utility.yul\":16260:16653   */\n    tag_223:\n        /* \"#utility.yul\":16329:16335   */\n      0x00\n        /* \"#utility.yul\":16379:16380   */\n      0x08\n        /* \"#utility.yul\":16367:16377   */\n      dup4\n        /* \"#utility.yul\":16363:16381   */\n      mul\n        /* \"#utility.yul\":16402:16499   */\n      tag_411\n        /* \"#utility.yul\":16432:16498   */\n      0xffffffffffffffffffffffffffffffffffffffffffffffffffffffffffffffff\n        /* \"#utility.yul\":16421:16430   */\n      dup3\n        /* \"#utility.yul\":16402:16499   */\n      tag_222\n      jump\t// in\n    tag_411:\n        /* \"#utility.yul\":16520:16559   */\n      tag_412\n        /* \"#utility.yul\":16550:16558   */\n      dup7\n        /* \"#utility.yul\":16539:16548   */\n      dup4\n        /* \"#utility.yul\":16520:16559   */\n      tag_222\n      jump\t// in\n    tag_412:\n        /* \"#utility.yul\":16508:16559   */\n      swap6\n      pop\n        /* \"#utility.yul\":16592:16596   */\n      dup1\n        /* \"#utility.yul\":16588:16597   */\n      not\n        /* \"#utility.yul\":16581:16586   */\n      dup5\n        /* \"#utility.yul\":16577:16598   */\n      and\n        /* \"#utility.yul\":16568:16598   */\n      swap4\n      pop\n        /* \"#utility.yul\":16641:16645   */\n      dup1\n        /* \"#utility.yul\":16631:16639   */\n      dup7\n        /* \"#utility.yul\":16627:16646   */\n      and\n        /* \"#utility.yul\":16620:16625   */\n      dup5\n        /* \"#utility.yul\":16617:16647   */\n      or\n        /* \"#utility.yul\":16607:16647   */\n      swap3\n      pop\n        /* \"#utility.yul\":16336:16653   */\n      pop\n      pop\n        /* \"#utility.yul\":16260:16653   */\n      swap4\n      swap3\n      pop\n      pop\n      pop\n      jump\t// out\n        /* \"#utility.yul\":16659:16719   */\n    tag_224:\n        /* \"#utility.yul\":16687:16690   */\n      0x00\n        /* \"#utility.yul\":16708:16713   */\n      dup2\n        /* \"#utility.yul\":16701:16713   */\n      swap1\n      pop\n        /* \"#utility.yul\":16659:16719   */\n      swap2\n      swap1\n      pop\n      jump\t// out\n        /* \"#utility.yul\":16725:16867   */\n    tag_225:\n        /* \"#utility.yul\":16775:16784   */\n      0x00\n        /* \"#utility.yul\":16808:16861   */\n      tag_415\n        /* \"#utility.yul\":16826:16860   */\n      tag_416\n        /* \"#utility.yul\":16835:16859   */\n      tag_417\n        /* \"#utility.yul\":16853:16858   */\n      dup5\n        /* \"#utility.yul\":16835:16859   */\n      tag_185\n      jump\t// in\n    tag_417:\n        /* \"#utility.yul\":16826:16860   */\n      tag_224\n      jump\t// in\n    tag_416:\n        /* \"#utility.yul\":16808:16861   */\n      tag_185\n      jump\t// in\n    tag_415:\n        /* \"#utility.yul\":16795:16861   */\n      swap1\n      pop\n        /* \"#utility.yul\":16725:16867   */\n      swap2\n      swap1\n      pop\n      jump\t// out\n        /* \"#utility.yul\":16873:16948   */\n    tag_226:\n        /* \"#utility.yul\":16916:16919   */\n      0x00\n        /* \"#utility.yul\":16937:16942   */\n      dup2\n        /* \"#utility.yul\":16930:16942   */\n      swap1\n      pop\n        /* \"#utility.yul\":16873:16948   */\n      swap2\n      swap1\n      pop\n      jump\t// out\n        /* \"#utility.yul\":16954:17223   */\n    tag_227:\n        /* \"#utility.yul\":17064:17103   */\n      tag_420\n        /* \"#utility.yul\":17095:17102   */\n      dup4\n        /* \"#utility.yul\":17064:17103   */\n      tag_225\n      jump\t// in\n    tag_420:\n        /* \"#utility.yul\":17125:17216   */\n      tag_421\n        /* \"#utility.yul\":17174:17215   */\n      tag_422\n        /* \"#utility.yul\":17198:17214   */\n      dup3\n        /* \"#utility.yul\":17174:17215   */\n      tag_226\n      jump\t// in\n    tag_422:\n        /* \"#utility.yul\":17166:17172   */\n      dup5\n        /* \"#utility.yul\":17159:17163   */\n      dup5\n        /* \"#utility.yul\":17153:17164   */\n      sload\n        /* \"#utility.yul\":17125:17216   */\n      tag_223\n      jump\t// in\n    tag_421:\n        /* \"#utility.yul\":17119:17123   */\n      dup3\n        /* \"#utility.yul\":17112:17217   */\n      sstore\n        /* \"#utility.yul\":17030:17223   */\n      pop\n        /* \"#utility.yul\":16954:17223   */\n      pop\n      pop\n      pop\n      jump\t// out\n        /* \"#utility.yul\":17229:17302   */\n    tag_228:\n        /* \"#utility.yul\":17274:17277   */\n      0x00\n        /* \"#utility.yul\":17229:17302   */\n      swap1\n      jump\t// out\n        /* \"#utility.yul\":17308:17497   */\n    tag_229:\n        /* \"#utility.yul\":17385:17417   */\n      tag_425\n      tag_228\n      jump\t// in\n    tag_425:\n        /* \"#utility.yul\":17426:17491   */\n      tag_426\n        /* \"#utility.yul\":17484:17490   */\n      dup2\n        /* \"#utility.yul\":17476:17482   */\n      dup5\n        /* \"#utility.yul\":17470:17474   */\n      dup5\n        /* \"#utility.yul\":17426:17491   */\n      tag_227\n      jump\t// in\n    tag_426:\n        /* \"#utility.yul\":17361:17497   */\n      pop\n        /* \"#utility.yul\":17308:17497   */\n      pop\n      pop\n      jump\t// out\n        /* \"#utility.yul\":17503:17689   */\n    tag_230:\n        /* \"#utility.yul\":17563:17683   */\n    tag_428:\n        /* \"#utility.yul\":17580:17583   */\n      dup2\n        /* \"#utility.yul\":17573:17578   */\n      dup2\n        /* \"#utility.yul\":17570:17584   */\n      lt\n        /* \"#utility.yul\":17563:17683   */\n      iszero\n      tag_430\n      jumpi\n        /* \"#utility.yul\":17634:17673   */\n      tag_431\n        /* \"#utility.yul\":17671:17672   */\n      0x00\n        /* \"#utility.yul\":17664:17669   */\n      dup3\n        /* \"#utility.yul\":17634:17673   */\n      tag_229\n      jump\t// in\n    tag_431:\n        /* \"#utility.yul\":17607:17608   */\n      0x01\n        /* \"#utility.yul\":17600:17605   */\n      dup2\n        /* \"#utility.yul\":17596:17609   */\n      add\n        /* \"#utility.yul\":17587:17609   */\n      swap1\n      pop\n        /* \"#utility.yul\":17563:17683   */\n      jump(tag_428)\n    tag_430:\n        /* \"#utility.yul\":17503:17689   */\n      pop\n      pop\n      jump\t// out\n        /* \"#utility.yul\":17695:18238   */\n    tag_231:\n        /* \"#utility.yul\":17796:17798   */\n      0x1f\n        /* \"#utility.yul\":17791:17794   */\n      dup3\n        /* \"#utility.yul\":17788:17799   */\n      gt\n        /* \"#utility.yul\":17785:18231   */\n      iszero\n      tag_433\n      jumpi\n        /* \"#utility.yul\":17830:17868   */\n      tag_434\n        /* \"#utility.yul\":17862:17867   */\n      dup2\n        /* \"#utility.yul\":17830:17868   */\n      tag_220\n      jump\t// in\n    tag_434:\n        /* \"#utility.yul\":17914:17943   */\n      tag_435\n        /* \"#utility.yul\":17932:17942   */\n      dup5\n        /* \"#utility.yul\":17914:17943   */\n      tag_221\n      jump\t// in\n    tag_435:\n        /* \"#utility.yul\":17904:17912   */\n      dup2\n        /* \"#utility.yul\":17900:17944   */\n      add\n        /* \"#utility.yul\":18097:18099   */\n      0x20\n        /* \"#utility.yul\":18085:18095   */\n      dup6\n        /* \"#utility.yul\":18082:18100   */\n      lt\n        /* \"#utility.yul\":18079:18128   */\n      iszero\n      tag_436\n      jumpi\n        /* \"#utility.yul\":18118:18126   */\n      dup2\n        /* \"#utility.yul\":18103:18126   */\n      swap1\n      pop\n        /* \"#utility.yul\":18079:18128   */\n    tag_436:\n        /* \"#utility.yul\":18141:18221   */\n      tag_437\n        /* \"#utility.yul\":18197:18219   */\n      tag_438\n        /* \"#utility.yul\":18215:18218   */\n      dup6\n        /* \"#utility.yul\":18197:18219   */\n      tag_221\n      jump\t// in\n    tag_438:\n        /* \"#utility.yul\":18187:18195   */\n      dup4\n        /* \"#utility.yul\":18183:18220   */\n      add\n        /* \"#utility.yul\":18170:18181   */\n      dup3\n        /* \"#utility.yul\":18141:18221   */\n      tag_230\n      jump\t// in\n    tag_437:\n        /* \"#utility.yul\":17800:18231   */\n      pop\n      pop\n        /* \"#utility.yul\":17785:18231   */\n    tag_433:\n        /* \"#utility.yul\":17695:18238   */\n      pop\n      pop\n      pop\n      jump\t// out\n        /* \"#utility.yul\":18244:18361   */\n    tag_232:\n        /* \"#utility.yul\":18298:18306   */\n      0x00\n        /* \"#utility.yul\":18348:18353   */\n      dup3\n        /* \"#utility.yul\":18342:18346   */\n      dup3\n        /* \"#utility.yul\":18338:18354   */\n      shr\n        /* \"#utility.yul\":18317:18354   */\n      swap1\n      pop\n        /* \"#utility.yul\":18244:18361   */\n      swap3\n      swap2\n      pop\n      pop\n      jump\t// out\n        /* \"#utility.yul\":18367:18536   */\n    tag_233:\n        /* \"#utility.yul\":18411:18417   */\n      0x00\n        /* \"#utility.yul\":18444:18495   */\n      tag_441\n        /* \"#utility.yul\":18492:18493   */\n      0x00\n        /* \"#utility.yul\":18488:18494   */\n      not\n        /* \"#utility.yul\":18480:18485   */\n      dup5\n        /* \"#utility.yul\":18477:18478   */\n      0x08\n        /* \"#utility.yul\":18473:18486   */\n      mul\n        /* \"#utility.yul\":18444:18495   */\n      tag_232\n      jump\t// in\n    tag_441:\n        /* \"#utility.yul\":18440:18496   */\n      not\n        /* \"#utility.yul\":18525:18529   */\n      dup1\n        /* \"#utility.yul\":18519:18523   */\n      dup4\n        /* \"#utility.yul\":18515:18530   */\n      and\n        /* \"#utility.yul\":18505:18530   */\n      swap2\n      pop\n        /* \"#utility.yul\":18418:18536   */\n      pop\n        /* \"#utility.yul\":18367:18536   */\n      swap3\n      swap2\n      pop\n      pop\n      jump\t// out\n        /* \"#utility.yul\":18541:18836   */\n    tag_234:\n        /* \"#utility.yul\":18617:18621   */\n      0x00\n        /* \"#utility.yul\":18763:18792   */\n      tag_443\n        /* \"#utility.yul\":18788:18791   */\n      dup4\n        /* \"#utility.yul\":18782:18786   */\n      dup4\n        /* \"#utility.yul\":18763:18792   */\n      tag_233\n      jump\t// in\n    tag_443:\n        /* \"#utility.yul\":18755:18792   */\n      swap2\n      pop\n        /* \"#utility.yul\":18825:18828   */\n      dup3\n        /* \"#utility.yul\":18822:18823   */\n      0x02\n        /* \"#utility.yul\":18818:18829   */\n      mul\n        /* \"#utility.yul\":18812:18816   */\n      dup3\n        /* \"#utility.yul\":18809:18830   */\n      or\n        /* \"#utility.yul\":18801:18830   */\n      swap1\n      pop\n        /* \"#utility.yul\":18541:18836   */\n      swap3\n      swap2\n      pop\n      pop\n      jump\t// out\n        /* \"#utility.yul\":18841:20236   */\n    tag_140:\n        /* \"#utility.yul\":18958:18995   */\n      tag_445\n        /* \"#utility.yul\":18991:18994   */\n      dup3\n        /* \"#utility.yul\":18958:18995   */\n      tag_191\n      jump\t// in\n    tag_445:\n        /* \"#utility.yul\":19060:19078   */\n      0xffffffffffffffff\n        /* \"#utility.yul\":19052:19058   */\n      dup2\n        /* \"#utility.yul\":19049:19079   */\n      gt\n        /* \"#utility.yul\":19046:19102   */\n      iszero\n      tag_446\n      jumpi\n        /* \"#utility.yul\":19082:19100   */\n      tag_447\n      tag_205\n      jump\t// in\n    tag_447:\n        /* \"#utility.yul\":19046:19102   */\n    tag_446:\n        /* \"#utility.yul\":19126:19164   */\n      tag_448\n        /* \"#utility.yul\":19158:19162   */\n      dup3\n        /* \"#utility.yul\":19152:19163   */\n      sload\n        /* \"#utility.yul\":19126:19164   */\n      tag_95\n      jump\t// in\n    tag_448:\n        /* \"#utility.yul\":19211:19278   */\n      tag_449\n        /* \"#utility.yul\":19271:19277   */\n      dup3\n        /* \"#utility.yul\":19263:19269   */\n      dup3\n        /* \"#utility.yul\":19257:19261   */\n      dup6\n        /* \"#utility.yul\":19211:19278   */\n      tag_231\n      jump\t// in\n    tag_449:\n        /* \"#utility.yul\":19305:19306   */\n      0x00\n        /* \"#utility.yul\":19329:19333   */\n      0x20\n        /* \"#utility.yul\":19316:19333   */\n      swap1\n      pop\n        /* \"#utility.yul\":19361:19363   */\n      0x1f\n        /* \"#utility.yul\":19353:19359   */\n      dup4\n        /* \"#utility.yul\":19350:19364   */\n      gt\n        /* \"#utility.yul\":19378:19379   */\n      0x01\n        /* \"#utility.yul\":19373:19991   */\n      dup2\n      eq\n      tag_451\n      jumpi\n        /* \"#utility.yul\":20035:20036   */\n      0x00\n        /* \"#utility.yul\":20052:20058   */\n      dup5\n        /* \"#utility.yul\":20049:20126   */\n      iszero\n      tag_452\n      jumpi\n        /* \"#utility.yul\":20101:20110   */\n      dup3\n        /* \"#utility.yul\":20096:20099   */\n      dup8\n        /* \"#utility.yul\":20092:20111   */\n      add\n        /* \"#utility.yul\":20086:20112   */\n      mload\n        /* \"#utility.yul\":20077:20112   */\n      swap1\n      pop\n        /* \"#utility.yul\":20049:20126   */\n    tag_452:\n        /* \"#utility.yul\":20152:20219   */\n      tag_453\n        /* \"#utility.yul\":20212:20218   */\n      dup6\n        /* \"#utility.yul\":20205:20210   */\n      dup3\n        /* \"#utility.yul\":20152:20219   */\n      tag_234\n      jump\t// in\n    tag_453:\n        /* \"#utility.yul\":20146:20150   */\n      dup7\n        /* \"#utility.yul\":20139:20220   */\n      sstore\n        /* \"#utility.yul\":20008:20230   */\n      pop\n        /* \"#utility.yul\":19343:20230   */\n      jump(tag_450)\n        /* \"#utility.yul\":19373:19991   */\n    tag_451:\n        /* \"#utility.yul\":19425:19429   */\n      0x1f\n        /* \"#utility.yul\":19421:19430   */\n      not\n        /* \"#utility.yul\":19413:19419   */\n      dup5\n        /* \"#utility.yul\":19409:19431   */\n      and\n        /* \"#utility.yul\":19459:19496   */\n      tag_454\n        /* \"#utility.yul\":19491:19495   */\n      dup7\n        /* \"#utility.yul\":19459:19496   */\n      tag_220\n      jump\t// in\n    tag_454:\n        /* \"#utility.yul\":19518:19519   */\n      0x00\n        /* \"#utility.yul\":19532:19740   */\n    tag_455:\n        /* \"#utility.yul\":19546:19553   */\n      dup3\n        /* \"#utility.yul\":19543:19544   */\n      dup2\n        /* \"#utility.yul\":19540:19554   */\n      lt\n        /* \"#utility.yul\":19532:19740   */\n      iszero\n      tag_457\n      jumpi\n        /* \"#utility.yul\":19625:19634   */\n      dup5\n        /* \"#utility.yul\":19620:19623   */\n      dup10\n        /* \"#utility.yul\":19616:19635   */\n      add\n        /* \"#utility.yul\":19610:19636   */\n      mload\n        /* \"#utility.yul\":19602:19608   */\n      dup3\n        /* \"#utility.yul\":19595:19637   */\n      sstore\n        /* \"#utility.yul\":19676:19677   */\n      0x01\n        /* \"#utility.yul\":19668:19674   */\n      dup3\n        /* \"#utility.yul\":19664:19678   */\n      add\n        /* \"#utility.yul\":19654:19678   */\n      swap2\n      pop\n        /* \"#utility.yul\":19723:19725   */\n      0x20\n        /* \"#utility.yul\":19712:19721   */\n      dup6\n        /* \"#utility.yul\":19708:19726   */\n      add\n        /* \"#utility.yul\":19695:19726   */\n      swap5\n      pop\n        /* \"#utility.yul\":19569:19573   */\n      0x20\n        /* \"#utility.yul\":19566:19567   */\n      dup2\n        /* \"#utility.yul\":19562:19574   */\n      add\n        /* \"#utility.yul\":19557:19574   */\n      swap1\n      pop\n        /* \"#utility.yul\":19532:19740   */\n      jump(tag_455)\n    tag_457:\n        /* \"#utility.yul\":19768:19774   */\n      dup7\n        /* \"#utility.yul\":19759:19766   */\n      dup4\n        /* \"#utility.yul\":19756:19775   */\n      lt\n        /* \"#utility.yul\":19753:19932   */\n      iszero\n      tag_458\n      jumpi\n        /* \"#utility.yul\":19826:19835   */\n      dup5\n        /* \"#utility.yul\":19821:19824   */\n      dup10\n        /* \"#utility.yul\":19817:19836   */\n      add\n        /* \"#utility.yul\":19811:19837   */\n      mload\n        /* \"#utility.yul\":19869:19917   */\n      tag_459\n        /* \"#utility.yul\":19911:19915   */\n      0x1f\n        /* \"#utility.yul\":19903:19909   */\n      dup10\n        /* \"#utility.yul\":19899:19916   */\n      and\n        /* \"#utility.yul\":19888:19897   */\n      dup3\n        /* \"#utility.yul\":19869:19917   */\n      tag_233\n      jump\t// in\n    tag_459:\n        /* \"#utility.yul\":19861:19867   */\n      dup4\n        /* \"#utility.yul\":19854:19918   */\n      sstore\n        /* \"#utility.yul\":19776:19932   */\n      pop\n        /* \"#utility.yul\":19753:19932   */\n    tag_458:\n        /* \"#utility.yul\":19978:19979   */\n      0x01\n        /* \"#utility.yul\":19974:19975   */\n      0x02\n        /* \"#utility.yul\":19966:19972   */\n      dup9\n        /* \"#utility.yul\":19962:19976   */\n      mul\n        /* \"#utility.yul\":19958:19980   */\n      add\n        /* \"#utility.yul\":19952:19956   */\n      dup9\n        /* \"#utility.yul\":19945:19981   */\n      sstore\n        /* \"#utility.yul\":19380:19991   */\n      pop\n      pop\n      pop\n        /* \"#utility.yul\":19343:20230   */\n    tag_450:\n      pop\n        /* \"#utility.yul\":18933:20236   */\n      pop\n      pop\n      pop\n        /* \"#utility.yul\":18841:20236   */\n      pop\n      pop\n      jump\t// out\n        /* \"#utility.yul\":20242:20775   */\n    tag_143:\n        /* \"#utility.yul\":20411:20415   */\n      0x00\n        /* \"#utility.yul\":20449:20451   */\n      0x60\n        /* \"#utility.yul\":20438:20447   */\n      dup3\n        /* \"#utility.yul\":20434:20452   */\n      add\n        /* \"#utility.yul\":20426:20452   */\n      swap1\n      pop\n        /* \"#utility.yul\":20462:20533   */\n      tag_461\n        /* \"#utility.yul\":20530:20531   */\n      0x00\n        /* \"#utility.yul\":20519:20528   */\n      dup4\n        /* \"#utility.yul\":20515:20532   */\n      add\n        /* \"#utility.yul\":20506:20512   */\n      dup7\n        /* \"#utility.yul\":20462:20533   */\n      tag_196\n      jump\t// in\n    tag_461:\n        /* \"#utility.yul\":20580:20589   */\n      dup2\n        /* \"#utility.yul\":20574:20578   */\n      dup2\n        /* \"#utility.yul\":20570:20590   */\n      sub\n        /* \"#utility.yul\":20565:20567   */\n      0x20\n        /* \"#utility.yul\":20554:20563   */\n      dup4\n        /* \"#utility.yul\":20550:20568   */\n      add\n        /* \"#utility.yul\":20543:20591   */\n      mstore\n        /* \"#utility.yul\":20608:20686   */\n      tag_462\n        /* \"#utility.yul\":20681:20685   */\n      dup2\n        /* \"#utility.yul\":20672:20678   */\n      dup6\n        /* \"#utility.yul\":20608:20686   */\n      tag_195\n      jump\t// in\n    tag_462:\n        /* \"#utility.yul\":20600:20686   */\n      swap1\n      pop\n        /* \"#utility.yul\":20696:20768   */\n      tag_463\n        /* \"#utility.yul\":20764:20766   */\n      0x40\n        /* \"#utility.yul\":20753:20762   */\n      dup4\n        /* \"#utility.yul\":20749:20767   */\n      add\n        /* \"#utility.yul\":20740:20746   */\n      dup5\n        /* \"#utility.yul\":20696:20768   */\n      tag_190\n      jump\t// in\n    tag_463:\n        /* \"#utility.yul\":20242:20775   */\n      swap5\n      swap4\n      pop\n      pop\n      pop\n      pop\n      jump\t// out\n        /* \"#utility.yul\":20781:21003   */\n    tag_235:\n        /* \"#utility.yul\":20921:20955   */\n      0x437265646974732073686f756c642062652067726561746572207468616e207a\n        /* \"#utility.yul\":20917:20918   */\n      0x00\n        /* \"#utility.yul\":20909:20915   */\n      dup3\n        /* \"#utility.yul\":20905:20919   */\n      add\n        /* \"#utility.yul\":20898:20956   */\n      mstore\n        /* \"#utility.yul\":20990:20995   */\n      0x65726f0000000000000000000000000000000000000000000000000000000000\n        /* \"#utility.yul\":20985:20987   */\n      0x20\n        /* \"#utility.yul\":20977:20983   */\n      dup3\n        /* \"#utility.yul\":20973:20988   */\n      add\n        /* \"#utility.yul\":20966:20996   */\n      mstore\n        /* \"#utility.yul\":20781:21003   */\n      pop\n      jump\t// out\n        /* \"#utility.yul\":21009:21375   */\n    tag_236:\n        /* \"#utility.yul\":21151:21154   */\n      0x00\n        /* \"#utility.yul\":21172:21239   */\n      tag_466\n        /* \"#utility.yul\":21236:21238   */\n      0x23\n        /* \"#utility.yul\":21231:21234   */\n      dup4\n        /* \"#utility.yul\":21172:21239   */\n      tag_192\n      jump\t// in\n    tag_466:\n        /* \"#utility.yul\":21165:21239   */\n      swap2\n      pop\n        /* \"#utility.yul\":21248:21341   */\n      tag_467\n        /* \"#utility.yul\":21337:21340   */\n      dup3\n        /* \"#utility.yul\":21248:21341   */\n      tag_235\n      jump\t// in\n    tag_467:\n        /* \"#utility.yul\":21366:21368   */\n      0x40\n        /* \"#utility.yul\":21361:21364   */\n      dup3\n        /* \"#utility.yul\":21357:21369   */\n      add\n        /* \"#utility.yul\":21350:21369   */\n      swap1\n      pop\n        /* \"#utility.yul\":21009:21375   */\n      swap2\n      swap1\n      pop\n      jump\t// out\n        /* \"#utility.yul\":21381:21800   */\n    tag_147:\n        /* \"#utility.yul\":21547:21551   */\n      0x00\n        /* \"#utility.yul\":21585:21587   */\n      0x20\n        /* \"#utility.yul\":21574:21583   */\n      dup3\n        /* \"#utility.yul\":21570:21588   */\n      add\n        /* \"#utility.yul\":21562:21588   */\n      swap1\n      pop\n        /* \"#utility.yul\":21634:21643   */\n      dup2\n        /* \"#utility.yul\":21628:21632   */\n      dup2\n        /* \"#utility.yul\":21624:21644   */\n      sub\n        /* \"#utility.yul\":21620:21621   */\n      0x00\n        /* \"#utility.yul\":21609:21618   */\n      dup4\n        /* \"#utility.yul\":21605:21622   */\n      add\n        /* \"#utility.yul\":21598:21645   */\n      mstore\n        /* \"#utility.yul\":21662:21793   */\n      tag_469\n        /* \"#utility.yul\":21788:21792   */\n      dup2\n        /* \"#utility.yul\":21662:21793   */\n      tag_236\n      jump\t// in\n    tag_469:\n        /* \"#utility.yul\":21654:21793   */\n      swap1\n      pop\n        /* \"#utility.yul\":21381:21800   */\n      swap2\n      swap1\n      pop\n      jump\t// out\n        /* \"#utility.yul\":21806:21984   */\n    tag_237:\n        /* \"#utility.yul\":21946:21976   */\n      0x4e6f7420656e6f75676820617661696c61626c65206372656469747300000000\n        /* \"#utility.yul\":21942:21943   */\n      0x00\n        /* \"#utility.yul\":21934:21940   */\n      dup3\n        /* \"#utility.yul\":21930:21944   */\n      add\n        /* \"#utility.yul\":21923:21977   */\n      mstore\n        /* \"#utility.yul\":21806:21984   */\n      pop\n      jump\t// out\n        /* \"#utility.yul\":21990:22356   */\n    tag_238:\n        /* \"#utility.yul\":22132:22135   */\n      0x00\n        /* \"#utility.yul\":22153:22220   */\n      tag_472\n        /* \"#utility.yul\":22217:22219   */\n      0x1c\n        /* \"#utility.yul\":22212:22215   */\n      dup4\n        /* \"#utility.yul\":22153:22220   */\n      tag_192\n      jump\t// in\n    tag_472:\n        /* \"#utility.yul\":22146:22220   */\n      swap2\n      pop\n        /* \"#utility.yul\":22229:22322   */\n      tag_473\n        /* \"#utility.yul\":22318:22321   */\n      dup3\n        /* \"#utility.yul\":22229:22322   */\n      tag_237\n      jump\t// in\n    tag_473:\n        /* \"#utility.yul\":22347:22349   */\n      0x20\n        /* \"#utility.yul\":22342:22345   */\n      dup3\n        /* \"#utility.yul\":22338:22350   */\n      add\n        /* \"#utility.yul\":22331:22350   */\n      swap1\n      pop\n        /* \"#utility.yul\":21990:22356   */\n      swap2\n      swap1\n      pop\n      jump\t// out\n        /* \"#utility.yul\":22362:22781   */\n    tag_150:\n        /* \"#utility.yul\":22528:22532   */\n      0x00\n        /* \"#utility.yul\":22566:22568   */\n      0x20\n        /* \"#utility.yul\":22555:22564   */\n      dup3\n        /* \"#utility.yul\":22551:22569   */\n      add\n        /* \"#utility.yul\":22543:22569   */\n      swap1\n      pop\n        /* \"#utility.yul\":22615:22624   */\n      dup2\n        /* \"#utility.yul\":22609:22613   */\n      dup2\n        /* \"#utility.yul\":22605:22625   */\n      sub\n        /* \"#utility.yul\":22601:22602   */\n      0x00\n        /* \"#utility.yul\":22590:22599   */\n      dup4\n        /* \"#utility.yul\":22586:22603   */\n      add\n        /* \"#utility.yul\":22579:22626   */\n      mstore\n        /* \"#utility.yul\":22643:22774   */\n      tag_475\n        /* \"#utility.yul\":22769:22773   */\n      dup2\n        /* \"#utility.yul\":22643:22774   */\n      tag_238\n      jump\t// in\n    tag_475:\n        /* \"#utility.yul\":22635:22774   */\n      swap1\n      pop\n        /* \"#utility.yul\":22362:22781   */\n      swap2\n      swap1\n      pop\n      jump\t// out\n        /* \"#utility.yul\":22787:23197   */\n    tag_152:\n        /* \"#utility.yul\":22827:22834   */\n      0x00\n        /* \"#utility.yul\":22850:22870   */\n      tag_477\n        /* \"#utility.yul\":22868:22869   */\n      dup3\n        /* \"#utility.yul\":22850:22870   */\n      tag_185\n      jump\t// in\n    tag_477:\n        /* \"#utility.yul\":22845:22870   */\n      swap2\n      pop\n        /* \"#utility.yul\":22884:22904   */\n      tag_478\n        /* \"#utility.yul\":22902:22903   */\n      dup4\n        /* \"#utility.yul\":22884:22904   */\n      tag_185\n      jump\t// in\n    tag_478:\n        /* \"#utility.yul\":22879:22904   */\n      swap3\n      pop\n        /* \"#utility.yul\":22939:22940   */\n      dup3\n        /* \"#utility.yul\":22936:22937   */\n      dup3\n        /* \"#utility.yul\":22932:22941   */\n      mul\n        /* \"#utility.yul\":22961:22991   */\n      tag_479\n        /* \"#utility.yul\":22979:22990   */\n      dup2\n        /* \"#utility.yul\":22961:22991   */\n      tag_185\n      jump\t// in\n    tag_479:\n        /* \"#utility.yul\":22950:22991   */\n      swap2\n      pop\n        /* \"#utility.yul\":23140:23141   */\n      dup3\n        /* \"#utility.yul\":23131:23138   */\n      dup3\n        /* \"#utility.yul\":23127:23142   */\n      div\n        /* \"#utility.yul\":23124:23125   */\n      dup5\n        /* \"#utility.yul\":23121:23143   */\n      eq\n        /* \"#utility.yul\":23101:23102   */\n      dup4\n        /* \"#utility.yul\":23094:23103   */\n      iszero\n        /* \"#utility.yul\":23074:23157   */\n      or\n        /* \"#utility.yul\":23051:23190   */\n      tag_480\n      jumpi\n        /* \"#utility.yul\":23170:23188   */\n      tag_481\n      tag_217\n      jump\t// in\n    tag_481:\n        /* \"#utility.yul\":23051:23190   */\n    tag_480:\n        /* \"#utility.yul\":22835:23197   */\n      pop\n        /* \"#utility.yul\":22787:23197   */\n      swap3\n      swap2\n      pop\n      pop\n      jump\t// out\n        /* \"#utility.yul\":23203:23373   */\n    tag_239:\n        /* \"#utility.yul\":23343:23365   */\n      0x496e73756666696369656e74207061796d656e74000000000000000000000000\n        /* \"#utility.yul\":23339:23340   */\n      0x00\n        /* \"#utility.yul\":23331:23337   */\n      dup3\n        /* \"#utility.yul\":23327:23341   */\n      add\n        /* \"#utility.yul\":23320:23366   */\n      mstore\n        /* \"#utility.yul\":23203:23373   */\n      pop\n      jump\t// out\n        /* \"#utility.yul\":23379:23745   */\n    tag_240:\n        /* \"#utility.yul\":23521:23524   */\n      0x00\n        /* \"#utility.yul\":23542:23609   */\n      tag_484\n        /* \"#utility.yul\":23606:23608   */\n      0x14\n        /* \"#utility.yul\":23601:23604   */\n      dup4\n        /* \"#utility.yul\":23542:23609   */\n      tag_192\n      jump\t// in\n    tag_484:\n        /* \"#utility.yul\":23535:23609   */\n      swap2\n      pop\n        /* \"#utility.yul\":23618:23711   */\n      tag_485\n        /* \"#utility.yul\":23707:23710   */\n      dup3\n        /* \"#utility.yul\":23618:23711   */\n      tag_239\n      jump\t// in\n    tag_485:\n        /* \"#utility.yul\":23736:23738   */\n      0x20\n        /* \"#utility.yul\":23731:23734   */\n      dup3\n        /* \"#utility.yul\":23727:23739   */\n      add\n        /* \"#utility.yul\":23720:23739   */\n      swap1\n      pop\n        /* \"#utility.yul\":23379:23745   */\n      swap2\n      swap1\n      pop\n      jump\t// out\n        /* \"#utility.yul\":23751:24170   */\n    tag_155:\n        /* \"#utility.yul\":23917:23921   */\n      0x00\n        /* \"#utility.yul\":23955:23957   */\n      0x20\n        /* \"#utility.yul\":23944:23953   */\n      dup3\n        /* \"#utility.yul\":23940:23958   */\n      add\n        /* \"#utility.yul\":23932:23958   */\n      swap1\n      pop\n        /* \"#utility.yul\":24004:24013   */\n      dup2\n        /* \"#utility.yul\":23998:24002   */\n      dup2\n        /* \"#utility.yul\":23994:24014   */\n      sub\n        /* \"#utility.yul\":23990:23991   */\n      0x00\n        /* \"#utility.yul\":23979:23988   */\n      dup4\n        /* \"#utility.yul\":23975:23992   */\n      add\n        /* \"#utility.yul\":23968:24015   */\n      mstore\n        /* \"#utility.yul\":24032:24163   */\n      tag_487\n        /* \"#utility.yul\":24158:24162   */\n      dup2\n        /* \"#utility.yul\":24032:24163   */\n      tag_240\n      jump\t// in\n    tag_487:\n        /* \"#utility.yul\":24024:24163   */\n      swap1\n      pop\n        /* \"#utility.yul\":23751:24170   */\n      swap2\n      swap1\n      pop\n      jump\t// out\n        /* \"#utility.yul\":24176:24367   */\n    tag_158:\n        /* \"#utility.yul\":24216:24219   */\n      0x00\n        /* \"#utility.yul\":24235:24255   */\n      tag_489\n        /* \"#utility.yul\":24253:24254   */\n      dup3\n        /* \"#utility.yul\":24235:24255   */\n      tag_185\n      jump\t// in\n    tag_489:\n        /* \"#utility.yul\":24230:24255   */\n      swap2\n      pop\n        /* \"#utility.yul\":24269:24289   */\n      tag_490\n        /* \"#utility.yul\":24287:24288   */\n      dup4\n        /* \"#utility.yul\":24269:24289   */\n      tag_185\n      jump\t// in\n    tag_490:\n        /* \"#utility.yul\":24264:24289   */\n      swap3\n      pop\n        /* \"#utility.yul\":24312:24313   */\n      dup3\n        /* \"#utility.yul\":24309:24310   */\n      dup3\n        /* \"#utility.yul\":24305:24314   */\n      add\n        /* \"#utility.yul\":24298:24314   */\n      swap1\n      pop\n        /* \"#utility.yul\":24333:24336   */\n      dup1\n        /* \"#utility.yul\":24330:24331   */\n      dup3\n        /* \"#utility.yul\":24327:24337   */\n      gt\n        /* \"#utility.yul\":24324:24360   */\n      iszero\n      tag_491\n      jumpi\n        /* \"#utility.yul\":24340:24358   */\n      tag_492\n      tag_217\n      jump\t// in\n    tag_492:\n        /* \"#utility.yul\":24324:24360   */\n    tag_491:\n        /* \"#utility.yul\":24176:24367   */\n      swap3\n      swap2\n      pop\n      pop\n      jump\t// out\n        /* \"#utility.yul\":24373:24601   */\n    tag_241:\n        /* \"#utility.yul\":24513:24547   */\n      0x546f74616c20637265646974732073686f756c64206265206772656174657220\n        /* \"#utility.yul\":24509:24510   */\n      0x00\n        /* \"#utility.yul\":24501:24507   */\n      dup3\n        /* \"#utility.yul\":24497:24511   */\n      add\n        /* \"#utility.yul\":24490:24548   */\n      mstore\n        /* \"#utility.yul\":24582:24593   */\n      0x7468616e207a65726f0000000000000000000000000000000000000000000000\n        /* \"#utility.yul\":24577:24579   */\n      0x20\n        /* \"#utility.yul\":24569:24575   */\n      dup3\n        /* \"#utility.yul\":24565:24580   */\n      add\n        /* \"#utility.yul\":24558:24594   */\n      mstore\n        /* \"#utility.yul\":24373:24601   */\n      pop\n      jump\t// out\n        /* \"#utility.yul\":24607:24973   */\n    tag_242:\n        /* \"#utility.yul\":24749:24752   */\n      0x00\n        /* \"#utility.yul\":24770:24837   */\n      tag_495\n        /* \"#utility.yul\":24834:24836   */\n      0x29\n        /* \"#utility.yul\":24829:24832   */\n      dup4\n        /* \"#utility.yul\":24770:24837   */\n      tag_192\n      jump\t// in\n    tag_495:\n        /* \"#utility.yul\":24763:24837   */\n      swap2\n      pop\n        /* \"#utility.yul\":24846:24939   */\n      tag_496\n        /* \"#utility.yul\":24935:24938   */\n      dup3\n        /* \"#utility.yul\":24846:24939   */\n      tag_241\n      jump\t// in\n    tag_496:\n        /* \"#utility.yul\":24964:24966   */\n      0x40\n        /* \"#utility.yul\":24959:24962   */\n      dup3\n        /* \"#utility.yul\":24955:24967   */\n      add\n        /* \"#utility.yul\":24948:24967   */\n      swap1\n      pop\n        /* \"#utility.yul\":24607:24973   */\n      swap2\n      swap1\n      pop\n      jump\t// out\n        /* \"#utility.yul\":24979:25398   */\n    tag_168:\n        /* \"#utility.yul\":25145:25149   */\n      0x00\n        /* \"#utility.yul\":25183:25185   */\n      0x20\n        /* \"#utility.yul\":25172:25181   */\n      dup3\n        /* \"#utility.yul\":25168:25186   */\n      add\n        /* \"#utility.yul\":25160:25186   */\n      swap1\n      pop\n        /* \"#utility.yul\":25232:25241   */\n      dup2\n        /* \"#utility.yul\":25226:25230   */\n      dup2\n        /* \"#utility.yul\":25222:25242   */\n      sub\n        /* \"#utility.yul\":25218:25219   */\n      0x00\n        /* \"#utility.yul\":25207:25216   */\n      dup4\n        /* \"#utility.yul\":25203:25220   */\n      add\n        /* \"#utility.yul\":25196:25243   */\n      mstore\n        /* \"#utility.yul\":25260:25391   */\n      tag_498\n        /* \"#utility.yul\":25386:25390   */\n      dup2\n        /* \"#utility.yul\":25260:25391   */\n      tag_242\n      jump\t// in\n    tag_498:\n        /* \"#utility.yul\":25252:25391   */\n      swap1\n      pop\n        /* \"#utility.yul\":24979:25398   */\n      swap2\n      swap1\n      pop\n      jump\t// out\n        /* \"#utility.yul\":25404:25635   */\n    tag_243:\n        /* \"#utility.yul\":25544:25578   */\n      0x507269636520706572206372656469742073686f756c64206265206772656174\n        /* \"#utility.yul\":25540:25541   */\n      0x00\n        /* \"#utility.yul\":25532:25538   */\n      dup3\n        /* \"#utility.yul\":25528:25542   */\n      add\n        /* \"#utility.yul\":25521:25579   */\n      mstore\n        /* \"#utility.yul\":25613:25627   */\n      0x6572207468616e207a65726f0000000000000000000000000000000000000000\n        /* \"#utility.yul\":25608:25610   */\n      0x20\n        /* \"#utility.yul\":25600:25606   */\n      dup3\n        /* \"#utility.yul\":25596:25611   */\n      add\n        /* \"#utility.yul\":25589:25628   */\n      mstore\n        /* \"#utility.yul\":25404:25635   */\n      pop\n      jump\t// out\n        /* \"#utility.yul\":25641:26007   */\n    tag_244:\n        /* \"#utility.yul\":25783:25786   */\n      0x00\n        /* \"#utility.yul\":25804:25871   */\n      tag_501\n        /* \"#utility.yul\":25868:25870   */\n      0x2c\n        /* \"#utility.yul\":25863:25866   */\n      dup4\n        /* \"#utility.yul\":25804:25871   */\n      tag_192\n      jump\t// in\n    tag_501:\n        /* \"#utility.yul\":25797:25871   */\n      swap2\n      pop\n        /* \"#utility.yul\":25880:25973   */\n      tag_502\n        /* \"#utility.yul\":25969:25972   */\n      dup3\n        /* \"#utility.yul\":25880:25973   */\n      tag_243\n      jump\t// in\n    tag_502:\n        /* \"#utility.yul\":25998:26000   */\n      0x40\n        /* \"#utility.yul\":25993:25996   */\n      dup3\n        /* \"#utility.yul\":25989:26001   */\n      add\n        /* \"#utility.yul\":25982:26001   */\n      swap1\n      pop\n        /* \"#utility.yul\":25641:26007   */\n      swap2\n      swap1\n      pop\n      jump\t// out\n        /* \"#utility.yul\":26013:26432   */\n    tag_171:\n        /* \"#utility.yul\":26179:26183   */\n      0x00\n        /* \"#utility.yul\":26217:26219   */\n      0x20\n        /* \"#utility.yul\":26206:26215   */\n      dup3\n        /* \"#utility.yul\":26202:26220   */\n      add\n        /* \"#utility.yul\":26194:26220   */\n      swap1\n      pop\n        /* \"#utility.yul\":26266:26275   */\n      dup2\n        /* \"#utility.yul\":26260:26264   */\n      dup2\n        /* \"#utility.yul\":26256:26276   */\n      sub\n        /* \"#utility.yul\":26252:26253   */\n      0x00\n        /* \"#utility.yul\":26241:26250   */\n      dup4\n        /* \"#utility.yul\":26237:26254   */\n      add\n        /* \"#utility.yul\":26230:26277   */\n      mstore\n        /* \"#utility.yul\":26294:26425   */\n      tag_504\n        /* \"#utility.yul\":26420:26424   */\n      dup2\n        /* \"#utility.yul\":26294:26425   */\n      tag_244\n      jump\t// in\n    tag_504:\n        /* \"#utility.yul\":26286:26425   */\n      swap1\n      pop\n        /* \"#utility.yul\":26013:26432   */\n      swap2\n      swap1\n      pop\n      jump\t// out\n        /* \"#utility.yul\":26438:27082   */\n    tag_174:\n        /* \"#utility.yul\":26635:26639   */\n      0x00\n        /* \"#utility.yul\":26673:26676   */\n      0x80\n        /* \"#utility.yul\":26662:26671   */\n      dup3\n        /* \"#utility.yul\":26658:26677   */\n      add\n        /* \"#utility.yul\":26650:26677   */\n      swap1\n      pop\n        /* \"#utility.yul\":26687:26758   */\n      tag_506\n        /* \"#utility.yul\":26755:26756   */\n      0x00\n        /* \"#utility.yul\":26744:26753   */\n      dup4\n        /* \"#utility.yul\":26740:26757   */\n      add\n        /* \"#utility.yul\":26731:26737   */\n      dup8\n        /* \"#utility.yul\":26687:26758   */\n      tag_196\n      jump\t// in\n    tag_506:\n        /* \"#utility.yul\":26805:26814   */\n      dup2\n        /* \"#utility.yul\":26799:26803   */\n      dup2\n        /* \"#utility.yul\":26795:26815   */\n      sub\n        /* \"#utility.yul\":26790:26792   */\n      0x20\n        /* \"#utility.yul\":26779:26788   */\n      dup4\n        /* \"#utility.yul\":26775:26793   */\n      add\n        /* \"#utility.yul\":26768:26816   */\n      mstore\n        /* \"#utility.yul\":26833:26911   */\n      tag_507\n        /* \"#utility.yul\":26906:26910   */\n      dup2\n        /* \"#utility.yul\":26897:26903   */\n      dup7\n        /* \"#utility.yul\":26833:26911   */\n      tag_195\n      jump\t// in\n    tag_507:\n        /* \"#utility.yul\":26825:26911   */\n      swap1\n      pop\n        /* \"#utility.yul\":26921:26993   */\n      tag_508\n        /* \"#utility.yul\":26989:26991   */\n      0x40\n        /* \"#utility.yul\":26978:26987   */\n      dup4\n        /* \"#utility.yul\":26974:26992   */\n      add\n        /* \"#utility.yul\":26965:26971   */\n      dup6\n        /* \"#utility.yul\":26921:26993   */\n      tag_196\n      jump\t// in\n    tag_508:\n        /* \"#utility.yul\":27003:27075   */\n      tag_509\n        /* \"#utility.yul\":27071:27073   */\n      0x60\n        /* \"#utility.yul\":27060:27069   */\n      dup4\n        /* \"#utility.yul\":27056:27074   */\n      add\n        /* \"#utility.yul\":27047:27053   */\n      dup5\n        /* \"#utility.yul\":27003:27075   */\n      tag_196\n      jump\t// in\n    tag_509:\n        /* \"#utility.yul\":26438:27082   */\n      swap6\n      swap5\n      pop\n      pop\n      pop\n      pop\n      pop\n      jump\t// out\n\n    auxdata: 0xa26469706673582212207d1644247b20dcea454d71cdca726d29f222017845aec221942df85a52f95ecc64736f6c634300081a0033\n}\n",
				"bytecode": {
					"linkReferences": {},
					"object": "6080604052348015600e575f80fd5b50611e008061001c5f395ff3fe6080604052600436106100dc575f3560e01c806349c2a1a61161007e578063c121cff011610058578063c121cff0146102be578063e503bb05146102fa578063e636eb5514610336578063f0f3f2c81461035e576100dc565b806349c2a1a61461023e5780638403446914610266578063baccbfdb14610282576100dc565b80631614665c116100ba5780631614665c1461018857806317a483a3146101b057806336fbad26146101ec5780633ea0fb1314610216576100dc565b8063013cf08b146100e05780630d61b51914610120578063107046bd14610148575b5f80fd5b3480156100eb575f80fd5b5061010660048036038101906101019190610fe9565b61039e565b6040516101179594939291906110ec565b60405180910390f35b34801561012b575f80fd5b5061014660048036038101906101419190610fe9565b610490565b005b348015610153575f80fd5b5061016e60048036038101906101699190610fe9565b61056e565b60405161017f959493929190611144565b60405180910390f35b348015610193575f80fd5b506101ae60048036038101906101a991906111c6565b610644565b005b3480156101bb575f80fd5b506101d660048036038101906101d1919061122e565b610736565b6040516101e3919061126c565b60405180910390f35b3480156101f7575f80fd5b50610200610756565b60405161020d919061126c565b60405180910390f35b348015610221575f80fd5b5061023c60048036038101906102379190611285565b61075c565b005b348015610249575f80fd5b50610264600480360381019061025f91906113ef565b6108a1565b005b610280600480360381019061027b9190611285565b6109e6565b005b34801561028d575f80fd5b506102a860048036038101906102a39190611436565b610c5e565b6040516102b5919061126c565b60405180910390f35b3480156102c9575f80fd5b506102e460048036038101906102df919061122e565b610ca4565b6040516102f1919061126c565b60405180910390f35b348015610305575f80fd5b50610320600480360381019061031b9190611436565b610cfa565b60405161032d919061126c565b60405180910390f35b348015610341575f80fd5b5061035c60048036038101906103579190611461565b610d0f565b005b348015610369575f80fd5b50610384600480360381019061037f9190610fe9565b610eb8565b6040516103959594939291906114cd565b60405180910390f35b600481815481106103ad575f80fd5b905f5260205f2090600502015f91509050805f015f9054906101000a900473ffffffffffffffffffffffffffffffffffffffff16908060010180546103f190611552565b80601f016020809104026020016040519081016040528092919081815260200182805461041d90611552565b80156104685780601f1061043f57610100808354040283529160200191610468565b820191905f5260205f20905b81548152906001019060200180831161044b57829003601f168201915b505050505090806002015490806003015490806004015f9054906101000a900460ff16905085565b5f600482815481106104a5576104a4611582565b5b905f5260205f2090600502019050806004015f9054906101000a900460ff1615610504576040517f08c379a00000000000000000000000000000000000000000000000000000000081526004016104fb906115f9565b60405180910390fd5b806003015481600201541161054e576040517f08c379a000000000000000000000000000000000000000000000000000000000815260040161054590611661565b60405180910390fd5b6001816004015f6101000a81548160ff0219169083151502179055505050565b5f602052805f5260405f205f91509050805f015f9054906101000a900473ffffffffffffffffffffffffffffffffffffffff16908060010180546105b190611552565b80601f01602080910402602001604051908101604052809291908181526020018280546105dd90611552565b80156106285780601f106105ff57610100808354040283529160200191610628565b820191905f5260205f20905b81548152906001019060200180831161060b57829003601f168201915b5050505050908060020154908060030154908060040154905085565b5f6004838154811061065957610658611582565b5b905f5260205f2090600502019050806004015f9054906101000a900460ff16156106b8576040517f08c379a00000000000000000000000000000000000000000000000000000000081526004016106af906115f9565b60405180910390fd5b81156106dc57806002015f8154809291906106d2906116ac565b91905055506106f6565b806003015f8154809291906106f0906116ac565b91905055505b7fe71fcdac32df1877c1700e7bda2a03157e20993363a28fc35ac495cefc76e4d4833384604051610729939291906116f3565b60405180910390a1505050565b6002602052815f5260405f20602052805f5260405f205f91509150505481565b60015481565b8060025f3373ffffffffffffffffffffffffffffffffffffffff1673ffffffffffffffffffffffffffffffffffffffff1681526020019081526020015f205f8481526020019081526020015f205410156107eb576040517f08c379a00000000000000000000000000000000000000000000000000000000081526004016107e290611772565b60405180910390fd5b8060025f3373ffffffffffffffffffffffffffffffffffffffff1673ffffffffffffffffffffffffffffffffffffffff1681526020019081526020015f205f8481526020019081526020015f205f8282546108469190611790565b925050819055503373ffffffffffffffffffffffffffffffffffffffff167f2ffd4879af328c871cf4d2be1d40d91f5ce4f202fd47e10e4c58d19667627da883836040516108959291906117c3565b60405180910390a25050565b60046040518060a001604052803373ffffffffffffffffffffffffffffffffffffffff1681526020018381526020015f81526020015f81526020015f1515815250908060018154018082558091505060019003905f5260205f2090600502015f909190919091505f820151815f015f6101000a81548173ffffffffffffffffffffffffffffffffffffffff021916908373ffffffffffffffffffffffffffffffffffffffff16021790555060208201518160010190816109619190611987565b5060408201518160020155606082015181600301556080820151816004015f6101000a81548160ff02191690831515021790555050507fc8c078bfee58e5822588f08b4509ed1eb5058e03f666cca84dd2d44bf5c288a860016004805490506109ca9190611790565b82336040516109db93929190611a56565b60405180910390a150565b5f805f8481526020019081526020015f2090505f8211610a3b576040517f08c379a0000000000000000000000000000000000000000000000000000000008152600401610a3290611b02565b60405180910390fd5b8060030154821115610a82576040517f08c379a0000000000000000000000000000000000000000000000000000000008152600401610a7990611b6a565b60405180910390fd5b806004015482610a929190611b88565b341015610ad4576040517f08c379a0000000000000000000000000000000000000000000000000000000008152600401610acb90611c13565b60405180910390fd5b81816003015f828254610ae79190611790565b925050819055508160025f3373ffffffffffffffffffffffffffffffffffffffff1673ffffffffffffffffffffffffffffffffffffffff1681526020019081526020015f205f8581526020019081526020015f205f828254610b499190611c31565b925050819055508160035f3373ffffffffffffffffffffffffffffffffffffffff1673ffffffffffffffffffffffffffffffffffffffff1681526020019081526020015f205f828254610b9c9190611c31565b92505081905550805f015f9054906101000a900473ffffffffffffffffffffffffffffffffffffffff1673ffffffffffffffffffffffffffffffffffffffff166108fc3490811502906040515f60405180830381858888f19350505050158015610c08573d5f803e3d5ffd5b503373ffffffffffffffffffffffffffffffffffffffff167ffb82fc1c5adf84899709e87563b69dd5f4ac33320f1c60dbca744bec717eb90f8484604051610c519291906117c3565b60405180910390a2505050565b5f60035f8373ffffffffffffffffffffffffffffffffffffffff1673ffffffffffffffffffffffffffffffffffffffff1681526020019081526020015f20549050919050565b5f60025f8473ffffffffffffffffffffffffffffffffffffffff1673ffffffffffffffffffffffffffffffffffffffff1681526020019081526020015f205f8381526020019081526020015f2054905092915050565b6003602052805f5260405f205f915090505481565b5f8211610d51576040517f08c379a0000000000000000000000000000000000000000000000000000000008152600401610d4890611cd4565b60405180910390fd5b5f8111610d93576040517f08c379a0000000000000000000000000000000000000000000000000000000008152600401610d8a90611d62565b60405180910390fd5b6040518060a001604052803373ffffffffffffffffffffffffffffffffffffffff168152602001848152602001838152602001838152602001828152505f8060015481526020019081526020015f205f820151815f015f6101000a81548173ffffffffffffffffffffffffffffffffffffffff021916908373ffffffffffffffffffffffffffffffffffffffff1602179055506020820151816001019081610e3b9190611987565b506040820151816002015560608201518160030155608082015181600401559050507f50c6a8b423458d44f896828d57af33000ead07320bc572c2b3d856e7a954df4b600154848484604051610e949493929190611d80565b60405180910390a160015f815480929190610eae906116ac565b9190505550505050565b60605f805f805f805f8881526020019081526020015f20905080600101816002015482600301548360040154845f015f9054906101000a900473ffffffffffffffffffffffffffffffffffffffff16848054610f1390611552565b80601f0160208091040260200160405190810160405280929190818152602001828054610f3f90611552565b8015610f8a5780601f10610f6157610100808354040283529160200191610f8a565b820191905f5260205f20905b815481529060010190602001808311610f6d57829003601f168201915b50505050509450955095509550955095505091939590929450565b5f604051905090565b5f80fd5b5f80fd5b5f819050919050565b610fc881610fb6565b8114610fd2575f80fd5b50565b5f81359050610fe381610fbf565b92915050565b5f60208284031215610ffe57610ffd610fae565b5b5f61100b84828501610fd5565b91505092915050565b5f73ffffffffffffffffffffffffffffffffffffffff82169050919050565b5f61103d82611014565b9050919050565b61104d81611033565b82525050565b5f81519050919050565b5f82825260208201905092915050565b8281835e5f83830152505050565b5f601f19601f8301169050919050565b5f61109582611053565b61109f818561105d565b93506110af81856020860161106d565b6110b88161107b565b840191505092915050565b6110cc81610fb6565b82525050565b5f8115159050919050565b6110e6816110d2565b82525050565b5f60a0820190506110ff5f830188611044565b8181036020830152611111818761108b565b905061112060408301866110c3565b61112d60608301856110c3565b61113a60808301846110dd565b9695505050505050565b5f60a0820190506111575f830188611044565b8181036020830152611169818761108b565b905061117860408301866110c3565b61118560608301856110c3565b61119260808301846110c3565b9695505050505050565b6111a5816110d2565b81146111af575f80fd5b50565b5f813590506111c08161119c565b92915050565b5f80604083850312156111dc576111db610fae565b5b5f6111e985828601610fd5565b92505060206111fa858286016111b2565b9150509250929050565b61120d81611033565b8114611217575f80fd5b50565b5f8135905061122881611204565b92915050565b5f806040838503121561124457611243610fae565b5b5f6112518582860161121a565b925050602061126285828601610fd5565b9150509250929050565b5f60208201905061127f5f8301846110c3565b92915050565b5f806040838503121561129b5761129a610fae565b5b5f6112a885828601610fd5565b92505060206112b985828601610fd5565b9150509250929050565b5f80fd5b5f80fd5b7f4e487b71000000000000000000000000000000000000000000000000000000005f52604160045260245ffd5b6113018261107b565b810181811067ffffffffffffffff821117156113205761131f6112cb565b5b80604052505050565b5f611332610fa5565b905061133e82826112f8565b919050565b5f67ffffffffffffffff82111561135d5761135c6112cb565b5b6113668261107b565b9050602081019050919050565b828183375f83830152505050565b5f61139361138e84611343565b611329565b9050828152602081018484840111156113af576113ae6112c7565b5b6113ba848285611373565b509392505050565b5f82601f8301126113d6576113d56112c3565b5b81356113e6848260208601611381565b91505092915050565b5f6020828403121561140457611403610fae565b5b5f82013567ffffffffffffffff81111561142157611420610fb2565b5b61142d848285016113c2565b91505092915050565b5f6020828403121561144b5761144a610fae565b5b5f6114588482850161121a565b91505092915050565b5f805f6060848603121561147857611477610fae565b5b5f84013567ffffffffffffffff81111561149557611494610fb2565b5b6114a1868287016113c2565b93505060206114b286828701610fd5565b92505060406114c386828701610fd5565b9150509250925092565b5f60a0820190508181035f8301526114e5818861108b565b90506114f460208301876110c3565b61150160408301866110c3565b61150e60608301856110c3565b61151b6080830184611044565b9695505050505050565b7f4e487b71000000000000000000000000000000000000000000000000000000005f52602260045260245ffd5b5f600282049050600182168061156957607f821691505b60208210810361157c5761157b611525565b5b50919050565b7f4e487b71000000000000000000000000000000000000000000000000000000005f52603260045260245ffd5b7f50726f706f73616c20616c7265616479206578656375746564000000000000005f82015250565b5f6115e360198361105d565b91506115ee826115af565b602082019050919050565b5f6020820190508181035f830152611610816115d7565b9050919050565b7f50726f706f73616c20646964206e6f74207061737300000000000000000000005f82015250565b5f61164b60158361105d565b915061165682611617565b602082019050919050565b5f6020820190508181035f8301526116788161163f565b9050919050565b7f4e487b71000000000000000000000000000000000000000000000000000000005f52601160045260245ffd5b5f6116b682610fb6565b91507fffffffffffffffffffffffffffffffffffffffffffffffffffffffffffffffff82036116e8576116e761167f565b5b600182019050919050565b5f6060820190506117065f8301866110c3565b6117136020830185611044565b61172060408301846110dd565b949350505050565b7f496e73756666696369656e74206372656469747320746f2072657469726500005f82015250565b5f61175c601e8361105d565b915061176782611728565b602082019050919050565b5f6020820190508181035f83015261178981611750565b9050919050565b5f61179a82610fb6565b91506117a583610fb6565b92508282039050818111156117bd576117bc61167f565b5b92915050565b5f6040820190506117d65f8301856110c3565b6117e360208301846110c3565b9392505050565b5f819050815f5260205f209050919050565b5f6020601f8301049050919050565b5f82821b905092915050565b5f600883026118467fffffffffffffffffffffffffffffffffffffffffffffffffffffffffffffffff8261180b565b611850868361180b565b95508019841693508086168417925050509392505050565b5f819050919050565b5f61188b61188661188184610fb6565b611868565b610fb6565b9050919050565b5f819050919050565b6118a483611871565b6118b86118b082611892565b848454611817565b825550505050565b5f90565b6118cc6118c0565b6118d781848461189b565b505050565b5b818110156118fa576118ef5f826118c4565b6001810190506118dd565b5050565b601f82111561193f57611910816117ea565b611919846117fc565b81016020851015611928578190505b61193c611934856117fc565b8301826118dc565b50505b505050565b5f82821c905092915050565b5f61195f5f1984600802611944565b1980831691505092915050565b5f6119778383611950565b9150826002028217905092915050565b61199082611053565b67ffffffffffffffff8111156119a9576119a86112cb565b5b6119b38254611552565b6119be8282856118fe565b5f60209050601f8311600181146119ef575f84156119dd578287015190505b6119e7858261196c565b865550611a4e565b601f1984166119fd866117ea565b5f5b82811015611a24578489015182556001820191506020850194506020810190506119ff565b86831015611a415784890151611a3d601f891682611950565b8355505b6001600288020188555050505b505050505050565b5f606082019050611a695f8301866110c3565b8181036020830152611a7b818561108b565b9050611a8a6040830184611044565b949350505050565b7f437265646974732073686f756c642062652067726561746572207468616e207a5f8201527f65726f0000000000000000000000000000000000000000000000000000000000602082015250565b5f611aec60238361105d565b9150611af782611a92565b604082019050919050565b5f6020820190508181035f830152611b1981611ae0565b9050919050565b7f4e6f7420656e6f75676820617661696c61626c652063726564697473000000005f82015250565b5f611b54601c8361105d565b9150611b5f82611b20565b602082019050919050565b5f6020820190508181035f830152611b8181611b48565b9050919050565b5f611b9282610fb6565b9150611b9d83610fb6565b9250828202611bab81610fb6565b91508282048414831517611bc257611bc161167f565b5b5092915050565b7f496e73756666696369656e74207061796d656e740000000000000000000000005f82015250565b5f611bfd60148361105d565b9150611c0882611bc9565b602082019050919050565b5f6020820190508181035f830152611c2a81611bf1565b9050919050565b5f611c3b82610fb6565b9150611c4683610fb6565b9250828201905080821115611c5e57611c5d61167f565b5b92915050565b7f546f74616c20637265646974732073686f756c642062652067726561746572205f8201527f7468616e207a65726f0000000000000000000000000000000000000000000000602082015250565b5f611cbe60298361105d565b9150611cc982611c64565b604082019050919050565b5f6020820190508181035f830152611ceb81611cb2565b9050919050565b7f507269636520706572206372656469742073686f756c642062652067726561745f8201527f6572207468616e207a65726f0000000000000000000000000000000000000000602082015250565b5f611d4c602c8361105d565b9150611d5782611cf2565b604082019050919050565b5f6020820190508181035f830152611d7981611d40565b9050919050565b5f608082019050611d935f8301876110c3565b8181036020830152611da5818661108b565b9050611db460408301856110c3565b611dc160608301846110c3565b9594505050505056fea26469706673582212207d1644247b20dcea454d71cdca726d29f222017845aec221942df85a52f95ecc64736f6c634300081a0033",
					"opcodes": "PUSH1 0x80 PUSH1 0x40 MSTORE CALLVALUE DUP1 ISZERO PUSH1 0xE JUMPI PUSH0 DUP1 REVERT JUMPDEST POP PUSH2 0x1E00 DUP1 PUSH2 0x1C PUSH0 CODECOPY PUSH0 RETURN INVALID PUSH1 0x80 PUSH1 0x40 MSTORE PUSH1 0x4 CALLDATASIZE LT PUSH2 0xDC JUMPI PUSH0 CALLDATALOAD PUSH1 0xE0 SHR DUP1 PUSH4 0x49C2A1A6 GT PUSH2 0x7E JUMPI DUP1 PUSH4 0xC121CFF0 GT PUSH2 0x58 JUMPI DUP1 PUSH4 0xC121CFF0 EQ PUSH2 0x2BE JUMPI DUP1 PUSH4 0xE503BB05 EQ PUSH2 0x2FA JUMPI DUP1 PUSH4 0xE636EB55 EQ PUSH2 0x336 JUMPI DUP1 PUSH4 0xF0F3F2C8 EQ PUSH2 0x35E JUMPI PUSH2 0xDC JUMP JUMPDEST DUP1 PUSH4 0x49C2A1A6 EQ PUSH2 0x23E JUMPI DUP1 PUSH4 0x84034469 EQ PUSH2 0x266 JUMPI DUP1 PUSH4 0xBACCBFDB EQ PUSH2 0x282 JUMPI PUSH2 0xDC JUMP JUMPDEST DUP1 PUSH4 0x1614665C GT PUSH2 0xBA JUMPI DUP1 PUSH4 0x1614665C EQ PUSH2 0x188 JUMPI DUP1 PUSH4 0x17A483A3 EQ PUSH2 0x1B0 JUMPI DUP1 PUSH4 0x36FBAD26 EQ PUSH2 0x1EC JUMPI DUP1 PUSH4 0x3EA0FB13 EQ PUSH2 0x216 JUMPI PUSH2 0xDC JUMP JUMPDEST DUP1 PUSH4 0x13CF08B EQ PUSH2 0xE0 JUMPI DUP1 PUSH4 0xD61B519 EQ PUSH2 0x120 JUMPI DUP1 PUSH4 0x107046BD EQ PUSH2 0x148 JUMPI JUMPDEST PUSH0 DUP1 REVERT JUMPDEST CALLVALUE DUP1 ISZERO PUSH2 0xEB JUMPI PUSH0 DUP1 REVERT JUMPDEST POP PUSH2 0x106 PUSH1 0x4 DUP1 CALLDATASIZE SUB DUP2 ADD SWAP1 PUSH2 0x101 SWAP2 SWAP1 PUSH2 0xFE9 JUMP JUMPDEST PUSH2 0x39E JUMP JUMPDEST PUSH1 0x40 MLOAD PUSH2 0x117 SWAP6 SWAP5 SWAP4 SWAP3 SWAP2 SWAP1 PUSH2 0x10EC JUMP JUMPDEST PUSH1 0x40 MLOAD DUP1 SWAP2 SUB SWAP1 RETURN JUMPDEST CALLVALUE DUP1 ISZERO PUSH2 0x12B JUMPI PUSH0 DUP1 REVERT JUMPDEST POP PUSH2 0x146 PUSH1 0x4 DUP1 CALLDATASIZE SUB DUP2 ADD SWAP1 PUSH2 0x141 SWAP2 SWAP1 PUSH2 0xFE9 JUMP JUMPDEST PUSH2 0x490 JUMP JUMPDEST STOP JUMPDEST CALLVALUE DUP1 ISZERO PUSH2 0x153 JUMPI PUSH0 DUP1 REVERT JUMPDEST POP PUSH2 0x16E PUSH1 0x4 DUP1 CALLDATASIZE SUB DUP2 ADD SWAP1 PUSH2 0x169 SWAP2 SWAP1 PUSH2 0xFE9 JUMP JUMPDEST PUSH2 0x56E JUMP JUMPDEST PUSH1 0x40 MLOAD PUSH2 0x17F SWAP6 SWAP5 SWAP4 SWAP3 SWAP2 SWAP1 PUSH2 0x1144 JUMP JUMPDEST PUSH1 0x40 MLOAD DUP1 SWAP2 SUB SWAP1 RETURN JUMPDEST CALLVALUE DUP1 ISZERO PUSH2 0x193 JUMPI PUSH0 DUP1 REVERT JUMPDEST POP PUSH2 0x1AE PUSH1 0x4 DUP1 CALLDATASIZE SUB DUP2 ADD SWAP1 PUSH2 0x1A9 SWAP2 SWAP1 PUSH2 0x11C6 JUMP JUMPDEST PUSH2 0x644 JUMP JUMPDEST STOP JUMPDEST CALLVALUE DUP1 ISZERO PUSH2 0x1BB JUMPI PUSH0 DUP1 REVERT JUMPDEST POP PUSH2 0x1D6 PUSH1 0x4 DUP1 CALLDATASIZE SUB DUP2 ADD SWAP1 PUSH2 0x1D1 SWAP2 SWAP1 PUSH2 0x122E JUMP JUMPDEST PUSH2 0x736 JUMP JUMPDEST PUSH1 0x40 MLOAD PUSH2 0x1E3 SWAP2 SWAP1 PUSH2 0x126C JUMP JUMPDEST PUSH1 0x40 MLOAD DUP1 SWAP2 SUB SWAP1 RETURN JUMPDEST CALLVALUE DUP1 ISZERO PUSH2 0x1F7 JUMPI PUSH0 DUP1 REVERT JUMPDEST POP PUSH2 0x200 PUSH2 0x756 JUMP JUMPDEST PUSH1 0x40 MLOAD PUSH2 0x20D SWAP2 SWAP1 PUSH2 0x126C JUMP JUMPDEST PUSH1 0x40 MLOAD DUP1 SWAP2 SUB SWAP1 RETURN JUMPDEST CALLVALUE DUP1 ISZERO PUSH2 0x221 JUMPI PUSH0 DUP1 REVERT JUMPDEST POP PUSH2 0x23C PUSH1 0x4 DUP1 CALLDATASIZE SUB DUP2 ADD SWAP1 PUSH2 0x237 SWAP2 SWAP1 PUSH2 0x1285 JUMP JUMPDEST PUSH2 0x75C JUMP JUMPDEST STOP JUMPDEST CALLVALUE DUP1 ISZERO PUSH2 0x249 JUMPI PUSH0 DUP1 REVERT JUMPDEST POP PUSH2 0x264 PUSH1 0x4 DUP1 CALLDATASIZE SUB DUP2 ADD SWAP1 PUSH2 0x25F SWAP2 SWAP1 PUSH2 0x13EF JUMP JUMPDEST PUSH2 0x8A1 JUMP JUMPDEST STOP JUMPDEST PUSH2 0x280 PUSH1 0x4 DUP1 CALLDATASIZE SUB DUP2 ADD SWAP1 PUSH2 0x27B SWAP2 SWAP1 PUSH2 0x1285 JUMP JUMPDEST PUSH2 0x9E6 JUMP JUMPDEST STOP JUMPDEST CALLVALUE DUP1 ISZERO PUSH2 0x28D JUMPI PUSH0 DUP1 REVERT JUMPDEST POP PUSH2 0x2A8 PUSH1 0x4 DUP1 CALLDATASIZE SUB DUP2 ADD SWAP1 PUSH2 0x2A3 SWAP2 SWAP1 PUSH2 0x1436 JUMP JUMPDEST PUSH2 0xC5E JUMP JUMPDEST PUSH1 0x40 MLOAD PUSH2 0x2B5 SWAP2 SWAP1 PUSH2 0x126C JUMP JUMPDEST PUSH1 0x40 MLOAD DUP1 SWAP2 SUB SWAP1 RETURN JUMPDEST CALLVALUE DUP1 ISZERO PUSH2 0x2C9 JUMPI PUSH0 DUP1 REVERT JUMPDEST POP PUSH2 0x2E4 PUSH1 0x4 DUP1 CALLDATASIZE SUB DUP2 ADD SWAP1 PUSH2 0x2DF SWAP2 SWAP1 PUSH2 0x122E JUMP JUMPDEST PUSH2 0xCA4 JUMP JUMPDEST PUSH1 0x40 MLOAD PUSH2 0x2F1 SWAP2 SWAP1 PUSH2 0x126C JUMP JUMPDEST PUSH1 0x40 MLOAD DUP1 SWAP2 SUB SWAP1 RETURN JUMPDEST CALLVALUE DUP1 ISZERO PUSH2 0x305 JUMPI PUSH0 DUP1 REVERT JUMPDEST POP PUSH2 0x320 PUSH1 0x4 DUP1 CALLDATASIZE SUB DUP2 ADD SWAP1 PUSH2 0x31B SWAP2 SWAP1 PUSH2 0x1436 JUMP JUMPDEST PUSH2 0xCFA JUMP JUMPDEST PUSH1 0x40 MLOAD PUSH2 0x32D SWAP2 SWAP1 PUSH2 0x126C JUMP JUMPDEST PUSH1 0x40 MLOAD DUP1 SWAP2 SUB SWAP1 RETURN JUMPDEST CALLVALUE DUP1 ISZERO PUSH2 0x341 JUMPI PUSH0 DUP1 REVERT JUMPDEST POP PUSH2 0x35C PUSH1 0x4 DUP1 CALLDATASIZE SUB DUP2 ADD SWAP1 PUSH2 0x357 SWAP2 SWAP1 PUSH2 0x1461 JUMP JUMPDEST PUSH2 0xD0F JUMP JUMPDEST STOP JUMPDEST CALLVALUE DUP1 ISZERO PUSH2 0x369 JUMPI PUSH0 DUP1 REVERT JUMPDEST POP PUSH2 0x384 PUSH1 0x4 DUP1 CALLDATASIZE SUB DUP2 ADD SWAP1 PUSH2 0x37F SWAP2 SWAP1 PUSH2 0xFE9 JUMP JUMPDEST PUSH2 0xEB8 JUMP JUMPDEST PUSH1 0x40 MLOAD PUSH2 0x395 SWAP6 SWAP5 SWAP4 SWAP3 SWAP2 SWAP1 PUSH2 0x14CD JUMP JUMPDEST PUSH1 0x40 MLOAD DUP1 SWAP2 SUB SWAP1 RETURN JUMPDEST PUSH1 0x4 DUP2 DUP2 SLOAD DUP2 LT PUSH2 0x3AD JUMPI PUSH0 DUP1 REVERT JUMPDEST SWAP1 PUSH0 MSTORE PUSH1 0x20 PUSH0 KECCAK256 SWAP1 PUSH1 0x5 MUL ADD PUSH0 SWAP2 POP SWAP1 POP DUP1 PUSH0 ADD PUSH0 SWAP1 SLOAD SWAP1 PUSH2 0x100 EXP SWAP1 DIV PUSH20 0xFFFFFFFFFFFFFFFFFFFFFFFFFFFFFFFFFFFFFFFF AND SWAP1 DUP1 PUSH1 0x1 ADD DUP1 SLOAD PUSH2 0x3F1 SWAP1 PUSH2 0x1552 JUMP JUMPDEST DUP1 PUSH1 0x1F ADD PUSH1 0x20 DUP1 SWAP2 DIV MUL PUSH1 0x20 ADD PUSH1 0x40 MLOAD SWAP1 DUP2 ADD PUSH1 0x40 MSTORE DUP1 SWAP3 SWAP2 SWAP1 DUP2 DUP2 MSTORE PUSH1 0x20 ADD DUP3 DUP1 SLOAD PUSH2 0x41D SWAP1 PUSH2 0x1552 JUMP JUMPDEST DUP1 ISZERO PUSH2 0x468 JUMPI DUP1 PUSH1 0x1F LT PUSH2 0x43F JUMPI PUSH2 0x100 DUP1 DUP4 SLOAD DIV MUL DUP4 MSTORE SWAP2 PUSH1 0x20 ADD SWAP2 PUSH2 0x468 JUMP JUMPDEST DUP3 ADD SWAP2 SWAP1 PUSH0 MSTORE PUSH1 0x20 PUSH0 KECCAK256 SWAP1 JUMPDEST DUP2 SLOAD DUP2 MSTORE SWAP1 PUSH1 0x1 ADD SWAP1 PUSH1 0x20 ADD DUP1 DUP4 GT PUSH2 0x44B JUMPI DUP3 SWAP1 SUB PUSH1 0x1F AND DUP3 ADD SWAP2 JUMPDEST POP POP POP POP POP SWAP1 DUP1 PUSH1 0x2 ADD SLOAD SWAP1 DUP1 PUSH1 0x3 ADD SLOAD SWAP1 DUP1 PUSH1 0x4 ADD PUSH0 SWAP1 SLOAD SWAP1 PUSH2 0x100 EXP SWAP1 DIV PUSH1 0xFF AND SWAP1 POP DUP6 JUMP JUMPDEST PUSH0 PUSH1 0x4 DUP3 DUP2 SLOAD DUP2 LT PUSH2 0x4A5 JUMPI PUSH2 0x4A4 PUSH2 0x1582 JUMP JUMPDEST JUMPDEST SWAP1 PUSH0 MSTORE PUSH1 0x20 PUSH0 KECCAK256 SWAP1 PUSH1 0x5 MUL ADD SWAP1 POP DUP1 PUSH1 0x4 ADD PUSH0 SWAP1 SLOAD SWAP1 PUSH2 0x100 EXP SWAP1 DIV PUSH1 0xFF AND ISZERO PUSH2 0x504 JUMPI PUSH1 0x40 MLOAD PUSH32 0x8C379A000000000000000000000000000000000000000000000000000000000 DUP2 MSTORE PUSH1 0x4 ADD PUSH2 0x4FB SWAP1 PUSH2 0x15F9 JUMP JUMPDEST PUSH1 0x40 MLOAD DUP1 SWAP2 SUB SWAP1 REVERT JUMPDEST DUP1 PUSH1 0x3 ADD SLOAD DUP2 PUSH1 0x2 ADD SLOAD GT PUSH2 0x54E JUMPI PUSH1 0x40 MLOAD PUSH32 0x8C379A000000000000000000000000000000000000000000000000000000000 DUP2 MSTORE PUSH1 0x4 ADD PUSH2 0x545 SWAP1 PUSH2 0x1661 JUMP JUMPDEST PUSH1 0x40 MLOAD DUP1 SWAP2 SUB SWAP1 REVERT JUMPDEST PUSH1 0x1 DUP2 PUSH1 0x4 ADD PUSH0 PUSH2 0x100 EXP DUP2 SLOAD DUP2 PUSH1 0xFF MUL NOT AND SWAP1 DUP4 ISZERO ISZERO MUL OR SWAP1 SSTORE POP POP POP JUMP JUMPDEST PUSH0 PUSH1 0x20 MSTORE DUP1 PUSH0 MSTORE PUSH1 0x40 PUSH0 KECCAK256 PUSH0 SWAP2 POP SWAP1 POP DUP1 PUSH0 ADD PUSH0 SWAP1 SLOAD SWAP1 PUSH2 0x100 EXP SWAP1 DIV PUSH20 0xFFFFFFFFFFFFFFFFFFFFFFFFFFFFFFFFFFFFFFFF AND SWAP1 DUP1 PUSH1 0x1 ADD DUP1 SLOAD PUSH2 0x5B1 SWAP1 PUSH2 0x1552 JUMP JUMPDEST DUP1 PUSH1 0x1F ADD PUSH1 0x20 DUP1 SWAP2 DIV MUL PUSH1 0x20 ADD PUSH1 0x40 MLOAD SWAP1 DUP2 ADD PUSH1 0x40 MSTORE DUP1 SWAP3 SWAP2 SWAP1 DUP2 DUP2 MSTORE PUSH1 0x20 ADD DUP3 DUP1 SLOAD PUSH2 0x5DD SWAP1 PUSH2 0x1552 JUMP JUMPDEST DUP1 ISZERO PUSH2 0x628 JUMPI DUP1 PUSH1 0x1F LT PUSH2 0x5FF JUMPI PUSH2 0x100 DUP1 DUP4 SLOAD DIV MUL DUP4 MSTORE SWAP2 PUSH1 0x20 ADD SWAP2 PUSH2 0x628 JUMP JUMPDEST DUP3 ADD SWAP2 SWAP1 PUSH0 MSTORE PUSH1 0x20 PUSH0 KECCAK256 SWAP1 JUMPDEST DUP2 SLOAD DUP2 MSTORE SWAP1 PUSH1 0x1 ADD SWAP1 PUSH1 0x20 ADD DUP1 DUP4 GT PUSH2 0x60B JUMPI DUP3 SWAP1 SUB PUSH1 0x1F AND DUP3 ADD SWAP2 JUMPDEST POP POP POP POP POP SWAP1 DUP1 PUSH1 0x2 ADD SLOAD SWAP1 DUP1 PUSH1 0x3 ADD SLOAD SWAP1 DUP1 PUSH1 0x4 ADD SLOAD SWAP1 POP DUP6 JUMP JUMPDEST PUSH0 PUSH1 0x4 DUP4 DUP2 SLOAD DUP2 LT PUSH2 0x659 JUMPI PUSH2 0x658 PUSH2 0x1582 JUMP JUMPDEST JUMPDEST SWAP1 PUSH0 MSTORE PUSH1 0x20 PUSH0 KECCAK256 SWAP1 PUSH1 0x5 MUL ADD SWAP1 POP DUP1 PUSH1 0x4 ADD PUSH0 SWAP1 SLOAD SWAP1 PUSH2 0x100 EXP SWAP1 DIV PUSH1 0xFF AND ISZERO PUSH2 0x6B8 JUMPI PUSH1 0x40 MLOAD PUSH32 0x8C379A000000000000000000000000000000000000000000000000000000000 DUP2 MSTORE PUSH1 0x4 ADD PUSH2 0x6AF SWAP1 PUSH2 0x15F9 JUMP JUMPDEST PUSH1 0x40 MLOAD DUP1 SWAP2 SUB SWAP1 REVERT JUMPDEST DUP2 ISZERO PUSH2 0x6DC JUMPI DUP1 PUSH1 0x2 ADD PUSH0 DUP2 SLOAD DUP1 SWAP3 SWAP2 SWAP1 PUSH2 0x6D2 SWAP1 PUSH2 0x16AC JUMP JUMPDEST SWAP2 SWAP1 POP SSTORE POP PUSH2 0x6F6 JUMP JUMPDEST DUP1 PUSH1 0x3 ADD PUSH0 DUP2 SLOAD DUP1 SWAP3 SWAP2 SWAP1 PUSH2 0x6F0 SWAP1 PUSH2 0x16AC JUMP JUMPDEST SWAP2 SWAP1 POP SSTORE POP JUMPDEST PUSH32 0xE71FCDAC32DF1877C1700E7BDA2A03157E20993363A28FC35AC495CEFC76E4D4 DUP4 CALLER DUP5 PUSH1 0x40 MLOAD PUSH2 0x729 SWAP4 SWAP3 SWAP2 SWAP1 PUSH2 0x16F3 JUMP JUMPDEST PUSH1 0x40 MLOAD DUP1 SWAP2 SUB SWAP1 LOG1 POP POP POP JUMP JUMPDEST PUSH1 0x2 PUSH1 0x20 MSTORE DUP2 PUSH0 MSTORE PUSH1 0x40 PUSH0 KECCAK256 PUSH1 0x20 MSTORE DUP1 PUSH0 MSTORE PUSH1 0x40 PUSH0 KECCAK256 PUSH0 SWAP2 POP SWAP2 POP POP SLOAD DUP2 JUMP JUMPDEST PUSH1 0x1 SLOAD DUP2 JUMP JUMPDEST DUP1 PUSH1 0x2 PUSH0 CALLER PUSH20 0xFFFFFFFFFFFFFFFFFFFFFFFFFFFFFFFFFFFFFFFF AND PUSH20 0xFFFFFFFFFFFFFFFFFFFFFFFFFFFFFFFFFFFFFFFF AND DUP2 MSTORE PUSH1 0x20 ADD SWAP1 DUP2 MSTORE PUSH1 0x20 ADD PUSH0 KECCAK256 PUSH0 DUP5 DUP2 MSTORE PUSH1 0x20 ADD SWAP1 DUP2 MSTORE PUSH1 0x20 ADD PUSH0 KECCAK256 SLOAD LT ISZERO PUSH2 0x7EB JUMPI PUSH1 0x40 MLOAD PUSH32 0x8C379A000000000000000000000000000000000000000000000000000000000 DUP2 MSTORE PUSH1 0x4 ADD PUSH2 0x7E2 SWAP1 PUSH2 0x1772 JUMP JUMPDEST PUSH1 0x40 MLOAD DUP1 SWAP2 SUB SWAP1 REVERT JUMPDEST DUP1 PUSH1 0x2 PUSH0 CALLER PUSH20 0xFFFFFFFFFFFFFFFFFFFFFFFFFFFFFFFFFFFFFFFF AND PUSH20 0xFFFFFFFFFFFFFFFFFFFFFFFFFFFFFFFFFFFFFFFF AND DUP2 MSTORE PUSH1 0x20 ADD SWAP1 DUP2 MSTORE PUSH1 0x20 ADD PUSH0 KECCAK256 PUSH0 DUP5 DUP2 MSTORE PUSH1 0x20 ADD SWAP1 DUP2 MSTORE PUSH1 0x20 ADD PUSH0 KECCAK256 PUSH0 DUP3 DUP3 SLOAD PUSH2 0x846 SWAP2 SWAP1 PUSH2 0x1790 JUMP JUMPDEST SWAP3 POP POP DUP2 SWAP1 SSTORE POP CALLER PUSH20 0xFFFFFFFFFFFFFFFFFFFFFFFFFFFFFFFFFFFFFFFF AND PUSH32 0x2FFD4879AF328C871CF4D2BE1D40D91F5CE4F202FD47E10E4C58D19667627DA8 DUP4 DUP4 PUSH1 0x40 MLOAD PUSH2 0x895 SWAP3 SWAP2 SWAP1 PUSH2 0x17C3 JUMP JUMPDEST PUSH1 0x40 MLOAD DUP1 SWAP2 SUB SWAP1 LOG2 POP POP JUMP JUMPDEST PUSH1 0x4 PUSH1 0x40 MLOAD DUP1 PUSH1 0xA0 ADD PUSH1 0x40 MSTORE DUP1 CALLER PUSH20 0xFFFFFFFFFFFFFFFFFFFFFFFFFFFFFFFFFFFFFFFF AND DUP2 MSTORE PUSH1 0x20 ADD DUP4 DUP2 MSTORE PUSH1 0x20 ADD PUSH0 DUP2 MSTORE PUSH1 0x20 ADD PUSH0 DUP2 MSTORE PUSH1 0x20 ADD PUSH0 ISZERO ISZERO DUP2 MSTORE POP SWAP1 DUP1 PUSH1 0x1 DUP2 SLOAD ADD DUP1 DUP3 SSTORE DUP1 SWAP2 POP POP PUSH1 0x1 SWAP1 SUB SWAP1 PUSH0 MSTORE PUSH1 0x20 PUSH0 KECCAK256 SWAP1 PUSH1 0x5 MUL ADD PUSH0 SWAP1 SWAP2 SWAP1 SWAP2 SWAP1 SWAP2 POP PUSH0 DUP3 ADD MLOAD DUP2 PUSH0 ADD PUSH0 PUSH2 0x100 EXP DUP2 SLOAD DUP2 PUSH20 0xFFFFFFFFFFFFFFFFFFFFFFFFFFFFFFFFFFFFFFFF MUL NOT AND SWAP1 DUP4 PUSH20 0xFFFFFFFFFFFFFFFFFFFFFFFFFFFFFFFFFFFFFFFF AND MUL OR SWAP1 SSTORE POP PUSH1 0x20 DUP3 ADD MLOAD DUP2 PUSH1 0x1 ADD SWAP1 DUP2 PUSH2 0x961 SWAP2 SWAP1 PUSH2 0x1987 JUMP JUMPDEST POP PUSH1 0x40 DUP3 ADD MLOAD DUP2 PUSH1 0x2 ADD SSTORE PUSH1 0x60 DUP3 ADD MLOAD DUP2 PUSH1 0x3 ADD SSTORE PUSH1 0x80 DUP3 ADD MLOAD DUP2 PUSH1 0x4 ADD PUSH0 PUSH2 0x100 EXP DUP2 SLOAD DUP2 PUSH1 0xFF MUL NOT AND SWAP1 DUP4 ISZERO ISZERO MUL OR SWAP1 SSTORE POP POP POP PUSH32 0xC8C078BFEE58E5822588F08B4509ED1EB5058E03F666CCA84DD2D44BF5C288A8 PUSH1 0x1 PUSH1 0x4 DUP1 SLOAD SWAP1 POP PUSH2 0x9CA SWAP2 SWAP1 PUSH2 0x1790 JUMP JUMPDEST DUP3 CALLER PUSH1 0x40 MLOAD PUSH2 0x9DB SWAP4 SWAP3 SWAP2 SWAP1 PUSH2 0x1A56 JUMP JUMPDEST PUSH1 0x40 MLOAD DUP1 SWAP2 SUB SWAP1 LOG1 POP JUMP JUMPDEST PUSH0 DUP1 PUSH0 DUP5 DUP2 MSTORE PUSH1 0x20 ADD SWAP1 DUP2 MSTORE PUSH1 0x20 ADD PUSH0 KECCAK256 SWAP1 POP PUSH0 DUP3 GT PUSH2 0xA3B JUMPI PUSH1 0x40 MLOAD PUSH32 0x8C379A000000000000000000000000000000000000000000000000000000000 DUP2 MSTORE PUSH1 0x4 ADD PUSH2 0xA32 SWAP1 PUSH2 0x1B02 JUMP JUMPDEST PUSH1 0x40 MLOAD DUP1 SWAP2 SUB SWAP1 REVERT JUMPDEST DUP1 PUSH1 0x3 ADD SLOAD DUP3 GT ISZERO PUSH2 0xA82 JUMPI PUSH1 0x40 MLOAD PUSH32 0x8C379A000000000000000000000000000000000000000000000000000000000 DUP2 MSTORE PUSH1 0x4 ADD PUSH2 0xA79 SWAP1 PUSH2 0x1B6A JUMP JUMPDEST PUSH1 0x40 MLOAD DUP1 SWAP2 SUB SWAP1 REVERT JUMPDEST DUP1 PUSH1 0x4 ADD SLOAD DUP3 PUSH2 0xA92 SWAP2 SWAP1 PUSH2 0x1B88 JUMP JUMPDEST CALLVALUE LT ISZERO PUSH2 0xAD4 JUMPI PUSH1 0x40 MLOAD PUSH32 0x8C379A000000000000000000000000000000000000000000000000000000000 DUP2 MSTORE PUSH1 0x4 ADD PUSH2 0xACB SWAP1 PUSH2 0x1C13 JUMP JUMPDEST PUSH1 0x40 MLOAD DUP1 SWAP2 SUB SWAP1 REVERT JUMPDEST DUP2 DUP2 PUSH1 0x3 ADD PUSH0 DUP3 DUP3 SLOAD PUSH2 0xAE7 SWAP2 SWAP1 PUSH2 0x1790 JUMP JUMPDEST SWAP3 POP POP DUP2 SWAP1 SSTORE POP DUP2 PUSH1 0x2 PUSH0 CALLER PUSH20 0xFFFFFFFFFFFFFFFFFFFFFFFFFFFFFFFFFFFFFFFF AND PUSH20 0xFFFFFFFFFFFFFFFFFFFFFFFFFFFFFFFFFFFFFFFF AND DUP2 MSTORE PUSH1 0x20 ADD SWAP1 DUP2 MSTORE PUSH1 0x20 ADD PUSH0 KECCAK256 PUSH0 DUP6 DUP2 MSTORE PUSH1 0x20 ADD SWAP1 DUP2 MSTORE PUSH1 0x20 ADD PUSH0 KECCAK256 PUSH0 DUP3 DUP3 SLOAD PUSH2 0xB49 SWAP2 SWAP1 PUSH2 0x1C31 JUMP JUMPDEST SWAP3 POP POP DUP2 SWAP1 SSTORE POP DUP2 PUSH1 0x3 PUSH0 CALLER PUSH20 0xFFFFFFFFFFFFFFFFFFFFFFFFFFFFFFFFFFFFFFFF AND PUSH20 0xFFFFFFFFFFFFFFFFFFFFFFFFFFFFFFFFFFFFFFFF AND DUP2 MSTORE PUSH1 0x20 ADD SWAP1 DUP2 MSTORE PUSH1 0x20 ADD PUSH0 KECCAK256 PUSH0 DUP3 DUP3 SLOAD PUSH2 0xB9C SWAP2 SWAP1 PUSH2 0x1C31 JUMP JUMPDEST SWAP3 POP POP DUP2 SWAP1 SSTORE POP DUP1 PUSH0 ADD PUSH0 SWAP1 SLOAD SWAP1 PUSH2 0x100 EXP SWAP1 DIV PUSH20 0xFFFFFFFFFFFFFFFFFFFFFFFFFFFFFFFFFFFFFFFF AND PUSH20 0xFFFFFFFFFFFFFFFFFFFFFFFFFFFFFFFFFFFFFFFF AND PUSH2 0x8FC CALLVALUE SWAP1 DUP2 ISZERO MUL SWAP1 PUSH1 0x40 MLOAD PUSH0 PUSH1 0x40 MLOAD DUP1 DUP4 SUB DUP2 DUP6 DUP9 DUP9 CALL SWAP4 POP POP POP POP ISZERO DUP1 ISZERO PUSH2 0xC08 JUMPI RETURNDATASIZE PUSH0 DUP1 RETURNDATACOPY RETURNDATASIZE PUSH0 REVERT JUMPDEST POP CALLER PUSH20 0xFFFFFFFFFFFFFFFFFFFFFFFFFFFFFFFFFFFFFFFF AND PUSH32 0xFB82FC1C5ADF84899709E87563B69DD5F4AC33320F1C60DBCA744BEC717EB90F DUP5 DUP5 PUSH1 0x40 MLOAD PUSH2 0xC51 SWAP3 SWAP2 SWAP1 PUSH2 0x17C3 JUMP JUMPDEST PUSH1 0x40 MLOAD DUP1 SWAP2 SUB SWAP1 LOG2 POP POP POP JUMP JUMPDEST PUSH0 PUSH1 0x3 PUSH0 DUP4 PUSH20 0xFFFFFFFFFFFFFFFFFFFFFFFFFFFFFFFFFFFFFFFF AND PUSH20 0xFFFFFFFFFFFFFFFFFFFFFFFFFFFFFFFFFFFFFFFF AND DUP2 MSTORE PUSH1 0x20 ADD SWAP1 DUP2 MSTORE PUSH1 0x20 ADD PUSH0 KECCAK256 SLOAD SWAP1 POP SWAP2 SWAP1 POP JUMP JUMPDEST PUSH0 PUSH1 0x2 PUSH0 DUP5 PUSH20 0xFFFFFFFFFFFFFFFFFFFFFFFFFFFFFFFFFFFFFFFF AND PUSH20 0xFFFFFFFFFFFFFFFFFFFFFFFFFFFFFFFFFFFFFFFF AND DUP2 MSTORE PUSH1 0x20 ADD SWAP1 DUP2 MSTORE PUSH1 0x20 ADD PUSH0 KECCAK256 PUSH0 DUP4 DUP2 MSTORE PUSH1 0x20 ADD SWAP1 DUP2 MSTORE PUSH1 0x20 ADD PUSH0 KECCAK256 SLOAD SWAP1 POP SWAP3 SWAP2 POP POP JUMP JUMPDEST PUSH1 0x3 PUSH1 0x20 MSTORE DUP1 PUSH0 MSTORE PUSH1 0x40 PUSH0 KECCAK256 PUSH0 SWAP2 POP SWAP1 POP SLOAD DUP2 JUMP JUMPDEST PUSH0 DUP3 GT PUSH2 0xD51 JUMPI PUSH1 0x40 MLOAD PUSH32 0x8C379A000000000000000000000000000000000000000000000000000000000 DUP2 MSTORE PUSH1 0x4 ADD PUSH2 0xD48 SWAP1 PUSH2 0x1CD4 JUMP JUMPDEST PUSH1 0x40 MLOAD DUP1 SWAP2 SUB SWAP1 REVERT JUMPDEST PUSH0 DUP2 GT PUSH2 0xD93 JUMPI PUSH1 0x40 MLOAD PUSH32 0x8C379A000000000000000000000000000000000000000000000000000000000 DUP2 MSTORE PUSH1 0x4 ADD PUSH2 0xD8A SWAP1 PUSH2 0x1D62 JUMP JUMPDEST PUSH1 0x40 MLOAD DUP1 SWAP2 SUB SWAP1 REVERT JUMPDEST PUSH1 0x40 MLOAD DUP1 PUSH1 0xA0 ADD PUSH1 0x40 MSTORE DUP1 CALLER PUSH20 0xFFFFFFFFFFFFFFFFFFFFFFFFFFFFFFFFFFFFFFFF AND DUP2 MSTORE PUSH1 0x20 ADD DUP5 DUP2 MSTORE PUSH1 0x20 ADD DUP4 DUP2 MSTORE PUSH1 0x20 ADD DUP4 DUP2 MSTORE PUSH1 0x20 ADD DUP3 DUP2 MSTORE POP PUSH0 DUP1 PUSH1 0x1 SLOAD DUP2 MSTORE PUSH1 0x20 ADD SWAP1 DUP2 MSTORE PUSH1 0x20 ADD PUSH0 KECCAK256 PUSH0 DUP3 ADD MLOAD DUP2 PUSH0 ADD PUSH0 PUSH2 0x100 EXP DUP2 SLOAD DUP2 PUSH20 0xFFFFFFFFFFFFFFFFFFFFFFFFFFFFFFFFFFFFFFFF MUL NOT AND SWAP1 DUP4 PUSH20 0xFFFFFFFFFFFFFFFFFFFFFFFFFFFFFFFFFFFFFFFF AND MUL OR SWAP1 SSTORE POP PUSH1 0x20 DUP3 ADD MLOAD DUP2 PUSH1 0x1 ADD SWAP1 DUP2 PUSH2 0xE3B SWAP2 SWAP1 PUSH2 0x1987 JUMP JUMPDEST POP PUSH1 0x40 DUP3 ADD MLOAD DUP2 PUSH1 0x2 ADD SSTORE PUSH1 0x60 DUP3 ADD MLOAD DUP2 PUSH1 0x3 ADD SSTORE PUSH1 0x80 DUP3 ADD MLOAD DUP2 PUSH1 0x4 ADD SSTORE SWAP1 POP POP PUSH32 0x50C6A8B423458D44F896828D57AF33000EAD07320BC572C2B3D856E7A954DF4B PUSH1 0x1 SLOAD DUP5 DUP5 DUP5 PUSH1 0x40 MLOAD PUSH2 0xE94 SWAP5 SWAP4 SWAP3 SWAP2 SWAP1 PUSH2 0x1D80 JUMP JUMPDEST PUSH1 0x40 MLOAD DUP1 SWAP2 SUB SWAP1 LOG1 PUSH1 0x1 PUSH0 DUP2 SLOAD DUP1 SWAP3 SWAP2 SWAP1 PUSH2 0xEAE SWAP1 PUSH2 0x16AC JUMP JUMPDEST SWAP2 SWAP1 POP SSTORE POP POP POP POP JUMP JUMPDEST PUSH1 0x60 PUSH0 DUP1 PUSH0 DUP1 PUSH0 DUP1 PUSH0 DUP9 DUP2 MSTORE PUSH1 0x20 ADD SWAP1 DUP2 MSTORE PUSH1 0x20 ADD PUSH0 KECCAK256 SWAP1 POP DUP1 PUSH1 0x1 ADD DUP2 PUSH1 0x2 ADD SLOAD DUP3 PUSH1 0x3 ADD SLOAD DUP4 PUSH1 0x4 ADD SLOAD DUP5 PUSH0 ADD PUSH0 SWAP1 SLOAD SWAP1 PUSH2 0x100 EXP SWAP1 DIV PUSH20 0xFFFFFFFFFFFFFFFFFFFFFFFFFFFFFFFFFFFFFFFF AND DUP5 DUP1 SLOAD PUSH2 0xF13 SWAP1 PUSH2 0x1552 JUMP JUMPDEST DUP1 PUSH1 0x1F ADD PUSH1 0x20 DUP1 SWAP2 DIV MUL PUSH1 0x20 ADD PUSH1 0x40 MLOAD SWAP1 DUP2 ADD PUSH1 0x40 MSTORE DUP1 SWAP3 SWAP2 SWAP1 DUP2 DUP2 MSTORE PUSH1 0x20 ADD DUP3 DUP1 SLOAD PUSH2 0xF3F SWAP1 PUSH2 0x1552 JUMP JUMPDEST DUP1 ISZERO PUSH2 0xF8A JUMPI DUP1 PUSH1 0x1F LT PUSH2 0xF61 JUMPI PUSH2 0x100 DUP1 DUP4 SLOAD DIV MUL DUP4 MSTORE SWAP2 PUSH1 0x20 ADD SWAP2 PUSH2 0xF8A JUMP JUMPDEST DUP3 ADD SWAP2 SWAP1 PUSH0 MSTORE PUSH1 0x20 PUSH0 KECCAK256 SWAP1 JUMPDEST DUP2 SLOAD DUP2 MSTORE SWAP1 PUSH1 0x1 ADD SWAP1 PUSH1 0x20 ADD DUP1 DUP4 GT PUSH2 0xF6D JUMPI DUP3 SWAP1 SUB PUSH1 0x1F AND DUP3 ADD SWAP2 JUMPDEST POP POP POP POP POP SWAP5 POP SWAP6 POP SWAP6 POP SWAP6 POP SWAP6 POP SWAP6 POP POP SWAP2 SWAP4 SWAP6 SWAP1 SWAP3 SWAP5 POP JUMP JUMPDEST PUSH0 PUSH1 0x40 MLOAD SWAP1 POP SWAP1 JUMP JUMPDEST PUSH0 DUP1 REVERT JUMPDEST PUSH0 DUP1 REVERT JUMPDEST PUSH0 DUP2 SWAP1 POP SWAP2 SWAP1 POP JUMP JUMPDEST PUSH2 0xFC8 DUP2 PUSH2 0xFB6 JUMP JUMPDEST DUP2 EQ PUSH2 0xFD2 JUMPI PUSH0 DUP1 REVERT JUMPDEST POP JUMP JUMPDEST PUSH0 DUP2 CALLDATALOAD SWAP1 POP PUSH2 0xFE3 DUP2 PUSH2 0xFBF JUMP JUMPDEST SWAP3 SWAP2 POP POP JUMP JUMPDEST PUSH0 PUSH1 0x20 DUP3 DUP5 SUB SLT ISZERO PUSH2 0xFFE JUMPI PUSH2 0xFFD PUSH2 0xFAE JUMP JUMPDEST JUMPDEST PUSH0 PUSH2 0x100B DUP5 DUP3 DUP6 ADD PUSH2 0xFD5 JUMP JUMPDEST SWAP2 POP POP SWAP3 SWAP2 POP POP JUMP JUMPDEST PUSH0 PUSH20 0xFFFFFFFFFFFFFFFFFFFFFFFFFFFFFFFFFFFFFFFF DUP3 AND SWAP1 POP SWAP2 SWAP1 POP JUMP JUMPDEST PUSH0 PUSH2 0x103D DUP3 PUSH2 0x1014 JUMP JUMPDEST SWAP1 POP SWAP2 SWAP1 POP JUMP JUMPDEST PUSH2 0x104D DUP2 PUSH2 0x1033 JUMP JUMPDEST DUP3 MSTORE POP POP JUMP JUMPDEST PUSH0 DUP2 MLOAD SWAP1 POP SWAP2 SWAP1 POP JUMP JUMPDEST PUSH0 DUP3 DUP3 MSTORE PUSH1 0x20 DUP3 ADD SWAP1 POP SWAP3 SWAP2 POP POP JUMP JUMPDEST DUP3 DUP2 DUP4 MCOPY PUSH0 DUP4 DUP4 ADD MSTORE POP POP POP JUMP JUMPDEST PUSH0 PUSH1 0x1F NOT PUSH1 0x1F DUP4 ADD AND SWAP1 POP SWAP2 SWAP1 POP JUMP JUMPDEST PUSH0 PUSH2 0x1095 DUP3 PUSH2 0x1053 JUMP JUMPDEST PUSH2 0x109F DUP2 DUP6 PUSH2 0x105D JUMP JUMPDEST SWAP4 POP PUSH2 0x10AF DUP2 DUP6 PUSH1 0x20 DUP7 ADD PUSH2 0x106D JUMP JUMPDEST PUSH2 0x10B8 DUP2 PUSH2 0x107B JUMP JUMPDEST DUP5 ADD SWAP2 POP POP SWAP3 SWAP2 POP POP JUMP JUMPDEST PUSH2 0x10CC DUP2 PUSH2 0xFB6 JUMP JUMPDEST DUP3 MSTORE POP POP JUMP JUMPDEST PUSH0 DUP2 ISZERO ISZERO SWAP1 POP SWAP2 SWAP1 POP JUMP JUMPDEST PUSH2 0x10E6 DUP2 PUSH2 0x10D2 JUMP JUMPDEST DUP3 MSTORE POP POP JUMP JUMPDEST PUSH0 PUSH1 0xA0 DUP3 ADD SWAP1 POP PUSH2 0x10FF PUSH0 DUP4 ADD DUP9 PUSH2 0x1044 JUMP JUMPDEST DUP2 DUP2 SUB PUSH1 0x20 DUP4 ADD MSTORE PUSH2 0x1111 DUP2 DUP8 PUSH2 0x108B JUMP JUMPDEST SWAP1 POP PUSH2 0x1120 PUSH1 0x40 DUP4 ADD DUP7 PUSH2 0x10C3 JUMP JUMPDEST PUSH2 0x112D PUSH1 0x60 DUP4 ADD DUP6 PUSH2 0x10C3 JUMP JUMPDEST PUSH2 0x113A PUSH1 0x80 DUP4 ADD DUP5 PUSH2 0x10DD JUMP JUMPDEST SWAP7 SWAP6 POP POP POP POP POP POP JUMP JUMPDEST PUSH0 PUSH1 0xA0 DUP3 ADD SWAP1 POP PUSH2 0x1157 PUSH0 DUP4 ADD DUP9 PUSH2 0x1044 JUMP JUMPDEST DUP2 DUP2 SUB PUSH1 0x20 DUP4 ADD MSTORE PUSH2 0x1169 DUP2 DUP8 PUSH2 0x108B JUMP JUMPDEST SWAP1 POP PUSH2 0x1178 PUSH1 0x40 DUP4 ADD DUP7 PUSH2 0x10C3 JUMP JUMPDEST PUSH2 0x1185 PUSH1 0x60 DUP4 ADD DUP6 PUSH2 0x10C3 JUMP JUMPDEST PUSH2 0x1192 PUSH1 0x80 DUP4 ADD DUP5 PUSH2 0x10C3 JUMP JUMPDEST SWAP7 SWAP6 POP POP POP POP POP POP JUMP JUMPDEST PUSH2 0x11A5 DUP2 PUSH2 0x10D2 JUMP JUMPDEST DUP2 EQ PUSH2 0x11AF JUMPI PUSH0 DUP1 REVERT JUMPDEST POP JUMP JUMPDEST PUSH0 DUP2 CALLDATALOAD SWAP1 POP PUSH2 0x11C0 DUP2 PUSH2 0x119C JUMP JUMPDEST SWAP3 SWAP2 POP POP JUMP JUMPDEST PUSH0 DUP1 PUSH1 0x40 DUP4 DUP6 SUB SLT ISZERO PUSH2 0x11DC JUMPI PUSH2 0x11DB PUSH2 0xFAE JUMP JUMPDEST JUMPDEST PUSH0 PUSH2 0x11E9 DUP6 DUP3 DUP7 ADD PUSH2 0xFD5 JUMP JUMPDEST SWAP3 POP POP PUSH1 0x20 PUSH2 0x11FA DUP6 DUP3 DUP7 ADD PUSH2 0x11B2 JUMP JUMPDEST SWAP2 POP POP SWAP3 POP SWAP3 SWAP1 POP JUMP JUMPDEST PUSH2 0x120D DUP2 PUSH2 0x1033 JUMP JUMPDEST DUP2 EQ PUSH2 0x1217 JUMPI PUSH0 DUP1 REVERT JUMPDEST POP JUMP JUMPDEST PUSH0 DUP2 CALLDATALOAD SWAP1 POP PUSH2 0x1228 DUP2 PUSH2 0x1204 JUMP JUMPDEST SWAP3 SWAP2 POP POP JUMP JUMPDEST PUSH0 DUP1 PUSH1 0x40 DUP4 DUP6 SUB SLT ISZERO PUSH2 0x1244 JUMPI PUSH2 0x1243 PUSH2 0xFAE JUMP JUMPDEST JUMPDEST PUSH0 PUSH2 0x1251 DUP6 DUP3 DUP7 ADD PUSH2 0x121A JUMP JUMPDEST SWAP3 POP POP PUSH1 0x20 PUSH2 0x1262 DUP6 DUP3 DUP7 ADD PUSH2 0xFD5 JUMP JUMPDEST SWAP2 POP POP SWAP3 POP SWAP3 SWAP1 POP JUMP JUMPDEST PUSH0 PUSH1 0x20 DUP3 ADD SWAP1 POP PUSH2 0x127F PUSH0 DUP4 ADD DUP5 PUSH2 0x10C3 JUMP JUMPDEST SWAP3 SWAP2 POP POP JUMP JUMPDEST PUSH0 DUP1 PUSH1 0x40 DUP4 DUP6 SUB SLT ISZERO PUSH2 0x129B JUMPI PUSH2 0x129A PUSH2 0xFAE JUMP JUMPDEST JUMPDEST PUSH0 PUSH2 0x12A8 DUP6 DUP3 DUP7 ADD PUSH2 0xFD5 JUMP JUMPDEST SWAP3 POP POP PUSH1 0x20 PUSH2 0x12B9 DUP6 DUP3 DUP7 ADD PUSH2 0xFD5 JUMP JUMPDEST SWAP2 POP POP SWAP3 POP SWAP3 SWAP1 POP JUMP JUMPDEST PUSH0 DUP1 REVERT JUMPDEST PUSH0 DUP1 REVERT JUMPDEST PUSH32 0x4E487B7100000000000000000000000000000000000000000000000000000000 PUSH0 MSTORE PUSH1 0x41 PUSH1 0x4 MSTORE PUSH1 0x24 PUSH0 REVERT JUMPDEST PUSH2 0x1301 DUP3 PUSH2 0x107B JUMP JUMPDEST DUP2 ADD DUP2 DUP2 LT PUSH8 0xFFFFFFFFFFFFFFFF DUP3 GT OR ISZERO PUSH2 0x1320 JUMPI PUSH2 0x131F PUSH2 0x12CB JUMP JUMPDEST JUMPDEST DUP1 PUSH1 0x40 MSTORE POP POP POP JUMP JUMPDEST PUSH0 PUSH2 0x1332 PUSH2 0xFA5 JUMP JUMPDEST SWAP1 POP PUSH2 0x133E DUP3 DUP3 PUSH2 0x12F8 JUMP JUMPDEST SWAP2 SWAP1 POP JUMP JUMPDEST PUSH0 PUSH8 0xFFFFFFFFFFFFFFFF DUP3 GT ISZERO PUSH2 0x135D JUMPI PUSH2 0x135C PUSH2 0x12CB JUMP JUMPDEST JUMPDEST PUSH2 0x1366 DUP3 PUSH2 0x107B JUMP JUMPDEST SWAP1 POP PUSH1 0x20 DUP2 ADD SWAP1 POP SWAP2 SWAP1 POP JUMP JUMPDEST DUP3 DUP2 DUP4 CALLDATACOPY PUSH0 DUP4 DUP4 ADD MSTORE POP POP POP JUMP JUMPDEST PUSH0 PUSH2 0x1393 PUSH2 0x138E DUP5 PUSH2 0x1343 JUMP JUMPDEST PUSH2 0x1329 JUMP JUMPDEST SWAP1 POP DUP3 DUP2 MSTORE PUSH1 0x20 DUP2 ADD DUP5 DUP5 DUP5 ADD GT ISZERO PUSH2 0x13AF JUMPI PUSH2 0x13AE PUSH2 0x12C7 JUMP JUMPDEST JUMPDEST PUSH2 0x13BA DUP5 DUP3 DUP6 PUSH2 0x1373 JUMP JUMPDEST POP SWAP4 SWAP3 POP POP POP JUMP JUMPDEST PUSH0 DUP3 PUSH1 0x1F DUP4 ADD SLT PUSH2 0x13D6 JUMPI PUSH2 0x13D5 PUSH2 0x12C3 JUMP JUMPDEST JUMPDEST DUP2 CALLDATALOAD PUSH2 0x13E6 DUP5 DUP3 PUSH1 0x20 DUP7 ADD PUSH2 0x1381 JUMP JUMPDEST SWAP2 POP POP SWAP3 SWAP2 POP POP JUMP JUMPDEST PUSH0 PUSH1 0x20 DUP3 DUP5 SUB SLT ISZERO PUSH2 0x1404 JUMPI PUSH2 0x1403 PUSH2 0xFAE JUMP JUMPDEST JUMPDEST PUSH0 DUP3 ADD CALLDATALOAD PUSH8 0xFFFFFFFFFFFFFFFF DUP2 GT ISZERO PUSH2 0x1421 JUMPI PUSH2 0x1420 PUSH2 0xFB2 JUMP JUMPDEST JUMPDEST PUSH2 0x142D DUP5 DUP3 DUP6 ADD PUSH2 0x13C2 JUMP JUMPDEST SWAP2 POP POP SWAP3 SWAP2 POP POP JUMP JUMPDEST PUSH0 PUSH1 0x20 DUP3 DUP5 SUB SLT ISZERO PUSH2 0x144B JUMPI PUSH2 0x144A PUSH2 0xFAE JUMP JUMPDEST JUMPDEST PUSH0 PUSH2 0x1458 DUP5 DUP3 DUP6 ADD PUSH2 0x121A JUMP JUMPDEST SWAP2 POP POP SWAP3 SWAP2 POP POP JUMP JUMPDEST PUSH0 DUP1 PUSH0 PUSH1 0x60 DUP5 DUP7 SUB SLT ISZERO PUSH2 0x1478 JUMPI PUSH2 0x1477 PUSH2 0xFAE JUMP JUMPDEST JUMPDEST PUSH0 DUP5 ADD CALLDATALOAD PUSH8 0xFFFFFFFFFFFFFFFF DUP2 GT ISZERO PUSH2 0x1495 JUMPI PUSH2 0x1494 PUSH2 0xFB2 JUMP JUMPDEST JUMPDEST PUSH2 0x14A1 DUP7 DUP3 DUP8 ADD PUSH2 0x13C2 JUMP JUMPDEST SWAP4 POP POP PUSH1 0x20 PUSH2 0x14B2 DUP7 DUP3 DUP8 ADD PUSH2 0xFD5 JUMP JUMPDEST SWAP3 POP POP PUSH1 0x40 PUSH2 0x14C3 DUP7 DUP3 DUP8 ADD PUSH2 0xFD5 JUMP JUMPDEST SWAP2 POP POP SWAP3 POP SWAP3 POP SWAP3 JUMP JUMPDEST PUSH0 PUSH1 0xA0 DUP3 ADD SWAP1 POP DUP2 DUP2 SUB PUSH0 DUP4 ADD MSTORE PUSH2 0x14E5 DUP2 DUP9 PUSH2 0x108B JUMP JUMPDEST SWAP1 POP PUSH2 0x14F4 PUSH1 0x20 DUP4 ADD DUP8 PUSH2 0x10C3 JUMP JUMPDEST PUSH2 0x1501 PUSH1 0x40 DUP4 ADD DUP7 PUSH2 0x10C3 JUMP JUMPDEST PUSH2 0x150E PUSH1 0x60 DUP4 ADD DUP6 PUSH2 0x10C3 JUMP JUMPDEST PUSH2 0x151B PUSH1 0x80 DUP4 ADD DUP5 PUSH2 0x1044 JUMP JUMPDEST SWAP7 SWAP6 POP POP POP POP POP POP JUMP JUMPDEST PUSH32 0x4E487B7100000000000000000000000000000000000000000000000000000000 PUSH0 MSTORE PUSH1 0x22 PUSH1 0x4 MSTORE PUSH1 0x24 PUSH0 REVERT JUMPDEST PUSH0 PUSH1 0x2 DUP3 DIV SWAP1 POP PUSH1 0x1 DUP3 AND DUP1 PUSH2 0x1569 JUMPI PUSH1 0x7F DUP3 AND SWAP2 POP JUMPDEST PUSH1 0x20 DUP3 LT DUP2 SUB PUSH2 0x157C JUMPI PUSH2 0x157B PUSH2 0x1525 JUMP JUMPDEST JUMPDEST POP SWAP2 SWAP1 POP JUMP JUMPDEST PUSH32 0x4E487B7100000000000000000000000000000000000000000000000000000000 PUSH0 MSTORE PUSH1 0x32 PUSH1 0x4 MSTORE PUSH1 0x24 PUSH0 REVERT JUMPDEST PUSH32 0x50726F706F73616C20616C726561647920657865637574656400000000000000 PUSH0 DUP3 ADD MSTORE POP JUMP JUMPDEST PUSH0 PUSH2 0x15E3 PUSH1 0x19 DUP4 PUSH2 0x105D JUMP JUMPDEST SWAP2 POP PUSH2 0x15EE DUP3 PUSH2 0x15AF JUMP JUMPDEST PUSH1 0x20 DUP3 ADD SWAP1 POP SWAP2 SWAP1 POP JUMP JUMPDEST PUSH0 PUSH1 0x20 DUP3 ADD SWAP1 POP DUP2 DUP2 SUB PUSH0 DUP4 ADD MSTORE PUSH2 0x1610 DUP2 PUSH2 0x15D7 JUMP JUMPDEST SWAP1 POP SWAP2 SWAP1 POP JUMP JUMPDEST PUSH32 0x50726F706F73616C20646964206E6F7420706173730000000000000000000000 PUSH0 DUP3 ADD MSTORE POP JUMP JUMPDEST PUSH0 PUSH2 0x164B PUSH1 0x15 DUP4 PUSH2 0x105D JUMP JUMPDEST SWAP2 POP PUSH2 0x1656 DUP3 PUSH2 0x1617 JUMP JUMPDEST PUSH1 0x20 DUP3 ADD SWAP1 POP SWAP2 SWAP1 POP JUMP JUMPDEST PUSH0 PUSH1 0x20 DUP3 ADD SWAP1 POP DUP2 DUP2 SUB PUSH0 DUP4 ADD MSTORE PUSH2 0x1678 DUP2 PUSH2 0x163F JUMP JUMPDEST SWAP1 POP SWAP2 SWAP1 POP JUMP JUMPDEST PUSH32 0x4E487B7100000000000000000000000000000000000000000000000000000000 PUSH0 MSTORE PUSH1 0x11 PUSH1 0x4 MSTORE PUSH1 0x24 PUSH0 REVERT JUMPDEST PUSH0 PUSH2 0x16B6 DUP3 PUSH2 0xFB6 JUMP JUMPDEST SWAP2 POP PUSH32 0xFFFFFFFFFFFFFFFFFFFFFFFFFFFFFFFFFFFFFFFFFFFFFFFFFFFFFFFFFFFFFFFF DUP3 SUB PUSH2 0x16E8 JUMPI PUSH2 0x16E7 PUSH2 0x167F JUMP JUMPDEST JUMPDEST PUSH1 0x1 DUP3 ADD SWAP1 POP SWAP2 SWAP1 POP JUMP JUMPDEST PUSH0 PUSH1 0x60 DUP3 ADD SWAP1 POP PUSH2 0x1706 PUSH0 DUP4 ADD DUP7 PUSH2 0x10C3 JUMP JUMPDEST PUSH2 0x1713 PUSH1 0x20 DUP4 ADD DUP6 PUSH2 0x1044 JUMP JUMPDEST PUSH2 0x1720 PUSH1 0x40 DUP4 ADD DUP5 PUSH2 0x10DD JUMP JUMPDEST SWAP5 SWAP4 POP POP POP POP JUMP JUMPDEST PUSH32 0x496E73756666696369656E74206372656469747320746F207265746972650000 PUSH0 DUP3 ADD MSTORE POP JUMP JUMPDEST PUSH0 PUSH2 0x175C PUSH1 0x1E DUP4 PUSH2 0x105D JUMP JUMPDEST SWAP2 POP PUSH2 0x1767 DUP3 PUSH2 0x1728 JUMP JUMPDEST PUSH1 0x20 DUP3 ADD SWAP1 POP SWAP2 SWAP1 POP JUMP JUMPDEST PUSH0 PUSH1 0x20 DUP3 ADD SWAP1 POP DUP2 DUP2 SUB PUSH0 DUP4 ADD MSTORE PUSH2 0x1789 DUP2 PUSH2 0x1750 JUMP JUMPDEST SWAP1 POP SWAP2 SWAP1 POP JUMP JUMPDEST PUSH0 PUSH2 0x179A DUP3 PUSH2 0xFB6 JUMP JUMPDEST SWAP2 POP PUSH2 0x17A5 DUP4 PUSH2 0xFB6 JUMP JUMPDEST SWAP3 POP DUP3 DUP3 SUB SWAP1 POP DUP2 DUP2 GT ISZERO PUSH2 0x17BD JUMPI PUSH2 0x17BC PUSH2 0x167F JUMP JUMPDEST JUMPDEST SWAP3 SWAP2 POP POP JUMP JUMPDEST PUSH0 PUSH1 0x40 DUP3 ADD SWAP1 POP PUSH2 0x17D6 PUSH0 DUP4 ADD DUP6 PUSH2 0x10C3 JUMP JUMPDEST PUSH2 0x17E3 PUSH1 0x20 DUP4 ADD DUP5 PUSH2 0x10C3 JUMP JUMPDEST SWAP4 SWAP3 POP POP POP JUMP JUMPDEST PUSH0 DUP2 SWAP1 POP DUP2 PUSH0 MSTORE PUSH1 0x20 PUSH0 KECCAK256 SWAP1 POP SWAP2 SWAP1 POP JUMP JUMPDEST PUSH0 PUSH1 0x20 PUSH1 0x1F DUP4 ADD DIV SWAP1 POP SWAP2 SWAP1 POP JUMP JUMPDEST PUSH0 DUP3 DUP3 SHL SWAP1 POP SWAP3 SWAP2 POP POP JUMP JUMPDEST PUSH0 PUSH1 0x8 DUP4 MUL PUSH2 0x1846 PUSH32 0xFFFFFFFFFFFFFFFFFFFFFFFFFFFFFFFFFFFFFFFFFFFFFFFFFFFFFFFFFFFFFFFF DUP3 PUSH2 0x180B JUMP JUMPDEST PUSH2 0x1850 DUP7 DUP4 PUSH2 0x180B JUMP JUMPDEST SWAP6 POP DUP1 NOT DUP5 AND SWAP4 POP DUP1 DUP7 AND DUP5 OR SWAP3 POP POP POP SWAP4 SWAP3 POP POP POP JUMP JUMPDEST PUSH0 DUP2 SWAP1 POP SWAP2 SWAP1 POP JUMP JUMPDEST PUSH0 PUSH2 0x188B PUSH2 0x1886 PUSH2 0x1881 DUP5 PUSH2 0xFB6 JUMP JUMPDEST PUSH2 0x1868 JUMP JUMPDEST PUSH2 0xFB6 JUMP JUMPDEST SWAP1 POP SWAP2 SWAP1 POP JUMP JUMPDEST PUSH0 DUP2 SWAP1 POP SWAP2 SWAP1 POP JUMP JUMPDEST PUSH2 0x18A4 DUP4 PUSH2 0x1871 JUMP JUMPDEST PUSH2 0x18B8 PUSH2 0x18B0 DUP3 PUSH2 0x1892 JUMP JUMPDEST DUP5 DUP5 SLOAD PUSH2 0x1817 JUMP JUMPDEST DUP3 SSTORE POP POP POP POP JUMP JUMPDEST PUSH0 SWAP1 JUMP JUMPDEST PUSH2 0x18CC PUSH2 0x18C0 JUMP JUMPDEST PUSH2 0x18D7 DUP2 DUP5 DUP5 PUSH2 0x189B JUMP JUMPDEST POP POP POP JUMP JUMPDEST JUMPDEST DUP2 DUP2 LT ISZERO PUSH2 0x18FA JUMPI PUSH2 0x18EF PUSH0 DUP3 PUSH2 0x18C4 JUMP JUMPDEST PUSH1 0x1 DUP2 ADD SWAP1 POP PUSH2 0x18DD JUMP JUMPDEST POP POP JUMP JUMPDEST PUSH1 0x1F DUP3 GT ISZERO PUSH2 0x193F JUMPI PUSH2 0x1910 DUP2 PUSH2 0x17EA JUMP JUMPDEST PUSH2 0x1919 DUP5 PUSH2 0x17FC JUMP JUMPDEST DUP2 ADD PUSH1 0x20 DUP6 LT ISZERO PUSH2 0x1928 JUMPI DUP2 SWAP1 POP JUMPDEST PUSH2 0x193C PUSH2 0x1934 DUP6 PUSH2 0x17FC JUMP JUMPDEST DUP4 ADD DUP3 PUSH2 0x18DC JUMP JUMPDEST POP POP JUMPDEST POP POP POP JUMP JUMPDEST PUSH0 DUP3 DUP3 SHR SWAP1 POP SWAP3 SWAP2 POP POP JUMP JUMPDEST PUSH0 PUSH2 0x195F PUSH0 NOT DUP5 PUSH1 0x8 MUL PUSH2 0x1944 JUMP JUMPDEST NOT DUP1 DUP4 AND SWAP2 POP POP SWAP3 SWAP2 POP POP JUMP JUMPDEST PUSH0 PUSH2 0x1977 DUP4 DUP4 PUSH2 0x1950 JUMP JUMPDEST SWAP2 POP DUP3 PUSH1 0x2 MUL DUP3 OR SWAP1 POP SWAP3 SWAP2 POP POP JUMP JUMPDEST PUSH2 0x1990 DUP3 PUSH2 0x1053 JUMP JUMPDEST PUSH8 0xFFFFFFFFFFFFFFFF DUP2 GT ISZERO PUSH2 0x19A9 JUMPI PUSH2 0x19A8 PUSH2 0x12CB JUMP JUMPDEST JUMPDEST PUSH2 0x19B3 DUP3 SLOAD PUSH2 0x1552 JUMP JUMPDEST PUSH2 0x19BE DUP3 DUP3 DUP6 PUSH2 0x18FE JUMP JUMPDEST PUSH0 PUSH1 0x20 SWAP1 POP PUSH1 0x1F DUP4 GT PUSH1 0x1 DUP2 EQ PUSH2 0x19EF JUMPI PUSH0 DUP5 ISZERO PUSH2 0x19DD JUMPI DUP3 DUP8 ADD MLOAD SWAP1 POP JUMPDEST PUSH2 0x19E7 DUP6 DUP3 PUSH2 0x196C JUMP JUMPDEST DUP7 SSTORE POP PUSH2 0x1A4E JUMP JUMPDEST PUSH1 0x1F NOT DUP5 AND PUSH2 0x19FD DUP7 PUSH2 0x17EA JUMP JUMPDEST PUSH0 JUMPDEST DUP3 DUP2 LT ISZERO PUSH2 0x1A24 JUMPI DUP5 DUP10 ADD MLOAD DUP3 SSTORE PUSH1 0x1 DUP3 ADD SWAP2 POP PUSH1 0x20 DUP6 ADD SWAP5 POP PUSH1 0x20 DUP2 ADD SWAP1 POP PUSH2 0x19FF JUMP JUMPDEST DUP7 DUP4 LT ISZERO PUSH2 0x1A41 JUMPI DUP5 DUP10 ADD MLOAD PUSH2 0x1A3D PUSH1 0x1F DUP10 AND DUP3 PUSH2 0x1950 JUMP JUMPDEST DUP4 SSTORE POP JUMPDEST PUSH1 0x1 PUSH1 0x2 DUP9 MUL ADD DUP9 SSTORE POP POP POP JUMPDEST POP POP POP POP POP POP JUMP JUMPDEST PUSH0 PUSH1 0x60 DUP3 ADD SWAP1 POP PUSH2 0x1A69 PUSH0 DUP4 ADD DUP7 PUSH2 0x10C3 JUMP JUMPDEST DUP2 DUP2 SUB PUSH1 0x20 DUP4 ADD MSTORE PUSH2 0x1A7B DUP2 DUP6 PUSH2 0x108B JUMP JUMPDEST SWAP1 POP PUSH2 0x1A8A PUSH1 0x40 DUP4 ADD DUP5 PUSH2 0x1044 JUMP JUMPDEST SWAP5 SWAP4 POP POP POP POP JUMP JUMPDEST PUSH32 0x437265646974732073686F756C642062652067726561746572207468616E207A PUSH0 DUP3 ADD MSTORE PUSH32 0x65726F0000000000000000000000000000000000000000000000000000000000 PUSH1 0x20 DUP3 ADD MSTORE POP JUMP JUMPDEST PUSH0 PUSH2 0x1AEC PUSH1 0x23 DUP4 PUSH2 0x105D JUMP JUMPDEST SWAP2 POP PUSH2 0x1AF7 DUP3 PUSH2 0x1A92 JUMP JUMPDEST PUSH1 0x40 DUP3 ADD SWAP1 POP SWAP2 SWAP1 POP JUMP JUMPDEST PUSH0 PUSH1 0x20 DUP3 ADD SWAP1 POP DUP2 DUP2 SUB PUSH0 DUP4 ADD MSTORE PUSH2 0x1B19 DUP2 PUSH2 0x1AE0 JUMP JUMPDEST SWAP1 POP SWAP2 SWAP1 POP JUMP JUMPDEST PUSH32 0x4E6F7420656E6F75676820617661696C61626C65206372656469747300000000 PUSH0 DUP3 ADD MSTORE POP JUMP JUMPDEST PUSH0 PUSH2 0x1B54 PUSH1 0x1C DUP4 PUSH2 0x105D JUMP JUMPDEST SWAP2 POP PUSH2 0x1B5F DUP3 PUSH2 0x1B20 JUMP JUMPDEST PUSH1 0x20 DUP3 ADD SWAP1 POP SWAP2 SWAP1 POP JUMP JUMPDEST PUSH0 PUSH1 0x20 DUP3 ADD SWAP1 POP DUP2 DUP2 SUB PUSH0 DUP4 ADD MSTORE PUSH2 0x1B81 DUP2 PUSH2 0x1B48 JUMP JUMPDEST SWAP1 POP SWAP2 SWAP1 POP JUMP JUMPDEST PUSH0 PUSH2 0x1B92 DUP3 PUSH2 0xFB6 JUMP JUMPDEST SWAP2 POP PUSH2 0x1B9D DUP4 PUSH2 0xFB6 JUMP JUMPDEST SWAP3 POP DUP3 DUP3 MUL PUSH2 0x1BAB DUP2 PUSH2 0xFB6 JUMP JUMPDEST SWAP2 POP DUP3 DUP3 DIV DUP5 EQ DUP4 ISZERO OR PUSH2 0x1BC2 JUMPI PUSH2 0x1BC1 PUSH2 0x167F JUMP JUMPDEST JUMPDEST POP SWAP3 SWAP2 POP POP JUMP JUMPDEST PUSH32 0x496E73756666696369656E74207061796D656E74000000000000000000000000 PUSH0 DUP3 ADD MSTORE POP JUMP JUMPDEST PUSH0 PUSH2 0x1BFD PUSH1 0x14 DUP4 PUSH2 0x105D JUMP JUMPDEST SWAP2 POP PUSH2 0x1C08 DUP3 PUSH2 0x1BC9 JUMP JUMPDEST PUSH1 0x20 DUP3 ADD SWAP1 POP SWAP2 SWAP1 POP JUMP JUMPDEST PUSH0 PUSH1 0x20 DUP3 ADD SWAP1 POP DUP2 DUP2 SUB PUSH0 DUP4 ADD MSTORE PUSH2 0x1C2A DUP2 PUSH2 0x1BF1 JUMP JUMPDEST SWAP1 POP SWAP2 SWAP1 POP JUMP JUMPDEST PUSH0 PUSH2 0x1C3B DUP3 PUSH2 0xFB6 JUMP JUMPDEST SWAP2 POP PUSH2 0x1C46 DUP4 PUSH2 0xFB6 JUMP JUMPDEST SWAP3 POP DUP3 DUP3 ADD SWAP1 POP DUP1 DUP3 GT ISZERO PUSH2 0x1C5E JUMPI PUSH2 0x1C5D PUSH2 0x167F JUMP JUMPDEST JUMPDEST SWAP3 SWAP2 POP POP JUMP JUMPDEST PUSH32 0x546F74616C20637265646974732073686F756C64206265206772656174657220 PUSH0 DUP3 ADD MSTORE PUSH32 0x7468616E207A65726F0000000000000000000000000000000000000000000000 PUSH1 0x20 DUP3 ADD MSTORE POP JUMP JUMPDEST PUSH0 PUSH2 0x1CBE PUSH1 0x29 DUP4 PUSH2 0x105D JUMP JUMPDEST SWAP2 POP PUSH2 0x1CC9 DUP3 PUSH2 0x1C64 JUMP JUMPDEST PUSH1 0x40 DUP3 ADD SWAP1 POP SWAP2 SWAP1 POP JUMP JUMPDEST PUSH0 PUSH1 0x20 DUP3 ADD SWAP1 POP DUP2 DUP2 SUB PUSH0 DUP4 ADD MSTORE PUSH2 0x1CEB DUP2 PUSH2 0x1CB2 JUMP JUMPDEST SWAP1 POP SWAP2 SWAP1 POP JUMP JUMPDEST PUSH32 0x507269636520706572206372656469742073686F756C64206265206772656174 PUSH0 DUP3 ADD MSTORE PUSH32 0x6572207468616E207A65726F0000000000000000000000000000000000000000 PUSH1 0x20 DUP3 ADD MSTORE POP JUMP JUMPDEST PUSH0 PUSH2 0x1D4C PUSH1 0x2C DUP4 PUSH2 0x105D JUMP JUMPDEST SWAP2 POP PUSH2 0x1D57 DUP3 PUSH2 0x1CF2 JUMP JUMPDEST PUSH1 0x40 DUP3 ADD SWAP1 POP SWAP2 SWAP1 POP JUMP JUMPDEST PUSH0 PUSH1 0x20 DUP3 ADD SWAP1 POP DUP2 DUP2 SUB PUSH0 DUP4 ADD MSTORE PUSH2 0x1D79 DUP2 PUSH2 0x1D40 JUMP JUMPDEST SWAP1 POP SWAP2 SWAP1 POP JUMP JUMPDEST PUSH0 PUSH1 0x80 DUP3 ADD SWAP1 POP PUSH2 0x1D93 PUSH0 DUP4 ADD DUP8 PUSH2 0x10C3 JUMP JUMPDEST DUP2 DUP2 SUB PUSH1 0x20 DUP4 ADD MSTORE PUSH2 0x1DA5 DUP2 DUP7 PUSH2 0x108B JUMP JUMPDEST SWAP1 POP PUSH2 0x1DB4 PUSH1 0x40 DUP4 ADD DUP6 PUSH2 0x10C3 JUMP JUMPDEST PUSH2 0x1DC1 PUSH1 0x60 DUP4 ADD DUP5 PUSH2 0x10C3 JUMP JUMPDEST SWAP6 SWAP5 POP POP POP POP POP JUMP INVALID LOG2 PUSH5 0x6970667358 0x22 SLT KECCAK256 PUSH30 0x1644247B20DCEA454D71CDCA726D29F222017845AEC221942DF85A52F95E 0xCC PUSH5 0x736F6C6343 STOP ADDMOD BYTE STOP CALLER "
				},
				"gasEstimates": {
					"creation": {
						"codeDepositCost": "1536000",
						"executionCost": "1601",
						"totalCost": "1537601"
					},
					"external": {
						"createProposal(string)": "infinite",
						"executeProposal(uint256)": "33316",
						"getProject(uint256)": "infinite",
						"getUserCredits(address,uint256)": "infinite",
						"getUserReputation(address)": "2896",
						"projectCount()": "2492",
						"projects(uint256)": "infinite",
						"proposals(uint256)": "infinite",
						"purchaseCredits(uint256,uint256)": "infinite",
						"registerProject(string,uint256,uint256)": "infinite",
						"retireCredits(uint256,uint256)": "infinite",
						"userCredits(address,uint256)": "infinite",
						"userReputation(address)": "2846",
						"voteOnProposal(uint256,bool)": "infinite"
					}
				},
				"methodIdentifiers": {
					"createProposal(string)": "49c2a1a6",
					"executeProposal(uint256)": "0d61b519",
					"getProject(uint256)": "f0f3f2c8",
					"getUserCredits(address,uint256)": "c121cff0",
					"getUserReputation(address)": "baccbfdb",
					"projectCount()": "36fbad26",
					"projects(uint256)": "107046bd",
					"proposals(uint256)": "013cf08b",
					"purchaseCredits(uint256,uint256)": "84034469",
					"registerProject(string,uint256,uint256)": "e636eb55",
					"retireCredits(uint256,uint256)": "3ea0fb13",
					"userCredits(address,uint256)": "17a483a3",
					"userReputation(address)": "e503bb05",
					"voteOnProposal(uint256,bool)": "1614665c"
				}
			},
			"storageLayout": {
				"storage": [
					{
						"astId": 17,
						"contract": "carbon.sol:CarbonOffsetMarketplace",
						"label": "projects",
						"offset": 0,
						"slot": "0",
						"type": "t_mapping(t_uint256,t_struct(Project)12_storage)"
					},
					{
						"astId": 19,
						"contract": "carbon.sol:CarbonOffsetMarketplace",
						"label": "projectCount",
						"offset": 0,
						"slot": "1",
						"type": "t_uint256"
					},
					{
						"astId": 25,
						"contract": "carbon.sol:CarbonOffsetMarketplace",
						"label": "userCredits",
						"offset": 0,
						"slot": "2",
						"type": "t_mapping(t_address,t_mapping(t_uint256,t_uint256))"
					},
					{
						"astId": 29,
						"contract": "carbon.sol:CarbonOffsetMarketplace",
						"label": "userReputation",
						"offset": 0,
						"slot": "3",
						"type": "t_mapping(t_address,t_uint256)"
					},
					{
						"astId": 296,
						"contract": "carbon.sol:CarbonOffsetMarketplace",
						"label": "proposals",
						"offset": 0,
						"slot": "4",
						"type": "t_array(t_struct(Proposal)292_storage)dyn_storage"
					}
				],
				"types": {
					"t_address": {
						"encoding": "inplace",
						"label": "address",
						"numberOfBytes": "20"
					},
					"t_array(t_struct(Proposal)292_storage)dyn_storage": {
						"base": "t_struct(Proposal)292_storage",
						"encoding": "dynamic_array",
						"label": "struct CarbonOffsetMarketplace.Proposal[]",
						"numberOfBytes": "32"
					},
					"t_bool": {
						"encoding": "inplace",
						"label": "bool",
						"numberOfBytes": "1"
					},
					"t_mapping(t_address,t_mapping(t_uint256,t_uint256))": {
						"encoding": "mapping",
						"key": "t_address",
						"label": "mapping(address => mapping(uint256 => uint256))",
						"numberOfBytes": "32",
						"value": "t_mapping(t_uint256,t_uint256)"
					},
					"t_mapping(t_address,t_uint256)": {
						"encoding": "mapping",
						"key": "t_address",
						"label": "mapping(address => uint256)",
						"numberOfBytes": "32",
						"value": "t_uint256"
					},
					"t_mapping(t_uint256,t_struct(Project)12_storage)": {
						"encoding": "mapping",
						"key": "t_uint256",
						"label": "mapping(uint256 => struct CarbonOffsetMarketplace.Project)",
						"numberOfBytes": "32",
						"value": "t_struct(Project)12_storage"
					},
					"t_mapping(t_uint256,t_uint256)": {
						"encoding": "mapping",
						"key": "t_uint256",
						"label": "mapping(uint256 => uint256)",
						"numberOfBytes": "32",
						"value": "t_uint256"
					},
					"t_string_storage": {
						"encoding": "bytes",
						"label": "string",
						"numberOfBytes": "32"
					},
					"t_struct(Project)12_storage": {
						"encoding": "inplace",
						"label": "struct CarbonOffsetMarketplace.Project",
						"members": [
							{
								"astId": 3,
								"contract": "carbon.sol:CarbonOffsetMarketplace",
								"label": "owner",
								"offset": 0,
								"slot": "0",
								"type": "t_address"
							},
							{
								"astId": 5,
								"contract": "carbon.sol:CarbonOffsetMarketplace",
								"label": "name",
								"offset": 0,
								"slot": "1",
								"type": "t_string_storage"
							},
							{
								"astId": 7,
								"contract": "carbon.sol:CarbonOffsetMarketplace",
								"label": "totalCredits",
								"offset": 0,
								"slot": "2",
								"type": "t_uint256"
							},
							{
								"astId": 9,
								"contract": "carbon.sol:CarbonOffsetMarketplace",
								"label": "availableCredits",
								"offset": 0,
								"slot": "3",
								"type": "t_uint256"
							},
							{
								"astId": 11,
								"contract": "carbon.sol:CarbonOffsetMarketplace",
								"label": "pricePerCredit",
								"offset": 0,
								"slot": "4",
								"type": "t_uint256"
							}
						],
						"numberOfBytes": "160"
					},
					"t_struct(Proposal)292_storage": {
						"encoding": "inplace",
						"label": "struct CarbonOffsetMarketplace.Proposal",
						"members": [
							{
								"astId": 283,
								"contract": "carbon.sol:CarbonOffsetMarketplace",
								"label": "proposer",
								"offset": 0,
								"slot": "0",
								"type": "t_address"
							},
							{
								"astId": 285,
								"contract": "carbon.sol:CarbonOffsetMarketplace",
								"label": "description",
								"offset": 0,
								"slot": "1",
								"type": "t_string_storage"
							},
							{
								"astId": 287,
								"contract": "carbon.sol:CarbonOffsetMarketplace",
								"label": "votesFor",
								"offset": 0,
								"slot": "2",
								"type": "t_uint256"
							},
							{
								"astId": 289,
								"contract": "carbon.sol:CarbonOffsetMarketplace",
								"label": "votesAgainst",
								"offset": 0,
								"slot": "3",
								"type": "t_uint256"
							},
							{
								"astId": 291,
								"contract": "carbon.sol:CarbonOffsetMarketplace",
								"label": "executed",
								"offset": 0,
								"slot": "4",
								"type": "t_bool"
							}
						],
						"numberOfBytes": "160"
					},
					"t_uint256": {
						"encoding": "inplace",
						"label": "uint256",
						"numberOfBytes": "32"
					}
				}
			},
			"userdoc": {
				"kind": "user",
				"methods": {},
				"version": 1
			}
		}
	}
}